{"abi":[{"type":"function","name":"DEFAULT_ADMIN_ROLE","inputs":[],"outputs":[{"name":"","type":"bytes32","internalType":"bytes32"}],"stateMutability":"view"},{"type":"function","name":"DENOMINATOR","inputs":[],"outputs":[{"name":"","type":"uint256","internalType":"uint256"}],"stateMutability":"view"},{"type":"function","name":"GOV_ROLE","inputs":[],"outputs":[{"name":"","type":"bytes32","internalType":"bytes32"}],"stateMutability":"view"},{"type":"function","name":"LOOP_LIMIT","inputs":[],"outputs":[{"name":"","type":"uint8","internalType":"uint8"}],"stateMutability":"view"},{"type":"function","name":"TOKEN_SAVER_ROLE","inputs":[],"outputs":[{"name":"","type":"bytes32","internalType":"bytes32"}],"stateMutability":"view"},{"type":"function","name":"agentNft","inputs":[],"outputs":[{"name":"","type":"address","internalType":"address"}],"stateMutability":"view"},{"type":"function","name":"agentRewardCount","inputs":[{"name":"virtualId","type":"uint256","internalType":"uint256"}],"outputs":[{"name":"","type":"uint256","internalType":"uint256"}],"stateMutability":"view"},{"type":"function","name":"claimAllStakerRewards","inputs":[{"name":"virtualIds","type":"uint256[]","internalType":"uint256[]"}],"outputs":[],"stateMutability":"nonpayable"},{"type":"function","name":"claimAllValidatorRewards","inputs":[{"name":"virtualIds","type":"uint256[]","internalType":"uint256[]"}],"outputs":[],"stateMutability":"nonpayable"},{"type":"function","name":"claimStakerRewards","inputs":[{"name":"virtualId","type":"uint256","internalType":"uint256"}],"outputs":[],"stateMutability":"nonpayable"},{"type":"function","name":"claimValidatorRewards","inputs":[{"name":"virtualId","type":"uint256","internalType":"uint256"}],"outputs":[],"stateMutability":"nonpayable"},{"type":"function","name":"distributeRewards","inputs":[{"name":"amount","type":"uint256","internalType":"uint256"},{"name":"virtualIds","type":"uint256[]","internalType":"uint256[]"},{"name":"shouldShareWithProtocol","type":"bool","internalType":"bool"}],"outputs":[],"stateMutability":"nonpayable"},{"type":"function","name":"getAgentReward","inputs":[{"name":"virtualId","type":"uint256","internalType":"uint256"},{"name":"pos","type":"uint256","internalType":"uint256"}],"outputs":[{"name":"","type":"tuple","internalType":"struct IAgentRewardV3.AgentReward","components":[{"name":"id","type":"uint256","internalType":"uint256"},{"name":"rewardIndex","type":"uint256","internalType":"uint256"},{"name":"stakerAmount","type":"uint256","internalType":"uint256"},{"name":"validatorAmount","type":"uint256","internalType":"uint256"},{"name":"totalProposals","type":"uint256","internalType":"uint256"},{"name":"totalStaked","type":"uint256","internalType":"uint256"}]}],"stateMutability":"view"},{"type":"function","name":"getAgentRewardCount","inputs":[{"name":"virtualId","type":"uint256","internalType":"uint256"}],"outputs":[{"name":"","type":"uint256","internalType":"uint256"}],"stateMutability":"view"},{"type":"function","name":"getClaimableStakerRewards","inputs":[{"name":"account","type":"address","internalType":"address"},{"name":"virtualId","type":"uint256","internalType":"uint256"}],"outputs":[{"name":"totalClaimable","type":"uint256","internalType":"uint256"},{"name":"numRewards","type":"uint256","internalType":"uint256"}],"stateMutability":"view"},{"type":"function","name":"getClaimableValidatorRewards","inputs":[{"name":"account","type":"address","internalType":"address"},{"name":"virtualId","type":"uint256","internalType":"uint256"}],"outputs":[{"name":"totalClaimable","type":"uint256","internalType":"uint256"},{"name":"numRewards","type":"uint256","internalType":"uint256"}],"stateMutability":"view"},{"type":"function","name":"getLPValue","inputs":[{"name":"virtualId","type":"uint256","internalType":"uint256"}],"outputs":[{"name":"","type":"uint256","internalType":"uint256"}],"stateMutability":"view"},{"type":"function","name":"getPastRewardSettings","inputs":[{"name":"timepoint","type":"uint32","internalType":"uint32"}],"outputs":[{"name":"","type":"tuple","internalType":"struct RewardSettingsCheckpointsV2.RewardSettings","components":[{"name":"protocolShares","type":"uint16","internalType":"uint16"},{"name":"stakerShares","type":"uint16","internalType":"uint16"}]}],"stateMutability":"view"},{"type":"function","name":"getReward","inputs":[{"name":"pos","type":"uint256","internalType":"uint256"}],"outputs":[{"name":"","type":"tuple","internalType":"struct IAgentRewardV3.Reward","components":[{"name":"blockNumber","type":"uint256","internalType":"uint256"},{"name":"amount","type":"uint256","internalType":"uint256"},{"name":"lpValues","type":"uint256[]","internalType":"uint256[]"},{"name":"virtualIds","type":"uint256[]","internalType":"uint256[]"}]}],"stateMutability":"view"},{"type":"function","name":"getRewardSettings","inputs":[],"outputs":[{"name":"","type":"tuple","internalType":"struct RewardSettingsCheckpointsV2.RewardSettings","components":[{"name":"protocolShares","type":"uint16","internalType":"uint16"},{"name":"stakerShares","type":"uint16","internalType":"uint16"}]}],"stateMutability":"view"},{"type":"function","name":"getRoleAdmin","inputs":[{"name":"role","type":"bytes32","internalType":"bytes32"}],"outputs":[{"name":"","type":"bytes32","internalType":"bytes32"}],"stateMutability":"view"},{"type":"function","name":"getTotalClaimableStakerRewards","inputs":[{"name":"account","type":"address","internalType":"address"},{"name":"virtualIds","type":"uint256[]","internalType":"uint256[]"}],"outputs":[{"name":"totalClaimable","type":"uint256","internalType":"uint256"}],"stateMutability":"view"},{"type":"function","name":"getTotalClaimableValidatorRewards","inputs":[{"name":"account","type":"address","internalType":"address"},{"name":"virtualIds","type":"uint256[]","internalType":"uint256[]"}],"outputs":[{"name":"totalClaimable","type":"uint256","internalType":"uint256"}],"stateMutability":"view"},{"type":"function","name":"grantRole","inputs":[{"name":"role","type":"bytes32","internalType":"bytes32"},{"name":"account","type":"address","internalType":"address"}],"outputs":[],"stateMutability":"nonpayable"},{"type":"function","name":"hasRole","inputs":[{"name":"role","type":"bytes32","internalType":"bytes32"},{"name":"account","type":"address","internalType":"address"}],"outputs":[{"name":"","type":"bool","internalType":"bool"}],"stateMutability":"view"},{"type":"function","name":"initialize","inputs":[{"name":"rewardToken_","type":"address","internalType":"address"},{"name":"agentNft_","type":"address","internalType":"address"},{"name":"settings_","type":"tuple","internalType":"struct RewardSettingsCheckpointsV2.RewardSettings","components":[{"name":"protocolShares","type":"uint16","internalType":"uint16"},{"name":"stakerShares","type":"uint16","internalType":"uint16"}]}],"outputs":[],"stateMutability":"nonpayable"},{"type":"function","name":"protocolRewards","inputs":[],"outputs":[{"name":"","type":"uint256","internalType":"uint256"}],"stateMutability":"view"},{"type":"function","name":"renounceRole","inputs":[{"name":"role","type":"bytes32","internalType":"bytes32"},{"name":"callerConfirmation","type":"address","internalType":"address"}],"outputs":[],"stateMutability":"nonpayable"},{"type":"function","name":"revokeRole","inputs":[{"name":"role","type":"bytes32","internalType":"bytes32"},{"name":"account","type":"address","internalType":"address"}],"outputs":[],"stateMutability":"nonpayable"},{"type":"function","name":"rewardCount","inputs":[],"outputs":[{"name":"","type":"uint256","internalType":"uint256"}],"stateMutability":"view"},{"type":"function","name":"rewardToken","inputs":[],"outputs":[{"name":"","type":"address","internalType":"address"}],"stateMutability":"view"},{"type":"function","name":"saveToken","inputs":[{"name":"_token","type":"address","internalType":"address"},{"name":"_receiver","type":"address","internalType":"address"},{"name":"_amount","type":"uint256","internalType":"uint256"}],"outputs":[],"stateMutability":"nonpayable"},{"type":"function","name":"setRewardSettings","inputs":[{"name":"protocolShares_","type":"uint16","internalType":"uint16"},{"name":"stakerShares_","type":"uint16","internalType":"uint16"}],"outputs":[],"stateMutability":"nonpayable"},{"type":"function","name":"supportsInterface","inputs":[{"name":"interfaceId","type":"bytes4","internalType":"bytes4"}],"outputs":[{"name":"","type":"bool","internalType":"bool"}],"stateMutability":"view"},{"type":"function","name":"updateRefContracts","inputs":[{"name":"rewardToken_","type":"address","internalType":"address"},{"name":"agentNft_","type":"address","internalType":"address"}],"outputs":[],"stateMutability":"nonpayable"},{"type":"event","name":"Initialized","inputs":[{"name":"version","type":"uint64","indexed":false,"internalType":"uint64"}],"anonymous":false},{"type":"event","name":"NewAgentReward","inputs":[{"name":"virtualId","type":"uint256","indexed":true,"internalType":"uint256"},{"name":"id","type":"uint256","indexed":false,"internalType":"uint256"}],"anonymous":false},{"type":"event","name":"NewReward","inputs":[{"name":"pos","type":"uint256","indexed":false,"internalType":"uint256"},{"name":"virtualIds","type":"uint256[]","indexed":false,"internalType":"uint256[]"}],"anonymous":false},{"type":"event","name":"RefContractsUpdated","inputs":[{"name":"rewardToken","type":"address","indexed":false,"internalType":"address"},{"name":"agentNft","type":"address","indexed":false,"internalType":"address"}],"anonymous":false},{"type":"event","name":"RewardSettingsUpdated","inputs":[{"name":"protocolShares","type":"uint16","indexed":false,"internalType":"uint16"},{"name":"stakerShares","type":"uint16","indexed":false,"internalType":"uint16"}],"anonymous":false},{"type":"event","name":"RoleAdminChanged","inputs":[{"name":"role","type":"bytes32","indexed":true,"internalType":"bytes32"},{"name":"previousAdminRole","type":"bytes32","indexed":true,"internalType":"bytes32"},{"name":"newAdminRole","type":"bytes32","indexed":true,"internalType":"bytes32"}],"anonymous":false},{"type":"event","name":"RoleGranted","inputs":[{"name":"role","type":"bytes32","indexed":true,"internalType":"bytes32"},{"name":"account","type":"address","indexed":true,"internalType":"address"},{"name":"sender","type":"address","indexed":true,"internalType":"address"}],"anonymous":false},{"type":"event","name":"RoleRevoked","inputs":[{"name":"role","type":"bytes32","indexed":true,"internalType":"bytes32"},{"name":"account","type":"address","indexed":true,"internalType":"address"},{"name":"sender","type":"address","indexed":true,"internalType":"address"}],"anonymous":false},{"type":"event","name":"StakerRewardClaimed","inputs":[{"name":"virtualId","type":"uint256","indexed":true,"internalType":"uint256"},{"name":"staker","type":"address","indexed":true,"internalType":"address"},{"name":"numRewards","type":"uint256","indexed":false,"internalType":"uint256"},{"name":"amount","type":"uint256","indexed":false,"internalType":"uint256"}],"anonymous":false},{"type":"event","name":"TokenSaved","inputs":[{"name":"by","type":"address","indexed":true,"internalType":"address"},{"name":"receiver","type":"address","indexed":true,"internalType":"address"},{"name":"token","type":"address","indexed":true,"internalType":"address"},{"name":"amount","type":"uint256","indexed":false,"internalType":"uint256"}],"anonymous":false},{"type":"event","name":"ValidatorRewardClaimed","inputs":[{"name":"virtualId","type":"uint256","indexed":true,"internalType":"uint256"},{"name":"validator","type":"address","indexed":true,"internalType":"address"},{"name":"amount","type":"uint256","indexed":false,"internalType":"uint256"}],"anonymous":false},{"type":"error","name":"AccessControlBadConfirmation","inputs":[]},{"type":"error","name":"AccessControlUnauthorizedAccount","inputs":[{"name":"account","type":"address","internalType":"address"},{"name":"neededRole","type":"bytes32","internalType":"bytes32"}]},{"type":"error","name":"AddressEmptyCode","inputs":[{"name":"target","type":"address","internalType":"address"}]},{"type":"error","name":"AddressInsufficientBalance","inputs":[{"name":"account","type":"address","internalType":"address"}]},{"type":"error","name":"CheckpointUnorderedInsertion","inputs":[]},{"type":"error","name":"ERC5805FutureLookup","inputs":[{"name":"timepoint","type":"uint256","internalType":"uint256"},{"name":"clock","type":"uint32","internalType":"uint32"}]},{"type":"error","name":"FailedInnerCall","inputs":[]},{"type":"error","name":"InvalidInitialization","inputs":[]},{"type":"error","name":"NotGovError","inputs":[]},{"type":"error","name":"NotInitializing","inputs":[]},{"type":"error","name":"NotOwnerError","inputs":[]},{"type":"error","name":"SafeCastOverflowedUintDowncast","inputs":[{"name":"bits","type":"uint8","internalType":"uint8"},{"name":"value","type":"uint256","internalType":"uint256"}]},{"type":"error","name":"SafeERC20FailedOperation","inputs":[{"name":"token","type":"address","internalType":"address"}]}],"bytecode":{"object":"0x60808060405234601557612990908161001b8239f35b600080fdfe608080604052600436101561001357600080fd5b60003560e01c90816301ffc9a714611766575080631b9731fb146117485780631c4b774b146116e0578063248a9ca3146116ab578063295cccba146115f457806329df6479146115d65780632f2ff15d1461159657806336568abe1461155057806343397b771461046357806372f6791614611512578063756d3a091461144257806376175b061461140757806379085425146113e95780637bc31f70146113c257806389e53e6b1461139d5780639038ef061461136a57806391591025146112c5578063918f8674146112a857806391d148541461125b57806393d045cd146111ff5780639845f1fb14610b935780639afdb2c214610a8c5780639cbef4a914610a63578063a217fddf14610a47578063ae956363146108b5578063b536818a1461087a578063c14ac73a1461085e578063cf0ca1941461068e578063d2de18a0146105d2578063d547741f1461058b578063d8bd0da4146104b8578063dfd91cdc14610468578063ed7987b414610463578063f1d60b24146101ce5763f7c618c1146101a057600080fd5b346101c95760003660031901126101c9576002546040516001600160a01b039091168152602090f35b600080fd5b346101c95760803660031901126101c9576101e7611803565b6101ef6117ed565b60403660431901126101c957604051906102088261187b565b60443561ffff811681036101c95782526064359061ffff821682036101c9576020830191825260008051602061293b833981519152549360ff8560401c1615946001600160401b0381168015908161045b575b6001149081610451575b159081610448575b506104375767ffffffffffffffff19811660011760008051602061293b833981519152558561040a575b50600280546001600160a01b039283166001600160a01b0319918216179091556003805493909216921691909117905560065480156103be5760001981019081116103f4576102e5816125a9565b506103086001604051926102f88461187b565b63ffffffff8154168452016125e4565b602082015263ffffffff8151166103e3575163ffffffff166103be57600161033261ffff926125a9565b500192511663ffff00008354925160101b169163ffffffff1916171790555b61035a336123ea565b506001805561036557005b68ff00000000000000001960008051602061293b833981519152541660008051602061293b833981519152557fc7f505b2f371ae2175ee4913f4499e1f2633a7b5936321eed1cdaeb6115181d2602060405160018152a1005b50506040516103de916103d08261187b565b600082526020820152612873565b610351565b632520601d60e01b60005260046000fd5b634e487b7160e01b600052601160045260246000fd5b68ffffffffffffffffff1916680100000000000000011760008051602061293b8339815191525585610297565b63f92ee8a960e01b60005260046000fd5b9050158761026d565b303b159150610265565b87915061025b565b611819565b346101c9576104763661192b565b600091825b82518410156104ad576104a560019161049e6104978787611bd7565b5185611d22565b5090611bca565b93019261047b565b602090604051908152f35b346101c95760203660031901126101c9576004356001600160401b0381116101c9576104e89036906004016118ce565b60016008546104fa60ff821615611b7f565b60ff191617600855600090815b815181101561056657806105366001610521819486611bd7565b519561052d8733611d22565b93908092611bca565b9633600052600960205260406000209060005260205261055c6040600020918254611bca565b8155015501610507565b60025461057f90849033906001600160a01b0316612373565b6008805460ff19169055005b346101c95760403660031901126101c9576105d06004356105aa6117ed565b906105cb6105c682600052600060205260016040600020015490565b6123af565b612527565b005b346101c95760203660031901126101c95760043560016008546105f860ff821615611b7f565b60ff19161760085561060a8133611d22565b91903360005260096020526040600020826000526020528260016040600020610634848254611bca565b8155015560025461065190829033906001600160a01b0316612373565b60405192835260208301527fbabba3a0541a52d8f0c10ec16b80b1c224e840a2dec9449abc37b2c718c2a7de60403393a36008805460ff19169055005b346101c95760403660031901126101c95760043561ffff81168091036101c95760243561ffff81168091036101c9573360009081527ff42cf6f079dae9a1c4905bf4a189ed49c3efccf20a4af60f202bafa7d7d85a03602052604090205460ff161561084d576106fd4361264f565b916040519161070b8361187b565b81835260208301818152600654939084156108045760001985019485116103f457610735856125a9565b50946107596001604051976107498961187b565b63ffffffff8154168952016125e4565b602087015263ffffffff8087511697168097116103e357867fac6be3927d791586090aea397f7c4e22aeec9d0fc408dd0ab3e43b3f2accf5a79763ffffffff6040985116146000146107e0575060016107b461ffff926125a9565b500192511663ffff00008354925160101b169163ffffffff1916171790555b82519182526020820152a1005b9150506107ff918551916107f38361187b565b82526020820152612873565b6107d3565b50604093507fac6be3927d791586090aea397f7c4e22aeec9d0fc408dd0ab3e43b3f2accf5a7946107ff9163ffffffff8651926108408461187b565b1682526020820152612873565b631f43c9cf60e31b60005260046000fd5b346101c95760003660031901126101c957602060405160648152f35b346101c95760003660031901126101c95760206040517f0603f2636f0ca34ae3ea5a23bb826e2bd2ffd59fb1c01edc1ba10fba2899d1ba8152f35b346101c95760203660031901126101c95760043563ffffffff81168091036101c9576108df612037565b5063ffffffff6108ee4361264f565b1680821015610a2f5750610900612037565b506006549060009180600581116109e8575b5091905b82821061098f57828061096657506109626040516109338161187b565b60008152600060208201525b60405191829182919091602061ffff816040840195828151168552015116910152565b0390f35b60001981019081116103f45761098a6001610983610962936125a9565b50016125e4565b61093f565b90916109a281841860011c828516611bca565b908263ffffffff6109b2846125a9565b50541611156109c45750915b90610916565b925060018101809111156109be57634e487b7160e01b600052601160045260246000fd5b806109f56109fb92612732565b90612366565b9063ffffffff610a0a836125a9565b505416831015610a1c57505b83610912565b9250600181018091116103f45791610a16565b90631f2fd49d60e01b60005260045260245260446000fd5b346101c95760003660031901126101c957602060405160008152f35b346101c95760003660031901126101c9576003546040516001600160a01b039091168152602090f35b346101c95760603660031901126101c957610aa5611803565b610aad6117ed565b3360009081527fd6258023de8dfbb5912550ba7b6613517bf13c442784ee5998ddac4edb10529a602052604090205490916044359160ff1615610b39576001600160a01b031691610aff828285612373565b6040519182526001600160a01b03169033907f30d87cec6b4c56cede1018725d1e6d9304e2f7ee6d25b004b7e2183f793f26bc90602090a4005b60405162461bcd60e51b815260206004820152602c60248201527f546f6b656e53617665722e6f6e6c79546f6b656e53617665723a207065726d6960448201526b1cdcda5bdb8819195b9a595960a21b6064820152608490fd5b346101c95760603660031901126101c9576004356024356001600160401b0381116101c957610bc69036906004016118ce565b906044359081151582036101c9573360009081527ff42cf6f079dae9a1c4905bf4a189ed49c3efccf20a4af60f202bafa7d7d85a03602052604090205460ff161561084d5780156111c9576002546040516323b872dd60e01b602082015233602482015230604482015260648082018490528152610ca39291610c5d91906001600160a01b0316610c58608483611896565b61267c565b610c65612037565b50610c6e612607565b92156111c157612710610c8d61ffff610c85612607565b511683611cef565b04610c9a81600754611bca565b60075590612366565b91600454815193610cb3856118b7565b92610cc16040519485611896565b858452601f19610cd0876118b7565b0136602086013760009060005b8781106111845750811561114b57604051610cf781611845565b4381526020810190848252604081018781526060820192848452600160401b8810156110055760018801600455610d2d88611a92565b939093610fef575183555160018301555180519060028301906001600160401b03831161100557600160401b8311611005578154838355808410611122575b5060200190600052602060002060005b83811061110e57505050506003019051908151916001600160401b03831161100557600160401b83116110055781548383558084106110e5575b506020909998990190600052602060002060005b8381106110d15750505050604051604081018582526040602083015282518091526060820190602084019060005b8181106110bb5750505090807f1424534c4be6c4f9d8d2177daa3c4cfc32c0fe81d008781f922fa4d6b8be615f920390a1602060009701965b868110610e3a57005b610e448183611bd7565b5190610e6384610e5e87610e58858c611bd7565b51611cef565b611d02565b600154929060001984146103f4576001840160015560018060a01b0360035416906040519463020e5c6160e51b8652836004870152602086602481865afa95861561104f578d9060009761107c575b506000612710610ec961ffff602494511686611cef565b049460405192838092635652386760e11b82528960048301525afa90811561104f5760049160209160009161105b575b505160405163368d719960e21b815292839182906001600160a01b03165afa90811561104f5760009161101b575b50846000526005602052610f4084604060002094612366565b9660405190610f4e82611860565b83825260208201948d86526040830196875260608301998a526080830193845260a083019182528054600160401b81101561100557610f92916001820181556122c0565b939093610fef576001997f7359be50093766679cdd45e9615fcd90d19df2faf3709de5c567187a82d9a7cf97602097600595518755518c87015551600286015551600385015551600484015551910155604051908152a201610e31565b634e487b7160e01b600052600060045260246000fd5b634e487b7160e01b600052604160045260246000fd5b906020823d8211611047575b8161103460209383611896565b810103126110445750518e610f27565b80fd5b3d9150611027565b6040513d6000823e3d90fd5b611076913d8091833e61106e8183611896565b810190611beb565b38610ef9565b91929394959690506020823d82116110b3575b8161109c60209383611896565b8101031261104457505194939291908c6000610eb2565b3d915061108f565b8251845260209384019390920191600101610df8565b825181830155602090920191600101610dca565b8260005283602060002091820191015b8181106111025750610db6565b600081556001016110f5565b600190602084519401938184015501610d7c565b8260005283602060002091820191015b81811061113f5750610d6c565b60008155600101611132565b60405162461bcd60e51b8152602060048201526011602482015270496e76616c6964204c502076616c75657360781b6044820152606490fd5b916111ba60019161119e6111988686611bd7565b516119b7565b6111a8868a611bd7565b526111b38589611bd7565b5190611bca565b9201610cdd565b600090612366565b60405162461bcd60e51b815260206004820152600e60248201526d125b9d985b1a5908185b5bdd5b9d60921b6044820152606490fd5b346101c95760403660031901126101c95760c06112206024356004356122dc565b60a0604051918051835260208101516020840152604081015160408401526060810151606084015260808101516080840152015160a0820152f35b346101c95760403660031901126101c9576112746117ed565b600435600052600060205260406000209060018060a01b0316600052602052602060ff604060002054166040519015158152f35b346101c95760003660031901126101c95760206040516127108152f35b346101c95760203660031901126101c9576004356001600160401b0381116101c9576112f59036906004016118ce565b600160085461130760ff821615611b7f565b60ff191617600855600090815b8151811015610566578061133a600161132e819486611bd7565b519561052d8733612050565b9633600052600a6020526040600020906000526020526113606040600020918254611bca565b8155015501611314565b346101c95760403660031901126101c9576040611391611388611803565b60243590612050565b82519182526020820152f35b346101c95760003660031901126101c9576113b6612037565b5061096261093f612607565b346101c95760403660031901126101c95760406113916113e0611803565b60243590611d22565b346101c95760003660031901126101c9576020600454604051908152f35b346101c95760003660031901126101c95760206040517fd9d917c4034cff8a8c5fa1e40f9fbaf906b827c33ae3ab1fcabbb616cb8ef24d8152f35b346101c95760403660031901126101c95761145b611803565b6114636117ed565b3360009081527ff42cf6f079dae9a1c4905bf4a189ed49c3efccf20a4af60f202bafa7d7d85a03602052604090205490919060ff161561084d577f17eb3201ecbba4a28a83bf810a0b98f1867e7c56f760aa909bc63a64fdeba9d79160409160018060a01b031690816bffffffffffffffffffffffff60a01b600254161760025560018060a01b0316806bffffffffffffffffffffffff60a01b600354161760035582519182526020820152a1005b346101c9576115203661192b565b600091825b82518410156104ad5761154860019161049e6115418787611bd7565b5185612050565b930192611525565b346101c95760403660031901126101c9576115696117ed565b336001600160a01b03821603611585576105d090600435612527565b63334bd91960e11b60005260046000fd5b346101c95760403660031901126101c9576105d06004356115b56117ed565b906115d16105c682600052600060205260016040600020015490565b61249c565b346101c95760003660031901126101c9576020600754604051908152f35b346101c95760203660031901126101c957600435600160085461161a60ff821615611b7f565b60ff19161760085561162c8133612050565b91909133600052600a60205260406000208260005260205260016040600020611656858254611bca565b8155015560025461167390839033906001600160a01b0316612373565b6040519182527f6c69b517f2ad63051caec865e7d73f276d42c4c29887061091d78119e525b4b460203393a36008805460ff19169055005b346101c95760203660031901126101c95760206116d8600435600052600060205260016040600020015490565b604051908152f35b346101c95760203660031901126101c9576109626116ff600435611b14565b6040519182916020835280516020840152602081015160408401526060611734604083015160808387015260a08601906117b9565b910151838203601f190160808501526117b9565b346101c95760203660031901126101c95760206116d86004356119b7565b346101c95760203660031901126101c9576004359063ffffffff60e01b82168092036101c957602091637965db0b60e01b81149081156117a8575b5015158152f35b6301ffc9a760e01b149050836117a1565b906020808351928381520192019060005b8181106117d75750505090565b82518452602093840193909201916001016117ca565b602435906001600160a01b03821682036101c957565b600435906001600160a01b03821682036101c957565b346101c95760203660031901126101c95760043560005260056020526020604060002054604051908152f35b608081019081106001600160401b0382111761100557604052565b60c081019081106001600160401b0382111761100557604052565b604081019081106001600160401b0382111761100557604052565b90601f801991011681019081106001600160401b0382111761100557604052565b6001600160401b0381116110055760051b60200190565b9080601f830112156101c95781356118e5816118b7565b926118f36040519485611896565b81845260208085019260051b8201019283116101c957602001905b82821061191b5750505090565b813581526020918201910161190e565b9060406003198301126101c9576004356001600160a01b03811681036101c95791602435906001600160401b0382116101c95761196a916004016118ce565b90565b51906001600160a01b03821682036101c957565b908160409103126101c9576119af60206040519261199e8461187b565b6119a78161196d565b84520161196d565b602082015290565b6003546040805163fcf9e6db60e01b8152600481019390935290829060249082906001600160a01b03165afa90811561104f57600091611a63575b50516002546040516370a0823160e01b81526001600160a01b0392831660048201529160209183916024918391165afa90811561104f57600091611a34575090565b90506020813d602011611a5b575b81611a4f60209383611896565b810103126101c9575190565b3d9150611a42565b611a85915060403d604011611a8b575b611a7d8183611896565b810190611981565b386119f2565b503d611a73565b600454811015611ab157600460005260206000209060021b0190600090565b634e487b7160e01b600052603260045260246000fd5b906040519182815491828252602082019060005260206000209260005b818110611afb575050611af992500383611896565b565b8454835260019485019487945060209093019201611ae4565b611b3f90606080604051611b2781611845565b60008152600060208201528160408201520152611a92565b50611b77600360405192611b5284611845565b8054845260018101546020850152611b6c60028201611ac7565b604085015201611ac7565b606082015290565b15611b8657565b60405162461bcd60e51b815260206004820152600e60248201526d31b0b73737ba103932b2b73a32b960911b6044820152606490fd5b60640190816064116103f457565b919082018092116103f457565b8051821015611ab15760209160051b010190565b6020818303126101c9578051906001600160401b0382116101c957019060a0828203126101c9576040519160a083018381106001600160401b0382111761100557604052611c388161196d565b8352611c466020820161196d565b6020840152611c576040820161196d565b6040840152611c686060820161196d565b60608401526080810151906001600160401b0382116101c957019080601f830112156101c957815190611c9a826118b7565b92611ca86040519485611896565b82845260208085019360051b8201019182116101c957602001915b818310611cd557505050608082015290565b825160ff811681036101c957815260209283019201611cc3565b818102929181159184041417156103f457565b8115611d0c570490565b634e487b7160e01b600052601260045260246000fd5b9160009260018060a01b03811660005260096020526040600020836000526020526040600020611d6d6020600160405193611d5c8561187b565b805485520154920191808352611bbc565b84600052600560205260406000205480821060001461202f5750915b829460018060a01b03600354169060405163fcf9e6db60e01b8152816004820152604081602481865afa90811561104f576024916000918291612010575b5060200151604051635652386760e11b8152600481018590526001600160a01b03909116949092839182905afa90811561104f57600091611ff5575b5051935194936001600160a01b03169291905b848610611e2557505050505050565b909192939497611e3589836122dc565b611e426020820151611b14565b8051604051622f640360e91b81526001600160a01b03881660048201526024810191909152602081604481895afa90811561104f57600091611fb4575b50815160405163209e1f0d60e01b81526001600160a01b03909216600483015260248201529060208280604481015b03818b5afa91821561104f57600092611f80575b505160405163d7b7d40560e01b81526001600160a01b03881660048201526024810191909152602081604481895afa90811561104f57600091611f4d575b50826080611f3260019694611f2d611f22611f3b966040611f419a0151611cef565b60a086015190611d02565b611cef565b91015190611d02565b90611bca565b98019493929190611e16565b906020823d8211611f78575b81611f6660209383611896565b81010312611044575051611f41611f00565b3d9150611f59565b90916020823d8211611fac575b81611f9a60209383611896565b81010312611044575051906020611ec2565b3d9150611f8d565b906020823d8211611fed575b81611fcd60209383611896565b810103126110445750906020611fe5611eae9361196d565b919250611e7f565b3d9150611fc0565b61200a91503d806000833e61106e8183611896565b38611e03565b612029915060403d604011611a8b57611a7d8183611896565b38611dc7565b905091611d89565b604051906120448261187b565b60006020838281520152565b9160009260018060a01b038116600052600a602052604060002083600052602052604060002061208a6020600160405193611d5c8561187b565b8460005260056020526040600020548082106000146122b85750915b829460018060a01b03600354169060405163fcf9e6db60e01b8152816004820152604081602481865afa90811561104f576024916000918291612299575b5060200151604051635652386760e11b8152600481018590526001600160a01b03909116949092839182905afa90811561104f5760009161227e575b5051935194936001600160a01b03169291905b84861061214257505050505050565b90919293949761215289836122dc565b6121976121626020830151611b14565b805160405163209e1f0d60e01b81526001600160a01b0389166004820152602481019190915291602090839081906044820190565b03818b5afa91821561104f5760009261224a575b5051604051630748d63560e31b81526001600160a01b03881660048201526024810191909152602081604481895afa90811561104f57600091612217575b50826080611f3260019694611f2d611f22611f3b96606061220b9a0151611cef565b98019493929190612133565b906020823d8211612242575b8161223060209383611896565b8101031261104457505161220b6121e9565b3d9150612223565b90916020823d8211612276575b8161226460209383611896565b810103126110445750519060206121ab565b3d9150612257565b61229391503d806000833e61106e8183611896565b38612120565b6122b2915060403d604011611a8b57611a7d8183611896565b386120e4565b9050916120a6565b8054821015611ab1576000526006602060002091020190600090565b9061232091600060a06040516122f181611860565b8281528260208201528260408201528260608201528260808201520152600052600560205260406000206122c0565b5060056040519161233083611860565b8054835260018101546020840152600281015460408401526003810154606084015260048101546080840152015460a082015290565b919082039182116103f457565b60405163a9059cbb60e01b60208201526001600160a01b03929092166024830152604480830193909352918152611af991610c58606483611896565b60008181526020818152604080832033845290915290205460ff16156123d25750565b63e2517d3f60e01b6000523360045260245260446000fd5b6001600160a01b03811660009081527fad3228b676f7d3cd4284a5443f17f1962b36e491b30a40b2405849e597ba5fb5602052604090205460ff16612496576001600160a01b031660008181527fad3228b676f7d3cd4284a5443f17f1962b36e491b30a40b2405849e597ba5fb560205260408120805460ff191660011790553391907f2f8788117e7eff1d82e926ec794901d17c78024a50270940304540a733656f0d8180a4600190565b50600090565b6000818152602081815260408083206001600160a01b038616845290915290205460ff16612520576000818152602081815260408083206001600160a01b0395909516808452949091528120805460ff19166001179055339291907f2f8788117e7eff1d82e926ec794901d17c78024a50270940304540a733656f0d9080a4600190565b5050600090565b6000818152602081815260408083206001600160a01b038616845290915290205460ff1615612520576000818152602081815260408083206001600160a01b0395909516808452949091528120805460ff19169055339291907ff6391f5c32d9c69d2a47ea670b442974b53935d1edc7fd64eb21e047a839171b9080a4600190565b600654811015611ab157600660005260206000209060011b0190600090565b8054821015611ab15760005260206000209060011b0190600090565b906040516125f18161187b565b602061ffff829454818116845260101c16910152565b61260f612037565b506006548061263357506040516126258161187b565b600081526000602082015290565b60001981019081116103f457600161098361196a9260066125c8565b63ffffffff81116126635763ffffffff1690565b6306dfcc6560e41b600052602060045260245260446000fd5b81516001600160a01b0390911691600091829160200182855af13d15612726573d6001600160401b038111611005576126d891604051916126c76020601f19601f8401160184611896565b82523d6000602084013e5b836128d9565b8051908115159182612702575b50506126ee5750565b635274afe760e01b60005260045260246000fd5b81925090602091810103126101c957602001518015908115036101c95738806126e5565b6126d8906060906126d2565b8015612496576128016001826000908460801c80612867575b508060401c8061285a575b508060201c8061284d575b508060101c80612840575b508060081c80612833575b508060041c80612826575b508060021c80612819575b50821c612812575b811c1b6127a28184611d02565b0160011c6127b08184611d02565b0160011c6127be8184611d02565b0160011c6127cc8184611d02565b0160011c6127da8184611d02565b0160011c6127e88184611d02565b0160011c6127f68184611d02565b0160011c8092611d02565b8082101561280d575090565b905090565b8101612795565b600291509101903861278d565b6004915091019038612782565b6008915091019038612777565b601091509101903861276c565b6020915091019038612761565b6040915091019038612756565b9150506080903861274b565b600654600160401b81101561100557806001612894920160065560066125c8565b610fef57600160209163ffffffff84511663ffffffff198254161781550191015161ffff81511663ffff00006020845493015160101b169163ffffffff191617179055565b906128ff57508051156128ee57805190602001fd5b630a12f52160e11b60005260046000fd5b81511580612931575b612910575090565b639996b31560e01b60009081526001600160a01b0391909116600452602490fd5b50803b1561290856fef0c57e16840df040f15088dc2f81fe391c3923bec73e23a9662efc9c229c6a00a264697066735822122056d25ad0ee2bf6ea61f572112729e6b91e6f8433fea8050b909b6c7113247b1264736f6c634300081a0033","linkReferences":{}},"methodIdentifiers":{"DEFAULT_ADMIN_ROLE()":"a217fddf","DENOMINATOR()":"918f8674","GOV_ROLE()":"b536818a","LOOP_LIMIT()":"c14ac73a","TOKEN_SAVER_ROLE()":"76175b06","agentNft()":"9cbef4a9","agentRewardCount(uint256)":"43397b77","claimAllStakerRewards(uint256[])":"d8bd0da4","claimAllValidatorRewards(uint256[])":"91591025","claimStakerRewards(uint256)":"d2de18a0","claimValidatorRewards(uint256)":"295cccba","distributeRewards(uint256,uint256[],bool)":"9845f1fb","getAgentReward(uint256,uint256)":"93d045cd","getAgentRewardCount(uint256)":"ed7987b4","getClaimableStakerRewards(address,uint256)":"7bc31f70","getClaimableValidatorRewards(address,uint256)":"9038ef06","getLPValue(uint256)":"1b9731fb","getPastRewardSettings(uint32)":"ae956363","getReward(uint256)":"1c4b774b","getRewardSettings()":"89e53e6b","getRoleAdmin(bytes32)":"248a9ca3","getTotalClaimableStakerRewards(address,uint256[])":"dfd91cdc","getTotalClaimableValidatorRewards(address,uint256[])":"72f67916","grantRole(bytes32,address)":"2f2ff15d","hasRole(bytes32,address)":"91d14854","initialize(address,address,(uint16,uint16))":"f1d60b24","protocolRewards()":"29df6479","renounceRole(bytes32,address)":"36568abe","revokeRole(bytes32,address)":"d547741f","rewardCount()":"79085425","rewardToken()":"f7c618c1","saveToken(address,address,uint256)":"9afdb2c2","setRewardSettings(uint16,uint16)":"cf0ca194","supportsInterface(bytes4)":"01ffc9a7","updateRefContracts(address,address)":"756d3a09"},"id":2}