{"abi":[{"type":"constructor","inputs":[{"name":"_initialSupply","type":"uint256","internalType":"uint256"},{"name":"initialOwner","type":"address","internalType":"address"}],"stateMutability":"nonpayable"},{"type":"function","name":"allowance","inputs":[{"name":"owner","type":"address","internalType":"address"},{"name":"spender","type":"address","internalType":"address"}],"outputs":[{"name":"","type":"uint256","internalType":"uint256"}],"stateMutability":"view"},{"type":"function","name":"approve","inputs":[{"name":"spender","type":"address","internalType":"address"},{"name":"value","type":"uint256","internalType":"uint256"}],"outputs":[{"name":"","type":"bool","internalType":"bool"}],"stateMutability":"nonpayable"},{"type":"function","name":"balanceOf","inputs":[{"name":"account","type":"address","internalType":"address"}],"outputs":[{"name":"","type":"uint256","internalType":"uint256"}],"stateMutability":"view"},{"type":"function","name":"cap","inputs":[],"outputs":[{"name":"","type":"uint256","internalType":"uint256"}],"stateMutability":"view"},{"type":"function","name":"decimals","inputs":[],"outputs":[{"name":"","type":"uint8","internalType":"uint8"}],"stateMutability":"view"},{"type":"function","name":"mint","inputs":[{"name":"_to","type":"address","internalType":"address"},{"name":"_amount","type":"uint256","internalType":"uint256"}],"outputs":[],"stateMutability":"nonpayable"},{"type":"function","name":"name","inputs":[],"outputs":[{"name":"","type":"string","internalType":"string"}],"stateMutability":"view"},{"type":"function","name":"owner","inputs":[],"outputs":[{"name":"","type":"address","internalType":"address"}],"stateMutability":"view"},{"type":"function","name":"renounceOwnership","inputs":[],"outputs":[],"stateMutability":"nonpayable"},{"type":"function","name":"symbol","inputs":[],"outputs":[{"name":"","type":"string","internalType":"string"}],"stateMutability":"view"},{"type":"function","name":"totalSupply","inputs":[],"outputs":[{"name":"","type":"uint256","internalType":"uint256"}],"stateMutability":"view"},{"type":"function","name":"transfer","inputs":[{"name":"to","type":"address","internalType":"address"},{"name":"value","type":"uint256","internalType":"uint256"}],"outputs":[{"name":"","type":"bool","internalType":"bool"}],"stateMutability":"nonpayable"},{"type":"function","name":"transferFrom","inputs":[{"name":"from","type":"address","internalType":"address"},{"name":"to","type":"address","internalType":"address"},{"name":"value","type":"uint256","internalType":"uint256"}],"outputs":[{"name":"","type":"bool","internalType":"bool"}],"stateMutability":"nonpayable"},{"type":"function","name":"transferOwnership","inputs":[{"name":"newOwner","type":"address","internalType":"address"}],"outputs":[],"stateMutability":"nonpayable"},{"type":"event","name":"Approval","inputs":[{"name":"owner","type":"address","indexed":true,"internalType":"address"},{"name":"spender","type":"address","indexed":true,"internalType":"address"},{"name":"value","type":"uint256","indexed":false,"internalType":"uint256"}],"anonymous":false},{"type":"event","name":"OwnershipTransferred","inputs":[{"name":"previousOwner","type":"address","indexed":true,"internalType":"address"},{"name":"newOwner","type":"address","indexed":true,"internalType":"address"}],"anonymous":false},{"type":"event","name":"Transfer","inputs":[{"name":"from","type":"address","indexed":true,"internalType":"address"},{"name":"to","type":"address","indexed":true,"internalType":"address"},{"name":"value","type":"uint256","indexed":false,"internalType":"uint256"}],"anonymous":false},{"type":"error","name":"ERC20ExceededCap","inputs":[{"name":"increasedSupply","type":"uint256","internalType":"uint256"},{"name":"cap","type":"uint256","internalType":"uint256"}]},{"type":"error","name":"ERC20InsufficientAllowance","inputs":[{"name":"spender","type":"address","internalType":"address"},{"name":"allowance","type":"uint256","internalType":"uint256"},{"name":"needed","type":"uint256","internalType":"uint256"}]},{"type":"error","name":"ERC20InsufficientBalance","inputs":[{"name":"sender","type":"address","internalType":"address"},{"name":"balance","type":"uint256","internalType":"uint256"},{"name":"needed","type":"uint256","internalType":"uint256"}]},{"type":"error","name":"ERC20InvalidApprover","inputs":[{"name":"approver","type":"address","internalType":"address"}]},{"type":"error","name":"ERC20InvalidCap","inputs":[{"name":"cap","type":"uint256","internalType":"uint256"}]},{"type":"error","name":"ERC20InvalidReceiver","inputs":[{"name":"receiver","type":"address","internalType":"address"}]},{"type":"error","name":"ERC20InvalidSender","inputs":[{"name":"sender","type":"address","internalType":"address"}]},{"type":"error","name":"ERC20InvalidSpender","inputs":[{"name":"spender","type":"address","internalType":"address"}]},{"type":"error","name":"OwnableInvalidOwner","inputs":[{"name":"owner","type":"address","internalType":"address"}]},{"type":"error","name":"OwnableUnauthorizedAccount","inputs":[{"name":"account","type":"address","internalType":"address"}]}],"bytecode":{"object":"0x60a06040523461047757610d816040813803918261001c8161047c565b9384928339810103126104775780516020909101516001600160a01b038116908190036104775761004d604061047c565b91601083526f159a5c9d1d585b08141c9bdd1bd8dbdb60821b6020840152610075604061047c565b60078152661592549515505360ca1b602082015283519092906001600160401b03811161038057600354600181811c9116801561046d575b602082101461036057601f8111610408575b50602094601f82116001146103a157948192939495600092610396575b50508160011b916000199060031b1c1916176003555b82516001600160401b03811161038057600454600181811c91168015610376575b602082101461036057601f81116102fb575b506020601f82116001146102945781929394600092610289575b50508160011b916000199060031b1c1916176004555b6b033b2e3c9fd0803ce8000000608052801561027357600580546001600160a01b0319811683179091556001600160a01b03167f8be0079c531659141344cd1fd0a4f28419497f9722a3daafe3b4186f6b6457e0600080a3331561025d57600254818101809111610247576002556000903382528160205260408220818154019055604051908152817fddf252ad1be2c89b69c2b068fc378daa952ba7f163c4a11628f55a4df523b3ef60203393a36080519060025491808311610232576040516108df90816104a2823960805181818161043601526104b90152f35b60449263279e7e1560e21b8352600452602452fd5b634e487b7160e01b600052601160045260246000fd5b63ec442f0560e01b600052600060045260246000fd5b631e4fbdf760e01b600052600060045260246000fd5b01519050388061013f565b601f198216906004600052806000209160005b8181106102e3575095836001959697106102ca575b505050811b01600455610155565b015160001960f88460031b161c191690553880806102bc565b9192602060018192868b0151815501940192016102a7565b60046000527f8a35acfbc15ff81a39ae7d344fd709f28e8600b4aa8c65c6b64bfe7fe36bd19b601f830160051c81019160208410610356575b601f0160051c01905b81811061034a5750610125565b6000815560010161033d565b9091508190610334565b634e487b7160e01b600052602260045260246000fd5b90607f1690610113565b634e487b7160e01b600052604160045260246000fd5b0151905038806100dc565b601f198216956003600052806000209160005b8881106103f0575083600195969798106103d7575b505050811b016003556100f2565b015160001960f88460031b161c191690553880806103c9565b919260206001819286850151815501940192016103b4565b60036000527fc2575a0e9e593c00f959f8c92f12db2869c3395a3b0502d05e2516446f71f85b601f830160051c81019160208410610463575b601f0160051c01905b81811061045757506100bf565b6000815560010161044a565b9091508190610441565b90607f16906100ad565b600080fd5b6040519190601f01601f191682016001600160401b038111838210176103805760405256fe608080604052600436101561001357600080fd5b60003560e01c90816306fdde031461068957508063095ea7b31461060357806318160ddd146105e557806323b872dd146104f8578063313ce567146104dc578063355274ea146104a157806340c10f19146103ab57806370a0823114610371578063715018a6146103145780638da5cb5b146102eb57806395d89b41146101ca578063a9059cbb14610199578063dd62ed3e146101485763f2fde38b146100b957600080fd5b34610143576020366003190112610143576100d26107a5565b6100da610880565b6001600160a01b0316801561012d57600580546001600160a01b0319811683179091556001600160a01b03167f8be0079c531659141344cd1fd0a4f28419497f9722a3daafe3b4186f6b6457e0600080a3005b631e4fbdf760e01b600052600060045260246000fd5b600080fd5b34610143576040366003190112610143576101616107a5565b6101696107bb565b6001600160a01b039182166000908152600160209081526040808320949093168252928352819020549051908152f35b34610143576040366003190112610143576101bf6101b56107a5565b60243590336107d1565b602060405160018152f35b346101435760003660031901126101435760405160006004548060011c906001811680156102e1575b6020831081146102cd578285529081156102b1575060011461025a575b50819003601f01601f191681019067ffffffffffffffff821181831017610244576102408291826040528261075c565b0390f35b634e487b7160e01b600052604160045260246000fd5b905060046000527f8a35acfbc15ff81a39ae7d344fd709f28e8600b4aa8c65c6b64bfe7fe36bd19b6000905b82821061029b57506020915082010182610210565b6001816020925483858801015201910190610286565b90506020925060ff191682840152151560051b82010182610210565b634e487b7160e01b84526022600452602484fd5b91607f16916101f3565b34610143576000366003190112610143576005546040516001600160a01b039091168152602090f35b346101435760003660031901126101435761032d610880565b600580546001600160a01b031981169091556000906001600160a01b03167f8be0079c531659141344cd1fd0a4f28419497f9722a3daafe3b4186f6b6457e08280a3005b34610143576020366003190112610143576001600160a01b036103926107a5565b1660005260006020526020604060002054604051908152f35b34610143576040366003190112610143576103c46107a5565b602435906103d0610880565b6001600160a01b0316801561048b5760025491808301809311610475576020926002557fddf252ad1be2c89b69c2b068fc378daa952ba7f163c4a11628f55a4df523b3ef600093849284845283825260408420818154019055604051908152a3600254907f0000000000000000000000000000000000000000000000000000000000000000808311610460575080f35b60449263279e7e1560e21b8352600452602452fd5b634e487b7160e01b600052601160045260246000fd5b63ec442f0560e01b600052600060045260246000fd5b346101435760003660031901126101435760206040517f00000000000000000000000000000000000000000000000000000000000000008152f35b3461014357600036600319011261014357602060405160128152f35b34610143576060366003190112610143576105116107a5565b6105196107bb565b6001600160a01b0382166000818152600160208181526040808420338552909152909120549193604435939290918101610559575b506101bf93506107d1565b8381106105c85784156105b257331561059c576101bf946000526001602052604060002060018060a01b033316600052602052836040600020910390558461054e565b634a1406b160e11b600052600060045260246000fd5b63e602df0560e01b600052600060045260246000fd5b8390637dc7a0d960e11b6000523360045260245260445260646000fd5b34610143576000366003190112610143576020600254604051908152f35b346101435760403660031901126101435761061c6107a5565b6024359033156105b2576001600160a01b031690811561059c57336000526001602052604060002082600052602052806040600020556040519081527f8c5be1e5ebec7d5bd14f71427d1e84f3dd0314c0f7b2291e5b200ac8c7c3b92560203392a3602060405160018152f35b346101435760003660031901126101435760006003548060011c90600181168015610752575b6020831081146102cd578285529081156102b157506001146106fb5750819003601f01601f191681019067ffffffffffffffff821181831017610244576102408291826040528261075c565b905060036000527fc2575a0e9e593c00f959f8c92f12db2869c3395a3b0502d05e2516446f71f85b6000905b82821061073c57506020915082010182610210565b6001816020925483858801015201910190610727565b91607f16916106af565b91909160208152825180602083015260005b81811061078f575060409293506000838284010152601f8019910116010190565b806020809287010151604082860101520161076e565b600435906001600160a01b038216820361014357565b602435906001600160a01b038216820361014357565b6001600160a01b031690811561086a576001600160a01b031691821561048b5760008281528060205260408120548281106108505791604082827fddf252ad1be2c89b69c2b068fc378daa952ba7f163c4a11628f55a4df523b3ef958760209652828652038282205586815280845220818154019055604051908152a3565b916064928463391434e360e21b8452600452602452604452fd5b634b637e8f60e11b600052600060045260246000fd5b6005546001600160a01b0316330361089457565b63118cdaa760e01b6000523360045260246000fdfea2646970667358221220899f9c9ed54e5ddffc9fdfa9f21671f0c102a00f45afdb28a3fcd757977bcae664736f6c634300081a0033","linkReferences":{}},"methodIdentifiers":{"allowance(address,address)":"dd62ed3e","approve(address,uint256)":"095ea7b3","balanceOf(address)":"70a08231","cap()":"355274ea","decimals()":"313ce567","mint(address,uint256)":"40c10f19","name()":"06fdde03","owner()":"8da5cb5b","renounceOwnership()":"715018a6","symbol()":"95d89b41","totalSupply()":"18160ddd","transfer(address,uint256)":"a9059cbb","transferFrom(address,address,uint256)":"23b872dd","transferOwnership(address)":"f2fde38b"},"id":56}