{"abi":[{"type":"constructor","inputs":[],"stateMutability":"nonpayable"},{"type":"function","name":"ADMIN_ROLE","inputs":[],"outputs":[{"name":"","type":"bytes32","internalType":"bytes32"}],"stateMutability":"view"},{"type":"function","name":"DEFAULT_ADMIN_ROLE","inputs":[],"outputs":[{"name":"","type":"bytes32","internalType":"bytes32"}],"stateMutability":"view"},{"type":"function","name":"MINTER_ROLE","inputs":[],"outputs":[{"name":"","type":"bytes32","internalType":"bytes32"}],"stateMutability":"view"},{"type":"function","name":"VALIDATOR_ADMIN_ROLE","inputs":[],"outputs":[{"name":"","type":"bytes32","internalType":"bytes32"}],"stateMutability":"view"},{"type":"function","name":"addCoreType","inputs":[{"name":"label","type":"string","internalType":"string"}],"outputs":[],"stateMutability":"nonpayable"},{"type":"function","name":"addValidator","inputs":[{"name":"virtualId","type":"uint256","internalType":"uint256"},{"name":"validator","type":"address","internalType":"address"}],"outputs":[],"stateMutability":"nonpayable"},{"type":"function","name":"approve","inputs":[{"name":"to","type":"address","internalType":"address"},{"name":"tokenId","type":"uint256","internalType":"uint256"}],"outputs":[],"stateMutability":"nonpayable"},{"type":"function","name":"balanceOf","inputs":[{"name":"owner","type":"address","internalType":"address"}],"outputs":[{"name":"","type":"uint256","internalType":"uint256"}],"stateMutability":"view"},{"type":"function","name":"coreTypes","inputs":[{"name":"","type":"uint8","internalType":"uint8"}],"outputs":[{"name":"","type":"string","internalType":"string"}],"stateMutability":"view"},{"type":"function","name":"getAllServices","inputs":[{"name":"virtualId","type":"uint256","internalType":"uint256"}],"outputs":[{"name":"","type":"uint256[]","internalType":"uint256[]"}],"stateMutability":"view"},{"type":"function","name":"getApproved","inputs":[{"name":"tokenId","type":"uint256","internalType":"uint256"}],"outputs":[{"name":"","type":"address","internalType":"address"}],"stateMutability":"view"},{"type":"function","name":"getContributionNft","inputs":[],"outputs":[{"name":"","type":"address","internalType":"address"}],"stateMutability":"view"},{"type":"function","name":"getEloCalculator","inputs":[],"outputs":[{"name":"","type":"address","internalType":"address"}],"stateMutability":"view"},{"type":"function","name":"getPastValidatorScore","inputs":[{"name":"virtualId","type":"uint256","internalType":"uint256"},{"name":"validator","type":"address","internalType":"address"},{"name":"timepoint","type":"uint256","internalType":"uint256"}],"outputs":[{"name":"","type":"uint256","internalType":"uint256"}],"stateMutability":"view"},{"type":"function","name":"getRoleAdmin","inputs":[{"name":"role","type":"bytes32","internalType":"bytes32"}],"outputs":[{"name":"","type":"bytes32","internalType":"bytes32"}],"stateMutability":"view"},{"type":"function","name":"getServiceNft","inputs":[],"outputs":[{"name":"","type":"address","internalType":"address"}],"stateMutability":"view"},{"type":"function","name":"getVotes","inputs":[{"name":"virtualId","type":"uint256","internalType":"uint256"},{"name":"validator","type":"address","internalType":"address"}],"outputs":[{"name":"","type":"uint256","internalType":"uint256"}],"stateMutability":"view"},{"type":"function","name":"grantRole","inputs":[{"name":"role","type":"bytes32","internalType":"bytes32"},{"name":"account","type":"address","internalType":"address"}],"outputs":[],"stateMutability":"nonpayable"},{"type":"function","name":"hasRole","inputs":[{"name":"role","type":"bytes32","internalType":"bytes32"},{"name":"account","type":"address","internalType":"address"}],"outputs":[{"name":"","type":"bool","internalType":"bool"}],"stateMutability":"view"},{"type":"function","name":"initialize","inputs":[{"name":"defaultAdmin","type":"address","internalType":"address"}],"outputs":[],"stateMutability":"nonpayable"},{"type":"function","name":"isApprovedForAll","inputs":[{"name":"owner","type":"address","internalType":"address"},{"name":"operator","type":"address","internalType":"address"}],"outputs":[{"name":"","type":"bool","internalType":"bool"}],"stateMutability":"view"},{"type":"function","name":"isBlacklisted","inputs":[{"name":"virtualId","type":"uint256","internalType":"uint256"}],"outputs":[{"name":"","type":"bool","internalType":"bool"}],"stateMutability":"view"},{"type":"function","name":"isValidator","inputs":[{"name":"virtualId","type":"uint256","internalType":"uint256"},{"name":"account","type":"address","internalType":"address"}],"outputs":[{"name":"","type":"bool","internalType":"bool"}],"stateMutability":"view"},{"type":"function","name":"migrateScoreFunctions","inputs":[],"outputs":[],"stateMutability":"nonpayable"},{"type":"function","name":"migrateVirtual","inputs":[{"name":"virtualId","type":"uint256","internalType":"uint256"},{"name":"dao","type":"address","internalType":"address"},{"name":"token","type":"address","internalType":"address"},{"name":"pool","type":"address","internalType":"address"},{"name":"veToken","type":"address","internalType":"address"}],"outputs":[],"stateMutability":"nonpayable"},{"type":"function","name":"mint","inputs":[{"name":"virtualId","type":"uint256","internalType":"uint256"},{"name":"to","type":"address","internalType":"address"},{"name":"newTokenURI","type":"string","internalType":"string"},{"name":"theDAO","type":"address","internalType":"address payable"},{"name":"founder","type":"address","internalType":"address"},{"name":"coreTypes","type":"uint8[]","internalType":"uint8[]"},{"name":"pool","type":"address","internalType":"address"},{"name":"token","type":"address","internalType":"address"}],"outputs":[{"name":"","type":"uint256","internalType":"uint256"}],"stateMutability":"nonpayable"},{"type":"function","name":"name","inputs":[],"outputs":[{"name":"","type":"string","internalType":"string"}],"stateMutability":"view"},{"type":"function","name":"nextVirtualId","inputs":[],"outputs":[{"name":"","type":"uint256","internalType":"uint256"}],"stateMutability":"view"},{"type":"function","name":"ownerOf","inputs":[{"name":"tokenId","type":"uint256","internalType":"uint256"}],"outputs":[{"name":"","type":"address","internalType":"address"}],"stateMutability":"view"},{"type":"function","name":"renounceRole","inputs":[{"name":"role","type":"bytes32","internalType":"bytes32"},{"name":"callerConfirmation","type":"address","internalType":"address"}],"outputs":[],"stateMutability":"nonpayable"},{"type":"function","name":"revokeRole","inputs":[{"name":"role","type":"bytes32","internalType":"bytes32"},{"name":"account","type":"address","internalType":"address"}],"outputs":[],"stateMutability":"nonpayable"},{"type":"function","name":"safeTransferFrom","inputs":[{"name":"from","type":"address","internalType":"address"},{"name":"to","type":"address","internalType":"address"},{"name":"tokenId","type":"uint256","internalType":"uint256"}],"outputs":[],"stateMutability":"nonpayable"},{"type":"function","name":"safeTransferFrom","inputs":[{"name":"from","type":"address","internalType":"address"},{"name":"to","type":"address","internalType":"address"},{"name":"tokenId","type":"uint256","internalType":"uint256"},{"name":"data","type":"bytes","internalType":"bytes"}],"outputs":[],"stateMutability":"nonpayable"},{"type":"function","name":"setApprovalForAll","inputs":[{"name":"operator","type":"address","internalType":"address"},{"name":"approved","type":"bool","internalType":"bool"}],"outputs":[],"stateMutability":"nonpayable"},{"type":"function","name":"setBlacklist","inputs":[{"name":"virtualId","type":"uint256","internalType":"uint256"},{"name":"value","type":"bool","internalType":"bool"}],"outputs":[],"stateMutability":"nonpayable"},{"type":"function","name":"setContributionService","inputs":[{"name":"contributionNft_","type":"address","internalType":"address"},{"name":"serviceNft_","type":"address","internalType":"address"}],"outputs":[],"stateMutability":"nonpayable"},{"type":"function","name":"setCoreTypes","inputs":[{"name":"virtualId","type":"uint256","internalType":"uint256"},{"name":"coreTypes","type":"uint8[]","internalType":"uint8[]"}],"outputs":[],"stateMutability":"nonpayable"},{"type":"function","name":"setDAO","inputs":[{"name":"virtualId","type":"uint256","internalType":"uint256"},{"name":"newDAO","type":"address","internalType":"address"}],"outputs":[],"stateMutability":"nonpayable"},{"type":"function","name":"setEloCalculator","inputs":[{"name":"eloCalculator","type":"address","internalType":"address"}],"outputs":[],"stateMutability":"nonpayable"},{"type":"function","name":"setTBA","inputs":[{"name":"virtualId","type":"uint256","internalType":"uint256"},{"name":"tba","type":"address","internalType":"address"}],"outputs":[],"stateMutability":"nonpayable"},{"type":"function","name":"setTokenURI","inputs":[{"name":"virtualId","type":"uint256","internalType":"uint256"},{"name":"newTokenURI","type":"string","internalType":"string"}],"outputs":[],"stateMutability":"nonpayable"},{"type":"function","name":"stakingTokenToVirtualId","inputs":[{"name":"stakingToken","type":"address","internalType":"address"}],"outputs":[{"name":"","type":"uint256","internalType":"uint256"}],"stateMutability":"view"},{"type":"function","name":"supportsInterface","inputs":[{"name":"interfaceId","type":"bytes4","internalType":"bytes4"}],"outputs":[{"name":"","type":"bool","internalType":"bool"}],"stateMutability":"view"},{"type":"function","name":"symbol","inputs":[],"outputs":[{"name":"","type":"string","internalType":"string"}],"stateMutability":"view"},{"type":"function","name":"tokenURI","inputs":[{"name":"tokenId","type":"uint256","internalType":"uint256"}],"outputs":[{"name":"","type":"string","internalType":"string"}],"stateMutability":"view"},{"type":"function","name":"totalProposals","inputs":[{"name":"virtualId","type":"uint256","internalType":"uint256"}],"outputs":[{"name":"","type":"uint256","internalType":"uint256"}],"stateMutability":"view"},{"type":"function","name":"totalStaked","inputs":[{"name":"virtualId","type":"uint256","internalType":"uint256"}],"outputs":[{"name":"","type":"uint256","internalType":"uint256"}],"stateMutability":"view"},{"type":"function","name":"totalSupply","inputs":[],"outputs":[{"name":"","type":"uint256","internalType":"uint256"}],"stateMutability":"view"},{"type":"function","name":"totalUptimeScore","inputs":[{"name":"virtualId","type":"uint256","internalType":"uint256"}],"outputs":[{"name":"","type":"uint256","internalType":"uint256"}],"stateMutability":"view"},{"type":"function","name":"transferFrom","inputs":[{"name":"from","type":"address","internalType":"address"},{"name":"to","type":"address","internalType":"address"},{"name":"tokenId","type":"uint256","internalType":"uint256"}],"outputs":[],"stateMutability":"nonpayable"},{"type":"function","name":"validatorAt","inputs":[{"name":"virtualId","type":"uint256","internalType":"uint256"},{"name":"index","type":"uint256","internalType":"uint256"}],"outputs":[{"name":"","type":"address","internalType":"address"}],"stateMutability":"view"},{"type":"function","name":"validatorCount","inputs":[{"name":"virtualId","type":"uint256","internalType":"uint256"}],"outputs":[{"name":"","type":"uint256","internalType":"uint256"}],"stateMutability":"view"},{"type":"function","name":"validatorScore","inputs":[{"name":"virtualId","type":"uint256","internalType":"uint256"},{"name":"validator","type":"address","internalType":"address"}],"outputs":[{"name":"","type":"uint256","internalType":"uint256"}],"stateMutability":"view"},{"type":"function","name":"virtualInfo","inputs":[{"name":"virtualId","type":"uint256","internalType":"uint256"}],"outputs":[{"name":"","type":"tuple","internalType":"struct IAgentNft.VirtualInfo","components":[{"name":"dao","type":"address","internalType":"address"},{"name":"token","type":"address","internalType":"address"},{"name":"founder","type":"address","internalType":"address"},{"name":"tba","type":"address","internalType":"address"},{"name":"coreTypes","type":"uint8[]","internalType":"uint8[]"}]}],"stateMutability":"view"},{"type":"function","name":"virtualInfos","inputs":[{"name":"","type":"uint256","internalType":"uint256"}],"outputs":[{"name":"dao","type":"address","internalType":"address"},{"name":"token","type":"address","internalType":"address"},{"name":"founder","type":"address","internalType":"address"},{"name":"tba","type":"address","internalType":"address"}],"stateMutability":"view"},{"type":"function","name":"virtualLP","inputs":[{"name":"virtualId","type":"uint256","internalType":"uint256"}],"outputs":[{"name":"","type":"tuple","internalType":"struct IAgentNft.VirtualLP","components":[{"name":"pool","type":"address","internalType":"address"},{"name":"veToken","type":"address","internalType":"address"}]}],"stateMutability":"view"},{"type":"function","name":"virtualLPs","inputs":[{"name":"","type":"uint256","internalType":"uint256"}],"outputs":[{"name":"pool","type":"address","internalType":"address"},{"name":"veToken","type":"address","internalType":"address"}],"stateMutability":"view"},{"type":"event","name":"AgentBlacklisted","inputs":[{"name":"virtualId","type":"uint256","indexed":true,"internalType":"uint256"},{"name":"value","type":"bool","indexed":false,"internalType":"bool"}],"anonymous":false},{"type":"event","name":"Approval","inputs":[{"name":"owner","type":"address","indexed":true,"internalType":"address"},{"name":"approved","type":"address","indexed":true,"internalType":"address"},{"name":"tokenId","type":"uint256","indexed":true,"internalType":"uint256"}],"anonymous":false},{"type":"event","name":"ApprovalForAll","inputs":[{"name":"owner","type":"address","indexed":true,"internalType":"address"},{"name":"operator","type":"address","indexed":true,"internalType":"address"},{"name":"approved","type":"bool","indexed":false,"internalType":"bool"}],"anonymous":false},{"type":"event","name":"BatchMetadataUpdate","inputs":[{"name":"_fromTokenId","type":"uint256","indexed":false,"internalType":"uint256"},{"name":"_toTokenId","type":"uint256","indexed":false,"internalType":"uint256"}],"anonymous":false},{"type":"event","name":"CoresUpdated","inputs":[{"name":"virtualId","type":"uint256","indexed":false,"internalType":"uint256"},{"name":"coreTypes","type":"uint8[]","indexed":false,"internalType":"uint8[]"}],"anonymous":false},{"type":"event","name":"Initialized","inputs":[{"name":"version","type":"uint64","indexed":false,"internalType":"uint64"}],"anonymous":false},{"type":"event","name":"MetadataUpdate","inputs":[{"name":"_tokenId","type":"uint256","indexed":false,"internalType":"uint256"}],"anonymous":false},{"type":"event","name":"NewCoreType","inputs":[{"name":"coreType","type":"uint8","indexed":false,"internalType":"uint8"},{"name":"label","type":"string","indexed":false,"internalType":"string"}],"anonymous":false},{"type":"event","name":"NewValidator","inputs":[{"name":"virtualId","type":"uint256","indexed":false,"internalType":"uint256"},{"name":"account","type":"address","indexed":false,"internalType":"address"}],"anonymous":false},{"type":"event","name":"RoleAdminChanged","inputs":[{"name":"role","type":"bytes32","indexed":true,"internalType":"bytes32"},{"name":"previousAdminRole","type":"bytes32","indexed":true,"internalType":"bytes32"},{"name":"newAdminRole","type":"bytes32","indexed":true,"internalType":"bytes32"}],"anonymous":false},{"type":"event","name":"RoleGranted","inputs":[{"name":"role","type":"bytes32","indexed":true,"internalType":"bytes32"},{"name":"account","type":"address","indexed":true,"internalType":"address"},{"name":"sender","type":"address","indexed":true,"internalType":"address"}],"anonymous":false},{"type":"event","name":"RoleRevoked","inputs":[{"name":"role","type":"bytes32","indexed":true,"internalType":"bytes32"},{"name":"account","type":"address","indexed":true,"internalType":"address"},{"name":"sender","type":"address","indexed":true,"internalType":"address"}],"anonymous":false},{"type":"event","name":"Transfer","inputs":[{"name":"from","type":"address","indexed":true,"internalType":"address"},{"name":"to","type":"address","indexed":true,"internalType":"address"},{"name":"tokenId","type":"uint256","indexed":true,"internalType":"uint256"}],"anonymous":false},{"type":"error","name":"AccessControlBadConfirmation","inputs":[]},{"type":"error","name":"AccessControlUnauthorizedAccount","inputs":[{"name":"account","type":"address","internalType":"address"},{"name":"neededRole","type":"bytes32","internalType":"bytes32"}]},{"type":"error","name":"ERC721IncorrectOwner","inputs":[{"name":"sender","type":"address","internalType":"address"},{"name":"tokenId","type":"uint256","internalType":"uint256"},{"name":"owner","type":"address","internalType":"address"}]},{"type":"error","name":"ERC721InsufficientApproval","inputs":[{"name":"operator","type":"address","internalType":"address"},{"name":"tokenId","type":"uint256","internalType":"uint256"}]},{"type":"error","name":"ERC721InvalidApprover","inputs":[{"name":"approver","type":"address","internalType":"address"}]},{"type":"error","name":"ERC721InvalidOperator","inputs":[{"name":"operator","type":"address","internalType":"address"}]},{"type":"error","name":"ERC721InvalidOwner","inputs":[{"name":"owner","type":"address","internalType":"address"}]},{"type":"error","name":"ERC721InvalidReceiver","inputs":[{"name":"receiver","type":"address","internalType":"address"}]},{"type":"error","name":"ERC721InvalidSender","inputs":[{"name":"sender","type":"address","internalType":"address"}]},{"type":"error","name":"ERC721NonexistentToken","inputs":[{"name":"tokenId","type":"uint256","internalType":"uint256"}]},{"type":"error","name":"InvalidInitialization","inputs":[]},{"type":"error","name":"NotInitializing","inputs":[]}],"bytecode":{"object":"0x60808060405234620000bd577ff0c57e16840df040f15088dc2f81fe391c3923bec73e23a9662efc9c229c6a009081549060ff8260401c16620000ae57506001600160401b036002600160401b03198282160162000068575b6040516150959081620000c38239f35b6001600160401b031990911681179091556040519081527fc7f505b2f371ae2175ee4913f4499e1f2633a7b5936321eed1cdaeb6115181d290602090a138808062000058565b63f92ee8a960e01b8152600490fd5b600080fdfe608080604052600436101561001357600080fd5b60003560e01c90816301ffc9a7146136005750806306fdde031461354b578063081812fc14613500578063095ea7b31461341957806309c88b3a146133c2578063162094c41461336557806318160ddd146133245780631b534f04146132f85780631ca95e13146132b557806323b872dd1461329e57806323f2a73f14613251578063248a9ca3146132155780632f2ff15d146131c9578063336e39971461318a57806336568abe14613143578063386924de146131085780633f11354a14612c6557806341cb8c2014612c0b57806342842e0e14612be35780634349644714612a5d57806344ae85ea14612a235780634752f9ef146129f25780634b561753146129ce5780634f1b9fac146129975780635faef81a146129795780636352211e1461295b5780636472c79f1461229c5780636819736014612201578063691de489146121a55780636d6464b41461218757806370a082311461213257806374aa04c51461208257806375b238fc1461204757806391d1485414611fed57806395d89b4114611ee75780639a7e8c8e14611ebe578063a0ed2a5d14611e5a578063a217fddf14611e3e578063a22cb46514611d98578063aca470ce146116db578063b88d4fde1461167c578063b9f7fe5314611653578063c052bfb61461162a578063c12032d3146115fc578063c4d66de814610ff7578063c859b99814610f64578063c87b56dd14610ee8578063cc35cc4114610eaa578063d539139314610e6f578063d547741f14610e21578063d809a06f14610dee578063e3a9769c14610637578063e985e9c5146105e9578063f0c21c4614610584578063f96610851461037a578063fcf9e6db1461030b5763fdf864f11461029257600080fd5b34610306576040366003190112610306576004357f74c656406c6054e1c2903f7594155283f5216e109f0ecb46a7eb59a9a597d61960206102d1613997565b6102d9614732565b83600052600b82526102fb8160406000209060ff801983541691151516179055565b6040519015158152a2005b600080fd5b34610306576020366003190112610306576000602060405161032c8161373c565b8281520152600435600052600c602052604080600020815161034d8161373c565b81546001600160a01b03908116808352600190930154811660209283019081528451938452511690820152f35b34610306576040366003190112610306576001600160401b03600435602435828111610306576103ae90369060040161384f565b90806000526020600881526103d160018060a01b036040600020541633146140c9565b8160005260088152600460406000200193835190811161056e57600160401b811161056e578454818655808210610522575b50818401908195600052826000208160051c9160005b8381106104e35750601f198116900380610497575b505050509060405192604084019184526040838501525180915260608301939160005b828110610480577fd6963befda3af041f398ffc13a89396d94a573f3a91593efc5420fffb11d672a85870386a1005b835160ff1686529481019492810192600101610451565b9260009360005b868282106104b5575050505001558480808061042e565b6104d984978360ff60019596975116919060ff809160031b9316831b921b19161790565b960192910161049e565b6000805b878082106104fd57505083820155600101610419565b875191979260019260ff60038b901b81811b19909316911690911b17920196016104e7565b61054e908660005283600020601f80850160051c82019281861680610554575b500160051c01906139b5565b85610403565b60001990818601918254918a0360031b1c1690558a610542565b634e487b7160e01b600052604160045260246000fd5b34610306576040366003190112610306576004356105a06136f5565b9080600052600860205260018060a01b03906105c4826040600020541633146140c9565b6000526008602052604060002091166001600160601b0360a01b825416179055600080f35b34610306576040366003190112610306576106026136df565b61061361060d6136f5565b91613a05565b9060018060a01b0316600052602052602060ff604060002054166040519015158152f35b346103065760203660031901126103065760043560005260088060205260406000206040519161066683613721565b81546001600160a01b03908116845260018301548116602080860191909152600284015482166040808701919091526003850154909216606080870191909152915160049094018054808652600091825282822093959485938401929091905b81601f820110610c60576107dd955492828210610c4a575b828210610c33575b50818110610c1c575b818110610c05575b818110610bef575b818110610bd8575b818110610bc1575b818110610baa575b818110610b93575b818110610b7c575b818110610b65575b818110610b4e575b818110610b38575b818110610b21575b818110610b0a575b818110610af3575b818110610adc575b818110610ac5575b818110610aae575b818110610a97575b818110610a80575b818110610a69575b818110610a52575b818110610a3b575b818110610a24575b818110610a0d575b8181106109f6575b8181106109df575b8181106109c8575b8181106109b1575b81811061099a575b1061098c575b500382613772565b6080830152600a54818301516040516370a0823160e01b81526001600160a01b03918216600482015291602491166020838381845afa92831561094c57600093610958575b5061082c83613838565b9461083a6040519687613772565b83865261084684613838565b602087019590601f190136873760005b8581106108a25786886040519182916020830190602084525180915260408301919060005b818110610889575050500390f35b825184528594506020938401939092019160010161087b565b82820151604051632f745c5960e01b81526001600160a01b03909116600482015260248101829052602081604481885afa90811561094c5760009161091a575b50885182101561090557906109009160208260051b8b0101526139a6565b610856565b85634e487b7160e01b60005260326004526000fd5b90506020813d602011610944575b8161093560209383613772565b810103126103065751896108e2565b3d9150610928565b6040513d6000823e3d90fd5b9092506020813d602011610984575b8161097460209383613772565b8101031261030657519185610822565b3d9150610967565b60f81c8152602001866107d5565b92602060019160ff8560f01c1681520193016107cf565b92602060019160ff8560e81c1681520193016107c7565b92602060019160ff8560e01c1681520193016107bf565b92602060019160ff8560d81c1681520193016107b7565b92602060019160ff8560d01c1681520193016107af565b92602060019160ff8560c81c1681520193016107a7565b92602060019160ff8560c01c16815201930161079f565b92602060019160ff8560b81c168152019301610797565b92602060019160ff8560b01c16815201930161078f565b92602060019160ff8560a81c168152019301610787565b92602060019160ff8560a01c16815201930161077f565b92602060019160ff8560981c168152019301610777565b92602060019160ff8560901c16815201930161076f565b92602060019160ff8560881c168152019301610767565b92602060019160ff8560801c16815201930161075f565b92602060019160ff8560781c168152019301610757565b92602060019160ff8560701c16815201930161074f565b92602060019160ff8560681c168152019301610747565b92602060019160ff858b1c16815201930161073f565b92602060019160ff8560581c168152019301610737565b92602060019160ff8560501c16815201930161072f565b92602060019160ff8560481c168152019301610727565b92602060019160ff8560401c16815201930161071f565b92602060019160ff8560381c168152019301610717565b92602060019160ff8560301c16815201930161070f565b92602060019160ff8560281c168152019301610707565b92602060019160ff85831c1681520193016106ff565b92602060019160ff8560181c1681520193016106f7565b92602060019160ff8560101c1681520193016106ef565b6001919460ff856020931c168152019301896106e6565b9093602060019160ff86168152019401906106de565b91935091600161040060209287548a8180848b8260ff9586828197948280961687521c168c850152828260101c166040850152828260181c168185015282826080828f83901c1681880152828260a095828260281c16878b015260c099838360301c168b820152838360381c1660e0820152838360401c16610100820152838360481c16610120820152838360501c16610140820152610160848460581c169101521c166101808d0152828260681c166101a08d0152828260701c166101c08d0152828260781c166101e08d01521c166102008a0152828260881c166102208a0152828260901c166102408a0152828260981c166102608a01521c16610280870152828260a81c166102a0870152828260b01c166102c0870152828260b81c166102e08701521c16610300840152808260c81c16610320840152808260d01c16610340840152808260d81c16610360840152808260e01c16610380840152808260e81c166103a08401528160f01c166103c083015260f81c6103e082015201950191019185939194926106c6565b34610306576040366003190112610306576020610e0f6024356004356146ae565b6040516001600160a01b039091168152f35b3461030657604036600319011261030657610e6d600435610e406136f5565b9080600052600080516020615000833981519152602052610e686001604060002001546147ea565b614a7a565b005b346103065760003660031901126103065760206040517f9f2df0fed2c77648de5860a4cc508cd0818c85b8b8a1ab4ceeef8d981c8956a68152f35b3461030657600036600319011261030657610ec3614732565b600580546001600160c01b031916700200000000000000030000000000000001179055005b3461030657602036600319011261030657600435610f0581614e40565b506000527f0542a41881ee128a365a727b282c86fa859579490b9bb45aab8503648c8e7900602052610f60610f3d60406000206138f1565b6000604051610f4b81613757565b5260405191829160208352602083019061369f565b0390f35b3461030657604036600319011261030657610f7d6136f5565b610f8561478e565b6004356000908152600860205260409020600301805490916001600160a01b0390818316610fc0576001600160a01b03199092169116179055005b60405162461bcd60e51b815260206004820152600f60248201526e15109048185b1c9958591e481cd95d608a1b6044820152606490fd5b34610306576020366003190112610306576110106136df565b7ff0c57e16840df040f15088dc2f81fe391c3923bec73e23a9662efc9c229c6a00908154906001600160401b038216801590816115ec575b60011490816115e2575b1590816115d9575b506115c75760016001600160401b0319831617835560ff8260401c16156115a8575b6040516110888161373c565b60058152641059d95b9d60da1b6020820152604051906110a78261373c565b60058252641051d1539560da1b60208301526110c1614afd565b6110c9614afd565b8051906001600160401b03821161056e5781906110f4600080516020614fe0833981519152546138b7565b601f811161154c575b50602090601f83116001146114a85760009261149d575b50508160011b916000199060031b1c191617600080516020614fe0833981519152555b80516001600160401b03811161056e577f80bb2b638cc20bc4d0a60d66940f3ab4a00c1d7b313497ca82fb0b4ab00793019161117383546138b7565b601f8111611444575b50602090601f83116001146113b857918061135f949260ff9796946000926113ad575b50508160011b916000199060031b1c19161790555b6111bc614afd565b6111c4614afd565b600154848116856111d482614115565b16861980931617600155600052600060205260406000206111fe6111f882546138b7565b82614126565b7f436f676e697469766520436f726500000000000000000000000000000000001c905560015485811690828761123384614115565b16911617600155600052600060205260406000206112546111f882546138b7565b7f566f69636520616e6420536f756e6420436f7265000000000000000000000028905560015485811690828761128984614115565b16911617600155600052600060205260406000206112aa6111f882546138b7565b60166a56697375616c20436f726560a81b01905560015485811691866112cf84614115565b16911617600155600052600060205260406000206112f06111f882546138b7565b7f446f6d61696e2045787065727469736520436f7265000000000000000000002a905561131b614afd565b600580546001600160c01b031916700200000000000000030000000000000001179055611346614afd565b61134f8161481d565b50611359816148ab565b5061495b565b50600160065560401c161561137057005b68ff00000000000000001981541690557fc7f505b2f371ae2175ee4913f4499e1f2633a7b5936321eed1cdaeb6115181d2602060405160018152a1005b01519050888061119f565b90601f19831691846000527ff4bad0a69248f59680a4f2b3000328cec71a413447c96781cfe5996daa8c456e9260005b81811061142c575092600192859260ff99989661135f989610611413575b505050811b0190556111b4565b015160001960f88460031b161c19169055888080611406565b929360206001819287860151815501950193016113e8565b61148d90846000527ff4bad0a69248f59680a4f2b3000328cec71a413447c96781cfe5996daa8c456e601f850160051c81019160208610611493575b601f0160051c01906139b5565b8661117c565b9091508190611480565b015190508680611114565b9250600080516020614fe08339815191526000527f37c58c799b6609234b945e882912ee9ad34948a1dfaa20a97485e1a7752bbf81906000935b601f1984168510611531576001945083601f19811610611518575b505050811b01600080516020614fe083398151915255611137565b015160001960f88460031b161c191690558680806114fd565b818101518355602094850194600190930192909101906114e2565b6115a290600080516020614fe08339815191526000527f37c58c799b6609234b945e882912ee9ad34948a1dfaa20a97485e1a7752bbf81601f850160051c8101916020861061149357601f0160051c01906139b5565b876110fd565b68ffffffffffffffffff1982166801000000000000000117835561107c565b60405163f92ee8a960e01b8152600490fd5b9050158461105a565b303b159150611052565b604084901c60ff16159150611048565b3461030657604036600319011261030657602061162261161a6136f5565b6004356142d4565b604051908152f35b3461030657600036600319011261030657600d546040516001600160a01b039091168152602090f35b3461030657600036600319011261030657600a546040516001600160a01b039091168152602090f35b34610306576080366003190112610306576116956136df565b61169d6136f5565b606435916001600160401b0383116103065736602384011215610306576116d1610e6d9336906024816004013591016137ae565b9160443591614ced565b3461030657602036600319011261030657606060806040516116fc81613721565b60008152600060208201526000604082015260008382015201526004356000526008602052604060002060046040519161173583613721565b80546001600160a01b03908116845260018201548116602080860191909152600283015482166040808701919091526003840154909216606086015290519290910180548084526000918252828220939493928592908301915b80601f830110611c0f576118a8945491818110611bfb575b818110611be4575b818110611bcd575b818110611bb6575b818110611ba0575b818110611b89575b818110611b72575b818110611b5b575b818110611b44575b818110611b2d575b818110611b16575b818110611aff575b818110611ae8575b818110611ad1575b818110611aba575b818110611aa3575b818110611a8c575b818110611a75575b818110611a5e575b818110611a47575b818110611a30575b818110611a19575b818110611a02575b8181106119eb575b8181106119d4575b8181106119bd575b8181106119a6575b81811061198f575b818110611978575b818110611961575b81811061194a575b1061193c575b509392930382613772565b608082810191825260408051602080825285516001600160a01b0390811682840152818701518116838501529286015183166060808401919091529095015190911691810191909152905160a080830152805160c083018190529192839260e08401929091019060005b818110611920575050500390f35b825160ff16845285945060209384019390920191600101611912565b60f81c81526020018561189d565b92602060019160ff8560f01c168152019301611897565b92602060019160ff8560e81c16815201930161188f565b92602060019160ff8560e01c168152019301611887565b92602060019160ff8560d81c16815201930161187f565b92602060019160ff8560d01c168152019301611877565b92602060019160ff8560c81c16815201930161186f565b92602060019160ff8560c01c168152019301611867565b92602060019160ff8560b81c16815201930161185f565b92602060019160ff8560b01c168152019301611857565b92602060019160ff8560a81c16815201930161184f565b92602060019160ff8560a01c168152019301611847565b92602060019160ff8560981c16815201930161183f565b92602060019160ff8560901c168152019301611837565b92602060019160ff8560881c16815201930161182f565b92602060019160ff8560801c168152019301611827565b92602060019160ff8560781c16815201930161181f565b92602060019160ff8560701c168152019301611817565b92602060019160ff8560681c16815201930161180f565b92602060019160ff8560601c168152019301611807565b92602060019160ff8560581c1681520193016117ff565b92602060019160ff8560501c1681520193016117f7565b92602060019160ff8560481c1681520193016117ef565b92602060019160ff8560401c1681520193016117e7565b92602060019160ff8560381c1681520193016117df565b92602060019160ff8560301c1681520193016117d7565b92602060019160ff8560281c1681520193016117cf565b92602060019160ff85831c1681520193016117c7565b92602060019160ff8560181c1681520193016117bf565b92602060019160ff8560101c1681520193016117b7565b92602060019160ff8560081c1681520193016117af565b92602060019160ff851681520193016117a7565b916020919350610400600191865460ff8082168352808260081c1686840152808260101c166040840152808260181c1660608401528082871c166080840152808260a0828260281c1681870152828260c092828260301c16848a0152828260381c1660e08a0152828260401c166101008a0152828260481c166101208a0152828260501c166101408a0152828260581c166101608a0152828260601c166101808a0152828260681c166101a08a0152828260701c166101c08a0152828260781c166101e08a0152828260801c166102008a0152828260881c166102208a0152828260901c166102408a0152828260981c166102608a01521c16610280870152828260a81c166102a0870152828260b01c166102c0870152828260b81c166102e08701521c16610300840152808260c81c16610320840152808260d01c16610340840152808260d81c16610360840152808260e01c16610380840152808260e81c166103a08401528160f01c166103c083015260f81c6103e082015201940192018592939161178f565b3461030657604036600319011261030657611db16136df565b611db9613997565b6001600160a01b03909116908115611e2557611dd433613a05565b82600052602052611df58160406000209060ff801983541691151516179055565b60405190151581527f17307eab39ab6107e8899845ad3d59bd9653f200f220920489ca2b5937696c3160203392a3005b604051630b61174360e31b815260048101839052602490fd5b3461030657600036600319011261030657602060405160008152f35b3461030657602080600319360112610306576000600435815b8160005260048452604060002054831015611eb457611ea8611eae91611ea2611e9c86866146ae565b856142d4565b906142c7565b926139a6565b91611e73565b8390604051908152f35b34610306576000366003190112610306576009546040516001600160a01b039091168152602090f35b346103065760003660031901126103065760405160007f80bb2b638cc20bc4d0a60d66940f3ab4a00c1d7b313497ca82fb0b4ab00793018054611f29816138b7565b80855291600191808316908115611fc35750600114611f67575b610f6085611f5381870382613772565b60405191829160208352602083019061369f565b600090815292507ff4bad0a69248f59680a4f2b3000328cec71a413447c96781cfe5996daa8c456e5b828410611fab575050508101602001611f5382610f60611f43565b80546020858701810191909152909301928101611f90565b869550610f6096935060209250611f5394915060ff191682840152151560051b8201019293611f43565b34610306576040366003190112610306576120066136f5565b60043560005260008051602061500083398151915260205260406000209060018060a01b0316600052602052602060ff604060002054166040519015158152f35b346103065760003660031901126103065760206040517fa49807205ce4d355092ef5a8a18f56e8913cf4a201fbe287825b095693c217758152f35b346103065760a03660031901126103065760043561209e6136f5565b6044356001600160a01b038181169182900361030657606435818116809103610306576001906120cc61370b565b936120d5614732565b866000526008602052826040600020856001600160601b0360a01b981688825416178155019086825416179055600c6020526040600020908582541617815501911680928254161790556000526007602052604060002055600080f35b346103065760203660031901126103065761214b6136df565b6001600160a01b0381161561216e576121656020916139cc565b54604051908152f35b6040516322718ad960e21b815260006004820152602490fd5b34610306576020366003190112610306576020611622600435613a80565b346103065760203660031901126103065760043560005260086020526080604060002060018060a01b03808254169181600182015416916003816002840154169201541691604051938452602084015260408301526060820152f35b346103065760403660031901126103065761221a6136f5565b600435600052602090600c82528160018060a01b03602481600160406000200154169360405194859384926309ab24eb60e41b84521660048301525afa90811561094c5760009161226f575b50604051908152f35b90508181813d8311612295575b6122868183613772565b81010312610306575182612266565b503d61227c565b34610306576060366003190112610306576122b56136f5565b60018060a01b03811660005260036020526040600020600435600052602052604060002054906001600160401b0360055460801c1660021461230757634e487b7160e01b600052605160045260246000fd5b6008602052604060002060046040519161232083613721565b80546001600160a01b03908116845260018201548116602080860191909152600283015482166040808701919091526003840154909216606086015290519290910180548084526000918252828220928401925b81601f8401106127d85793602095938193612495936124d3999754918181106127c6575b8181106127b0575b81811061279a575b818110612784575b818110612770575b81811061275a575b818110612744575b81811061272e575b818110612718575b818110612702575b8181106126ec575b8181106126d6575b8181106126c0575b8181106126aa575b818110612694575b81811061267e575b818110612668575b818110612652575b81811061263c575b818110612626575b818110612610575b8181106125fa575b8181106125e4575b8181106125ce575b8181106125b8575b8181106125a2575b81811061258c575b818110612576575b818110612560575b81811061254a575b818110612534575b1061252757500382613772565b60808201525160405163209e1f0d60e01b81526001600160a01b03928316600482015260448035602483015290948593909216918391829190820190565b03915afa90811561094c576000916124f4575b5060209161162291906142c7565b90506020813d60201161251f575b8161250f60209383613772565b81010312610306575160206124e6565b3d9150612502565b60f81c81528601896107d5565b928960019160ff8560f01c168152019301612488565b928960019160ff8560e81c168152019301612480565b928960019160ff8560e01c168152019301612478565b928960019160ff8560d81c168152019301612470565b928960019160ff8560d01c168152019301612468565b928960019160ff8560c81c168152019301612460565b928960019160ff8560c01c168152019301612458565b928960019160ff8560b81c168152019301612450565b928960019160ff8560b01c168152019301612448565b928960019160ff8560a81c168152019301612440565b928960019160ff8560a01c168152019301612438565b928960019160ff8560981c168152019301612430565b928960019160ff8560901c168152019301612428565b928960019160ff8560881c168152019301612420565b928960019160ff8560801c168152019301612418565b928960019160ff8560781c168152019301612410565b928960019160ff8560701c168152019301612408565b928960019160ff8560681c168152019301612400565b928960019160ff8560601c1681520193016123f8565b928960019160ff8560581c1681520193016123f0565b928960019160ff8560501c1681520193016123e8565b928960019160ff8560481c1681520193016123e0565b928960019160ff8560401c1681520193016123d8565b928960019160ff8560381c1681520193016123d0565b928960019160ff8560301c1681520193016123c8565b928960019160ff8560281c1681520193016123c0565b828a1c60ff168452928901926001016123b8565b928960019160ff8560181c1681520193016123b0565b928960019160ff8560101c1681520193016123a8565b928960019160ff8560081c1681520193016123a0565b60ff8316845292890192600101612398565b926001610400602092865460ff8082168352808260081c1686840152808260101c166040840152808260181c1660608401528082871c166080840152808260a0828260281c1681870152828260c092828260301c16848a0152828260381c1660e08a0152828260401c166101008a0152828260481c166101208a0152828260501c166101408a0152828260581c166101608a0152828260601c166101808a0152828260681c166101a08a0152828260701c166101c08a0152828260781c166101e08a0152828260801c166102008a0152828260881c166102208a0152828260901c166102408a0152828260981c166102608a01521c16610280870152828260a81c166102a0870152828260b01c166102c0870152828260b81c166102e08701521c16610300840152808260c81c16610320840152808260d01c16610340840152808260d81c16610360840152808260e01c16610380840152808260e81c166103a08401528160f01c166103c083015260f81c6103e0820152019401920191612374565b34610306576020366003190112610306576020610e0f600435614e40565b34610306576000366003190112610306576020600654604051908152f35b346103065760203660031901126103065760043560ff8116809103610306576000526000602052610f60611f5360406000206138f1565b3461030657604036600319011261030657610e6d6129ea6136f5565b600435613a3e565b3461030657602036600319011261030657600435600052600b602052602060ff604060002054166040519015158152f35b34610306576020366003190112610306576001600160a01b03612a446136df565b1660005260076020526020604060002054604051908152f35b3461030657602080600319360112610306576001600160401b0360043581811161030657612a8f9036906004016137e5565b612a976146da565b600180549260ff84169360ff612aac86614115565b169060ff19161782558360005260008552604060002091835191821161056e57612ae082612ada85546138b7565b8561414e565b85601f8311600114612b5857918080612b4895937f9682c2f74922442a5e9927a764f668d2339f1ca83db196fbb3d5e97184dc2be899989795600093612b4d575b501b916000199060031b1c19161790555b604080519485948552840152604083019061369f565b0390a1005b86015192508a612b21565b601f9291921982169084600052876000209160005b818110612bce5750918391612b4896947f9682c2f74922442a5e9927a764f668d2339f1ca83db196fbb3d5e97184dc2be89a9998969410612bb5575b5050811b019055612b32565b85015160001960f88460031b161c191690558880612ba9565b87830151845592850192918901918901612b6d565b3461030657610e6d612bf436613803565b9060405192612c0284613757565b60008452614ced565b346103065760208060031936011261030657600435600052600c815260048160018060a01b0360016040600020015416604051928380926318160ddd60e01b82525afa90811561094c5760009161226f5750604051908152f35b346103065761010036600319011261030657612c7f6136f5565b6001600160401b0360443581811161030657612c9f9036906004016137e5565b606435916001600160a01b038316830361030657612cbb61370b565b9260a43582811161030657612cd490369060040161384f565b60c435936001600160a01b03851685036103065760e435966001600160a01b038816880361030657612d0461478e565b60065480600435036130cf57612d19906139a6565b6006556001600160a01b038116156130b657600435600090815260008051602061502083398151915260205260409020546001600160a01b0316908161306e575b612d63816139cc565b8054600101905560043560008181526000805160206150208339815191526020526040812080546001600160a01b0319166001600160a01b0394909416938417905590919083907fddf252ad1be2c89b69c2b068fc378daa952ba7f163c4a11628f55a4df523b3ef9080a461305557612dde90600435614e88565b60048035600090815260086020526040902080546001600160a01b0319166001600160a01b03851617815582519094918501929091821161056e57600160401b821161056e57602090835483855580841061300a575b50019160005260206000209060005b8160051c8110612fca5750601f198116808203612f77575b5050506002830180546001600160a01b0319166001600160a01b0387811691909117909155604051637e062a3560e11b815293926020925084916004918391165afa91821561094c57600092612f31575b50600190810180546001600160a01b03199081166001600160a01b03978816179091556004356000818152600c6020908152604080832080548616988b16989098178855969094018054909316979094169687179091559482526007905220829055612f2591612f1d9082906141b6565b60043561426d565b60206040516004358152f35b9091506020813d602011612f6f575b81612f4d60209383613772565b810103126103065751906001600160a01b038216820361030657612f25612eac565b3d9150612f40565b9260009360005b8184038110612f9a5750505060051c0155602060048780612e5b565b9091946020612fc06001928460ff8a5116919060ff809160031b9316831b921b19161790565b9601929101612f7e565b6000805b60208110612fe3575083820155600101612e43565b855190959160019160209160ff60038a901b81811b199092169216901b1792019501612fce565b613035908560005283600020601f80870160051c8201928188168061303b57500160051c01906139b5565b89612e34565b60001990818601918254918a0360031b1c1690558e610542565b6040516339e3563760e11b815260006004820152602490fd5b6130a060043560005260008051602061504083398151915260205260406000206001600160601b0360a01b8154169055565b6130a9826139cc565b8054600019019055612d5a565b604051633250574960e11b815260006004820152602490fd5b60405162461bcd60e51b8152602060048201526011602482015270125b9d985b1a59081d9a5c9d1d585b1259607a1b6044820152606490fd5b346103065760003660031901126103065760206040517ffa3e63d5771fd4999b619dee634be9dbb03c309738cc2adaadd49c4f5595adb08152f35b346103065760403660031901126103065761315c6136f5565b336001600160a01b0382160361317857610e6d90600435614a7a565b60405163334bd91960e11b8152600490fd5b3461030657602036600319011261030657600435600052600c60205260408060002060018060a01b036001818354169201541682519182526020820152f35b3461030657604036600319011261030657610e6d6004356131e86136f5565b90806000526000805160206150008339815191526020526132106001604060002001546147ea565b614a05565b34610306576020366003190112610306576004356000526000805160206150008339815191526020526020600160406000200154604051908152f35b346103065760403660031901126103065761326a6136f5565b600435600052600260205260406000209060018060a01b0316600052602052602060ff604060002054166040519015158152f35b3461030657610e6d6132af36613803565b91614b3e565b34610306576020366003190112610306576132ce6136df565b6132d6614732565b600d80546001600160a01b0319166001600160a01b0392909216919091179055005b346103065760203660031901126103065760043560005260046020526020604060002054604051908152f35b3461030657600036600319011261030657600654600019810190811161334f57602090604051908152f35b634e487b7160e01b600052601160045260246000fd5b34610306576040366003190112610306576024356004356001600160401b0382116103065761339b610e6d9236906004016137e5565b908060005260086020526133bd60018060a01b036040600020541633146140c9565b614e88565b34610306576040366003190112610306576133db6136df565b6133e36136f5565b6133eb6146da565b600980546001600160a01b039384166001600160a01b031991821617909155600a8054929093169116179055005b34610306576040366003190112610306576134326136df565b60243561343e81614e40565b331515806134ed575b806134cd575b6134b5576001600160a01b039283169282918491167f8c5be1e5ebec7d5bd14f71427d1e84f3dd0314c0f7b2291e5b200ac8c7c3b925600080a460009081526000805160206150408339815191526020526040902080546001600160a01b0319169091179055005b60405163a9fbf51f60e01b8152336004820152602490fd5b506134d781613a05565b3360005260205260ff604060002054161561344d565b506001600160a01b038116331415613447565b346103065760203660031901126103065760043561351d81614e40565b50600052600080516020615040833981519152602052602060018060a01b0360406000205416604051908152f35b34610306576000366003190112610306576040516000600080516020614fe0833981519152805461357b816138b7565b80855291600191808316908115611fc357506001146135a457610f6085611f5381870382613772565b600090815292507f37c58c799b6609234b945e882912ee9ad34948a1dfaa20a97485e1a7752bbf815b8284106135e8575050508101602001611f5382610f60611f43565b805460208587018101919091529093019281016135cd565b34610306576020366003190112610306576004359063ffffffff60e01b821680920361030657602091637965db0b60e01b8114908115613642575b5015158152f35b632483248360e11b81149150811561365c575b508361363b565b6380ac58cd60e01b81149150811561368e575b811561367d575b5083613655565b6301ffc9a760e01b14905083613676565b635b5e139f60e01b8114915061366f565b919082519283825260005b8481106136cb575050826000602080949584010152601f8019910116010190565b6020818301810151848301820152016136aa565b600435906001600160a01b038216820361030657565b602435906001600160a01b038216820361030657565b608435906001600160a01b038216820361030657565b60a081019081106001600160401b0382111761056e57604052565b604081019081106001600160401b0382111761056e57604052565b602081019081106001600160401b0382111761056e57604052565b90601f801991011681019081106001600160401b0382111761056e57604052565b6001600160401b03811161056e57601f01601f191660200190565b9291926137ba82613793565b916137c86040519384613772565b829481845281830111610306578281602093846000960137010152565b9080601f8301121561030657816020613800933591016137ae565b90565b6060906003190112610306576001600160a01b0390600435828116810361030657916024359081168103610306579060443590565b6001600160401b03811161056e5760051b60200190565b81601f820112156103065780359161386683613838565b926138746040519485613772565b808452602092838086019260051b820101928311610306578301905b82821061389e575050505090565b813560ff81168103610306578152908301908301613890565b90600182811c921680156138e7575b60208310146138d157565b634e487b7160e01b600052602260045260246000fd5b91607f16916138c6565b9060405191826000825492613905846138b7565b9081845260019485811690816000146139745750600114613931575b505061392f92500383613772565b565b9093915060005260209081600020936000915b81831061395c57505061392f93508201013880613921565b85548884018501529485019487945091830191613944565b91505061392f94506020925060ff191682840152151560051b8201013880613921565b60243590811515820361030657565b600019811461334f5760010190565b8181106139c0575050565b600081556001016139b5565b6001600160a01b031660009081527f80bb2b638cc20bc4d0a60d66940f3ab4a00c1d7b313497ca82fb0b4ab00793036020526040902090565b6001600160a01b031660009081527f80bb2b638cc20bc4d0a60d66940f3ab4a00c1d7b313497ca82fb0b4ab00793056020526040902090565b90816000526002602052604060002060018060a01b03821660005260205260ff60406000205416613a7c5781613a778261392f946141b6565b61426d565b5050565b60009081526008806020526040822090600460405192613a9f84613721565b80546001600160a01b039081168552600182015481166020808701919091526002830154821660408088019190915260038401549092166060870152905192909101805480845290865281862092939184019286905b82601f830110613f3e57938593613c169360209793600499975492828210613f29575b828210613f14575b50818110613efe575b818110613ee8575b818110613ed4575b818110613ebe575b818110613ea8575b818110613e92575b818110613e7c575b818110613e66575b818110613e50575b818110613e3a575b818110613e24575b818110613e0e575b818110613df8575b818110613de2575b818110613dcc575b818110613db6575b818110613da0575b818110613d8a575b818110613d74575b818110613d5e575b818110613d48575b818110613d32575b818110613d1c575b818110613d06575b818110613cf0575b818110613cda575b818110613cc4575b818110613cae575b818110613c98575b10613c8b57500382613772565b60808201525160405163368d719960e21b815292839182906001600160a01b03165afa918215613c7f578092613c4b57505090565b9091506020823d602011613c77575b81613c6760209383613772565b81010312613c7457505190565b80fd5b3d9150613c5a565b604051903d90823e3d90fd5b60f81c81528501386107d5565b928860019160ff8560f01c168152019301613c09565b928860019160ff8560e81c168152019301613c01565b928860019160ff8560e01c168152019301613bf9565b928860019160ff8560d81c168152019301613bf1565b928860019160ff8560d01c168152019301613be9565b928860019160ff8560c81c168152019301613be1565b928860019160ff8560c01c168152019301613bd9565b928860019160ff8560b81c168152019301613bd1565b928860019160ff8560b01c168152019301613bc9565b928860019160ff8560a81c168152019301613bc1565b928860019160ff8560a01c168152019301613bb9565b928860019160ff8560981c168152019301613bb1565b928860019160ff8560901c168152019301613ba9565b928860019160ff8560881c168152019301613ba1565b928860019160ff8560801c168152019301613b99565b928860019160ff8560781c168152019301613b91565b928860019160ff8560701c168152019301613b89565b928860019160ff8560681c168152019301613b81565b928860019160ff8560601c168152019301613b79565b928860019160ff8560581c168152019301613b71565b928860019160ff8560501c168152019301613b69565b928860019160ff8560481c168152019301613b61565b928860019160ff8560401c168152019301613b59565b928860019160ff8560381c168152019301613b51565b928860019160ff8560301c168152019301613b49565b928860019160ff8560281c168152019301613b41565b82891c60ff16845292880192600101613b39565b928860019160ff8560181c168152019301613b31565b928860019160ff8560101c168152019301613b29565b83901c60ff1684529288019260010138613b20565b90938960019160ff8616815201940190613b18565b936001610400602092875460ff8116825260ff81891c168583015260ff8160101c16604083015260ff8160181c16606083015260ff8160808282891c1681860152828260a0828260281c1681890152828260c095828260301c16878c0152828260381c1660e08c0152828260401c166101008c0152828260481c166101208c0152828260501c166101408c0152828260581c166101608c0152828260601c166101808c0152828260681c166101a08c0152828260701c166101c08c0152828260781c166101e08c01521c16610200890152828260881c16610220890152828260901c16610240890152828260981c166102608901521c16610280860152828260a81c166102a0860152828260b01c166102c0860152828260b81c166102e08601521c1661030083015260ff8160c81c1661032083015260ff8160d01c1661034083015260ff8160d81c1661036083015260ff8160e01c1661038083015260ff8160e81c166103a083015260ff8160f01c166103c083015260f81c6103e0820152019501910190613af5565b156140d057565b60405162461bcd60e51b815260206004820152601960248201527f43616c6c6572206973206e6f74205649525455414c2044414f000000000000006044820152606490fd5b60ff1660ff811461334f5760010190565b90601f8111614133575050565b61392f91600052601f6020600020910160051c8101906139b5565b9190601f811161415d57505050565b61392f926000526020600020906020601f840160051c8301931061149357601f0160051c01906139b5565b80548210156141a05760005260206000200190600090565b634e487b7160e01b600052603260045260246000fd5b906000908282526002602052604082209160018060a01b038092169283825260205260408120600160ff19825416179055838152600460205260408120805491600160401b831015614259575091614239827fcbde0481b37e4b90d96b4492b49bcd7b48b260233519b878611a16a184b071aa9694600160409795018155614188565b819291549060031b9184831b921b191617905582519182526020820152a1565b634e487b7160e01b81526041600452602490fd5b6001600160401b0360055460401c1660031461429957634e487b7160e01b600052605160045260246000fd5b6142a281613a80565b9160018060a01b03166000526003602052604060002090600052602052604060002055565b9190820180921161334f57565b919060009260018060a01b03821684526003602052604084209084526020526040832054906001600160401b036005541660011461432057634e487b7160e01b84526051600452602484fd5b6008806020526040852060046040519161433983613721565b80546001600160a01b0390811684526001820154811660208086019190915260028301548216604080870191909152600384015490921660608601529051929091018054808452908952818920918301949189905b82601f83011061451d579284926020979261448c955492828210613f2957828210613f145750818110613efe57818110613ee857818110613ed457818110613ebe57818110613ea857818110613e9257818110613e7c57818110613e6657818110613e5057818110613e3a57818110613e2457818110613e0e57818110613df857818110613de257818110613dcc57818110613db657818110613da057818110613d8a57818110613d7457818110613d5e57818110613d4857818110613d3257818110613d1c57818110613d0657818110613cf057818110613cda57818110613cc457818110613cae57818110613c985710613c8b57500382613772565b60808201525160405163099d7a2b60e11b81526001600160a01b0393841660048201529283916024918391165afa9081156145125784916144d5575b50613800929350906142c7565b90506020813d60201161450a575b816144f060209383613772565b81010312614506576138009293505183926144c8565b8380fd5b3d91506144e3565b6040513d86823e3d90fd5b9394956001610400602092875460ff8116825260ff81891c168583015260ff8160101c16604083015260ff8160181c16606083015260ff8160808282891c1681860152828260a0828260281c1681890152828260c095828260301c16878c0152828260381c1660e08c0152828260401c166101008c0152828260481c166101208c0152828260501c166101408c0152828260581c166101608c0152828260601c166101808c0152828260681c166101a08c0152828260701c166101c08c0152828260781c166101e08c01521c16610200890152828260881c16610220890152828260901c16610240890152828260981c166102608901521c16610280860152828260a81c166102a0860152828260b01c166102c0860152828260b81c166102e08601521c1661030083015260ff8160c81c1661032083015260ff8160d01c1661034083015260ff8160d81c1661036083015260ff8160e01c1661038083015260ff8160e81c166103a083015260ff8160f01c166103c083015260f81c6103e08201520195019101909594939561438e565b906146c59160005260046020526040600020614188565b905460039190911b1c6001600160a01b031690565b3360009081527fb7db2dd08fcb62d0c9e08c51941cae53c267786a0b75803fb7960902fc8ef97d602052604081205460ff16156147145750565b6044906040519063e2517d3f60e01b82523360048301526024820152fd5b3360009081527fb16e88c42fd4e48df2dd6a2eabd6bc9aec654ec170056b470819f8892cc6431c60205260409020547fa49807205ce4d355092ef5a8a18f56e8913cf4a201fbe287825b095693c217759060ff16156147145750565b3360009081527f549fe2656c81d2947b3b913f0a53b9ea86c71e049f3a1b8aa23c09a8a05cb8d460205260409020547f9f2df0fed2c77648de5860a4cc508cd0818c85b8b8a1ab4ceeef8d981c8956a69060ff16156147145750565b8060005260008051602061500083398151915260205260406000203360005260205260ff60406000205416156147145750565b6001600160a01b031660008181527fb7db2dd08fcb62d0c9e08c51941cae53c267786a0b75803fb7960902fc8ef97d60205260408120549091906000805160206150008339815191529060ff166148a6578280526020526040822081835260205260408220600160ff198254161790553391600080516020614fc08339815191528180a4600190565b505090565b6001600160a01b031660008181527f65a726ee7c91e89ef3525766267873ea7774790138011645554b3fd61ac9eba360205260408120549091907ffa3e63d5771fd4999b619dee634be9dbb03c309738cc2adaadd49c4f5595adb0906000805160206150008339815191529060ff16614955578184526020526040832082845260205260408320600160ff19825416179055600080516020614fc0833981519152339380a4600190565b50505090565b6001600160a01b031660008181527fb16e88c42fd4e48df2dd6a2eabd6bc9aec654ec170056b470819f8892cc6431c60205260408120549091907fa49807205ce4d355092ef5a8a18f56e8913cf4a201fbe287825b095693c21775906000805160206150008339815191529060ff16614955578184526020526040832082845260205260408320600160ff19825416179055600080516020614fc0833981519152339380a4600190565b9060009180835260008051602061500083398151915280602052604084209260018060a01b03169283855260205260ff60408520541615600014614955578184526020526040832082845260205260408320600160ff19825416179055600080516020614fc0833981519152339380a4600190565b9060009180835260008051602061500083398151915280602052604084209260018060a01b03169283855260205260ff60408520541660001461495557818452602052604083208284526020526040832060ff1981541690557ff6391f5c32d9c69d2a47ea670b442974b53935d1edc7fd64eb21e047a839171b339380a4600190565b60ff7ff0c57e16840df040f15088dc2f81fe391c3923bec73e23a9662efc9c229c6a005460401c1615614b2c57565b604051631afcd79f60e31b8152600490fd5b6001600160a01b03828116939184156130b65782600095818752600080516020615020833981519152958660205260409785898220541697889233151580614c44575b5090614bb37fddf252ad1be2c89b69c2b068fc378daa952ba7f163c4a11628f55a4df523b3ef939285614c05576139cc565b8054600101905585825260205289812080546001600160a01b0319168517905580a41692838303614be45750505050565b6064945051926364283d7b60e01b8452600484015260248301526044820152fd5b60008881526000805160206150408339815191526020526040902080546001600160a01b0319169055614c37866139cc565b80546000190190556139cc565b9193509193945080614c9e575b15614c625791879187949338614b81565b888789614c7f576024915190637e27328960e01b82526004820152fd5b905163177e802f60e01b81523360048201526024810191909152604490fd5b503388148015614cd1575b80614c51575086835260008051602061504083398151915260205233868a8520541614614c51565b50614cdb88613a05565b33845260205260ff8984205416614ca9565b614cf8838383614b3e565b813b614d05575b50505050565b604051630a85bd0160e11b8082523360048301526001600160a01b03928316602483015260448201949094526080606482015260209592909116939092908390614d5390608483019061369f565b039285816000958187895af1849181614dfc575b50614dc7575050503d600014614dbf573d614d8181613793565b90614d8f6040519283613772565b81528091843d92013e5b80519283614dba57604051633250574960e11b815260048101849052602490fd5b019050fd5b506060614d99565b919450915063ffffffff60e01b1603614de4575038808080614cff565b60249060405190633250574960e11b82526004820152fd5b9091508681813d8311614e39575b614e148183613772565b81010312614e3557516001600160e01b031981168103614e35579038614d67565b8480fd5b503d614e0a565b600081815260008051602061502083398151915260205260409020546001600160a01b0316908115614e70575090565b60249060405190637e27328960e01b82526004820152fd5b9190916000908082526020917f0542a41881ee128a365a727b282c86fa859579490b9bb45aab8503648c8e7900835260408120908551906001600160401b03821161425957614edb82612ada85546138b7565b8490601f8311600114614f3b57907ff8e1a15aba9398e019f0b49df1a4fde98ee17ae345cb5f6b5e2c27f5033e8ce7969783614f30575b50508160011b916000199060031b1c19161790555b604051908152a1565b015190503880614f12565b9196601f198816848452868420935b818110614fa857509160019391897ff8e1a15aba9398e019f0b49df1a4fde98ee17ae345cb5f6b5e2c27f5033e8ce7999a9410614f8f575b505050811b019055614f27565b015160001960f88460031b161c19169055388080614f82565b929387600181928786015181550195019301614f4a56fe2f8788117e7eff1d82e926ec794901d17c78024a50270940304540a733656f0d80bb2b638cc20bc4d0a60d66940f3ab4a00c1d7b313497ca82fb0b4ab007930002dd7bc7dec4dceedda775e58dd541e08a116c6c53815c0bd028192f7b62680080bb2b638cc20bc4d0a60d66940f3ab4a00c1d7b313497ca82fb0b4ab007930280bb2b638cc20bc4d0a60d66940f3ab4a00c1d7b313497ca82fb0b4ab0079304a2646970667358221220f21b3d8dd4a18f8a60d51af34ebe05a0847e8d731f5b74e890e68c62ce9ffe3a64736f6c63430008140033","linkReferences":{}},"methodIdentifiers":{"ADMIN_ROLE()":"75b238fc","DEFAULT_ADMIN_ROLE()":"a217fddf","MINTER_ROLE()":"d5391393","VALIDATOR_ADMIN_ROLE()":"386924de","addCoreType(string)":"43496447","addValidator(uint256,address)":"4b561753","approve(address,uint256)":"095ea7b3","balanceOf(address)":"70a08231","coreTypes(uint8)":"4f1b9fac","getAllServices(uint256)":"e3a9769c","getApproved(uint256)":"081812fc","getContributionNft()":"9a7e8c8e","getEloCalculator()":"c052bfb6","getPastValidatorScore(uint256,address,uint256)":"6472c79f","getRoleAdmin(bytes32)":"248a9ca3","getServiceNft()":"b9f7fe53","getVotes(uint256,address)":"68197360","grantRole(bytes32,address)":"2f2ff15d","hasRole(bytes32,address)":"91d14854","initialize(address)":"c4d66de8","isApprovedForAll(address,address)":"e985e9c5","isBlacklisted(uint256)":"4752f9ef","isValidator(uint256,address)":"23f2a73f","migrateScoreFunctions()":"cc35cc41","migrateVirtual(uint256,address,address,address,address)":"74aa04c5","mint(uint256,address,string,address,address,uint8[],address,address)":"3f11354a","name()":"06fdde03","nextVirtualId()":"5faef81a","ownerOf(uint256)":"6352211e","renounceRole(bytes32,address)":"36568abe","revokeRole(bytes32,address)":"d547741f","safeTransferFrom(address,address,uint256)":"42842e0e","safeTransferFrom(address,address,uint256,bytes)":"b88d4fde","setApprovalForAll(address,bool)":"a22cb465","setBlacklist(uint256,bool)":"fdf864f1","setContributionService(address,address)":"09c88b3a","setCoreTypes(uint256,uint8[])":"f9661085","setDAO(uint256,address)":"f0c21c46","setEloCalculator(address)":"1ca95e13","setTBA(uint256,address)":"c859b998","setTokenURI(uint256,string)":"162094c4","stakingTokenToVirtualId(address)":"44ae85ea","supportsInterface(bytes4)":"01ffc9a7","symbol()":"95d89b41","tokenURI(uint256)":"c87b56dd","totalProposals(uint256)":"6d6464b4","totalStaked(uint256)":"41cb8c20","totalSupply()":"18160ddd","totalUptimeScore(uint256)":"a0ed2a5d","transferFrom(address,address,uint256)":"23b872dd","validatorAt(uint256,uint256)":"d809a06f","validatorCount(uint256)":"1b534f04","validatorScore(uint256,address)":"c12032d3","virtualInfo(uint256)":"aca470ce","virtualInfos(uint256)":"691de489","virtualLP(uint256)":"fcf9e6db","virtualLPs(uint256)":"336e3997"},"id":9}