{"abi":[{"type":"function","name":"createAccount","inputs":[{"name":"implementation","type":"address","internalType":"address"},{"name":"salt","type":"bytes32","internalType":"bytes32"},{"name":"chainId","type":"uint256","internalType":"uint256"},{"name":"tokenContract","type":"address","internalType":"address"},{"name":"tokenId","type":"uint256","internalType":"uint256"}],"outputs":[{"name":"","type":"address","internalType":"address"}],"stateMutability":"nonpayable"}],"bytecode":{"object":"0x60808060405234601557610129908161001b8239f35b600080fdfe6080806040526004361015601257600080fd5b60003560e01c638a54c52f14602657600080fd5b3460ee5760a036600319011260ee57600435906001600160a01b038216820360ee576064356001600160a01b038116810360ee5760208201926bffffffffffffffffffffffff199060601b168352602435603483015260443560548301526bffffffffffffffffffffffff199060601b16607482015260843560888201526088815260c081019080821067ffffffffffffffff83111760d8576040829052519091206001600160a01b03168152602090f35b634e487b7160e01b600052604160045260246000fd5b600080fdfea2646970667358221220a2345109965af98164ff311da13699f899eee307079be74db05b3af92070f5ea64736f6c634300081a0033","linkReferences":{}},"methodIdentifiers":{"createAccount(address,bytes32,uint256,address,uint256)":"8a54c52f"},"id":8}