{"abi":[{"type":"constructor","inputs":[],"stateMutability":"nonpayable"},{"type":"function","name":"ADMIN_ROLE","inputs":[],"outputs":[{"name":"","type":"bytes32","internalType":"bytes32"}],"stateMutability":"view"},{"type":"function","name":"DEFAULT_ADMIN_ROLE","inputs":[],"outputs":[{"name":"","type":"bytes32","internalType":"bytes32"}],"stateMutability":"view"},{"type":"function","name":"MINTER_ROLE","inputs":[],"outputs":[{"name":"","type":"bytes32","internalType":"bytes32"}],"stateMutability":"view"},{"type":"function","name":"VALIDATOR_ADMIN_ROLE","inputs":[],"outputs":[{"name":"","type":"bytes32","internalType":"bytes32"}],"stateMutability":"view"},{"type":"function","name":"addCoreType","inputs":[{"name":"label","type":"string","internalType":"string"}],"outputs":[],"stateMutability":"nonpayable"},{"type":"function","name":"addValidator","inputs":[{"name":"virtualId","type":"uint256","internalType":"uint256"},{"name":"validator","type":"address","internalType":"address"}],"outputs":[],"stateMutability":"nonpayable"},{"type":"function","name":"approve","inputs":[{"name":"to","type":"address","internalType":"address"},{"name":"tokenId","type":"uint256","internalType":"uint256"}],"outputs":[],"stateMutability":"nonpayable"},{"type":"function","name":"balanceOf","inputs":[{"name":"owner","type":"address","internalType":"address"}],"outputs":[{"name":"","type":"uint256","internalType":"uint256"}],"stateMutability":"view"},{"type":"function","name":"coreTypes","inputs":[{"name":"","type":"uint8","internalType":"uint8"}],"outputs":[{"name":"","type":"string","internalType":"string"}],"stateMutability":"view"},{"type":"function","name":"getAllServices","inputs":[{"name":"virtualId","type":"uint256","internalType":"uint256"}],"outputs":[{"name":"","type":"uint256[]","internalType":"uint256[]"}],"stateMutability":"view"},{"type":"function","name":"getApproved","inputs":[{"name":"tokenId","type":"uint256","internalType":"uint256"}],"outputs":[{"name":"","type":"address","internalType":"address"}],"stateMutability":"view"},{"type":"function","name":"getContributionNft","inputs":[],"outputs":[{"name":"","type":"address","internalType":"address"}],"stateMutability":"view"},{"type":"function","name":"getEloCalculator","inputs":[],"outputs":[{"name":"","type":"address","internalType":"address"}],"stateMutability":"view"},{"type":"function","name":"getPastValidatorScore","inputs":[{"name":"virtualId","type":"uint256","internalType":"uint256"},{"name":"validator","type":"address","internalType":"address"},{"name":"timepoint","type":"uint256","internalType":"uint256"}],"outputs":[{"name":"","type":"uint256","internalType":"uint256"}],"stateMutability":"view"},{"type":"function","name":"getRoleAdmin","inputs":[{"name":"role","type":"bytes32","internalType":"bytes32"}],"outputs":[{"name":"","type":"bytes32","internalType":"bytes32"}],"stateMutability":"view"},{"type":"function","name":"getServiceNft","inputs":[],"outputs":[{"name":"","type":"address","internalType":"address"}],"stateMutability":"view"},{"type":"function","name":"getVotes","inputs":[{"name":"virtualId","type":"uint256","internalType":"uint256"},{"name":"validator","type":"address","internalType":"address"}],"outputs":[{"name":"","type":"uint256","internalType":"uint256"}],"stateMutability":"view"},{"type":"function","name":"grantRole","inputs":[{"name":"role","type":"bytes32","internalType":"bytes32"},{"name":"account","type":"address","internalType":"address"}],"outputs":[],"stateMutability":"nonpayable"},{"type":"function","name":"hasRole","inputs":[{"name":"role","type":"bytes32","internalType":"bytes32"},{"name":"account","type":"address","internalType":"address"}],"outputs":[{"name":"","type":"bool","internalType":"bool"}],"stateMutability":"view"},{"type":"function","name":"initialize","inputs":[{"name":"defaultAdmin","type":"address","internalType":"address"}],"outputs":[],"stateMutability":"nonpayable"},{"type":"function","name":"isApprovedForAll","inputs":[{"name":"owner","type":"address","internalType":"address"},{"name":"operator","type":"address","internalType":"address"}],"outputs":[{"name":"","type":"bool","internalType":"bool"}],"stateMutability":"view"},{"type":"function","name":"isBlacklisted","inputs":[{"name":"virtualId","type":"uint256","internalType":"uint256"}],"outputs":[{"name":"","type":"bool","internalType":"bool"}],"stateMutability":"view"},{"type":"function","name":"isValidator","inputs":[{"name":"virtualId","type":"uint256","internalType":"uint256"},{"name":"account","type":"address","internalType":"address"}],"outputs":[{"name":"","type":"bool","internalType":"bool"}],"stateMutability":"view"},{"type":"function","name":"migrateScoreFunctions","inputs":[],"outputs":[],"stateMutability":"nonpayable"},{"type":"function","name":"migrateVirtual","inputs":[{"name":"virtualId","type":"uint256","internalType":"uint256"},{"name":"dao","type":"address","internalType":"address"},{"name":"token","type":"address","internalType":"address"},{"name":"pool","type":"address","internalType":"address"},{"name":"veToken","type":"address","internalType":"address"}],"outputs":[],"stateMutability":"nonpayable"},{"type":"function","name":"mint","inputs":[{"name":"virtualId","type":"uint256","internalType":"uint256"},{"name":"to","type":"address","internalType":"address"},{"name":"newTokenURI","type":"string","internalType":"string"},{"name":"theDAO","type":"address","internalType":"address payable"},{"name":"founder","type":"address","internalType":"address"},{"name":"coreTypes","type":"uint8[]","internalType":"uint8[]"},{"name":"pool","type":"address","internalType":"address"},{"name":"token","type":"address","internalType":"address"}],"outputs":[{"name":"","type":"uint256","internalType":"uint256"}],"stateMutability":"nonpayable"},{"type":"function","name":"name","inputs":[],"outputs":[{"name":"","type":"string","internalType":"string"}],"stateMutability":"view"},{"type":"function","name":"nextVirtualId","inputs":[],"outputs":[{"name":"","type":"uint256","internalType":"uint256"}],"stateMutability":"view"},{"type":"function","name":"ownerOf","inputs":[{"name":"tokenId","type":"uint256","internalType":"uint256"}],"outputs":[{"name":"","type":"address","internalType":"address"}],"stateMutability":"view"},{"type":"function","name":"renounceRole","inputs":[{"name":"role","type":"bytes32","internalType":"bytes32"},{"name":"callerConfirmation","type":"address","internalType":"address"}],"outputs":[],"stateMutability":"nonpayable"},{"type":"function","name":"revokeRole","inputs":[{"name":"role","type":"bytes32","internalType":"bytes32"},{"name":"account","type":"address","internalType":"address"}],"outputs":[],"stateMutability":"nonpayable"},{"type":"function","name":"safeTransferFrom","inputs":[{"name":"from","type":"address","internalType":"address"},{"name":"to","type":"address","internalType":"address"},{"name":"tokenId","type":"uint256","internalType":"uint256"}],"outputs":[],"stateMutability":"nonpayable"},{"type":"function","name":"safeTransferFrom","inputs":[{"name":"from","type":"address","internalType":"address"},{"name":"to","type":"address","internalType":"address"},{"name":"tokenId","type":"uint256","internalType":"uint256"},{"name":"data","type":"bytes","internalType":"bytes"}],"outputs":[],"stateMutability":"nonpayable"},{"type":"function","name":"setApprovalForAll","inputs":[{"name":"operator","type":"address","internalType":"address"},{"name":"approved","type":"bool","internalType":"bool"}],"outputs":[],"stateMutability":"nonpayable"},{"type":"function","name":"setBlacklist","inputs":[{"name":"virtualId","type":"uint256","internalType":"uint256"},{"name":"value","type":"bool","internalType":"bool"}],"outputs":[],"stateMutability":"nonpayable"},{"type":"function","name":"setContributionService","inputs":[{"name":"contributionNft_","type":"address","internalType":"address"},{"name":"serviceNft_","type":"address","internalType":"address"}],"outputs":[],"stateMutability":"nonpayable"},{"type":"function","name":"setCoreTypes","inputs":[{"name":"virtualId","type":"uint256","internalType":"uint256"},{"name":"coreTypes","type":"uint8[]","internalType":"uint8[]"}],"outputs":[],"stateMutability":"nonpayable"},{"type":"function","name":"setDAO","inputs":[{"name":"virtualId","type":"uint256","internalType":"uint256"},{"name":"newDAO","type":"address","internalType":"address"}],"outputs":[],"stateMutability":"nonpayable"},{"type":"function","name":"setEloCalculator","inputs":[{"name":"eloCalculator","type":"address","internalType":"address"}],"outputs":[],"stateMutability":"nonpayable"},{"type":"function","name":"setTBA","inputs":[{"name":"virtualId","type":"uint256","internalType":"uint256"},{"name":"tba","type":"address","internalType":"address"}],"outputs":[],"stateMutability":"nonpayable"},{"type":"function","name":"setTokenURI","inputs":[{"name":"virtualId","type":"uint256","internalType":"uint256"},{"name":"newTokenURI","type":"string","internalType":"string"}],"outputs":[],"stateMutability":"nonpayable"},{"type":"function","name":"stakingTokenToVirtualId","inputs":[{"name":"stakingToken","type":"address","internalType":"address"}],"outputs":[{"name":"","type":"uint256","internalType":"uint256"}],"stateMutability":"view"},{"type":"function","name":"supportsInterface","inputs":[{"name":"interfaceId","type":"bytes4","internalType":"bytes4"}],"outputs":[{"name":"","type":"bool","internalType":"bool"}],"stateMutability":"view"},{"type":"function","name":"symbol","inputs":[],"outputs":[{"name":"","type":"string","internalType":"string"}],"stateMutability":"view"},{"type":"function","name":"tokenURI","inputs":[{"name":"tokenId","type":"uint256","internalType":"uint256"}],"outputs":[{"name":"","type":"string","internalType":"string"}],"stateMutability":"view"},{"type":"function","name":"totalProposals","inputs":[{"name":"virtualId","type":"uint256","internalType":"uint256"}],"outputs":[{"name":"","type":"uint256","internalType":"uint256"}],"stateMutability":"view"},{"type":"function","name":"totalStaked","inputs":[{"name":"virtualId","type":"uint256","internalType":"uint256"}],"outputs":[{"name":"","type":"uint256","internalType":"uint256"}],"stateMutability":"view"},{"type":"function","name":"totalSupply","inputs":[],"outputs":[{"name":"","type":"uint256","internalType":"uint256"}],"stateMutability":"view"},{"type":"function","name":"totalUptimeScore","inputs":[{"name":"virtualId","type":"uint256","internalType":"uint256"}],"outputs":[{"name":"","type":"uint256","internalType":"uint256"}],"stateMutability":"view"},{"type":"function","name":"transferFrom","inputs":[{"name":"from","type":"address","internalType":"address"},{"name":"to","type":"address","internalType":"address"},{"name":"tokenId","type":"uint256","internalType":"uint256"}],"outputs":[],"stateMutability":"nonpayable"},{"type":"function","name":"validatorAt","inputs":[{"name":"virtualId","type":"uint256","internalType":"uint256"},{"name":"index","type":"uint256","internalType":"uint256"}],"outputs":[{"name":"","type":"address","internalType":"address"}],"stateMutability":"view"},{"type":"function","name":"validatorCount","inputs":[{"name":"virtualId","type":"uint256","internalType":"uint256"}],"outputs":[{"name":"","type":"uint256","internalType":"uint256"}],"stateMutability":"view"},{"type":"function","name":"validatorScore","inputs":[{"name":"virtualId","type":"uint256","internalType":"uint256"},{"name":"validator","type":"address","internalType":"address"}],"outputs":[{"name":"","type":"uint256","internalType":"uint256"}],"stateMutability":"view"},{"type":"function","name":"virtualInfo","inputs":[{"name":"virtualId","type":"uint256","internalType":"uint256"}],"outputs":[{"name":"","type":"tuple","internalType":"struct IAgentNft.VirtualInfo","components":[{"name":"dao","type":"address","internalType":"address"},{"name":"token","type":"address","internalType":"address"},{"name":"founder","type":"address","internalType":"address"},{"name":"tba","type":"address","internalType":"address"},{"name":"coreTypes","type":"uint8[]","internalType":"uint8[]"}]}],"stateMutability":"view"},{"type":"function","name":"virtualInfos","inputs":[{"name":"","type":"uint256","internalType":"uint256"}],"outputs":[{"name":"dao","type":"address","internalType":"address"},{"name":"token","type":"address","internalType":"address"},{"name":"founder","type":"address","internalType":"address"},{"name":"tba","type":"address","internalType":"address"}],"stateMutability":"view"},{"type":"function","name":"virtualLP","inputs":[{"name":"virtualId","type":"uint256","internalType":"uint256"}],"outputs":[{"name":"","type":"tuple","internalType":"struct IAgentNft.VirtualLP","components":[{"name":"pool","type":"address","internalType":"address"},{"name":"veToken","type":"address","internalType":"address"}]}],"stateMutability":"view"},{"type":"function","name":"virtualLPs","inputs":[{"name":"","type":"uint256","internalType":"uint256"}],"outputs":[{"name":"pool","type":"address","internalType":"address"},{"name":"veToken","type":"address","internalType":"address"}],"stateMutability":"view"},{"type":"event","name":"AgentBlacklisted","inputs":[{"name":"virtualId","type":"uint256","indexed":true,"internalType":"uint256"},{"name":"value","type":"bool","indexed":false,"internalType":"bool"}],"anonymous":false},{"type":"event","name":"Approval","inputs":[{"name":"owner","type":"address","indexed":true,"internalType":"address"},{"name":"approved","type":"address","indexed":true,"internalType":"address"},{"name":"tokenId","type":"uint256","indexed":true,"internalType":"uint256"}],"anonymous":false},{"type":"event","name":"ApprovalForAll","inputs":[{"name":"owner","type":"address","indexed":true,"internalType":"address"},{"name":"operator","type":"address","indexed":true,"internalType":"address"},{"name":"approved","type":"bool","indexed":false,"internalType":"bool"}],"anonymous":false},{"type":"event","name":"BatchMetadataUpdate","inputs":[{"name":"_fromTokenId","type":"uint256","indexed":false,"internalType":"uint256"},{"name":"_toTokenId","type":"uint256","indexed":false,"internalType":"uint256"}],"anonymous":false},{"type":"event","name":"CoresUpdated","inputs":[{"name":"virtualId","type":"uint256","indexed":false,"internalType":"uint256"},{"name":"coreTypes","type":"uint8[]","indexed":false,"internalType":"uint8[]"}],"anonymous":false},{"type":"event","name":"Initialized","inputs":[{"name":"version","type":"uint64","indexed":false,"internalType":"uint64"}],"anonymous":false},{"type":"event","name":"MetadataUpdate","inputs":[{"name":"_tokenId","type":"uint256","indexed":false,"internalType":"uint256"}],"anonymous":false},{"type":"event","name":"NewCoreType","inputs":[{"name":"coreType","type":"uint8","indexed":false,"internalType":"uint8"},{"name":"label","type":"string","indexed":false,"internalType":"string"}],"anonymous":false},{"type":"event","name":"NewValidator","inputs":[{"name":"virtualId","type":"uint256","indexed":false,"internalType":"uint256"},{"name":"account","type":"address","indexed":false,"internalType":"address"}],"anonymous":false},{"type":"event","name":"RoleAdminChanged","inputs":[{"name":"role","type":"bytes32","indexed":true,"internalType":"bytes32"},{"name":"previousAdminRole","type":"bytes32","indexed":true,"internalType":"bytes32"},{"name":"newAdminRole","type":"bytes32","indexed":true,"internalType":"bytes32"}],"anonymous":false},{"type":"event","name":"RoleGranted","inputs":[{"name":"role","type":"bytes32","indexed":true,"internalType":"bytes32"},{"name":"account","type":"address","indexed":true,"internalType":"address"},{"name":"sender","type":"address","indexed":true,"internalType":"address"}],"anonymous":false},{"type":"event","name":"RoleRevoked","inputs":[{"name":"role","type":"bytes32","indexed":true,"internalType":"bytes32"},{"name":"account","type":"address","indexed":true,"internalType":"address"},{"name":"sender","type":"address","indexed":true,"internalType":"address"}],"anonymous":false},{"type":"event","name":"Transfer","inputs":[{"name":"from","type":"address","indexed":true,"internalType":"address"},{"name":"to","type":"address","indexed":true,"internalType":"address"},{"name":"tokenId","type":"uint256","indexed":true,"internalType":"uint256"}],"anonymous":false},{"type":"error","name":"AccessControlBadConfirmation","inputs":[]},{"type":"error","name":"AccessControlUnauthorizedAccount","inputs":[{"name":"account","type":"address","internalType":"address"},{"name":"neededRole","type":"bytes32","internalType":"bytes32"}]},{"type":"error","name":"ERC721IncorrectOwner","inputs":[{"name":"sender","type":"address","internalType":"address"},{"name":"tokenId","type":"uint256","internalType":"uint256"},{"name":"owner","type":"address","internalType":"address"}]},{"type":"error","name":"ERC721InsufficientApproval","inputs":[{"name":"operator","type":"address","internalType":"address"},{"name":"tokenId","type":"uint256","internalType":"uint256"}]},{"type":"error","name":"ERC721InvalidApprover","inputs":[{"name":"approver","type":"address","internalType":"address"}]},{"type":"error","name":"ERC721InvalidOperator","inputs":[{"name":"operator","type":"address","internalType":"address"}]},{"type":"error","name":"ERC721InvalidOwner","inputs":[{"name":"owner","type":"address","internalType":"address"}]},{"type":"error","name":"ERC721InvalidReceiver","inputs":[{"name":"receiver","type":"address","internalType":"address"}]},{"type":"error","name":"ERC721InvalidSender","inputs":[{"name":"sender","type":"address","internalType":"address"}]},{"type":"error","name":"ERC721NonexistentToken","inputs":[{"name":"tokenId","type":"uint256","internalType":"uint256"}]},{"type":"error","name":"InvalidInitialization","inputs":[]},{"type":"error","name":"NotInitializing","inputs":[]}],"bytecode":{"object":"0x6080806040523460d2577ff0c57e16840df040f15088dc2f81fe391c3923bec73e23a9662efc9c229c6a005460ff8160401c1660c1576002600160401b03196001600160401b03821601605c575b60405161529190816100d88239f35b6001600160401b0319166001600160401b039081177ff0c57e16840df040f15088dc2f81fe391c3923bec73e23a9662efc9c229c6a005581527fc7f505b2f371ae2175ee4913f4499e1f2633a7b5936321eed1cdaeb6115181d290602090a13880604d565b63f92ee8a960e01b60005260046000fd5b600080fdfe608080604052600436101561001357600080fd5b60003560e01c90816301ffc9a7146136ec5750806306fdde031461362a578063081812fc146135df578063095ea7b3146134ed57806309c88b3a14613492578063162094c41461343557806318160ddd1461340a5780631b534f04146133de5780631ca95e131461339b57806323b872dd1461338457806323f2a73f14613337578063248a9ca3146133195780632f2ff15d146132e8578063336e3997146132a357806336568abe1461325d578063386924de146132225780633f11354a14612d7857806341cb8c2014612d1c57806342842e0e14612cf25780634349644714612b6a57806344ae85ea14612b305780634752f9ef14612aff5780634b56175314612adb5780634f1b9fac14612aa45780635faef81a14612a865780636352211e14612a685780636472c79f1461237157806368197360146122cc578063691de489146122655780636d6464b41461224757806370a08231146121f557806374aa04c51461210057806375b238fc146120c557806391d148541461206b57806395d89b4114611f845780639a7e8c8e14611f5b578063a0ed2a5d14611efb578063a217fddf14611edf578063a22cb46514611e3d578063aca470ce14611769578063b88d4fde1461170a578063b9f7fe53146116e1578063c052bfb6146116b8578063c12032d31461168a578063c4d66de814610fc5578063c859b99814610f2e578063c87b56dd14610ef7578063cc35cc4114610eb9578063d539139314610e7e578063d547741f14610e46578063d809a06f14610e13578063e3a9769c1461064b578063e985e9c5146105fd578063f0c21c4614610592578063f96610851461037a578063fcf9e6db1461030b5763fdf864f11461029257600080fd5b34610306576040366003190112610306576004357f74c656406c6054e1c2903f7594155283f5216e109f0ecb46a7eb59a9a597d61960206102d1613a6a565b6102d96149ca565b83600052600b82526102fb8160406000209060ff801983541691151516179055565b6040519015158152a2005b600080fd5b34610306576020366003190112610306576000602060405161032c81613827565b8281520152600435600052600c602052604080600020815161034d81613827565b81546001600160a01b03908116808352600190930154811660209283019081528451938452511690820152f35b34610306576040366003190112610306576004356024356001600160401b038111610306576103ad903690600401613924565b8160005260086020526103ce60018060a01b03604060002054163314613a79565b81600052600860205260046040600020019181516001600160401b03811161057c57600160401b811161057c57835481855580821061052c575b506020830190819460005260206000208160051c9160005b8381106104ec5750601f1981169003806104a0575b505050506040519160408301918352604060208401525180915260608201929060005b818110610487577fd6963befda3af041f398ffc13a89396d94a573f3a91593efc5420fffb11d672a84860385a1005b825160ff16855260209485019490920191600101610458565b9260009360005b8181106104bc57505050015583808080610435565b90919460206104e26001928460ff8a5116919060ff809160031b9316831b921b19161790565b96019291016104a7565b6000805b60208110610505575083820155600101610420565b865190969160019160209160ff60038b901b81811b199092169216901b17920196016104f0565b61055990856000526020600020601f80850160051c8201928186168061055f575b500160051c0190613d15565b84610408565b6000198501908154906000199060200360031b1c1690558961054d565b634e487b7160e01b600052604160045260246000fd5b34610306576040366003190112610306576004356105ae6137e0565b908060005260086020526105d060018060a01b03604060002054163314613a79565b600090815260086020526040902080546001600160a01b0319166001600160a01b03909216919091179055005b34610306576040366003190112610306576106166137ca565b6106276106216137e0565b91613cbb565b9060018060a01b0316600052602052602060ff604060002054166040519015158152f35b3461030657602036600319011261030657600435600052600860205260406000206040516106788161380c565b81546001600160a01b0390811682526001830154811660208084019190915260028401548216604080850191909152600385015490921660608401908152915160049094018054808652600091825282822093959493859384019291905b81601f840110610c6b57916107f3939160809695935491818110610c57575b818110610c40575b818110610c29575b818110610c12575b818110610bfc575b818110610be5575b818110610bce575b818110610bb7575b818110610ba0575b818110610b89575b818110610b72575b818110610b5b575b818110610b44575b818110610b2d575b818110610b16575b818110610aff575b818110610ae9575b818110610ad2575b818110610abb575b818110610aa4575b818110610a8d575b818110610a76575b818110610a5f575b818110610a48575b818110610a31575b818110610a1a575b818110610a03575b8181106109ec575b8181106109d5575b8181106109be575b8181106109a7575b10610999575b500384613842565b0152600a5481516040516370a0823160e01b81526001600160a01b03918216600482015291169190602081602481865afa90811561095b57600091610967575b5061083d8161390d565b9261084b6040519485613842565b8184526108578261390d565b602085019390601f190136853760005b8381106108b35784866040519182916020830190602084525180915260408301919060005b81811061089a575050500390f35b825184528594506020938401939092019160010161088c565b8151604051632f745c5960e01b81526001600160a01b0390911660048201526024810182905290602082604481875afa91821561095b57600092610925575b50865181101561090f5760019160208260051b8901015201610867565b634e487b7160e01b600052603260045260246000fd5b90916020823d8211610953575b8161093f60209383613842565b8101031261095057505190876108f2565b80fd5b3d9150610932565b6040513d6000823e3d90fd5b906020823d602011610991575b8161098160209383613842565b8101031261095057505183610833565b3d9150610974565b60f81c8152602001876107eb565b92602060019160ff8560f01c1681520193016107e5565b92602060019160ff8560e81c1681520193016107dd565b92602060019160ff8560e01c1681520193016107d5565b92602060019160ff8560d81c1681520193016107cd565b92602060019160ff8560d01c1681520193016107c5565b92602060019160ff8560c81c1681520193016107bd565b92602060019160ff8560c01c1681520193016107b5565b92602060019160ff8560b81c1681520193016107ad565b92602060019160ff8560b01c1681520193016107a5565b92602060019160ff8560a81c16815201930161079d565b92602060019160ff8560a01c168152019301610795565b92602060019160ff8560981c16815201930161078d565b92602060019160ff8560901c168152019301610785565b92602060019160ff8560881c16815201930161077d565b92602060019160ff858b1c168152019301610775565b92602060019160ff8560781c16815201930161076d565b92602060019160ff8560701c168152019301610765565b92602060019160ff8560681c16815201930161075d565b92602060019160ff8560601c168152019301610755565b92602060019160ff8560581c16815201930161074d565b92602060019160ff8560501c168152019301610745565b92602060019160ff8560481c16815201930161073d565b92602060019160ff8560401c168152019301610735565b92602060019160ff8560381c16815201930161072d565b92602060019160ff8560301c168152019301610725565b92602060019160ff8560281c16815201930161071d565b92602060019160ff85831c168152019301610715565b92602060019160ff8560181c16815201930161070d565b92602060019160ff8560101c168152019301610705565b92602060019160ff8560081c1681520193016106fd565b92602060019160ff851681520193016106f5565b935090916001610400602092865460ff8116825260ff8160081c168583015260ff8160101c16604083015260ff8160181c16606083015260ff81861c16608083015260ff8160281c1660a083015260ff8160301c1660c083015260ff8160381c1660e083015260ff8160401c1661010083015260ff8160481c1661012083015260ff8160501c1661014083015260ff8160581c1661016083015260ff8160601c1661018083015260ff8160681c166101a083015260ff8160701c166101c083015260ff8160781c166101e083015260ff8160801c1661020083015260ff8160881c1661022083015260ff8160901c1661024083015260ff8160981c1661026083015260ff8160a01c1661028083015260ff8160a81c166102a083015260ff8160b01c166102c083015260ff8160b81c166102e083015260ff8160c01c1661030083015260ff8160c81c1661032083015260ff8160d01c1661034083015260ff8160d81c1661036083015260ff8160e01c1661038083015260ff8160e81c166103a083015260ff8160f01c166103c083015260f81c6103e08201520194019201908593926106d6565b34610306576040366003190112610306576020610e3460243560043561491a565b6040516001600160a01b039091168152f35b3461030657604036600319011261030657610e7c600435610e656137e0565b90610e77610e7282613cf4565b614aae565b614f29565b005b346103065760003660031901126103065760206040517f9f2df0fed2c77648de5860a4cc508cd0818c85b8b8a1ab4ceeef8d981c8956a68152f35b3461030657600036600319011261030657610ed26149ca565b600580546001600160c01b031916700200000000000000030000000000000001179055005b3461030657602036600319011261030657610f2a610f166004356150e1565b60405191829160208352602083019061378b565b0390f35b3461030657604036600319011261030657610f476137e0565b610f4f614a3c565b600435600052600860205260036040600020019060018060a01b03825416610f8e5781546001600160a01b0319166001600160a01b0391909116179055005b60405162461bcd60e51b815260206004820152600f60248201526e15109048185b1c9958591e481cd95d608a1b6044820152606490fd5b3461030657602036600319011261030657610fde6137ca565b60008051602061521c8339815191525460ff8160401c1615906001600160401b03811680159081611682575b6001149081611678575b15908161166f575b5061165e5767ffffffffffffffff19811660011760008051602061521c8339815191525581611631575b506040908151926110578385613842565b60058452641059d95b9d60da1b60208501528251936110768486613842565b60058552641051d1539560da1b602086015261109061516d565b61109861516d565b8051906001600160401b03821161057c5781906110c36000805160206151bc8339815191525461398c565b601f81116115d5575b50602090601f83116001146115355760009261152a575b50508160011b916000199060031b1c1916176000805160206151bc833981519152555b83516001600160401b03811161057c5761112e60008051602061523c8339815191525461398c565b601f81116114c3575b506020601f821160011461143c578190611345949596600092611431575b50508160011b916000199060031b1c19161760008051602061523c833981519152555b61118061516d565b61118861516d565b60015460ff81169060ff61119b836150d0565b169060ff1916176001556000526000602052836000206111bb815461398c565b601f811161140f575b507f436f676e697469766520436f726500000000000000000000000000000000001c905560015460ff80821691906111fb836150d0565b169060ff19161760015560005260006020528360002061121b815461398c565b601f81116113ed575b507f566f69636520616e6420536f756e6420436f7265000000000000000000000028905560015460ff808216919061125b836150d0565b169060ff19161760015560005260006020528360002061127b815461398c565b601f81116113cb575b5060166a56697375616c20436f726560a81b01905560015460ff80821691906112ac836150d0565b169060ff1916176001556000526000602052836000206112cc815461398c565b601f81116113a9575b507f446f6d61696e2045787065727469736520436f7265000000000000000000002a905561130161516d565b600580546001600160c01b03191670020000000000000003000000000000000117905561132c61516d565b61133581614c7a565b5061133f81614d1a565b50614dd6565b50600160065561135157005b60207fc7f505b2f371ae2175ee4913f4499e1f2633a7b5936321eed1cdaeb6115181d29168ff00000000000000001960008051602061521c833981519152541660008051602061521c833981519152555160018152a1005b6113c59082600052601f6020600020910160051c810190613d15565b856112d5565b6113e79082600052601f6020600020910160051c810190613d15565b85611284565b6114099082600052601f6020600020910160051c810190613d15565b85611224565b61142b9082600052601f6020600020910160051c810190613d15565b856111c4565b015190508680611155565b601f1982169560008051602061523c833981519152600052816000209660005b8181106114ab57509161134595969791846001959410611492575b505050811b0160008051602061523c83398151915255611178565b015160001960f88460031b161c19169055868080611477565b8383015189556001909801976020938401930161145c565b60008051602061523c83398151915260005261151a907ff4bad0a69248f59680a4f2b3000328cec71a413447c96781cfe5996daa8c456e601f840160051c81019160208510611520575b601f0160051c0190613d15565b85611137565b909150819061150d565b0151905086806110e3565b6000805160206151bc83398151915260009081527f37c58c799b6609234b945e882912ee9ad34948a1dfaa20a97485e1a7752bbf819350601f198516905b8181106115bd57509084600195949392106115a4575b505050811b016000805160206151bc83398151915255611106565b015160001960f88460031b161c19169055868080611589565b92936020600181928786015181550195019301611573565b6000805160206151bc83398151915260005261162b907f37c58c799b6609234b945e882912ee9ad34948a1dfaa20a97485e1a7752bbf81601f850160051c8101916020861061152057601f0160051c0190613d15565b876110cc565b68ffffffffffffffffff1916680100000000000000011760008051602061521c8339815191525582611046565b63f92ee8a960e01b60005260046000fd5b9050158461101c565b303b159150611014565b83915061100a565b346103065760403660031901126103065760206116b06116a86137e0565b60043561450c565b604051908152f35b3461030657600036600319011261030657600d546040516001600160a01b039091168152602090f35b3461030657600036600319011261030657600a546040516001600160a01b039091168152602090f35b34610306576080366003190112610306576117236137ca565b61172b6137e0565b606435916001600160401b03831161030657366023840112156103065761175f610e7c93369060248160040135910161387e565b91604435916143c5565b34610306576020366003190112610306576060608060405161178a8161380c565b6000815260006020820152600060408201526000838201520152600435600052600860205260406000206040516117c08161380c565b81546001600160a01b03908116825260018301548116602080840191825260028501548316604080860191825260038701549094166060860190815293516004909601805480885260009182528382209497959492938692908301915b80601f830110611c9557611939945491818110611c81575b818110611c6a575b818110611c53575b818110611c3c575b818110611c26575b818110611c0f575b818110611bf8575b818110611be1575b818110611bca575b818110611bb3575b818110611b9c575b818110611b85575b818110611b6e575b818110611b57575b818110611b40575b818110611b29575b818110611b12575b818110611afb575b818110611ae4575b818110611acd575b818110611ab6575b818110611a9f575b818110611a88575b818110611a71575b818110611a5a575b818110611a43575b818110611a2c575b818110611a15575b8181106119fe575b8181106119e7575b8181106119d0575b106119c2575b509695949392960383613842565b608083810192835260408051602080825295516001600160a01b03908116878301529651871691810191909152955185166060870152905190931692840192909252905160a080840152805160c08401819052839260e0840192019060005b8181106119a6575050500390f35b825160ff16845285945060209384019390920191600101611998565b60f81c81526020018861192b565b92602060019160ff8560f01c168152019301611925565b92602060019160ff8560e81c16815201930161191d565b92602060019160ff8560e01c168152019301611915565b92602060019160ff8560d81c16815201930161190d565b92602060019160ff8560d01c168152019301611905565b92602060019160ff8560c81c1681520193016118fd565b92602060019160ff8560c01c1681520193016118f5565b92602060019160ff8560b81c1681520193016118ed565b92602060019160ff8560b01c1681520193016118e5565b92602060019160ff8560a81c1681520193016118dd565b92602060019160ff8560a01c1681520193016118d5565b92602060019160ff8560981c1681520193016118cd565b92602060019160ff8560901c1681520193016118c5565b92602060019160ff8560881c1681520193016118bd565b92602060019160ff8560801c1681520193016118b5565b92602060019160ff8560781c1681520193016118ad565b92602060019160ff8560701c1681520193016118a5565b92602060019160ff8560681c16815201930161189d565b92602060019160ff8560601c168152019301611895565b92602060019160ff8560581c16815201930161188d565b92602060019160ff8560501c168152019301611885565b92602060019160ff8560481c16815201930161187d565b92602060019160ff8560401c168152019301611875565b92602060019160ff8560381c16815201930161186d565b92602060019160ff8560301c168152019301611865565b92602060019160ff8560281c16815201930161185d565b92602060019160ff85831c168152019301611855565b92602060019160ff8560181c16815201930161184d565b92602060019160ff8560101c168152019301611845565b92602060019160ff8560081c16815201930161183d565b92602060019160ff85168152019301611835565b916020919350610400600191865460ff8116825260ff8160081c168583015260ff8160101c16604083015260ff8160181c16606083015260ff81861c16608083015260ff8160281c1660a083015260ff8160301c1660c083015260ff8160381c1660e083015260ff8160401c1661010083015260ff8160481c1661012083015260ff8160501c1661014083015260ff8160581c1661016083015260ff8160601c1661018083015260ff8160681c166101a083015260ff8160701c166101c083015260ff8160781c166101e083015260ff8160801c1661020083015260ff8160881c1661022083015260ff8160901c1661024083015260ff8160981c1661026083015260ff8160a01c1661028083015260ff8160a81c166102a083015260ff8160b01c166102c083015260ff8160b81c166102e083015260ff8160c01c1661030083015260ff8160c81c1661032083015260ff8160d01c1661034083015260ff8160d81c1661036083015260ff8160e01c1661038083015260ff8160e81c166103a083015260ff8160f01c166103c083015260f81c6103e082015201940192018692939161181d565b3461030657604036600319011261030657611e566137ca565b611e5e613a6a565b6001600160a01b03909116908115611eca57611e7933613cbb565b82600052602052611e9a8160406000209060ff801983541691151516179055565b60405190151581527f17307eab39ab6107e8899845ad3d59bd9653f200f220920489ca2b5937696c3160203392a3005b50630b61174360e31b60005260045260246000fd5b3461030657600036600319011261030657602060405160008152f35b34610306576020366003190112610306576000600435815b816000526004602052604060002054831015611f5057611f48600191611f42611f3c868661491a565b8561450c565b90613d6e565b920191611f13565b602090604051908152f35b34610306576000366003190112610306576009546040516001600160a01b039091168152602090f35b3461030657600036600319011261030657604051600060008051602061523c83398151915254611fb38161398c565b80845290600181169081156120475750600114611fdb575b610f2a83610f1681850382613842565b60008051602061523c83398151915260009081527ff4bad0a69248f59680a4f2b3000328cec71a413447c96781cfe5996daa8c456e939250905b80821061202d57509091508101602001610f16611fcb565b919260018160209254838588010152019101909291612015565b60ff191660208086019190915291151560051b84019091019150610f169050611fcb565b34610306576040366003190112610306576120846137e0565b6004356000526000805160206151dc83398151915260205260406000209060018060a01b0316600052602052602060ff604060002054166040519015158152f35b346103065760003660031901126103065760206040517fa49807205ce4d355092ef5a8a18f56e8913cf4a201fbe287825b095693c217758152f35b346103065760a03660031901126103065760043561211c6137e0565b6044356001600160a01b0381168103610306576064356001600160a01b0381168103610306576001918261214e6137f6565b946121576149ca565b866000526008602052604060002090828060a01b03166001600160601b0360a01b8254161781550190838060a01b03166001600160601b0360a01b82541617905583600052600c602052604060002090828060a01b03166001600160601b0360a01b8254161781550160018060a01b0382166001600160601b0360a01b82541617905560018060a01b03166000526007602052604060002055600080f35b346103065760203660031901126103065761220e6137ca565b6001600160a01b0381161561223157612228602091613c82565b54604051908152f35b6322718ad960e21b600052600060045260246000fd5b346103065760203660031901126103065760206116b0600435613d7b565b346103065760203660031901126103065760043560009081526008602090815260409182902080546001820154600283015460039093015485516001600160a01b039384168152918316948201949094529181169382019390935291166060820152608090f35b34610306576040366003190112610306576122e56137e0565b600435600052600c602052602060018060a01b0360016040600020015416916024604051809481936309ab24eb60e41b835260018060a01b031660048301525afa801561095b5760009061233e57602090604051908152f35b506020813d602011612369575b8161235860209383613842565b810103126103065760209051611f50565b3d915061234b565b346103065760603660031901126103065760043561238d6137e0565b9060018060a01b0382166000526003602052604060002081600052602052604060002054916001600160401b0360055460801c16916000926002146123e257634e487b7160e01b600052605160045260246000fd5b82526008602052604082206004604051916123fc8361380c565b80546001600160a01b0390811684526001820154811660208086019190915260028301548216604080870191909152600384015490921660608601529051929091018054808452908652818620918301918691905b81601f8401106128c65793602095938193612573936125b1999754918181106128b4575b81811061289e575b818110612888575b818110612872575b81811061285e575b818110612848575b818110612832575b81811061281c575b818110612806575b8181106127f0575b8181106127da575b8181106127c4575b8181106127ae575b818110612798575b818110612782575b81811061276c575b818110612756575b818110612740575b81811061272a575b818110612714575b8181106126fe575b8181106126e8575b8181106126d2575b8181106126bc575b8181106126a6575b818110612690575b81811061267a575b818110612664575b81811061264e575b818110612638575b818110612622575b10612615575b500382613842565b60808201525160405163209e1f0d60e01b81526001600160a01b03928316600482015260448035602483015290948593909216918391829190820190565b03915afa9182156126095780926125d2575b50506020916116b09190613d6e565b9091506020823d602011612601575b816125ee60209383613842565b81010312610950575051816116b06125c3565b3d91506125e1565b604051903d90823e3d90fd5b60f81c815286018a61256b565b928960019160ff8560f01c168152019301612565565b928960019160ff8560e81c16815201930161255d565b928960019160ff8560e01c168152019301612555565b928960019160ff8560d81c16815201930161254d565b928960019160ff8560d01c168152019301612545565b928960019160ff8560c81c16815201930161253d565b928960019160ff8560c01c168152019301612535565b928960019160ff8560b81c16815201930161252d565b928960019160ff8560b01c168152019301612525565b928960019160ff8560a81c16815201930161251d565b928960019160ff8560a01c168152019301612515565b928960019160ff8560981c16815201930161250d565b928960019160ff8560901c168152019301612505565b928960019160ff8560881c1681520193016124fd565b928960019160ff8560801c1681520193016124f5565b928960019160ff8560781c1681520193016124ed565b928960019160ff8560701c1681520193016124e5565b928960019160ff8560681c1681520193016124dd565b928960019160ff8560601c1681520193016124d5565b928960019160ff8560581c1681520193016124cd565b928960019160ff8560501c1681520193016124c5565b928960019160ff8560481c1681520193016124bd565b928960019160ff8560401c1681520193016124b5565b928960019160ff8560381c1681520193016124ad565b928960019160ff8560301c1681520193016124a5565b928960019160ff8560281c16815201930161249d565b828a1c60ff16845292890192600101612495565b928960019160ff8560181c16815201930161248d565b928960019160ff8560101c168152019301612485565b928960019160ff8560081c16815201930161247d565b60ff8316845292890192600101612475565b926001610400602092865460ff8116825260ff8160081c168583015260ff8160101c16604083015260ff8160181c16606083015260ff81861c16608083015260ff8160281c1660a083015260ff8160301c1660c083015260ff8160381c1660e083015260ff8160401c1661010083015260ff8160481c1661012083015260ff8160501c1661014083015260ff8160581c1661016083015260ff8160601c1661018083015260ff8160681c166101a083015260ff8160701c166101c083015260ff8160781c166101e083015260ff8160801c1661020083015260ff8160881c1661022083015260ff8160901c1661024083015260ff8160981c1661026083015260ff8160a01c1661028083015260ff8160a81c166102a083015260ff8160b01c166102c083015260ff8160b81c166102e083015260ff8160c01c1661030083015260ff8160c81c1661032083015260ff8160d01c1661034083015260ff8160d81c1661036083015260ff8160e01c1661038083015260ff8160e81c166103a083015260ff8160f01c166103c083015260f81c6103e0820152019401920191612451565b34610306576020366003190112610306576020610e34600435614946565b34610306576000366003190112610306576020600654604051908152f35b346103065760203660031901126103065760043560ff8116809103610306576000526000602052610f2a610f1660406000206139c6565b3461030657604036600319011261030657610e7c612af76137e0565b600435613d2c565b3461030657602036600319011261030657600435600052600b602052602060ff604060002054166040519015158152f35b34610306576020366003190112610306576001600160a01b03612b516137ca565b1660005260076020526020604060002054604051908152f35b34610306576020366003190112610306576004356001600160401b03811161030657612b9a9036906004016138b5565b612ba2614977565b6001549060ff82169160ff612bb6846150d0565b169060ff1916176001558160005260006020526040600020918151926001600160401b03841161057c57612bf484612bee835461398c565b83614af8565b602093601f8111600114612c6d57807f9682c2f74922442a5e9927a764f668d2339f1ca83db196fbb3d5e97184dc2be895600091612c62575b508160011b916000199060031b1c19161790555b612c5d604051928392835260406020840152604083019061378b565b0390a1005b905084015186612c2d565b601f1981169482600052806000209560005b818110612cda57509582916001937f9682c2f74922442a5e9927a764f668d2339f1ca83db196fbb3d5e97184dc2be89810612cc1575b5050811b019055612c41565b86015160001960f88460031b161c191690558680612cb5565b86830151885560019097019660209283019201612c7f565b3461030657610e7c612d03366138d3565b9060405192612d13602085613842565b600084526143c5565b3461030657602036600319011261030657600435600052600c6020526004602060018060a01b0360016040600020015416604051928380926318160ddd60e01b82525afa801561095b5760009061233e57602090604051908152f35b346103065761010036600319011261030657600435612d956137e0565b6044356001600160401b03811161030657612db49036906004016138b5565b6064356001600160a01b03811693919084900361030657612dd36137f6565b9260a4356001600160401b03811161030657612df3903690600401613924565b9460c435926001600160a01b03841684036103065760e435926001600160a01b038416840361030657612e24614a3c565b6006548087036131e95760001981146131d3576001016006556001600160a01b03811680156131bd5786612e5781615133565b6001600160a01b03811680151594919391612e76908661317e57613c82565b8054600101905560008381527f80bb2b638cc20bc4d0a60d66940f3ab4a00c1d7b313497ca82fb0b4ab00793026020526040812080546001600160a01b031916841790557fddf252ad1be2c89b69c2b068fc378daa952ba7f163c4a11628f55a4df523b3ef9080a45061316857612eed9085614b32565b600084815260086020526040902080546001600160a01b0319166001600160a01b038316178155865160048201979192916001600160401b03821161057c57600160401b821161057c576020908954838b5580841061311b575b50019760005260206000208160051c9160005b8381106130d45750601f19811690038061307e575b5050506002820180546001600160a01b0319166001600160a01b038816179055604051637e062a3560e11b815295965093949293602090849060049082905afa92831561095b57600093613033575b50600190810180546001600160a01b03199081166001600160a01b03948516179091556000868152600c602090815260408083208054851698871698909817885596909301805490921693909416928317905590825260078152919020829055916116b09061302d8184614fc9565b82615076565b6020939193813d602011613076575b8161304f60209383613842565b810103126130725751906001600160a01b03821682036109505750916001612fbe565b5080fd5b3d9150613042565b9860009960005b8181106130a357505050019690965593948594906020600489612f6f565b90919a60206130ca600192848f60ff905116919060ff809160031b9316831b921b19161790565b9c01929101613085565b6000805b602081106130ed575083820155600101612f5a565b9b9060206131126001928f60ff865116919060ff809160031b9316831b921b19161790565b92019c016130d8565b613146908b60005283600020601f80870160051c8201928188168061314c57500160051c0190613d15565b8a612f47565b600019850190815490600019908a0360031b1c1690558f61054d565b6339e3563760e11b600052600060045260246000fd5b60008581526000805160206151fc8339815191526020526040902080546001600160a01b03191690556131b086613c82565b8054600019019055613c82565b633250574960e11b600052600060045260246000fd5b634e487b7160e01b600052601160045260246000fd5b60405162461bcd60e51b8152602060048201526011602482015270125b9d985b1a59081d9a5c9d1d585b1259607a1b6044820152606490fd5b346103065760003660031901126103065760206040517ffa3e63d5771fd4999b619dee634be9dbb03c309738cc2adaadd49c4f5595adb08152f35b34610306576040366003190112610306576132766137e0565b336001600160a01b0382160361329257610e7c90600435614f29565b63334bd91960e11b60005260046000fd5b3461030657602036600319011261030657600435600052600c60205260408060002060018060a01b03815416906001808060a01b039101541682519182526020820152f35b3461030657604036600319011261030657610e7c6004356133076137e0565b90613314610e7282613cf4565b614e92565b346103065760203660031901126103065760206116b0600435613cf4565b34610306576040366003190112610306576133506137e0565b600435600052600260205260406000209060018060a01b0316600052602052602060ff604060002054166040519015158152f35b3461030657610e7c613395366138d3565b91613ac5565b34610306576020366003190112610306576133b46137ca565b6133bc6149ca565b600d80546001600160a01b0319166001600160a01b0392909216919091179055005b346103065760203660031901126103065760043560005260046020526020604060002054604051908152f35b346103065760003660031901126103065760065460001981019081116131d357602090604051908152f35b34610306576040366003190112610306576024356004356001600160401b0382116103065761346b610e7c9236906004016138b5565b9080600052600860205261348d60018060a01b03604060002054163314613a79565b614b32565b34610306576040366003190112610306576134ab6137ca565b6134b36137e0565b906134bc614977565b600980546001600160a01b039283166001600160a01b031991821617909155600a8054939092169216919091179055005b34610306576040366003190112610306576135066137ca565b60243561351281614946565b331515806135cc575b806135a8575b6135935781906001600160a01b0384811691167f8c5be1e5ebec7d5bd14f71427d1e84f3dd0314c0f7b2291e5b200ac8c7c3b925600080a460009081526000805160206151fc8339815191526020526040902080546001600160a01b0319166001600160a01b03909216919091179055005b63a9fbf51f60e01b6000523360045260246000fd5b506135b281613cbb565b336000908152602091909152604090205460ff1615613521565b506001600160a01b03811633141561351b565b34610306576020366003190112610306576020610e3460043561360181614946565b5060009081526000805160206151fc83398151915260205260409020546001600160a01b031690565b346103065760003660031901126103065760405160006000805160206151bc833981519152546136598161398c565b8084529060018116908115612047575060011461368057610f2a83610f1681850382613842565b6000805160206151bc83398151915260009081527f37c58c799b6609234b945e882912ee9ad34948a1dfaa20a97485e1a7752bbf81939250905b8082106136d257509091508101602001610f16611fcb565b9192600181602092548385880101520191019092916136ba565b34610306576020366003190112610306576004359063ffffffff60e01b821680920361030657602091637965db0b60e01b811490811561372e575b5015158152f35b632483248360e11b811491508115613748575b5083613727565b6380ac58cd60e01b81149150811561377a575b8115613769575b5083613741565b6301ffc9a760e01b14905083613762565b635b5e139f60e01b8114915061375b565b919082518082526020808301940160005b8281106137ba575050600081602094950152601f8019910116010190565b818101518682015260200161379c565b600435906001600160a01b038216820361030657565b602435906001600160a01b038216820361030657565b608435906001600160a01b038216820361030657565b60a081019081106001600160401b0382111761057c57604052565b604081019081106001600160401b0382111761057c57604052565b90601f801991011681019081106001600160401b0382111761057c57604052565b6001600160401b03811161057c57601f01601f191660200190565b92919261388a82613863565b916138986040519384613842565b829481845281830111610306578281602093846000960137010152565b9080601f83011215610306578160206138d09335910161387e565b90565b6060906003190112610306576004356001600160a01b038116810361030657906024356001600160a01b0381168103610306579060443590565b6001600160401b03811161057c5760051b60200190565b9080601f830112156103065781359061393c8261390d565b9261394a6040519485613842565b82845260208085019360051b82010191821161030657602001915b8183106139725750505090565b823560ff8116810361030657815260209283019201613965565b90600182811c921680156139bc575b60208310146139a657565b634e487b7160e01b600052602260045260246000fd5b91607f169161399b565b90604051918260008254926139da8461398c565b8084529360018116908115613a485750600114613a01575b506139ff92500383613842565b565b90506000929192526020600020906000915b818310613a2c5750509060206139ff92820101386139f2565b6020919350806001915483858901015201910190918492613a13565b9050602092506139ff94915060ff191682840152151560051b820101386139f2565b60243590811515820361030657565b15613a8057565b60405162461bcd60e51b815260206004820152601960248201527f43616c6c6572206973206e6f74205649525455414c2044414f000000000000006044820152606490fd5b909291906001600160a01b03841680156131bd57600094613ae584615133565b9533151580613bd6575b509184917fddf252ad1be2c89b69c2b068fc378daa952ba7f163c4a11628f55a4df523b3ef613b3097989460018060a01b03861698899384613ba457613c82565b805460010190558481527f80bb2b638cc20bc4d0a60d66940f3ab4a00c1d7b313497ca82fb0b4ab00793026020526040812080546001600160a01b0319168517905580a4506001600160a01b0316808303613b8a57505050565b6364283d7b60e01b60005260045260245260445260646000fd5b60008781526000805160206151fc8339815191526020526040902080546001600160a01b03191690556131b088613c82565b80613c1f575b15613be75738613aef565b84906001600160a01b038816613c0957602491637e27328960e01b8252600452fd5b60449163177e802f60e01b825233600452602452fd5b506001600160a01b03871633148015613c65575b80613bdc575060008581526000805160206151fc83398151915260205260409020546001600160a01b03163314613bdc565b50613c6f87613cbb565b338252602052604081205460ff16613c33565b6001600160a01b031660009081527f80bb2b638cc20bc4d0a60d66940f3ab4a00c1d7b313497ca82fb0b4ab00793036020526040902090565b6001600160a01b031660009081527f80bb2b638cc20bc4d0a60d66940f3ab4a00c1d7b313497ca82fb0b4ab00793056020526040902090565b6000526000805160206151dc83398151915260205260016040600020015490565b818110613d20575050565b60008155600101613d15565b90816000526002602052604060002060018060a01b03821660005260205260ff60406000205416613d6a5781613d65826139ff94614fc9565b615076565b5050565b919082018092116131d357565b6000526008602052604060002090600460405192613d988461380c565b80546001600160a01b039081168552600182015481166020808701919091526002830154821660408088019190915260038401549092166060870152905192909101805480845260009182528282209284019593925b81601f8401106142235792600495968193613f0e93602097965491818110614211575b8181106141fb575b8181106141e5575b8181106141cf575b8181106141bb575b8181106141a5575b81811061418f575b818110614179575b818110614163575b81811061414d575b818110614137575b818110614121575b81811061410b575b8181106140f5575b8181106140df575b8181106140c9575b8181106140b3575b81811061409d575b818110614087575b818110614071575b81811061405b575b818110614045575b81811061402f575b818110614019575b818110614003575b818110613fed575b818110613fd7575b818110613fc1575b818110613fab575b818110613f95575b818110613f7f575b10613f7257500382613842565b60808201525160405163368d719960e21b815292839182906001600160a01b03165afa90811561095b57600091613f43575090565b90506020813d602011613f6a575b81613f5e60209383613842565b81010312610306575190565b3d9150613f51565b60f81c815285013861256b565b928860019160ff8560f01c168152019301613f01565b928860019160ff8560e81c168152019301613ef9565b928860019160ff8560e01c168152019301613ef1565b928860019160ff8560d81c168152019301613ee9565b928860019160ff8560d01c168152019301613ee1565b928860019160ff8560c81c168152019301613ed9565b928860019160ff8560c01c168152019301613ed1565b928860019160ff8560b81c168152019301613ec9565b928860019160ff8560b01c168152019301613ec1565b928860019160ff8560a81c168152019301613eb9565b928860019160ff8560a01c168152019301613eb1565b928860019160ff8560981c168152019301613ea9565b928860019160ff8560901c168152019301613ea1565b928860019160ff8560881c168152019301613e99565b928860019160ff8560801c168152019301613e91565b928860019160ff8560781c168152019301613e89565b928860019160ff8560701c168152019301613e81565b928860019160ff8560681c168152019301613e79565b928860019160ff8560601c168152019301613e71565b928860019160ff8560581c168152019301613e69565b928860019160ff8560501c168152019301613e61565b928860019160ff8560481c168152019301613e59565b928860019160ff8560401c168152019301613e51565b928860019160ff8560381c168152019301613e49565b928860019160ff8560301c168152019301613e41565b928860019160ff8560281c168152019301613e39565b82891c60ff16845292880192600101613e31565b928860019160ff8560181c168152019301613e29565b928860019160ff8560101c168152019301613e21565b928860019160ff8560081c168152019301613e19565b60ff8316845292880192600101613e11565b956001610400602092895460ff8116825260ff8160081c168583015260ff8160101c16604083015260ff8160181c16606083015260ff81861c16608083015260ff8160281c1660a083015260ff8160301c1660c083015260ff8160381c1660e083015260ff8160401c1661010083015260ff8160481c1661012083015260ff8160501c1661014083015260ff8160581c1661016083015260ff8160601c1661018083015260ff8160681c166101a083015260ff8160701c166101c083015260ff8160781c166101e083015260ff8160801c1661020083015260ff8160881c1661022083015260ff8160901c1661024083015260ff8160981c1661026083015260ff8160a01c1661028083015260ff8160a81c166102a083015260ff8160b01c166102c083015260ff8160b81c166102e083015260ff8160c01c1661030083015260ff8160c81c1661032083015260ff8160d01c1661034083015260ff8160d81c1661036083015260ff8160e01c1661038083015260ff8160e81c166103a083015260ff8160f01c166103c083015260f81c6103e0820152019701920191613dee565b92916143d2818386613ac5565b813b6143df575b50505050565b604051630a85bd0160e11b81523360048201526001600160a01b039485166024820152604481019190915260806064820152921691906020908290819061442a90608483019061378b565b03816000865af180916000916144c9575b509061449457503d1561448d573d61445281613863565b906144606040519283613842565b81523d6000602083013e5b805190816144885782633250574960e11b60005260045260246000fd5b602001fd5b606061446b565b6001600160e01b03191663757a42ff60e11b016144b55750388080806143d9565b633250574960e11b60005260045260246000fd5b6020813d602011614504575b816144e260209383613842565b810103126130725751906001600160e01b03198216820361095057503861443b565b3d91506144d5565b9060018060a01b0316918260005260036020526040600020826000526020526040600020546001600160401b03600554169260009360011461455e57634e487b7160e01b600052605160045260246000fd5b8352600860205260408320936004604051956145798761380c565b80546001600160a01b039081168852600182015481166020808a0191909152600283015482166040808b0191909152600384015490921660608a015290519290910180548084529087528187209183019792918791905b81601f84011061476057986146d092849260209798999a9b5491818110614211578181106141fb578181106141e5578181106141cf578181106141bb578181106141a55781811061418f57818110614179578181106141635781811061414d57818110614137578181106141215781811061410b578181106140f5578181106140df578181106140c9578181106140b35781811061409d57818110614087578181106140715781811061405b578181106140455781811061402f578181106140195781811061400357818110613fed57818110613fd757818110613fc157818110613fab57818110613f9557818110613f7f5710613f7257500382613842565b60808201525160405163099d7a2b60e11b81526004810193909352829060249082906001600160a01b03165afa908115614755578491614718575b506138d092935090613d6e565b90506020813d60201161474d575b8161473360209383613842565b81010312614749576138d092935051839261470b565b8380fd5b3d9150614726565b6040513d86823e3d90fd5b9860016104006020928c5460ff8116825260ff8160081c168583015260ff8160101c16604083015260ff8160181c16606083015260ff81861c16608083015260ff8160281c1660a083015260ff8160301c1660c083015260ff8160381c1660e083015260ff8160401c1661010083015260ff8160481c1661012083015260ff8160501c1661014083015260ff8160581c1661016083015260ff8160601c1661018083015260ff8160681c166101a083015260ff8160701c166101c083015260ff8160781c166101e083015260ff8160801c1661020083015260ff8160881c1661022083015260ff8160901c1661024083015260ff8160981c1661026083015260ff8160a01c1661028083015260ff8160a81c166102a083015260ff8160b01c166102c083015260ff8160b81c166102e083015260ff8160c01c1661030083015260ff8160c81c1661032083015260ff8160d01c1661034083015260ff8160d81c1661036083015260ff8160e01c1661038083015260ff8160e81c166103a083015260ff8160f01c166103c083015260f81c6103e0820152019a019201916145d0565b805482101561090f5760005260206000200190600090565b906149319160005260046020526040600020614902565b905460039190911b1c6001600160a01b031690565b61494f81615133565b906001600160a01b03821615614963575090565b637e27328960e01b60005260045260246000fd5b3360009081527fb7db2dd08fcb62d0c9e08c51941cae53c267786a0b75803fb7960902fc8ef97d602052604090205460ff16156149b057565b63e2517d3f60e01b60005233600452600060245260446000fd5b3360009081527fb16e88c42fd4e48df2dd6a2eabd6bc9aec654ec170056b470819f8892cc6431c602052604090205460ff1615614a0357565b63e2517d3f60e01b600052336004527fa49807205ce4d355092ef5a8a18f56e8913cf4a201fbe287825b095693c2177560245260446000fd5b3360009081527f549fe2656c81d2947b3b913f0a53b9ea86c71e049f3a1b8aa23c09a8a05cb8d4602052604090205460ff1615614a7557565b63e2517d3f60e01b600052336004527f9f2df0fed2c77648de5860a4cc508cd0818c85b8b8a1ab4ceeef8d981c8956a660245260446000fd5b60008181526000805160206151dc8339815191526020908152604080832033845290915290205460ff1615614ae05750565b63e2517d3f60e01b6000523360045260245260446000fd5b9190601f8111614b0757505050565b6139ff926000526020600020906020601f840160051c8301931061152057601f0160051c0190613d15565b919091806000527f0542a41881ee128a365a727b282c86fa859579490b9bb45aab8503648c8e7900602052604060002083516001600160401b03811161057c57614b8681614b80845461398c565b84614af8565b6020601f8211600114614bee57908060209493927ff8e1a15aba9398e019f0b49df1a4fde98ee17ae345cb5f6b5e2c27f5033e8ce79697600092614be3575b50508160011b916000199060031b1c19161790555b604051908152a1565b015190503880614bc5565b601f1982169583600052816000209660005b818110614c62575096600192849260209796957ff8e1a15aba9398e019f0b49df1a4fde98ee17ae345cb5f6b5e2c27f5033e8ce7999a10614c49575b505050811b019055614bda565b015160001960f88460031b161c19169055388080614c3c565b83830151895560019098019760209384019301614c00565b6001600160a01b03811660009081527fb7db2dd08fcb62d0c9e08c51941cae53c267786a0b75803fb7960902fc8ef97d602052604090205460ff16614d14576001600160a01b031660008181527fb7db2dd08fcb62d0c9e08c51941cae53c267786a0b75803fb7960902fc8ef97d60205260408120805460ff1916600117905533919060008051602061519c8339815191528180a4600190565b50600090565b6001600160a01b03811660009081527f65a726ee7c91e89ef3525766267873ea7774790138011645554b3fd61ac9eba3602052604090205460ff16614d14576001600160a01b031660008181527f65a726ee7c91e89ef3525766267873ea7774790138011645554b3fd61ac9eba360205260408120805460ff191660011790553391907ffa3e63d5771fd4999b619dee634be9dbb03c309738cc2adaadd49c4f5595adb09060008051602061519c8339815191529080a4600190565b6001600160a01b03811660009081527fb16e88c42fd4e48df2dd6a2eabd6bc9aec654ec170056b470819f8892cc6431c602052604090205460ff16614d14576001600160a01b031660008181527fb16e88c42fd4e48df2dd6a2eabd6bc9aec654ec170056b470819f8892cc6431c60205260408120805460ff191660011790553391907fa49807205ce4d355092ef5a8a18f56e8913cf4a201fbe287825b095693c217759060008051602061519c8339815191529080a4600190565b60008181526000805160206151dc833981519152602090815260408083206001600160a01b038616845290915290205460ff16614f225760008181526000805160206151dc833981519152602090815260408083206001600160a01b0395909516808452949091528120805460ff191660011790553392919060008051602061519c8339815191529080a4600190565b5050600090565b60008181526000805160206151dc833981519152602090815260408083206001600160a01b038616845290915290205460ff1615614f225760008181526000805160206151dc833981519152602090815260408083206001600160a01b0395909516808452949091528120805460ff19169055339291907ff6391f5c32d9c69d2a47ea670b442974b53935d1edc7fd64eb21e047a839171b9080a4600190565b90816000526002602052604060002060018060a01b0382166000526020526040600020600160ff19825416179055816000526004602052604060002091825491600160401b83101561057c57615048837fcbde0481b37e4b90d96b4492b49bcd7b48b260233519b878611a16a184b071aa956001604096018155614902565b81546001600160a01b0393841660039290921b82811b94901b191692909217905582519182526020820152a1565b6001600160401b0360055460401c166003146150a257634e487b7160e01b600052605160045260246000fd5b6150ab81613d7b565b9160018060a01b03166000526003602052604060002090600052602052604060002055565b60ff1660ff81146131d35760010190565b6150ea81614946565b506000527f0542a41881ee128a365a727b282c86fa859579490b9bb45aab8503648c8e790060205261511f60406000206139c6565b600060405161512f602082613842565b5290565b60009081527f80bb2b638cc20bc4d0a60d66940f3ab4a00c1d7b313497ca82fb0b4ab007930260205260409020546001600160a01b031690565b60ff60008051602061521c8339815191525460401c161561518a57565b631afcd79f60e31b60005260046000fdfe2f8788117e7eff1d82e926ec794901d17c78024a50270940304540a733656f0d80bb2b638cc20bc4d0a60d66940f3ab4a00c1d7b313497ca82fb0b4ab007930002dd7bc7dec4dceedda775e58dd541e08a116c6c53815c0bd028192f7b62680080bb2b638cc20bc4d0a60d66940f3ab4a00c1d7b313497ca82fb0b4ab0079304f0c57e16840df040f15088dc2f81fe391c3923bec73e23a9662efc9c229c6a0080bb2b638cc20bc4d0a60d66940f3ab4a00c1d7b313497ca82fb0b4ab0079301a2646970667358221220bf79e2a44176102465ffac7858ee53815dd338cad0a5f216b9a8a171ce382e9264736f6c634300081a0033","linkReferences":{}},"methodIdentifiers":{"ADMIN_ROLE()":"75b238fc","DEFAULT_ADMIN_ROLE()":"a217fddf","MINTER_ROLE()":"d5391393","VALIDATOR_ADMIN_ROLE()":"386924de","addCoreType(string)":"43496447","addValidator(uint256,address)":"4b561753","approve(address,uint256)":"095ea7b3","balanceOf(address)":"70a08231","coreTypes(uint8)":"4f1b9fac","getAllServices(uint256)":"e3a9769c","getApproved(uint256)":"081812fc","getContributionNft()":"9a7e8c8e","getEloCalculator()":"c052bfb6","getPastValidatorScore(uint256,address,uint256)":"6472c79f","getRoleAdmin(bytes32)":"248a9ca3","getServiceNft()":"b9f7fe53","getVotes(uint256,address)":"68197360","grantRole(bytes32,address)":"2f2ff15d","hasRole(bytes32,address)":"91d14854","initialize(address)":"c4d66de8","isApprovedForAll(address,address)":"e985e9c5","isBlacklisted(uint256)":"4752f9ef","isValidator(uint256,address)":"23f2a73f","migrateScoreFunctions()":"cc35cc41","migrateVirtual(uint256,address,address,address,address)":"74aa04c5","mint(uint256,address,string,address,address,uint8[],address,address)":"3f11354a","name()":"06fdde03","nextVirtualId()":"5faef81a","ownerOf(uint256)":"6352211e","renounceRole(bytes32,address)":"36568abe","revokeRole(bytes32,address)":"d547741f","safeTransferFrom(address,address,uint256)":"42842e0e","safeTransferFrom(address,address,uint256,bytes)":"b88d4fde","setApprovalForAll(address,bool)":"a22cb465","setBlacklist(uint256,bool)":"fdf864f1","setContributionService(address,address)":"09c88b3a","setCoreTypes(uint256,uint8[])":"f9661085","setDAO(uint256,address)":"f0c21c46","setEloCalculator(address)":"1ca95e13","setTBA(uint256,address)":"c859b998","setTokenURI(uint256,string)":"162094c4","stakingTokenToVirtualId(address)":"44ae85ea","supportsInterface(bytes4)":"01ffc9a7","symbol()":"95d89b41","tokenURI(uint256)":"c87b56dd","totalProposals(uint256)":"6d6464b4","totalStaked(uint256)":"41cb8c20","totalSupply()":"18160ddd","totalUptimeScore(uint256)":"a0ed2a5d","transferFrom(address,address,uint256)":"23b872dd","validatorAt(uint256,uint256)":"d809a06f","validatorCount(uint256)":"1b534f04","validatorScore(uint256,address)":"c12032d3","virtualInfo(uint256)":"aca470ce","virtualInfos(uint256)":"691de489","virtualLP(uint256)":"fcf9e6db","virtualLPs(uint256)":"336e3997"},"id":62}