{"abi":[{"type":"constructor","inputs":[],"stateMutability":"nonpayable"},{"type":"function","name":"CLOCK_MODE","inputs":[],"outputs":[{"name":"","type":"string","internalType":"string"}],"stateMutability":"view"},{"type":"function","name":"agentNft","inputs":[],"outputs":[{"name":"","type":"address","internalType":"address"}],"stateMutability":"view"},{"type":"function","name":"allowance","inputs":[{"name":"owner","type":"address","internalType":"address"},{"name":"spender","type":"address","internalType":"address"}],"outputs":[{"name":"","type":"uint256","internalType":"uint256"}],"stateMutability":"view"},{"type":"function","name":"approve","inputs":[{"name":"","type":"address","internalType":"address"},{"name":"","type":"uint256","internalType":"uint256"}],"outputs":[{"name":"","type":"bool","internalType":"bool"}],"stateMutability":"nonpayable"},{"type":"function","name":"assetToken","inputs":[],"outputs":[{"name":"","type":"address","internalType":"address"}],"stateMutability":"view"},{"type":"function","name":"balanceOf","inputs":[{"name":"account","type":"address","internalType":"address"}],"outputs":[{"name":"","type":"uint256","internalType":"uint256"}],"stateMutability":"view"},{"type":"function","name":"canStake","inputs":[],"outputs":[{"name":"","type":"bool","internalType":"bool"}],"stateMutability":"view"},{"type":"function","name":"checkpoints","inputs":[{"name":"account","type":"address","internalType":"address"},{"name":"pos","type":"uint32","internalType":"uint32"}],"outputs":[{"name":"","type":"tuple","internalType":"struct Checkpoints.Checkpoint208","components":[{"name":"_key","type":"uint48","internalType":"uint48"},{"name":"_value","type":"uint208","internalType":"uint208"}]}],"stateMutability":"view"},{"type":"function","name":"clock","inputs":[],"outputs":[{"name":"","type":"uint48","internalType":"uint48"}],"stateMutability":"view"},{"type":"function","name":"decimals","inputs":[],"outputs":[{"name":"","type":"uint8","internalType":"uint8"}],"stateMutability":"view"},{"type":"function","name":"delegate","inputs":[{"name":"delegatee","type":"address","internalType":"address"}],"outputs":[],"stateMutability":"nonpayable"},{"type":"function","name":"delegateBySig","inputs":[{"name":"delegatee","type":"address","internalType":"address"},{"name":"nonce","type":"uint256","internalType":"uint256"},{"name":"expiry","type":"uint256","internalType":"uint256"},{"name":"v","type":"uint8","internalType":"uint8"},{"name":"r","type":"bytes32","internalType":"bytes32"},{"name":"s","type":"bytes32","internalType":"bytes32"}],"outputs":[],"stateMutability":"nonpayable"},{"type":"function","name":"delegates","inputs":[{"name":"account","type":"address","internalType":"address"}],"outputs":[{"name":"","type":"address","internalType":"address"}],"stateMutability":"view"},{"type":"function","name":"eip712Domain","inputs":[],"outputs":[{"name":"fields","type":"bytes1","internalType":"bytes1"},{"name":"name","type":"string","internalType":"string"},{"name":"version","type":"string","internalType":"string"},{"name":"chainId","type":"uint256","internalType":"uint256"},{"name":"verifyingContract","type":"address","internalType":"address"},{"name":"salt","type":"bytes32","internalType":"bytes32"},{"name":"extensions","type":"uint256[]","internalType":"uint256[]"}],"stateMutability":"view"},{"type":"function","name":"founder","inputs":[],"outputs":[{"name":"","type":"address","internalType":"address"}],"stateMutability":"view"},{"type":"function","name":"getPastBalanceOf","inputs":[{"name":"account","type":"address","internalType":"address"},{"name":"timepoint","type":"uint256","internalType":"uint256"}],"outputs":[{"name":"","type":"uint256","internalType":"uint256"}],"stateMutability":"view"},{"type":"function","name":"getPastDelegates","inputs":[{"name":"account","type":"address","internalType":"address"},{"name":"timepoint","type":"uint256","internalType":"uint256"}],"outputs":[{"name":"","type":"address","internalType":"address"}],"stateMutability":"view"},{"type":"function","name":"getPastTotalSupply","inputs":[{"name":"timepoint","type":"uint256","internalType":"uint256"}],"outputs":[{"name":"","type":"uint256","internalType":"uint256"}],"stateMutability":"view"},{"type":"function","name":"getPastVotes","inputs":[{"name":"account","type":"address","internalType":"address"},{"name":"timepoint","type":"uint256","internalType":"uint256"}],"outputs":[{"name":"","type":"uint256","internalType":"uint256"}],"stateMutability":"view"},{"type":"function","name":"getVotes","inputs":[{"name":"account","type":"address","internalType":"address"}],"outputs":[{"name":"","type":"uint256","internalType":"uint256"}],"stateMutability":"view"},{"type":"function","name":"initialLock","inputs":[],"outputs":[{"name":"","type":"uint256","internalType":"uint256"}],"stateMutability":"view"},{"type":"function","name":"initialize","inputs":[{"name":"_name","type":"string","internalType":"string"},{"name":"_symbol","type":"string","internalType":"string"},{"name":"_founder","type":"address","internalType":"address"},{"name":"_assetToken","type":"address","internalType":"address"},{"name":"_matureAt","type":"uint256","internalType":"uint256"},{"name":"_agentNft","type":"address","internalType":"address"},{"name":"_canStake","type":"bool","internalType":"bool"}],"outputs":[],"stateMutability":"nonpayable"},{"type":"function","name":"matureAt","inputs":[],"outputs":[{"name":"","type":"uint256","internalType":"uint256"}],"stateMutability":"view"},{"type":"function","name":"name","inputs":[],"outputs":[{"name":"","type":"string","internalType":"string"}],"stateMutability":"view"},{"type":"function","name":"nonces","inputs":[{"name":"owner","type":"address","internalType":"address"}],"outputs":[{"name":"","type":"uint256","internalType":"uint256"}],"stateMutability":"view"},{"type":"function","name":"numCheckpoints","inputs":[{"name":"account","type":"address","internalType":"address"}],"outputs":[{"name":"","type":"uint32","internalType":"uint32"}],"stateMutability":"view"},{"type":"function","name":"setCanStake","inputs":[{"name":"_canStake","type":"bool","internalType":"bool"}],"outputs":[],"stateMutability":"nonpayable"},{"type":"function","name":"setMatureAt","inputs":[{"name":"_matureAt","type":"uint256","internalType":"uint256"}],"outputs":[],"stateMutability":"nonpayable"},{"type":"function","name":"stake","inputs":[{"name":"amount","type":"uint256","internalType":"uint256"},{"name":"receiver","type":"address","internalType":"address"},{"name":"delegatee","type":"address","internalType":"address"}],"outputs":[],"stateMutability":"nonpayable"},{"type":"function","name":"symbol","inputs":[],"outputs":[{"name":"","type":"string","internalType":"string"}],"stateMutability":"view"},{"type":"function","name":"totalSupply","inputs":[],"outputs":[{"name":"","type":"uint256","internalType":"uint256"}],"stateMutability":"view"},{"type":"function","name":"transfer","inputs":[{"name":"","type":"address","internalType":"address"},{"name":"","type":"uint256","internalType":"uint256"}],"outputs":[{"name":"","type":"bool","internalType":"bool"}],"stateMutability":"nonpayable"},{"type":"function","name":"transferFrom","inputs":[{"name":"","type":"address","internalType":"address"},{"name":"","type":"address","internalType":"address"},{"name":"","type":"uint256","internalType":"uint256"}],"outputs":[{"name":"","type":"bool","internalType":"bool"}],"stateMutability":"nonpayable"},{"type":"function","name":"withdraw","inputs":[{"name":"amount","type":"uint256","internalType":"uint256"}],"outputs":[],"stateMutability":"nonpayable"},{"type":"event","name":"Approval","inputs":[{"name":"owner","type":"address","indexed":true,"internalType":"address"},{"name":"spender","type":"address","indexed":true,"internalType":"address"},{"name":"value","type":"uint256","indexed":false,"internalType":"uint256"}],"anonymous":false},{"type":"event","name":"DelegateChanged","inputs":[{"name":"delegator","type":"address","indexed":true,"internalType":"address"},{"name":"fromDelegate","type":"address","indexed":true,"internalType":"address"},{"name":"toDelegate","type":"address","indexed":true,"internalType":"address"}],"anonymous":false},{"type":"event","name":"DelegateVotesChanged","inputs":[{"name":"delegate","type":"address","indexed":true,"internalType":"address"},{"name":"previousVotes","type":"uint256","indexed":false,"internalType":"uint256"},{"name":"newVotes","type":"uint256","indexed":false,"internalType":"uint256"}],"anonymous":false},{"type":"event","name":"EIP712DomainChanged","inputs":[],"anonymous":false},{"type":"event","name":"Initialized","inputs":[{"name":"version","type":"uint64","indexed":false,"internalType":"uint64"}],"anonymous":false},{"type":"event","name":"Transfer","inputs":[{"name":"from","type":"address","indexed":true,"internalType":"address"},{"name":"to","type":"address","indexed":true,"internalType":"address"},{"name":"value","type":"uint256","indexed":false,"internalType":"uint256"}],"anonymous":false},{"type":"error","name":"AddressEmptyCode","inputs":[{"name":"target","type":"address","internalType":"address"}]},{"type":"error","name":"AddressInsufficientBalance","inputs":[{"name":"account","type":"address","internalType":"address"}]},{"type":"error","name":"CheckpointUnorderedInsertion","inputs":[]},{"type":"error","name":"CheckpointUnorderedInsertion","inputs":[]},{"type":"error","name":"ECDSAInvalidSignature","inputs":[]},{"type":"error","name":"ECDSAInvalidSignatureLength","inputs":[{"name":"length","type":"uint256","internalType":"uint256"}]},{"type":"error","name":"ECDSAInvalidSignatureS","inputs":[{"name":"s","type":"bytes32","internalType":"bytes32"}]},{"type":"error","name":"ERC20ExceededSafeSupply","inputs":[{"name":"increasedSupply","type":"uint256","internalType":"uint256"},{"name":"cap","type":"uint256","internalType":"uint256"}]},{"type":"error","name":"ERC20InsufficientAllowance","inputs":[{"name":"spender","type":"address","internalType":"address"},{"name":"allowance","type":"uint256","internalType":"uint256"},{"name":"needed","type":"uint256","internalType":"uint256"}]},{"type":"error","name":"ERC20InsufficientBalance","inputs":[{"name":"sender","type":"address","internalType":"address"},{"name":"balance","type":"uint256","internalType":"uint256"},{"name":"needed","type":"uint256","internalType":"uint256"}]},{"type":"error","name":"ERC20InvalidApprover","inputs":[{"name":"approver","type":"address","internalType":"address"}]},{"type":"error","name":"ERC20InvalidReceiver","inputs":[{"name":"receiver","type":"address","internalType":"address"}]},{"type":"error","name":"ERC20InvalidSender","inputs":[{"name":"sender","type":"address","internalType":"address"}]},{"type":"error","name":"ERC20InvalidSpender","inputs":[{"name":"spender","type":"address","internalType":"address"}]},{"type":"error","name":"ERC5805FutureLookup","inputs":[{"name":"timepoint","type":"uint256","internalType":"uint256"},{"name":"clock","type":"uint48","internalType":"uint48"}]},{"type":"error","name":"ERC6372InconsistentClock","inputs":[]},{"type":"error","name":"FailedInnerCall","inputs":[]},{"type":"error","name":"InvalidAccountNonce","inputs":[{"name":"account","type":"address","internalType":"address"},{"name":"currentNonce","type":"uint256","internalType":"uint256"}]},{"type":"error","name":"InvalidInitialization","inputs":[]},{"type":"error","name":"NotInitializing","inputs":[]},{"type":"error","name":"SafeCastOverflowedUintDowncast","inputs":[{"name":"bits","type":"uint8","internalType":"uint8"},{"name":"value","type":"uint256","internalType":"uint256"}]},{"type":"error","name":"SafeERC20FailedOperation","inputs":[{"name":"token","type":"address","internalType":"address"}]},{"type":"error","name":"VotesExpiredSignature","inputs":[{"name":"expiry","type":"uint256","internalType":"uint256"}]}],"bytecode":{"object":"0x60808060405234620000bd577ff0c57e16840df040f15088dc2f81fe391c3923bec73e23a9662efc9c229c6a009081549060ff8260401c16620000ae57506001600160401b036002600160401b03198282160162000068575b6040516134629081620000c38239f35b6001600160401b031990911681179091556040519081527fc7f505b2f371ae2175ee4913f4499e1f2633a7b5936321eed1cdaeb6115181d290602090a138808062000058565b63f92ee8a960e01b8152600490fd5b600080fdfe6080604052600436101561001257600080fd5b60003560e01c806306fdde0314610237578063095ea7b3146102325780631083f7611461022d57806318160ddd1461022857806323b872dd146102235780632e1a7d4d1461021e578063313ce567146102195780633a46b1a8146102145780634bf5d7e91461020f5780634d853ee51461020a578063587cde1e146102055780635c19a95c146102005780635ec80600146101fb5780636fcfff45146101f657806370a08231146101f15780637e893f80146101ec5780637ecebe00146101e7578063836f8f20146101e257806384b0196e146101dd5780638e539e8c146101d857806391ddadf4146101d357806395d89b41146101ce5780639ab24eb0146101c95780639cbef4a9146101c45780639ed27809146101bf578063a5e881b3146101ba578063a7d545db146101b5578063a9059cbb146101b0578063b2193b4d146101ab578063c3cda520146101a6578063d7b7d405146101a1578063dd62ed3e1461019c578063e8867180146101975763f1127ed81461019257600080fd5b611506565b61148f565b61141f565b61137a565b6112ac565b611222565b611104565b610df1565b610dd3565b610db0565b610d87565b610d59565b610ca3565b610c77565b610b73565b610aa2565b6109fe565b6109a5565b6108ec565b61088c565b610832565b610707565b6106e5565b61069d565b610674565b6105e2565b610556565b61053a565b6104c2565b61049a565b61046f565b610446565b6103ef565b6102a0565b600091031261024757565b600080fd5b919082519283825260005b848110610278575050826000602080949584010152601f8019910116010190565b602081830181015184830182015201610257565b90602061029d92818152019061024c565b90565b346102475760008060031936011261039457604051908060008051602061336d833981519152908154906102d382612135565b80865292600192808416908115610367575060011461030d575b610309866102fd81880382611184565b6040519182918261028c565b0390f35b815292507f2ae08a8e29253f69ac5d979a101956ab8f8d9d7ded63fa7a83b16fc47648eab05b82841061034f5750505081016020016102fd82610309386102ed565b80546020858701810191909152909301928101610333565b9050869550610309969350602092506102fd94915060ff191682840152151560051b8201019293386102ed565b80fd5b600435906001600160a01b038216820361024757565b602435906001600160a01b038216820361024757565b604435906001600160a01b038216820361024757565b60a435906001600160a01b038216820361024757565b3461024757604036600319011261024757610408610397565b5060405162461bcd60e51b8152602060048201526015602482015274105c1c1c9bdd99481b9bdd081cdd5c1c1bdc9d1959605a1b6044820152606490fd5b34610247576000366003190112610247576002546040516001600160a01b039091168152602090f35b346102475760003660031901126102475760206000805160206133ad83398151915254604051908152f35b34610247576060366003190112610247576104b3610397565b506104bc6103ad565b50611c16565b346102475760203660031901126102475760085460ff81166105045760ff19166001176008556104f3600435611b23565b61050260ff1960085416600855565b005b60405162461bcd60e51b815260206004820152600e60248201526d31b0b73737ba103932b2b73a32b960911b6044820152606490fd5b3461024757600036600319011261024757602060405160128152f35b346102475760403660031901126102475761056f610397565b60243561057b43612e47565b65ffffffffffff81168210156105bb57506105b261059a602093611a0a565b6001600160d01b03926105ac90612e47565b90612e79565b16604051908152f35b604051637669fc0f60e11b8152600481019290925265ffffffffffff166024820152604490fd5b34610247576000366003190112610247576105fc43612e47565b65ffffffffffff8061060d43612e47565b16911603610662576103096040516106248161114c565b601d81527f6d6f64653d626c6f636b6e756d6265722666726f6d3d64656661756c74000000602082015260405191829160208352602083019061024c565b6040516301bfc1c560e61b8152600490fd5b34610247576000366003190112610247576001546040516001600160a01b039091168152602090f35b346102475760203660031901126102475760206001600160a01b03806106c1610397565b1660005260008051602061334d833981519152825260406000205416604051908152f35b3461024757602036600319011261024757610502610701610397565b33611c54565b3461024757604036600319011261024757610720610397565b6024359061072d43612e47565b9165ffffffffffff928381168210156105bb575060009160018060a01b031682528160205261075f6040832091612e47565b81549083918095600582116107d0575b505093610780916103099584611edb565b806107a25750505b6040516001600160a01b0390911681529081906020820190565b6107cb9250906107b46107ba92611aca565b90611df8565b505460301c6001600160a01b031690565b610788565b6107dc82939792612cc2565b830392831161082d57806107f08487611df8565b505416908716101561081157506103099461078092905b919581935061076f565b9091506001820180921161082d57610309946107809290610807565b611ab4565b346102475760203660031901126102475761085361084e610397565b611a0a565b5463ffffffff9081811161086d5760209160405191168152f35b604490604051906306dfcc6560e41b8252602060048301526024820152fd5b346102475760203660031901126102475760206108e46108aa610397565b6001600160a01b031660009081527f52c63247e1f47db19d5ce0460030c497f067ca4cebf71ba98eeadabe20bace00602052604090205490565b604051908152f35b3461024757602036600319011261024757600354604051632474521560e21b81527fa49807205ce4d355092ef5a8a18f56e8913cf4a201fbe287825b095693c21775600482015233602482015290602090829060449082906001600160a01b03165afa80156109a05761096791600091610972575b50611a7c565b610502600435600455565b610993915060203d8111610999575b61098b8183611184565b8101906119b5565b38610961565b503d610981565b611907565b34610247576020366003190112610247576001600160a01b036109c6610397565b166000527f5ab42ced628888259c08ac98db1eb0cf702fc1501344311d8b100cd1bfe4bb006020526020604060002054604051908152f35b34610247576000366003190112610247576020600654604051908152f35b91610a4f90949194600f60f81b8452610a4160209660e08887015260e086019061024c565b90848203604086015261024c565b92606083015260018060a01b03166080820152600060a082015260c081830391015281808451928381520193019160005b828110610a8e575050505090565b835185529381019392810192600101610a80565b34610247576000366003190112610247577fa16a46d94261c7517cc8ff89f61c0ce93598e3c849801011dee649a6a557d100541580610b4a575b15610b0d57610ae9612371565b610af161244f565b90610309610afd6128d9565b6040519384933091469186610a1c565b60405162461bcd60e51b81526020600482015260156024820152741152540dcc4c8e88155b9a5b9a5d1a585b1a5e9959605a1b6044820152606490fd5b507fa16a46d94261c7517cc8ff89f61c0ce93598e3c849801011dee649a6a557d1015415610adc565b3461024757602036600319011261024757600435610b9043612e47565b9065ffffffffffff918281168210156105bb5750610bad90612e47565b906000805160206133cd833981519152918254906000908260058111610c22575b50610bd993506132da565b9060009082610bfc57505050602060005b6040516001600160d01b039091168152f35b610c07602093611aca565b915260008051602061340d833981519152015460301c610bea565b9092610c2d82612cc2565b820391821161082d57610bd994868452808360008051602061340d83398151915201541690851610600014610c655750915b38610bce565b929150610c7190611ecd565b90610c5f565b34610247576000366003190112610247576020610c9343612e47565b65ffffffffffff60405191168152f35b346102475760008060031936011261039457604051908060008051602061338d83398151915290815490610cd682612135565b808652926001928084169081156103675750600114610cff57610309866102fd81880382611184565b815292507f46a2803e59a4de4e7a4c574b1243f25977ac4c77d5a1a4a609b5394cebb4a2aa5b828410610d415750505081016020016102fd82610309386102ed565b80546020858701810191909152909301928101610d25565b346102475760203660031901126102475760206001600160d01b036105b2610d8261084e610397565b612faf565b34610247576000366003190112610247576003546040516001600160a01b039091168152602090f35b3461024757600036600319011261024757602060ff600554166040519015158152f35b34610247576000366003190112610247576020600454604051908152f35b34610247576060366003190112610247576004803590610e0f6103ad565b90610e186103c3565b60055460ff1680156110ed575b610e2e90611861565b610e398415156118bb565b600254610e5c90610e50906001600160a01b031681565b6001600160a01b031690565b6040516370a0823160e01b815233848201908152602092919083908290819083010381855afa9081156109a057610e9f9188916000916110d0575b501015611913565b60408051636eb1769f60e11b815233868201908152306020820152909284928492839182910103915afa9081156109a057610ee69187916000916110b3575b50101561195e565b600354610efd90610e50906001600160a01b031681565b60405163225742f560e11b8152308186019081529194909290918190849081906020010381885afa9283156109a057600093611084575b50604051634752f9ef60e01b81528281018481528290829081906020010381895afa9081156109a057610f7192600092611067575b5050156119ca565b6000805160206133ad8339815191525415611059575b833b156102475760408051634b56175360e01b81529182019283526001600160a01b0384166020840152909360009285928391859183910103925af180156109a057610502946110069361100092611040575b50610ffa813033610ff5610e5060025460018060a01b031690565b6129f2565b84612508565b82611c54565b6001600160a01b03811660009081526007602052604090209061103a61103461102e43612e47565b92611a43565b54612e14565b916131f8565b8061104d61105392611133565b8061023c565b38610fda565b61106286600655565b610f87565b61107d9250803d106109995761098b8183611184565b3880610f69565b816110a59294503d85116110ac575b61109d8183611184565b8101906118f8565b9138610f34565b503d611093565b6110ca9150843d86116110ac5761109d8183611184565b38610ede565b6110e79150853d87116110ac5761109d8183611184565b38610e97565b506000805160206133ad8339815191525415610e25565b34610247576040366003190112610247576104bc610397565b634e487b7160e01b600052604160045260246000fd5b67ffffffffffffffff811161114757604052565b61111d565b6040810190811067ffffffffffffffff82111761114757604052565b60a0810190811067ffffffffffffffff82111761114757604052565b90601f8019910116810190811067ffffffffffffffff82111761114757604052565b604051906111b38261114c565b565b67ffffffffffffffff811161114757601f01601f191660200190565b81601f82011215610247578035906111e8826111b5565b926111f66040519485611184565b8284526020838301011161024757816000926020809301838601378301015290565b8015150361024757565b346102475760e03660031901126102475767ffffffffffffffff600435818111610247576112549036906004016111d1565b906024359081116102475761126d9036906004016111d1565b6112756103c3565b606435926001600160a01b038416840361024757610502936112956103d9565b9260c435946112a386611218565b6084359361158d565b346102475760c0366003190112610247576112c5610397565b6044359060243560643560ff8116810361024757834211611361576113556105029461135c926040519060208201927fe48329057bfd03d55e49b547132e39cffd9c1820ad7b9d4c5307691425d15adf845260018060a01b038816604084015286606084015260808301526080825261133d82611168565b61135060a4359360843593519020612849565b612b44565b91826127d2565b611c54565b604051632341d78760e11b815260048101859052602490fd5b3461024757604036600319011261024757611393610397565b60243561139f43612e47565b9165ffffffffffff83168210156113f4576001600160a01b0316600090815260076020526040902061030992506001600160d01b03916113e391906105ac90612e47565b604051911681529081906020820190565b50604051637669fc0f60e11b8152600481019190915265ffffffffffff919091166024820152604490fd5b3461024757604036600319011261024757611438610397565b6114406103ad565b9060018060a01b038091166000527f52c63247e1f47db19d5ce0460030c497f067ca4cebf71ba98eeadabe20bace01602052604060002091166000526020526020604060002054604051908152f35b34610247576020366003190112610247576004356114ac81611218565b6001546001600160a01b031633036114d35760ff8019600554169115151617600555600080f35b60405162461bcd60e51b815260206004820152600b60248201526a2737ba103337bab73232b960a91b6044820152606490fd5b346102475760403660031901126102475761151f610397565b60243563ffffffff8116810361024757611561611567916115536040946115446127b9565b5061154d6127b9565b50611a0a565b61155b6127b9565b50611df8565b50612fdd565b8151815165ffffffffffff1681526020918201516001600160d01b031691810191909152f35b959391949290946000805160206133ed8339815191529586549760ff8960401c16159867ffffffffffffffff811680159081611693575b6001149081611689575b159081611680575b5061166e5767ffffffffffffffff19166001179097556115fa96886116495761169b565b61160057565b6000805160206133ed833981519152805460ff60401b19169055604051600181527fc7f505b2f371ae2175ee4913f4499e1f2633a7b5936321eed1cdaeb6115181d290602090a1565b6000805160206133ed833981519152805460ff60401b1916600160401b17905561169b565b60405163f92ee8a960e01b8152600490fd5b905015386115d6565b303b1591506115ce565b8b91506115c4565b9695949391906116a9612106565b6116b1612106565b875167ffffffffffffffff81116111475760008051602061336d833981519152986116e5826116e08c54612135565b61216f565b60209081601f84116001146117b457509361173361175d946111b39b9c8561177a9996611758966117979d9c9a6000926117a9575b50508160011b916000199060031b1c191617905561226b565b61173b612106565b60018060a01b03166001600160601b0360a01b6001541617600155565b600455565b60018060a01b03166001600160601b0360a01b6002541617600255565b60018060a01b03166001600160601b0360a01b6003541617600355565b60ff8019600554169115151617600555565b01519050388061171a565b60008051602061336d8339815191526000529190601f1984167f2ae08a8e29253f69ac5d979a101956ab8f8d9d7ded63fa7a83b16fc47648eab0936000905b828210611849575050946111b39b9c600186611758966117979d9c9a966117339661177a9d9a61175d9c10611830575b505050811b01905561226b565b015160001960f88460031b161c19169055388080611823565b806001869782949787015181550196019401906117f3565b1561186857565b60405162461bcd60e51b815260206004820152602560248201527f5374616b696e672069732064697361626c656420666f722070726976617465206044820152641859d95b9d60da1b6064820152608490fd5b156118c257565b60405162461bcd60e51b815260206004820152600e60248201526d043616e6e6f74207374616b6520360941b6044820152606490fd5b90816020910312610247575190565b6040513d6000823e3d90fd5b1561191a57565b606460405162461bcd60e51b815260206004820152602060248201527f496e73756666696369656e7420617373657420746f6b656e2062616c616e63656044820152fd5b1561196557565b60405162461bcd60e51b815260206004820152602260248201527f496e73756666696369656e7420617373657420746f6b656e20616c6c6f77616e604482015261636560f01b6064820152608490fd5b90816020910312610247575161029d81611218565b156119d157565b60405162461bcd60e51b81526020600482015260116024820152701059d95b9d08109b1858dadb1a5cdd1959607a1b6044820152606490fd5b6001600160a01b031660009081527fe8b26c30fad74198956032a3533d903385d56dd795af560196f9c78d4af40d016020526040902090565b6001600160a01b031660009081527f52c63247e1f47db19d5ce0460030c497f067ca4cebf71ba98eeadabe20bace006020526040902090565b15611a8357565b60405162461bcd60e51b81526020600482015260096024820152682737ba1030b236b4b760b91b6044820152606490fd5b634e487b7160e01b600052601160045260246000fd5b60001981019190821161082d57565b9190820391821161082d57565b15611aed57565b60405162461bcd60e51b815260206004820152600e60248201526d139bdd081b585d1d5c99481e595d60921b6044820152606490fd5b80611b2d33611a43565b5410611bda576001546111b39190611b4d906001600160a01b0316610e50565b331480611bbd575b611baa575b611b6481336125de565b336000908152600760205260409020611b8c90611b8043612e47565b61103a61103433611a43565b50506002543390611ba5906001600160a01b0316610e50565b6129b1565b611bb8600454421015611ae6565b611b5a565b50611bd181611bcb33611a43565b54611ad9565b60065411611b55565b60405162461bcd60e51b8152602060048201526014602482015273496e73756666696369656e742062616c616e636560601b6044820152606490fd5b60405162461bcd60e51b8152602060048201526016602482015275151c985b9cd9995c881b9bdd081cdd5c1c1bdc9d195960521b6044820152606490fd5b60409060018060a01b03611d048183169185611cfe60009585875260008051602061334d83398151915260205287872080549085821695851680926001600160601b0360a01b1617905584877f3134e8a2e6d97e929a7e54011ea5485d7d196dd5f0ba4d4ef95803e8e3fc257f8a80a46001600160a01b031660009081527f52c63247e1f47db19d5ce0460030c497f067ca4cebf71ba98eeadabe20bace00602052604090205490565b91611f39565b8152806020522090611d1543612e47565b825492908315611dae57611d3a611d34611d2e86611aca565b84611df8565b50611ea0565b805165ffffffffffff8381169291168210611de65751611d689065ffffffffffff165b65ffffffffffff1690565b03611dae5750611d7e906107b46111b394611aca565b5080546601000000000000600160d01b03191660309290921b6601000000000000600160d01b0316919091179055565b916111b39350611de190611dd1611dc36111a6565b65ffffffffffff9095168552565b6001600160a01b03166020840152565b611e3c565b604051632520601d60e01b8152600490fd5b8054821015611e105760005260206000200190600090565b634e487b7160e01b600052603260045260246000fd5b634e487b7160e01b600052600060045260246000fd5b8054600160401b81101561114757611e5991600182018155611df8565b611e9b57815181546020909301516601000000000000600160d01b0360309190911b166001600160d01b031990931665ffffffffffff90911617919091179055565b611e26565b90604051611ead8161114c565b915465ffffffffffff8116835260301c6001600160a01b03166020830152565b906001820180921161082d57565b905b838310611eea5750505090565b909192611ef78185612cad565b9081611f038186611df8565b505465ffffffffffff9081169085161015611f23575050925b9190611edd565b60019195508092500180911115611f1c57611ab4565b6001600160a01b03808316939291908116908185141580612064575b611f61575b5050505050565b81611fd6575b505082611f76575b8080611f5a565b7fdec2bacdd2f05b59de34da9b523dff8be42e5e38e818c82fdb0bae774387a72491611fad611fa7611fb393611a0a565b91612e14565b9061206d565b604080516001600160d01b039384168152919092166020820152a2388080611f6f565b611fdf90611a0a565b611fe884612e14565b611ff143612e47565b6001600160d01b0391828061200586612faf565b16911690039282841161082d577fdec2bacdd2f05b59de34da9b523dff8be42e5e38e818c82fdb0bae774387a7249361205a92612041926131f8565b6040805192851683529316602082015291829190820190565b0390a23880611f67565b50831515611f55565b9061207743612e47565b6001600160d01b0391828061208b86612faf565b1691160191821161082d5761209f926131f8565b9091565b6120ac43612e47565b906001600160d01b039081806120c0612f58565b1691160190811161082d5761209f916130d3565b6120dd43612e47565b906001600160d01b039081806120f1612f58565b169116900390811161082d5761209f916130d3565b60ff6000805160206133ed8339815191525460401c161561212357565b604051631afcd79f60e31b8152600490fd5b90600182811c92168015612165575b602083101461214f57565b634e487b7160e01b600052602260045260246000fd5b91607f1691612144565b601f811161217b575050565b60009060008051602061336d83398151915282527f2ae08a8e29253f69ac5d979a101956ab8f8d9d7ded63fa7a83b16fc47648eab0906020601f850160051c830194106121e3575b601f0160051c01915b8281106121d857505050565b8181556001016121cc565b90925082906121c3565b601f81116121f9575050565b60009060008051602061338d83398151915282527f46a2803e59a4de4e7a4c574b1243f25977ac4c77d5a1a4a609b5394cebb4a2aa906020601f850160051c83019410612261575b601f0160051c01915b82811061225657505050565b81815560010161224a565b9092508290612241565b90815167ffffffffffffffff81116111475760008051602061338d833981519152906122a08161229b8454612135565b6121ed565b602080601f83116001146122dc5750819293946000926122d1575b50508160011b916000199060031b1c1916179055565b0151905038806122bb565b90601f1983169561231c60008051602061338d8339815191526000527f46a2803e59a4de4e7a4c574b1243f25977ac4c77d5a1a4a609b5394cebb4a2aa90565b926000905b88821061235957505083600195969710612340575b505050811b019055565b015160001960f88460031b161c19169055388080612336565b80600185968294968601518155019501930190612321565b604051906000827fa16a46d94261c7517cc8ff89f61c0ce93598e3c849801011dee649a6a557d1029182546123a581612135565b8084529360019180831690811561242b57506001146123cd575b50506111b392500383611184565b600090815291507f42ad5d3e1f2e6e70edcf6d991b8a3023d3fca8047a131592f9edb9fd9b89d57d5b84831061241057506111b3935050810160200138806123bf565b81935090816020925483858a010152019101909185926123f6565b915050602092506111b394915060ff191682840152151560051b82010138806123bf565b604051906000827fa16a46d94261c7517cc8ff89f61c0ce93598e3c849801011dee649a6a557d10391825461248381612135565b8084529360019180831690811561242b57506001146124aa5750506111b392500383611184565b600090815291507f5f9ce34815f8e11431c7bb75a8e6886a91478f7ffc1dbb0a98dc240fddd76b755b8483106124ed57506111b3935050810160200138806123bf565b81935090816020925483858a010152019101909185926124d3565b91906001600160a01b03831680156125c5576000805160206133ad83398151915290815483810180911161082d576000805160206133ad8339815191525561254f85611a43565b8054840190556040518381526000907fddf252ad1be2c89b69c2b068fc378daa952ba7f163c4a11628f55a4df523b3ef90602090a354926001600160d01b03841161259f576111b39293506126ac565b604051630e58ae9360e11b8152600481018590526001600160d01b036024820152604490fd5b60405163ec442f0560e01b815260006004820152602490fd5b6001600160a01b0381169291908315612693576125fa81611a43565b549382851061266f57600090836111b395960361261684611a43565b5561263e846000805160206133ad83398151915254036000805160206133ad83398151915255565b6040518481527fddf252ad1be2c89b69c2b068fc378daa952ba7f163c4a11628f55a4df523b3ef90602090a3612737565b60649083866040519263391434e360e21b8452600484015260248301526044820152fd5b604051634b637e8f60e11b815260006004820152602490fd5b906111b3916126c26126bd83612e14565b6120a3565b50506001600160a01b0390811690811561271f575b60008051602061334d8339815191526020527fd4fb29e10204005f1a39963c6862b79a755e22f0177c53f05cdc3786c702f97454600092835260409092205481169116611f39565b61273061272b84612e14565b6120d4565b50506126d7565b6111b391906001600160a01b0390811680156127a6575b61275a61272b84612e14565b5050600090815260008051602061334d83398151915260205260408120549080527fd4fb29e10204005f1a39963c6862b79a755e22f0177c53f05cdc3786c702f9745482169116611f39565b6127b26126bd84612e14565b505061274e565b604051906127c68261114c565b60006020838281520152565b6001600160a01b03811660009081527f5ab42ced628888259c08ac98db1eb0cf702fc1501344311d8b100cd1bfe4bb00602052604090208054600181019091559182900361281e575050565b6040516301d4b62360e61b81526001600160a01b039190911660048201526024810191909152604490fd5b612851612902565b61285961296c565b916040519260208401927f8b73c3c69bb8fe3d512ecc4cf759cc79239f7b179b0ffacaa9a75d522b39400f8452604085015260608401524660808401523060a084015260a0835260c083019183831067ffffffffffffffff8411176111475760429360e291846040528151902061190160f01b855260c282015201522090565b6040516020810181811067ffffffffffffffff8211176111475760405260008152906000368137565b61290a612371565b805190811561291a576020012090565b50507fa16a46d94261c7517cc8ff89f61c0ce93598e3c849801011dee649a6a557d1005480156129475790565b507fc5d2460186f7233c927e7db2dcc703c0e500b653ca82273b7bfad8045d85a47090565b61297461244f565b8051908115612984576020012090565b50507fa16a46d94261c7517cc8ff89f61c0ce93598e3c849801011dee649a6a557d1015480156129475790565b60405163a9059cbb60e01b60208201526001600160a01b039290921660248301526044808301939093529181526111b3916129ed606483611184565b612a34565b6040516323b872dd60e01b60208201526001600160a01b0392831660248201529290911660448301526064808301939093529181526111b3916129ed82611168565b600080612a7e9260018060a01b03169360208151910182865af13d15612ad9573d90612a5f826111b5565b91612a6d6040519384611184565b82523d6000602084013e5b83612ae1565b8051908115159182612ab7575b5050612a945750565b604051635274afe760e01b81526001600160a01b03919091166004820152602490fd5b612ad2925090602080612ace9383010191016119b5565b1590565b3880612a8b565b606090612a78565b90612b085750805115612af657805190602001fd5b604051630a12f52160e11b8152600490fd5b81511580612b3b575b612b19575090565b604051639996b31560e01b81526001600160a01b039091166004820152602490fd5b50803b15612b11565b9161029d9391612b5393612b5c565b90929192612c00565b91907f7fffffffffffffffffffffffffffffff5d576e7357a4501ddfe92f46681b20a08411612bd457926020929160ff608095604051948552168484015260408301526060820152600092839182805260015afa156109a05780516001600160a01b03811615612bcb57918190565b50809160019190565b50505060009160039190565b60041115612bea57565b634e487b7160e01b600052602160045260246000fd5b612c0981612be0565b80612c12575050565b612c1b81612be0565b60018103612c355760405163f645eedf60e01b8152600490fd5b612c3e81612be0565b60028103612c5f5760405163fce698f760e01b815260048101839052602490fd5b80612c6b600392612be0565b14612c735750565b6040516335e2f38360e21b81526004810191909152602490fd5b8115612c97570490565b634e487b7160e01b600052601260045260246000fd5b90808216911860011c810180911161082d5790565b8015612dfc5780612d95612d8e612d84612d7a612d70612d66612d5c612d52600161029d9a6000908b60801c80612df0575b508060401c80612de3575b508060201c80612dd6575b508060101c80612dc9575b508060081c80612dbc575b508060041c80612daf575b508060021c80612da2575b50821c612d9b575b811c1b612d4b818b612c8d565b0160011c90565b612d4b818a612c8d565b612d4b8189612c8d565b612d4b8188612c8d565b612d4b8187612c8d565b612d4b8186612c8d565b612d4b8185612c8d565b8092612c8d565b90612e02565b8101612d3e565b6002915091019038612d36565b6004915091019038612d2b565b6008915091019038612d20565b6010915091019038612d15565b6020915091019038612d0a565b6040915091019038612cff565b91505060809038612cf4565b50600090565b9080821015612e0f575090565b905090565b6001600160d01b0390818111612e28571690565b604490604051906306dfcc6560e41b825260d060048301526024820152fd5b65ffffffffffff90818111612e5a571690565b604490604051906306dfcc6560e41b8252603060048301526024820152fd5b9081549060008260058111612f0d575b50905b828210612ebf57505060008115600014612ea857505050600090565b612eb3602092611aca565b92815220015460301c90565b9091612ecb8184612cad565b90818560005265ffffffffffff8082602060002001541690851610600014612ef7575050915b90612e8c565b60019194508092500180911115612ef157611ab4565b9092612f1882612cc2565b820391821161082d5784845265ffffffffffff80836020872001541690841610600014612f485750915b38612e89565b9250612f5390611ecd565b612f42565b6000805160206133cd833981519152805460009181612f7957505050600090565b8160001981011161082d577f88c46c62109817164d0ae1873830d4299a82e5daf552a3d8e989b27638fcf7479252015460301c90565b805460009181612fc157505050600090565b60001992828481011161082d5760209181522001015460301c90565b90604051612fea8161114c565b915465ffffffffffff8116835260301c6020830152565b6000805160206133cd833981519152908154600160401b8110156111475760018101808455811015611e10576111b39260005260008051602061340d833981519152019061306c65ffffffffffff825116839065ffffffffffff1665ffffffffffff19825416179055565b60200151815465ffffffffffff1660309190911b65ffffffffffff1916179055565b8054600160401b811015611147576130ab91600182018155611df8565b611e9b578151815465ffffffffffff191665ffffffffffff919091161781556111b39161306c565b6000805160206133cd833981519152549192919081156131ce576131266131216130fc84611aca565b6000805160206133cd83398151915260005260008051602061340d8339815191520190565b612fdd565b805165ffffffffffff8381169491168410611de6578560209361319295613156611d5d865165ffffffffffff1690565b03613196575061316b6130fc61318493611aca565b9065ffffffffffff82549181199060301b169116179055565b01516001600160d01b031690565b9190565b90506131c991506131b66131a86111a6565b65ffffffffffff9092168252565b6001600160d01b03871681850152613001565b613184565b6131f291506131de6131a86111a6565b6001600160d01b0384166020820152613001565b60009190565b8054929392919082156132b65761322161312161321485611aca565b8360005260206000200190565b90613232825165ffffffffffff1690565b65ffffffffffff84811691168110611de657613192946020948892613260611d5d875165ffffffffffff1690565b0361328357506131849261327661316b92611aca565b9060005260206000200190565b9150506131c9916132a36132956111a6565b65ffffffffffff9093168352565b6001600160d01b0388168286015261308e565b6131f292506132c66132956111a6565b6001600160d01b038516602083015261308e565b8282106132e657505090565b90916132f28184612cad565b90816000805160206133cd83398151915260005265ffffffffffff808260008051602061340d83398151915201541690851610600014613336575050915b906132da565b6001919450809250018091111561333057611ab456fee8b26c30fad74198956032a3533d903385d56dd795af560196f9c78d4af40d0052c63247e1f47db19d5ce0460030c497f067ca4cebf71ba98eeadabe20bace0352c63247e1f47db19d5ce0460030c497f067ca4cebf71ba98eeadabe20bace0452c63247e1f47db19d5ce0460030c497f067ca4cebf71ba98eeadabe20bace02e8b26c30fad74198956032a3533d903385d56dd795af560196f9c78d4af40d02f0c57e16840df040f15088dc2f81fe391c3923bec73e23a9662efc9c229c6a0088c46c62109817164d0ae1873830d4299a82e5daf552a3d8e989b27638fcf748a264697066735822122026c6603183a70678353ff98c4546d13a344059170fa2fa08e1ff90a4a2c3e02564736f6c63430008140033","linkReferences":{}},"methodIdentifiers":{"CLOCK_MODE()":"4bf5d7e9","agentNft()":"9cbef4a9","allowance(address,address)":"dd62ed3e","approve(address,uint256)":"095ea7b3","assetToken()":"1083f761","balanceOf(address)":"70a08231","canStake()":"9ed27809","checkpoints(address,uint32)":"f1127ed8","clock()":"91ddadf4","decimals()":"313ce567","delegate(address)":"5c19a95c","delegateBySig(address,uint256,uint256,uint8,bytes32,bytes32)":"c3cda520","delegates(address)":"587cde1e","eip712Domain()":"84b0196e","founder()":"4d853ee5","getPastBalanceOf(address,uint256)":"d7b7d405","getPastDelegates(address,uint256)":"5ec80600","getPastTotalSupply(uint256)":"8e539e8c","getPastVotes(address,uint256)":"3a46b1a8","getVotes(address)":"9ab24eb0","initialLock()":"836f8f20","initialize(string,string,address,address,uint256,address,bool)":"b2193b4d","matureAt()":"a5e881b3","name()":"06fdde03","nonces(address)":"7ecebe00","numCheckpoints(address)":"6fcfff45","setCanStake(bool)":"e8867180","setMatureAt(uint256)":"7e893f80","stake(uint256,address,address)":"a7d545db","symbol()":"95d89b41","totalSupply()":"18160ddd","transfer(address,uint256)":"a9059cbb","transferFrom(address,address,uint256)":"23b872dd","withdraw(uint256)":"2e1a7d4d"},"id":11}