{"abi":[{"type":"function","name":"mint","inputs":[{"name":"virtualId","type":"uint256","internalType":"uint256"},{"name":"to","type":"address","internalType":"address"},{"name":"tokenURI","type":"string","internalType":"string"},{"name":"dao","type":"address","internalType":"address"},{"name":"founder","type":"address","internalType":"address"},{"name":"cores","type":"uint8[]","internalType":"uint8[]"},{"name":"lp","type":"address","internalType":"address"},{"name":"token","type":"address","internalType":"address"}],"outputs":[],"stateMutability":"nonpayable"},{"type":"function","name":"nextVirtualId","inputs":[],"outputs":[{"name":"","type":"uint256","internalType":"uint256"}],"stateMutability":"view"},{"type":"function","name":"setTBA","inputs":[{"name":"virtualId","type":"uint256","internalType":"uint256"},{"name":"tbaAddress","type":"address","internalType":"address"}],"outputs":[],"stateMutability":"nonpayable"}],"bytecode":{"object":"0x60808060405234601a5760016000556102d490816100208239f35b600080fdfe6080604052600436101561001257600080fd5b60003560e01c80633f11354a146100a95780635faef81a1461008b5763c859b9981461003d57600080fd5b346100865760403660031901126100865761005661020a565b600435600090815260016020526040902080546001600160a01b0319166001600160a01b03909216919091179055005b600080fd5b34610086576000366003190112610086576020600054604051908152f35b3461008657610100366003190112610086576004356100c661020a565b5060443567ffffffffffffffff811161008657366023820112156100865780600401359067ffffffffffffffff82116101f45761010c601f8301601f1916602001610278565b918083523660248284010111610086576000928160246020940184830137010152610135610220565b5061013e610236565b5060a43567ffffffffffffffff811161008657366023820112156100865780600401359067ffffffffffffffff82116101f457602460208360051b93610185828601610278565b90815201928201019036821161008657602401915b8183106101da57836101aa61024c565b506101b3610262565b50600181018091116101c457600055005b634e487b7160e01b600052601160045260246000fd5b823560ff811681036100865781526020928301920161019a565b634e487b7160e01b600052604160045260246000fd5b602435906001600160a01b038216820361008657565b606435906001600160a01b038216820361008657565b608435906001600160a01b038216820361008657565b60c435906001600160a01b038216820361008657565b60e435906001600160a01b038216820361008657565b6040519190601f01601f1916820167ffffffffffffffff8111838210176101f45760405256fea2646970667358221220079f1b36a346bfbb80b810f7da16478cd2a34328cd117b11632406e6c91986c364736f6c634300081a0033","linkReferences":{}},"methodIdentifiers":{"mint(uint256,address,string,address,address,uint8[],address,address)":"3f11354a","nextVirtualId()":"5faef81a","setTBA(uint256,address)":"c859b998"},"id":7}