{"abi":[{"type":"constructor","inputs":[],"stateMutability":"nonpayable"},{"type":"function","name":"DEFAULT_ADMIN_ROLE","inputs":[],"outputs":[{"name":"","type":"bytes32","internalType":"bytes32"}],"stateMutability":"view"},{"type":"function","name":"WITHDRAW_ROLE","inputs":[],"outputs":[{"name":"","type":"bytes32","internalType":"bytes32"}],"stateMutability":"view"},{"type":"function","name":"allDAOs","inputs":[{"name":"","type":"uint256","internalType":"uint256"}],"outputs":[{"name":"","type":"address","internalType":"address"}],"stateMutability":"view"},{"type":"function","name":"allTokens","inputs":[{"name":"","type":"uint256","internalType":"uint256"}],"outputs":[{"name":"","type":"address","internalType":"address"}],"stateMutability":"view"},{"type":"function","name":"allTradingTokens","inputs":[{"name":"","type":"uint256","internalType":"uint256"}],"outputs":[{"name":"","type":"address","internalType":"address"}],"stateMutability":"view"},{"type":"function","name":"applicationThreshold","inputs":[],"outputs":[{"name":"","type":"uint256","internalType":"uint256"}],"stateMutability":"view"},{"type":"function","name":"assetToken","inputs":[],"outputs":[{"name":"","type":"address","internalType":"address"}],"stateMutability":"view"},{"type":"function","name":"daoImplementation","inputs":[],"outputs":[{"name":"","type":"address","internalType":"address"}],"stateMutability":"view"},{"type":"function","name":"defaultDelegatee","inputs":[],"outputs":[{"name":"","type":"address","internalType":"address"}],"stateMutability":"view"},{"type":"function","name":"executeApplication","inputs":[{"name":"id","type":"uint256","internalType":"uint256"},{"name":"canStake","type":"bool","internalType":"bool"}],"outputs":[],"stateMutability":"nonpayable"},{"type":"function","name":"getApplication","inputs":[{"name":"proposalId","type":"uint256","internalType":"uint256"}],"outputs":[{"name":"","type":"tuple","internalType":"struct AgentFactoryV2.Application","components":[{"name":"name","type":"string","internalType":"string"},{"name":"symbol","type":"string","internalType":"string"},{"name":"tokenURI","type":"string","internalType":"string"},{"name":"status","type":"uint8","internalType":"enum AgentFactoryV2.ApplicationStatus"},{"name":"withdrawableAmount","type":"uint256","internalType":"uint256"},{"name":"proposer","type":"address","internalType":"address"},{"name":"cores","type":"uint8[]","internalType":"uint8[]"},{"name":"proposalEndBlock","type":"uint256","internalType":"uint256"},{"name":"virtualId","type":"uint256","internalType":"uint256"},{"name":"tbaSalt","type":"bytes32","internalType":"bytes32"},{"name":"tbaImplementation","type":"address","internalType":"address"},{"name":"daoVotingPeriod","type":"uint32","internalType":"uint32"},{"name":"daoThreshold","type":"uint256","internalType":"uint256"}]}],"stateMutability":"view"},{"type":"function","name":"getRoleAdmin","inputs":[{"name":"role","type":"bytes32","internalType":"bytes32"}],"outputs":[{"name":"","type":"bytes32","internalType":"bytes32"}],"stateMutability":"view"},{"type":"function","name":"gov","inputs":[],"outputs":[{"name":"","type":"address","internalType":"address"}],"stateMutability":"view"},{"type":"function","name":"grantRole","inputs":[{"name":"role","type":"bytes32","internalType":"bytes32"},{"name":"account","type":"address","internalType":"address"}],"outputs":[],"stateMutability":"nonpayable"},{"type":"function","name":"hasRole","inputs":[{"name":"role","type":"bytes32","internalType":"bytes32"},{"name":"account","type":"address","internalType":"address"}],"outputs":[{"name":"","type":"bool","internalType":"bool"}],"stateMutability":"view"},{"type":"function","name":"initialize","inputs":[{"name":"tokenImplementation_","type":"address","internalType":"address"},{"name":"veTokenImplementation_","type":"address","internalType":"address"},{"name":"daoImplementation_","type":"address","internalType":"address"},{"name":"tbaRegistry_","type":"address","internalType":"address"},{"name":"assetToken_","type":"address","internalType":"address"},{"name":"nft_","type":"address","internalType":"address"},{"name":"applicationThreshold_","type":"uint256","internalType":"uint256"},{"name":"vault_","type":"address","internalType":"address"}],"outputs":[],"stateMutability":"nonpayable"},{"type":"function","name":"maturityDuration","inputs":[],"outputs":[{"name":"","type":"uint256","internalType":"uint256"}],"stateMutability":"view"},{"type":"function","name":"nft","inputs":[],"outputs":[{"name":"","type":"address","internalType":"address"}],"stateMutability":"view"},{"type":"function","name":"pause","inputs":[],"outputs":[],"stateMutability":"nonpayable"},{"type":"function","name":"paused","inputs":[],"outputs":[{"name":"","type":"bool","internalType":"bool"}],"stateMutability":"view"},{"type":"function","name":"proposeAgent","inputs":[{"name":"name","type":"string","internalType":"string"},{"name":"symbol","type":"string","internalType":"string"},{"name":"tokenURI","type":"string","internalType":"string"},{"name":"cores","type":"uint8[]","internalType":"uint8[]"},{"name":"tbaSalt","type":"bytes32","internalType":"bytes32"},{"name":"tbaImplementation","type":"address","internalType":"address"},{"name":"daoVotingPeriod","type":"uint32","internalType":"uint32"},{"name":"daoThreshold","type":"uint256","internalType":"uint256"}],"outputs":[{"name":"","type":"uint256","internalType":"uint256"}],"stateMutability":"nonpayable"},{"type":"function","name":"renounceRole","inputs":[{"name":"role","type":"bytes32","internalType":"bytes32"},{"name":"callerConfirmation","type":"address","internalType":"address"}],"outputs":[],"stateMutability":"nonpayable"},{"type":"function","name":"revokeRole","inputs":[{"name":"role","type":"bytes32","internalType":"bytes32"},{"name":"account","type":"address","internalType":"address"}],"outputs":[],"stateMutability":"nonpayable"},{"type":"function","name":"setApplicationThreshold","inputs":[{"name":"newThreshold","type":"uint256","internalType":"uint256"}],"outputs":[],"stateMutability":"nonpayable"},{"type":"function","name":"setAssetToken","inputs":[{"name":"newToken","type":"address","internalType":"address"}],"outputs":[],"stateMutability":"nonpayable"},{"type":"function","name":"setImplementations","inputs":[{"name":"token","type":"address","internalType":"address"},{"name":"veToken","type":"address","internalType":"address"},{"name":"dao","type":"address","internalType":"address"}],"outputs":[],"stateMutability":"nonpayable"},{"type":"function","name":"setMaturityDuration","inputs":[{"name":"newDuration","type":"uint256","internalType":"uint256"}],"outputs":[],"stateMutability":"nonpayable"},{"type":"function","name":"setTokenAdmin","inputs":[{"name":"newTokenAdmin","type":"address","internalType":"address"}],"outputs":[],"stateMutability":"nonpayable"},{"type":"function","name":"setTokenSupplyParams","inputs":[{"name":"maxSupply","type":"uint256","internalType":"uint256"},{"name":"lpSupply","type":"uint256","internalType":"uint256"},{"name":"vaultSupply","type":"uint256","internalType":"uint256"},{"name":"maxTokensPerWallet","type":"uint256","internalType":"uint256"},{"name":"maxTokensPerTxn","type":"uint256","internalType":"uint256"},{"name":"botProtectionDurationInSeconds","type":"uint256","internalType":"uint256"},{"name":"vault","type":"address","internalType":"address"}],"outputs":[],"stateMutability":"nonpayable"},{"type":"function","name":"setTokenTaxParams","inputs":[{"name":"projectBuyTaxBasisPoints","type":"uint256","internalType":"uint256"},{"name":"projectSellTaxBasisPoints","type":"uint256","internalType":"uint256"},{"name":"taxSwapThresholdBasisPoints","type":"uint256","internalType":"uint256"},{"name":"projectTaxRecipient","type":"address","internalType":"address"}],"outputs":[],"stateMutability":"nonpayable"},{"type":"function","name":"setUniswapRouter","inputs":[{"name":"router","type":"address","internalType":"address"}],"outputs":[],"stateMutability":"nonpayable"},{"type":"function","name":"setVault","inputs":[{"name":"newVault","type":"address","internalType":"address"}],"outputs":[],"stateMutability":"nonpayable"},{"type":"function","name":"supportsInterface","inputs":[{"name":"interfaceId","type":"bytes4","internalType":"bytes4"}],"outputs":[{"name":"","type":"bool","internalType":"bool"}],"stateMutability":"view"},{"type":"function","name":"tbaRegistry","inputs":[],"outputs":[{"name":"","type":"address","internalType":"address"}],"stateMutability":"view"},{"type":"function","name":"tokenImplementation","inputs":[],"outputs":[{"name":"","type":"address","internalType":"address"}],"stateMutability":"view"},{"type":"function","name":"totalAgents","inputs":[],"outputs":[{"name":"","type":"uint256","internalType":"uint256"}],"stateMutability":"view"},{"type":"function","name":"unpause","inputs":[],"outputs":[],"stateMutability":"nonpayable"},{"type":"function","name":"veTokenImplementation","inputs":[],"outputs":[{"name":"","type":"address","internalType":"address"}],"stateMutability":"view"},{"type":"function","name":"withdraw","inputs":[{"name":"id","type":"uint256","internalType":"uint256"}],"outputs":[],"stateMutability":"nonpayable"},{"type":"event","name":"ApplicationThresholdUpdated","inputs":[{"name":"newThreshold","type":"uint256","indexed":false,"internalType":"uint256"}],"anonymous":false},{"type":"event","name":"GovUpdated","inputs":[{"name":"newGov","type":"address","indexed":false,"internalType":"address"}],"anonymous":false},{"type":"event","name":"ImplContractsUpdated","inputs":[{"name":"token","type":"address","indexed":false,"internalType":"address"},{"name":"dao","type":"address","indexed":false,"internalType":"address"}],"anonymous":false},{"type":"event","name":"Initialized","inputs":[{"name":"version","type":"uint64","indexed":false,"internalType":"uint64"}],"anonymous":false},{"type":"event","name":"NewApplication","inputs":[{"name":"id","type":"uint256","indexed":false,"internalType":"uint256"}],"anonymous":false},{"type":"event","name":"NewPersona","inputs":[{"name":"virtualId","type":"uint256","indexed":false,"internalType":"uint256"},{"name":"token","type":"address","indexed":false,"internalType":"address"},{"name":"dao","type":"address","indexed":false,"internalType":"address"},{"name":"tba","type":"address","indexed":false,"internalType":"address"},{"name":"veToken","type":"address","indexed":false,"internalType":"address"},{"name":"lp","type":"address","indexed":false,"internalType":"address"}],"anonymous":false},{"type":"event","name":"Paused","inputs":[{"name":"account","type":"address","indexed":false,"internalType":"address"}],"anonymous":false},{"type":"event","name":"RoleAdminChanged","inputs":[{"name":"role","type":"bytes32","indexed":true,"internalType":"bytes32"},{"name":"previousAdminRole","type":"bytes32","indexed":true,"internalType":"bytes32"},{"name":"newAdminRole","type":"bytes32","indexed":true,"internalType":"bytes32"}],"anonymous":false},{"type":"event","name":"RoleGranted","inputs":[{"name":"role","type":"bytes32","indexed":true,"internalType":"bytes32"},{"name":"account","type":"address","indexed":true,"internalType":"address"},{"name":"sender","type":"address","indexed":true,"internalType":"address"}],"anonymous":false},{"type":"event","name":"RoleRevoked","inputs":[{"name":"role","type":"bytes32","indexed":true,"internalType":"bytes32"},{"name":"account","type":"address","indexed":true,"internalType":"address"},{"name":"sender","type":"address","indexed":true,"internalType":"address"}],"anonymous":false},{"type":"event","name":"Unpaused","inputs":[{"name":"account","type":"address","indexed":false,"internalType":"address"}],"anonymous":false},{"type":"error","name":"AccessControlBadConfirmation","inputs":[]},{"type":"error","name":"AccessControlUnauthorizedAccount","inputs":[{"name":"account","type":"address","internalType":"address"},{"name":"neededRole","type":"bytes32","internalType":"bytes32"}]},{"type":"error","name":"AddressEmptyCode","inputs":[{"name":"target","type":"address","internalType":"address"}]},{"type":"error","name":"AddressInsufficientBalance","inputs":[{"name":"account","type":"address","internalType":"address"}]},{"type":"error","name":"ERC1167FailedCreateClone","inputs":[]},{"type":"error","name":"EnforcedPause","inputs":[]},{"type":"error","name":"ExpectedPause","inputs":[]},{"type":"error","name":"FailedInnerCall","inputs":[]},{"type":"error","name":"InvalidInitialization","inputs":[]},{"type":"error","name":"NotInitializing","inputs":[]},{"type":"error","name":"SafeERC20FailedOperation","inputs":[{"name":"token","type":"address","internalType":"address"}]}],"bytecode":{"object":"0x6080806040523460d2577ff0c57e16840df040f15088dc2f81fe391c3923bec73e23a9662efc9c229c6a005460ff8160401c1660c1576002600160401b03196001600160401b03821601605c575b604051613caa90816100d88239f35b6001600160401b0319166001600160401b039081177ff0c57e16840df040f15088dc2f81fe391c3923bec73e23a9662efc9c229c6a005581527fc7f505b2f371ae2175ee4913f4499e1f2633a7b5936321eed1cdaeb6115181d290602090a13880604d565b63f92ee8a960e01b60005260046000fd5b600080fdfe608080604052600436101561001357600080fd5b600090813560e01c90816301ffc9a7146133c457508063063513b7146133a65780630c4cb55c1461337d5780631083f7611461335457806312d43a511461332b5780631f2f4bfd14612aea578063248a9ca314612ab457806326bde5aa14612a745780632a7d4a1f146128d45780632e1a7d4d146127455780632f2ff15d146127045780632f3a3d5d146126db57806336568abe146126965780633f4ba83a14612614578063468d198d146125eb57806347ccca02146125c25780635c975abb146125925780635ca3cedf146123f1578063634282af1461238b5780636817031b1461234b5780638456cb59146122d65780638e659c081461205a57806391d14854146120125780639300d23814611f9d5780639cbe0bac14611f745780639d69932614611f4b5780639e4ec30a146116f9578063a217fddf146116dd578063aa3d000a14610470578063b4136bd814610403578063bd1cf258146103b5578063bea9849e14610375578063c505371214610357578063d547741f1461030d578063d739ac29146102ea578063ddf44275146102cc578063e02023a114610291578063e887b1cc146102105763f7457594146101ce57600080fd5b3461020d57602036600319011261020d576101e761345a565b6101ef613830565b60018060a01b03166001600160601b0360a01b601254161760125580f35b80fd5b503461020d57602036600319011261020d5760043590600e5482101561020d57600e5482101561027d57600e81527fbb7b4a454dc3493923482f07822329ed19e8244eff582cc204f8554c3620c3fd9091015460405160039290921b1c6001600160a01b03168152602090f35b634e487b7160e01b81526032600452602490fd5b503461020d578060031936011261020d5760206040517f5d8e12c39142ff96d79d04d15d1ba1269e4fe57bb9d26f43523628b34ba108ec8152f35b503461020d578060031936011261020d576020600654604051908152f35b503461020d57602036600319011261020d57610304613830565b600435600a5580f35b503461020d57604036600319011261020d5761035360043561032d613470565b9061034e61034982600052600060205260016040600020015490565b613883565b6139fb565b5080f35b503461020d578060031936011261020d576020600754604051908152f35b503461020d57602036600319011261020d5761038f61345a565b610397613830565b60018060a01b03166001600160601b0360a01b600f541617600f5580f35b503461020d57602036600319011261020d577fcfa33021ab0175831433b2f3bd8eeb24a22f5ae53ca0e660a246811754f9e34a60206004356103f5613830565b80600655604051908152a180f35b503461020d57602036600319011261020d576004359060085482101561020d5760085482101561027d57600881527ff3f7a9fe364faab93b216da50a3214154f22a0a2b415b23a84c8169e8b636ee39091015460405160039290921b1c6001600160a01b03168152602090f35b503461020d57604036600319011261020d5760043560243590811515809203610de557600d546104a660ff8260a01c16156136d2565b60ff60a01b1916600160a01b17600d55808352600b6020526040832060039081015460ff16908110156116c9576104dd901561374a565b6012546001600160a01b03161561168e578252600b602052604082206005810180546001600160a01b03163314801561164f575b61051a9061370f565b6004820190848254925560038301600160ff198254161790556001830190604051946105518661054a81886135fc565b0387613528565b6040519361056a8561056381876135fc565b0386613528565b60025461057f906001600160a01b0316613b6c565b6040516001600160a01b038216989196909190606083016001600160401b0381118482101761163b579161060d61061b926105fb9460405260018060a01b0360125416865260018060a01b03600f5416602087015260018060a01b03600954166040870152604051948593604060208601526060850190613419565b838103601f1901604085015290613419565b03601f198101835282613528565b883b156114f657604051634258efa960e11b8152918a91839183600484015b600382106116165750505061065a9060c0606484015260c4830190613419565b8181036003190160848301526014548391610674826135c2565b80825291600181169081156115f75750600114611599575b50508181036003190160a483015260155483916106a8826135c2565b918282528460018216918260001461157b57505060011461151d575b505081900381838c5af180156114fe57611509575b50600e54600160401b811015611397578060016106fb9201600e55600e6134c8565b81546001600160a01b0360039290921b91821b19169089901b17905560405163d6efd7c360e01b815288816004818b5afa9081156114fe57899161145a575b508051156114465760209081015160095460405163a9059cbb60e01b81526001600160a01b039889166004820152602481019490945290871696839160449183918d91165af1801561143b5761141e575b50853b15610dd657604051631672aef960e21b815230600482015287908181602481838c5af18015610dda57611409575b5050610812906108206040519466029ba30b5b2b2160cd1b60208701526107f8866107ea602782018b6137c2565b03601f198101885287613528565b604051938491607360f81b602084015260218301906137c2565b03601f198101845283613528565b82546010546001600160a01b03918216919061083d908216613b6c565b1694600a544201918242116113f5576004548b95946001600160a01b0390911693929190883b15610dd6578694610894946108a6604051988997889763b2193b4d60e01b895260e060048a015260e4890190613419565b87810360031901602489015290613419565b9360448601528b6064860152608485015260a484015260c4830152038183885af18015610dda576113dc575b5050600754600160401b8110156113c8578060016108f5920160075560076134c8565b81546001600160a01b0360039290921b91821b19169084901b1790556040519461094160048761092860208201896137c2565b632044414f60e01b815203601b19810189520187613528565b600a85018054600b87015460035460a09290921c63ffffffff16989294928a926001600160a01b0390610975908216613b6c565b169960018060a01b0360045416918b3b156113c45784926109b3926040519586948594631c63df3560e21b865260a0600487015260a4860190613419565b928c60248601526044850152606484015260848301520381838d5af18015610dda576113ab575b5050600854600160401b811015611397578060016109fd920160085560086134c8565b81546001600160a01b0360039290921b82811b19909116908a901b1790915560048054604051632fd77c0d60e11b815298921690602090899081845afa97881561138c578a98611358575b50600d548354604051631f889aa560e11b8152600481018b90526001600160a01b03928316602482015261010060448201528c9594939092909160068501918b918e9116610a9d6101048701600289016135fc565b91606487015260848601526003198582030160a4860152602083549182815201928852602088209088915b81601f8401106111a65786946020969486948c9486945491818110611194575b81811061117e575b818110611168575b818110611152575b81811061113e575b818110611128575b818110611112575b8181106110fc575b8181106110e6575b8181106110d0575b8181106110ba575b8181106110a4575b81811061108e575b818110611078575b818110611062575b81811061104c575b818110611036575b818110611020575b81811061100a575b818110610ff4575b818110610fde575b818110610fc8575b818110610fb2575b818110610f9c575b818110610f86575b818110610f70575b818110610f5a575b818110610f44575b818110610f2e575b818110610f18575b818110610f02575b10610ef3575b5060c48301528b60e483015203925af18015610ee857610eb2575b5060088101889055600554945460099091015460048054604051638a54c52f60e01b81526001600160a01b0394851692810192909252602482019290925246604482015290821660648201526084810189905294602091869160a49183918791165af1938415610dda578294610e76575b506004546001600160a01b031693843b15610de55782809160446040518094819363190b373360e31b83528d600484015260018060a01b0316998a60248401525af1908115610e25578391610e5d575b505060405163095ea7b360e01b8152600481018690526000196024820152602081604481868b5af18015610e2557610e30575b506040516370a0823160e01b8152306004820152906020826024818a5afa918215610e25578392610de9575b50546001600160a01b0316853b15610de5576040519163a7d545db60e01b835260048301528060248301526044820152818160648183895af18015610dda57610db7575b50937ff9d151d23a5253296eb20ab40959cf48828ea2732d337416716e302ed83ca6589360c093888894604051958652602086015260408501526060840152608083015260a0820152a1600d805460ff60a01b1916905580f35b81610dc791979695949397613528565b610dd657909192938638610d5d565b8680fd5b6040513d84823e3d90fd5b8280fd5b925090506020823d602011610e1d575b81610e0660209383613528565b81010312610e18578891519038610d19565b600080fd5b3d9150610df9565b6040513d85823e3d90fd5b610e519060203d602011610e56575b610e498183613528565b8101906137aa565b610ced565b503d610e3f565b81610e6791613528565b610e72578138610cba565b5080fd5b9093506020813d602011610eaa575b81610e9260209383613528565b81010312610e7257610ea390613796565b9238610c6a565b3d9150610e85565b9092506020813d602011610ee0575b81610ece60209383613528565b81010312610e18575088916020610bf9565b3d9150610ec1565b6040513d86823e3d90fd5b60f81c82529087019038610bde565b938a60019160ff8560f01c168152019401610bd8565b938a60019160ff8560e81c168152019401610bd0565b938a60019160ff8560e01c168152019401610bc8565b938a60019160ff8560d81c168152019401610bc0565b938a60019160ff8560d01c168152019401610bb8565b938a60019160ff8560c81c168152019401610bb0565b938a60019160ff8560c01c168152019401610ba8565b938a60019160ff8560b81c168152019401610ba0565b938a60019160ff8560b01c168152019401610b98565b938a60019160ff8560a81c168152019401610b90565b938a60019160ff8560a01c168152019401610b88565b938a60019160ff8560981c168152019401610b80565b938a60019160ff8560901c168152019401610b78565b938a60019160ff8560881c168152019401610b70565b938a60019160ff8560801c168152019401610b68565b938a60019160ff8560781c168152019401610b60565b938a60019160ff8560701c168152019401610b58565b938a60019160ff8560681c168152019401610b50565b938a60019160ff8560601c168152019401610b48565b938a60019160ff8560581c168152019401610b40565b938a60019160ff8560501c168152019401610b38565b938a60019160ff8560481c168152019401610b30565b938a60019160ff8560401c168152019401610b28565b938a60019160ff8560381c168152019401610b20565b938a60019160ff8560301c168152019401610b18565b938a60019160ff8560281c168152019401610b10565b828b1c60ff168552938a0193600101610b08565b938a60019160ff8560181c168152019401610b00565b938a60019160ff8560101c168152019401610af8565b938a60019160ff8560081c168152019401610af0565b60ff83168552938a0193600101610ae8565b9495969798509150916001610400602092865460ff8116825260ff8160081c168583015260ff8160101c16604083015260ff8160181c16606083015260ff81861c16608083015260ff8160281c1660a083015260ff8160301c1660c083015260ff8160381c1660e083015260ff8160401c1661010083015260ff8160481c1661012083015260ff8160501c1661014083015260ff8160581c1661016083015260ff8160601c1661018083015260ff8160681c166101a083015260ff8160701c166101c083015260ff8160781c166101e083015260ff8160801c1661020083015260ff8160881c1661022083015260ff8160901c1661024083015260ff8160981c1661026083015260ff8160a01c1661028083015260ff8160a81c166102a083015260ff8160b01c166102c083015260ff8160b81c166102e083015260ff8160c01c1661030083015260ff8160c81c1661032083015260ff8160d01c1661034083015260ff8160d81c1661036083015260ff8160e01c1661038083015260ff8160e81c166103a083015260ff8160f01c166103c083015260f81c6103e082015201940192018b918f989796959493610ac8565b9097506020813d602011611384575b8161137460209383613528565b81010312610e1857519638610a48565b3d9150611367565b6040513d8c823e3d90fd5b634e487b7160e01b89526041600452602489fd5b816113b591613528565b6113c05787386109da565b8780fd5b8480fd5b634e487b7160e01b87526041600452602487fd5b816113e691613528565b6113f15785386108d2565b8580fd5b634e487b7160e01b8b52601160045260248bfd5b8161141391613528565b610dd65786386107bc565b6114369060203d602011610e5657610e498183613528565b61078b565b6040513d8a823e3d90fd5b634e487b7160e01b89526032600452602489fd5b90503d808a833e61146b8183613528565b8101906020818303126114f6578051906001600160401b0382116114fa57019080601f830112156114f65781516114a1816135ab565b926114af6040519485613528565b81845260208085019260051b8201019283116114f257602001905b8282106114da575050503861073a565b602080916114e784613796565b8152019101906114ca565b8b80fd5b8980fd5b8a80fd5b6040513d8b823e3d90fd5b8861151691999299613528565b96386106d9565b60158552849250907f55f448fdea98c4d29eb340757ef0a66cd03dbb9538908a6a81d96026b71ec4755b81841061155b5750500160200181386106c4565b60019195506020929450805483858701015201910190918c938593611547565b909450602093915060ff191683830152151560051b010190386106c4565b60148552849250907fce6d7b5282bd9a3661ae061feed1dbda4e52ab073b1f9285be6e155d9c38d4ec5b8184106115d757505001602001388061068c565b60019195506020929450805483858701015201910190918c9385936115c3565b90506020935060ff929192191683830152151560051b0101388061068c565b82516001600160a01b031681528e95508694506020928301926001909201910161063a565b634e487b7160e01b8c52604160045260248cfd5b507f5d8e12c39142ff96d79d04d15d1ba1269e4fe57bb9d26f43523628b34ba108ec84526020848152604080862033875290915284205460ff16610511565b60405162461bcd60e51b8152602060048201526013602482015272151bdad95b8818591b5a5b881b9bdd081cd95d606a1b6044820152606490fd5b634e487b7160e01b84526021600452602484fd5b503461020d578060031936011261020d57602090604051908152f35b503461020d5761010036600319011261020d576004356001600160401b038111610e725761172b903690600401613564565b6024356001600160401b038111610de55761174a903690600401613564565b6044356001600160401b038111611f4757611769903690600401613564565b916064356001600160401b0381116113c457366023820112156113c4578060040135611794816135ab565b916117a26040519384613528565b8183526024602084019260051b820101903682116113c057602401915b818310611f2d575050506117d16134b2565b60c4359163ffffffff8316809303610dd6576117eb613a7d565b6009546040516370a0823160e01b81523360048201526001600160a01b0390911690602081602481855afa9081156114fe578991611ef7575b50600654809110611eb257604051636eb1769f60e11b8152336004820152306024820152602081604481865afa801561138c5782918b91611e7d575b5010611e2d57825115611def576118a791604051916323b872dd60e01b60208401523360248401523060448401526064830152606482526118a2608483613528565b613aa7565b600154956000198714611ddb576001870160015560065490604051956118cc876134f6565b865260208601968752604086015287606086015260808501523360a085015260c08401524360e08401528561010084015260843561012084015260018060a01b031661014083015261016082015260e435610180820152828452600b602052604084209181518051906001600160401b0382116113c8576119578261195187546135c2565b87613696565b602090601f8311600114611d78576119879291889183611c8d575b50508160011b916000199060031b1c19161790565b83555b518051906001600160401b038211611d64576119b6826119ad60018701546135c2565b60018701613696565b602090601f8311600114611cfb576119e59291879183611c8d5750508160011b916000199060031b1c19161790565b60018301555b6002820160408201518051906001600160401b0382116113c857611a1982611a1385546135c2565b85613696565b602090601f8311600114611c9857611a489291889183611c8d5750508160011b916000199060031b1c19161790565b90555b6003820160608201516003811015611c7957815460ff191660ff919091161790556080810151600483015560a08101516005830180546001600160a01b039092166001600160a01b031990921691909117905560c0810151805160068401916001600160401b0382116113c857600160401b82116113c8576020908354838555808410611c2d575b500191865260208620908060051c92875b848110611bee5750601f1982169091039081611b9d575b60e0850151600787015561010085015160088701556101208501516009870155610140850151600a8701805461016088015163ffffffff60a01b60a09190911b166001600160a01b039093166001600160c01b031990911617919091179055610180850151600b87015560405187815260209088907f0ff47c4a3dc48719ecfd1876116e80d7d76ec7cb67248ae49449f9104747af29908390a1604051908152f35b90875b818110611bbe575050500193909355602092610180600b3880611afb565b9091976020611be46001928460ff8d5116919060ff809160031b9316831b921b19161790565b9901929101611ba0565b88895b60208110611c06575084820155600101611ae4565b835190939160019160209160ff600388901b81811b199092169216901b1792019301611bf1565b611c5790858a52838a20601f80870160051c82019281881680611c5d575b500160051c019061367f565b38611ad3565b600019850190815490600019908a0360031b1c16905538611c4b565b634e487b7160e01b86526021600452602486fd5b015190503880611972565b8388528188209190601f198416895b818110611ce35750908460019594939210611cca575b505050811b019055611a4b565b015160001960f88460031b161c19169055388080611cbd565b92936020600181928786015181550195019301611ca7565b6001850187528187209190601f198416885b818110611d4c5750908460019594939210611d33575b505050811b0160018301556119eb565b015160001960f88460031b161c19169055388080611d23565b92936020600181928786015181550195019301611d0d565b634e487b7160e01b86526041600452602486fd5b8588528188209190601f198416895b818110611dc35750908460019594939210611daa575b505050811b01835561198a565b015160001960f88460031b161c19169055388080611d9d565b92936020600181928786015181550195019301611d87565b634e487b7160e01b88526011600452602488fd5b60405162461bcd60e51b815260206004820152601660248201527510dbdc995cc81b5d5cdd081899481c1c9bdd9a59195960521b6044820152606490fd5b60405162461bcd60e51b815260206004820152602260248201527f496e73756666696369656e7420617373657420746f6b656e20616c6c6f77616e604482015261636560f01b6064820152608490fd5b9150506020813d602011611eaa575b81611e9960209383613528565b810103126114f65781905138611860565b3d9150611e8c565b60405162461bcd60e51b815260206004820152601860248201527f496e73756666696369656e7420617373657420746f6b656e00000000000000006044820152606490fd5b90506020813d602011611f25575b81611f1260209383613528565b81010312611f21575138611824565b8880fd5b3d9150611f05565b823560ff81168103611f21578152602092830192016117bf565b8380fd5b503461020d578060031936011261020d576003546040516001600160a01b039091168152602090f35b503461020d578060031936011261020d576010546040516001600160a01b039091168152602090f35b503461020d57606036600319011261020d57611fb761345a565b611fbf613470565b90611fc861349c565b90611fd1613830565b600280546001600160a01b03199081166001600160a01b03938416179091556003805482169383169390931790925560108054909216921691909117905580f35b503461020d57604036600319011261020d5760ff6040602092612033613470565b60043582528185528282206001600160a01b03909116825284522054604051911615158152f35b503461020d5761010036600319011261020d5761207561345a565b61207d613470565b61208561349c565b61208d613486565b6084356001600160a01b038116908190036113f1576120aa6134b2565b9260e4359460018060a01b0386168096036113c057600080516020613c55833981519152549660ff8860401c1615976001600160401b038116801590816122ce575b60011490816122c4575b1590816122bb575b506122ac5767ffffffffffffffff198116600117600080516020613c55833981519152558861227f575b50612131613b3e565b612139613b3e565b60ff19600080516020613c358339815191525416600080516020613c358339815191525560018060a01b03166001600160601b0360a01b600254161760025560018060a01b03166001600160601b0360a01b601054161760105560018060a01b03166001600160601b0360a01b60035416176003556001600160601b0360a01b600954161760095560018060a01b03166001600160601b0360a01b600554161760055560018060a01b03166001600160601b0360a01b600454161760045560c4356006556001805561220a336138be565b506001600160601b0360a01b600d541617600d556122255780f35b68ff000000000000000019600080516020613c558339815191525416600080516020613c55833981519152557fc7f505b2f371ae2175ee4913f4499e1f2633a7b5936321eed1cdaeb6115181d2602060405160018152a180f35b68ffffffffffffffffff19166801000000000000000117600080516020613c558339815191525538612128565b63f92ee8a960e01b8a5260048afd5b905015386120fe565b303b1591506120f6565b8a91506120ec565b503461020d578060031936011261020d576122ef613830565b6122f7613a7d565b600160ff19600080516020613c35833981519152541617600080516020613c35833981519152557f62e78cea01bee320cd4e420270b5ea74000d11b0c9f74754ebdbfc544b05a2586020604051338152a180f35b503461020d57602036600319011261020d5761236561345a565b61236d613830565b60018060a01b03166001600160601b0360a01b600d541617600d5580f35b503461020d57602036600319011261020d576004359060075482101561020d5760075482101561027d57600790527fa66cc928b5edb82af9bd49922954155ab7b0942694bea4ce44661d9a8736c68801546040516001600160a01b039091168152602090f35b503461020d57608036600319011261020d5761240b613486565b90612414613830565b6040519160043560208401526024356040840152604435606084015260018060a01b031660808301526080825261244c60a083613528565b81516001600160401b03811161257e576124676015546135c2565b601f8111612525575b50602092601f82116001146124a757829382916124a19492611c8d5750508160011b916000199060031b1c19161790565b60155580f35b60158352601f198216937f55f448fdea98c4d29eb340757ef0a66cd03dbb9538908a6a81d96026b71ec47591845b86811061250d57508360019596106124f4575b505050811b0160155580f35b015160001960f88460031b161c191690553880806124e8565b919260206001819286850151815501940192016124d5565b6015835261256e907f55f448fdea98c4d29eb340757ef0a66cd03dbb9538908a6a81d96026b71ec475601f840160051c81019160208510612574575b601f0160051c019061367f565b38612470565b9091508190612561565b634e487b7160e01b82526041600452602482fd5b503461020d578060031936011261020d57602060ff600080516020613c3583398151915254166040519015158152f35b503461020d578060031936011261020d576004546040516001600160a01b039091168152602090f35b503461020d578060031936011261020d576005546040516001600160a01b039091168152602090f35b503461020d578060031936011261020d5761262d613830565b600080516020613c358339815191525460ff8116156126875760ff1916600080516020613c35833981519152557f5db9ee0a495bf2e6ff9c91a7834c1ba4fdd244a5e8aa4e537bd38aeae4b073aa6020604051338152a180f35b638dfc202b60e01b8252600482fd5b503461020d57604036600319011261020d576126b0613470565b336001600160a01b038216036126cc57610353906004356139fb565b63334bd91960e11b8252600482fd5b503461020d578060031936011261020d576002546040516001600160a01b039091168152602090f35b503461020d57604036600319011261020d57610353600435612724613470565b9061274061034982600052600060205260016040600020015490565b613970565b503461020d57602036600319011261020d57600d5461276a60ff8260a01c16156136d2565b60ff60a01b1916600160a01b17600d556004358152600b60205260408120600581018054336001600160a01b0391909116148015612895575b6127ac9061370f565b600382019060ff8254166003811015612881576127c9901561374a565b600783015443111561283c57600492909201805490849055815460ff1916600217909155600954915460405163a9059cbb60e01b60208201526001600160a01b039182166024820152604481019290925261282c92166118a28260648101610812565b600d805460ff60a01b1916905580f35b60405162461bcd60e51b815260206004820152601e60248201527f4170706c69636174696f6e206973206e6f74206d6174757265642079657400006044820152606490fd5b634e487b7160e01b85526021600452602485fd5b507f5d8e12c39142ff96d79d04d15d1ba1269e4fe57bb9d26f43523628b34ba108ec83526020838152604080852033865290915283205460ff166127a3565b503461020d5760e036600319011261020d5760c4356001600160a01b038116919082900361020d57612904613830565b60405191600435602084015260243560408401526044356060840152606435608084015260843560a084015260a43560c084015260e083015260e0825261294d61010083613528565b81516001600160401b03811161257e576129686014546135c2565b601f8111612a26575b50602092601f82116001146129a857829382916129a29492611c8d5750508160011b916000199060031b1c19161790565b60145580f35b60148352601f198216937fce6d7b5282bd9a3661ae061feed1dbda4e52ab073b1f9285be6e155d9c38d4ec91845b868110612a0e57508360019596106129f5575b505050811b0160145580f35b015160001960f88460031b161c191690553880806129e9565b919260206001819286850151815501940192016129d6565b60148352612a6e907fce6d7b5282bd9a3661ae061feed1dbda4e52ab073b1f9285be6e155d9c38d4ec601f840160051c8101916020851061257457601f0160051c019061367f565b38612971565b503461020d57602036600319011261020d57612a8e61345a565b612a96613830565b60018060a01b03166001600160601b0360a01b600954161760095580f35b503461020d57602036600319011261020d576020612ae2600435600052600060205260016040600020015490565b604051908152f35b503461020d57602036600319011261020d5780610180604051612b0c816134f6565b6060815260606020820152606060408201528260608201528260808201528260a0820152606060c08201528260e08201528261010082015282610120820152826101408201528261016082015201526004358152600b602052604081209060405190612b77826134f6565b604051612b8f81612b8881876135fc565b0382613528565b8252604051612ba581612b8881600188016135fc565b6020830190815260405193612bc18561056381600285016135fc565b6040840194855260ff6003820154166060850190600381101561288157815260048201546080860190815260058301546001600160a01b031660a087019081526040516006850180548083529088526020808920949593949293928492918301918a915b81601f84011061318357549181811061316f575b818110613158575b818110613141575b81811061312a575b818110613114575b8181106130fd575b8181106130e6575b8181106130cf575b8181106130b8575b8181106130a1575b81811061308a575b818110613073575b81811061305c575b818110613045575b81811061302e575b818110613017575b818110613000575b818110612fe9575b818110612fd2575b818110612fbb575b818110612fa4575b818110612f8d575b818110612f76575b818110612f5f575b818110612f48575b818110612f31575b818110612f1a575b818110612f03575b818110612eec575b818110612ed5575b818110612ebe575b10612eb0575b5003612d3b9083613528565b60c0880191825260078501549160e089019283526008860154936101008a019485526009870154956101208b01968752600a8801549b6101408c01988d600160a01b60019003168a526101608d01809e60a01c63ffffffff169052600b0154996101808d019a8b526040519c60208e52518d602081016101a090526101c001612dc391613419565b90518d8203601f190160408f0152612ddb9190613419565b90518c8203601f190160608e0152612df39190613419565b93516003811015612e9c5760808c01525160a08b0152516001600160a01b031660c08a015251888203601f190160e08a0152805180835260209283019892909101915b818110612e835750509051610100880152505161012086015251610140850152516001600160a01b0316610160840152925163ffffffff1661018083015291516101a08201529081900390f35b825160ff16895260209889019890920191600101612e36565b634e487b7160e01b8b52602160045260248bfd5b60f81c815260200138612d2f565b92602060019160ff8560f01c168152019301612d29565b92602060019160ff8560e81c168152019301612d21565b92602060019160ff8560e01c168152019301612d19565b92602060019160ff8560d81c168152019301612d11565b92602060019160ff8560d01c168152019301612d09565b92602060019160ff8560c81c168152019301612d01565b92602060019160ff8560c01c168152019301612cf9565b92602060019160ff8560b81c168152019301612cf1565b92602060019160ff8560b01c168152019301612ce9565b92602060019160ff8560a81c168152019301612ce1565b92602060019160ff8560a01c168152019301612cd9565b92602060019160ff8560981c168152019301612cd1565b92602060019160ff8560901c168152019301612cc9565b92602060019160ff8560881c168152019301612cc1565b92602060019160ff8560801c168152019301612cb9565b92602060019160ff8560781c168152019301612cb1565b92602060019160ff8560701c168152019301612ca9565b92602060019160ff8560681c168152019301612ca1565b92602060019160ff8560601c168152019301612c99565b92602060019160ff8560581c168152019301612c91565b92602060019160ff8560501c168152019301612c89565b92602060019160ff8560481c168152019301612c81565b92602060019160ff8560401c168152019301612c79565b92602060019160ff8560381c168152019301612c71565b92602060019160ff8560301c168152019301612c69565b92602060019160ff8560281c168152019301612c61565b92602060019160ff85831c168152019301612c59565b92602060019160ff8560181c168152019301612c51565b92602060019160ff8560101c168152019301612c49565b92602060019160ff8560081c168152019301612c41565b92602060019160ff85168152019301612c39565b935090916001610400602092865460ff8116825260ff8160081c168583015260ff8160101c16604083015260ff8160181c16606083015260ff81861c16608083015260ff8160281c1660a083015260ff8160301c1660c083015260ff8160381c1660e083015260ff8160401c1661010083015260ff8160481c1661012083015260ff8160501c1661014083015260ff8160581c1661016083015260ff8160601c1661018083015260ff8160681c166101a083015260ff8160701c166101c083015260ff8160781c166101e083015260ff8160801c1661020083015260ff8160881c1661022083015260ff8160901c1661024083015260ff8160981c1661026083015260ff8160a01c1661028083015260ff8160a81c166102a083015260ff8160b01c166102c083015260ff8160b81c166102e083015260ff8160c01c1661030083015260ff8160c81c1661032083015260ff8160d01c1661034083015260ff8160d81c1661036083015260ff8160e01c1661038083015260ff8160e81c166103a083015260ff8160f01c166103c083015260f81c6103e0820152019401920190859392612c25565b503461020d578060031936011261020d57600c546040516001600160a01b039091168152602090f35b503461020d578060031936011261020d576009546040516001600160a01b039091168152602090f35b503461020d578060031936011261020d576013546040516001600160a01b039091168152602090f35b503461020d578060031936011261020d576020600a54604051908152f35b905034610e72576020366003190112610e725760043563ffffffff60e01b8116809103610de55760209250637965db0b60e01b8114908115613408575b5015158152f35b6301ffc9a760e01b14905038613401565b919082519283825260005b848110613445575050826000602080949584010152601f8019910116010190565b80602080928401015182828601015201613424565b600435906001600160a01b0382168203610e1857565b602435906001600160a01b0382168203610e1857565b606435906001600160a01b0382168203610e1857565b604435906001600160a01b0382168203610e1857565b60a435906001600160a01b0382168203610e1857565b80548210156134e05760005260206000200190600090565b634e487b7160e01b600052603260045260246000fd5b6101a081019081106001600160401b0382111761351257604052565b634e487b7160e01b600052604160045260246000fd5b90601f801991011681019081106001600160401b0382111761351257604052565b6001600160401b03811161351257601f01601f191660200190565b81601f82011215610e185780359061357b82613549565b926135896040519485613528565b82845260208383010111610e1857816000926020809301838601378301015290565b6001600160401b0381116135125760051b60200190565b90600182811c921680156135f2575b60208310146135dc57565b634e487b7160e01b600052602260045260246000fd5b91607f16916135d1565b6000929181549161360c836135c2565b8083529260018116908115613662575060011461362857505050565b60009081526020812093945091925b838310613648575060209250010190565b600181602092949394548385870101520191019190613637565b915050602093945060ff929192191683830152151560051b010190565b81811061368a575050565b6000815560010161367f565b9190601f81116136a557505050565b6136d0926000526020600020906020601f840160051c8301931061257457601f0160051c019061367f565b565b156136d957565b60405162461bcd60e51b815260206004820152600e60248201526d31b0b73737ba103932b2b73a32b960911b6044820152606490fd5b1561371657565b60405162461bcd60e51b815260206004820152600c60248201526b2737ba10383937b837b9b2b960a11b6044820152606490fd5b1561375157565b60405162461bcd60e51b815260206004820152601960248201527f4170706c69636174696f6e206973206e6f7420616374697665000000000000006044820152606490fd5b51906001600160a01b0382168203610e1857565b90816020910312610e1857518015158103610e185790565b600092918154916137d2836135c2565b926001811690811561381d57506001146137eb57505050565b909192935060005260206000206000905b8382106138095750500190565b6001816020925484860152019101906137fc565b60ff191683525050811515909102019150565b3360009081527fad3228b676f7d3cd4284a5443f17f1962b36e491b30a40b2405849e597ba5fb5602052604090205460ff161561386957565b63e2517d3f60e01b60005233600452600060245260446000fd5b60008181526020818152604080832033845290915290205460ff16156138a65750565b63e2517d3f60e01b6000523360045260245260446000fd5b6001600160a01b03811660009081527fad3228b676f7d3cd4284a5443f17f1962b36e491b30a40b2405849e597ba5fb5602052604090205460ff1661396a576001600160a01b031660008181527fad3228b676f7d3cd4284a5443f17f1962b36e491b30a40b2405849e597ba5fb560205260408120805460ff191660011790553391907f2f8788117e7eff1d82e926ec794901d17c78024a50270940304540a733656f0d8180a4600190565b50600090565b6000818152602081815260408083206001600160a01b038616845290915290205460ff166139f4576000818152602081815260408083206001600160a01b0395909516808452949091528120805460ff19166001179055339291907f2f8788117e7eff1d82e926ec794901d17c78024a50270940304540a733656f0d9080a4600190565b5050600090565b6000818152602081815260408083206001600160a01b038616845290915290205460ff16156139f4576000818152602081815260408083206001600160a01b0395909516808452949091528120805460ff19169055339291907ff6391f5c32d9c69d2a47ea670b442974b53935d1edc7fd64eb21e047a839171b9080a4600190565b60ff600080516020613c358339815191525416613a9657565b63d93c066560e01b60005260046000fd5b600080613af19260018060a01b03169360208151910182865af13d15613b36573d90613ad282613549565b91613ae06040519384613528565b82523d6000602084013e5b83613bd3565b8051908115159182613b1b575b5050613b075750565b635274afe760e01b60005260045260246000fd5b613b2e92506020809183010191016137aa565b153880613afe565b606090613aeb565b60ff600080516020613c558339815191525460401c1615613b5b57565b631afcd79f60e31b60005260046000fd5b6e5af43d82803e903d91602b57fd5bf390763d602d80600a3d3981f3363d3d373d3d3d363d7300000062ffffff8260881c161760005260781b17602052603760096000f0906001600160a01b03821615613bc257565b6330be1a3d60e21b60005260046000fd5b90613bf95750805115613be857805190602001fd5b630a12f52160e11b60005260046000fd5b81511580613c2b575b613c0a575090565b639996b31560e01b60009081526001600160a01b0391909116600452602490fd5b50803b15613c0256fecd5ed15c6e187e77e9aee88184c21f4f2182ab5827cb3b7e07fbedcd63f03300f0c57e16840df040f15088dc2f81fe391c3923bec73e23a9662efc9c229c6a00a264697066735822122092b008212ac2722524f9a7669c387ba7781b74cca4e829d32c5ca28fb1bd063a64736f6c634300081a0033","linkReferences":{}},"methodIdentifiers":{"DEFAULT_ADMIN_ROLE()":"a217fddf","WITHDRAW_ROLE()":"e02023a1","allDAOs(uint256)":"b4136bd8","allTokens(uint256)":"634282af","allTradingTokens(uint256)":"e887b1cc","applicationThreshold()":"ddf44275","assetToken()":"1083f761","daoImplementation()":"9d699326","defaultDelegatee()":"0c4cb55c","executeApplication(uint256,bool)":"aa3d000a","getApplication(uint256)":"1f2f4bfd","getRoleAdmin(bytes32)":"248a9ca3","gov()":"12d43a51","grantRole(bytes32,address)":"2f2ff15d","hasRole(bytes32,address)":"91d14854","initialize(address,address,address,address,address,address,uint256,address)":"8e659c08","maturityDuration()":"063513b7","nft()":"47ccca02","pause()":"8456cb59","paused()":"5c975abb","proposeAgent(string,string,string,uint8[],bytes32,address,uint32,uint256)":"9e4ec30a","renounceRole(bytes32,address)":"36568abe","revokeRole(bytes32,address)":"d547741f","setApplicationThreshold(uint256)":"bd1cf258","setAssetToken(address)":"26bde5aa","setImplementations(address,address,address)":"9300d238","setMaturityDuration(uint256)":"d739ac29","setTokenAdmin(address)":"f7457594","setTokenSupplyParams(uint256,uint256,uint256,uint256,uint256,uint256,address)":"2a7d4a1f","setTokenTaxParams(uint256,uint256,uint256,address)":"5ca3cedf","setUniswapRouter(address)":"bea9849e","setVault(address)":"6817031b","supportsInterface(bytes4)":"01ffc9a7","tbaRegistry()":"468d198d","tokenImplementation()":"2f3a3d5d","totalAgents()":"c5053712","unpause()":"3f4ba83a","veTokenImplementation()":"9cbe0bac","withdraw(uint256)":"2e1a7d4d"},"id":58}