{"abi":[{"type":"constructor","inputs":[],"stateMutability":"nonpayable"},{"type":"function","name":"DEFAULT_ADMIN_ROLE","inputs":[],"outputs":[{"name":"","type":"bytes32","internalType":"bytes32"}],"stateMutability":"view"},{"type":"function","name":"WITHDRAW_ROLE","inputs":[],"outputs":[{"name":"","type":"bytes32","internalType":"bytes32"}],"stateMutability":"view"},{"type":"function","name":"allDAOs","inputs":[{"name":"","type":"uint256","internalType":"uint256"}],"outputs":[{"name":"","type":"address","internalType":"address"}],"stateMutability":"view"},{"type":"function","name":"allTokens","inputs":[{"name":"","type":"uint256","internalType":"uint256"}],"outputs":[{"name":"","type":"address","internalType":"address"}],"stateMutability":"view"},{"type":"function","name":"allTradingTokens","inputs":[{"name":"","type":"uint256","internalType":"uint256"}],"outputs":[{"name":"","type":"address","internalType":"address"}],"stateMutability":"view"},{"type":"function","name":"applicationThreshold","inputs":[],"outputs":[{"name":"","type":"uint256","internalType":"uint256"}],"stateMutability":"view"},{"type":"function","name":"assetToken","inputs":[],"outputs":[{"name":"","type":"address","internalType":"address"}],"stateMutability":"view"},{"type":"function","name":"daoImplementation","inputs":[],"outputs":[{"name":"","type":"address","internalType":"address"}],"stateMutability":"view"},{"type":"function","name":"defaultDelegatee","inputs":[],"outputs":[{"name":"","type":"address","internalType":"address"}],"stateMutability":"view"},{"type":"function","name":"executeApplication","inputs":[{"name":"id","type":"uint256","internalType":"uint256"},{"name":"canStake","type":"bool","internalType":"bool"}],"outputs":[],"stateMutability":"nonpayable"},{"type":"function","name":"getApplication","inputs":[{"name":"proposalId","type":"uint256","internalType":"uint256"}],"outputs":[{"name":"","type":"tuple","internalType":"struct AgentFactoryV2.Application","components":[{"name":"name","type":"string","internalType":"string"},{"name":"symbol","type":"string","internalType":"string"},{"name":"tokenURI","type":"string","internalType":"string"},{"name":"status","type":"uint8","internalType":"enum AgentFactoryV2.ApplicationStatus"},{"name":"withdrawableAmount","type":"uint256","internalType":"uint256"},{"name":"proposer","type":"address","internalType":"address"},{"name":"cores","type":"uint8[]","internalType":"uint8[]"},{"name":"proposalEndBlock","type":"uint256","internalType":"uint256"},{"name":"virtualId","type":"uint256","internalType":"uint256"},{"name":"tbaSalt","type":"bytes32","internalType":"bytes32"},{"name":"tbaImplementation","type":"address","internalType":"address"},{"name":"daoVotingPeriod","type":"uint32","internalType":"uint32"},{"name":"daoThreshold","type":"uint256","internalType":"uint256"}]}],"stateMutability":"view"},{"type":"function","name":"getRoleAdmin","inputs":[{"name":"role","type":"bytes32","internalType":"bytes32"}],"outputs":[{"name":"","type":"bytes32","internalType":"bytes32"}],"stateMutability":"view"},{"type":"function","name":"gov","inputs":[],"outputs":[{"name":"","type":"address","internalType":"address"}],"stateMutability":"view"},{"type":"function","name":"grantRole","inputs":[{"name":"role","type":"bytes32","internalType":"bytes32"},{"name":"account","type":"address","internalType":"address"}],"outputs":[],"stateMutability":"nonpayable"},{"type":"function","name":"hasRole","inputs":[{"name":"role","type":"bytes32","internalType":"bytes32"},{"name":"account","type":"address","internalType":"address"}],"outputs":[{"name":"","type":"bool","internalType":"bool"}],"stateMutability":"view"},{"type":"function","name":"initialize","inputs":[{"name":"tokenImplementation_","type":"address","internalType":"address"},{"name":"veTokenImplementation_","type":"address","internalType":"address"},{"name":"daoImplementation_","type":"address","internalType":"address"},{"name":"tbaRegistry_","type":"address","internalType":"address"},{"name":"assetToken_","type":"address","internalType":"address"},{"name":"nft_","type":"address","internalType":"address"},{"name":"applicationThreshold_","type":"uint256","internalType":"uint256"},{"name":"vault_","type":"address","internalType":"address"}],"outputs":[],"stateMutability":"nonpayable"},{"type":"function","name":"maturityDuration","inputs":[],"outputs":[{"name":"","type":"uint256","internalType":"uint256"}],"stateMutability":"view"},{"type":"function","name":"nft","inputs":[],"outputs":[{"name":"","type":"address","internalType":"address"}],"stateMutability":"view"},{"type":"function","name":"pause","inputs":[],"outputs":[],"stateMutability":"nonpayable"},{"type":"function","name":"paused","inputs":[],"outputs":[{"name":"","type":"bool","internalType":"bool"}],"stateMutability":"view"},{"type":"function","name":"proposeAgent","inputs":[{"name":"name","type":"string","internalType":"string"},{"name":"symbol","type":"string","internalType":"string"},{"name":"tokenURI","type":"string","internalType":"string"},{"name":"cores","type":"uint8[]","internalType":"uint8[]"},{"name":"tbaSalt","type":"bytes32","internalType":"bytes32"},{"name":"tbaImplementation","type":"address","internalType":"address"},{"name":"daoVotingPeriod","type":"uint32","internalType":"uint32"},{"name":"daoThreshold","type":"uint256","internalType":"uint256"}],"outputs":[{"name":"","type":"uint256","internalType":"uint256"}],"stateMutability":"nonpayable"},{"type":"function","name":"renounceRole","inputs":[{"name":"role","type":"bytes32","internalType":"bytes32"},{"name":"callerConfirmation","type":"address","internalType":"address"}],"outputs":[],"stateMutability":"nonpayable"},{"type":"function","name":"revokeRole","inputs":[{"name":"role","type":"bytes32","internalType":"bytes32"},{"name":"account","type":"address","internalType":"address"}],"outputs":[],"stateMutability":"nonpayable"},{"type":"function","name":"setApplicationThreshold","inputs":[{"name":"newThreshold","type":"uint256","internalType":"uint256"}],"outputs":[],"stateMutability":"nonpayable"},{"type":"function","name":"setAssetToken","inputs":[{"name":"newToken","type":"address","internalType":"address"}],"outputs":[],"stateMutability":"nonpayable"},{"type":"function","name":"setImplementations","inputs":[{"name":"token","type":"address","internalType":"address"},{"name":"veToken","type":"address","internalType":"address"},{"name":"dao","type":"address","internalType":"address"}],"outputs":[],"stateMutability":"nonpayable"},{"type":"function","name":"setMaturityDuration","inputs":[{"name":"newDuration","type":"uint256","internalType":"uint256"}],"outputs":[],"stateMutability":"nonpayable"},{"type":"function","name":"setTokenAdmin","inputs":[{"name":"newTokenAdmin","type":"address","internalType":"address"}],"outputs":[],"stateMutability":"nonpayable"},{"type":"function","name":"setTokenSupplyParams","inputs":[{"name":"maxSupply","type":"uint256","internalType":"uint256"},{"name":"lpSupply","type":"uint256","internalType":"uint256"},{"name":"vaultSupply","type":"uint256","internalType":"uint256"},{"name":"maxTokensPerWallet","type":"uint256","internalType":"uint256"},{"name":"maxTokensPerTxn","type":"uint256","internalType":"uint256"},{"name":"botProtectionDurationInSeconds","type":"uint256","internalType":"uint256"},{"name":"vault","type":"address","internalType":"address"}],"outputs":[],"stateMutability":"nonpayable"},{"type":"function","name":"setTokenTaxParams","inputs":[{"name":"projectBuyTaxBasisPoints","type":"uint256","internalType":"uint256"},{"name":"projectSellTaxBasisPoints","type":"uint256","internalType":"uint256"},{"name":"taxSwapThresholdBasisPoints","type":"uint256","internalType":"uint256"},{"name":"projectTaxRecipient","type":"address","internalType":"address"}],"outputs":[],"stateMutability":"nonpayable"},{"type":"function","name":"setUniswapRouter","inputs":[{"name":"router","type":"address","internalType":"address"}],"outputs":[],"stateMutability":"nonpayable"},{"type":"function","name":"setVault","inputs":[{"name":"newVault","type":"address","internalType":"address"}],"outputs":[],"stateMutability":"nonpayable"},{"type":"function","name":"supportsInterface","inputs":[{"name":"interfaceId","type":"bytes4","internalType":"bytes4"}],"outputs":[{"name":"","type":"bool","internalType":"bool"}],"stateMutability":"view"},{"type":"function","name":"tbaRegistry","inputs":[],"outputs":[{"name":"","type":"address","internalType":"address"}],"stateMutability":"view"},{"type":"function","name":"tokenImplementation","inputs":[],"outputs":[{"name":"","type":"address","internalType":"address"}],"stateMutability":"view"},{"type":"function","name":"totalAgents","inputs":[],"outputs":[{"name":"","type":"uint256","internalType":"uint256"}],"stateMutability":"view"},{"type":"function","name":"unpause","inputs":[],"outputs":[],"stateMutability":"nonpayable"},{"type":"function","name":"veTokenImplementation","inputs":[],"outputs":[{"name":"","type":"address","internalType":"address"}],"stateMutability":"view"},{"type":"function","name":"withdraw","inputs":[{"name":"id","type":"uint256","internalType":"uint256"}],"outputs":[],"stateMutability":"nonpayable"},{"type":"event","name":"ApplicationThresholdUpdated","inputs":[{"name":"newThreshold","type":"uint256","indexed":false,"internalType":"uint256"}],"anonymous":false},{"type":"event","name":"GovUpdated","inputs":[{"name":"newGov","type":"address","indexed":false,"internalType":"address"}],"anonymous":false},{"type":"event","name":"ImplContractsUpdated","inputs":[{"name":"token","type":"address","indexed":false,"internalType":"address"},{"name":"dao","type":"address","indexed":false,"internalType":"address"}],"anonymous":false},{"type":"event","name":"Initialized","inputs":[{"name":"version","type":"uint64","indexed":false,"internalType":"uint64"}],"anonymous":false},{"type":"event","name":"NewApplication","inputs":[{"name":"id","type":"uint256","indexed":false,"internalType":"uint256"}],"anonymous":false},{"type":"event","name":"NewPersona","inputs":[{"name":"virtualId","type":"uint256","indexed":false,"internalType":"uint256"},{"name":"token","type":"address","indexed":false,"internalType":"address"},{"name":"dao","type":"address","indexed":false,"internalType":"address"},{"name":"tba","type":"address","indexed":false,"internalType":"address"},{"name":"veToken","type":"address","indexed":false,"internalType":"address"},{"name":"lp","type":"address","indexed":false,"internalType":"address"}],"anonymous":false},{"type":"event","name":"Paused","inputs":[{"name":"account","type":"address","indexed":false,"internalType":"address"}],"anonymous":false},{"type":"event","name":"RoleAdminChanged","inputs":[{"name":"role","type":"bytes32","indexed":true,"internalType":"bytes32"},{"name":"previousAdminRole","type":"bytes32","indexed":true,"internalType":"bytes32"},{"name":"newAdminRole","type":"bytes32","indexed":true,"internalType":"bytes32"}],"anonymous":false},{"type":"event","name":"RoleGranted","inputs":[{"name":"role","type":"bytes32","indexed":true,"internalType":"bytes32"},{"name":"account","type":"address","indexed":true,"internalType":"address"},{"name":"sender","type":"address","indexed":true,"internalType":"address"}],"anonymous":false},{"type":"event","name":"RoleRevoked","inputs":[{"name":"role","type":"bytes32","indexed":true,"internalType":"bytes32"},{"name":"account","type":"address","indexed":true,"internalType":"address"},{"name":"sender","type":"address","indexed":true,"internalType":"address"}],"anonymous":false},{"type":"event","name":"Unpaused","inputs":[{"name":"account","type":"address","indexed":false,"internalType":"address"}],"anonymous":false},{"type":"error","name":"AccessControlBadConfirmation","inputs":[]},{"type":"error","name":"AccessControlUnauthorizedAccount","inputs":[{"name":"account","type":"address","internalType":"address"},{"name":"neededRole","type":"bytes32","internalType":"bytes32"}]},{"type":"error","name":"AddressEmptyCode","inputs":[{"name":"target","type":"address","internalType":"address"}]},{"type":"error","name":"AddressInsufficientBalance","inputs":[{"name":"account","type":"address","internalType":"address"}]},{"type":"error","name":"ERC1167FailedCreateClone","inputs":[]},{"type":"error","name":"EnforcedPause","inputs":[]},{"type":"error","name":"ExpectedPause","inputs":[]},{"type":"error","name":"FailedInnerCall","inputs":[]},{"type":"error","name":"InvalidInitialization","inputs":[]},{"type":"error","name":"NotInitializing","inputs":[]},{"type":"error","name":"SafeERC20FailedOperation","inputs":[{"name":"token","type":"address","internalType":"address"}]}],"bytecode":{"object":"0x60808060405234620000bd577ff0c57e16840df040f15088dc2f81fe391c3923bec73e23a9662efc9c229c6a009081549060ff8260401c16620000ae57506001600160401b036002600160401b03198282160162000068575b604051613c499081620000c38239f35b6001600160401b031990911681179091556040519081527fc7f505b2f371ae2175ee4913f4499e1f2633a7b5936321eed1cdaeb6115181d290602090a138808062000058565b63f92ee8a960e01b8152600490fd5b600080fdfe608080604052600436101561001357600080fd5b600090813560e01c90816301ffc9a7146133a457508063063513b7146133865780630c4cb55c1461335d5780631083f7611461333457806312d43a511461330b5780631f2f4bfd14612abf578063248a9ca314612a9357806326bde5aa14612a535780632a7d4a1f1461288d5780632e1a7d4d146127015780632f2ff15d146126c45780632f3a3d5d1461269b57806336568abe146126535780633f4ba83a146125db578063468d198d146125b257806347ccca02146125895780635c975abb146125595780635ca3cedf146123b1578063634282af146123555780636817031b146123155780638456cb59146122ad5780638e659c08146120b457806391d148541461206c5780639300d238146120025780639cbe0bac14611fd95780639d69932614611fb05780639e4ec30a1461172d578063a217fddf14611711578063aa3d000a14610435578063b4136bd8146103d9578063bd1cf2581461038b578063bea9849e1461034b578063c50537121461032d578063d547741f146102ec578063d739ac29146102c9578063ddf44275146102ab578063e02023a114610270578063e887b1cc146102105763f7457594146101ce57600080fd5b3461020d57602036600319011261020d576101e7613439565b6101ef61388c565b60018060a01b03166001600160601b0360a01b601254161760125580f35b80fd5b503461020d57602036600319011261020d57600435600e5481101561026c57600e6000527fbb7b4a454dc3493923482f07822329ed19e8244eff582cc204f8554c3620c3fd01546040516001600160a01b039091168152602090f35b5080fd5b503461020d578060031936011261020d5760206040517f5d8e12c39142ff96d79d04d15d1ba1269e4fe57bb9d26f43523628b34ba108ec8152f35b503461020d578060031936011261020d576020600654604051908152f35b503461020d57602036600319011261020d576102e361388c565b600435600a5580f35b503461020d57604036600319011261020d5761032960043561030c61344f565b908084528360205261032460016040862001546138e4565b613a18565b5080f35b503461020d578060031936011261020d576020600754604051908152f35b503461020d57602036600319011261020d57610365613439565b61036d61388c565b60018060a01b03166001600160601b0360a01b600f541617600f5580f35b503461020d57602036600319011261020d577fcfa33021ab0175831433b2f3bd8eeb24a22f5ae53ca0e660a246811754f9e34a60206004356103cb61388c565b80600655604051908152a180f35b503461020d57602036600319011261020d5760043560085481101561026c5760086000527ff3f7a9fe364faab93b216da50a3214154f22a0a2b415b23a84c8169e8b636ee301546040516001600160a01b039091168152602090f35b503461020d57604036600319011261020d576024356004358115158203610e3f57600d5461046960ff8260a01c16156136ae565b60ff60a01b1916600160a01b17600d55808352600b6020526040832060039081015460ff16908110156116fd576104a09015613726565b6012546001600160a01b0316156116c2578252600b60205260408220600581019060018060a01b0382541633148015611683575b6104dd906136eb565b60048101908482549255600160ff196003830154161760038201556001810190604051946105168661050f81856135c5565b03876134f1565b60405161052e8161052781876135c5565b03826134f1565b600254610543906001600160a01b0316613a8d565b96604051918260608101106001600160401b0360608501111761166f576105b6916105c86105d6926060860160405260018060a01b0360125416865260018060a01b03600f5416602087015260018060a01b036009541660408701526040519485936040602086015260608501906133f9565b838103601f19016040850152906133f9565b03601f1981018352826134f1565b6001600160a01b0388163b1561153657604051634258efa960e11b8152918991839183600484015b6003821061164a5750505061061e9060c0606484015260c48301906133f9565b81810360031901608483015260145483916106388261358b565b808252916001811690811561162b57506001146115cd575b50508181036003190160a4830152601554839161066c8261358b565b91828252846001821691826000146115af575050600114611551575b505081900381836001600160a01b038c165af1801561146c5761153e575b50600e54600160401b8110156113df576001810180600e558110156113c957600e6000527fbb7b4a454dc3493923482f07822329ed19e8244eff582cc204f8554c3620c3fd0180546001600160a01b0319166001600160a01b03881690811790915560405163d6efd7c360e01b8152908890829060049082905afa90811561146c57889161148b575b508051156114775760209081015160095460405163a9059cbb60e01b81526001600160a01b038a81166004830152602482019890985291871696919291839160449183918d91165af1801561146c5761144d575b506001600160a01b0386163b15610e3057604051631672aef960e21b815230600482015287908181602481836001600160a01b038d165af18015610e3457611439575b505061081c9061082a6040519466029ba30b5b2b2160cd1b6020870152610802866107f4602782018861379e565b03601f1981018852876134f1565b604051938491607360f81b6020840152602183019061379e565b03601f1981018452836134f1565b85546010546001600160a01b039182169190610847908216613a8d565b1694600a54420191824211611425576004548b95946001600160a01b0390911693929190883b15610e3057869461089e946108b0604051988997889763b2193b4d60e01b895260e060048a015260e48901906133f9565b878103600319016024890152906133f9565b9360448601528b6064860152608485015260a4840152151560c4830152038183885af18015610e345761140d575b5050600754600160401b8110156113df5760018101806007558110156113c95760076000527fa66cc928b5edb82af9bd49922954155ab7b0942694bea4ce44661d9a8736c6880180546001600160a01b031916831790556040519461096560048761094c602082018661379e565b632044414f60e01b815203601b198101895201876134f1565b600a820154600b83015460035460a09290921c63ffffffff169789926001600160a01b0390610995908216613a8d565b169860018060a01b0360045416918a3b156114095784926109d3926040519586948594631c63df3560e21b865260a0600487015260a48601906133f9565b928b60248601526044850152606484015260848301520381838c5af18015610e34576113f5575b5050600854600160401b8110156113df5760018101806008558110156113c95760086000527ff3f7a9fe364faab93b216da50a3214154f22a0a2b415b23a84c8169e8b636ee30180546001600160a01b0319168717905560048054604051632fd77c0d60e11b815296916001600160a01b0390911690602090889081845afa9687156113be57899761138a575b50600d548254604051631f889aa560e11b8152600481018a90526001600160a01b03928316602482015261010060448201528b94939092909116610ad26101048401600289016135c5565b908b606485015260848401526003198382030160a48401526006870190602082549182815201918652602086209086915b81601f8401106111e9578580946020969482948b9454918181106111d7575b8181106111c1575b8181106111ab575b818110611195575b818110611181575b81811061116b575b818110611155575b81811061113f575b818110611129575b818110611113575b8181106110fd575b8181106110e7575b8181106110d1575b8181106110bb575b8181106110a5575b81811061108f575b818110611079575b818110611063575b81811061104d575b818110611037575b818110611021575b81811061100b575b818110610ff5575b818110610fdf575b818110610fc9575b818110610fb3575b818110610f9d575b818110610f87575b818110610f71575b818110610f5b575b818110610f45575b10610f38575b5060c482018e90526001600160a01b038b1660e483015203925af18015610e7f57610f09575b5060088401879055600554600a85015460099095015460048054604051638a54c52f60e01b81526001600160a01b0398891692810192909252602482019290925246604482015290861660648201526084810189905294602091869160a49183918791165af1938415610e34578294610ecd575b506004546001600160a01b0316803b15610e3f5760405163190b373360e31b8152600481018990526001600160a01b03861660248201529083908290604490829084905af1908115610e7f578391610eb9575b505060405163095ea7b360e01b8152600481018690526000196024820152602081604481868b5af18015610e7f57610e8a575b506040516370a0823160e01b8152306004820152906020826024818a5afa918215610e7f578392610e43575b50546001600160a01b0316853b15610e3f576040519163a7d545db60e01b835260048301528060248301526044820152818160648183895af18015610e3457610e12575b50937ff9d151d23a5253296eb20ab40959cf48828ea2732d337416716e302ed83ca6589360c09388889460405195865260018060a01b03166020860152604085015260018060a01b03166060840152608083015260a0820152a1600d805460ff60a01b1916905580f35b610e21909695949392966134c3565b610e3057909192938638610da8565b8680fd5b6040513d84823e3d90fd5b8280fd5b925090506020823d602011610e77575b81610e60602093836134f1565b81010312610e72578891519038610d64565b600080fd5b3d9150610e53565b6040513d85823e3d90fd5b610eab9060203d602011610eb2575b610ea381836134f1565b810190613786565b5038610d38565b503d610e99565b610ec2906134c3565b61026c578138610d05565b9093506020813d602011610f01575b81610ee9602093836134f1565b8101031261026c57610efa90613772565b9238610cb2565b3d9150610edc565b6020809293503d8311610f31575b610f2181836134f1565b81010312610e7257879038610c3e565b503d610f17565b60f81c8152860138610c18565b928960019160ff8560f01c168152019301610c12565b928960019160ff8560e81c168152019301610c0a565b928960019160ff8560e01c168152019301610c02565b928960019160ff8560d81c168152019301610bfa565b928960019160ff8560d01c168152019301610bf2565b928960019160ff8560c81c168152019301610bea565b928960019160ff8560c01c168152019301610be2565b928960019160ff8560b81c168152019301610bda565b928960019160ff8560b01c168152019301610bd2565b928960019160ff8560a81c168152019301610bca565b928960019160ff8560a01c168152019301610bc2565b928960019160ff8560981c168152019301610bba565b928960019160ff8560901c168152019301610bb2565b928960019160ff8560881c168152019301610baa565b928960019160ff8560801c168152019301610ba2565b928960019160ff8560781c168152019301610b9a565b928960019160ff8560701c168152019301610b92565b928960019160ff8560681c168152019301610b8a565b928960019160ff8560601c168152019301610b82565b928960019160ff8560581c168152019301610b7a565b928960019160ff8560501c168152019301610b72565b928960019160ff8560481c168152019301610b6a565b928960019160ff8560401c168152019301610b62565b928960019160ff8560381c168152019301610b5a565b928960019160ff8560301c168152019301610b52565b928960019160ff8560281c168152019301610b4a565b828a1c60ff16845292890192600101610b42565b928960019160ff8560181c168152019301610b3a565b928960019160ff8560101c168152019301610b32565b928960019160ff8560081c168152019301610b2a565b60ff8316845292890192600101610b22565b939495965090916001610400602092865460ff8116825260ff8160081c168583015260ff8160101c16604083015260ff8160181c16606083015260ff8160808282891c1681860152828260281c1660a0860152828260301c1660c0860152828260381c1660e0860152828260401c16610100860152828260481c16610120860152828260501c16610140860152828260581c16610160860152828260601c16610180860152828260681c166101a0860152828260701c166101c0860152828260781c166101e08601521c1661020083015260ff8160881c1661022083015260ff8160901c1661024083015260ff8160981c1661026083015260ff8160a01c1661028083015260ff8160a81c166102a083015260ff8160b01c166102c083015260ff8160b81c166102e083015260ff8160c01c1661030083015260ff8160c81c1661032083015260ff8160d01c1661034083015260ff8160d81c1661036083015260ff8160e01c1661038083015260ff8160e81c166103a083015260ff8160f01c166103c083015260f81c6103e08201520194019201908d9695949392610b03565b9096506020813d6020116113b6575b816113a6602093836134f1565b81010312610e7257519538610a87565b3d9150611399565b6040513d8b823e3d90fd5b634e487b7160e01b600052603260045260246000fd5b634e487b7160e01b600052604160045260246000fd5b6113fe906134c3565b610e305786386109fa565b8480fd5b611416906134c3565b6114215785386108de565b8580fd5b634e487b7160e01b8b52601160045260248bfd5b611442906134c3565b610e305786386107c6565b6114659060203d602011610eb257610ea381836134f1565b5038610783565b6040513d8a823e3d90fd5b634e487b7160e01b88526032600452602488fd5b90503d8089833e61149c81836134f1565b810190602081830312611536578051906001600160401b03821161153a57019080601f83011215611536578151906114d382613574565b926114e160405194856134f1565b828452602084019160208460051b83010111611532579060208201915b60208460051b820101831061151757505050503861072f565b602080809361152586613772565b81520193019291506114fe565b8a80fd5b8880fd5b8980fd5b61154a909791976134c3565b95386106a6565b60158552849250907f55f448fdea98c4d29eb340757ef0a66cd03dbb9538908a6a81d96026b71ec4755b81841061158f575050016020018138610688565b60019195506020929450805483858701015201910190918b93859361157b565b909450602093915060ff191683830152151560051b01019038610688565b60148552849250907fce6d7b5282bd9a3661ae061feed1dbda4e52ab073b1f9285be6e155d9c38d4ec5b81841061160b575050016020013880610650565b60019195506020929450805483858701015201910190918b9385936115f7565b90506020935060ff929192191683830152151560051b01013880610650565b82516001600160a01b031681528d9550869450602092830192600190920191016105fe565b634e487b7160e01b8a52604160045260248afd5b507f5d8e12c39142ff96d79d04d15d1ba1269e4fe57bb9d26f43523628b34ba108ec84526020848152604080862033875290915284205460ff166104d4565b60405162461bcd60e51b8152602060048201526013602482015272151bdad95b8818591b5a5b881b9bdd081cd95d606a1b6044820152606490fd5b634e487b7160e01b84526021600452602484fd5b503461020d578060031936011261020d57602090604051908152f35b503461020d5761010036600319011261020d576004356001600160401b03811161026c5761175f90369060040161352d565b906024356001600160401b03811161026c5761177f90369060040161352d565b6044356001600160401b038111610e3f5761179e90369060040161352d565b926064356001600160401b038111611fac5736602382011215611fac578060040135906117ca82613574565b916117d860405193846134f1565b80835260208301913660248360051b83010111610e305760248101925b60248360051b8301018410611f905750505050611810613491565b60c4359163ffffffff8316830361142157611829613861565b6009546040516370a0823160e01b81523360048201526001600160a01b0390911690602081602481855afa90811561146c578891611f5a575b50600654809110611f1557604051636eb1769f60e11b8152336004820152306024820152602081604481865afa9081156113be579082918a91611ee0575b5010611e9057825115611e52576118e591604051916323b872dd60e01b60208401523360248401523060448401526064830152606482526118e0826134d6565b613af5565b600154946000198614611e3e57859697600163ffffffff9697016001556006549160405197611913896134a7565b88526020880152604087015287606087015260808601523360a086015260c08501524360e08501528561010085015260843561012085015260018060a01b03166101408401521661016082015260e435610180820152818352600b602052604083209080518051906001600160401b038211611cae57819061199f82611999875461358b565b87613672565b602090601f8311600114611dd5578792611dca575b50508160011b916000199060031b1c19161782555b60208101518051906001600160401b038211611cae5781906119fb826119f2600188015461358b565b60018801613672565b602090601f8311600114611d5b578792611d50575b50508160011b916000199060031b1c19161760018301555b60408101518051906001600160401b038211611cae578190611a5a82611a51600288015461358b565b60028801613672565b602090601f8311600114611ce1578792611cd6575b50508160011b916000199060031b1c19161760028301555b60608101516003811015611cc257600383019060ff80198354169116179055608081015160048301556005820160018060a01b0360a0830151166001600160601b0360a01b82541617905560c08101518051906001600160401b038211611cae57600160401b8211611cae576020906006850154836006870155808410611c5f575b5001906006840186526020862091865b8260051c8110611c205750601f19821690818303611bca575b60208787600b6101808960e0810151600785015561010081015160088501556101208101516009850155600a840160018060a01b036101408301511681549063ffffffff60a01b61016085015160a01b16916001600160401b0360c01b161717905501519101557f0ff47c4a3dc48719ecfd1876116e80d7d76ec7cb67248ae49449f9104747af2982604051838152a1604051908152f35b90875b8184038110611bf05750505060051c0193909355602092610180600b3880611b32565b9091976020611c166001928460ff8d5116919060ff809160031b9316831b921b19161790565b9901929101611bcd565b87885b60208110611c38575084820155600101611b19565b835190939160019160209160ff600388901b81811b199092169216901b1792019301611c23565b611c8c90600687018952838920601f80870160051c82019281881680611c92575b500160051c019061365b565b38611b09565b600019850190815490600019908a0360031b1c16905538611c80565b634e487b7160e01b86526041600452602486fd5b634e487b7160e01b85526021600452602485fd5b015190503880611a6f565b9250600285018752602087209087935b601f1984168510611d35576001945083601f19811610611d1c575b505050811b016002830155611a87565b015160001960f88460031b161c19169055388080611d0c565b81810151835560209485019460019093019290910190611cf1565b015190503880611a10565b9250600185018752602087209087935b601f1984168510611daf576001945083601f19811610611d96575b505050811b016001830155611a28565b015160001960f88460031b161c19169055388080611d86565b81810151835560209485019460019093019290910190611d6b565b0151905038806119b4565b9250848752602087209087935b601f1984168510611e23576001945083601f19811610611e0a575b505050811b0182556119c9565b015160001960f88460031b161c19169055388080611dfd565b81810151835560209485019460019093019290910190611de2565b634e487b7160e01b87526011600452602487fd5b60405162461bcd60e51b815260206004820152601660248201527510dbdc995cc81b5d5cdd081899481c1c9bdd9a59195960521b6044820152606490fd5b60405162461bcd60e51b815260206004820152602260248201527f496e73756666696369656e7420617373657420746f6b656e20616c6c6f77616e604482015261636560f01b6064820152608490fd5b9150506020813d602011611f0d575b81611efc602093836134f1565b8101031261153657819051386118a0565b3d9150611eef565b60405162461bcd60e51b815260206004820152601860248201527f496e73756666696369656e7420617373657420746f6b656e00000000000000006044820152606490fd5b90506020813d602011611f88575b81611f75602093836134f1565b81010312611f84575138611862565b8780fd5b3d9150611f68565b60ff843516843503611f845783358152602093840193016117f5565b8380fd5b503461020d578060031936011261020d576003546040516001600160a01b039091168152602090f35b503461020d578060031936011261020d576010546040516001600160a01b039091168152602090f35b503461020d57606036600319011261020d5761201c613439565b61202461344f565b61202c61347b565b9061203561388c565b60018060a01b038092816001600160601b0360a01b9516856002541617600255168360035416176003551690601054161760105580f35b503461020d57604036600319011261020d5760ff604060209261208d61344f565b60043582528185528282206001600160a01b03909116825284522054604051911615158152f35b503461020d5761010036600319011261020d576120cf613439565b6120d761344f565b906120e061347b565b906120e9613465565b6001600160a01b036084358181169592939290869003610e305761210b613491565b9060e43594838616809603611536577ff0c57e16840df040f15088dc2f81fe391c3923bec73e23a9662efc9c229c6a009788549260ff8460401c1615986001600160401b038516801590816122a5575b600114908161229b575b159081612292575b506122805767ffffffffffffffff1985166001178b558694859283918c612261575b50612198613820565b6121a0613820565b600080516020613bf483398151915260ff198154169055816001600160601b0360a01b9a168a60025416176002551688601054161760105516866003541617600355856009541617600955168360055416176005551681600454161760045560c435600655600180556122123361390a565b50600d541617600d55612223575080f35b68ff00000000000000001981541690557fc7f505b2f371ae2175ee4913f4499e1f2633a7b5936321eed1cdaeb6115181d2602060405160018152a180f35b68ffffffffffffffffff191668010000000000000001178d553861218f565b60405163f92ee8a960e01b8152600490fd5b9050153861216d565b303b159150612165565b8b915061215b565b503461020d578060031936011261020d576122c661388c565b6122ce613861565b600080516020613bf4833981519152600160ff198254161790557f62e78cea01bee320cd4e420270b5ea74000d11b0c9f74754ebdbfc544b05a2586020604051338152a180f35b503461020d57602036600319011261020d5761232f613439565b61233761388c565b60018060a01b03166001600160601b0360a01b600d541617600d5580f35b503461020d57602036600319011261020d5760043560075481101561026c5760079091527fa66cc928b5edb82af9bd49922954155ab7b0942694bea4ce44661d9a8736c68801546040516001600160a01b039091168152602090f35b503461020d57608036600319011261020d576123cb613465565b906123d461388c565b60405191602090600435828501526024356040850152604435606085015260018060a01b031660808401526080835261240c836134d6565b8251906001600160401b0382116125455761242860155461358b565b601f81116124ed575b5080601f831160011461246c57508293829392612461575b50508160011b916000199060031b1c19161760155580f35b015190503880612449565b60158452601f198316947f55f448fdea98c4d29eb340757ef0a66cd03dbb9538908a6a81d96026b71ec475929185905b8782106124d55750508360019596106124bc575b505050811b0160155580f35b015160001960f88460031b161c191690553880806124b0565b8060018596829496860151815501950193019061249c565b61253590601585527f55f448fdea98c4d29eb340757ef0a66cd03dbb9538908a6a81d96026b71ec475601f850160051c81019184861061253b575b601f0160051c019061365b565b38612431565b9091508190612528565b634e487b7160e01b83526041600452602483fd5b503461020d578060031936011261020d57602060ff600080516020613bf483398151915254166040519015158152f35b503461020d578060031936011261020d576004546040516001600160a01b039091168152602090f35b503461020d578060031936011261020d576005546040516001600160a01b039091168152602090f35b503461020d578060031936011261020d576125f461388c565b600080516020613bf4833981519152805460ff8116156126415760ff191690557f5db9ee0a495bf2e6ff9c91a7834c1ba4fdd244a5e8aa4e537bd38aeae4b073aa6020604051338152a180f35b604051638dfc202b60e01b8152600490fd5b503461020d57604036600319011261020d5761266d61344f565b336001600160a01b038216036126895761032990600435613a18565b60405163334bd91960e11b8152600490fd5b503461020d578060031936011261020d576002546040516001600160a01b039091168152602090f35b503461020d57604036600319011261020d576103296004356126e461344f565b90808452836020526126fc60016040862001546138e4565b61399a565b503461020d576020908160031936011261020d57600d5461272860ff8260a01c16156136ae565b60ff60a01b19908116600160a01b17600d556004358252600b83526040822060058101546001600160a01b0390811691903383148015612851575b61276c906136eb565b6003820180549260ff8416600381101561283d5761278a9015613726565b60078101544311156127f85760040180549087905560ff19909316600217905560095460405163a9059cbb60e01b978101979097526001600160a01b0390931660248701526044860191909152929391926127ee9291166118e0826064810161081c565b600d5416600d5580f35b60405162461bcd60e51b815260048101899052601e60248201527f4170706c69636174696f6e206973206e6f74206d6174757265642079657400006044820152606490fd5b634e487b7160e01b88526021600452602488fd5b507f5d8e12c39142ff96d79d04d15d1ba1269e4fe57bb9d26f43523628b34ba108ec85528486526040808620338752875285205460ff16612763565b503461020d5760e036600319011261020d5760c4356001600160a01b038116919082900361020d576128bd61388c565b604051916020906004358285015260243560408501526044356060850152606435608085015260843560a085015260a43560c085015260e084015260e083526101008301906001600160401b039184811083821117612a3f5760405283519182116125455761292d60145461358b565b601f81116129f2575b5080601f831160011461297157508293829392612966575b50508160011b916000199060031b1c19161760145580f35b01519050388061294e565b60148452601f198316947fce6d7b5282bd9a3661ae061feed1dbda4e52ab073b1f9285be6e155d9c38d4ec929185905b8782106129da5750508360019596106129c1575b505050811b0160145580f35b015160001960f88460031b161c191690553880806129b5565b806001859682949686015181550195019301906129a1565b612a3990601485527fce6d7b5282bd9a3661ae061feed1dbda4e52ab073b1f9285be6e155d9c38d4ec601f850160051c81019184861061253b57601f0160051c019061365b565b38612936565b634e487b7160e01b84526041600452602484fd5b503461020d57602036600319011261020d57612a6d613439565b612a7561388c565b60018060a01b03166001600160601b0360a01b600954161760095580f35b503461020d57602036600319011261020d57600160406020926004358152808452200154604051908152f35b503461020d57602036600319011261020d5780610180604051612ae1816134a7565b6060815260606020820152606060408201528260608201528260808201528260a0820152606060c08201528260e08201528261010082015282610120820152826101408201528261016082015201526004358152600b602052604081209060405190612b4c826134a7565b604051612b5d8161052781876135c5565b8252604051612b738161052781600188016135c5565b6020830152604051612b8c8161052781600288016135c5565b604083015260ff60038401541660038110156132f75760608301526004830154608083015260058301546001600160a01b031660a0830152604051600684018054808352908352602080842090830195929184915b81601f8401106131555796612cff928492600b9798995491818110613141575b81811061312a575b818110613113575b8181106130fc575b8181106130e6575b8181106130cf575b8181106130b8575b8181106130a1575b81811061308a575b818110613073575b81811061305c575b818110613045575b81811061302e575b818110613017575b818110613000575b818110612fe9575b818110612fd2575b818110612fbb575b818110612fa4575b818110612f8d575b818110612f76575b818110612f5f575b818110612f48575b818110612f31575b818110612f1a575b818110612f03575b818110612eec575b818110612ed5575b818110612ebe575b818110612ea7575b818110612e90575b10612e82575b5003826134f1565b60c0850152600781015460e08501526008810154610100850152600981015461012085015263ffffffff600a82015460018060a01b03811661014087015260a01c1661016085015201546101808301526040519060208252612da1612d8b612d7585516101a060208701526101c08601906133f9565b6020860151858203601f190160408701526133f9565b6040850151848203601f190160608601526133f9565b60608401516003811015612e6e576080849392930152608084015160a084015260018060a01b0360a08501511660c084015260c084015191601f198482030160e0850152602080845192838152019301915b818110612e55575050506101808360e08495015161010085015261010081015161012085015261012081015161014085015260018060a01b036101408201511661016085015263ffffffff610160820151168285015201516101a08301520390f35b825160ff16845260209384019390920191600101612df3565b634e487b7160e01b83526021600452602483fd5b60f81c815260200138612cf7565b92602060019160ff8560f01c168152019301612cf1565b92602060019160ff8560e81c168152019301612ce9565b92602060019160ff8560e01c168152019301612ce1565b92602060019160ff8560d81c168152019301612cd9565b92602060019160ff8560d01c168152019301612cd1565b92602060019160ff8560c81c168152019301612cc9565b92602060019160ff8560c01c168152019301612cc1565b92602060019160ff8560b81c168152019301612cb9565b92602060019160ff8560b01c168152019301612cb1565b92602060019160ff8560a81c168152019301612ca9565b92602060019160ff8560a01c168152019301612ca1565b92602060019160ff8560981c168152019301612c99565b92602060019160ff8560901c168152019301612c91565b92602060019160ff8560881c168152019301612c89565b92602060019160ff8560801c168152019301612c81565b92602060019160ff8560781c168152019301612c79565b92602060019160ff8560701c168152019301612c71565b92602060019160ff8560681c168152019301612c69565b92602060019160ff8560601c168152019301612c61565b92602060019160ff8560581c168152019301612c59565b92602060019160ff8560501c168152019301612c51565b92602060019160ff8560481c168152019301612c49565b92602060019160ff8560401c168152019301612c41565b92602060019160ff8560381c168152019301612c39565b92602060019160ff8560301c168152019301612c31565b92602060019160ff8560281c168152019301612c29565b92602060019160ff85831c168152019301612c21565b92602060019160ff8560181c168152019301612c19565b92602060019160ff8560101c168152019301612c11565b92602060019160ff8560081c168152019301612c09565b92602060019160ff85168152019301612c01565b9660016104006020928a5460ff8116825260ff8160081c168583015260ff8160101c16604083015260ff8160181c16606083015260ff81861c16608083015260ff8160281c1660a083015260ff8160301c1660c083015260ff8160381c1660e083015260ff8160401c1661010083015260ff8160481c1661012083015260ff8160501c1661014083015260ff8160581c1661016083015260ff8160601c1661018083015260ff8160681c166101a083015260ff8160701c166101c083015260ff8160781c166101e083015260ff8160801c1661020083015260ff8160881c1661022083015260ff8160901c1661024083015260ff8160981c1661026083015260ff8160a01c1661028083015260ff8160a81c166102a083015260ff8160b01c166102c083015260ff8160b81c166102e083015260ff8160c01c1661030083015260ff8160c81c1661032083015260ff8160d01c1661034083015260ff8160d81c1661036083015260ff8160e01c1661038083015260ff8160e81c166103a083015260ff8160f01c166103c083015260f81c6103e0820152019801920191612be1565b634e487b7160e01b82526021600452602482fd5b503461020d578060031936011261020d57600c546040516001600160a01b039091168152602090f35b503461020d578060031936011261020d576009546040516001600160a01b039091168152602090f35b503461020d578060031936011261020d576013546040516001600160a01b039091168152602090f35b503461020d578060031936011261020d576020600a54604051908152f35b90503461026c57602036600319011261026c5760043563ffffffff60e01b8116809103610e3f5760209250637965db0b60e01b81149081156133e8575b5015158152f35b6301ffc9a760e01b149050386133e1565b919082519283825260005b848110613425575050826000602080949584010152601f8019910116010190565b602081830181015184830182015201613404565b600435906001600160a01b0382168203610e7257565b602435906001600160a01b0382168203610e7257565b606435906001600160a01b0382168203610e7257565b604435906001600160a01b0382168203610e7257565b60a435906001600160a01b0382168203610e7257565b6101a081019081106001600160401b038211176113df57604052565b6001600160401b0381116113df57604052565b60a081019081106001600160401b038211176113df57604052565b90601f801991011681019081106001600160401b038211176113df57604052565b6001600160401b0381116113df57601f01601f191660200190565b81601f82011215610e725780359061354482613512565b9261355260405194856134f1565b82845260208383010111610e7257816000926020809301838601378301015290565b6001600160401b0381116113df5760051b60200190565b90600182811c921680156135bb575b60208310146135a557565b634e487b7160e01b600052602260045260246000fd5b91607f169161359a565b90600092918054916135d68361358b565b91828252600193848116908160001461363857506001146135f8575b50505050565b90919394506000526020928360002092846000945b8386106136245750505050010190388080806135f2565b80548587018301529401938590820161360d565b9294505050602093945060ff191683830152151560051b010190388080806135f2565b818110613666575050565b6000815560010161365b565b9190601f811161368157505050565b6136ac926000526020600020906020601f840160051c8301931061253b57601f0160051c019061365b565b565b156136b557565b60405162461bcd60e51b815260206004820152600e60248201526d31b0b73737ba103932b2b73a32b960911b6044820152606490fd5b156136f257565b60405162461bcd60e51b815260206004820152600c60248201526b2737ba10383937b837b9b2b960a11b6044820152606490fd5b1561372d57565b60405162461bcd60e51b815260206004820152601960248201527f4170706c69636174696f6e206973206e6f7420616374697665000000000000006044820152606490fd5b51906001600160a01b0382168203610e7257565b90816020910312610e7257518015158103610e725790565b6000929181546137ad8161358b565b9260019180831690811561380557506001146137c95750505050565b90919293945060005260209081600020906000915b8583106137f457505050500190388080806135f2565b8054858401529183019181016137de565b60ff19168452505050811515909102019150388080806135f2565b60ff7ff0c57e16840df040f15088dc2f81fe391c3923bec73e23a9662efc9c229c6a005460401c161561384f57565b604051631afcd79f60e31b8152600490fd5b60ff600080516020613bf4833981519152541661387a57565b60405163d93c066560e01b8152600490fd5b3360009081527fad3228b676f7d3cd4284a5443f17f1962b36e491b30a40b2405849e597ba5fb5602052604081205460ff16156138c65750565b6044906040519063e2517d3f60e01b82523360048301526024820152fd5b80600052600060205260406000203360005260205260ff60406000205416156138c65750565b6001600160a01b031660008181527fad3228b676f7d3cd4284a5443f17f1962b36e491b30a40b2405849e597ba5fb5602052604081205490919060ff1661399657818052816020526040822081835260205260408220600160ff1982541617905533917f2f8788117e7eff1d82e926ec794901d17c78024a50270940304540a733656f0d8180a4600190565b5090565b9060009180835282602052604083209160018060a01b03169182845260205260ff60408420541615600014613a1357808352826020526040832082845260205260408320600160ff198254161790557f2f8788117e7eff1d82e926ec794901d17c78024a50270940304540a733656f0d339380a4600190565b505090565b9060009180835282602052604083209160018060a01b03169182845260205260ff604084205416600014613a135780835282602052604083208284526020526040832060ff1981541690557ff6391f5c32d9c69d2a47ea670b442974b53935d1edc7fd64eb21e047a839171b339380a4600190565b6e5af43d82803e903d91602b57fd5bf390763d602d80600a3d3981f3363d3d373d3d3d363d7300000062ffffff8260881c161760005260781b17602052603760096000f0906001600160a01b03821615613ae357565b6040516330be1a3d60e21b8152600490fd5b600080613b3f9260018060a01b03169360208151910182865af13d15613b88573d90613b2082613512565b91613b2e60405193846134f1565b82523d6000602084013e5b83613b90565b8051908115159182613b6d575b5050613b555750565b60249060405190635274afe760e01b82526004820152fd5b613b809250602080918301019101613786565b153880613b4c565b606090613b39565b90613bb75750805115613ba557805190602001fd5b604051630a12f52160e11b8152600490fd5b81511580613bea575b613bc8575090565b604051639996b31560e01b81526001600160a01b039091166004820152602490fd5b50803b15613bc056fecd5ed15c6e187e77e9aee88184c21f4f2182ab5827cb3b7e07fbedcd63f03300a264697066735822122014d6fe8058e451e3bf00e0b1bc22b29b8fb44971cabcc1b760ab4881b4a63cdd64736f6c63430008140033","linkReferences":{}},"methodIdentifiers":{"DEFAULT_ADMIN_ROLE()":"a217fddf","WITHDRAW_ROLE()":"e02023a1","allDAOs(uint256)":"b4136bd8","allTokens(uint256)":"634282af","allTradingTokens(uint256)":"e887b1cc","applicationThreshold()":"ddf44275","assetToken()":"1083f761","daoImplementation()":"9d699326","defaultDelegatee()":"0c4cb55c","executeApplication(uint256,bool)":"aa3d000a","getApplication(uint256)":"1f2f4bfd","getRoleAdmin(bytes32)":"248a9ca3","gov()":"12d43a51","grantRole(bytes32,address)":"2f2ff15d","hasRole(bytes32,address)":"91d14854","initialize(address,address,address,address,address,address,uint256,address)":"8e659c08","maturityDuration()":"063513b7","nft()":"47ccca02","pause()":"8456cb59","paused()":"5c975abb","proposeAgent(string,string,string,uint8[],bytes32,address,uint32,uint256)":"9e4ec30a","renounceRole(bytes32,address)":"36568abe","revokeRole(bytes32,address)":"d547741f","setApplicationThreshold(uint256)":"bd1cf258","setAssetToken(address)":"26bde5aa","setImplementations(address,address,address)":"9300d238","setMaturityDuration(uint256)":"d739ac29","setTokenAdmin(address)":"f7457594","setTokenSupplyParams(uint256,uint256,uint256,uint256,uint256,uint256,address)":"2a7d4a1f","setTokenTaxParams(uint256,uint256,uint256,address)":"5ca3cedf","setUniswapRouter(address)":"bea9849e","setVault(address)":"6817031b","supportsInterface(bytes4)":"01ffc9a7","tbaRegistry()":"468d198d","tokenImplementation()":"2f3a3d5d","totalAgents()":"c5053712","unpause()":"3f4ba83a","veTokenImplementation()":"9cbe0bac","withdraw(uint256)":"2e1a7d4d"},"id":1}