{"abi":[{"type":"constructor","inputs":[{"name":"initialOwner","type":"address","internalType":"address"}],"stateMutability":"nonpayable"},{"type":"function","name":"DOMAIN_SEPARATOR","inputs":[],"outputs":[{"name":"","type":"bytes32","internalType":"bytes32"}],"stateMutability":"view"},{"type":"function","name":"allowance","inputs":[{"name":"owner","type":"address","internalType":"address"},{"name":"spender","type":"address","internalType":"address"}],"outputs":[{"name":"","type":"uint256","internalType":"uint256"}],"stateMutability":"view"},{"type":"function","name":"approve","inputs":[{"name":"spender","type":"address","internalType":"address"},{"name":"value","type":"uint256","internalType":"uint256"}],"outputs":[{"name":"","type":"bool","internalType":"bool"}],"stateMutability":"nonpayable"},{"type":"function","name":"balanceOf","inputs":[{"name":"account","type":"address","internalType":"address"}],"outputs":[{"name":"","type":"uint256","internalType":"uint256"}],"stateMutability":"view"},{"type":"function","name":"decimals","inputs":[],"outputs":[{"name":"","type":"uint8","internalType":"uint8"}],"stateMutability":"view"},{"type":"function","name":"eip712Domain","inputs":[],"outputs":[{"name":"fields","type":"bytes1","internalType":"bytes1"},{"name":"name","type":"string","internalType":"string"},{"name":"version","type":"string","internalType":"string"},{"name":"chainId","type":"uint256","internalType":"uint256"},{"name":"verifyingContract","type":"address","internalType":"address"},{"name":"salt","type":"bytes32","internalType":"bytes32"},{"name":"extensions","type":"uint256[]","internalType":"uint256[]"}],"stateMutability":"view"},{"type":"function","name":"mint","inputs":[{"name":"to","type":"address","internalType":"address"},{"name":"amount","type":"uint256","internalType":"uint256"}],"outputs":[],"stateMutability":"nonpayable"},{"type":"function","name":"name","inputs":[],"outputs":[{"name":"","type":"string","internalType":"string"}],"stateMutability":"view"},{"type":"function","name":"nonces","inputs":[{"name":"owner","type":"address","internalType":"address"}],"outputs":[{"name":"","type":"uint256","internalType":"uint256"}],"stateMutability":"view"},{"type":"function","name":"owner","inputs":[],"outputs":[{"name":"","type":"address","internalType":"address"}],"stateMutability":"view"},{"type":"function","name":"permit","inputs":[{"name":"owner","type":"address","internalType":"address"},{"name":"spender","type":"address","internalType":"address"},{"name":"value","type":"uint256","internalType":"uint256"},{"name":"deadline","type":"uint256","internalType":"uint256"},{"name":"v","type":"uint8","internalType":"uint8"},{"name":"r","type":"bytes32","internalType":"bytes32"},{"name":"s","type":"bytes32","internalType":"bytes32"}],"outputs":[],"stateMutability":"nonpayable"},{"type":"function","name":"renounceOwnership","inputs":[],"outputs":[],"stateMutability":"nonpayable"},{"type":"function","name":"symbol","inputs":[],"outputs":[{"name":"","type":"string","internalType":"string"}],"stateMutability":"view"},{"type":"function","name":"totalSupply","inputs":[],"outputs":[{"name":"","type":"uint256","internalType":"uint256"}],"stateMutability":"view"},{"type":"function","name":"transfer","inputs":[{"name":"to","type":"address","internalType":"address"},{"name":"value","type":"uint256","internalType":"uint256"}],"outputs":[{"name":"","type":"bool","internalType":"bool"}],"stateMutability":"nonpayable"},{"type":"function","name":"transferFrom","inputs":[{"name":"from","type":"address","internalType":"address"},{"name":"to","type":"address","internalType":"address"},{"name":"value","type":"uint256","internalType":"uint256"}],"outputs":[{"name":"","type":"bool","internalType":"bool"}],"stateMutability":"nonpayable"},{"type":"function","name":"transferOwnership","inputs":[{"name":"newOwner","type":"address","internalType":"address"}],"outputs":[],"stateMutability":"nonpayable"},{"type":"event","name":"Approval","inputs":[{"name":"owner","type":"address","indexed":true,"internalType":"address"},{"name":"spender","type":"address","indexed":true,"internalType":"address"},{"name":"value","type":"uint256","indexed":false,"internalType":"uint256"}],"anonymous":false},{"type":"event","name":"EIP712DomainChanged","inputs":[],"anonymous":false},{"type":"event","name":"OwnershipTransferred","inputs":[{"name":"previousOwner","type":"address","indexed":true,"internalType":"address"},{"name":"newOwner","type":"address","indexed":true,"internalType":"address"}],"anonymous":false},{"type":"event","name":"Transfer","inputs":[{"name":"from","type":"address","indexed":true,"internalType":"address"},{"name":"to","type":"address","indexed":true,"internalType":"address"},{"name":"value","type":"uint256","indexed":false,"internalType":"uint256"}],"anonymous":false},{"type":"error","name":"ECDSAInvalidSignature","inputs":[]},{"type":"error","name":"ECDSAInvalidSignatureLength","inputs":[{"name":"length","type":"uint256","internalType":"uint256"}]},{"type":"error","name":"ECDSAInvalidSignatureS","inputs":[{"name":"s","type":"bytes32","internalType":"bytes32"}]},{"type":"error","name":"ERC20InsufficientAllowance","inputs":[{"name":"spender","type":"address","internalType":"address"},{"name":"allowance","type":"uint256","internalType":"uint256"},{"name":"needed","type":"uint256","internalType":"uint256"}]},{"type":"error","name":"ERC20InsufficientBalance","inputs":[{"name":"sender","type":"address","internalType":"address"},{"name":"balance","type":"uint256","internalType":"uint256"},{"name":"needed","type":"uint256","internalType":"uint256"}]},{"type":"error","name":"ERC20InvalidApprover","inputs":[{"name":"approver","type":"address","internalType":"address"}]},{"type":"error","name":"ERC20InvalidReceiver","inputs":[{"name":"receiver","type":"address","internalType":"address"}]},{"type":"error","name":"ERC20InvalidSender","inputs":[{"name":"sender","type":"address","internalType":"address"}]},{"type":"error","name":"ERC20InvalidSpender","inputs":[{"name":"spender","type":"address","internalType":"address"}]},{"type":"error","name":"ERC2612ExpiredSignature","inputs":[{"name":"deadline","type":"uint256","internalType":"uint256"}]},{"type":"error","name":"ERC2612InvalidSigner","inputs":[{"name":"signer","type":"address","internalType":"address"},{"name":"owner","type":"address","internalType":"address"}]},{"type":"error","name":"InvalidAccountNonce","inputs":[{"name":"account","type":"address","internalType":"address"},{"name":"currentNonce","type":"uint256","internalType":"uint256"}]},{"type":"error","name":"InvalidShortString","inputs":[]},{"type":"error","name":"OwnableInvalidOwner","inputs":[{"name":"owner","type":"address","internalType":"address"}]},{"type":"error","name":"OwnableUnauthorizedAccount","inputs":[{"name":"account","type":"address","internalType":"address"}]},{"type":"error","name":"StringTooLong","inputs":[{"name":"str","type":"string","internalType":"string"}]}],"bytecode":{"object":"0x61016080604052346104d0576020816116c6803803809161002082856104d5565b8339810103126104d057516001600160a01b038116908190036104d05760405161004b6040826104d5565b600b8152602081016a2132b2b6b2b92a37b5b2b760a91b8152604051916100736040846104d5565b600b83526a2132b2b6b2b92a37b5b2b760a91b60208401526040519361009a6040866104d5565b6003855262424d5760e81b6020860152604051946100b96040876104d5565b60018652603160f81b60208701908152855190956001600160401b0382116103cd5760035490600182811c921680156104c6575b60208310146103ad5781601f849311610456575b50602090601f83116001146103ee576000926103e3575b50508160011b916000199060031b1c1916176003555b8051906001600160401b0382116103cd5760045490600182811c921680156103c3575b60208310146103ad5781601f84931161033d575b50602090601f83116001146102d5576000926102ca575b50508160011b916000199060031b1c1916176004555b80156102b457600580546001600160a01b0319811683179091556001600160a01b03167f8be0079c531659141344cd1fd0a4f28419497f9722a3daafe3b4186f6b6457e0600080a36101e3816104f8565b610120526101f0846106a6565b61014052519020918260e05251902080610100524660a0526040519060208201927f8b73c3c69bb8fe3d512ecc4cf759cc79239f7b179b0ffacaa9a75d522b39400f8452604083015260608201524660808201523060a082015260a0815261025960c0826104d5565b5190206080523060c052604051610e819081610845823960805181610b1d015260a05181610bda015260c05181610ae7015260e05181610b6c01526101005181610b920152610120518161045d015261014051816104860152f35b631e4fbdf760e01b600052600060045260246000fd5b01519050388061017c565b600460009081528281209350601f198516905b818110610325575090846001959493921061030c575b505050811b01600455610192565b015160001960f88460031b161c191690553880806102fe565b929360206001819287860151815501950193016102e8565b60046000529091507f8a35acfbc15ff81a39ae7d344fd709f28e8600b4aa8c65c6b64bfe7fe36bd19b601f840160051c810191602085106103a3575b90601f859493920160051c01905b8181106103945750610165565b60008155849350600101610387565b9091508190610379565b634e487b7160e01b600052602260045260246000fd5b91607f1691610151565b634e487b7160e01b600052604160045260246000fd5b015190503880610118565b600360009081528281209350601f198516905b81811061043e5750908460019594939210610425575b505050811b0160035561012e565b015160001960f88460031b161c19169055388080610417565b92936020600181928786015181550195019301610401565b60036000529091507fc2575a0e9e593c00f959f8c92f12db2869c3395a3b0502d05e2516446f71f85b601f840160051c810191602085106104bc575b90601f859493920160051c01905b8181106104ad5750610101565b600081558493506001016104a0565b9091508190610492565b91607f16916100ed565b600080fd5b601f909101601f19168101906001600160401b038211908210176103cd57604052565b90815160208110600014610590575090601f815111610534576020815191015160208210610524571790565b6000198260200360031b1b161790565b6040519063305a27a960e01b8252602060048301528181519182602483015260005b8381106105785750508160006044809484010152601f80199101168101030190fd5b60208282018101516044878401015285935001610556565b6001600160401b0381116103cd57600654600181811c9116801561069c575b60208210146103ad57601f8111610666575b50602092601f821160011461060157928192936000926105f6575b50508160011b916000199060031b1c19161760065560ff90565b0151905038806105dc565b601f198216936006600052806000209160005b86811061064e5750836001959610610635575b505050811b0160065560ff90565b015160001960f88460031b161c19169055388080610627565b91926020600181928685015181550194019201610614565b6006600052601f6020600020910160051c810190601f830160051c015b81811061069057506105c1565b60008155600101610683565b90607f16906105af565b9081516020811060001461072e575090601f8151116106d2576020815191015160208210610524571790565b6040519063305a27a960e01b8252602060048301528181519182602483015260005b8381106107165750508160006044809484010152601f80199101168101030190fd5b602082820181015160448784010152859350016106f4565b6001600160401b0381116103cd57600754600181811c9116801561083a575b60208210146103ad57601f8111610804575b50602092601f821160011461079f5792819293600092610794575b50508160011b916000199060031b1c19161760075560ff90565b01519050388061077a565b601f198216936007600052806000209160005b8681106107ec57508360019596106107d3575b505050811b0160075560ff90565b015160001960f88460031b161c191690553880806107c5565b919260206001819286850151815501940192016107b2565b6007600052601f6020600020910160051c810190601f830160051c015b81811061082e575061075f565b60008155600101610821565b90607f169061074d56fe608080604052600436101561001357600080fd5b60003560e01c90816306fdde031461082e57508063095ea7b31461080857806318160ddd146107ea57806323b872dd146106fd578063313ce567146106e15780633644e515146106be57806340c10f191461061257806370a08231146105d8578063715018a61461057b5780637ecebe001461054157806384b0196e146104445780638da5cb5b1461041b57806395d89b4114610336578063a9059cbb14610305578063d505accf146101ba578063dd62ed3e146101695763f2fde38b146100da57600080fd5b34610164576020366003190112610164576100f3610914565b6100fb610c00565b6001600160a01b0316801561014e57600580546001600160a01b0319811683179091556001600160a01b03167f8be0079c531659141344cd1fd0a4f28419497f9722a3daafe3b4186f6b6457e0600080a3005b631e4fbdf760e01b600052600060045260246000fd5b600080fd5b3461016457604036600319011261016457610182610914565b61018a61092a565b6001600160a01b039182166000908152600160209081526040808320949093168252928352819020549051908152f35b346101645760e0366003190112610164576101d3610914565b6101db61092a565b604435906064359260843560ff81168103610164578442116102f0576102b16102ba9160018060a01b038416968760005260086020526040600020908154916001830190556040519060208201927f6e71edae12b1b97f4d1f60370fef10105fa2faae0126114a169c64845d6126c984528a604084015260018060a01b038916606084015289608084015260a083015260c082015260c0815261027f60e0826109fd565b51902061028a610ae4565b906040519161190160f01b83526002830152602282015260c43591604260a4359220610d2e565b90929192610dc3565b6001600160a01b03168481036102d757506102d59350610c29565b005b84906325c0072360e11b60005260045260245260446000fd5b8463313c898160e11b60005260045260246000fd5b346101645760403660031901126101645761032b610321610914565b6024359033610a35565b602060405160018152f35b3461016457600036600319011261016457604051600060045461035881610940565b80845290600181169081156103f75750600114610398575b61039483610380818503826109fd565b6040519182916020835260208301906108d3565b0390f35b600460009081527f8a35acfbc15ff81a39ae7d344fd709f28e8600b4aa8c65c6b64bfe7fe36bd19b939250905b8082106103dd57509091508101602001610380610370565b9192600181602092548385880101520191019092916103c5565b60ff191660208086019190915291151560051b840190910191506103809050610370565b34610164576000366003190112610164576005546040516001600160a01b039091168152602090f35b34610164576000366003190112610164576104e36104817f0000000000000000000000000000000000000000000000000000000000000000610c90565b6104aa7f0000000000000000000000000000000000000000000000000000000000000000610cf7565b60206104f1604051926104bd83856109fd565b600084526000368137604051958695600f60f81b875260e08588015260e08701906108d3565b9085820360408701526108d3565b466060850152306080850152600060a085015283810360c085015281808451928381520193019160005b82811061052a57505050500390f35b83518552869550938101939281019260010161051b565b34610164576020366003190112610164576001600160a01b03610562610914565b1660005260086020526020604060002054604051908152f35b3461016457600036600319011261016457610594610c00565b600580546001600160a01b031981169091556000906001600160a01b03167f8be0079c531659141344cd1fd0a4f28419497f9722a3daafe3b4186f6b6457e08280a3005b34610164576020366003190112610164576001600160a01b036105f9610914565b1660005260006020526020604060002054604051908152f35b346101645760403660031901126101645761062b610914565b602435906001600160a01b031680156106a85760025491808301809311610692576020926002557fddf252ad1be2c89b69c2b068fc378daa952ba7f163c4a11628f55a4df523b3ef600093849284845283825260408420818154019055604051908152a380f35b634e487b7160e01b600052601160045260246000fd5b63ec442f0560e01b600052600060045260246000fd5b346101645760003660031901126101645760206106d9610ae4565b604051908152f35b3461016457600036600319011261016457602060405160128152f35b3461016457606036600319011261016457610716610914565b61071e61092a565b6001600160a01b038216600081815260016020818152604080842033855290915290912054919360443593929091810161075e575b5061032b9350610a35565b8381106107cd5784156107b75733156107a15761032b946000526001602052604060002060018060a01b0333166000526020528360406000209103905584610753565b634a1406b160e11b600052600060045260246000fd5b63e602df0560e01b600052600060045260246000fd5b8390637dc7a0d960e11b6000523360045260245260445260646000fd5b34610164576000366003190112610164576020600254604051908152f35b346101645760403660031901126101645761032b610824610914565b6024359033610c29565b3461016457600036600319011261016457600060035461084d81610940565b80845290600181169081156103f757506001146108745761039483610380818503826109fd565b600360009081527fc2575a0e9e593c00f959f8c92f12db2869c3395a3b0502d05e2516446f71f85b939250905b8082106108b957509091508101602001610380610370565b9192600181602092548385880101520191019092916108a1565b919082519283825260005b8481106108ff575050826000602080949584010152601f8019910116010190565b806020809284010151828286010152016108de565b600435906001600160a01b038216820361016457565b602435906001600160a01b038216820361016457565b90600182811c92168015610970575b602083101461095a57565b634e487b7160e01b600052602260045260246000fd5b91607f169161094f565b6000929181549161098a83610940565b80835292600181169081156109e057506001146109a657505050565b60009081526020812093945091925b8383106109c6575060209250010190565b6001816020929493945483858701015201910191906109b5565b915050602093945060ff929192191683830152151560051b010190565b90601f8019910116810190811067ffffffffffffffff821117610a1f57604052565b634e487b7160e01b600052604160045260246000fd5b6001600160a01b0316908115610ace576001600160a01b03169182156106a8576000828152806020526040812054828110610ab45791604082827fddf252ad1be2c89b69c2b068fc378daa952ba7f163c4a11628f55a4df523b3ef958760209652828652038282205586815280845220818154019055604051908152a3565b916064928463391434e360e21b8452600452602452604452fd5b634b637e8f60e11b600052600060045260246000fd5b307f00000000000000000000000000000000000000000000000000000000000000006001600160a01b03161480610bd7575b15610b3f577f000000000000000000000000000000000000000000000000000000000000000090565b60405160208101907f8b73c3c69bb8fe3d512ecc4cf759cc79239f7b179b0ffacaa9a75d522b39400f82527f000000000000000000000000000000000000000000000000000000000000000060408201527f000000000000000000000000000000000000000000000000000000000000000060608201524660808201523060a082015260a08152610bd160c0826109fd565b51902090565b507f00000000000000000000000000000000000000000000000000000000000000004614610b16565b6005546001600160a01b03163303610c1457565b63118cdaa760e01b6000523360045260246000fd5b6001600160a01b03169081156107b7576001600160a01b03169182156107a15760207f8c5be1e5ebec7d5bd14f71427d1e84f3dd0314c0f7b2291e5b200ac8c7c3b925918360005260018252604060002085600052825280604060002055604051908152a3565b60ff8114610cda5760ff811690601f8211610cc9576040805192610cb482856109fd565b6020808552840191601f190136833783525290565b632cd44ac360e21b60005260046000fd5b50604051610cf481610ced81600661097a565b03826109fd565b90565b60ff8114610d1b5760ff811690601f8211610cc9576040805192610cb482856109fd565b50604051610cf481610ced81600761097a565b91907f7fffffffffffffffffffffffffffffff5d576e7357a4501ddfe92f46681b20a08411610db7579160209360809260ff60009560405194855216868401526040830152606082015282805260015afa15610dab576000516001600160a01b03811615610d9f5790600090600090565b50600090600190600090565b6040513d6000823e3d90fd5b50505060009160039190565b9190916004811015610e355780610dd957509050565b600060018203610df45763f645eedf60e01b60005260046000fd5b5060028103610e12578263fce698f760e01b60005260045260246000fd5b9091600360009214610e22575050565b6335e2f38360e21b825260045260249150fd5b634e487b7160e01b600052602160045260246000fdfea2646970667358221220b11456ab2c59f4a32636be2d7688b54b59c591848b67fe5c68f12864308309bc64736f6c634300081a0033","linkReferences":{}},"methodIdentifiers":{"DOMAIN_SEPARATOR()":"3644e515","allowance(address,address)":"dd62ed3e","approve(address,uint256)":"095ea7b3","balanceOf(address)":"70a08231","decimals()":"313ce567","eip712Domain()":"84b0196e","mint(address,uint256)":"40c10f19","name()":"06fdde03","nonces(address)":"7ecebe00","owner()":"8da5cb5b","permit(address,address,uint256,uint256,uint8,bytes32,bytes32)":"d505accf","renounceOwnership()":"715018a6","symbol()":"95d89b41","totalSupply()":"18160ddd","transfer(address,uint256)":"a9059cbb","transferFrom(address,address,uint256)":"23b872dd","transferOwnership(address)":"f2fde38b"},"id":9}