{"abi":[{"type":"constructor","inputs":[],"stateMutability":"nonpayable"},{"type":"receive","stateMutability":"payable"},{"type":"function","name":"BALLOT_TYPEHASH","inputs":[],"outputs":[{"name":"","type":"bytes32","internalType":"bytes32"}],"stateMutability":"view"},{"type":"function","name":"CLOCK_MODE","inputs":[],"outputs":[{"name":"","type":"string","internalType":"string"}],"stateMutability":"view"},{"type":"function","name":"COUNTING_MODE","inputs":[],"outputs":[{"name":"","type":"string","internalType":"string"}],"stateMutability":"pure"},{"type":"function","name":"EXTENDED_BALLOT_TYPEHASH","inputs":[],"outputs":[{"name":"","type":"bytes32","internalType":"bytes32"}],"stateMutability":"view"},{"type":"function","name":"cancel","inputs":[{"name":"proposalId","type":"uint256","internalType":"uint256"}],"outputs":[],"stateMutability":"nonpayable"},{"type":"function","name":"cancel","inputs":[{"name":"targets","type":"address[]","internalType":"address[]"},{"name":"values","type":"uint256[]","internalType":"uint256[]"},{"name":"calldatas","type":"bytes[]","internalType":"bytes[]"},{"name":"descriptionHash","type":"bytes32","internalType":"bytes32"}],"outputs":[{"name":"","type":"uint256","internalType":"uint256"}],"stateMutability":"nonpayable"},{"type":"function","name":"castVote","inputs":[{"name":"proposalId","type":"uint256","internalType":"uint256"},{"name":"support","type":"uint8","internalType":"uint8"}],"outputs":[{"name":"","type":"uint256","internalType":"uint256"}],"stateMutability":"nonpayable"},{"type":"function","name":"castVoteBySig","inputs":[{"name":"proposalId","type":"uint256","internalType":"uint256"},{"name":"support","type":"uint8","internalType":"uint8"},{"name":"voter","type":"address","internalType":"address"},{"name":"signature","type":"bytes","internalType":"bytes"}],"outputs":[{"name":"","type":"uint256","internalType":"uint256"}],"stateMutability":"nonpayable"},{"type":"function","name":"castVoteWithReason","inputs":[{"name":"proposalId","type":"uint256","internalType":"uint256"},{"name":"support","type":"uint8","internalType":"uint8"},{"name":"reason","type":"string","internalType":"string"}],"outputs":[{"name":"","type":"uint256","internalType":"uint256"}],"stateMutability":"nonpayable"},{"type":"function","name":"castVoteWithReasonAndParams","inputs":[{"name":"proposalId","type":"uint256","internalType":"uint256"},{"name":"support","type":"uint8","internalType":"uint8"},{"name":"reason","type":"string","internalType":"string"},{"name":"params","type":"bytes","internalType":"bytes"}],"outputs":[{"name":"","type":"uint256","internalType":"uint256"}],"stateMutability":"nonpayable"},{"type":"function","name":"castVoteWithReasonAndParamsBySig","inputs":[{"name":"proposalId","type":"uint256","internalType":"uint256"},{"name":"support","type":"uint8","internalType":"uint8"},{"name":"voter","type":"address","internalType":"address"},{"name":"reason","type":"string","internalType":"string"},{"name":"params","type":"bytes","internalType":"bytes"},{"name":"signature","type":"bytes","internalType":"bytes"}],"outputs":[{"name":"","type":"uint256","internalType":"uint256"}],"stateMutability":"nonpayable"},{"type":"function","name":"clock","inputs":[],"outputs":[{"name":"","type":"uint48","internalType":"uint48"}],"stateMutability":"view"},{"type":"function","name":"eip712Domain","inputs":[],"outputs":[{"name":"fields","type":"bytes1","internalType":"bytes1"},{"name":"name","type":"string","internalType":"string"},{"name":"version","type":"string","internalType":"string"},{"name":"chainId","type":"uint256","internalType":"uint256"},{"name":"verifyingContract","type":"address","internalType":"address"},{"name":"salt","type":"bytes32","internalType":"bytes32"},{"name":"extensions","type":"uint256[]","internalType":"uint256[]"}],"stateMutability":"view"},{"type":"function","name":"execute","inputs":[{"name":"targets","type":"address[]","internalType":"address[]"},{"name":"values","type":"uint256[]","internalType":"uint256[]"},{"name":"calldatas","type":"bytes[]","internalType":"bytes[]"},{"name":"descriptionHash","type":"bytes32","internalType":"bytes32"}],"outputs":[{"name":"","type":"uint256","internalType":"uint256"}],"stateMutability":"payable"},{"type":"function","name":"execute","inputs":[{"name":"proposalId","type":"uint256","internalType":"uint256"}],"outputs":[],"stateMutability":"payable"},{"type":"function","name":"getMaturity","inputs":[{"name":"proposalId","type":"uint256","internalType":"uint256"}],"outputs":[{"name":"","type":"uint256","internalType":"uint256"}],"stateMutability":"view"},{"type":"function","name":"getPastScore","inputs":[{"name":"account","type":"address","internalType":"address"},{"name":"timepoint","type":"uint256","internalType":"uint256"}],"outputs":[{"name":"","type":"uint256","internalType":"uint256"}],"stateMutability":"view"},{"type":"function","name":"getVotes","inputs":[{"name":"account","type":"address","internalType":"address"},{"name":"timepoint","type":"uint256","internalType":"uint256"}],"outputs":[{"name":"","type":"uint256","internalType":"uint256"}],"stateMutability":"view"},{"type":"function","name":"getVotesWithParams","inputs":[{"name":"account","type":"address","internalType":"address"},{"name":"timepoint","type":"uint256","internalType":"uint256"},{"name":"params","type":"bytes","internalType":"bytes"}],"outputs":[{"name":"","type":"uint256","internalType":"uint256"}],"stateMutability":"view"},{"type":"function","name":"hasVoted","inputs":[{"name":"proposalId","type":"uint256","internalType":"uint256"},{"name":"account","type":"address","internalType":"address"}],"outputs":[{"name":"","type":"bool","internalType":"bool"}],"stateMutability":"view"},{"type":"function","name":"hashProposal","inputs":[{"name":"targets","type":"address[]","internalType":"address[]"},{"name":"values","type":"uint256[]","internalType":"uint256[]"},{"name":"calldatas","type":"bytes[]","internalType":"bytes[]"},{"name":"descriptionHash","type":"bytes32","internalType":"bytes32"}],"outputs":[{"name":"","type":"uint256","internalType":"uint256"}],"stateMutability":"pure"},{"type":"function","name":"initialize","inputs":[{"name":"name","type":"string","internalType":"string"},{"name":"token","type":"address","internalType":"contract IVotes"},{"name":"agentNft","type":"address","internalType":"address"},{"name":"threshold","type":"uint256","internalType":"uint256"},{"name":"votingPeriod_","type":"uint32","internalType":"uint32"}],"outputs":[],"stateMutability":"nonpayable"},{"type":"function","name":"name","inputs":[],"outputs":[{"name":"","type":"string","internalType":"string"}],"stateMutability":"view"},{"type":"function","name":"nonces","inputs":[{"name":"owner","type":"address","internalType":"address"}],"outputs":[{"name":"","type":"uint256","internalType":"uint256"}],"stateMutability":"view"},{"type":"function","name":"onERC1155BatchReceived","inputs":[{"name":"","type":"address","internalType":"address"},{"name":"","type":"address","internalType":"address"},{"name":"","type":"uint256[]","internalType":"uint256[]"},{"name":"","type":"uint256[]","internalType":"uint256[]"},{"name":"","type":"bytes","internalType":"bytes"}],"outputs":[{"name":"","type":"bytes4","internalType":"bytes4"}],"stateMutability":"nonpayable"},{"type":"function","name":"onERC1155Received","inputs":[{"name":"","type":"address","internalType":"address"},{"name":"","type":"address","internalType":"address"},{"name":"","type":"uint256","internalType":"uint256"},{"name":"","type":"uint256","internalType":"uint256"},{"name":"","type":"bytes","internalType":"bytes"}],"outputs":[{"name":"","type":"bytes4","internalType":"bytes4"}],"stateMutability":"nonpayable"},{"type":"function","name":"onERC721Received","inputs":[{"name":"","type":"address","internalType":"address"},{"name":"","type":"address","internalType":"address"},{"name":"","type":"uint256","internalType":"uint256"},{"name":"","type":"bytes","internalType":"bytes"}],"outputs":[{"name":"","type":"bytes4","internalType":"bytes4"}],"stateMutability":"nonpayable"},{"type":"function","name":"proposalCount","inputs":[],"outputs":[{"name":"","type":"uint256","internalType":"uint256"}],"stateMutability":"view"},{"type":"function","name":"proposalDeadline","inputs":[{"name":"proposalId","type":"uint256","internalType":"uint256"}],"outputs":[{"name":"","type":"uint256","internalType":"uint256"}],"stateMutability":"view"},{"type":"function","name":"proposalDetails","inputs":[{"name":"proposalId","type":"uint256","internalType":"uint256"}],"outputs":[{"name":"","type":"address[]","internalType":"address[]"},{"name":"","type":"uint256[]","internalType":"uint256[]"},{"name":"","type":"bytes[]","internalType":"bytes[]"},{"name":"","type":"bytes32","internalType":"bytes32"}],"stateMutability":"view"},{"type":"function","name":"proposalDetailsAt","inputs":[{"name":"index","type":"uint256","internalType":"uint256"}],"outputs":[{"name":"","type":"uint256","internalType":"uint256"},{"name":"","type":"address[]","internalType":"address[]"},{"name":"","type":"uint256[]","internalType":"uint256[]"},{"name":"","type":"bytes[]","internalType":"bytes[]"},{"name":"","type":"bytes32","internalType":"bytes32"}],"stateMutability":"view"},{"type":"function","name":"proposalEta","inputs":[{"name":"proposalId","type":"uint256","internalType":"uint256"}],"outputs":[{"name":"","type":"uint256","internalType":"uint256"}],"stateMutability":"view"},{"type":"function","name":"proposalNeedsQueuing","inputs":[{"name":"","type":"uint256","internalType":"uint256"}],"outputs":[{"name":"","type":"bool","internalType":"bool"}],"stateMutability":"view"},{"type":"function","name":"proposalProposer","inputs":[{"name":"proposalId","type":"uint256","internalType":"uint256"}],"outputs":[{"name":"","type":"address","internalType":"address"}],"stateMutability":"view"},{"type":"function","name":"proposalSnapshot","inputs":[{"name":"proposalId","type":"uint256","internalType":"uint256"}],"outputs":[{"name":"","type":"uint256","internalType":"uint256"}],"stateMutability":"view"},{"type":"function","name":"proposalThreshold","inputs":[],"outputs":[{"name":"","type":"uint256","internalType":"uint256"}],"stateMutability":"view"},{"type":"function","name":"proposalVotes","inputs":[{"name":"proposalId","type":"uint256","internalType":"uint256"}],"outputs":[{"name":"againstVotes","type":"uint256","internalType":"uint256"},{"name":"forVotes","type":"uint256","internalType":"uint256"},{"name":"abstainVotes","type":"uint256","internalType":"uint256"}],"stateMutability":"view"},{"type":"function","name":"propose","inputs":[{"name":"targets","type":"address[]","internalType":"address[]"},{"name":"values","type":"uint256[]","internalType":"uint256[]"},{"name":"calldatas","type":"bytes[]","internalType":"bytes[]"},{"name":"description","type":"string","internalType":"string"}],"outputs":[{"name":"","type":"uint256","internalType":"uint256"}],"stateMutability":"nonpayable"},{"type":"function","name":"queue","inputs":[{"name":"targets","type":"address[]","internalType":"address[]"},{"name":"values","type":"uint256[]","internalType":"uint256[]"},{"name":"calldatas","type":"bytes[]","internalType":"bytes[]"},{"name":"descriptionHash","type":"bytes32","internalType":"bytes32"}],"outputs":[{"name":"","type":"uint256","internalType":"uint256"}],"stateMutability":"nonpayable"},{"type":"function","name":"queue","inputs":[{"name":"proposalId","type":"uint256","internalType":"uint256"}],"outputs":[],"stateMutability":"nonpayable"},{"type":"function","name":"quorum","inputs":[{"name":"blockNumber","type":"uint256","internalType":"uint256"}],"outputs":[{"name":"","type":"uint256","internalType":"uint256"}],"stateMutability":"view"},{"type":"function","name":"quorumDenominator","inputs":[],"outputs":[{"name":"","type":"uint256","internalType":"uint256"}],"stateMutability":"pure"},{"type":"function","name":"quorumNumerator","inputs":[{"name":"timepoint","type":"uint256","internalType":"uint256"}],"outputs":[{"name":"","type":"uint256","internalType":"uint256"}],"stateMutability":"view"},{"type":"function","name":"quorumNumerator","inputs":[],"outputs":[{"name":"","type":"uint256","internalType":"uint256"}],"stateMutability":"view"},{"type":"function","name":"relay","inputs":[{"name":"target","type":"address","internalType":"address"},{"name":"value","type":"uint256","internalType":"uint256"},{"name":"data","type":"bytes","internalType":"bytes"}],"outputs":[],"stateMutability":"payable"},{"type":"function","name":"scoreOf","inputs":[{"name":"account","type":"address","internalType":"address"}],"outputs":[{"name":"","type":"uint256","internalType":"uint256"}],"stateMutability":"view"},{"type":"function","name":"setProposalThreshold","inputs":[{"name":"newProposalThreshold","type":"uint256","internalType":"uint256"}],"outputs":[],"stateMutability":"nonpayable"},{"type":"function","name":"setVotingDelay","inputs":[{"name":"newVotingDelay","type":"uint48","internalType":"uint48"}],"outputs":[],"stateMutability":"nonpayable"},{"type":"function","name":"setVotingPeriod","inputs":[{"name":"newVotingPeriod","type":"uint32","internalType":"uint32"}],"outputs":[],"stateMutability":"nonpayable"},{"type":"function","name":"state","inputs":[{"name":"proposalId","type":"uint256","internalType":"uint256"}],"outputs":[{"name":"","type":"uint8","internalType":"enum IGovernor.ProposalState"}],"stateMutability":"view"},{"type":"function","name":"supportsInterface","inputs":[{"name":"interfaceId","type":"bytes4","internalType":"bytes4"}],"outputs":[{"name":"","type":"bool","internalType":"bool"}],"stateMutability":"view"},{"type":"function","name":"token","inputs":[],"outputs":[{"name":"","type":"address","internalType":"contract IERC5805"}],"stateMutability":"view"},{"type":"function","name":"totalScore","inputs":[],"outputs":[{"name":"","type":"uint256","internalType":"uint256"}],"stateMutability":"view"},{"type":"function","name":"updateQuorumNumerator","inputs":[{"name":"newQuorumNumerator","type":"uint256","internalType":"uint256"}],"outputs":[],"stateMutability":"nonpayable"},{"type":"function","name":"version","inputs":[],"outputs":[{"name":"","type":"string","internalType":"string"}],"stateMutability":"view"},{"type":"function","name":"votingDelay","inputs":[],"outputs":[{"name":"","type":"uint256","internalType":"uint256"}],"stateMutability":"view"},{"type":"function","name":"votingPeriod","inputs":[],"outputs":[{"name":"","type":"uint256","internalType":"uint256"}],"stateMutability":"view"},{"type":"event","name":"EIP712DomainChanged","inputs":[],"anonymous":false},{"type":"event","name":"Initialized","inputs":[{"name":"version","type":"uint64","indexed":false,"internalType":"uint64"}],"anonymous":false},{"type":"event","name":"ProposalCanceled","inputs":[{"name":"proposalId","type":"uint256","indexed":false,"internalType":"uint256"}],"anonymous":false},{"type":"event","name":"ProposalCreated","inputs":[{"name":"proposalId","type":"uint256","indexed":false,"internalType":"uint256"},{"name":"proposer","type":"address","indexed":false,"internalType":"address"},{"name":"targets","type":"address[]","indexed":false,"internalType":"address[]"},{"name":"values","type":"uint256[]","indexed":false,"internalType":"uint256[]"},{"name":"signatures","type":"string[]","indexed":false,"internalType":"string[]"},{"name":"calldatas","type":"bytes[]","indexed":false,"internalType":"bytes[]"},{"name":"voteStart","type":"uint256","indexed":false,"internalType":"uint256"},{"name":"voteEnd","type":"uint256","indexed":false,"internalType":"uint256"},{"name":"description","type":"string","indexed":false,"internalType":"string"}],"anonymous":false},{"type":"event","name":"ProposalExecuted","inputs":[{"name":"proposalId","type":"uint256","indexed":false,"internalType":"uint256"}],"anonymous":false},{"type":"event","name":"ProposalQueued","inputs":[{"name":"proposalId","type":"uint256","indexed":false,"internalType":"uint256"},{"name":"etaSeconds","type":"uint256","indexed":false,"internalType":"uint256"}],"anonymous":false},{"type":"event","name":"ProposalThresholdSet","inputs":[{"name":"oldProposalThreshold","type":"uint256","indexed":false,"internalType":"uint256"},{"name":"newProposalThreshold","type":"uint256","indexed":false,"internalType":"uint256"}],"anonymous":false},{"type":"event","name":"QuorumNumeratorUpdated","inputs":[{"name":"oldQuorumNumerator","type":"uint256","indexed":false,"internalType":"uint256"},{"name":"newQuorumNumerator","type":"uint256","indexed":false,"internalType":"uint256"}],"anonymous":false},{"type":"event","name":"ValidatorEloRating","inputs":[{"name":"proposalId","type":"uint256","indexed":false,"internalType":"uint256"},{"name":"voter","type":"address","indexed":false,"internalType":"address"},{"name":"score","type":"uint256","indexed":false,"internalType":"uint256"},{"name":"votes","type":"uint8[]","indexed":false,"internalType":"uint8[]"}],"anonymous":false},{"type":"event","name":"VoteCast","inputs":[{"name":"voter","type":"address","indexed":true,"internalType":"address"},{"name":"proposalId","type":"uint256","indexed":false,"internalType":"uint256"},{"name":"support","type":"uint8","indexed":false,"internalType":"uint8"},{"name":"weight","type":"uint256","indexed":false,"internalType":"uint256"},{"name":"reason","type":"string","indexed":false,"internalType":"string"}],"anonymous":false},{"type":"event","name":"VoteCastWithParams","inputs":[{"name":"voter","type":"address","indexed":true,"internalType":"address"},{"name":"proposalId","type":"uint256","indexed":false,"internalType":"uint256"},{"name":"support","type":"uint8","indexed":false,"internalType":"uint8"},{"name":"weight","type":"uint256","indexed":false,"internalType":"uint256"},{"name":"reason","type":"string","indexed":false,"internalType":"string"},{"name":"params","type":"bytes","indexed":false,"internalType":"bytes"}],"anonymous":false},{"type":"event","name":"VotingDelaySet","inputs":[{"name":"oldVotingDelay","type":"uint256","indexed":false,"internalType":"uint256"},{"name":"newVotingDelay","type":"uint256","indexed":false,"internalType":"uint256"}],"anonymous":false},{"type":"event","name":"VotingPeriodSet","inputs":[{"name":"oldVotingPeriod","type":"uint256","indexed":false,"internalType":"uint256"},{"name":"newVotingPeriod","type":"uint256","indexed":false,"internalType":"uint256"}],"anonymous":false},{"type":"error","name":"CheckpointUnorderedInsertion","inputs":[]},{"type":"error","name":"ERC5805FutureLookup","inputs":[{"name":"timepoint","type":"uint256","internalType":"uint256"},{"name":"clock","type":"uint48","internalType":"uint48"}]},{"type":"error","name":"FailedInnerCall","inputs":[]},{"type":"error","name":"GovernorAlreadyCastVote","inputs":[{"name":"voter","type":"address","internalType":"address"}]},{"type":"error","name":"GovernorAlreadyQueuedProposal","inputs":[{"name":"proposalId","type":"uint256","internalType":"uint256"}]},{"type":"error","name":"GovernorDisabledDeposit","inputs":[]},{"type":"error","name":"GovernorInsufficientProposerVotes","inputs":[{"name":"proposer","type":"address","internalType":"address"},{"name":"votes","type":"uint256","internalType":"uint256"},{"name":"threshold","type":"uint256","internalType":"uint256"}]},{"type":"error","name":"GovernorInvalidProposalLength","inputs":[{"name":"targets","type":"uint256","internalType":"uint256"},{"name":"calldatas","type":"uint256","internalType":"uint256"},{"name":"values","type":"uint256","internalType":"uint256"}]},{"type":"error","name":"GovernorInvalidQuorumFraction","inputs":[{"name":"quorumNumerator","type":"uint256","internalType":"uint256"},{"name":"quorumDenominator","type":"uint256","internalType":"uint256"}]},{"type":"error","name":"GovernorInvalidSignature","inputs":[{"name":"voter","type":"address","internalType":"address"}]},{"type":"error","name":"GovernorInvalidVoteType","inputs":[]},{"type":"error","name":"GovernorInvalidVotingPeriod","inputs":[{"name":"votingPeriod","type":"uint256","internalType":"uint256"}]},{"type":"error","name":"GovernorNonexistentProposal","inputs":[{"name":"proposalId","type":"uint256","internalType":"uint256"}]},{"type":"error","name":"GovernorNotQueuedProposal","inputs":[{"name":"proposalId","type":"uint256","internalType":"uint256"}]},{"type":"error","name":"GovernorOnlyExecutor","inputs":[{"name":"account","type":"address","internalType":"address"}]},{"type":"error","name":"GovernorOnlyProposer","inputs":[{"name":"account","type":"address","internalType":"address"}]},{"type":"error","name":"GovernorQueueNotImplemented","inputs":[]},{"type":"error","name":"GovernorRestrictedProposer","inputs":[{"name":"proposer","type":"address","internalType":"address"}]},{"type":"error","name":"GovernorUnexpectedProposalState","inputs":[{"name":"proposalId","type":"uint256","internalType":"uint256"},{"name":"current","type":"uint8","internalType":"enum IGovernor.ProposalState"},{"name":"expectedStates","type":"bytes32","internalType":"bytes32"}]},{"type":"error","name":"InvalidAccountNonce","inputs":[{"name":"account","type":"address","internalType":"address"},{"name":"currentNonce","type":"uint256","internalType":"uint256"}]},{"type":"error","name":"InvalidInitialization","inputs":[]},{"type":"error","name":"NotInitializing","inputs":[]},{"type":"error","name":"QueueEmpty","inputs":[]},{"type":"error","name":"QueueFull","inputs":[]},{"type":"error","name":"SafeCastOverflowedUintDowncast","inputs":[{"name":"bits","type":"uint8","internalType":"uint8"},{"name":"value","type":"uint256","internalType":"uint256"}]}],"bytecode":{"object":"0x6080806040523460d2577ff0c57e16840df040f15088dc2f81fe391c3923bec73e23a9662efc9c229c6a005460ff8160401c1660c1576002600160401b03196001600160401b03821601605c575b60405161558490816100d88239f35b6001600160401b0319166001600160401b039081177ff0c57e16840df040f15088dc2f81fe391c3923bec73e23a9662efc9c229c6a005581527fc7f505b2f371ae2175ee4913f4499e1f2633a7b5936321eed1cdaeb6115181d290602090a13880604d565b63f92ee8a960e01b60005260046000fd5b600080fdfe6080604052600436101561001b575b361561001957600080fd5b005b60003560e01c806301ffc9a7146103ab57806302a251a3146103a657806306f3f9e6146103a157806306fdde031461039c578063133af45614610397578063143489d014610392578063150b7a021461038d578063160cbed71461038857806316e9eaec14610383578063209e1f0d1461037e5780632656227d146103795780632d63f693146103745780632e82db941461036f5780632fe3e2611461036a5780633932abb1146103655780633e4f49e61461036057806340e58ee51461035b5780634385963214610356578063452115d6146103515780634bf5d7e91461034c578063544ffc9c1461034757806354fd4d5014610342578063567813881461033d5780635b8d0e0d146103385780635f398a141461033357806360c4247f1461032e578063718f7cd41461032957806379051887146103245780637b3c71d31461031f5780637d5e81e21461031a5780637ecebe00146103155780637f1e7d411461031057806384b0196e1461030b5780638ff262e31461030657806391ddadf41461030157806397c3d334146102fc5780639a802a6d146102f7578063a7713a70146102f2578063a9a95294146102ed578063ab58fb8e146102e8578063b58131b0146102e3578063bc197c81146102de578063c006719f146102d9578063c01f9e37146102d4578063c28bc2fa146102cf578063c59057e4146102ca578063da35c664146102c5578063dd4e2ba5146102c0578063ddf0b009146102bb578063deaaa7cc146102b6578063e540d01d146102b1578063eb9019d4146102ac578063ece40cc1146102a7578063f23a6e61146102a2578063f8ce560a1461029d578063fc0c546a146102985763fe0d94c10361000e57611d78565b611d42565b611c92565b611c39565b611c15565b611b5d565b611b2b565b611af0565b611a9b565b611a3c565b611a11565b6119f5565b611989565b61196b565b61194d565b6118b4565b611889565b611847565b61182b565b611808565b61172e565b611711565b6116e6565b6115a9565b6114c1565b6113ec565b611390565b6112f3565b61129b565b61126e565b6110a2565b611071565b610ff6565b610f4d565b610ee2565b610ebb565b610e6e565b610e3e565b610e22565b610dee565b610d8f565b610d60565b610d04565b610cc9565b610c0d565b610bef565b610bd8565b610b3d565b610b0e565b6109ee565b6107cd565b6106b6565b610664565b61055c565b610458565b61041e565b346104195760203660031901126104195760043563ffffffff60e01b8116809103610419576020906332a2ad4360e11b8114908115610408575b81156103f7575b506040519015158152f35b6301ffc9a760e01b149050386103ec565b630271189760e51b811491506103e5565b600080fd5b3461041957600036600319011261041957602061045063ffffffff6000805160206153ef8339815191525460301c1690565b604051908152f35b3461041957602036600319011261041957600435610474612d62565b61271081116104e6577f0553476bf02ef2726e8ce5ced78d63e26e602e4a2257b1f559418e24b4633997906001600160d01b036104af612d80565b166104ca6104bb612b52565b6104c484613ac6565b90614b08565b505060408051918252602082019290925290819081015b0390a1005b63243e544560e01b60005260045261271060245260446000fd5b60005b8381106105135750506000910152565b8181015183820152602001610503565b9060209161053c81518092818552858086019101610500565b601f01601f1916010190565b906020610559928181520190610523565b90565b3461041957600036600319011261041957604051600060008051602061550f8339815191525461058b81611d8f565b808452906001811690811561062f57506001146105c3575b6105bf836105b38185038261071a565b60405191829182610548565b0390f35b60008051602061550f83398151915260009081527fda13dda7583a39a3cd73e8830529c760837228fa4683752c823b17e10548aad5939250905b808210610615575090915081016020016105b36105a3565b9192600181602092548385880101520191019092916105fd565b60ff191660208086019190915291151560051b840190910191506105b390506105a3565b6001600160a01b0381160361041957565b346104195760203660031901126104195760043561068181610653565b6001600160a01b031660009081526001602090815260409091206001600160d01b03906106ad90612de1565b16604051908152f35b346104195760203660031901126104195760043560009081526000805160206153cf83398151915260209081526040909120546001600160a01b03166040516001600160a01b039091168152f35b634e487b7160e01b600052604160045260246000fd5b90601f801991011681019081106001600160401b0382111761073b57604052565b610704565b6040519061074f60808361071a565b565b6040519061074f60408361071a565b6001600160401b03811161073b57601f01601f191660200190565b92919261078782610760565b91610795604051938461071a565b829481845281830111610419578281602093846000960137010152565b9080601f83011215610419578160206105599335910161077b565b34610419576080366003190112610419576107e9600435610653565b6107f4602435610653565b6064356001600160401b038111610419576108139036906004016107b2565b50604051630a85bd0160e11b8152602090f35b6001600160401b03811161073b5760051b60200190565b9080601f8301121561041957813561085481610826565b92610862604051948561071a565b81845260208085019260051b82010192831161041957602001905b82821061088a5750505090565b60208091833561089981610653565b81520191019061087d565b9080601f830112156104195781356108bb81610826565b926108c9604051948561071a565b81845260208085019260051b82010192831161041957602001905b8282106108f15750505090565b81358152602091820191016108e4565b9080601f8301121561041957813561091881610826565b92610926604051948561071a565b81845260208085019260051b820101918383116104195760208201905b83821061095257505050505090565b81356001600160401b03811161041957602091610974878480948801016107b2565b815201910190610943565b6080600319820112610419576004356001600160401b03811161041957816109a99160040161083d565b916024356001600160401b03811161041957826109c8916004016108a4565b91604435906001600160401b038211610419576109e791600401610901565b9060643590565b34610419576109fc3661097f565b92919091611de6565b906020808351928381520192019060005b818110610a235750505090565b82516001600160a01b0316845260209384019390920191600101610a16565b906020808351928381520192019060005b818110610a605750505090565b8251845260209384019390920191600101610a53565b9080602083519182815201916020808360051b8301019401926000915b838310610aa257505050505090565b9091929394602080610ac0600193601f198682030187528951610523565b97019301930191939290610a93565b949392610afb606093610aed610b099460808a5260808a0190610a05565b9088820360208a0152610a42565b908682036040880152610a76565b930152565b34610419576020366003190112610419576105bf610b2d600435611f8d565b9060409492945194859485610acf565b3461041957604036600319011261041957600435610b5a81610653565b60243565ffffffffffff610b6c612b52565b169182821015610bc0576001600160a01b031660009081526001602052604090206105bf92506001600160d01b0391610baf9190610ba990612f43565b90612f8f565b604051911681529081906020820190565b50637669fc0f60e11b60005260045260245260446000fd5b6020610450610be63661097f565b92919091612058565b34610419576020366003190112610419576020610450600435612195565b346104195760203660031901126104195760043560008051602061542f83398151915254811015610cc457610cac9060008051602061542f8339815191526000527f417ab5363cd721cbd7a5446b963bb4274a7db26ef2bb28819834095c165ca17a0154610cba610c7d82611f8d565b9392959091610c9e604051978897885260a0602089015260a0880190610a05565b908682036040880152610a42565b908482036060860152610a76565b9060808301520390f35b61202e565b346104195760003660031901126104195760206040517f3e83946653575f9a39005e1545185629e92736b7528ab20ca3816f315424a8118152f35b3461041957600036600319011261041957602065ffffffffffff6000805160206153ef8339815191525416604051908152f35b634e487b7160e01b600052602160045260246000fd5b6008811015610d5b57602452565b610d37565b3461041957602036600319011261041957610d7c6004356121d9565b6040516008821015610d5b576020918152f35b34610419576020366003190112610419576004356000526000805160206154cf8339815191526020526100196040600020600381015490610dcf81611e0c565b90610de86002610de160018401611e60565b9201611eab565b916122eb565b34610419576040366003190112610419576020610e18602435600435610e1382610653565b6122b8565b6040519015158152f35b34610419576020610450610e353661097f565b929190916122eb565b34610419576000366003190112610419576105bf610e5a6123f4565b604051918291602083526020830190610523565b34610419576020366003190112610419576060610ea860043560005260006020526040600020908154906002600184015493015491929190565b9060405192835260208301526040820152f35b34610419576000366003190112610419576105bf610e5a6124c5565b60ff81160361041957565b34610419576040366003190112610419576020610450600435602435610f0781610ed7565b60405191610f15858461071a565b600083523390613233565b9181601f84011215610419578235916001600160401b038311610419576020838186019501011161041957565b346104195760c036600319011261041957602435600435610f6d82610ed7565b60443590610f7a82610653565b6064356001600160401b03811161041957610f99903690600401610f20565b6084356001600160401b03811161041957610fb89036906004016107b2565b9160a435946001600160401b038611610419576105bf96610fe0610fe69736906004016107b2565b956124e4565b6040519081529081906020820190565b346104195760803660031901126104195760243560043561101682610ed7565b6044356001600160401b03811161041957611035903690600401610f20565b9091606435936001600160401b03851161041957611069610fe6946110616105bf9736906004016107b2565b94369161077b565b9133906133d2565b34610419576020366003190112610419576020610450600435612632565b6084359063ffffffff8216820361041957565b346104195760a0366003190112610419576004356001600160401b038111610419576110d29036906004016107b2565b602435906110df82610653565b6044356110eb81610653565b6064356110f661108f565b9160008051602061552f83398151915254946001600160401b036111356111286111248960ff9060401c1690565b1590565b976001600160401b031690565b1680159081611256575b600114908161124c575b159081611243575b5061123257611196948661118d60016001600160401b031960008051602061552f83398151915254161760008051602061552f83398151915255565b6111fb5761278a565b61119c57005b6111c860ff60401b1960008051602061552f833981519152541660008051602061552f83398151915255565b604051600181527fc7f505b2f371ae2175ee4913f4499e1f2633a7b5936321eed1cdaeb6115181d29080602081016104e1565b61122d600160401b60ff60401b1960008051602061552f83398151915254161760008051602061552f83398151915255565b61278a565b63f92ee8a960e01b60005260046000fd5b90501538611151565b303b159150611149565b87915061113f565b65ffffffffffff81160361041957565b346104195760203660031901126104195761001960043561128e8161125e565b611296612d62565b6136ca565b34610419576060366003190112610419576024356004356112bb82610ed7565b604435906001600160401b038211610419576020926112eb6112e4610450943690600401610f20565b369161077b565b913390613233565b34610419576080366003190112610419576004356001600160401b0381116104195761132390369060040161083d565b6024356001600160401b038111610419576113429036906004016108a4565b906044356001600160401b03811161041957611362903690600401610901565b90606435916001600160401b038311610419576105bf9361138a610fe69436906004016107b2565b926129bc565b34610419576020366003190112610419576004356113ad81610653565b60018060a01b03166000527f5ab42ced628888259c08ac98db1eb0cf702fc1501344311d8b100cd1bfe4bb006020526020604060002054604051908152f35b346104195760203660031901126104195761143f6004356114288160005260006020526040600020908154906002600184015493015491929190565b509190506000526002602052604060002054612b32565b806127101060001461145957506020612710604051908152f35b602090610450565b916114969061148861055997959693600f60f81b865260e0602087015260e0860190610523565b908482036040860152610523565b60608301949094526001600160a01b03166080820152600060a082015280830360c090910152610a42565b34610419576000366003190112610419577fa16a46d94261c7517cc8ff89f61c0ce93598e3c849801011dee649a6a557d100541580611580575b156115435761150861381c565b6115106138eb565b906105bf602060405190611524818361071a565b60008252601f1981019036908301376040519384933091469186611461565b60405162461bcd60e51b81526020600482015260156024820152741152540dcc4c8e88155b9a5b9a5d1a585b1a5e9959605a1b6044820152606490fd5b507fa16a46d94261c7517cc8ff89f61c0ce93598e3c849801011dee649a6a557d10154156114fb565b34610419576080366003190112610419576024356004356115c982610ed7565b604435916115d683610653565b6064356001600160401b038111610419576111246115fb6116a99236906004016107b2565b6001600160a01b03861660009081527f5ab42ced628888259c08ac98db1eb0cf702fc1501344311d8b100cd1bfe4bb00602052604090208054600181019091556116a39060405160208101917ff2aad550cf55f045cb27e9c559f9889fdfb6e6cdaa032301d6ea397784ae51d7835288604083015260ff8816606083015260018060a01b038a16608083015260a082015260a0815261169b60c08261071a565b519020613251565b866132dd565b6116c45790610fe6916105bf936116be6123a4565b92613233565b6394ab6c0760e01b6000526001600160a01b03831660045260246000fd5b6000fd5b34610419576000366003190112610419576020611701612b52565b65ffffffffffff60405191168152f35b346104195760003660031901126104195760206040516127108152f35b346104195760603660031901126104195760043561174b81610653565b6044356024356001600160401b0382116104195761176f60209236906004016107b2565b5060008051602061548f83398151915254604051630748d63560e31b81526001600160a01b0394851660048201526024810192909252909283916044918391165afa8015611803576105bf916000916117d4575b506040519081529081906020820190565b6117f6915060203d6020116117fc575b6117ee818361071a565b8101906121be565b386117c3565b503d6117e4565b6121cd565b346104195760003660031901126104195760206001600160d01b036106ad612d80565b3461041957602036600319011261041957602060405160008152f35b346104195760203660031901126104195760206104506004356000526000805160206153cf83398151915260205265ffffffffffff6001604060002001541690565b346104195760003660031901126104195760206000805160206154af83398151915254604051908152f35b346104195760a0366003190112610419576118d0600435610653565b6118db602435610653565b6044356001600160401b038111610419576118fa9036906004016108a4565b506064356001600160401b0381116104195761191a9036906004016108a4565b506084356001600160401b0381116104195761193a9036906004016107b2565b5060405163bc197c8160e01b8152602090f35b34610419576000366003190112610419576020600354604051908152f35b34610419576020366003190112610419576020610450600435612bda565b6060366003190112610419576004356119a181610653565b6024356044356001600160401b03811161041957610019926000926119cb84933690600401610f20565b91906119d5612d62565b826040519384928337810185815203925af16119ef612c3f565b9061399a565b34610419576020610450611a083661097f565b92919091612c6f565b3461041957600036600319011261041957602060008051602061542f83398151915254604051908152f35b34610419576000366003190112610419576105bf6040805190611a5f818361071a565b602082527f737570706f72743d627261766f2671756f72756d3d666f722c6162737461696e602083015251918291602083526020830190610523565b34610419576020366003190112610419576004356000526000805160206154cf8339815191526020526040600020600381015490611ad881611e0c565b90611aea6002610de160018401611e60565b91611de6565b346104195760003660031901126104195760206040517ff2aad550cf55f045cb27e9c559f9889fdfb6e6cdaa032301d6ea397784ae51d78152f35b346104195760203660031901126104195760043563ffffffff811681036104195761001990611b58612d62565b6139c2565b3461041957604036600319011261041957600435611b7a81610653565b60243590602080926000604051611b91848261071a565b5260008051602061548f83398151915254604051630748d63560e31b81526001600160a01b0394851660048201526024810192909252909283916044918391165afa908115611803576105bf92600092611bf8575b50506040519081529081906020820190565b611c0e9250803d106117fc576117ee818361071a565b3880611be6565b3461041957602036600319011261041957610019600435611c34612d62565b613a60565b346104195760a036600319011261041957611c55600435610653565b611c60602435610653565b6084356001600160401b03811161041957611c7f9036906004016107b2565b5060405163f23a6e6160e01b8152602090f35b3461041957602036600319011261041957602460043560008051602061548f83398151915254604051632394e7a360e21b8152600481018390529260209184919082906001600160a01b03165afa918215611803576105bf9261271092611d0b92600092611d1d575b50611d0590612632565b90613ab3565b04604051918291829190602083019252565b611d05919250611d3b9060203d6020116117fc576117ee818361071a565b9190611cfb565b346104195760003660031901126104195760008051602061548f833981519152546040516001600160a01b039091168152602090f35b602036600319011261041957610019600435612d1b565b90600182811c92168015611dbf575b6020831014611da957565b634e487b7160e01b600052602260045260246000fd5b91607f1691611d9e565b6000526000805160206153cf833981519152602052604060002090565b91611dfa9391611df593612c6f565b612e3d565b50634844252360e11b60005260046000fd5b906040519182815491828252602082019060005260206000209260005b818110611e3e57505061074f9250038361071a565b84546001600160a01b0316835260019485019487945060209093019201611e29565b906040519182815491828252602082019060005260206000209260005b818110611e9257505061074f9250038361071a565b8454835260019485019487945060209093019201611e7d565b90815491611eb883610826565b92611ec6604051948561071a565b80845260208401916000526020600020916000905b828210611ee85750505050565b60405160008554611ef881611d8f565b8084529060018116908115611f6a5750600114611f32575b5060019282611f248594602094038261071a565b815201940191019092611edb565b6000878152602081209092505b818310611f5457505081016020016001611f10565b6001816020925483868801015201920191611f3f565b60ff191660208581019190915291151560051b8401909101915060019050611f10565b806000526000805160206154cf83398151915260205260406000209160405190608082018281106001600160401b0382111761073b57604052611fcf84611e0c565b8252611fdd60018501611e60565b91602081019283526003611ff360028701611eab565b956040830196875201549360608201948086521561201a5750519151935192519193929190565b636ad0607560e01b60005260045260246000fd5b634e487b7160e01b600052603260045260246000fd5b8051821015610cc45760209160051b010190565b91909261206790828585612c6f565b92602092612076603086612f03565b5061209661208386611dc9565b805460ff60f01b1916600160f01b179055565b6000935b50906120a692916130d4565b806120f7575b6120e0575b6040518181527f712ae1383f79ac853f8d882153778e0260ef8f03b504e2866e0593e04d2b291f90602090a190565b60006000805160206154ef833981519152556120b1565b506121206111246000805160206154ef833981519152546001600160801b0381169060801c1490565b6120ac565b8451811015612185576001903061215b61214f612142848a612044565b516001600160a01b031690565b6001600160a01b031690565b14612167575b01612125565b6121806121748289612044565b518a815191012061302b565b612161565b50919550939092916120a661209a565b6000526000805160206153cf83398151915260205265ffffffffffff60406000205460a01c1690565b90816020910312610419575190565b6040513d6000823e3d90fd5b6121e281613137565b906008821015610d5b57600182146121f8575090565b8060206122236122759360005260006020526040600020908154906002600184015493015491929190565b5060008051602061548f83398151915254909391506122549061224e906001600160a01b031661214f565b91612195565b906040518080968194632394e7a360e21b8352600483019190602083019252565b03915afa91821561180357600092612297575b50146122915790565b50600490565b6122b191925060203d6020116117fc576117ee818361071a565b9038612288565b60ff916122e691600052600060205260036040600020019060018060a01b0316600052602052604060002090565b541690565b9291906122fa83838387612c6f565b61230381612e7f565b5060009081526000805160206153cf83398151915260205260409020546001600160a01b0316330361238f5761233893612c6f565b612343603b82612f03565b5061234d81611dc9565b80546001600160f81b0316600160f81b1790556040518181527f789cf55be980739dad1d0699b93b58e806b51c9d96619bfa8fe0a28abaa7b30c90602090a190565b63233d98e360e01b6000523360045260246000fd5b604051906123b360208361071a565b60008252565b604051906123c860408361071a565b601d82527f6d6f64653d626c6f636b6e756d6265722666726f6d3d64656661756c740000006020830152565b60008051602061548f83398151915254604051634bf5d7e960e01b815290600090829060049082906001600160a01b03165afa6000918161243e575b5061055957506105596123b9565b90913d8082843e61244f818461071a565b8201916020818403126124bd578051906001600160401b0382116124c1570182601f820112156124bd5780519161248583610760565b93612493604051958661071a565b838552602084840101116124ba5750906124b39160208085019101610500565b9038612430565b80fd5b5080fd5b8280fd5b604051906124d460408361071a565b60018252603160f81b6020830152565b9390929196956111246125c0916125ba8a6125398160018060a01b03166000527f5ab42ced628888259c08ac98db1eb0cf702fc1501344311d8b100cd1bfe4bb00602052604060002080549060018201905590565b61254436888a61077b565b602081519101208b5160208d0120906040519260208401947f3e83946653575f9a39005e1545185629e92736b7528ab20ca3816f315424a81186528d604086015260ff8d16606086015260018060a01b0316608085015260a084015260c083015260e082015260e0815261169b6101008261071a565b8a6132dd565b6125db576105599596916125d591369161077b565b926133d2565b6394ab6c0760e01b6000526001600160a01b03871660045260246000fd5b634e487b7160e01b600052601160045260246000fd5b60001981019190821161261e57565b6125f9565b60271981019190821161261e57565b60008051602061540f83398151915254600019810181811161261e57811115610cc4577f293b0181c8ec34cd3252e741689bdc21b70ee7a0ec76216439035a5c3718909a9060008051602061540f8339815191526000520154908065ffffffffffff83161115612783576126a69150612f43565b60009060008051602061540f833981519152549082829160058411612721575b6126df935060008051602061540f833981519152613c6e565b806126f257505b6001600160d01b031690565b90602061270161271c9361260f565b9160008051602061540f833981519152815220015460301c90565b6126e6565b919261272c81613af9565b810390811161261e576126df9360008051602061540f833981519152865265ffffffffffff826020882001541665ffffffffffff8516106000146127715750916126c6565b92915061277d90612f74565b906126c6565b5060301c90565b949392909192612798614159565b6127a06124c5565b6127a8614159565b86516001600160401b03811161073b576127d9816127d460008051602061544f83398151915254611d8f565b61419e565b6020601f82116001146128d85761074f979861283261289b97969461281d8561288e9896612889966000916128cd575b508160011b916000199060031b1c19161790565b60008051602061544f83398151915255614271565b61285b60007fa16a46d94261c7517cc8ff89f61c0ce93598e3c849801011dee649a6a557d10055565b61288460007fa16a46d94261c7517cc8ff89f61c0ce93598e3c849801011dee649a6a557d10155565b61439a565b6135f0565b612896614159565b613612565b6128a361365e565b6128ab614159565b60018060a01b03166bffffffffffffffffffffffff60a01b6004541617600455565b905085015138612809565b60008051602061544f833981519152600052601f198216907f42ad5d3e1f2e6e70edcf6d991b8a3023d3fca8047a131592f9edb9fd9b89d57d9160005b818110612972575061289b9796946001856128899561074f9d9e9561288e9a986128329610612959575b5050811b0160008051602061544f83398151915255614271565b86015160001960f88460031b161c19169055388061293f565b9192602060018192868f015181550194019201612915565b65ffffffffffff6000199116019065ffffffffffff821161261e57565b90816020910312610419575161055981610653565b91939290936129ce6111248333613752565b612b1d576129f96129f36129e86129e3612b52565b61298a565b65ffffffffffff1690565b33612c9d565b94612a106000805160206154af8339815191525490565b60048054602090612a2b9061214f906001600160a01b031681565b604051634d3f464760e11b815292839182905afa90811561180357600091612afe575b508188109081612a89575b50612a6c57506105599495503393614864565b636121770b60e11b60005233600452602487905260445260646000fd5b604051636e9960c360e01b81529150602090829060049082906001600160a01b03165afa90811561180357600091612acf575b506001600160a01b031633141538612a59565b612af1915060203d602011612af7575b612ae9818361071a565b8101906129a7565b38612abc565b503d612adf565b612b17915060203d602011612af757612ae9818361071a565b38612a4e565b63d9b3955760e01b6000523360045260246000fd5b8115612b3c570490565b634e487b7160e01b600052601260045260246000fd5b60008051602061548f833981519152546040516324776b7d60e21b815290602090829060049082906001600160a01b03165afa60009181612b9d575b50610559575061055943612f43565b9091506020813d602011612bd2575b81612bb96020938361071a565b810103126104195751612bcb8161125e565b9038612b8e565b3d9150612bac565b806000526000805160206153cf83398151915260205265ffffffffffff60406000205460a01c16906000526000805160206153cf83398151915260205263ffffffff60406000205460d01c160165ffffffffffff811161261e5765ffffffffffff1690565b3d15612c6a573d90612c5082610760565b91612c5e604051938461071a565b82523d6000602084013e565b606090565b9290612c89612c9792604051948593602085019788610acf565b03601f19810183528261071a565b51902090565b602080926000604051612cb0848261071a565b5260008051602061548f83398151915254604051630748d63560e31b81526001600160a01b0394851660048201526024810192909252909283916044918391165afa91821561180357600092612d0557505090565b6105599250803d106117fc576117ee818361071a565b6000526000805160206154cf833981519152602052612d5f6040600020600381015490612d4781611e0c565b90612d596002610de160018401611e60565b91612058565b50565b333003612d6b57565b6347096e4760e01b6000523360045260246000fd5b60008051602061540f8339815191525480612d9b5750600090565b8060001981011161261e5760008051602061540f8339815191526000527f293b0181c8ec34cd3252e741689bdc21b70ee7a0ec76216439035a5c3718909a015460301c90565b80549081612df0575050600090565b8160001981011161261e5760005260001990602060002001015460301c90565b6008811015610d5b5760ff600191161b90565b600452606491906008811015610d5b576024526000604452565b612e46816121d9565b906010612e5283612e10565b1615612e5c575090565b6331b75e4d60e01b600052600452612e749150610d4d565b601060445260646000fd5b612e88816121d9565b906001612e9483612e10565b1615612e9e575090565b6331b75e4d60e01b600052600452612eb69150610d4d565b600160445260646000fd5b612eca816121d9565b906002612ed683612e10565b1615612ee0575090565b6331b75e4d60e01b600052600452612ef89150610d4d565b600260445260646000fd5b90612f0d826121d9565b9181612f1884612e10565b1615612f2357505090565b6331b75e4d60e01b600052600452612f3a82610d4d565b60445260646000fd5b65ffffffffffff8111612f5b5765ffffffffffff1690565b6306dfcc6560e41b600052603060045260245260446000fd5b906001820180921161261e57565b9190820180921161261e57565b908154906000829160058411612fd5575b612fab935084613c6e565b6000919080612fbc57505050600090565b612fc59061260f565b9082526020909120015460301c90565b9192612fe081613af9565b810390811161261e57612fab938560005265ffffffffffff82602060002001541665ffffffffffff851610600014613019575091612fa0565b92915061302590612f74565b90612fa0565b6000805160206154ef83398151915254908160801c6001600160801b036001820193166001600160801b038416146130c3576000527f7c712897014dbe49c045ef1299aa2d5f9e67e48eea4403efa21f1e0f3ac0cb036020526040600020556001600160801b036000805160206154ef833981519152549181199082199060801b16169116176000805160206154ef83398151915255565b638acb5f2760e01b60005260046000fd5b92919260005b8151811015613130576001906131296000806001600160a01b036130fe8588612044565b511661310a8589612044565b5190613116868c612044565b5191602083519301915af16119ef612c3f565b50016130da565b5050509050565b61314081611dc9565b5460f881901c9060f01c60ff1661322c576132265761315e81612195565b80156132105761316f6129e8612b52565b809110156132095761318082612bda565b1061318b5750600190565b61319761112482613cd5565b80156131e4575b156131a95750600390565b6131d6906000526000805160206153cf83398151915260205265ffffffffffff6001604060002001541690565b6131df57600490565b600590565b506132046111248260005260006020526040600020600181015490541090565b61319e565b5050600090565b636ad0607560e01b600052600482905260246000fd5b50600290565b5050600790565b9161055993916040519361324860208661071a565b600085526133d2565b60429061325c6152f2565b61326461535c565b6040519060208201927f8b73c3c69bb8fe3d512ecc4cf759cc79239f7b179b0ffacaa9a75d522b39400f8452604083015260608201524660808201523060a082015260a081526132b560c08261071a565b519020906040519161190160f01b8352600283015260228201522090565b60041115610d5b57565b906132e88382613d61565b506132f5819592956132d3565b159384613395575b50831561330b575b50505090565b6000935090612c896133448594936040519283916020830195630b135d3f60e11b87526024840152604060448401526064830190610523565b51915afa613350612c3f565b81613387575b81613365575b50388080613305565b90506020818051810103126104195760200151630b135d3f60e11b143861335c565b905060208151101590613356565b6001600160a01b038481169116149350386132fd565b600019811461261e5760010190565b6001600160d01b039081166001019190821161261e57565b92936044946133e183866122b8565b906133eb86612ec1565b506133f586612195565b60008051602061548f83398151915254604051630748d63560e31b81526001600160a01b0387811660048301819052602483019490945290999293926020928b928391165afa978815611803576000986135bf575b509185939185936134618a60019960ff998c614ddc565b8589858c815115600014613584576134a39150937fb8e138887d0aa13bab447e82de9d5c1777041ecd21ca36ba824ff1e6c07ddda49460405194859485613dd7565b0390a25b1580613574575b6134c8575b505016146134bf575090565b610559906140b1565b6134db6134d66003546133ab565b600355565b6001600160a01b038216600090815260016020526040902061353d9061350043612f43565b61353761353261352d6126e66135288960018060a01b03166000526001602052604060002090565b612de1565b613ac6565b6133ba565b91614c70565b505086868251151580613569575b613557575b50506134b3565b61356093613efa565b38808686613550565b50868686161461354b565b5061357f82876122b8565b6134ae565b907fe2babfbac5889a709b63bb7f598b324e08bc5a4fb9ec647fb3cbc9ec07eb8712946135b79260405195869586613d9d565b0390a26134a7565b60ff9593919850916135e3600197959360203d6020116117fc576117ee818361071a565b989193955091939561344a565b90611c3461074f92613600614159565b613608614159565b611b5860006136ca565b61361a614159565b613622614159565b60018060a01b03166bffffffffffffffffffffffff60a01b60008051602061548f83398151915254161760008051602061548f83398151915255565b613666614159565b61366e614159565b7f0553476bf02ef2726e8ce5ced78d63e26e602e4a2257b1f559418e24b463399760406001600160d01b036136a1612d80565b166136b86136ad612b52565b6104c46113ec613ac6565b505081519081526113ec6020820152a1565b7fc565b045403dc03c2eea82b81a0465edad9e2e7fc4d97e11421c209da93d7a93604065ffffffffffff806000805160206153ef83398151915254169382519485521692836020820152a165ffffffffffff196000805160206153ef8339815191525416176000805160206153ef83398151915255565b908151811015610cc4570160200190565b8151603481106138025760131981840101516001600160a01b0319166b1b91f1b211f2119351b859f160a31b01613802579160009261379081612623565b915b8183106137ad575050506001600160a01b0391821691161490565b9091936137d36137ce6137c08785613741565b516001600160f81b03191690565b6144b0565b90156137f75760019160ff9060041b6010600160a01b031691161794019190613792565b505050505050600190565b505050600190565b9080821015613817575090565b905090565b60405160008051602061544f8339815191525481600061383b83611d8f565b80835292600181169081156138cc575060011461385f575b6105599250038261071a565b5060008051602061544f833981519152600090815290917f42ad5d3e1f2e6e70edcf6d991b8a3023d3fca8047a131592f9edb9fd9b89d57d5b8183106138b057505090602061055992820101613853565b6020919350806001915483858801015201910190918392613898565b6020925061055994915060ff191682840152151560051b820101613853565b60405160008051602061546f8339815191525481600061390a83611d8f565b80835292600181169081156138cc575060011461392d576105599250038261071a565b5060008051602061546f833981519152600090815290917f5f9ce34815f8e11431c7bb75a8e6886a91478f7ffc1dbb0a98dc240fddd76b755b81831061397e57505090602061055992820101613853565b6020919350806001915483858801015201910190918392613966565b90919061074f57508051156139b157805190602001fd5b630a12f52160e11b60005260046000fd5b63ffffffff8116908115613a4a5769ffffffff000000000000907f7e3f7f0708a84de9203036abaa450dccc85ad5ff52f78c170f3edb55cf5e882860406000805160206153ef833981519152549481519063ffffffff8760301c1682526020820152a160301b169069ffffffff0000000000001916176000805160206153ef83398151915255565b63f1cfbf0560e01b600052600060045260246000fd5b6000805160206154af8339815191525460408051918252602082018390527fccb45da8d5717e6c4544694297c4ba5cf151d455c9bb0ed4fc7a38411bc0546191a16000805160206154af83398151915255565b8181029291811591840414171561261e57565b6001600160d01b038111613ae0576001600160d01b031690565b6306dfcc6560e41b60005260d060045260245260446000fd5b8015613c685761055990613bfe613bf7613bed613be3613bd9613bcf613bc5613bbb6001613ba960008b608081901c80613c5a575b5080613b3d613b9f9260401c90565b80613c4d575b50613b4e8160201c90565b80613c40575b50613b5f8160101c90565b80613c33575b50613b708160081c90565b80613c26575b50613b818160041c90565b80613c19575b50613b928160021c90565b80613c0c575b5060011c90565b613c045760011c90565b1b613bb4818b612b32565b0160011c90565b613bb4818a612b32565b613bb48189612b32565b613bb48188612b32565b613bb48187612b32565b613bb48186612b32565b613bb48185612b32565b8092612b32565b9061380a565b820160011c90565b6002915092019138613b98565b6004915092019138613b87565b6008915092019138613b76565b6010915092019138613b65565b6020915092019138613b54565b6040915092019138613b43565b608092509050613b9f613b2e565b50600090565b91905b838210613c7e5750505090565b9091928083169080841860011c820180921161261e578460005265ffffffffffff82602060002001541665ffffffffffff841610600014613cc35750925b9190613c71565b939250613ccf90612f74565b91613cbc565b8060005260006020526024613cee604060002092612195565b60008051602061548f83398151915254604051632394e7a360e21b8152600481018390529260209184919082906001600160a01b03165afa91821561180357613d5c9261271092613d4a92600092611d1d5750611d0590612632565b04916002600182015491015490612f82565b101590565b8151919060418303613d9257613d8b92506020820151906060604084015193015160001a90614d53565b9192909190565b505060009160029190565b93909260ff613dc99361055997958752166020860152604085015260a0606085015260a0840190610523565b916080818403910152610523565b909260ff6080936105599695845216602083015260408201528160608201520190610523565b90816020910312610419575180151581036104195790565b602081830312610419578051906001600160401b03821161041957019080601f83011215610419578151613e4881610826565b92613e56604051948561071a565b81845260208085019260051b82010192831161041957602001905b828210613e7e5750505090565b602080918351613e8d81610ed7565b815201910190613e71565b906020808351928381520192019060005b818110613eb65750505090565b825160ff16845260209384019390920191600101613ea9565b90926080926105599594835260018060a01b0316602083015260408201528160608201520190613e98565b919260046020613f1661214f61214f845460018060a01b031690565b604051634d3f464760e11b815292839182905afa90811561180357600091614092575b506040516331a9108f60e11b8152600481018490526001600160a01b039190911690602081602481855afa90811561180357600091614073575b506001600160a01b03161561406c57604051638209c69960e01b81526004810184905290602090829060249082905afa9081156118035760009161403d575b5015614037577ff1cd7e1d668275f9d580c0adbf414afb0b7163a48f0bed7353f9cbab029b797593613ff08260208061403295518301019101613e15565b90614005613ffe8386614ee9565b9182613ab3565b61402461401c866000526002602052604060002090565b918254612f82565b905560405194859485613ecf565b0390a1565b50505050565b61405f915060203d602011614065575b614057818361071a565b810190613dfd565b38613fb2565b503d61404d565b5050505050565b61408c915060203d602011612af757612ae9818361071a565b38613f73565b6140ab915060203d602011612af757612ae9818361071a565b38613f39565b6140d68160005260006020526040600020908154906002600184015493015491929190565b5060008051602061548f833981519152546001600160a01b0316915060206140fd84612195565b602460405180958193632394e7a360e21b835260048301525afa91821561180357600092614138575b501461412f5750565b61074f90612d1b565b61415291925060203d6020116117fc576117ee818361071a565b9038614126565b60ff60008051602061552f8339815191525460401c161561417657565b631afcd79f60e31b60005260046000fd5b818110614192575050565b60008155600101614187565b90601f82116141ab575050565b61074f9160008051602061544f8339815191526000526020600020906020601f840160051c830193106141e6575b601f0160051c0190614187565b90915081906141d9565b90601f82116141fd575050565b61074f9160008051602061550f8339815191526000526020600020906020601f840160051c830193106141e657601f0160051c0190614187565b9190601f811161424657505050565b61074f926000526020600020906020601f840160051c830193106141e657601f0160051c0190614187565b9081516001600160401b03811161073b576142b28161429e60008051602061546f83398151915254611d8f565b60008051602061546f833981519152614237565b602092601f8211600114614301576142e4929382916000926142f6575b50508160011b916000199060031b1c19161790565b60008051602061546f83398151915255565b0151905038806142cf565b60008051602061546f833981519152600052601f198216937f5f9ce34815f8e11431c7bb75a8e6886a91478f7ffc1dbb0a98dc240fddd76b759160005b8681106143825750836001959610614369575b505050811b0160008051602061546f83398151915255565b015160001960f88460031b161c19169055388080614351565b9192602060018192868501518155019401920161433e565b906143a3614159565b81516001600160401b03811161073b576143d4816143cf60008051602061550f83398151915254611d8f565b6141f0565b602092601f821160011461441757614405929382916000926142f65750508160011b916000199060031b1c19161790565b60008051602061550f83398151915255565b60008051602061550f833981519152600052601f198216937fda13dda7583a39a3cd73e8830529c760837228fa4683752c823b17e10548aad59160005b868110614498575083600195961061447f575b505050811b0160008051602061550f83398151915255565b015160001960f88460031b161c19169055388080614467565b91926020600181928685015181550194019201614454565b60f81c9081602f1080614524575b156144d057600191602f190160ff1690565b816040108061451a575b156144ec576001916036190160ff1690565b8160601080614510575b15614508576001916056190160ff1690565b600091508190565b50606782106144f6565b50604782106144da565b50603a82106144be565b60008051602061542f83398151915254600160401b81101561073b576001810160008051602061542f8339815191525560008051602061542f83398151915254811015610cc45760008051602061542f8339815191526000527f417ab5363cd721cbd7a5446b963bb4274a7db26ef2bb28819834095c165ca17a0155565b918181106145b957505050565b61074f9260005260206000209182019101614187565b8151916001600160401b03831161073b57600160401b831161073b576020906145fd848454818655856145ac565b0190600052602060002060005b8381106146175750505050565b60019060208451940193818401550161460a565b91909182516001600160401b03811161073b576146528161464c8454611d8f565b84614237565b6020601f82116001146146875781906146839394956000926142f65750508160011b916000199060031b1c19161790565b9055565b601f1982169061469c84600052602060002090565b9160005b8181106146d8575095836001959697106146bf575b505050811b019055565b015160001960f88460031b161c191690553880806146b5565b9192602060018192868b0151815501940192016146a0565b815191600160401b831161073b57815483835580841061474d575b50602061471f910191600052602060002090565b6000915b8383106147305750505050565b60016020826147418394518661462b565b01920192019190614723565b8260005283602060002091820191015b81811061476a575061470b565b8061477760019254611d8f565b80614784575b500161475d565b601f8111831461479a5750600081555b3861477d565b6147be9083601f6147b085600052602060002090565b920160051c82019101614187565b60008181526020812081835555614794565b9080518051906001600160401b03821161073b57600160401b821161073b57602090614801838654818855876145ac565b0183600052602060002060005b838110614847575050505060608161482f60206003940151600186016145cf565b6148406040820151600286016146f0565b0151910155565b82516001600160a01b03168183015560209092019160010161480e565b91949394835161487c60208601918220838587612c6f565b948451845190818114801590614a7a575b8015614a72575b614a5357505065ffffffffffff6148bc6148ad88611dc9565b5460a01c65ffffffffffff1690565b16614a35577f7d84a6263ae0d98d3329bd7b46bb4e8d6f98cd35a7adb45c274c8b7fd5ebd5e0869798610559976149e584896149256148f9612b52565b65ffffffffffff61491e65ffffffffffff6000805160206153ef833981519152541690565b9116612f82565b8961494563ffffffff6000805160206153ef8339815191525460301c1690565b6149c361495188611dc9565b80546001600160a01b0319166001600160a01b038b1617815561499a61497686612f43565b825465ffffffffffff60a01b191660a09190911b65ffffffffffff60a01b16178255565b6149a3836153a1565b815463ffffffff60d01b191660d09190911b63ffffffff60d01b16179055565b8c6149d86149d186516151db565b9285612f82565b94604051998a998a615225565b0390a16149f18761452e565b519020916149fd610740565b938452602084015260408301526060820152614a30836000526000805160206154cf833981519152602052604060002090565b6147d0565b6116e286614a42816121d9565b6331b75e4d60e01b60005290612e23565b8451630447b05d60e41b60005260049190915260245260445260646000fd5b508015614894565b50845181141561488d565b805490600160401b82101561073b5760018201815560008154831015610cc4579081526020902001815160209092015160301b65ffffffffffff191665ffffffffffff92909216919091179055565b90604051604081018181106001600160401b0382111761073b57604052915465ffffffffffff8116835260301c6020830152565b60008051602061540f83398151915254919291908115614c465781614b75614b70614b3965ffffffffffff9561260f565b60008051602061540f8339815191526000527f293b0181c8ec34cd3252e741689bdc21b70ee7a0ec76216439035a5c3718909b0190565b614ad4565b90614b86825165ffffffffffff1690565b8484169485911611614c355785602093614be995614bad6129e8865165ffffffffffff1690565b03614bed5750614bc2614b39614bdb9361260f565b9065ffffffffffff82549181199060301b169116179055565b01516001600160d01b031690565b9190565b9050614c309150614c0d614bff610751565b65ffffffffffff9092168252565b6001600160d01b038716818501525b60008051602061540f833981519152614a85565b614bdb565b632520601d60e01b60005260046000fd5b614c6a9150614c56614bff610751565b6001600160d01b0384166020820152614c1c565b60009190565b805492939291908215614d2f57614c99614b70614c8c8561260f565b8360005260206000200190565b9065ffffffffffff614cb1835165ffffffffffff1690565b8185169182911611614c3557614be9946020948892614cd96129e8875165ffffffffffff1690565b03614cfc5750614bdb92614cef614bc29261260f565b9060005260206000200190565b915050614c3091614d1c614d0e610751565b65ffffffffffff9093168352565b6001600160d01b03881682860152614a85565b614c6a9250614d3f614d0e610751565b6001600160d01b0385166020830152614a85565b91907f7fffffffffffffffffffffffffffffff5d576e7357a4501ddfe92f46681b20a08411614dd0579160209360809260ff60009560405194855216868401526040830152606082015282805260015afa15611803576000516001600160a01b03811615614dc45790600090600090565b50600090600190600090565b50505060009160039190565b614df260ff916000526000602052604060002090565b92169060038214614037576001600160a01b038116600090815260038401602081905260409091205460ff16614e9f57614e4e91614e41919060018060a01b0316600052602052604060002090565b805460ff19166001179055565b80614e60575090614683908254612f82565b60018103614e78575060016146839101918254612f82565b600203614e8e5760026146839101918254612f82565b6303599be160e11b60005260046000fd5b6371c6af4960e01b6000526001600160a01b03821660045260246000fd5b90816020910312610419575161055981610ed7565b604090610559939281528160208201520190613e98565b600454909190614f039061214f906001600160a01b031681565b90604051634d3f464760e11b8152602081600481865afa908115611803576000916151bc575b5060405163b9f7fe5360e01b815290602082600481875afa9182156118035760009261519b575b5060405163ccc16f6960e01b81526004810186905294906001600160a01b0316602086602481845afa95861561180357600096615173575b506040516312903cd960e11b8152600481019290925260209082908180602481015b03915afa801561180357614ff992602092600092615144575b506040516387e2d55360e01b8152600481019790975260ff90911660248701526001600160a01b03169491829081906044820190565b0381875afa90811561180357600091615125575b506064938161501e575b5050505090565b604051637f1e7d4160e01b8152600481019290925292935091602090839060249082905afa91821561180357600092615102575b50602060049293604051938480926360295fdb60e11b82525afa80156118035761509e936020936000926150e3575b506040518095819482936301cc047760e71b845260048401614ed2565b03916001600160a01b03165afa908115611803576000916150c4575b5038808080615017565b6150dd915060203d6020116117fc576117ee818361071a565b386150ba565b6150fb919250843d8611612af757612ae9818361071a565b9038615081565b6004925061511e602091823d84116117fc576117ee818361071a565b9250615052565b61513e915060203d6020116117fc576117ee818361071a565b3861500d565b615165919250833d851161516c575b61515d818361071a565b810190614ebd565b9038614fc3565b503d615153565b602091965091615192614faa93833d85116117fc576117ee818361071a565b96915091614f88565b6151b591925060203d602011612af757612ae9818361071a565b9038614f50565b6151d5915060203d602011612af757612ae9818361071a565b38614f29565b906151e582610826565b6151f2604051918261071a565b8281528092615203601f1991610826565b019060005b82811061521457505050565b806060602080938501015201615208565b9599989697949391926152669361525892885260018060a01b031660208801526101206040880152610120870190610a05565b908582036060870152610a42565b968388036080850152815180895260208901906020808260051b8c01019401916000905b8282106152c65750505050610559969750906152ad9184820360a0860152610a76565b9360c083015260e0820152610100818403910152610523565b909192946020806152e46001938f601f199082030186528951610523565b97019201920190929161528a565b6152fa61381c565b805190811561530a576020012090565b50507fa16a46d94261c7517cc8ff89f61c0ce93598e3c849801011dee649a6a557d1005480156153375790565b507fc5d2460186f7233c927e7db2dcc703c0e500b653ca82273b7bfad8045d85a47090565b6153646138eb565b8051908115615374576020012090565b50507fa16a46d94261c7517cc8ff89f61c0ce93598e3c849801011dee649a6a557d1015480156153375790565b63ffffffff81116153b55763ffffffff1690565b6306dfcc6560e41b600052602060045260245260446000fdfe7c712897014dbe49c045ef1299aa2d5f9e67e48eea4403efa21f1e0f3ac0cb0100d7616c8fe29c6c2fbe1d0c5bc8f2faa4c35b43746e70b24b4d532752affd01e770710421fd2cad75ad828c61aa98f2d77d423a440b67872d0f65554148e0007fd223d3380145bd26132714391e777c488a0df7ac2dd4b66419d8549fb3a600a16a46d94261c7517cc8ff89f61c0ce93598e3c849801011dee649a6a557d102a16a46d94261c7517cc8ff89f61c0ce93598e3c849801011dee649a6a557d1033ba4977254e415696610a40ebf2258dbfa0ec6a2ff64e84bfe715ff16977cc0000d7616c8fe29c6c2fbe1d0c5bc8f2faa4c35b43746e70b24b4d532752affd007fd223d3380145bd26132714391e777c488a0df7ac2dd4b66419d8549fb3a6017c712897014dbe49c045ef1299aa2d5f9e67e48eea4403efa21f1e0f3ac0cb027c712897014dbe49c045ef1299aa2d5f9e67e48eea4403efa21f1e0f3ac0cb00f0c57e16840df040f15088dc2f81fe391c3923bec73e23a9662efc9c229c6a00a26469706673582212201b829c8f89e7039db3457d6b395364568a48d439192ddd329758c4f9788eb3a464736f6c634300081a0033","linkReferences":{}},"methodIdentifiers":{"BALLOT_TYPEHASH()":"deaaa7cc","CLOCK_MODE()":"4bf5d7e9","COUNTING_MODE()":"dd4e2ba5","EXTENDED_BALLOT_TYPEHASH()":"2fe3e261","cancel(address[],uint256[],bytes[],bytes32)":"452115d6","cancel(uint256)":"40e58ee5","castVote(uint256,uint8)":"56781388","castVoteBySig(uint256,uint8,address,bytes)":"8ff262e3","castVoteWithReason(uint256,uint8,string)":"7b3c71d3","castVoteWithReasonAndParams(uint256,uint8,string,bytes)":"5f398a14","castVoteWithReasonAndParamsBySig(uint256,uint8,address,string,bytes,bytes)":"5b8d0e0d","clock()":"91ddadf4","eip712Domain()":"84b0196e","execute(address[],uint256[],bytes[],bytes32)":"2656227d","execute(uint256)":"fe0d94c1","getMaturity(uint256)":"7f1e7d41","getPastScore(address,uint256)":"209e1f0d","getVotes(address,uint256)":"eb9019d4","getVotesWithParams(address,uint256,bytes)":"9a802a6d","hasVoted(uint256,address)":"43859632","hashProposal(address[],uint256[],bytes[],bytes32)":"c59057e4","initialize(string,address,address,uint256,uint32)":"718f7cd4","name()":"06fdde03","nonces(address)":"7ecebe00","onERC1155BatchReceived(address,address,uint256[],uint256[],bytes)":"bc197c81","onERC1155Received(address,address,uint256,uint256,bytes)":"f23a6e61","onERC721Received(address,address,uint256,bytes)":"150b7a02","proposalCount()":"da35c664","proposalDeadline(uint256)":"c01f9e37","proposalDetails(uint256)":"16e9eaec","proposalDetailsAt(uint256)":"2e82db94","proposalEta(uint256)":"ab58fb8e","proposalNeedsQueuing(uint256)":"a9a95294","proposalProposer(uint256)":"143489d0","proposalSnapshot(uint256)":"2d63f693","proposalThreshold()":"b58131b0","proposalVotes(uint256)":"544ffc9c","propose(address[],uint256[],bytes[],string)":"7d5e81e2","queue(address[],uint256[],bytes[],bytes32)":"160cbed7","queue(uint256)":"ddf0b009","quorum(uint256)":"f8ce560a","quorumDenominator()":"97c3d334","quorumNumerator()":"a7713a70","quorumNumerator(uint256)":"60c4247f","relay(address,uint256,bytes)":"c28bc2fa","scoreOf(address)":"133af456","setProposalThreshold(uint256)":"ece40cc1","setVotingDelay(uint48)":"79051887","setVotingPeriod(uint32)":"e540d01d","state(uint256)":"3e4f49e6","supportsInterface(bytes4)":"01ffc9a7","token()":"fc0c546a","totalScore()":"c006719f","updateQuorumNumerator(uint256)":"06f3f9e6","version()":"54fd4d50","votingDelay()":"3932abb1","votingPeriod()":"02a251a3"},"id":57}