{"abi":[{"type":"function","name":"DEFAULT_ADMIN_ROLE","inputs":[],"outputs":[{"name":"","type":"bytes32","internalType":"bytes32"}],"stateMutability":"view"},{"type":"function","name":"DENOMINATOR","inputs":[],"outputs":[{"name":"","type":"uint256","internalType":"uint256"}],"stateMutability":"view"},{"type":"function","name":"GOV_ROLE","inputs":[],"outputs":[{"name":"","type":"bytes32","internalType":"bytes32"}],"stateMutability":"view"},{"type":"function","name":"TOKEN_SAVER_ROLE","inputs":[],"outputs":[{"name":"","type":"bytes32","internalType":"bytes32"}],"stateMutability":"view"},{"type":"function","name":"agentNft","inputs":[],"outputs":[{"name":"","type":"address","internalType":"address"}],"stateMutability":"view"},{"type":"function","name":"claimAllRewards","inputs":[{"name":"virtualIds","type":"uint256[]","internalType":"uint256[]"},{"name":"contributionNftIds","type":"uint256[]","internalType":"uint256[]"}],"outputs":[],"stateMutability":"nonpayable"},{"type":"function","name":"contributionNft","inputs":[],"outputs":[{"name":"","type":"address","internalType":"address"}],"stateMutability":"view"},{"type":"function","name":"distributeRewards","inputs":[{"name":"amount","type":"uint256","internalType":"uint256"}],"outputs":[{"name":"","type":"uint32","internalType":"uint32"}],"stateMutability":"nonpayable"},{"type":"function","name":"distributeRewardsForAgents","inputs":[{"name":"mainRewardIndex","type":"uint32","internalType":"uint32"},{"name":"virtualIds","type":"uint256[]","internalType":"uint256[]"}],"outputs":[],"stateMutability":"nonpayable"},{"type":"function","name":"getChildrenRewards","inputs":[{"name":"nftId","type":"uint256","internalType":"uint256"}],"outputs":[{"name":"","type":"uint256","internalType":"uint256"}],"stateMutability":"view"},{"type":"function","name":"getMainReward","inputs":[{"name":"pos","type":"uint32","internalType":"uint32"}],"outputs":[{"name":"","type":"tuple","internalType":"struct IAgentReward.MainReward","components":[{"name":"blockNumber","type":"uint32","internalType":"uint32"},{"name":"amount","type":"uint256","internalType":"uint256"},{"name":"agentCount","type":"uint256","internalType":"uint256"},{"name":"totalStaked","type":"uint256","internalType":"uint256"}]}],"stateMutability":"view"},{"type":"function","name":"getPastRewardSettings","inputs":[{"name":"timepoint","type":"uint32","internalType":"uint32"}],"outputs":[{"name":"","type":"tuple","internalType":"struct RewardSettingsCheckpoints.RewardSettings","components":[{"name":"protocolShares","type":"uint16","internalType":"uint16"},{"name":"contributorShares","type":"uint16","internalType":"uint16"},{"name":"stakerShares","type":"uint16","internalType":"uint16"},{"name":"parentShares","type":"uint16","internalType":"uint16"},{"name":"stakeThreshold","type":"uint256","internalType":"uint256"}]}],"stateMutability":"view"},{"type":"function","name":"getReward","inputs":[{"name":"virtualId","type":"uint256","internalType":"uint256"},{"name":"pos","type":"uint32","internalType":"uint32"}],"outputs":[{"name":"","type":"tuple","internalType":"struct IAgentReward.Reward","components":[{"name":"id","type":"uint48","internalType":"uint48"},{"name":"mainIndex","type":"uint32","internalType":"uint32"},{"name":"totalStaked","type":"uint256","internalType":"uint256"},{"name":"validatorAmount","type":"uint256","internalType":"uint256"},{"name":"contributorAmount","type":"uint256","internalType":"uint256"},{"name":"coreAmount","type":"uint256","internalType":"uint256"}]}],"stateMutability":"view"},{"type":"function","name":"getRewardSettings","inputs":[],"outputs":[{"name":"","type":"tuple","internalType":"struct RewardSettingsCheckpoints.RewardSettings","components":[{"name":"protocolShares","type":"uint16","internalType":"uint16"},{"name":"contributorShares","type":"uint16","internalType":"uint16"},{"name":"stakerShares","type":"uint16","internalType":"uint16"},{"name":"parentShares","type":"uint16","internalType":"uint16"},{"name":"stakeThreshold","type":"uint256","internalType":"uint256"}]}],"stateMutability":"view"},{"type":"function","name":"getRoleAdmin","inputs":[{"name":"role","type":"bytes32","internalType":"bytes32"}],"outputs":[{"name":"","type":"bytes32","internalType":"bytes32"}],"stateMutability":"view"},{"type":"function","name":"getServiceReward","inputs":[{"name":"nftId","type":"uint256","internalType":"uint256"}],"outputs":[{"name":"","type":"tuple","internalType":"struct IAgentReward.ServiceReward","components":[{"name":"impact","type":"uint256","internalType":"uint256"},{"name":"amount","type":"uint256","internalType":"uint256"},{"name":"parentAmount","type":"uint256","internalType":"uint256"},{"name":"totalClaimed","type":"uint256","internalType":"uint256"},{"name":"totalClaimedParent","type":"uint256","internalType":"uint256"}]}],"stateMutability":"view"},{"type":"function","name":"getTotalClaimableRewards","inputs":[{"name":"account","type":"address","internalType":"address"},{"name":"virtualIds","type":"uint256[]","internalType":"uint256[]"},{"name":"contributionNftIds","type":"uint256[]","internalType":"uint256[]"}],"outputs":[{"name":"","type":"uint256","internalType":"uint256"}],"stateMutability":"view"},{"type":"function","name":"getVirtualTokenAddress","inputs":[{"name":"nft","type":"address","internalType":"contract IAgentNft"},{"name":"virtualId","type":"uint256","internalType":"uint256"}],"outputs":[{"name":"","type":"address","internalType":"address"}],"stateMutability":"view"},{"type":"function","name":"grantRole","inputs":[{"name":"role","type":"bytes32","internalType":"bytes32"},{"name":"account","type":"address","internalType":"address"}],"outputs":[],"stateMutability":"nonpayable"},{"type":"function","name":"hasRole","inputs":[{"name":"role","type":"bytes32","internalType":"bytes32"},{"name":"account","type":"address","internalType":"address"}],"outputs":[{"name":"","type":"bool","internalType":"bool"}],"stateMutability":"view"},{"type":"function","name":"initialize","inputs":[{"name":"rewardToken_","type":"address","internalType":"address"},{"name":"agentNft_","type":"address","internalType":"address"},{"name":"contributionNft_","type":"address","internalType":"address"},{"name":"serviceNft_","type":"address","internalType":"address"},{"name":"settings_","type":"tuple","internalType":"struct RewardSettingsCheckpoints.RewardSettings","components":[{"name":"protocolShares","type":"uint16","internalType":"uint16"},{"name":"contributorShares","type":"uint16","internalType":"uint16"},{"name":"stakerShares","type":"uint16","internalType":"uint16"},{"name":"parentShares","type":"uint16","internalType":"uint16"},{"name":"stakeThreshold","type":"uint256","internalType":"uint256"}]}],"outputs":[],"stateMutability":"nonpayable"},{"type":"function","name":"protocolRewards","inputs":[],"outputs":[{"name":"","type":"uint256","internalType":"uint256"}],"stateMutability":"view"},{"type":"function","name":"renounceRole","inputs":[{"name":"role","type":"bytes32","internalType":"bytes32"},{"name":"callerConfirmation","type":"address","internalType":"address"}],"outputs":[],"stateMutability":"nonpayable"},{"type":"function","name":"revokeRole","inputs":[{"name":"role","type":"bytes32","internalType":"bytes32"},{"name":"account","type":"address","internalType":"address"}],"outputs":[],"stateMutability":"nonpayable"},{"type":"function","name":"rewardCount","inputs":[{"name":"virtualId","type":"uint256","internalType":"uint256"}],"outputs":[{"name":"","type":"uint256","internalType":"uint256"}],"stateMutability":"view"},{"type":"function","name":"rewardToken","inputs":[],"outputs":[{"name":"","type":"address","internalType":"address"}],"stateMutability":"view"},{"type":"function","name":"saveToken","inputs":[{"name":"_token","type":"address","internalType":"address"},{"name":"_receiver","type":"address","internalType":"address"},{"name":"_amount","type":"uint256","internalType":"uint256"}],"outputs":[],"stateMutability":"nonpayable"},{"type":"function","name":"serviceNft","inputs":[],"outputs":[{"name":"","type":"address","internalType":"address"}],"stateMutability":"view"},{"type":"function","name":"setPrevTokens","inputs":[{"name":"virtualIds","type":"uint256[]","internalType":"uint256[]"},{"name":"tokens","type":"address[]","internalType":"address[]"}],"outputs":[],"stateMutability":"nonpayable"},{"type":"function","name":"setRewardSettings","inputs":[{"name":"protocolShares_","type":"uint16","internalType":"uint16"},{"name":"contributorShares_","type":"uint16","internalType":"uint16"},{"name":"stakerShares_","type":"uint16","internalType":"uint16"},{"name":"parentShares_","type":"uint16","internalType":"uint16"},{"name":"stakeThreshold_","type":"uint256","internalType":"uint256"}],"outputs":[],"stateMutability":"nonpayable"},{"type":"function","name":"supportsInterface","inputs":[{"name":"interfaceId","type":"bytes4","internalType":"bytes4"}],"outputs":[{"name":"","type":"bool","internalType":"bool"}],"stateMutability":"view"},{"type":"function","name":"updateRefContracts","inputs":[{"name":"rewardToken_","type":"address","internalType":"address"},{"name":"agentNft_","type":"address","internalType":"address"},{"name":"contributionNft_","type":"address","internalType":"address"},{"name":"serviceNft_","type":"address","internalType":"address"}],"outputs":[],"stateMutability":"nonpayable"},{"type":"function","name":"validatorPoolRewards","inputs":[],"outputs":[{"name":"","type":"uint256","internalType":"uint256"}],"stateMutability":"view"},{"type":"function","name":"withdrawProtocolRewards","inputs":[{"name":"recipient","type":"address","internalType":"address"}],"outputs":[],"stateMutability":"nonpayable"},{"type":"function","name":"withdrawValidatorPoolRewards","inputs":[{"name":"recipient","type":"address","internalType":"address"}],"outputs":[],"stateMutability":"nonpayable"},{"type":"event","name":"DatasetRewardsClaimed","inputs":[{"name":"nftId","type":"uint256","indexed":false,"internalType":"uint256"},{"name":"account","type":"address","indexed":false,"internalType":"address"},{"name":"total","type":"uint256","indexed":false,"internalType":"uint256"}],"anonymous":false},{"type":"event","name":"Initialized","inputs":[{"name":"version","type":"uint64","indexed":false,"internalType":"uint64"}],"anonymous":false},{"type":"event","name":"NewAgentReward","inputs":[{"name":"mainIndex","type":"uint32","indexed":false,"internalType":"uint32"},{"name":"virtualId","type":"uint256","indexed":false,"internalType":"uint256"},{"name":"validatorAmount","type":"uint256","indexed":false,"internalType":"uint256"},{"name":"contributorAmount","type":"uint256","indexed":false,"internalType":"uint256"},{"name":"coreAmount","type":"uint256","indexed":false,"internalType":"uint256"}],"anonymous":false},{"type":"event","name":"NewMainReward","inputs":[{"name":"pos","type":"uint32","indexed":true,"internalType":"uint32"},{"name":"amount","type":"uint256","indexed":false,"internalType":"uint256"},{"name":"agentCount","type":"uint256","indexed":false,"internalType":"uint256"},{"name":"totalStaked","type":"uint256","indexed":false,"internalType":"uint256"}],"anonymous":false},{"type":"event","name":"ParentSharesUpdated","inputs":[{"name":"shares","type":"uint256","indexed":false,"internalType":"uint256"}],"anonymous":false},{"type":"event","name":"RefContractsUpdated","inputs":[{"name":"rewardToken","type":"address","indexed":false,"internalType":"address"},{"name":"agentNft","type":"address","indexed":false,"internalType":"address"},{"name":"contributionNft","type":"address","indexed":false,"internalType":"address"},{"name":"serviceNft","type":"address","indexed":false,"internalType":"address"}],"anonymous":false},{"type":"event","name":"RewardSettingsUpdated","inputs":[{"name":"protocolShares","type":"uint16","indexed":false,"internalType":"uint16"},{"name":"contributorShares","type":"uint16","indexed":false,"internalType":"uint16"},{"name":"stakerShares","type":"uint16","indexed":false,"internalType":"uint16"},{"name":"parentShares","type":"uint16","indexed":false,"internalType":"uint16"},{"name":"stakeThreshold","type":"uint256","indexed":false,"internalType":"uint256"}],"anonymous":false},{"type":"event","name":"RoleAdminChanged","inputs":[{"name":"role","type":"bytes32","indexed":true,"internalType":"bytes32"},{"name":"previousAdminRole","type":"bytes32","indexed":true,"internalType":"bytes32"},{"name":"newAdminRole","type":"bytes32","indexed":true,"internalType":"bytes32"}],"anonymous":false},{"type":"event","name":"RoleGranted","inputs":[{"name":"role","type":"bytes32","indexed":true,"internalType":"bytes32"},{"name":"account","type":"address","indexed":true,"internalType":"address"},{"name":"sender","type":"address","indexed":true,"internalType":"address"}],"anonymous":false},{"type":"event","name":"RoleRevoked","inputs":[{"name":"role","type":"bytes32","indexed":true,"internalType":"bytes32"},{"name":"account","type":"address","indexed":true,"internalType":"address"},{"name":"sender","type":"address","indexed":true,"internalType":"address"}],"anonymous":false},{"type":"event","name":"ServiceRewardsClaimed","inputs":[{"name":"nftId","type":"uint256","indexed":false,"internalType":"uint256"},{"name":"account","type":"address","indexed":false,"internalType":"address"},{"name":"total","type":"uint256","indexed":false,"internalType":"uint256"},{"name":"childrenAmount","type":"uint256","indexed":false,"internalType":"uint256"}],"anonymous":false},{"type":"event","name":"StakeThresholdUpdated","inputs":[{"name":"threshold","type":"uint256","indexed":false,"internalType":"uint256"}],"anonymous":false},{"type":"event","name":"StakerRewardClaimed","inputs":[{"name":"virtualId","type":"uint256","indexed":false,"internalType":"uint256"},{"name":"amount","type":"uint256","indexed":false,"internalType":"uint256"},{"name":"staker","type":"address","indexed":false,"internalType":"address"}],"anonymous":false},{"type":"event","name":"TokenSaved","inputs":[{"name":"by","type":"address","indexed":true,"internalType":"address"},{"name":"receiver","type":"address","indexed":true,"internalType":"address"},{"name":"token","type":"address","indexed":true,"internalType":"address"},{"name":"amount","type":"uint256","indexed":false,"internalType":"uint256"}],"anonymous":false},{"type":"event","name":"ValidatorRewardClaimed","inputs":[{"name":"virtualId","type":"uint256","indexed":false,"internalType":"uint256"},{"name":"amount","type":"uint256","indexed":false,"internalType":"uint256"},{"name":"validator","type":"address","indexed":false,"internalType":"address"}],"anonymous":false},{"type":"error","name":"AccessControlBadConfirmation","inputs":[]},{"type":"error","name":"AccessControlUnauthorizedAccount","inputs":[{"name":"account","type":"address","internalType":"address"},{"name":"neededRole","type":"bytes32","internalType":"bytes32"}]},{"type":"error","name":"AddressEmptyCode","inputs":[{"name":"target","type":"address","internalType":"address"}]},{"type":"error","name":"AddressInsufficientBalance","inputs":[{"name":"account","type":"address","internalType":"address"}]},{"type":"error","name":"CheckpointUnorderedInsertion","inputs":[]},{"type":"error","name":"ERC5805FutureLookup","inputs":[{"name":"timepoint","type":"uint256","internalType":"uint256"},{"name":"clock","type":"uint32","internalType":"uint32"}]},{"type":"error","name":"FailedInnerCall","inputs":[]},{"type":"error","name":"InvalidInitialization","inputs":[]},{"type":"error","name":"NotGovError","inputs":[]},{"type":"error","name":"NotInitializing","inputs":[]},{"type":"error","name":"NotOwnerError","inputs":[]},{"type":"error","name":"SafeCastOverflowedUintDowncast","inputs":[{"name":"bits","type":"uint8","internalType":"uint8"},{"name":"value","type":"uint256","internalType":"uint256"}]},{"type":"error","name":"SafeERC20FailedOperation","inputs":[{"name":"token","type":"address","internalType":"address"}]}],"bytecode":{"object":"0x608080604052346015576136f4908161001b8239f35b600080fdfe608080604052600436101561001357600080fd5b60003560e01c90816301ffc9a71461180e5750806304b0ed53146117c9578063056903711461177a57806307c1aa1a146117515780630e449aeb146116525780631f1aea4214611565578063248a9ca31461153857806329df64791461151a5780632f2ff15d146114da57806336568abe146114945780633a23ab061461144457806348d329ca1461141e5780634ba021dc1461137c57806357ee99821461130457806359974e3814610ead57806376175b0614610e7257806389e53e6b14610e4d578063918f867414610e3057806391d1485414610de35780639282495b14610bac5780639afdb2c214610aa55780639cbef4a914610a7c578063a217fddf14610a60578063a834ab711461095a578063ae956363146108e7578063ae9c46ae1461077b578063b43fb074146106e2578063b536818a146106a7578063d547741f14610660578063db0a6733146105a3578063dc247ba514610585578063e36f1d0414610559578063e56efef514610530578063eca1358b146101d25763f7c618c1146101a057600080fd5b346101cd5760003660031901126101cd5760015460405160309190911c6001600160a01b03168152602090f35b600080fd5b346101cd576101203660031901126101cd576101ec611861565b6101f4611877565b6101fc61188d565b906102056118a3565b9060a03660831901126101cd5760405161021e816118ef565b60843561ffff811681036101cd57815260a43561ffff811681036101cd576020820190815260c4359361ffff851685036101cd576040830194855260e4359561ffff871687036101cd5760608401968752608084019461010435865260008051602061369f833981519152549860ff8a60401c1615996001600160401b03811680159081610528575b600114908161051e575b159081610515575b506105045767ffffffffffffffff19811660011760008051602061369f833981519152558a6104d7575b50600180546601000000000000600160d01b03191660309290921b6601000000000000600160d01b0316919091179055600280546001600160a01b03199081166001600160a01b0393841617909155600380548216938316939093179092556004805490921692169190911790556007549485156104865760001986019586116104c15761037086612857565b506103936001604051926103838461190a565b63ffffffff815416845201612892565b602082015263ffffffff8151166104b0575163ffffffff16610486576103bb60029596612857565b509561ffff600188019451169261ffff60301b65ffff0000000063ffff00008754935160101b16935160201b16935160301b169361ffff60301b199165ffffffffffff191617161717179055519101555b610415336125ee565b50600165ffffffffffff198154161760015561042d57005b68ff00000000000000001960008051602061369f833981519152541660008051602061369f833981519152557fc7f505b2f371ae2175ee4913f4499e1f2633a7b5936321eed1cdaeb6115181d2602060405160018152a1005b50509150506104ab91506040519061049d8261190a565b600082526020820152613439565b61040c565b632520601d60e01b60005260046000fd5b634e487b7160e01b600052601160045260246000fd5b68ffffffffffffffffff1916680100000000000000011760008051602061369f833981519152558a6102e3565b63f92ee8a960e01b60005260046000fd5b9050158c6102b9565b303b1591506102b1565b8c91506102a7565b346101cd5760003660031901126101cd576004546040516001600160a01b039091168152602090f35b346101cd5760203660031901126101cd5760043560005260066020526020604060002054604051908152f35b346101cd5760003660031901126101cd576020600954604051908152f35b346101cd5760203660031901126101cd576105bc611861565b33600090815260008051602061367f833981519152602052604090205460ff161561064f57600954801561060a57600154610603929060301c6001600160a01b03166127ad565b6000600955005b60405162461bcd60e51b815260206004820152601960248201527f4e6f2076616c696461746f7220706f6f6c2072657761726473000000000000006044820152606490fd5b631f43c9cf60e31b60005260046000fd5b346101cd5760403660031901126101cd576106a560043561067f611877565b906106a061069b82600052600060205260016040600020015490565b6125b3565b61272b565b005b346101cd5760003660031901126101cd5760206040517f0603f2636f0ca34ae3ea5a23bb826e2bd2ffd59fb1c01edc1ba10fba2899d1ba8152f35b346101cd5760403660031901126101cd576106fb6119ba565b6024356001600160401b0381116101cd5761071a90369060040161195d565b33600090815260008051602061367f833981519152602052604090205460ff161561064f57610747611b73565b506107506128d5565b9060005b81518110156106a55780610775848661076f60019587611bef565b5161290f565b01610754565b346101cd5760403660031901126101cd576004356001600160401b0381116101cd576107ab90369060040161195d565b602435906001600160401b0382116101cd57366023830112156101cd5781600401356107d681611946565b926107e46040519485611925565b8184526024602085019260051b820101903682116101cd57602401915b8183106108c757505033600090815260008051602061367f833981519152602052604090205460ff1615905061064f5780518251036108925760005b81518110156106a5576001906001600160a01b0361085b8286611bef565b51166108678285611bef565b5160005260106020526040600020906bffffffffffffffffffffffff60a01b8254161790550161083d565b60405162461bcd60e51b815260206004820152600d60248201526c125b9d985b1a59081a5b9c1d5d609a1b6044820152606490fd5b82356001600160a01b03811681036101cd57815260209283019201610801565b346101cd5760203660031901126101cd5761095661090b6109066119ba565b611ea6565b6040519182918291909160808060a083019461ffff815116845261ffff602082015116602085015261ffff604082015116604085015261ffff60608201511660608501520151910152565b0390f35b346101cd5760803660031901126101cd57610973611861565b61097b611877565b61098361188d565b9161098c6118a3565b33600090815260008051602061367f833981519152602052604090205490939060ff161561064f57600180546601000000000000600160d01b031916603084901b6601000000000000600160d01b0316179055600280546001600160a01b03199081166001600160a01b0395861690811790925560038054821693861693841790556004805490911695851695861790556040805194909316845260208401529082015260608101919091527fa76b17940d158ada820561f31a130c86950044ee45c624524fa055bbfd386b3790608090a1005b346101cd5760003660031901126101cd57602060405160008152f35b346101cd5760003660031901126101cd576002546040516001600160a01b039091168152602090f35b346101cd5760603660031901126101cd57610abe611861565b610ac6611877565b3360009081527fd6258023de8dfbb5912550ba7b6613517bf13c442784ee5998ddac4edb10529a602052604090205490916044359160ff1615610b52576001600160a01b031691610b188282856127ad565b6040519182526001600160a01b03169033907f30d87cec6b4c56cede1018725d1e6d9304e2f7ee6d25b004b7e2183f793f26bc90602090a4005b60405162461bcd60e51b815260206004820152602c60248201527f546f6b656e53617665722e6f6e6c79546f6b656e53617665723a207065726d6960448201526b1cdcda5bdb8819195b9a595960a21b6064820152608490fd5b346101cd5760a03660031901126101cd5760043561ffff81168091036101cd5760243561ffff81168091036101cd576044359161ffff83168093036101cd5760643561ffff81168091036101cd5733600090815260008051602061367f8339815191526020526040902054608435919060ff161561064f57610c2d4361282a565b9460405194610c3b866118ef565b84865260208601818152604087018381526060880197858952608081019087825260075493841515600014610d945760001985019485116104c157610c7f85612857565b509a610ca460016040519d8e610c948161190a565b63ffffffff825416905201612892565b60208d015263ffffffff808d51169d16809d116104b0578c7ff24f4e6211663f2bd5348bf57d8577095eacae708ce9604d177fe3ac6c0ab5a39d63ffffffff60a09e511614600014610d6b5750610cfd60029596612857565b509561ffff600188019451169261ffff60301b65ffff0000000063ffff00008754935160101b16935160201b16935160301b169361ffff60301b199165ffffffffffff191617161717179055519101555b6040519485526020850152604084015260608301526080820152a1005b945050509050610d8f925060405191610d838361190a565b82526020820152613439565b610d4e565b50905060a09850610d8f92507ff24f4e6211663f2bd5348bf57d8577095eacae708ce9604d177fe3ac6c0ab5a399915063ffffffff60405192610dd68461190a565b1682526020820152613439565b346101cd5760403660031901126101cd57610dfc611877565b600435600052600060205260406000209060018060a01b0316600052602052602060ff604060002054166040519015158152f35b346101cd5760003660031901126101cd5760206040516127108152f35b346101cd5760003660031901126101cd57610e66611b73565b5061095661090b6128d5565b346101cd5760003660031901126101cd5760206040517fd9d917c4034cff8a8c5fa1e40f9fbaf906b827c33ae3ab1fcabbb616cb8ef24d8152f35b346101cd5760203660031901126101cd5733600090815260008051602061367f83398151915260205260409020546004359060ff161561064f5780156112ce576001546040516323b872dd60e01b602082015233602482015230604482015260648082018490528152610f369160301c6001600160a01b0316610f31608483611925565b613383565b610f3e611b73565b50610f7a610f4a6128d5565b91612710610f6461ffff610f5c6128d5565b5116836127e8565b0490610f7282600854611c19565b600855611d2c565b6002546040516318160ddd60e01b81529260009283929091906001600160a01b0316602086600481845afa9586156112c357859661128b575b5094610fc060055461282a565b63ffffffff6080600194019116965b828411156110ea5750505050610fe44361282a565b9263ffffffff60405194610ff7866118d4565b168452602084019282845260408501948186526060810190838252600554600160401b8110156110d4578060016110319201600555611c26565b9290926110be577f7b41475975a5b886cf9ebae456c452d6d52cbc40947997c7e4955d1fa0ee17fa9760609763ffffffff8060039551161663ffffffff198654161785555160018501555160028401555191015560405192835260208301526040820152a260055460001981019081116104c1576110b060209161282a565b63ffffffff60405191168152f35b634e487b7160e01b600052600060045260246000fd5b634e487b7160e01b600052604160045260246000fd5b90919295946040519063020e5c6160e51b8252876004830152602082602481865afa91821561127f57600092611249575b508351821061123d57816111316111379261281b565b97611c19565b966001549165ffffffffffff83169265ffffffffffff84146104c15765ffffffffffff60018501169065ffffffffffff19161760015581600052600660205260406000209260405190611189826118b9565b815260208101938b855260408201928352606082016000815260808301906000825260a0840192600084528054600160401b8110156110d4576111d191600182018155611df3565b9590956110be576112359765ffffffffffff600496511665ffffffffffff198854161787555169ffffffff00000000000087549160301b169069ffffffff00000000000019161786555160018601555160028501555160038401555191015561281b565b929190610fcf565b9596611235915061281b565b90916020823d8211611277575b8161126360209383611925565b81010312611274575051908961111b565b80fd5b3d9150611256565b6040513d6000823e3d90fd5b9095506020813d6020116112bb575b816112a760209383611925565b810103126112b757519486610fb3565b8480fd5b3d915061129a565b6040513d87823e3d90fd5b60405162461bcd60e51b815260206004820152600e60248201526d125b9d985b1a5908185b5bdd5b9d60921b6044820152606490fd5b346101cd5760403660031901126101cd5760243563ffffffff811681036101cd5761133360c091600435611e0f565b60a06040519165ffffffffffff815116835263ffffffff6020820151166020840152604081015160408401526060810151606084015260808101516080840152015160a0820152f35b346101cd5760203660031901126101cd57611395611861565b33600090815260008051602061367f833981519152602052604090205460ff161561064f5760085480156113e3576001546113dc929060301c6001600160a01b03166127ad565b6000600855005b60405162461bcd60e51b81526020600482015260136024820152724e6f2070726f746f636f6c207265776172647360681b6044820152606490fd5b346101cd5760203660031901126101cd57602061143c600435611d39565b604051908152f35b346101cd5760203660031901126101cd5760806114676114626119ba565b611c7d565b60606040519163ffffffff8151168352602081015160208401526040810151604084015201516060820152f35b346101cd5760403660031901126101cd576114ad611877565b336001600160a01b038216036114c9576106a59060043561272b565b63334bd91960e11b60005260046000fd5b346101cd5760403660031901126101cd576106a56004356114f9611877565b9061151561069b82600052600060205260016040600020015490565b6126a0565b346101cd5760003660031901126101cd576020600854604051908152f35b346101cd5760203660031901126101cd57602061143c600435600052600060205260016040600020015490565b346101cd5760403660031901126101cd576004356001600160401b0381116101cd5761159590369060040161195d565b6024356001600160401b0381116101cd576115b490369060040161195d565b60005b825181101561162957806115f06115d060019386611bef565b5183600f546115e260ff8216156121b6565b60ff191617600f55336121f3565b61161960ff19600f5416836116058488611bef565b5191611610826121b6565b17600f556122c7565b60ff19600f5416600f55016115b7565b5060005b81518110156106a5578061164c61164660019385611bef565b5161238f565b0161162d565b346101cd5760603660031901126101cd5761166b611861565b6024356001600160401b0381116101cd5761168a90369060040161195d565b6044356001600160401b0381116101cd576116a990369060040161195d565b90600092835b82518510156116f7576116ef6001916116e96116d56116ce8988611bef565b5186612000565b6116e96116e28a89611bef565b51876120ae565b90611c19565b9401936116af565b836000915b81518310156117465761173e6001916116e96117188686611bef565b516116e961173861172883611b9e565b6060602082015191015190611d2c565b91611d39565b9201916116fc565b602090604051908152f35b346101cd5760003660031901126101cd576003546040516001600160a01b039091168152602090f35b346101cd5760203660031901126101cd5760a0611798600435611b9e565b6080604051918051835260208101516020840152604081015160408401526060810151606084015201516080820152f35b346101cd5760403660031901126101cd576004356001600160a01b03811681036101cd576117fc60209160243590611ae0565b6040516001600160a01b039091168152f35b346101cd5760203660031901126101cd576004359063ffffffff60e01b82168092036101cd57602091637965db0b60e01b8114908115611850575b5015158152f35b6301ffc9a760e01b14905083611849565b600435906001600160a01b03821682036101cd57565b602435906001600160a01b03821682036101cd57565b604435906001600160a01b03821682036101cd57565b606435906001600160a01b03821682036101cd57565b60c081019081106001600160401b038211176110d457604052565b608081019081106001600160401b038211176110d457604052565b60a081019081106001600160401b038211176110d457604052565b604081019081106001600160401b038211176110d457604052565b90601f801991011681019081106001600160401b038211176110d457604052565b6001600160401b0381116110d45760051b60200190565b9080601f830112156101cd57813561197481611946565b926119826040519485611925565b81845260208085019260051b8201019283116101cd57602001905b8282106119aa5750505090565b813581526020918201910161199d565b6004359063ffffffff821682036101cd57565b51906001600160a01b03821682036101cd57565b519060ff821682036101cd57565b6020818303126101cd578051906001600160401b0382116101cd57019060a0828203126101cd5760405191611a23836118ef565b611a2c816119cd565b8352611a3a602082016119cd565b6020840152611a4b604082016119cd565b6040840152611a5c606082016119cd565b60608401526080810151906001600160401b0382116101cd57019080601f830112156101cd578151611a8d81611946565b92611a9b6040519485611925565b81845260208085019260051b8201019283116101cd57602001905b828210611ac857505050608082015290565b60208091611ad5846119e1565b815201910190611ab6565b6000828152601060205260409020546001600160a01b0316918215611b0457505090565b604051635652386760e11b815260048101919091529150600090829060249082906001600160a01b03165afa90811561127f57600091611b50575b50602001516001600160a01b031690565b611b6d91503d806000833e611b658183611925565b8101906119ef565b38611b3f565b60405190611b80826118ef565b60006080838281528260208201528260408201528260608201520152565b611ba6611b73565b50600052600c6020526040600020600460405191611bc3836118ef565b805483526001810154602084015260028101546040840152600381015460608401520154608082015290565b8051821015611c035760209160051b010190565b634e487b7160e01b600052603260045260246000fd5b919082018092116104c157565b600554811015611c0357600560005260206000209060021b0190600090565b90604051611c52816118d4565b60606003829463ffffffff815416845260018101546020850152600281015460408501520154910152565b611caa611cb09160006060604051611c94816118d4565b8281528260208201528260408201520152611c26565b50611c45565b90565b6020818303126101cd578051906001600160401b0382116101cd57019080601f830112156101cd578151611ce681611946565b92611cf46040519485611925565b81845260208085019260051b8201019283116101cd57602001905b828210611d1c5750505090565b8151815260209182019101611d0f565b919082039182116104c157565b6003546040516349ae8dc360e01b81526004810192909252600091908290829060249082906001600160a01b03165afa908115611de8578291611dc6575b50611d80611b73565b50815b8151831015611dc057611db86001916116e9611da8611da28787611bef565b51611b9e565b6080604082015191015190611d2c565b920191611d83565b91505090565b611de291503d8084833e611dda8183611925565b810190611cb3565b38611d77565b6040513d84823e3d90fd5b8054821015611c03576000526005602060002091020190600090565b90611e5391600060a0604051611e24816118b9565b828152826020820152826040820152826060820152826080820152015260005260066020526040600020611df3565b50600460405191611e63836118b9565b63ffffffff815465ffffffffffff8116855260301c166020840152600181015460408401526002810154606084015260038101546080840152015460a082015290565b611eae611b73565b5063ffffffff80611ebe4361282a565b1691169080821015611fe85750611ed3611b73565b50600754906000918060058111611fa1575b5091905b828210611f4857505080611f275750604051611f04816118ef565b600081526000602082015260006040820152600060608201526000608082015290565b60001981019081116104c1576001611f41611cb092612857565b5001612892565b9091611f5b81841860011c828516611c19565b908263ffffffff611f6b84612857565b5054161115611f7d5750915b90611ee9565b92506001810180911115611f7757634e487b7160e01b600052601160045260246000fd5b80611fae611fb4926134dc565b90611d2c565b9063ffffffff611fc383612857565b505416831015611fd557505b38611ee5565b9250600181018091116104c15791611fcf565b90631f2fd49d60e01b60005260045260245260446000fd5b908060005260066020526040600020549081156120a6579060209261202f8360018060a01b0360025416611ae0565b9060018060a01b038116600052600a85526040600020846000528552604060002063ffffffff6001604051926120648461190a565b805484520154169586910152600094935b83851061208457505050505090565b909192939461209b6001916116e98686868b61314e565b950193929190612075565b505050600090565b908060005260066020526040600020549081156120a6579060209260018060a01b031680600052600b84526040600020836000528452604060002063ffffffff6001604051926120fd8461190a565b805484520154169485910152600093925b82841061211c575050505090565b9091929361213261212c8661282a565b83611e0f565b61ffff60408061215663ffffffff61214f81602088015116611c7d565b5116611ea6565b9387600052600e60205265ffffffffffff826000209151169065ffffffffffff600092168252602052205492015116612710039161271083116104c1576127106121a56001946121ac946127e8565b0490611c19565b940192919061210e565b156121bd57565b60405162461bcd60e51b815260206004820152600e60248201526d31b0b73737ba103932b2b73a32b960911b6044820152606490fd5b6121fd8282612000565b9081156122c2577f42f11e929ce5ba1683d17c5418a57e4d7895aa71fd11052c1b0f2b9c5229424b82846122c095600052600660205260406000205460018060a01b038516600052600a60205260406000208260005260205261226460406000209161282a565b63ffffffff60018301911663ffffffff19825416179055612286838254611c19565b90556040805191825260208201929092526001600160a01b03841691810191909152606090a160015460301c6001600160a01b03166127ad565b565b505050565b6122d181336120ae565b801561238b577f91f2c2e59ae9c7e1b5cc4bbe3fb77e2835fd3532ebdd0118a337980223a6703a612372836122c094600052600660205260406000205433600052600b60205260406000208260005260205261233160406000209161282a565b63ffffffff60018301911663ffffffff19825416179055612353858254611c19565b9055604080519182526020820185905233908201529081906060820190565b0390a1600154339060301c6001600160a01b03166127ad565b5050565b6003546040516331a9108f60e11b81526004810183905290602090829060249082906001600160a01b03165afa90811561127f57600091612579575b50336001600160a01b03909116036125445760249181600052600c60205260406000209060036001830154920161240e61240782548095611d2c565b8094611c19565b90556003546040516349ae8dc360e01b8152600481018590529460009186919082906001600160a01b03165afa93841561127f57600094612527575b5060009060005b85518110156124c7576124648187611bef565b51600052600c602052604060002060046002820154910161248781548093611d2c565b9182612499575b505050600101612451565b82600194969781936124b16124be966124b895611c19565b9055611c19565b95611c19565b9290388061248e565b5093509181156122c2577f84509fc9cac2261efb3b24d2a3bf43e427549b5b0729ff9e970fc8a1490581cf928261250e6080943360018060a01b0360015460301c166127ad565b60405192835233602084015260408301526060820152a1565b61253d9194503d806000833e611dda8183611925565b923861244a565b60405162461bcd60e51b815260206004820152600d60248201526c2737ba1027232a1037bbb732b960991b6044820152606490fd5b90506020813d6020116125ab575b8161259460209383611925565b810103126101cd576125a5906119cd565b386123cb565b3d9150612587565b60008181526020818152604080832033845290915290205460ff16156125d65750565b63e2517d3f60e01b6000523360045260245260446000fd5b6001600160a01b03811660009081527fad3228b676f7d3cd4284a5443f17f1962b36e491b30a40b2405849e597ba5fb5602052604090205460ff1661269a576001600160a01b031660008181527fad3228b676f7d3cd4284a5443f17f1962b36e491b30a40b2405849e597ba5fb560205260408120805460ff191660011790553391907f2f8788117e7eff1d82e926ec794901d17c78024a50270940304540a733656f0d8180a4600190565b50600090565b6000818152602081815260408083206001600160a01b038616845290915290205460ff16612724576000818152602081815260408083206001600160a01b0395909516808452949091528120805460ff19166001179055339291907f2f8788117e7eff1d82e926ec794901d17c78024a50270940304540a733656f0d9080a4600190565b5050600090565b6000818152602081815260408083206001600160a01b038616845290915290205460ff1615612724576000818152602081815260408083206001600160a01b0395909516808452949091528120805460ff19169055339291907ff6391f5c32d9c69d2a47ea670b442974b53935d1edc7fd64eb21e047a839171b9080a4600190565b60405163a9059cbb60e01b60208201526001600160a01b0390921660248301526044808301939093529181526122c091610f31606483611925565b818102929181159184041417156104c157565b8115612805570490565b634e487b7160e01b600052601260045260246000fd5b60001981146104c15760010190565b63ffffffff811161283e5763ffffffff1690565b6306dfcc6560e41b600052602060045260245260446000fd5b600754811015611c035760076000526003602060002091020190600090565b8054821015611c03576000526003602060002091020190600090565b9060405161289f816118ef565b60806001829461ffff81548181168652818160101c166020870152818160201c16604087015260301c1660608501520154910152565b6128dd611b73565b50600754806128f35750604051611f04816118ef565b60001981019081116104c1576001611f41611cb0926007612876565b9290928060005260066020526040600020541561314857612932611caa85611c26565b6000828152600660205260409020805491929160001981019081116104c15761295a91611df3565b5091825463ffffffff871663ffffffff8260301c16036131325760028401541580159061313b575b613132576129a960208301519260606129a0600188015480966127e8565b910151906127fb565b916129d06127106129c261ffff60208b015116866127e8565b046003870194818655611d2c565b80600287015560018060a01b036002541690604051926306d4d3c160e21b8452866004850152602084602481865afa93841561127f576000946130fe575b50604051631b59192d60e21b81526004810188905290602082602481875afa91821561127f576000926130ca575b5060005b858110612ecf575050505050505080549260018060a01b036002541692604051635652386760e11b8152816004820152600081602481885afa801561127f57608091600091612eb4575b500151600454600354600084815260066020526040902080546001600160a01b039384169c949a929093169491939260001981019081116104c157602499612ad7612ae092600094611df3565b509b51906127fb565b9760048b01988955604051998a80926338ea5da760e21b82528560048301525afa97881561127f57600098612e99575b5060005b8851811015612c76578b60246020612b2c848d611bef565b51926040519283809263e6aed85760e01b82528660048301525afa91821561127f578e91600093612c40575b508215612c355780600052600c602052826040600020805415612c2d575b505065ffffffffffff8d5416600052600d60205260206040600020916024604051809581936312903cd960e11b835260048301525afa91821561127f57600092612be4575b5060406001949392612bdb9260ff60009216825260205220918254611c19565b90555b01612b14565b90916020823d8211612c25575b81612bfe60209383611925565b81010312611274575060406001949392612c1a612bdb936119e1565b939495509150612bbb565b3d9150612bf1565b558238612b76565b505050600190612bde565b9150916020823d8211612c6e575b81612c5b60209383611925565b8101031261127457508d90519138612b58565b3d9150612c4e565b509091929599979498606061ffff919895980151169660005b8551811015612e3957612ca28187611bef565b5180600052600c60205260406000208d8154908115612e2d57602491612cc891546127e8565b65ffffffffffff8b5416600052600d6020528d6020604060002091604051948580926312903cd960e11b82528960048301525afa90811561127f578d93600092612de2575b50916040612d2a9260209460ff60009216825285522054906127fb565b9360246040518094819363dbdd0aab60e01b835260048301525afa801561127f578c91600091612dad575b506001949392612d8c92600292612d955750612d7360008095611d2c565b612d81878301918254611c19565b905501918254611c19565b90555b01612c8f565b612710612da5612d7392876127e8565b048095611d2c565b91506020823d8211612dda575b81612dc760209383611925565b810103126112745750518b906001612d55565b3d9150612dba565b91909293506020823d8211612e25575b81612dff60209383611925565b8101031261127457508c926040602093612e1b612d2a946119e1565b9350919350612d0d565b3d9150612df2565b50505050600190612d8f565b5094509450945096505060a093507f3b82ed67d9fe68169836bacb20a42229591c9b8376eb5a4314f8f2f0439671f4946004600283015491549201549263ffffffff604051951685526020850152604084015260608301526080820152a1565b612ead91983d8091833e611dda8183611925565b9638612b10565b612ec991503d806000833e611b658183611925565b38612a8a565b60405163d809a06f60e01b8152896004820152816024820152602081604481895afa90811561127f57600091613091575b50602460206001600160a01b03612f178d8a611ae0565b6040516309ab24eb60e41b81526001600160a01b038616600482015293849290918391165afa801561127f57849160009161305b575b5090612f5c612f6192886127e8565b6127fb565b600085612fb95750612fa860019392612fb0926000915b868060a01b0316600052600e6020528160408d8160002065ffffffffffff80600093161682526020522055611d2c565b600954611c19565b60095501612a40565b60405163c12032d360e01b8152600481018d90526001600160a01b03841660248201526020816044818c5afa91821561304f5790818893613016575b50509282613010612fa893612f5c60019897612fb0976127e8565b91612f78565b915091506020823d8211613047575b8161303260209383611925565b81010312611274575051859082613010612ff5565b3d9150613025565b604051903d90823e3d90fd5b91506020823d8211613089575b8161307560209383611925565b810103126112745750518390612f5c612f4d565b3d9150613068565b906020823d82116130c2575b816130aa60209383611925565b8101031261127457506130bc906119cd565b38612f00565b3d915061309d565b90916020823d6020116130f6575b816130e560209383611925565b810103126112745750519038612a3c565b3d91506130d8565b9093506020813d60201161312a575b8161311a60209383611925565b810103126101cd57519238612a0e565b3d915061310d565b50505050915050565b5060038401541515612982565b50915050565b9061315b6131619261282a565b90611e0f565b61317463ffffffff602083015116611c7d565b8051604051622f640360e91b81526001600160a01b03858116600483015263ffffffff90921660248201529194169290602081604481875afa90811561127f57600091613349575b506001600160a01b03811694851561333e57613244936131e263ffffffff835116611ea6565b6000978852600e60209081526040808a20935165ffffffffffff168a5292815297829020548351925163d7b7d40560e01b81526001600160a01b03909616600487015263ffffffff929092166024860152969394909390859081906044820190565b0381885afa93841561127f57600094613306575b5051604051630748d63560e31b81526001600160a01b03909216600483015263ffffffff1660248201529260209084908180604481015b03915afa92831561127f576000936132cb575b5060406132bd6132c794612f5c612710979561ffff956127e8565b92015116906127e8565b0490565b939192506020843d6020116132fe575b816132e860209383611925565b810103126101cd579251909290919060406132a2565b3d91506132db565b919093506020823d602011613336575b8161332360209383611925565b810103126101cd5790519261328f613258565b3d9150613316565b505050505050600090565b90506020813d60201161337b575b8161336460209383611925565b810103126101cd57613375906119cd565b386131bc565b3d9150613357565b81516001600160a01b0390911691600091829160200182855af13d1561342d573d6001600160401b0381116110d4576133df91604051916133ce6020601f19601f8401160184611925565b82523d6000602084013e5b8361361d565b8051908115159182613409575b50506133f55750565b635274afe760e01b60005260045260246000fd5b81925090602091810103126101cd57602001518015908115036101cd5738806133ec565b6133df906060906133d9565b600754600160401b8110156110d45780600161345a92016007556007612876565b9190916110be5760808163ffffffff8060029451161663ffffffff198554161784556020600185019101519061ffff825116815463ffff0000602085015160101b1665ffff00000000604086015160201b169161ffff60301b606087015160301b169361ffff60301b199165ffffffffffff1916171617171790550151910155565b801561269a576135ab6001826000908460801c80613611575b508060401c80613604575b508060201c806135f7575b508060101c806135ea575b508060081c806135dd575b508060041c806135d0575b508060021c806135c3575b50821c6135bc575b811c1b61354c81846127fb565b0160011c61355a81846127fb565b0160011c61356881846127fb565b0160011c61357681846127fb565b0160011c61358481846127fb565b0160011c61359281846127fb565b0160011c6135a081846127fb565b0160011c80926127fb565b808210156135b7575090565b905090565b810161353f565b6002915091019038613537565b600491509101903861352c565b6008915091019038613521565b6010915091019038613516565b602091509101903861350b565b6040915091019038613500565b915050608090386134f5565b90613643575080511561363257805190602001fd5b630a12f52160e11b60005260046000fd5b81511580613675575b613654575090565b639996b31560e01b60009081526001600160a01b0391909116600452602490fd5b50803b1561364c56fef42cf6f079dae9a1c4905bf4a189ed49c3efccf20a4af60f202bafa7d7d85a03f0c57e16840df040f15088dc2f81fe391c3923bec73e23a9662efc9c229c6a00a264697066735822122042192d71c8686a889aa50205860baf0eaaf5eab0119319a1effb567d211eb3a764736f6c634300081a0033","linkReferences":{}},"methodIdentifiers":{"DEFAULT_ADMIN_ROLE()":"a217fddf","DENOMINATOR()":"918f8674","GOV_ROLE()":"b536818a","TOKEN_SAVER_ROLE()":"76175b06","agentNft()":"9cbef4a9","claimAllRewards(uint256[],uint256[])":"1f1aea42","contributionNft()":"07c1aa1a","distributeRewards(uint256)":"59974e38","distributeRewardsForAgents(uint32,uint256[])":"b43fb074","getChildrenRewards(uint256)":"48d329ca","getMainReward(uint32)":"3a23ab06","getPastRewardSettings(uint32)":"ae956363","getReward(uint256,uint32)":"57ee9982","getRewardSettings()":"89e53e6b","getRoleAdmin(bytes32)":"248a9ca3","getServiceReward(uint256)":"05690371","getTotalClaimableRewards(address,uint256[],uint256[])":"0e449aeb","getVirtualTokenAddress(address,uint256)":"04b0ed53","grantRole(bytes32,address)":"2f2ff15d","hasRole(bytes32,address)":"91d14854","initialize(address,address,address,address,(uint16,uint16,uint16,uint16,uint256))":"eca1358b","protocolRewards()":"29df6479","renounceRole(bytes32,address)":"36568abe","revokeRole(bytes32,address)":"d547741f","rewardCount(uint256)":"e36f1d04","rewardToken()":"f7c618c1","saveToken(address,address,uint256)":"9afdb2c2","serviceNft()":"e56efef5","setPrevTokens(uint256[],address[])":"ae9c46ae","setRewardSettings(uint16,uint16,uint16,uint16,uint256)":"9282495b","supportsInterface(bytes4)":"01ffc9a7","updateRefContracts(address,address,address,address)":"a834ab71","validatorPoolRewards()":"dc247ba5","withdrawProtocolRewards(address)":"4ba021dc","withdrawValidatorPoolRewards(address)":"db0a6733"},"id":1}