{"abi":[{"type":"constructor","inputs":[],"stateMutability":"nonpayable"},{"type":"function","name":"battleElo","inputs":[{"name":"currentRating","type":"uint256","internalType":"uint256"},{"name":"battles","type":"uint8[]","internalType":"uint8[]"}],"outputs":[{"name":"","type":"uint256","internalType":"uint256"}],"stateMutability":"view"},{"type":"function","name":"initialize","inputs":[{"name":"initialOwner","type":"address","internalType":"address"}],"outputs":[],"stateMutability":"nonpayable"},{"type":"function","name":"k","inputs":[],"outputs":[{"name":"","type":"uint256","internalType":"uint256"}],"stateMutability":"view"},{"type":"function","name":"owner","inputs":[],"outputs":[{"name":"","type":"address","internalType":"address"}],"stateMutability":"view"},{"type":"function","name":"renounceOwnership","inputs":[],"outputs":[],"stateMutability":"nonpayable"},{"type":"function","name":"setK","inputs":[{"name":"k_","type":"uint256","internalType":"uint256"}],"outputs":[],"stateMutability":"nonpayable"},{"type":"function","name":"transferOwnership","inputs":[{"name":"newOwner","type":"address","internalType":"address"}],"outputs":[],"stateMutability":"nonpayable"},{"type":"event","name":"Initialized","inputs":[{"name":"version","type":"uint64","indexed":false,"internalType":"uint64"}],"anonymous":false},{"type":"event","name":"OwnershipTransferred","inputs":[{"name":"previousOwner","type":"address","indexed":true,"internalType":"address"},{"name":"newOwner","type":"address","indexed":true,"internalType":"address"}],"anonymous":false},{"type":"error","name":"InvalidInitialization","inputs":[]},{"type":"error","name":"NotInitializing","inputs":[]},{"type":"error","name":"OwnableInvalidOwner","inputs":[{"name":"owner","type":"address","internalType":"address"}]},{"type":"error","name":"OwnableUnauthorizedAccount","inputs":[{"name":"account","type":"address","internalType":"address"}]}],"bytecode":{"object":"0x6080806040523460d2577ff0c57e16840df040f15088dc2f81fe391c3923bec73e23a9662efc9c229c6a005460ff8160401c1660c1576002600160401b03196001600160401b03821601605c575b60405161088b90816100d88239f35b6001600160401b0319166001600160401b039081177ff0c57e16840df040f15088dc2f81fe391c3923bec73e23a9662efc9c229c6a005581527fc7f505b2f371ae2175ee4913f4499e1f2633a7b5936321eed1cdaeb6115181d290602090a13880604d565b63f92ee8a960e01b60005260046000fd5b600080fdfe6080604052600436101561001257600080fd5b6000803560e01c806367de8be9146105ab578063715018a6146105415780638da5cb5b1461050b578063b4f40c61146104ee578063c4d66de81461038d578063e6023b80146100a95763f2fde38b1461006a57600080fd5b346100a65760203660031901126100a6576004356001600160a01b03811681036100a25761009f9061009a610673565b6105fd565b80f35b5080fd5b80fd5b50346100a65760403660031901126100a65760243567ffffffffffffffff81116100a257366023820112156100a25780600401359067ffffffffffffffff8211610379578160051b9060405192601f19603f840116840184811067ffffffffffffffff821117610365576040528352602460208401928201019036821161036157602401915b81831061034357505082546127108102926103e892508490835b815183101561030957600061016960ff60208660051b86010151166106a9565b906019878410801561030057848903905b8061018861046684106106d9565b6102ee575b156102e557610320035b0489600a60018316156102dd5780925b60011c90815b610286575050506101c66101c66101c66101cb93610753565b610753565b606401801561027257880491860282811092831561026a5703905b60648201918281116102565760630191821161024257506001929160649091049015610229576102198161021f936105f0565b966105cd565b925b019193610149565b6102368161023c936105cd565b966105f0565b92610221565b634e487b7160e01b8a52601160045260248afd5b634e487b7160e01b82526011600452602482fd5b9003906101e6565b634e487b7160e01b82526012600452602482fd5b8060801c6102d5578002916102d95781600182166102ad575b50908b9160011c90816101ad565b83819294939d500291818304036102cb575b5091998a92918361029f565b6102d557386102bf565b8280fd5b8b80fd5b6001926101a7565b61032001610197565b6102fb61032083106106d9565b61018d565b8885039061017a565b61031687916004356105cd565b6103e71981019190821161032f57602082604051908152f35b634e487b7160e01b81526011600452602490fd5b823560ff8116810361035d5781526020928301920161012f565b8580fd5b8480fd5b634e487b7160e01b86526041600452602486fd5b634e487b7160e01b83526041600452602483fd5b50346100a65760203660031901126100a6576004356001600160a01b03811681036100a257600080516020610836833981519152549060ff8260401c16159167ffffffffffffffff8116801590816104e6575b60011490816104dc575b1590816104d3575b506104c45767ffffffffffffffff19811660011760008051602061083683398151915255610432919083610497575b5061042a610725565b61009a610725565b601e825561043d5780f35b68ff0000000000000000196000805160206108368339815191525416600080516020610836833981519152557fc7f505b2f371ae2175ee4913f4499e1f2633a7b5936321eed1cdaeb6115181d2602060405160018152a180f35b68ffffffffffffffffff191668010000000000000001176000805160206108368339815191525538610421565b63f92ee8a960e01b8452600484fd5b905015386103f2565b303b1591506103ea565b8491506103e0565b50346100a657806003193601126100a65760209054604051908152f35b50346100a657806003193601126100a657600080516020610816833981519152546040516001600160a01b039091168152602090f35b50346100a657806003193601126100a65761055a610673565b60008051602061081683398151915280546001600160a01b0319811690915581906001600160a01b03167f8be0079c531659141344cd1fd0a4f28419497f9722a3daafe3b4186f6b6457e08280a380f35b50346100a65760203660031901126100a6576105c5610673565b600435815580f35b919082018092116105da57565b634e487b7160e01b600052601160045260246000fd5b919082039182116105da57565b6001600160a01b0316801561065d5760008051602061081683398151915280546001600160a01b0319811683179091556001600160a01b03167f8be0079c531659141344cd1fd0a4f28419497f9722a3daafe3b4186f6b6457e0600080a3565b631e4fbdf760e01b600052600060045260246000fd5b600080516020610816833981519152546001600160a01b0316330361069457565b63118cdaa760e01b6000523360045260246000fd5b60ff16600181036106ba5750606490565b600281036106c85750603290565b6003146106d457600090565b603290565b156106e057565b60405162461bcd60e51b815260206004820152601b60248201527f526174696e6720646966666572656e636520746f6f206c6172676500000000006044820152606490fd5b60ff6000805160206108368339815191525460401c161561074257565b631afcd79f60e31b60005260046000fd5b60b581600160881b8110156107fe575b806901000000000000000000620100009210156107f1575b650100000000008110156107e4575b63010000008110156107d7575b010260121c8082040160011c8082040160011c8082040160011c8082040160011c8082040160011c8082040160011c8082040160011c8080920410900390565b60101c9160081b91610797565b60201c9160101b9161078a565b60401c9160201b9161077b565b5068b500000000000000009050608082901c61076356fe9016d09d72d40fdae2fd8ceac6b6234c7706214fd39c1cd1e609a0528c199300f0c57e16840df040f15088dc2f81fe391c3923bec73e23a9662efc9c229c6a00a2646970667358221220ddc82a033e94ab4c7d58b6edcea453979a0ab2c174a92fad0b09fc001ba7879c64736f6c634300081a0033","linkReferences":{}},"methodIdentifiers":{"battleElo(uint256,uint8[])":"e6023b80","initialize(address)":"c4d66de8","k()":"b4f40c61","owner()":"8da5cb5b","renounceOwnership()":"715018a6","setK(uint256)":"67de8be9","transferOwnership(address)":"f2fde38b"},"id":67}