{"abi":[{"type":"constructor","inputs":[],"stateMutability":"nonpayable"},{"type":"function","name":"approve","inputs":[{"name":"to","type":"address","internalType":"address"},{"name":"tokenId","type":"uint256","internalType":"uint256"}],"outputs":[],"stateMutability":"nonpayable"},{"type":"function","name":"balanceOf","inputs":[{"name":"owner","type":"address","internalType":"address"}],"outputs":[{"name":"","type":"uint256","internalType":"uint256"}],"stateMutability":"view"},{"type":"function","name":"contributionNft","inputs":[],"outputs":[{"name":"","type":"address","internalType":"address"}],"stateMutability":"view"},{"type":"function","name":"datasetImpactWeight","inputs":[],"outputs":[{"name":"","type":"uint16","internalType":"uint16"}],"stateMutability":"view"},{"type":"function","name":"getApproved","inputs":[{"name":"tokenId","type":"uint256","internalType":"uint256"}],"outputs":[{"name":"","type":"address","internalType":"address"}],"stateMutability":"view"},{"type":"function","name":"getCore","inputs":[{"name":"tokenId","type":"uint256","internalType":"uint256"}],"outputs":[{"name":"","type":"uint8","internalType":"uint8"}],"stateMutability":"view"},{"type":"function","name":"getCoreDatasetAt","inputs":[{"name":"virtualId","type":"uint256","internalType":"uint256"},{"name":"coreType","type":"uint8","internalType":"uint8"},{"name":"index","type":"uint256","internalType":"uint256"}],"outputs":[{"name":"","type":"uint256","internalType":"uint256"}],"stateMutability":"view"},{"type":"function","name":"getCoreDatasets","inputs":[{"name":"virtualId","type":"uint256","internalType":"uint256"},{"name":"coreType","type":"uint8","internalType":"uint8"}],"outputs":[{"name":"","type":"uint256[]","internalType":"uint256[]"}],"stateMutability":"view"},{"type":"function","name":"getCoreService","inputs":[{"name":"virtualId","type":"uint256","internalType":"uint256"},{"name":"coreType","type":"uint8","internalType":"uint8"}],"outputs":[{"name":"","type":"uint256","internalType":"uint256"}],"stateMutability":"view"},{"type":"function","name":"getImpact","inputs":[{"name":"tokenId","type":"uint256","internalType":"uint256"}],"outputs":[{"name":"","type":"uint256","internalType":"uint256"}],"stateMutability":"view"},{"type":"function","name":"getMaturity","inputs":[{"name":"tokenId","type":"uint256","internalType":"uint256"}],"outputs":[{"name":"","type":"uint256","internalType":"uint256"}],"stateMutability":"view"},{"type":"function","name":"initialize","inputs":[{"name":"initialAgentNft","type":"address","internalType":"address"},{"name":"initialContributionNft","type":"address","internalType":"address"},{"name":"initialDatasetImpactWeight","type":"uint16","internalType":"uint16"}],"outputs":[],"stateMutability":"nonpayable"},{"type":"function","name":"isApprovedForAll","inputs":[{"name":"owner","type":"address","internalType":"address"},{"name":"operator","type":"address","internalType":"address"}],"outputs":[{"name":"","type":"bool","internalType":"bool"}],"stateMutability":"view"},{"type":"function","name":"mint","inputs":[{"name":"virtualId","type":"uint256","internalType":"uint256"},{"name":"descHash","type":"bytes32","internalType":"bytes32"}],"outputs":[{"name":"","type":"uint256","internalType":"uint256"}],"stateMutability":"nonpayable"},{"type":"function","name":"name","inputs":[],"outputs":[{"name":"","type":"string","internalType":"string"}],"stateMutability":"view"},{"type":"function","name":"owner","inputs":[],"outputs":[{"name":"","type":"address","internalType":"address"}],"stateMutability":"view"},{"type":"function","name":"ownerOf","inputs":[{"name":"tokenId","type":"uint256","internalType":"uint256"}],"outputs":[{"name":"","type":"address","internalType":"address"}],"stateMutability":"view"},{"type":"function","name":"personaNft","inputs":[],"outputs":[{"name":"","type":"address","internalType":"address"}],"stateMutability":"view"},{"type":"function","name":"renounceOwnership","inputs":[],"outputs":[],"stateMutability":"nonpayable"},{"type":"function","name":"safeTransferFrom","inputs":[{"name":"from","type":"address","internalType":"address"},{"name":"to","type":"address","internalType":"address"},{"name":"tokenId","type":"uint256","internalType":"uint256"}],"outputs":[],"stateMutability":"nonpayable"},{"type":"function","name":"safeTransferFrom","inputs":[{"name":"from","type":"address","internalType":"address"},{"name":"to","type":"address","internalType":"address"},{"name":"tokenId","type":"uint256","internalType":"uint256"},{"name":"data","type":"bytes","internalType":"bytes"}],"outputs":[],"stateMutability":"nonpayable"},{"type":"function","name":"setApprovalForAll","inputs":[{"name":"operator","type":"address","internalType":"address"},{"name":"approved","type":"bool","internalType":"bool"}],"outputs":[],"stateMutability":"nonpayable"},{"type":"function","name":"setDatasetImpactWeight","inputs":[{"name":"weight","type":"uint16","internalType":"uint16"}],"outputs":[],"stateMutability":"nonpayable"},{"type":"function","name":"supportsInterface","inputs":[{"name":"interfaceId","type":"bytes4","internalType":"bytes4"}],"outputs":[{"name":"","type":"bool","internalType":"bool"}],"stateMutability":"view"},{"type":"function","name":"symbol","inputs":[],"outputs":[{"name":"","type":"string","internalType":"string"}],"stateMutability":"view"},{"type":"function","name":"tokenByIndex","inputs":[{"name":"index","type":"uint256","internalType":"uint256"}],"outputs":[{"name":"","type":"uint256","internalType":"uint256"}],"stateMutability":"view"},{"type":"function","name":"tokenOfOwnerByIndex","inputs":[{"name":"owner","type":"address","internalType":"address"},{"name":"index","type":"uint256","internalType":"uint256"}],"outputs":[{"name":"","type":"uint256","internalType":"uint256"}],"stateMutability":"view"},{"type":"function","name":"tokenURI","inputs":[{"name":"tokenId","type":"uint256","internalType":"uint256"}],"outputs":[{"name":"","type":"string","internalType":"string"}],"stateMutability":"view"},{"type":"function","name":"totalCoreDatasets","inputs":[{"name":"virtualId","type":"uint256","internalType":"uint256"},{"name":"coreType","type":"uint8","internalType":"uint8"}],"outputs":[{"name":"","type":"uint256","internalType":"uint256"}],"stateMutability":"view"},{"type":"function","name":"totalSupply","inputs":[],"outputs":[{"name":"","type":"uint256","internalType":"uint256"}],"stateMutability":"view"},{"type":"function","name":"transferFrom","inputs":[{"name":"from","type":"address","internalType":"address"},{"name":"to","type":"address","internalType":"address"},{"name":"tokenId","type":"uint256","internalType":"uint256"}],"outputs":[],"stateMutability":"nonpayable"},{"type":"function","name":"transferOwnership","inputs":[{"name":"newOwner","type":"address","internalType":"address"}],"outputs":[],"stateMutability":"nonpayable"},{"type":"function","name":"updateImpact","inputs":[{"name":"virtualId","type":"uint256","internalType":"uint256"},{"name":"proposalId","type":"uint256","internalType":"uint256"}],"outputs":[],"stateMutability":"nonpayable"},{"type":"event","name":"Approval","inputs":[{"name":"owner","type":"address","indexed":true,"internalType":"address"},{"name":"approved","type":"address","indexed":true,"internalType":"address"},{"name":"tokenId","type":"uint256","indexed":true,"internalType":"uint256"}],"anonymous":false},{"type":"event","name":"ApprovalForAll","inputs":[{"name":"owner","type":"address","indexed":true,"internalType":"address"},{"name":"operator","type":"address","indexed":true,"internalType":"address"},{"name":"approved","type":"bool","indexed":false,"internalType":"bool"}],"anonymous":false},{"type":"event","name":"BatchMetadataUpdate","inputs":[{"name":"_fromTokenId","type":"uint256","indexed":false,"internalType":"uint256"},{"name":"_toTokenId","type":"uint256","indexed":false,"internalType":"uint256"}],"anonymous":false},{"type":"event","name":"CoreServiceUpdated","inputs":[{"name":"virtualId","type":"uint256","indexed":false,"internalType":"uint256"},{"name":"coreType","type":"uint8","indexed":false,"internalType":"uint8"},{"name":"serviceId","type":"uint256","indexed":false,"internalType":"uint256"}],"anonymous":false},{"type":"event","name":"DatasetImpactUpdated","inputs":[{"name":"weight","type":"uint16","indexed":false,"internalType":"uint16"}],"anonymous":false},{"type":"event","name":"Initialized","inputs":[{"name":"version","type":"uint64","indexed":false,"internalType":"uint64"}],"anonymous":false},{"type":"event","name":"MetadataUpdate","inputs":[{"name":"_tokenId","type":"uint256","indexed":false,"internalType":"uint256"}],"anonymous":false},{"type":"event","name":"NewService","inputs":[{"name":"tokenId","type":"uint256","indexed":false,"internalType":"uint256"},{"name":"coreId","type":"uint8","indexed":false,"internalType":"uint8"},{"name":"maturity","type":"uint256","indexed":false,"internalType":"uint256"},{"name":"impact","type":"uint256","indexed":false,"internalType":"uint256"},{"name":"isModel","type":"bool","indexed":false,"internalType":"bool"}],"anonymous":false},{"type":"event","name":"OwnershipTransferred","inputs":[{"name":"previousOwner","type":"address","indexed":true,"internalType":"address"},{"name":"newOwner","type":"address","indexed":true,"internalType":"address"}],"anonymous":false},{"type":"event","name":"SetServiceScore","inputs":[{"name":"serviceId","type":"uint256","indexed":false,"internalType":"uint256"},{"name":"eloRating","type":"uint256","indexed":false,"internalType":"uint256"},{"name":"impact","type":"uint256","indexed":false,"internalType":"uint256"}],"anonymous":false},{"type":"event","name":"Transfer","inputs":[{"name":"from","type":"address","indexed":true,"internalType":"address"},{"name":"to","type":"address","indexed":true,"internalType":"address"},{"name":"tokenId","type":"uint256","indexed":true,"internalType":"uint256"}],"anonymous":false},{"type":"error","name":"ERC721EnumerableForbiddenBatchMint","inputs":[]},{"type":"error","name":"ERC721IncorrectOwner","inputs":[{"name":"sender","type":"address","internalType":"address"},{"name":"tokenId","type":"uint256","internalType":"uint256"},{"name":"owner","type":"address","internalType":"address"}]},{"type":"error","name":"ERC721InsufficientApproval","inputs":[{"name":"operator","type":"address","internalType":"address"},{"name":"tokenId","type":"uint256","internalType":"uint256"}]},{"type":"error","name":"ERC721InvalidApprover","inputs":[{"name":"approver","type":"address","internalType":"address"}]},{"type":"error","name":"ERC721InvalidOperator","inputs":[{"name":"operator","type":"address","internalType":"address"}]},{"type":"error","name":"ERC721InvalidOwner","inputs":[{"name":"owner","type":"address","internalType":"address"}]},{"type":"error","name":"ERC721InvalidReceiver","inputs":[{"name":"receiver","type":"address","internalType":"address"}]},{"type":"error","name":"ERC721InvalidSender","inputs":[{"name":"sender","type":"address","internalType":"address"}]},{"type":"error","name":"ERC721NonexistentToken","inputs":[{"name":"tokenId","type":"uint256","internalType":"uint256"}]},{"type":"error","name":"ERC721OutOfBoundsIndex","inputs":[{"name":"owner","type":"address","internalType":"address"},{"name":"index","type":"uint256","internalType":"uint256"}]},{"type":"error","name":"InvalidInitialization","inputs":[]},{"type":"error","name":"NotInitializing","inputs":[]},{"type":"error","name":"OwnableInvalidOwner","inputs":[{"name":"owner","type":"address","internalType":"address"}]},{"type":"error","name":"OwnableUnauthorizedAccount","inputs":[{"name":"account","type":"address","internalType":"address"}]}],"bytecode":{"object":"0x6080806040523460d2577ff0c57e16840df040f15088dc2f81fe391c3923bec73e23a9662efc9c229c6a005460ff8160401c1660c1576002600160401b03196001600160401b03821601605c575b60405161288290816100d88239f35b6001600160401b0319166001600160401b039081177ff0c57e16840df040f15088dc2f81fe391c3923bec73e23a9662efc9c229c6a005581527fc7f505b2f371ae2175ee4913f4499e1f2633a7b5936321eed1cdaeb6115181d290602090a13880604d565b63f92ee8a960e01b60005260046000fd5b600080fdfe608080604052600436101561001357600080fd5b60003560e01c90816301ffc9a714611bba5750806306fdde0314611b0a57806307c1aa1a14611ae1578063081812fc14611a96578063095ea7b3146119a45780631801fbe514610fe057806318160ddd14610fb557806323b872dd14610f9e5780632435986914610f5b578063252079b214610f2257806327f98c1114610e8e5780632f745c5914610e095780633f98641c14610db457806342842e0e14610d8a5780634f6ccce714610cd85780635a03ac1e14610c625780636352211e14610c3257806370a0823114610c07578063715018a614610b9d5780637ebef529146106765780637f1e7d411461064057806387e2d553146105fd5780638da5cb5b146105c757806395d89b41146104cc578063a22cb46514610430578063b88d4fde146103a7578063c5f69f6814610388578063c87b56dd1461028c578063ce6d5e3814610267578063dcf75bef1461023e578063e6aed85714610208578063e985e9c5146101ba5763f2fde38b1461018a57600080fd5b346101b55760203660031901126101b5576101b36101a6611ca1565b6101ae61268e565b6125e7565b005b600080fd5b346101b55760403660031901126101b5576101d3611ca1565b6101e46101de611cb7565b916121c8565b9060018060a01b0316600052602052602060ff604060002054166040519015158152f35b346101b55760203660031901126101b5576004356102258161265d565b5060005260056020526020604060002054604051908152f35b346101b55760003660031901126101b5576001546040516001600160a01b039091168152602090f35b346101b55760003660031901126101b557602061ffff60025460a01c16604051908152f35b346101b55760203660031901126101b55760025460405163c87b56dd60e01b8152600480359082015290600090829060249082906001600160a01b03165afa90811561037c576000916102f4575b604051602080825281906102f090820185611c7c565b0390f35b3d8083833e6103038183611d4b565b8101906020818303126103745780519067ffffffffffffffff8211610378570181601f820112156103745780519261033a84611d6d565b926103486040519485611d4b565b8484526020858401011161037157506102f09261036b9160208085019101611c59565b906102da565b80fd5b8280fd5b8380fd5b6040513d6000823e3d90fd5b346101b55760403660031901126101b5576101b36024356004356123d6565b346101b55760803660031901126101b5576103c0611ca1565b6103c8611cb7565b6064359167ffffffffffffffff83116101b557366023840112156101b5578260040135916103f583611d6d565b926104036040519485611d4b565b80845236602482870101116101b55760208160009260246101b3980183880137850101526044359161226c565b346101b55760403660031901126101b557610449611ca1565b602435908115158092036101b5576001600160a01b03169081156104b757610470336121c8565b82600052602052604060002060ff1981541660ff83161790556040519081527f17307eab39ab6107e8899845ad3d59bd9653f200f220920489ca2b5937696c3160203392a3005b50630b61174360e31b60005260045260246000fd5b346101b55760003660031901126101b557604051600060008051602061280d833981519152546104fb81611d89565b80845290600181169081156105a35750600114610537575b6102f08361052381850382611d4b565b604051918291602083526020830190611c7c565b60008051602061280d83398151915260009081527ff4bad0a69248f59680a4f2b3000328cec71a413447c96781cfe5996daa8c456e939250905b80821061058957509091508101602001610523610513565b919260018160209254838588010152019101909291610571565b60ff191660208086019190915291151560051b840190910191506105239050610513565b346101b55760003660031901126101b55760008051602061278d833981519152546040516001600160a01b039091168152602090f35b346101b55760403660031901126101b557610616611d07565b600435600052600660205260ff604060002091166000526020526020604060002054604051908152f35b346101b55760203660031901126101b55760043561065d8161265d565b5060005260046020526020604060002054604051908152f35b346101b55760603660031901126101b55761068f611ca1565b610697611cb7565b6044359061ffff821682036101b5576000805160206127ed833981519152549160ff8360401c16159267ffffffffffffffff811680159081610b95575b6001149081610b8b575b159081610b82575b50610b715767ffffffffffffffff1981166001176000805160206127ed8339815191525583610b44575b5060409384516107208682611d4b565b60078152665365727669636560c81b60208201528551906107418783611d4b565b6002825261565360f01b60208301526107586126fe565b6107606126fe565b80519067ffffffffffffffff8211610a1157819061078c60008051602061276d83398151915254611d89565b601f8111610ac0575b50602090601f8311600114610a3257600092610a27575b50508160011b916000199060031b1c19161760008051602061276d833981519152555b80519067ffffffffffffffff8211610a115781906107fb60008051602061280d83398151915254611d89565b601f8111610994575b50602090601f831160011461091257600092610907575b50508160011b916000199060031b1c19161760008051602061280d833981519152555b6108466126fe565b61084e6126fe565b6108566126fe565b61085e6126fe565b610867336125e7565b600180546001600160a01b0319166001600160a01b03928316179055600280546001600160b01b031916939091169290921760a09190911b61ffff60a01b161790556108af57005b60207fc7f505b2f371ae2175ee4913f4499e1f2633a7b5936321eed1cdaeb6115181d29168ff0000000000000000196000805160206127ed83398151915254166000805160206127ed833981519152555160018152a1005b01519050878061081b565b60008051602061280d83398151915260009081528281209350601f198516905b81811061097c5750908460019594939210610963575b505050811b0160008051602061280d8339815191525561083e565b015160001960f88460031b161c19169055878080610948565b92936020600181928786015181550195019301610932565b60008051602061280d8339815191526000529091507ff4bad0a69248f59680a4f2b3000328cec71a413447c96781cfe5996daa8c456e601f840160051c81019160208510610a07575b90601f859493920160051c01905b8181106109f85750610804565b600081558493506001016109eb565b90915081906109dd565b634e487b7160e01b600052604160045260246000fd5b0151905088806107ac565b60008051602061276d833981519152600090815260008051602061282d8339815191529350601f198516905b818110610aa85750908460019594939210610a8f575b505050811b0160008051602061276d833981519152556107cf565b015160001960f88460031b161c19169055888080610a74565b92936020600181928786015181550195019301610a5e565b90915060008051602061276d833981519152600052601f830160051c60008051602061282d833981519152019060208410610b2e575b90601f8493920160051c60008051602061282d83398151915201905b818110610b1f5750610795565b60008155849350600101610b12565b60008051602061282d8339815191529150610af6565b68ffffffffffffffffff191668010000000000000001176000805160206127ed8339815191525584610710565b63f92ee8a960e01b60005260046000fd5b905015866106e6565b303b1591506106de565b8591506106d4565b346101b55760003660031901126101b557610bb661268e565b60008051602061278d83398151915280546001600160a01b031981169091556000906001600160a01b03167f8be0079c531659141344cd1fd0a4f28419497f9722a3daafe3b4186f6b6457e08280a3005b346101b55760203660031901126101b5576020610c2a610c25611ca1565b61223a565b604051908152f35b346101b55760203660031901126101b5576020610c5060043561265d565b6040516001600160a01b039091168152f35b346101b55760203660031901126101b55760043561ffff8116908181036101b5577f96bb86fe6b0f03915e6cdc0b513be478aa7b91d0330a1030518bd0c4dd0d116a91602091610cb061268e565b6002805461ffff60a01b191660a09290921b61ffff60a01b16919091179055604051908152a1005b346101b55760203660031901126101b5576004356000805160206127ad83398151915254811015610d71576000906000805160206127ad83398151915254811015610d5d576000805160206127ad8339815191529091527fa42f15e5d656f8155fd7419d740a6073999f19cd6e061449ce4a257150545bf20154604051908152602090f35b634e487b7160e01b82526032600452602482fd5b63295f44f760e21b600052600060045260245260446000fd5b346101b5576101b3610d9b36611ccd565b9060405192610dab602085611d4b565b6000845261226c565b346101b55760603660031901126101b557610dcd611d07565b600435600052600760205260ff604060002091166000526020526020610dfa604060002060443590611e08565b90549060031b1c604051908152f35b346101b55760403660031901126101b557610e22611ca1565b60243590610e2f8161223a565b821015610e6f5760018060a01b031660005260008051602061274d8339815191526020526040600020906000526020526020604060002054604051908152f35b63295f44f760e21b60005260018060a01b031660045260245260446000fd5b346101b55760403660031901126101b557610ea7611d07565b600435600052600760205260ff60406000209116600052602052604060002060405190816020825491828152019160005260206000209060005b818110610f0c576102f085610ef881870382611d4b565b604051918291602083526020830190611d17565b8254845260209093019260019283019201610ee1565b346101b55760203660031901126101b557600435610f3f8161265d565b506000526003602052602060ff60406000205416604051908152f35b346101b55760403660031901126101b557610f74611d07565b600435600052600760205260ff604060002091166000526020526020604060002054604051908152f35b346101b5576101b3610faf36611ccd565b91611e6e565b346101b55760003660031901126101b55760206000805160206127ad83398151915254604051908152f35b346101b55760403660031901126101b5576024600435813590600060018060a01b036001541660405194858092635652386760e11b82528560048301525afa92831561037c57600093611853575b5082516001600160a01b0316330361180e578251604051631801fbe560e01b602082015260248101839052604480820185905281529291906001600160a01b031661107a606485611d4b565b60409283519061108a8583611d4b565b60018252601f198501906020830182368237306110a685611de5565b528651976110b4888a611d4b565b60018952833660208b013760006110ca8a611de5565b528751936110d88986611d4b565b6001855260005b8181106117fb5750506110f184611de5565b526110fb83611de5565b50865163316415f960e21b8152608060048201529351608485018190529397889460a48601929060005b8181106117d9575050508482036003190160248601526111459190611d17565b600319848203016044850152825180825260208201916020808360051b8301019501926000915b8383106117a657505050505082602094928192606483015203915afa92831561153957600093611772575b5060608401516001600160a01b0316801561175c576000906111b8856126c4565b6001600160a01b03811680158015949293929183918661171d575b6111dc83612201565b805460010190558984527f80bb2b638cc20bc4d0a60d66940f3ab4a00c1d7b313497ca82fb0b4ab007930260205288842080546001600160a01b0319166001600160a01b0385161790558983837fddf252ad1be2c89b69c2b068fc378daa952ba7f163c4a11628f55a4df523b3ef8780a415611646576000805160206127ad833981519152548984527f645e039705490088daad89bae25049a34f4a9072d398537b1ab2425f24cbed036020528884205561129689611e20565b036115d9575b5050506115c35760025482516312903cd960e11b81526004810185905290602090829060249082906001600160a01b03165afa9081156115b857600091611577575b50602494602091856000526003835260ff85600020911660ff1982541617905560018060a01b03905116835195868092637f1e7d4160e01b82528760048301525afa801561153957600090611544575b602494508360005260046020528260002055602060018060a01b0360025416835195868092638209c69960e01b82528760048301525afa938415611539576000946114f6575b5083156114655760a06020947fa9125a360b8b166ef7546b869159e4f0a4309857e23d58bf49d142ff287e22699285600052600387527f45c6adbf8d3cf8bc3057920eb2f540e959a3ef2be5ed2eed7d2e180c39d5c6df606060ff8760002054168751908482528a8201528888820152a16113ef86826123d6565b6000526006865283600020856000526003875260ff808660002054161660005286528484600020555b846000526003865260ff846000205416908560005260048752846000205486600052600588528560002054908651938885528985015286840152606083015215156080820152a151908152f35b6000526007602052808060002083600052600360205260ff8260002054169060ff600092168252602052208054600160401b811015610a11576020946114f1856114d8847fa9125a360b8b166ef7546b869159e4f0a4309857e23d58bf49d142ff287e226996600160a097018155611e08565b90919082549060031b91821b91600019901b1916179055565b611418565b6020949194813d602011611531575b8161151260209383611d4b565b8101031261152d575190811515820361037157509284611374565b5080fd5b3d9150611505565b82513d6000823e3d90fd5b506020843d60201161156f575b8161155e60209383611d4b565b810103126101b5576024935161132e565b3d9150611551565b90506020813d6020116115b0575b8161159260209383611d4b565b810103126101b5576024946115a8602092611dd7565b9150946112de565b3d9150611585565b83513d6000823e3d90fd5b6339e3563760e11b600052600060045260246000fd5b6115e28261223a565b60001981019290831161163257908691815260008051602061274d833981519152602052818120838252602052878282205587815260008051602061272d8339815191526020522055868061129c565b634e487b7160e01b82526011600452602482fd5b808214611296576116568561223a565b89845260008051602061272d833981519152602052888420548181036116ba575b5089845260008051602061272d833981519152602052838981205581845260008051602061274d8339815191526020528884209084526020528288812055611296565b82855260008051602061274d8339815191526020528985208286526020528985205483865260008051602061274d8339815191526020528a8620828752602052808b872055855260008051602061272d833981519152602052898520558b611677565b60008a81526000805160206127cd8339815191526020526040902080546001600160a01b031916905561174f86612201565b80546000190190556111d3565b633250574960e11b600052600060045260246000fd5b90926020823d60201161179e575b8161178d60209383611d4b565b810103126103715750519184611197565b3d9150611780565b919396509193946020806117c6600193601f198682030187528a51611c7c565b98019301930190928a969594929361116c565b82516001600160a01b031685528b975060209485019490920191600101611125565b60606020828801810191909152016110df565b60405162461bcd60e51b815260206004820152601960248201527f43616c6c6572206973206e6f74205649525455414c2044414f000000000000006044820152606490fd5b90923d8082843e6118648184611d4b565b82019160208184031261152d5780519067ffffffffffffffff821161037457019160a08382031261152d576040519260a0840184811067ffffffffffffffff821117611990576040526118b681611dc3565b84526118c460208201611dc3565b60208501526118d560408201611dc3565b60408501526118e660608201611dc3565b606085015260808101519067ffffffffffffffff821161037857019181601f840112156103715782519267ffffffffffffffff841161197c578360051b9160208301946119366040519687611d4b565b85526020808601938301019384116103715750602001905b828210611964575050506080820152918361102e565b6020809161197184611dd7565b81520191019061194e565b634e487b7160e01b82526041600452602482fd5b634e487b7160e01b84526041600452602484fd5b346101b55760403660031901126101b5576119bd611ca1565b6024356119c98161265d565b33151580611a83575b80611a5f575b611a4a5781906001600160a01b0384811691167f8c5be1e5ebec7d5bd14f71427d1e84f3dd0314c0f7b2291e5b200ac8c7c3b925600080a460009081526000805160206127cd8339815191526020526040902080546001600160a01b0319166001600160a01b03909216919091179055005b63a9fbf51f60e01b6000523360045260246000fd5b50611a69816121c8565b336000908152602091909152604090205460ff16156119d8565b506001600160a01b0381163314156119d2565b346101b55760203660031901126101b5576020610c50600435611ab88161265d565b5060009081526000805160206127cd83398151915260205260409020546001600160a01b031690565b346101b55760003660031901126101b5576002546040516001600160a01b039091168152602090f35b346101b55760003660031901126101b557604051600060008051602061276d83398151915254611b3981611d89565b80845290600181169081156105a35750600114611b60576102f08361052381850382611d4b565b60008051602061276d833981519152600090815260008051602061282d833981519152939250905b808210611ba057509091508101602001610523610513565b919260018160209254838588010152019101909291611b88565b346101b55760203660031901126101b5576004359063ffffffff60e01b82168092036101b557602091632483248360e11b8114908115611bfc575b5015158152f35b63780e9d6360e01b811491508115611c16575b5083611bf5565b6380ac58cd60e01b811491508115611c48575b8115611c37575b5083611c0f565b6301ffc9a760e01b14905083611c30565b635b5e139f60e01b81149150611c29565b60005b838110611c6c5750506000910152565b8181015183820152602001611c5c565b90602091611c9581518092818552858086019101611c59565b601f01601f1916010190565b600435906001600160a01b03821682036101b557565b602435906001600160a01b03821682036101b557565b60609060031901126101b5576004356001600160a01b03811681036101b557906024356001600160a01b03811681036101b5579060443590565b6024359060ff821682036101b557565b906020808351928381520192019060005b818110611d355750505090565b8251845260209384019390920191600101611d28565b90601f8019910116810190811067ffffffffffffffff821117610a1157604052565b67ffffffffffffffff8111610a1157601f01601f191660200190565b90600182811c92168015611db9575b6020831014611da357565b634e487b7160e01b600052602260045260246000fd5b91607f1691611d98565b51906001600160a01b03821682036101b557565b519060ff821682036101b557565b805115611df25760200190565b634e487b7160e01b600052603260045260246000fd5b8054821015611df25760005260206000200190600090565b6000805160206127ad8339815191525490600160401b821015610a11576114d8826001611e6c94016000805160206127ad833981519152556000805160206127ad833981519152611e08565b565b9091906001600160a01b038316801561175c57600090611e8d846126c4565b913315158061211c575b506001600160a01b03831695861580156120dd575b611eb582612201565b805460010190558683527f80bb2b638cc20bc4d0a60d66940f3ab4a00c1d7b313497ca82fb0b4ab00793026020526040832080546001600160a01b031916851790558684897fddf252ad1be2c89b69c2b068fc378daa952ba7f163c4a11628f55a4df523b3ef8680a415611ffd576000805160206127ad833981519152548683527f645e039705490088daad89bae25049a34f4a9072d398537b1ab2425f24cbed036020526040832055611f6886611e20565b828703611fa2575b5050505060018060a01b0316808303611f8857505050565b6364283d7b60e01b60005260045260245260445260646000fd5b611fab9061223a565b6000198101929083116116325790604091815260008051602061274d833981519152602052818120838252602052858282205585815260008051602061272d8339815191526020522055388080611f70565b868314611f685761200d8461223a565b86835260008051602061272d8339815191526020526040832054818103612075575b5086835260008051602061272d83398151915260205282604081205587835260008051602061274d83398151915260205260408320908352602052816040812055611f68565b88845260008051602061274d83398151915260205260408420828552602052604084205489855260008051602061274d83398151915260205260408520828652602052806040862055845260008051602061272d83398151915260205260408420553861202f565b60008781526000805160206127cd8339815191526020526040902080546001600160a01b031916905561210f85612201565b8054600019019055611eac565b80612165575b1561212d5738611e97565b9250506001600160a01b031661214f57602491637e27328960e01b8252600452fd5b60449163177e802f60e01b825233600452602452fd5b506001600160a01b038316331480156121ab575b80612122575060008581526000805160206127cd83398151915260205260409020546001600160a01b03163314612122565b506121b5836121c8565b338252602052604081205460ff16612179565b6001600160a01b031660009081527f80bb2b638cc20bc4d0a60d66940f3ab4a00c1d7b313497ca82fb0b4ab00793056020526040902090565b6001600160a01b031660009081527f80bb2b638cc20bc4d0a60d66940f3ab4a00c1d7b313497ca82fb0b4ab00793036020526040902090565b6001600160a01b038116156122565761225290612201565b5490565b6322718ad960e21b600052600060045260246000fd5b9291612279818386611e6e565b813b612286575b50505050565b604051630a85bd0160e11b81523360048201526001600160a01b03948516602482015260448101919091526080606482015292169190602090829081906122d1906084830190611c7c565b03816000865af18091600091612370575b509061233b57503d15612334573d6122f981611d6d565b906123076040519283611d4b565b81523d6000602083013e5b8051908161232f5782633250574960e11b60005260045260246000fd5b602001fd5b6060612312565b6001600160e01b03191663757a42ff60e11b0161235c575038808080612280565b633250574960e11b60005260045260246000fd5b6020813d6020116123ab575b8161238960209383611d4b565b8101031261152d5751906001600160e01b0319821682036103715750386122e2565b3d915061237c565b919082039182116123c057565b634e487b7160e01b600052601160045260246000fd5b6000908152600660209081526040808320848452600383528184205460ff1684528252808320548484526004909252808320548284529083205410156125e057600083815260046020526040808220549282529020546124379250906123b3565b905b6002546040516360a58cbd60e11b81526004810183905290602090829060249082906001600160a01b03165afa90811561037c576000916125ae575b5081600052600560205282604060002055806124e1575b50600081815260046020908152604080832054600583529281902054815194855291840192909252908201527fd4dd630f340a33010ac6e15bb9540a676dbeaf5ad85e43fa2f3f856ac40a19399150606090a1565b61ffff60025460a01c168084029084820414841517156123c0576000828152600560205260409020612710909104908190557fd4dd630f340a33010ac6e15bb9540a676dbeaf5ad85e43fa2f3f856ac40a19399361253f91906123b3565b826000526005602052604060002055816000526004602052826040600020548260005260056020526040600020549061258f60405192839286846040919493926060820195825260208201520152565b0390a1600082815260046020526040808220549282529020553861248c565b906020823d6020116125d8575b816125c860209383611d4b565b8101031261037157505138612475565b3d91506125bb565b5090612439565b6001600160a01b031680156126475760008051602061278d83398151915280546001600160a01b0319811683179091556001600160a01b03167f8be0079c531659141344cd1fd0a4f28419497f9722a3daafe3b4186f6b6457e0600080a3565b631e4fbdf760e01b600052600060045260246000fd5b612666816126c4565b906001600160a01b0382161561267a575090565b637e27328960e01b60005260045260246000fd5b60008051602061278d833981519152546001600160a01b031633036126af57565b63118cdaa760e01b6000523360045260246000fd5b60009081527f80bb2b638cc20bc4d0a60d66940f3ab4a00c1d7b313497ca82fb0b4ab007930260205260409020546001600160a01b031690565b60ff6000805160206127ed8339815191525460401c161561271b57565b631afcd79f60e31b60005260046000fdfe645e039705490088daad89bae25049a34f4a9072d398537b1ab2425f24cbed01645e039705490088daad89bae25049a34f4a9072d398537b1ab2425f24cbed0080bb2b638cc20bc4d0a60d66940f3ab4a00c1d7b313497ca82fb0b4ab00793009016d09d72d40fdae2fd8ceac6b6234c7706214fd39c1cd1e609a0528c199300645e039705490088daad89bae25049a34f4a9072d398537b1ab2425f24cbed0280bb2b638cc20bc4d0a60d66940f3ab4a00c1d7b313497ca82fb0b4ab0079304f0c57e16840df040f15088dc2f81fe391c3923bec73e23a9662efc9c229c6a0080bb2b638cc20bc4d0a60d66940f3ab4a00c1d7b313497ca82fb0b4ab007930137c58c799b6609234b945e882912ee9ad34948a1dfaa20a97485e1a7752bbf81a264697066735822122077328997fd4032fdabc00edf595aceb26653b5d69fa368e28039a31c411288cb64736f6c634300081a0033","linkReferences":{}},"methodIdentifiers":{"approve(address,uint256)":"095ea7b3","balanceOf(address)":"70a08231","contributionNft()":"07c1aa1a","datasetImpactWeight()":"ce6d5e38","getApproved(uint256)":"081812fc","getCore(uint256)":"252079b2","getCoreDatasetAt(uint256,uint8,uint256)":"3f98641c","getCoreDatasets(uint256,uint8)":"27f98c11","getCoreService(uint256,uint8)":"87e2d553","getImpact(uint256)":"e6aed857","getMaturity(uint256)":"7f1e7d41","initialize(address,address,uint16)":"7ebef529","isApprovedForAll(address,address)":"e985e9c5","mint(uint256,bytes32)":"1801fbe5","name()":"06fdde03","owner()":"8da5cb5b","ownerOf(uint256)":"6352211e","personaNft()":"dcf75bef","renounceOwnership()":"715018a6","safeTransferFrom(address,address,uint256)":"42842e0e","safeTransferFrom(address,address,uint256,bytes)":"b88d4fde","setApprovalForAll(address,bool)":"a22cb465","setDatasetImpactWeight(uint16)":"5a03ac1e","supportsInterface(bytes4)":"01ffc9a7","symbol()":"95d89b41","tokenByIndex(uint256)":"4f6ccce7","tokenOfOwnerByIndex(address,uint256)":"2f745c59","tokenURI(uint256)":"c87b56dd","totalCoreDatasets(uint256,uint8)":"24359869","totalSupply()":"18160ddd","transferFrom(address,address,uint256)":"23b872dd","transferOwnership(address)":"f2fde38b","updateImpact(uint256,uint256)":"c5f69f68"},"id":8}