{"abi":[{"type":"function","name":"initialize","inputs":[{"name":"name","type":"string","internalType":"string"},{"name":"symbol","type":"string","internalType":"string"},{"name":"founder","type":"address","internalType":"address"},{"name":"stakingAsset","type":"address","internalType":"address"},{"name":"maturityTimestamp","type":"uint256","internalType":"uint256"},{"name":"nft","type":"address","internalType":"address"},{"name":"canStake","type":"bool","internalType":"bool"}],"outputs":[],"stateMutability":"nonpayable"},{"type":"function","name":"stake","inputs":[{"name":"amount","type":"uint256","internalType":"uint256"},{"name":"owner","type":"address","internalType":"address"},{"name":"delegatee","type":"address","internalType":"address"}],"outputs":[],"stateMutability":"nonpayable"}],"bytecode":{"object":"0x608080604052346015576101e3908161001b8239f35b600080fdfe6080604052600436101561001257600080fd5b60003560e01c8063a7d545db146100b25763b2193b4d1461003257600080fd5b346100ad5760e03660031901126100ad5760043567ffffffffffffffff81116100ad5761006390369060040161012e565b5060243567ffffffffffffffff81116100ad5761008490369060040161012e565b5061008d6100ec565b50610096610102565b5061009f610118565b5060c435801515036100ad57005b600080fd5b346100ad5760603660031901126100ad576100cb6100d6565b506100d46100ec565b005b602435906001600160a01b03821682036100ad57565b604435906001600160a01b03821682036100ad57565b606435906001600160a01b03821682036100ad57565b60a435906001600160a01b03821682036100ad57565b81601f820112156100ad5780359067ffffffffffffffff82116101975760405192601f8301601f19908116603f0116840167ffffffffffffffff81118582101761019757604052828452602083830101116100ad57816000926020809301838601378301015290565b634e487b7160e01b600052604160045260246000fdfea2646970667358221220927bacce587139a50f3f93f623c46f27a9eb4a4d42f5aa0e3eff1b48ab2f537764736f6c634300081a0033","linkReferences":{}},"methodIdentifiers":{"initialize(string,string,address,address,uint256,address,bool)":"b2193b4d","stake(uint256,address,address)":"a7d545db"},"id":125}