{"abi":[{"type":"function","name":"deposit","inputs":[{"name":"rootToken","type":"address","internalType":"address"},{"name":"amount","type":"uint256","internalType":"uint256"}],"outputs":[],"stateMutability":"nonpayable"},{"type":"function","name":"syncWithdraw","inputs":[{"name":"rootToken","type":"address","internalType":"address"},{"name":"amount","type":"uint256","internalType":"uint256"}],"outputs":[],"stateMutability":"nonpayable"},{"type":"error","name":"AddressEmptyCode","inputs":[{"name":"target","type":"address","internalType":"address"}]},{"type":"error","name":"AddressInsufficientBalance","inputs":[{"name":"account","type":"address","internalType":"address"}]},{"type":"error","name":"FailedInnerCall","inputs":[]},{"type":"error","name":"SafeERC20FailedOperation","inputs":[{"name":"token","type":"address","internalType":"address"}]}],"bytecode":{"object":"0x60808060405234601557610272908161001b8239f35b600080fdfe608080604052600436101561001357600080fd5b60003560e01c90816347e7ef2414610087575063e90cbc171461003557600080fd5b3461008257610080610046366100c6565b906040519163a9059cbb60e01b60208401523360248401526044830152604482526100726064836100ec565b6001600160a01b0316610124565b005b600080fd5b346100825761008090610099366100c6565b6323b872dd60e01b60208401523360248401523060448401526064830152606482526100726084836100ec565b6040906003190112610082576004356001600160a01b0381168103610082579060243590565b90601f8019910116810190811067ffffffffffffffff82111761010e57604052565b634e487b7160e01b600052604160045260246000fd5b81516001600160a01b0390911691600091829160200182855af13d156101cf573d67ffffffffffffffff811161010e5761018191604051916101706020601f19601f84011601846100ec565b82523d6000602084013e5b836101db565b80519081151591826101ab575b50506101975750565b635274afe760e01b60005260045260246000fd5b8192509060209181010312610082576020015180159081150361008257388061018e565b6101819060609061017b565b9061020157508051156101f057805190602001fd5b630a12f52160e11b60005260046000fd5b81511580610233575b610212575090565b639996b31560e01b60009081526001600160a01b0391909116600452602490fd5b50803b1561020a56fea2646970667358221220e022ebe8c8abebbe62cab5e85d15eee2b84eb6817c7c5c08b8a539908ee1280b64736f6c634300081a0033","linkReferences":{}},"methodIdentifiers":{"deposit(address,uint256)":"47e7ef24","syncWithdraw(address,uint256)":"e90cbc17"},"id":14}