{"abi":[{"type":"function","name":"initialize","inputs":[{"name":"","type":"address[3]","internalType":"address[3]"},{"name":"","type":"bytes","internalType":"bytes"},{"name":"","type":"bytes","internalType":"bytes"},{"name":"","type":"bytes","internalType":"bytes"}],"outputs":[],"stateMutability":"nonpayable"}],"bytecode":{"object":"0x60808060405234610016576101b3908161001c8239f35b600080fdfe60806004908136101561001157600080fd5b600091823560e01c6384b1df521461002857600080fd5b346100bc5760c03660031901126100bc5736602312156100bc5767ffffffffffffffff9160608101838111828210176100ec576040526064903682116100e85782905b8282106100c4575050358281116100c05761008990369083016100ff565b506084358281116100c0576100a190369083016100ff565b5060a4359182116100bc576100b8913691016100ff565b5080f35b8280fd5b8380fd5b81356001600160a01b03811681036100e45781526020918201910161006b565b8680fd5b8480fd5b634e487b7160e01b855260418352602485fd5b81601f820112156101625780359067ffffffffffffffff928383116101675760405193601f8401601f19908116603f0116850190811185821017610167576040528284526020838301011161016257816000926020809301838601378301015290565b600080fd5b634e487b7160e01b600052604160045260246000fdfea26469706673582212205ace6e7b5acb0e958a520b1edb327e7696f42f9b6a372f020f5013407c24d95f64736f6c63430008140033","linkReferences":{}},"methodIdentifiers":{"initialize(address[3],bytes,bytes,bytes)":"84b1df52"},"id":53}