{"abi":[{"type":"constructor","inputs":[],"stateMutability":"nonpayable"},{"type":"function","name":"K","inputs":[],"outputs":[{"name":"","type":"uint256","internalType":"uint256"}],"stateMutability":"view"},{"type":"function","name":"agentFactory","inputs":[],"outputs":[{"name":"","type":"address","internalType":"address"}],"stateMutability":"view"},{"type":"function","name":"assetRate","inputs":[],"outputs":[{"name":"","type":"uint256","internalType":"uint256"}],"stateMutability":"view"},{"type":"function","name":"buy","inputs":[{"name":"amountIn","type":"uint256","internalType":"uint256"},{"name":"tokenAddress","type":"address","internalType":"address"}],"outputs":[{"name":"","type":"bool","internalType":"bool"}],"stateMutability":"payable"},{"type":"function","name":"factory","inputs":[],"outputs":[{"name":"","type":"address","internalType":"contract FFactory"}],"stateMutability":"view"},{"type":"function","name":"fee","inputs":[],"outputs":[{"name":"","type":"uint256","internalType":"uint256"}],"stateMutability":"view"},{"type":"function","name":"getUserTokens","inputs":[{"name":"account","type":"address","internalType":"address"}],"outputs":[{"name":"","type":"address[]","internalType":"address[]"}],"stateMutability":"view"},{"type":"function","name":"gradThreshold","inputs":[],"outputs":[{"name":"","type":"uint256","internalType":"uint256"}],"stateMutability":"view"},{"type":"function","name":"initialSupply","inputs":[],"outputs":[{"name":"","type":"uint256","internalType":"uint256"}],"stateMutability":"view"},{"type":"function","name":"initialize","inputs":[{"name":"factory_","type":"address","internalType":"address"},{"name":"router_","type":"address","internalType":"address"},{"name":"feeTo_","type":"address","internalType":"address"},{"name":"fee_","type":"uint256","internalType":"uint256"},{"name":"initialSupply_","type":"uint256","internalType":"uint256"},{"name":"assetRate_","type":"uint256","internalType":"uint256"},{"name":"maxTx_","type":"uint256","internalType":"uint256"},{"name":"agentFactory_","type":"address","internalType":"address"},{"name":"gradThreshold_","type":"uint256","internalType":"uint256"}],"outputs":[],"stateMutability":"nonpayable"},{"type":"function","name":"launch","inputs":[{"name":"_name","type":"string","internalType":"string"},{"name":"_ticker","type":"string","internalType":"string"},{"name":"cores","type":"uint8[]","internalType":"uint8[]"},{"name":"desc","type":"string","internalType":"string"},{"name":"img","type":"string","internalType":"string"},{"name":"urls","type":"string[4]","internalType":"string[4]"},{"name":"purchaseAmount","type":"uint256","internalType":"uint256"}],"outputs":[{"name":"","type":"address","internalType":"address"},{"name":"","type":"address","internalType":"address"},{"name":"","type":"uint256","internalType":"uint256"}],"stateMutability":"nonpayable"},{"type":"function","name":"launchFor","inputs":[{"name":"_name","type":"string","internalType":"string"},{"name":"_ticker","type":"string","internalType":"string"},{"name":"cores","type":"uint8[]","internalType":"uint8[]"},{"name":"desc","type":"string","internalType":"string"},{"name":"img","type":"string","internalType":"string"},{"name":"urls","type":"string[4]","internalType":"string[4]"},{"name":"purchaseAmount","type":"uint256","internalType":"uint256"},{"name":"creator","type":"address","internalType":"address"}],"outputs":[{"name":"","type":"address","internalType":"address"},{"name":"","type":"address","internalType":"address"},{"name":"","type":"uint256","internalType":"uint256"}],"stateMutability":"nonpayable"},{"type":"function","name":"maxTx","inputs":[],"outputs":[{"name":"","type":"uint256","internalType":"uint256"}],"stateMutability":"view"},{"type":"function","name":"owner","inputs":[],"outputs":[{"name":"","type":"address","internalType":"address"}],"stateMutability":"view"},{"type":"function","name":"profile","inputs":[{"name":"","type":"address","internalType":"address"}],"outputs":[{"name":"user","type":"address","internalType":"address"}],"stateMutability":"view"},{"type":"function","name":"profiles","inputs":[{"name":"","type":"uint256","internalType":"uint256"}],"outputs":[{"name":"","type":"address","internalType":"address"}],"stateMutability":"view"},{"type":"function","name":"renounceOwnership","inputs":[],"outputs":[],"stateMutability":"nonpayable"},{"type":"function","name":"router","inputs":[],"outputs":[{"name":"","type":"address","internalType":"contract FRouter"}],"stateMutability":"view"},{"type":"function","name":"sell","inputs":[{"name":"amountIn","type":"uint256","internalType":"uint256"},{"name":"tokenAddress","type":"address","internalType":"address"}],"outputs":[{"name":"","type":"bool","internalType":"bool"}],"stateMutability":"nonpayable"},{"type":"function","name":"setAssetRate","inputs":[{"name":"newRate","type":"uint256","internalType":"uint256"}],"outputs":[],"stateMutability":"nonpayable"},{"type":"function","name":"setDeployParams","inputs":[{"name":"params","type":"tuple","internalType":"struct Bonding.DeployParams","components":[{"name":"tbaSalt","type":"bytes32","internalType":"bytes32"},{"name":"tbaImplementation","type":"address","internalType":"address"},{"name":"daoVotingPeriod","type":"uint32","internalType":"uint32"},{"name":"daoThreshold","type":"uint256","internalType":"uint256"}]}],"outputs":[],"stateMutability":"nonpayable"},{"type":"function","name":"setFee","inputs":[{"name":"newFee","type":"uint256","internalType":"uint256"},{"name":"newFeeTo","type":"address","internalType":"address"}],"outputs":[],"stateMutability":"nonpayable"},{"type":"function","name":"setGradThreshold","inputs":[{"name":"newThreshold","type":"uint256","internalType":"uint256"}],"outputs":[],"stateMutability":"nonpayable"},{"type":"function","name":"setInitialSupply","inputs":[{"name":"newSupply","type":"uint256","internalType":"uint256"}],"outputs":[],"stateMutability":"nonpayable"},{"type":"function","name":"setMaxTx","inputs":[{"name":"maxTx_","type":"uint256","internalType":"uint256"}],"outputs":[],"stateMutability":"nonpayable"},{"type":"function","name":"tokenInfo","inputs":[{"name":"","type":"address","internalType":"address"}],"outputs":[{"name":"creator","type":"address","internalType":"address"},{"name":"token","type":"address","internalType":"address"},{"name":"pair","type":"address","internalType":"address"},{"name":"agentToken","type":"address","internalType":"address"},{"name":"data","type":"tuple","internalType":"struct Bonding.Data","components":[{"name":"token","type":"address","internalType":"address"},{"name":"name","type":"string","internalType":"string"},{"name":"_name","type":"string","internalType":"string"},{"name":"ticker","type":"string","internalType":"string"},{"name":"supply","type":"uint256","internalType":"uint256"},{"name":"price","type":"uint256","internalType":"uint256"},{"name":"marketCap","type":"uint256","internalType":"uint256"},{"name":"liquidity","type":"uint256","internalType":"uint256"},{"name":"volume","type":"uint256","internalType":"uint256"},{"name":"volume24H","type":"uint256","internalType":"uint256"},{"name":"prevPrice","type":"uint256","internalType":"uint256"},{"name":"lastUpdated","type":"uint256","internalType":"uint256"}]},{"name":"description","type":"string","internalType":"string"},{"name":"image","type":"string","internalType":"string"},{"name":"twitter","type":"string","internalType":"string"},{"name":"telegram","type":"string","internalType":"string"},{"name":"youtube","type":"string","internalType":"string"},{"name":"website","type":"string","internalType":"string"},{"name":"trading","type":"bool","internalType":"bool"},{"name":"tradingOnUniswap","type":"bool","internalType":"bool"}],"stateMutability":"view"},{"type":"function","name":"tokenInfos","inputs":[{"name":"","type":"uint256","internalType":"uint256"}],"outputs":[{"name":"","type":"address","internalType":"address"}],"stateMutability":"view"},{"type":"function","name":"transferOwnership","inputs":[{"name":"newOwner","type":"address","internalType":"address"}],"outputs":[],"stateMutability":"nonpayable"},{"type":"function","name":"unwrapToken","inputs":[{"name":"srcTokenAddress","type":"address","internalType":"address"},{"name":"accounts","type":"address[]","internalType":"address[]"}],"outputs":[],"stateMutability":"nonpayable"},{"type":"event","name":"Deployed","inputs":[{"name":"token","type":"address","indexed":true,"internalType":"address"},{"name":"amount0","type":"uint256","indexed":false,"internalType":"uint256"},{"name":"amount1","type":"uint256","indexed":false,"internalType":"uint256"}],"anonymous":false},{"type":"event","name":"Graduated","inputs":[{"name":"token","type":"address","indexed":true,"internalType":"address"},{"name":"agentToken","type":"address","indexed":false,"internalType":"address"}],"anonymous":false},{"type":"event","name":"Initialized","inputs":[{"name":"version","type":"uint64","indexed":false,"internalType":"uint64"}],"anonymous":false},{"type":"event","name":"Launched","inputs":[{"name":"token","type":"address","indexed":true,"internalType":"address"},{"name":"pair","type":"address","indexed":true,"internalType":"address"},{"name":"","type":"uint256","indexed":false,"internalType":"uint256"}],"anonymous":false},{"type":"event","name":"OwnershipTransferred","inputs":[{"name":"previousOwner","type":"address","indexed":true,"internalType":"address"},{"name":"newOwner","type":"address","indexed":true,"internalType":"address"}],"anonymous":false},{"type":"error","name":"AddressEmptyCode","inputs":[{"name":"target","type":"address","internalType":"address"}]},{"type":"error","name":"AddressInsufficientBalance","inputs":[{"name":"account","type":"address","internalType":"address"}]},{"type":"error","name":"FailedInnerCall","inputs":[]},{"type":"error","name":"InvalidInitialization","inputs":[]},{"type":"error","name":"NotInitializing","inputs":[]},{"type":"error","name":"OwnableInvalidOwner","inputs":[{"name":"owner","type":"address","internalType":"address"}]},{"type":"error","name":"OwnableUnauthorizedAccount","inputs":[{"name":"account","type":"address","internalType":"address"}]},{"type":"error","name":"ReentrancyGuardReentrantCall","inputs":[]},{"type":"error","name":"SafeERC20FailedOperation","inputs":[{"name":"token","type":"address","internalType":"address"}]}],"bytecode":{"object":"0x6080806040523460d2577ff0c57e16840df040f15088dc2f81fe391c3923bec73e23a9662efc9c229c6a005460ff8160401c1660c1576002600160401b03196001600160401b03821601605c575b604051616f0490816100d88239f35b6001600160401b0319166001600160401b039081177ff0c57e16840df040f15088dc2f81fe391c3923bec73e23a9662efc9c229c6a005581527fc7f505b2f371ae2175ee4913f4499e1f2633a7b5936321eed1cdaeb6115181d290602090a13880604d565b63f92ee8a960e01b60005260046000fd5b600080fdfe60e0604052600436101561001257600080fd5b600060c05260c0513560e01c806309c8962c1461548c578063378dc3dc1461546d5780633c0b93aa14613ff05780634189a68e14613c6b57806343fb4d2414613bce578063519dc8d214613a755780636140259614613a505780636edd12e014613a31578063715018a6146139c15780637437681e146139a25780637c13774b146139545780637deb6025146128de5780637df107ea146128b45780637f13a90b14611ed55780638da5cb5b14611e9e5780639dd9d0fd14611e5a578063a932492f14611e38578063b4f2e8b814611ded578063bc33718214611dc8578063bd01cb92146107db578063c36fe3d614610772578063c45a015514610748578063cc489688146106ed578063ddca3f43146106ce578063e8e6ed69146106af578063ea6eef4914610445578063f2fde38b14610416578063f5dab711146101915763f887ea401461016157600080fd5b3461018b5760c05136600319011261018b576002546040516001600160a01b039091168152602090f35b60c05180fd5b3461018b57602036600319011261018b576001600160a01b036101b26156b0565b60c08051919092169052600e602052516040902080546001820154600283015460038401546001600160a01b03928316949383169391831692166101f8600483016157c7565b604051806102098160108701615744565b036102149082615535565b604051806102258160128801615744565b036102309082615535565b60405191826102428160138901615744565b0361024d9084615535565b604051938461025f8160148a01615744565b0361026a9086615535565b604051958661027c8160158b01615744565b036102879088615535565b60405197886102998160168401615744565b036102a4908a615535565b60170154986040519b8c9b8c5260208c015260408b015260608a0152608089016101a09052600160a01b600190038151166101a08a015260208101516101c08a0161018090526103208a016102f8916158a5565b60408201518a820361019f19016101e08c015261031591906158a5565b60608201518a820361019f19016102008c015261033291906158a5565b9060808101516102208b015260a08101516102408b015260c08101516102608b015260e08101516102808b01526101008101516102a08b01526101208101516102c08b01526101408101516102e08b015261016001516103008a015288810360a08a015261039f916158a5565b87810360c08901526103b0916158a5565b86810360e08801526103c1916158a5565b8581036101008701526103d3916158a5565b8481036101208601526103e5916158a5565b8381036101408501526103f7916158a5565b9060ff8116151561016084015260081c60ff1615156101808301520390f35b3461018b57602036600319011261018b5761043f6104326156b0565b61043a615b1a565b615aa4565b60c05180f35b3461018b5761012036600319011261018b5761045f6156b0565b61046761569a565b6044356001600160a01b0381169081900361018b57606435906104886156c6565b92600080516020616eaf833981519152549460ff8660401c1615956001600160401b038116801590816106a7575b600114908161069d575b159081610694575b506106815767ffffffffffffffff198116600117600080516020616eaf8339815191525586610654575b506104fb615d91565b610503615d91565b61050c33615aa4565b610514615d91565b61051c615d91565b6001600080516020616e8f8339815191525560018060a01b03166001600160601b0360a01b600154161760015560018060a01b03166001600160601b0360a01b60025416176002556001600160601b0360a01b60c05154161760c05155670de0b6b3a7640000810290808204670de0b6b3a7640000149015171561063c576103e8900460045560843560035560a43560055560c43560075560018060a01b03166001600160601b0360a01b6008541617600855610104356006556105e05760c05180f35b68ff000000000000000019600080516020616eaf8339815191525416600080516020616eaf833981519152557fc7f505b2f371ae2175ee4913f4499e1f2633a7b5936321eed1cdaeb6115181d2602060405160018152a161043f565b634e487b7160e01b60c051526011600452602460c051fd5b68ffffffffffffffffff19166801000000000000000117600080516020616eaf83398151915255866104f2565b63f92ee8a960e01b60c05152600460c051fd5b905015886104c8565b303b1591506104c0565b8891506104b6565b3461018b5760c05136600319011261018b576020600554604051908152f35b3461018b5760c05136600319011261018b576020600454604051908152f35b3461018b57602036600319011261018b57600435610709615b1a565b80156107185760055560c05180f35b60405162461bcd60e51b81526020600482015260086024820152672930ba329032b93960c11b6044820152606490fd5b3461018b5760c05136600319011261018b576001546040516001600160a01b039091168152602090f35b3461018b57602036600319011261018b57600435600d5481101561018b57600d548110156107c35760c08051600d90525160208082209092015460405160039290921b1c6001600160a01b03168152f35b634e487b7160e01b60c051526032600452602460c051fd5b3461018b5761010036600319011261018b576004356001600160401b03811161018b5761080c903690600401615571565b6024356001600160401b03811161018b5761082b903690600401615571565b906044356001600160401b03811161018b5761084b9036906004016155cf565b916064356001600160401b03811161018b5761086b903690600401615571565b906084356001600160401b03811161018b5761088b903690600401615571565b9160a4356001600160401b03811161018b576108ab903690600401615637565b60c435956108b76156c6565b946108c0615b50565b6004549687891115611d7257600254604051631083f76160e01b815299906020908b9060049082906001600160a01b03165afa998a156113a45760c0519a611d51575b506040516370a0823160e01b81523360048201526020816024816001600160a01b038f165afa80156113a457829160c05191611d1c575b5010611ce15761094d8961096992615962565b60c051549099906001600160a01b039081169033908d16615bb6565b61097e8830336001600160a01b038d16615bb6565b610987816159cc565b60035490600754916040519261104e8085018581106001600160401b0382111761152f576109d76109c98796606094615e2189396080845260808401906158a5565b82810360208401528d6158a5565b9360408201520152039060c051f0608052608051156113a457604051956318160ddd60e01b875260208760048160018060a01b03608051165afa9687156113a45760c05197611cad575b506001546040516364e329cb60e11b81526080516001600160a01b0390811660048301528c8116602483015260c05191926020928492604492849291165af180156113a45760c05160a052611c7c575b50600254608051610a909189916001600160a01b039182169116615bff565b610a9b600554615982565b69021e19e0c9bab240000081029080820469021e19e0c9bab2400000149015171561063c5787610aca916159aa565b670de0b6b3a7640000810290808204670de0b6b3a7640000149015171561063c5761271090046064604060018060a01b0360025416815192838092631746ffa760e31b825260018060a01b036080511660048301528d602483015286604483015260c051905af180156113a457611c5e575b50610b46836159cc565b97610b5182826159aa565b908260011b938385046002148415171561063c57610b6f84836159aa565b956040519b610b7d8d6154b1565b60018060a01b03608051168d5260208d015260408c015260608b015260808a015260a089015260c088015260e087015260c05161010087015260c05161012087015261014086015242610160860152825190602084015192606060408601519501519560405197610bed896154e3565b60018060a01b038a16895260018060a01b036080511660208a015260018060a01b0360a0511660408a015260c05160608a0152608089015260a088015260c087015260e0860152610100850152610120840152610140830152610160820152600161018082015260c0516101a082015260018060a01b036080511660c05152600e602052604060c0512060018060a01b0360018060a01b03835116166001600160601b0360a01b82541617815560018060a01b03602083015116600182019060018060a01b03166001600160601b0360a01b82541617905560018060a01b03604083015116600282019060018060a01b03166001600160601b0360a01b82541617905560018060a01b03606083015116600382019060018060a01b03166001600160601b0360a01b825416179055608082015160018060a01b03815116600483019060018060a01b03166001600160601b0360a01b82541617905560208101518051906001600160401b03821161152f578190610d6d600586015461570a565b601f8111611c27575b506020906001601f841114611bb95760c05192611bae575b50508160011b916000199060031b1c19161760058301555b60408101518051906001600160401b03821161152f578190610dcb600686015461570a565b601f8111611b77575b506020906001601f841114611b095760c05192611afe575b50508160011b916000199060031b1c19161760068301555b60608101518051906001600160401b03821161152f57610e27600785015461570a565b601f8111611ac7575b506020906001601f841114611a5357918091610160949360c05192611a48575b50508160011b916000199060031b1c19161760078401555b6080810151600884015560a0810151600984015560c0810151600a84015560e0810151600b840155610100810151600c840155610120810151600d840155610140810151600e8401550151600f82015560a08201518051906001600160401b03821161152f578190610edd601085015461570a565b601f8111611a11575b506020906001601f8411146119a35760c05192611998575b50508160011b916000199060031b1c19161760108201555b60c08201518051906001600160401b03821161152f57600160401b821161152f576020906011840154836011860155808410611945575b5001906011830160c05152602060c051209060c0515b8160051c81106119045750601f1981168103806118b5575b5050505060e08201518051906001600160401b03821161152f578190610fa4601285015461570a565b601f811161187e575b506020906001601f8411146118105760c05192611805575b50508160011b916000199060031b1c19161760128201555b601381016101008301518051906001600160401b03821161152f578190611004845461570a565b601f81116117d1575b506020906001601f8411146117695760c0519261175e575b50508160011b916000199060031b1c19161790555b601481016101208301518051906001600160401b03821161152f578190611061845461570a565b601f811161172a575b506020906001601f8411146116c25760c051926116b7575b50508160011b916000199060031b1c19161790555b601581016101408301518051906001600160401b03821161152f5781906110be845461570a565b601f8111611683575b506020906001601f84111461161b5760c05192611610575b50508160011b916000199060031b1c19161790555b6101608201518051906001600160401b03821161152f57611118601684015461570a565b601f81116115ce575b506020906001601f8411146115525792826101a093601793611196979660c05192611547575b50508160011b916000199060031b1c19161760168201555b019161117e6101808201511515849060ff801983541691151516179055565b0151815461ff00191690151560081b61ff0016179055565b6080516111ab906001600160a01b0316615a21565b6001600160a01b038082166000818152600c602052604090205490911603611419576112a09160409160018060a01b031660c05152600c60205261120060018060a01b036080511660018460c0512001615a87565b61125e81600f5495845187815260018060a01b0360a05116907f714aa39317ad9a7a7a99db52b44490da5d068a0b2710fffb1a1282ad3cadae1f602060018060a01b036080511692a36002546001600160a01b039081169116615bff565b60025482516373a9c2c560e11b815260805160048201939093526001600160a01b03928316602482015230604482015293849290911690829081906064820190565b039160c051905af180156113a4576113eb575b50604051906370a0823160e01b825230600483015260208260248160018060a01b03608051165afa9182156113a45760c051926113b1575b5060405163a9059cbb60e01b8152336004820152602481019290925260c051608051602091849160449183916001600160a01b03165af19182156113a45761137392611377575b506001600080516020616e8f833981519152556040805160a0516080516001600160a01b039081168352166020820152908101919091529081906060820190565b0390f35b6113989060203d60201161139d575b6113908183615535565b8101906159b4565b611332565b503d611386565b6040513d60c051823e3d90fd5b91506020823d6020116113e3575b816113cc60209383615535565b810103126113de5790519060206112eb565b600080fd5b3d91506113bf565b61140c9060403d604011611412575b6114048183615535565b810190615929565b506112b3565b503d6113fa565b604051611425816154ff565b6001600160a01b038281168083526060602080850191825260c0805193909352600c9052905160409020925183546001600160a01b031916921691909117825551805191600101906001600160401b03831161152f57600160401b831161152f576020908254848455808510611510575b50019060c05152602060c0512060c0515b8381106114f357505050506112a091816114c2604093615a66565b60018060a01b031660c05152600c6020526114ee60018060a01b036080511660018460c0512001615a87565b611200565b82516001600160a01b0316818301556020909201916001016114a7565b611529908460c05152858460c051209182019101615a0a565b87611496565b634e487b7160e01b60c051526041600452602460c051fd5b015190508a80611147565b906016840160c051528060c051209160c0515b601f19851681106115b65750836017936111969796936001936101a097601f1981161061159d575b505050811b01601682015561115f565b015160001960f88460031b161c191690558a808061158d565b91926020600181928685015181550194019201611565565b611600906016850160c05152602060c05120601f850160051c81019160208610611606575b601f0160051c0190615a0a565b87611121565b90915081906115f3565b0151905088806110df565b60c08051869052518281209350601f198516905b81811061166b5750908460019594939210611652575b505050811b0190556110f4565b015160001960f88460031b161c19169055888080611645565b9293602060018192878601518155019501930161162f565b6116b1908560c05152602060c05120601f850160051c8101916020861061160657601f0160051c0190615a0a565b896110c7565b015190508880611082565b60c08051869052518281209350601f198516905b81811061171257509084600195949392106116f9575b505050811b019055611097565b015160001960f88460031b161c191690558880806116ec565b929360206001819287860151815501950193016116d6565b611758908560c05152602060c05120601f850160051c8101916020861061160657601f0160051c0190615a0a565b8961106a565b015190508880611025565b60c08051869052518281209350601f198516905b8181106117b957509084600195949392106117a0575b505050811b01905561103a565b015160001960f88460031b161c19169055888080611793565b9293602060018192878601518155019501930161177d565b6117ff908560c05152602060c05120601f850160051c8101916020861061160657601f0160051c0190615a0a565b8961100d565b015190508780610fc5565b60c08051601287019052518281209350601f198516905b818110611866575090846001959493921061184d575b505050811b016012820155610fdd565b015160001960f88460031b161c1916905587808061183d565b92936020600181928786015181550195019301611827565b6118af906012860160c05152602060c05120601f850160051c8101916020861061160657601f0160051c0190615a0a565b88610fad565b60c0519390845b8181106118d45750505060051c015585808080610f7b565b90919460206118fa6001928460ff8a5116919060ff809160031b9316831b921b19161790565b96019291016118bc565b60c051805b6020811061191e575083820155600101610f63565b855190959160019160209160ff60038a901b81811b199092169216901b1792019501611909565b611976906011860160c051528360c05120601f80870160051c8201928188168061197c575b500160051c0190615a0a565b88610f4d565b600019850190815490600019908a0360031b1c1690558d61196a565b015190508780610efe565b60c08051601087019052518281209350601f198516905b8181106119f957509084600195949392106119e0575b505050811b016010820155610f16565b015160001960f88460031b161c191690558780806119d0565b929360206001819287860151815501950193016119ba565b611a42906010860160c05152602060c05120601f850160051c8101916020861061160657601f0160051c0190615a0a565b88610ee6565b015190508980610e50565b90601f198316916007860160c051528160c051209260c0515b818110611aaf575091600193918561016097969410611a96575b505050811b016007840155610e68565b015160001960f88460031b161c19169055898080611a86565b92936020600181928786015181550195019301611a6c565b611af8906007860160c05152602060c05120601f850160051c8101916020861061160657601f0160051c0190615a0a565b88610e30565b015190508880610dec565b60c08051600688019052518281209350601f198516905b818110611b5f5750908460019594939210611b46575b505050811b016006830155610e04565b015160001960f88460031b161c19169055888080611b36565b92936020600181928786015181550195019301611b20565b611ba8906006870160c05152602060c05120601f850160051c8101916020861061160657601f0160051c0190615a0a565b89610dd4565b015190508880610d8e565b60c08051600588019052518281209350601f198516905b818110611c0f5750908460019594939210611bf6575b505050811b016005830155610da6565b015160001960f88460031b161c19169055888080611be6565b92936020600181928786015181550195019301611bd0565b611c58906005870160c05152602060c05120601f850160051c8101916020861061160657601f0160051c0190615a0a565b89610d76565b611c769060403d604011611412576114048183615535565b50610b3c565b611c9d9060203d602011611ca6575b611c958183615535565b81019061590a565b60a0528a610a71565b503d611c8b565b9096506020813d602011611cd9575b81611cc960209383615535565b810103126113de5751958a610a21565b3d9150611cbc565b60405162461bcd60e51b8152602060048201526013602482015272125b9cdd59999a58da595b9d08185b5bdd5b9d606a1b6044820152606490fd5b9150506020813d602011611d49575b81611d3860209383615535565b810103126113de578190518c61093a565b3d9150611d2b565b611d6b919a5060203d602011611ca657611c958183615535565b988a610903565b60405162461bcd60e51b815260206004820152602860248201527f507572636861736520616d6f756e74206d7573742062652067726561746572206044820152677468616e2066656560c01b6064820152608490fd5b3461018b57602036600319011261018b57611de1615b1a565b60043560075560c05180f35b3461018b57604036600319011261018b57611e0661569a565b611e0e615b1a565b60048035905560c05180546001600160a01b0319166001600160a01b039290921691909117815580f35b3461018b5760c05136600319011261018b5760206040516502ba7def30008152f35b3461018b57602036600319011261018b576001600160a01b03611e7b6156b0565b1660c05152600c602052602060018060a01b03604060c051205416604051908152f35b3461018b5760c05136600319011261018b57600080516020616e6f833981519152546040516001600160a01b039091168152602090f35b3461018b57604036600319011261018b57611eee6156b0565b6024356001600160401b03811161018b573660238201121561018b578060040135611f18816155b8565b91611f266040519384615535565b8183526024602084019260051b8201019036821161018b57602401915b8183106128945750505060018060a01b0382168060c05152600e602052604060c05120604051611f72816154e3565b81546001600160a01b0390811682526001830154811660208301526002830154811660408301526003830154166060820190815291611fb3600482016157c7565b6080830152604051611fd381611fcc8160108601615744565b0382615535565b60a08301526011810160405190816020825491828152019160c05152602060c051209060c051915b81601f8401106126f2579360ff9593819361211b9360179754918181106126df575b8181106126c9575b8181106126b3575b81811061269d575b818110612688575b818110612672575b81811061265c575b818110612646575b818110612630575b81811061261a575b818110612604575b8181106125ee575b8181106125d8575b8181106125c2575b8181106125ac575b818110612596575b818110612580575b81811061256a575b818110612554575b81811061253e575b818110612528575b818110612512575b8181106124fc575b8181106124e6575b8181106124d0575b8181106124ba575b8181106124a4575b81811061248e575b818110612478575b818110612462575b81811061244c575b1061243e575b500382615535565b60c085015260405161213481611fcc8160128601615744565b60e085015260405161214d81611fcc8160138601615744565b61010085015260405161216781611fcc8160148601615744565b61012085015260405161218181611fcc8160158601615744565b61014085015260405161219b81611fcc8160168601615744565b6101608501520154818116151561018084015260081c1615906101a082159101526123f95751600154600254604051631083f76160e01b81526001600160a01b0393841693909281169160209184916004918391165afa9081156113a45761223e9660209360c051936123da575b5060405163e6a4390560e01b81526001600160a01b039182166004820152921660248301529095869190829081906044820190565b03915afa9384156113a45760c051946123b9575b5060c0515b835181101561043f576020600582901b85018101516040516370a0823160e01b81526001600160a01b039091166004820181905290929183602481885afa9283156113a45760c05193612381575b50826122b7575b506001915001612257565b843b1561018b5760405163079cc67960e41b815260c0516001600160a01b038316600483015260248201859052818060448101038160c0518a5af180156113a457612368575b506040516323b872dd60e01b81526001600160a01b038089166004830152909116602482015260448101929092526020828060648101038160c051875af19182156113a457600192156122ac576123619060203d811161139d576113908183615535565b50866122ac565b60c05161237491615535565b60c05161018b57876122fd565b90925060203d81116123b2575b6123988183615535565b602082600092810103126123af57505191876122a5565b80fd5b503d61238e565b6123d391945060203d602011611ca657611c958183615535565b9284612252565b6123f2919350843d8611611ca657611c958183615535565b9188612209565b60405162461bcd60e51b815260206004820152601a60248201527f546f6b656e206973206e6f7420677261647561746564207965740000000000006044820152606490fd5b60f81c81526020018c612113565b9260206001918b8560f01c16815201930161210d565b9260206001918b8560e81c168152019301612105565b9260206001918b8560e01c1681520193016120fd565b9260206001918b8560d81c1681520193016120f5565b9260206001918b8560d01c1681520193016120ed565b9260206001918b8560c81c1681520193016120e5565b9260206001918b8560c01c1681520193016120dd565b9260206001918b8560b81c1681520193016120d5565b9260206001918b8560b01c1681520193016120cd565b9260206001918b8560a81c1681520193016120c5565b9260206001918b8560a01c1681520193016120bd565b9260206001918b8560981c1681520193016120b5565b9260206001918b8560901c1681520193016120ad565b9260206001918b8560881c1681520193016120a5565b9260206001918b8560801c16815201930161209d565b9260206001918b8560781c168152019301612095565b9260206001918b8560701c16815201930161208d565b9260206001918b8560681c168152019301612085565b9260206001918b8560601c16815201930161207d565b9260206001918b8560581c168152019301612075565b9260206001918b8560501c16815201930161206d565b9260206001918b8560481c168152019301612065565b9260206001918b8560401c16815201930161205d565b9260206001918b8560381c168152019301612055565b9260206001918b8560301c16815201930161204d565b9260206001918b8560281c168152019301612045565b9260206001918b85831c16815201930161203d565b9260206001918b8560181c168152019301612035565b9260206001918b8560101c16815201930161202d565b9260206001918b8560081c168152019301612025565b9260206001918b8516815201930161201d565b926001610400602092865460ff8116825260ff8160081c168583015260ff8160101c16604083015260ff8160181c16606083015260ff81861c16608083015260ff8160281c1660a083015260ff8160301c1660c083015260ff8160381c1660e083015260ff8160401c1661010083015260ff8160481c1661012083015260ff8160501c1661014083015260ff8160581c1661016083015260ff8160601c1661018083015260ff8160681c166101a083015260ff8160701c166101c083015260ff8160781c166101e083015260ff8160801c1661020083015260ff8160881c1661022083015260ff8160901c1661024083015260ff8160981c1661026083015260ff8160a01c1661028083015260ff8160a81c166102a083015260ff8160b01c166102c083015260ff8160b81c166102e083015260ff8160c01c1661030083015260ff8160c81c1661032083015260ff8160d01c1661034083015260ff8160d81c1661036083015260ff8160e01c1661038083015260ff8160e81c166103a083015260ff8160f01c166103c083015260f81c6103e0820152019401920191611ffb565b82356001600160a01b038116810361018b57815260209283019201611f43565b3461018b5760c05136600319011261018b576008546040516001600160a01b039091168152602090f35b604036600319011261018b576128f261569a565b60018060a01b0381168060c05152600e60205261291a60ff6017604060c051200154166158ca565b600154600254604051631083f76160e01b81526001600160a01b039283169290911690602081600481855afa80156113a4576129929360209260c05192613935575b5060405163e6a4390560e01b81526001600160a01b03808916600483015290921660248301529093849190829081906044820190565b03915afa9182156113a45760049260409160c05191613916575b508151630240bc6b60e21b815293849182906001600160a01b03165afa9182156113a45760c0519060c051936138f2575b50604080516373a9c2c560e11b815260048035908201526001600160a01b038716602482015233604482015260c051909384916064918391905af19081156113a45760c0519283926138c4575b50612a39612a3f928492615962565b9361593f565b8360c05152600e602052612a5c600f604060c05120015442615962565b908060011b928184046002148215171561063c57612b25908660c05152600e60205262015180612aa8612aa188612a9c876008604060c05120015461596f565b6159aa565b94886159aa565b94119485156138a15781935b8615613887578860c05152600e6020526009604060c051200154955b8960c05152600e6020526009604060c0512001558860c05152600e602052600a604060c0512001558760c05152600e602052600b604060c0512001558660c05152600e602052600c604060c05120015461593f565b8560c05152600e602052600c604060c0512001558460c05152600e602052600d604060c0512001558360c05152600e602052600e604060c05120015561386d575b600654101580613850575b612b81575b602060405160018152f35b8060c05152600e602052604060c051209160178301805460ff811680613842575b156137fd5761ffff1916610100179055600154600254604051631083f76160e01b81526001600160a01b039182169392909116602082600481875afa9081156113a457612c2a9360209360c051936137de575b5060405163e6a4390560e01b81526001600160a01b039182166004820152921660248301529092839190829081906044820190565b03915afa9081156113a45760c051916137bf575b5060405163c66f245560e01b8152936001600160a01b03821690602086600481855afa9586156113a45760c0519661378b575b506040516316d3df1560e31b815293602085600481865afa9485156113a45760c05195613757575b50803b1561018b576040519063ff6d8d0560e01b82528660048301528160248160c0519360c051905af180156113a457613745575b50600254604051631083f76160e01b815290602090829060049082906001600160a01b03165afa9081156113a457612d2191889160c05191613726575b506008546001600160a01b039081169116615bff565b60018060a01b036008541660068201966040519760c05190805490612d458261570a565b91600181169081156136fe57506001146136bd575b505090612d8a600c8a846b206279205669727475616c7360a01b612dcb9c9d965203601319810185520183615535565b601184019060095490600a54600b549060018060a01b0388541693612de06040519d8e98631fd16d3f60e11b8a5261012060048b01526101248a01906158a5565b8881036003190160248a015260078b01615744565b6003198882030160448901526020875491828152019660c05152602060c051209060c051915b81601f84011061350b579260209a9895928a98959289989554918181106134f9575b8181106134e3575b8181106134cd575b8181106134b7575b8181106134a3575b81811061348d575b818110613477575b818110613461575b81811061344b575b818110613435575b81811061341f575b818110613409575b8181106133f3575b8181106133dd575b8181106133c7575b8181106133b1575b81811061339b575b818110613385575b81811061336f575b818110613359575b818110613343575b81811061332d575b818110613317575b818110613301575b8181106132eb575b8181106132d5575b8181106132bf575b8181106132a9575b818110613293575b81811061327d575b818110613267575b10613254575b5060648701526001600160a01b038116608487015260a01c63ffffffff1660a486015260c485015260e484015261010483015260c051919003925af19485156113a45760c05195613220575b50600880549082015460405163313ce56760e01b81526001600160a01b039092169691906020826004818c5afa9182156113a457612fbb92612fb59160c05191613201575b50615ba5565b906159aa565b60405163313ce56760e01b81526020816004818c5afa9283156113a457612ff8612ff260209560849460c051916131d45750615ba5565b896159aa565b98604051998a9485936311e18acb60e11b855260048501526024840152604483015286606483015260c051905af19485156113a45760c051956131b0575b5060030180546001600160a01b0319166001600160a01b039586169081179091556002546040516370a0823160e01b81526004810184905291951690602081602481895afa9081156113a45760c0519161317e575b50813b1561018b576040519263559e23ad60e11b8452600484015285602484015230604484015260648301528160848160c0519360c051905af180156113a457613165575b50833b1561018b5760405163079cc67960e41b815260c0516001600160a01b0390921660048201526024810192909252818060448101038160c051875af180156113a45761314c575b5060207f381d54fa425631e6266af114239150fae1d5db67bb65b4fa9ecc65013107e07e91604051908152a28080612b76565b60c05161315891615535565b60c05161018b5782613119565b60c05161317191615535565b60c05161018b57846130d0565b90506020813d6020116131a8575b8161319960209383615535565b810103126113de57518761308b565b3d915061318c565b60039195506131cd9060203d602011611ca657611c958183615535565b9490613036565b6131f49150873d89116131fa575b6131ec8183615535565b810190615b8c565b8d612faf565b503d6131e2565b61321a915060203d6020116131fa576131ec8183615535565b8b612faf565b9094506020813d60201161324c575b8161323c60209383615535565b810103126113de57519386612f6a565b3d915061322f565b60f81c8652948a019463ffffffff612f1e565b978d60019160ff8560f01c168152019801612f18565b978d60019160ff8560e81c168152019801612f10565b978d60019160ff8560e01c168152019801612f08565b978d60019160ff8560d81c168152019801612f00565b978d60019160ff8560d01c168152019801612ef8565b978d60019160ff8560c81c168152019801612ef0565b978d60019160ff8560c01c168152019801612ee8565b978d60019160ff8560b81c168152019801612ee0565b978d60019160ff8560b01c168152019801612ed8565b978d60019160ff8560a81c168152019801612ed0565b978d60019160ff8560a01c168152019801612ec8565b978d60019160ff8560981c168152019801612ec0565b978d60019160ff8560901c168152019801612eb8565b978d60019160ff8560881c168152019801612eb0565b978d60019160ff8560801c168152019801612ea8565b978d60019160ff8560781c168152019801612ea0565b978d60019160ff8560701c168152019801612e98565b978d60019160ff8560681c168152019801612e90565b978d60019160ff8560601c168152019801612e88565b978d60019160ff8560581c168152019801612e80565b978d60019160ff8560501c168152019801612e78565b978d60019160ff8560481c168152019801612e70565b978d60019160ff8560401c168152019801612e68565b978d60019160ff8560381c168152019801612e60565b978d60019160ff8560301c168152019801612e58565b978d60019160ff8560281c168152019801612e50565b828e1c60ff168952978d0197600101612e48565b978d60019160ff8560181c168152019801612e40565b978d60019160ff8560101c168152019801612e38565b978d60019160ff8560081c168152019801612e30565b60ff83168952978d0197600101612e28565b98509091929394959660016104006020928b5460ff8116825260ff8160081c168583015260ff8160101c16604083015260ff8160181c16606083015260ff81861c16608083015260ff8160281c1660a083015260ff8160301c1660c083015260ff8160381c1660e083015260ff8160401c1661010083015260ff8160481c1661012083015260ff8160501c1661014083015260ff8160581c1661016083015260ff8160601c1661018083015260ff8160681c166101a083015260ff8160701c166101c083015260ff8160781c166101e083015260ff8160801c1661020083015260ff8160881c1661022083015260ff8160901c1661024083015260ff8160981c1661026083015260ff8160a01c1661028083015260ff8160a81c166102a083015260ff8160b01c166102c083015260ff8160b81c166102e083015260ff8160c01c1661030083015260ff8160c81c1661032083015260ff8160d01c1661034083015260ff8160d81c1661036083015260ff8160e01c1661038083015260ff8160e81c166103a083015260ff8160f01c166103c083015260f81c6103e08201520199019201908e98979695949392612e06565b90915060c05152602060c0512060c051905b8282106136e75750508801602001612d8a600c612d5a565b6001818c60208581955492010152019101906136cf565b60ff19166020808e01919091528315159093028c019092019250612d8a9150600c9050612d5a565b61373f915060203d602011611ca657611c958183615535565b89612d0b565b60c05161375191615535565b86612cce565b9094506020813d602011613783575b8161377360209383615535565b8101031261018b57519387612c99565b3d9150613766565b9095506020813d6020116137b7575b816137a760209383615535565b8101031261018b57519486612c71565b3d915061379a565b6137d8915060203d602011611ca657611c958183615535565b84612c3e565b6137f6919350843d8611611ca657611c958183615535565b9188612bf5565b60405162461bcd60e51b815260206004820152601760248201527f74726164696e6720697320616c7265616479206f70656e0000000000000000006044820152606490fd5b5060ff8160081c1615612ba2565b508060c05152600e60205260ff6017604060c05120015416612b71565b8160c05152600e60205242600f604060c051200155612b66565b8860c05152600e602052600e604060c05120015495612ad0565b8760c05152600e6020526138be82600d604060c05120015461593f565b93612ab4565b612a39919350612a3f92506138e79060403d604011611412576114048183615535565b909390925090612a2a565b905061390e91925060403d604011611412576114048183615535565b9190856129dd565b61392f915060203d602011611ca657611c958183615535565b866129ac565b61394d919250833d8511611ca657611c958183615535565b908761295c565b3461018b57602036600319011261018b57600435600f5481101561018b57600f548110156107c35760c08051600f905251602090819020909101546040516001600160a01b03919091168152f35b3461018b5760c05136600319011261018b576020600754604051908152f35b3461018b5760c05136600319011261018b576139db615b1a565b600080516020616e6f83398151915280546001600160a01b0319811690915560c051906001600160a01b03167f8be0079c531659141344cd1fd0a4f28419497f9722a3daafe3b4186f6b6457e08280a360c05180f35b3461018b5760c05136600319011261018b576020600654604051908152f35b3461018b57602036600319011261018b57613a69615b1a565b60043560035560c05180f35b3461018b57602036600319011261018b57613a8e6156b0565b6001600160a01b038082166000818152600c602052604090205490911603613b895760018060a01b031660c05152600c602052604060c05120600160405191613ad6836154ff565b818060a01b03815416835201604051918260208354918281520190819360c05152602060c051209060c0515b818110613b6a57858780602088613b1b838a0384615535565b01526040519182916020830190602084525180915260408301919060c0515b818110613b48575050500390f35b82516001600160a01b0316845285945060209384019390920191600101613b3a565b82546001600160a01b0316845260209093019260019283019201613b02565b60405162461bcd60e51b815260206004820152601c60248201527f557365722050726f66696c6520646f7365206e6f742065786973742e000000006044820152606490fd5b3461018b57608036600319011261018b57604051613beb8161551a565b6004358152613bf861569a565b602082019081526044359063ffffffff8216820361018b576040830191825260608301926064358452613c29615b1a565b5160095551600a8054925163ffffffff60a01b60a09190911b166001600160a01b039092166001600160c01b03199093169290921717905551600b5560c05180f35b3461018b57604036600319011261018b57613c8461569a565b60018060a01b038116908160c05152600e602052613cad60ff6017604060c051200154166158ca565b600154600254604051631083f76160e01b81526001600160a01b03928316939190921691602081600481865afa80156113a457613d269460209260c05192613fd1575b5060405163e6a4390560e01b81526001600160a01b03808616600483015290921660248301529094859190829081906044820190565b03915afa9283156113a45760049360409160c05191613fb2575b508151630240bc6b60e21b815294859182906001600160a01b03165afa9182156113a45760c051938493613f85575b5060408051636f08e17760e01b815260048035908201526001600160a01b0390931660248401523360448401529082908180606481015b039160c051905af19283156113a45760c0519160c05194613f5a575b50613dd1613dd792859261593f565b92615962565b908360c05152600e602052613df5600f604060c05120015442615962565b918060011b938185046002148215171561063c5762015180613e3b613eb8938860c05152600e602052613e3586612a9c836008604060c05120015461596f565b956159aa565b9411948515613f375781935b8615613f1d578760c05152600e6020526009604060c051200154955b8860c05152600e6020526009604060c0512001558760c05152600e602052600a604060c0512001558660c05152600e602052600b604060c0512001558560c05152600e602052600c604060c05120015461593f565b8460c05152600e602052600c604060c0512001558360c05152600e602052600d604060c0512001558260c05152600e602052600e604060c051200155613f0357602060405160018152f35b60c05152600e60205242600f604060c05120015580612b76565b8760c05152600e602052600e604060c05120015495613e63565b8660c05152600e602052613f5482600d604060c05120015461593f565b93613e47565b613dd19450613dd79250613f7c9060403d604011611412576114048183615535565b94909250613dc2565b613da69294506040919350613fa690823d8411611412576114048183615535565b94909493915091613d6f565b613fcb915060203d602011611ca657611c958183615535565b86613d40565b613fe9919250833d8511611ca657611c958183615535565b9087613cf0565b3461018b5760e036600319011261018b576004356001600160401b03811161018b57614020903690600401615571565b6024356001600160401b03811161018b5761403f903690600401615571565b6044356001600160401b03811161018b5761405e9036906004016155cf565b6064356001600160401b03811161018b5761407d903690600401615571565b906084356001600160401b03811161018b5761409d903690600401615571565b9360a4356001600160401b03811161018b576140bd903690600401615637565b9260c435936140ca615b50565b6140d2615b50565b6004549384861115611d7257600254604051631083f76160e01b81529690602090889060049082906001600160a01b03165afa9687156113a45760c0519761544c575b506040516370a0823160e01b81523360048201526020816024816001600160a01b038c165afa80156113a457829160c05191615417575b5010611ce15761415f8661417b92615962565b60c051549096906001600160a01b039081169033908a16615bb6565b6141908530336001600160a01b038a16615bb6565b614199846159cc565b60035490600754916040519261104e928385018581106001600160401b0382111761152f576141eb8d6141dd6060948998615e218a396080855260808501906158a5565b9083820360208501526158a5565b9360408201520152039060c051f09788156113a4576040516318160ddd60e01b8152976020896004816001600160a01b038e165afa9081156113a4578a9960c051926153e0575b506001546040516364e329cb60e11b81526001600160a01b039c8d1660048201528a8d16602482015260c051909c6020928e926044928492165af19a8b156113a45760c0519b6153bf575b5060025461429a9083906001600160a01b03908116908d16615bff565b6142a5600554615982565b69021e19e0c9bab240000081029080820469021e19e0c9bab2400000149015171561063c57826142d4916159aa565b670de0b6b3a7640000810290808204670de0b6b3a7640000149015171561063c5760025460408051631746ffa760e31b81526001600160a01b038e81166004830152602482018790526127109094046044820181905260c05190949193849260649284929091165af180156113a4576153a1575b50614352886159cc565b9261435d82826159aa565b908260011b938385046002148415171561063c5761438c9a8e9661438186856159aa565b976040519d8e6154b1565b60018060a01b03168d5260208d015260408c015260608b015260808a015260a089015260c088015260e087015260c05161010087015260c051610120870152610140860152426101608601528251906020840151926060604086015195015195604051976143f9896154e3565b33895260018060a01b038c1660208a015260018060a01b038d1660408a015260c05160608a0152608089015260a088015260c087015260e0860152610100850152610120840152610140830152610160820152600161018082015260c0516101a082015260018060a01b03841660c05152600e602052604060c0512060018060a01b0360018060a01b03835116166001600160601b0360a01b82541617815560018060a01b03602083015116600182019060018060a01b03166001600160601b0360a01b82541617905560018060a01b03604083015116600282019060018060a01b03166001600160601b0360a01b82541617905560018060a01b03606083015116600382019060018060a01b03166001600160601b0360a01b825416179055608082015160018060a01b03815116600483019060018060a01b03166001600160601b0360a01b82541617905560208101518051906001600160401b03821161152f57819061456b600586015461570a565b601f811161536a575b506020906001601f8411146152fc5760c051926152f1575b50508160011b916000199060031b1c19161760058301555b60408101518051906001600160401b03821161152f5781906145c9600686015461570a565b601f81116152ba575b506020906001601f84111461524c5760c05192615241575b50508160011b916000199060031b1c19161760068301555b60608101518051906001600160401b03821161152f57614625600785015461570a565b601f811161520a575b506020906001601f84111461519657918091610160949360c0519261518b575b50508160011b916000199060031b1c19161760078401555b6080810151600884015560a0810151600984015560c0810151600a84015560e0810151600b840155610100810151600c840155610120810151600d840155610140810151600e8401550151600f82015560a08201518051906001600160401b03821161152f5781906146db601085015461570a565b601f8111615154575b506020906001601f8411146150e65760c051926150db575b50508160011b916000199060031b1c19161760108201555b6011810160c08301518051906001600160401b03821161152f57600160401b821161152f57602090835483855580841061508c575b50019160c05152602060c051209060c0515b8160051c811061504b5750601f198116810380614ffc575b505050506012810160e08301518051906001600160401b03821161152f57819061479d845461570a565b601f8111614fc8575b506020906001601f841114614f605760c05192614f55575b50508160011b916000199060031b1c19161790555b601381016101008301518051906001600160401b03821161152f5781906147fa845461570a565b601f8111614f21575b506020906001601f841114614eb95760c05192614eae575b50508160011b916000199060031b1c19161790555b601481016101208301518051906001600160401b03821161152f578190614857845461570a565b601f8111614e7a575b506020906001601f841114614e125760c05192614e07575b50508160011b916000199060031b1c19161790555b601581016101408301518051906001600160401b03821161152f5781906148b4845461570a565b601f8111614dd3575b506020906001601f841114614d6b5760c05192614d60575b50508160011b916000199060031b1c19161790555b601681016101608301518051906001600160401b03821161152f5761490f835461570a565b601f8111614d2c575b506020906001601f841114614cb75792826017936149729796936101a09660c05192614cac575b50508160011b916000199060031b1c1916179055019161117e6101808201511515849060ff801983541691151516179055565b6149846001600160a01b038416615a21565b336000818152600c60205260409020546001600160a01b031603614ba3576040614a67913360c05152600c6020526149cb60018060a01b03861660018460c0512001615a87565b600f5482518181529094614a27918391906001600160a01b038a811691908a16907f714aa39317ad9a7a7a99db52b44490da5d068a0b2710fffb1a1282ad3cadae1f90602090a36002546001600160a01b039081169116615bff565b60025482516373a9c2c560e11b815260048101929092526001600160a01b0386811660248401523060448401529193849290911690829081906064820190565b039160c051905af180156113a457614b85575b506040516370a0823160e01b8152306004820152906020826024816001600160a01b0387165afa9182156113a45760c05192614b50575b5060405163a9059cbb60e01b8152336004820152602481019290925260c051602090839060449082906001600160a01b0388165af19182156113a45761137392614b33575b506001600080516020616e8f83398151915255604080516001600160a01b0394851681529490931660208501529183019190915281906060820190565b614b4b9060203d60201161139d576113908183615535565b614af6565b91506020823d602011614b7d575b81614b6b60209383615535565b8101031261018b579051906020614ab1565b3d9150614b5e565b614b9d9060403d604011611412576114048183615535565b50614a7a565b604051614baf816154ff565b338082526060602080840191825260c0805193909352600c9052905160409020915182546001600160a01b0319166001600160a01b039190911617825551805191600101906001600160401b03831161152f57600160401b831161152f576020908254848455808510614c8d575b50019060c05152602060c0512060c0515b838110614c7057505050506040614a6791614c4833615a66565b3360c05152600c602052614c6b60018060a01b03861660018460c0512001615a87565b6149cb565b82516001600160a01b031681830155602090920191600101614c2e565b614ca6908460c05152858460c051209182019101615a0a565b88614c1d565b015190508c8061493f565b90601f198316918460c051528160c051209260c0515b818110614d145750936149729796936101a096936001938360179810614cfb575b505050811b01905561115f565b015160001960f88460031b161c191690558c8080614cee565b92936020600181928786015181550195019301614ccd565b614d5a908460c05152602060c05120601f850160051c8101916020861061160657601f0160051c0190615a0a565b89614918565b0151905089806148d5565b60c08051869052518281209350601f198516905b818110614dbb5750908460019594939210614da2575b505050811b0190556148ea565b015160001960f88460031b161c19169055898080614d95565b92936020600181928786015181550195019301614d7f565b614e01908560c05152602060c05120601f850160051c8101916020861061160657601f0160051c0190615a0a565b8a6148bd565b015190508980614878565b60c08051869052518281209350601f198516905b818110614e625750908460019594939210614e49575b505050811b01905561488d565b015160001960f88460031b161c19169055898080614e3c565b92936020600181928786015181550195019301614e26565b614ea8908560c05152602060c05120601f850160051c8101916020861061160657601f0160051c0190615a0a565b8a614860565b01519050898061481b565b60c08051869052518281209350601f198516905b818110614f095750908460019594939210614ef0575b505050811b019055614830565b015160001960f88460031b161c19169055898080614ee3565b92936020600181928786015181550195019301614ecd565b614f4f908560c05152602060c05120601f850160051c8101916020861061160657601f0160051c0190615a0a565b8a614803565b0151905089806147be565b60c08051869052518281209350601f198516905b818110614fb05750908460019594939210614f97575b505050811b0190556147d3565b015160001960f88460031b161c19169055898080614f8a565b92936020600181928786015181550195019301614f74565b614ff6908560c05152602060c05120601f850160051c8101916020861061160657601f0160051c0190615a0a565b8a6147a6565b60c0519390845b81811061501b5750505060051c015586808080614773565b90919460206150416001928460ff8a5116919060ff809160031b9316831b921b19161790565b9601929101615003565b60c051805b6020811061506557508382015560010161475b565b855190959160019160209160ff60038a901b81811b199092169216901b1792019501615050565b6150b9908560c051528360c05120601f80870160051c820192818816806150bf57500160051c0190615a0a565b8a614749565b600019850190815490600019908a0360031b1c1690558f61196a565b0151905088806146fc565b60c08051601087019052518281209350601f198516905b81811061513c5750908460019594939210615123575b505050811b016010820155614714565b015160001960f88460031b161c19169055888080615113565b929360206001819287860151815501950193016150fd565b615185906010860160c05152602060c05120601f850160051c8101916020861061160657601f0160051c0190615a0a565b896146e4565b015190508a8061464e565b90601f198316916007860160c051528160c051209260c0515b8181106151f25750916001939185610160979694106151d9575b505050811b016007840155614666565b015160001960f88460031b161c191690558a80806151c9565b929360206001819287860151815501950193016151af565b61523b906007860160c05152602060c05120601f850160051c8101916020861061160657601f0160051c0190615a0a565b8961462e565b0151905089806145ea565b60c08051600688019052518281209350601f198516905b8181106152a25750908460019594939210615289575b505050811b016006830155614602565b015160001960f88460031b161c19169055898080615279565b92936020600181928786015181550195019301615263565b6152eb906006870160c05152602060c05120601f850160051c8101916020861061160657601f0160051c0190615a0a565b8a6145d2565b01519050898061458c565b60c08051600588019052518281209350601f198516905b8181106153525750908460019594939210615339575b505050811b0160058301556145a4565b015160001960f88460031b161c19169055898080615329565b92936020600181928786015181550195019301615313565b61539b906005870160c05152602060c05120601f850160051c8101916020861061160657601f0160051c0190615a0a565b8a614574565b6153b99060403d604011611412576114048183615535565b50614348565b6153d9919b5060203d602011611ca657611c958183615535565b998b61427d565b995090506020893d60201161540f575b816153fd60209383615535565b8101031261018b57899851908b614232565b3d91506153f0565b9150506020813d602011615444575b8161543360209383615535565b8101031261018b578190518b61414c565b3d9150615426565b61546691975060203d602011611ca657611c958183615535565b9589614115565b3461018b5760c05136600319011261018b576020600354604051908152f35b3461018b57602036600319011261018b576154a5615b1a565b60043560065560c05180f35b61018081019081106001600160401b038211176154cd57604052565b634e487b7160e01b600052604160045260246000fd5b6101c081019081106001600160401b038211176154cd57604052565b604081019081106001600160401b038211176154cd57604052565b608081019081106001600160401b038211176154cd57604052565b90601f801991011681019081106001600160401b038211176154cd57604052565b6001600160401b0381116154cd57601f01601f191660200190565b81601f820112156113de5780359061558882615556565b926155966040519485615535565b828452602083830101116113de57816000926020809301838601378301015290565b6001600160401b0381116154cd5760051b60200190565b9080601f830112156113de578135906155e7826155b8565b926155f56040519485615535565b82845260208085019360051b8201019182116113de57602001915b81831061561d5750505090565b823560ff811681036113de57815260209283019201615610565b9080601f830112156113de57604051916156508361551a565b6080810190838383116113de5781905b83821061566f57505050505090565b81356001600160401b0381116113de5760209161568f8784938701615571565b815201910190615660565b602435906001600160a01b03821682036113de57565b600435906001600160a01b03821682036113de57565b60e435906001600160a01b03821682036113de57565b80548210156156f45760005260206000200190600090565b634e487b7160e01b600052603260045260246000fd5b90600182811c9216801561573a575b602083101461572457565b634e487b7160e01b600052602260045260246000fd5b91607f1691615719565b600092918154916157548361570a565b80835292600181169081156157aa575060011461577057505050565b60009081526020812093945091925b838310615790575060209250010190565b60018160209294939454838587010152019101919061577f565b915050602093945060ff929192191683830152151560051b010190565b906040516157d4816154b1565b610160600b829460018060a01b0381541684526040516157fb81611fcc8160018601615744565b602085015260405161581481611fcc8160028601615744565b604085015260405161582d81611fcc8160038601615744565b606085015260048101546080850152600581015460a0850152600681015460c0850152600781015460e085015260088101546101008501526009810154610120850152600a8101546101408501520154910152565b60005b8381106158955750506000910152565b8181015183820152602001615885565b906020916158be81518092818552858086019101615882565b601f01601f1916010190565b156158d157565b60405162461bcd60e51b8152602060048201526011602482015270546f6b656e206e6f742074726164696e6760781b6044820152606490fd5b908160209103126113de57516001600160a01b03811681036113de5790565b91908260409103126113de576020825192015190565b9190820180921161594c57565b634e487b7160e01b600052601160045260246000fd5b9190820391821161594c57565b8181029291811591840414171561594c57565b801561599457666a94d74f4300000490565b634e487b7160e01b600052601260045260246000fd5b8115615994570490565b908160209103126113de575180151581036113de5790565b90615a0860246040518094630333ab7160e51b60208301526159f78151809260208686019101615882565b81010301601f198101845283615535565b565b818110615a15575050565b60008155600101615a0a565b600f54600160401b8110156154cd57806001615a429201600f55600f6156dc565b81546001600160a01b0393841660039290921b91821b9390911b1916919091179055565b600d54600160401b8110156154cd57806001615a429201600d55600d6156dc565b8054600160401b8110156154cd57615a42916001820181556156dc565b6001600160a01b03168015615b0457600080516020616e6f83398151915280546001600160a01b0319811683179091556001600160a01b03167f8be0079c531659141344cd1fd0a4f28419497f9722a3daafe3b4186f6b6457e0600080a3565b631e4fbdf760e01b600052600060045260246000fd5b600080516020616e6f833981519152546001600160a01b03163303615b3b57565b63118cdaa760e01b6000523360045260246000fd5b6002600080516020616e8f8339815191525414615b7b576002600080516020616e8f83398151915255565b633ee5aeb560e01b60005260046000fd5b908160209103126113de575160ff811681036113de5790565b60ff16604d811161594c57600a0a90565b6040516323b872dd60e01b60208201526001600160a01b039283166024820152929091166044830152606480830193909352918152615a0891615bfa608483615535565b615cf3565b60405163095ea7b360e01b602082019081526001600160a01b03841660248301526044808301959095529381529192615c39606484615535565b82516001600160a01b03831691600091829182855af190615c58615d61565b82615cc1575b5081615cb6575b5015615c7057505050565b60405163095ea7b360e01b60208201526001600160a01b03909316602484015260006044808501919091528352615a0892615bfa90615cb0606482615535565b82615cf3565b90503b151538615c65565b80519192508115918215615cd9575b50509038615c5e565b615cec92506020809183010191016159b4565b3880615cd0565b600080615d1c9260018060a01b03169360208151910182865af1615d15615d61565b9083615dbf565b8051908115159182615d46575b5050615d325750565b635274afe760e01b60005260045260246000fd5b615d5992506020809183010191016159b4565b153880615d29565b3d15615d8c573d90615d7282615556565b91615d806040519384615535565b82523d6000602084013e565b606090565b60ff600080516020616eaf8339815191525460401c1615615dae57565b631afcd79f60e31b60005260046000fd5b90615de55750805115615dd457805190602001fd5b630a12f52160e11b60005260046000fd5b81511580615e17575b615df6575090565b639996b31560e01b60009081526001600160a01b0391909116600452602490fd5b50803b15615dee56fe60806040523461048c5761104e8038038061001981610491565b92833981019060808183031261048c5780516001600160401b03811161048c57826100459183016104b6565b602082015190926001600160401b03821161048c576100659183016104b6565b90606060408201519101519033156104765760008054336001600160a01b0319821681178355916001600160a01b03909116907f8be0079c531659141344cd1fd0a4f28419497f9722a3daafe3b4186f6b6457e09080a383516001600160401b03811161037f57600254600181811c9116801561046c575b602082101461035f57601f8111610407575b50602094601f82116001146103a057948192939495600092610395575b50508160011b916000199060031b1c1916176002555b82516001600160401b03811161037f57600354600181811c91168015610375575b602082101461035f57601f81116102fa575b506020601f82116001146102935781929394600092610288575b50508160011b916000199060031b1c1916176003555b670de0b6b3a7640000810290808204670de0b6b3a7640000149015171561027257806001553360005260066020526040600020553360005260086020526040600020600160ff198254161790553060005260086020526040600020600160ff198254161790558060045560015490818102818104831482151715610272577fff3dd5e80294197918c284bbfc3dadd97d0b40ce92106110946329088f80068a91606460209204600555604051908152a160405190815260007fddf252ad1be2c89b69c2b068fc378daa952ba7f163c4a11628f55a4df523b3ef60203393a3604051610b2c90816105228239f35b634e487b7160e01b600052601160045260246000fd5b01519050388061016f565b601f198216906003600052806000209160005b8181106102e2575095836001959697106102c9575b505050811b01600355610185565b015160001960f88460031b161c191690553880806102bb565b9192602060018192868b0151815501940192016102a6565b60036000527fc2575a0e9e593c00f959f8c92f12db2869c3395a3b0502d05e2516446f71f85b601f830160051c81019160208410610355575b601f0160051c01905b8181106103495750610155565b6000815560010161033c565b9091508190610333565b634e487b7160e01b600052602260045260246000fd5b90607f1690610143565b634e487b7160e01b600052604160045260246000fd5b01519050388061010c565b601f198216956002600052806000209160005b8881106103ef575083600195969798106103d6575b505050811b01600255610122565b015160001960f88460031b161c191690553880806103c8565b919260206001819286850151815501940192016103b3565b60026000527f405787fa12a823e0f2b7631cc41b3ba8828b3321ca811111fa75cd3aa3bb5ace601f830160051c81019160208410610462575b601f0160051c01905b81811061045657506100ef565b60008155600101610449565b9091508190610440565b90607f16906100dd565b631e4fbdf760e01b600052600060045260246000fd5b600080fd5b6040519190601f01601f191682016001600160401b0381118382101761037f57604052565b81601f8201121561048c578051906001600160401b03821161037f576104e5601f8301601f1916602001610491565b928284526020838301011161048c5760005b82811061050c57505060206000918301015290565b806020809284010151828287010152016104f756fe608080604052600436101561001357600080fd5b60003560e01c90816306fdde031461067c57508063095ea7b31461065657806318160ddd1461063857806323b872dd146105d2578063313ce567146105b657806370a082311461057c578063715018a6146105235780637437681e1461050557806379cc67901461044a5780638da5cb5b1461042157806395d89b4114610300578063a9059cbb146102cf578063c2d0ffca14610252578063db4cf1e0146101ae578063dd62ed3e1461015d5763f2fde38b146100cf57600080fd5b34610158576020366003190112610158576100e8610798565b6100f0610acd565b6001600160a01b0316801561014257600080546001600160a01b03198116831782556001600160a01b0316907f8be0079c531659141344cd1fd0a4f28419497f9722a3daafe3b4186f6b6457e09080a3005b631e4fbdf760e01b600052600060045260246000fd5b600080fd5b3461015857604036600319011261015857610176610798565b61017e6107ae565b6001600160a01b039182166000908152600760209081526040808320949093168252928352819020549051908152f35b34610158576020366003190112610158576101c7610798565b6101cf610acd565b6001600160a01b031680156101f9576000908152600860205260409020805460ff19166001179055005b60405162461bcd60e51b815260206004820152602b60248201527f45524332303a204578636c756465204d61782054782066726f6d20746865207a60448201526a65726f206164647265737360a81b6064820152608490fd5b346101585760203660031901126101585760043561026e610acd565b806004556001548082029082820414821517156102b9577fff3dd5e80294197918c284bbfc3dadd97d0b40ce92106110946329088f80068a91606460209204600555604051908152a1005b634e487b7160e01b600052601160045260246000fd5b34610158576040366003190112610158576102f56102eb610798565b60243590336108d9565b602060405160018152f35b346101585760003660031901126101585760405160006003548060011c90600181168015610417575b602083108114610403578285529081156103e75750600114610390575b50819003601f01601f191681019067ffffffffffffffff82118183101761037a576103768291826040528261074f565b0390f35b634e487b7160e01b600052604160045260246000fd5b905060036000527fc2575a0e9e593c00f959f8c92f12db2869c3395a3b0502d05e2516446f71f85b6000905b8282106103d157506020915082010182610346565b60018160209254838588010152019101906103bc565b90506020925060ff191682840152151560051b82010182610346565b634e487b7160e01b84526022600452602484fd5b91607f1691610329565b34610158576000366003190112610158576000546040516001600160a01b039091168152602090f35b3461015857604036600319011261015857610463610798565b6024359061046f610acd565b6001600160a01b031680156104ce577fddf252ad1be2c89b69c2b068fc378daa952ba7f163c4a11628f55a4df523b3ef6020600093838552600682526104b98160408720546107c4565b848652600683526040862055604051908152a3005b60405162461bcd60e51b815260206004820152600f60248201526e496e76616c6964206164647265737360881b6044820152606490fd5b34610158576000366003190112610158576020600454604051908152f35b346101585760003660031901126101585761053c610acd565b600080546001600160a01b0319811682556001600160a01b03167f8be0079c531659141344cd1fd0a4f28419497f9722a3daafe3b4186f6b6457e08280a3005b34610158576020366003190112610158576001600160a01b0361059d610798565b1660005260066020526020604060002054604051908152f35b3461015857600036600319011261015857602060405160128152f35b34610158576060366003190112610158576102f56105ee610798565b6106306105f96107ae565b6106076044358092856108d9565b6001600160a01b03831660009081526007602090815260408083203384529091529020546107c4565b9033906107d1565b34610158576000366003190112610158576020600154604051908152f35b34610158576040366003190112610158576102f5610672610798565b60243590336107d1565b346101585760003660031901126101585760006002548060011c90600181168015610745575b602083108114610403578285529081156103e757506001146106ee5750819003601f01601f191681019067ffffffffffffffff82118183101761037a576103768291826040528261074f565b905060026000527f405787fa12a823e0f2b7631cc41b3ba8828b3321ca811111fa75cd3aa3bb5ace6000905b82821061072f57506020915082010182610346565b600181602092548385880101520191019061071a565b91607f16916106a2565b91909160208152825180602083015260005b818110610782575060409293506000838284010152601f8019910116010190565b8060208092870101516040828601015201610761565b600435906001600160a01b038216820361015857565b602435906001600160a01b038216820361015857565b919082039182116102b957565b6001600160a01b0316908115610888576001600160a01b03169182156108385760207f8c5be1e5ebec7d5bd14f71427d1e84f3dd0314c0f7b2291e5b200ac8c7c3b925918360005260078252604060002085600052825280604060002055604051908152a3565b60405162461bcd60e51b815260206004820152602260248201527f45524332303a20617070726f766520746f20746865207a65726f206164647265604482015261737360f01b6064820152608490fd5b60405162461bcd60e51b8152602060048201526024808201527f45524332303a20617070726f76652066726f6d20746865207a65726f206164646044820152637265737360e01b6064820152608490fd5b6001600160a01b0316908115610a7a576001600160a01b0316918215610a295780156109d25781600052600860205260ff6040600020541615610993575b81600052600660205261092f816040600020546107c4565b8260005260066020526040600020558260005260066020526040600020548181018091116102b9577fddf252ad1be2c89b69c2b068fc378daa952ba7f163c4a11628f55a4df523b3ef916020918560005260068352604060002055604051908152a3565b6005548111156109175760405162461bcd60e51b815260206004820152600d60248201526c08af0c6cacac8e6409ac2f0a8f609b1b6044820152606490fd5b60405162461bcd60e51b815260206004820152602960248201527f5472616e7366657220616d6f756e74206d7573742062652067726561746572206044820152687468616e207a65726f60b81b6064820152608490fd5b60405162461bcd60e51b815260206004820152602360248201527f45524332303a207472616e7366657220746f20746865207a65726f206164647260448201526265737360e81b6064820152608490fd5b60405162461bcd60e51b815260206004820152602560248201527f45524332303a207472616e736665722066726f6d20746865207a65726f206164604482015264647265737360d81b6064820152608490fd5b6000546001600160a01b03163303610ae157565b63118cdaa760e01b6000523360045260246000fdfea264697066735822122070d00a9c1bdab1b8e96b2cc11b61852110ed897afeda6672e89f853ab813742b64736f6c634300081a00339016d09d72d40fdae2fd8ceac6b6234c7706214fd39c1cd1e609a0528c1993009b779b17422d0df92223018b32b4d1fa46e071723d6817e2486d003becc55f00f0c57e16840df040f15088dc2f81fe391c3923bec73e23a9662efc9c229c6a00a26469706673582212208b9c30cccd31438feea27195b970af2da47b1f0d1079dfee4ab491a0f25c37b364736f6c634300081a0033","linkReferences":{}},"methodIdentifiers":{"K()":"a932492f","agentFactory()":"7df107ea","assetRate()":"e8e6ed69","buy(uint256,address)":"7deb6025","factory()":"c45a0155","fee()":"ddca3f43","getUserTokens(address)":"519dc8d2","gradThreshold()":"6edd12e0","initialSupply()":"378dc3dc","initialize(address,address,address,uint256,uint256,uint256,uint256,address,uint256)":"ea6eef49","launch(string,string,uint8[],string,string,string[4],uint256)":"3c0b93aa","launchFor(string,string,uint8[],string,string,string[4],uint256,address)":"bd01cb92","maxTx()":"7437681e","owner()":"8da5cb5b","profile(address)":"9dd9d0fd","profiles(uint256)":"c36fe3d6","renounceOwnership()":"715018a6","router()":"f887ea40","sell(uint256,address)":"4189a68e","setAssetRate(uint256)":"cc489688","setDeployParams((bytes32,address,uint32,uint256))":"43fb4d24","setFee(uint256,address)":"b4f2e8b8","setGradThreshold(uint256)":"09c8962c","setInitialSupply(uint256)":"61402596","setMaxTx(uint256)":"bc337182","tokenInfo(address)":"f5dab711","tokenInfos(uint256)":"7c13774b","transferOwnership(address)":"f2fde38b","unwrapToken(address,address[])":"7f13a90b"},"id":18}