{"abi":[{"type":"constructor","inputs":[],"stateMutability":"nonpayable"},{"type":"function","name":"BONDING_ROLE","inputs":[],"outputs":[{"name":"","type":"bytes32","internalType":"bytes32"}],"stateMutability":"view"},{"type":"function","name":"DEFAULT_ADMIN_ROLE","inputs":[],"outputs":[{"name":"","type":"bytes32","internalType":"bytes32"}],"stateMutability":"view"},{"type":"function","name":"executeBondingCurveApplication","inputs":[{"name":"","type":"uint256","internalType":"uint256"},{"name":"","type":"uint256","internalType":"uint256"},{"name":"","type":"uint256","internalType":"uint256"},{"name":"","type":"address","internalType":"address"}],"outputs":[{"name":"","type":"address","internalType":"address"}],"stateMutability":"view"},{"type":"function","name":"getRoleAdmin","inputs":[{"name":"role","type":"bytes32","internalType":"bytes32"}],"outputs":[{"name":"","type":"bytes32","internalType":"bytes32"}],"stateMutability":"view"},{"type":"function","name":"grantRole","inputs":[{"name":"role","type":"bytes32","internalType":"bytes32"},{"name":"account","type":"address","internalType":"address"}],"outputs":[],"stateMutability":"nonpayable"},{"type":"function","name":"hasRole","inputs":[{"name":"role","type":"bytes32","internalType":"bytes32"},{"name":"account","type":"address","internalType":"address"}],"outputs":[{"name":"","type":"bool","internalType":"bool"}],"stateMutability":"view"},{"type":"function","name":"initFromBondingCurve","inputs":[{"name":"","type":"string","internalType":"string"},{"name":"","type":"string","internalType":"string"},{"name":"","type":"uint8[]","internalType":"uint8[]"},{"name":"","type":"bytes32","internalType":"bytes32"},{"name":"","type":"address","internalType":"address"},{"name":"","type":"uint32","internalType":"uint32"},{"name":"","type":"uint256","internalType":"uint256"},{"name":"","type":"uint256","internalType":"uint256"},{"name":"","type":"address","internalType":"address"}],"outputs":[{"name":"","type":"uint256","internalType":"uint256"}],"stateMutability":"view"},{"type":"function","name":"initialize","inputs":[{"name":"","type":"address","internalType":"address"},{"name":"","type":"address","internalType":"address"},{"name":"","type":"address","internalType":"address"},{"name":"","type":"address","internalType":"address"},{"name":"","type":"address","internalType":"address"},{"name":"","type":"address","internalType":"address"},{"name":"","type":"uint256","internalType":"uint256"},{"name":"","type":"address","internalType":"address"},{"name":"","type":"uint256","internalType":"uint256"}],"outputs":[],"stateMutability":"nonpayable"},{"type":"function","name":"mockAgentToken","inputs":[],"outputs":[{"name":"","type":"address","internalType":"address"}],"stateMutability":"view"},{"type":"function","name":"mockId","inputs":[],"outputs":[{"name":"","type":"uint256","internalType":"uint256"}],"stateMutability":"view"},{"type":"function","name":"paused","inputs":[],"outputs":[{"name":"","type":"bool","internalType":"bool"}],"stateMutability":"view"},{"type":"function","name":"proposeAgent","inputs":[{"name":"","type":"string","internalType":"string"},{"name":"","type":"string","internalType":"string"},{"name":"","type":"string","internalType":"string"},{"name":"","type":"uint8[]","internalType":"uint8[]"},{"name":"","type":"bytes32","internalType":"bytes32"},{"name":"","type":"address","internalType":"address"},{"name":"","type":"uint32","internalType":"uint32"},{"name":"","type":"uint256","internalType":"uint256"}],"outputs":[{"name":"","type":"uint256","internalType":"uint256"}],"stateMutability":"view"},{"type":"function","name":"renounceRole","inputs":[{"name":"role","type":"bytes32","internalType":"bytes32"},{"name":"callerConfirmation","type":"address","internalType":"address"}],"outputs":[],"stateMutability":"nonpayable"},{"type":"function","name":"revokeRole","inputs":[{"name":"role","type":"bytes32","internalType":"bytes32"},{"name":"account","type":"address","internalType":"address"}],"outputs":[],"stateMutability":"nonpayable"},{"type":"function","name":"setMockAgentToken","inputs":[{"name":"token","type":"address","internalType":"address"}],"outputs":[],"stateMutability":"nonpayable"},{"type":"function","name":"setMockId","inputs":[{"name":"id","type":"uint256","internalType":"uint256"}],"outputs":[],"stateMutability":"nonpayable"},{"type":"function","name":"supportsInterface","inputs":[{"name":"interfaceId","type":"bytes4","internalType":"bytes4"}],"outputs":[{"name":"","type":"bool","internalType":"bool"}],"stateMutability":"view"},{"type":"function","name":"totalAgents","inputs":[],"outputs":[{"name":"","type":"uint256","internalType":"uint256"}],"stateMutability":"pure"},{"type":"function","name":"withdraw","inputs":[{"name":"","type":"uint256","internalType":"uint256"}],"outputs":[],"stateMutability":"pure"},{"type":"event","name":"Initialized","inputs":[{"name":"version","type":"uint64","indexed":false,"internalType":"uint64"}],"anonymous":false},{"type":"event","name":"Paused","inputs":[{"name":"account","type":"address","indexed":false,"internalType":"address"}],"anonymous":false},{"type":"event","name":"RoleAdminChanged","inputs":[{"name":"role","type":"bytes32","indexed":true,"internalType":"bytes32"},{"name":"previousAdminRole","type":"bytes32","indexed":true,"internalType":"bytes32"},{"name":"newAdminRole","type":"bytes32","indexed":true,"internalType":"bytes32"}],"anonymous":false},{"type":"event","name":"RoleGranted","inputs":[{"name":"role","type":"bytes32","indexed":true,"internalType":"bytes32"},{"name":"account","type":"address","indexed":true,"internalType":"address"},{"name":"sender","type":"address","indexed":true,"internalType":"address"}],"anonymous":false},{"type":"event","name":"RoleRevoked","inputs":[{"name":"role","type":"bytes32","indexed":true,"internalType":"bytes32"},{"name":"account","type":"address","indexed":true,"internalType":"address"},{"name":"sender","type":"address","indexed":true,"internalType":"address"}],"anonymous":false},{"type":"event","name":"Unpaused","inputs":[{"name":"account","type":"address","indexed":false,"internalType":"address"}],"anonymous":false},{"type":"error","name":"AccessControlBadConfirmation","inputs":[]},{"type":"error","name":"AccessControlUnauthorizedAccount","inputs":[{"name":"account","type":"address","internalType":"address"},{"name":"neededRole","type":"bytes32","internalType":"bytes32"}]},{"type":"error","name":"EnforcedPause","inputs":[]},{"type":"error","name":"ExpectedPause","inputs":[]},{"type":"error","name":"InvalidInitialization","inputs":[]},{"type":"error","name":"NotInitializing","inputs":[]}],"bytecode":{"object":"0x6080806040523460d2577ff0c57e16840df040f15088dc2f81fe391c3923bec73e23a9662efc9c229c6a005460ff8160401c1660c1576002600160401b03196001600160401b03821601605c575b604051610d8790816100d88239f35b6001600160401b0319166001600160401b039081177ff0c57e16840df040f15088dc2f81fe391c3923bec73e23a9662efc9c229c6a005581527fc7f505b2f371ae2175ee4913f4499e1f2633a7b5936321eed1cdaeb6115181d290602090a13880604d565b63f92ee8a960e01b60005260046000fd5b600080fdfe608080604052600436101561001357600080fd5b60003560e01c90816301ffc9a7146106f8575080630f07646a1461053557806323c31596146104fb578063248a9ca3146104d55780632e1a7d4d146104c25780632f2ff15d146104915780633094afb31461045657806336568abe146104105780633fa2da7e146103435780635c975abb146103135780636dee767c146102ea578063774519c6146102cc57806391d14854146102725780639e4ec30a146101bd578063a12e9b88146101a4578063a217fddf14610188578063c50537121461016c578063d547741f146101345763e8730541146100f057600080fd5b3461012f57602036600319011261012f576001600160a01b0361011161074b565b166bffffffffffffffffffffffff60a01b6000541617600055600080f35b600080fd5b3461012f57604036600319011261012f5761016a600435610153610761565b906101656101608261091d565b610bd9565b610c23565b005b3461012f57600036600319011261012f57602060405160018152f35b3461012f57600036600319011261012f57602060405160008152f35b3461012f57602036600319011261012f57600435600155005b3461012f5761010036600319011261012f5760043567ffffffffffffffff811161012f576101ef903690600401610838565b5060243567ffffffffffffffff811161012f57610210903690600401610838565b5060443567ffffffffffffffff811161012f57610231903690600401610838565b5060643567ffffffffffffffff811161012f5761025290369060040161088b565b5061025b6107b9565b5061026461090a565b506020600154604051908152f35b3461012f57604036600319011261012f5761028b610761565b600435600052600080516020610cf283398151915260205260406000209060018060a01b0316600052602052602060ff604060002054166040519015158152f35b3461012f57600036600319011261012f576020600154604051908152f35b3461012f57600036600319011261012f576000546040516001600160a01b039091168152602090f35b3461012f57600036600319011261012f57602060ff600080516020610d1283398151915254166040519015158152f35b3461012f5761012036600319011261012f5760043567ffffffffffffffff811161012f57610375903690600401610838565b5060243567ffffffffffffffff811161012f57610396903690600401610838565b5060443567ffffffffffffffff811161012f576103b790369060040161088b565b506103c06107a3565b506103c96108f7565b506103d26107e5565b5060ff600080516020610d1283398151915254166103ff576103f2610b67565b6020600154604051908152f35b63d93c066560e01b60005260046000fd5b3461012f57604036600319011261012f57610429610761565b336001600160a01b038216036104455761016a90600435610c23565b63334bd91960e11b60005260046000fd5b3461012f57600036600319011261012f5760206040517f360f1ba4dc07a42c6671063d838f69946ccc4187f391399e06fd8ed4605900f38152f35b3461012f57604036600319011261012f5761016a6004356104b0610761565b906104bd6101608261091d565b610abe565b3461012f57602036600319011261012f57005b3461012f57602036600319011261012f5760206104f360043561091d565b604051908152f35b3461012f57608036600319011261012f5761051461078d565b5061051d610b67565b6000546040516001600160a01b039091168152602090f35b3461012f5761012036600319011261012f5761054f61074b565b50610558610761565b50610561610777565b5061056a61078d565b506105736107a3565b5061057c6107b9565b506105856107cf565b50600080516020610d328339815191525460ff8160401c16159067ffffffffffffffff8116801590816106f0575b60011490816106e6575b1590816106dd575b506106cc5767ffffffffffffffff198116600117600080516020610d32833981519152558161069f575b506105f8610cc3565b610600610cc3565b610608610cc3565b60ff19600080516020610d128339815191525416600080516020610d12833981519152556106353361093e565b5061063f336109f0565b5061064657005b68ff000000000000000019600080516020610d328339815191525416600080516020610d32833981519152557fc7f505b2f371ae2175ee4913f4499e1f2633a7b5936321eed1cdaeb6115181d2602060405160018152a1005b68ffffffffffffffffff19166801000000000000000117600080516020610d3283398151915255816105ef565b63f92ee8a960e01b60005260046000fd5b905015836105c5565b303b1591506105bd565b8391506105b3565b3461012f57602036600319011261012f576004359063ffffffff60e01b821680920361012f57602091637965db0b60e01b811490811561073a575b5015158152f35b6301ffc9a760e01b14905083610733565b600435906001600160a01b038216820361012f57565b602435906001600160a01b038216820361012f57565b604435906001600160a01b038216820361012f57565b606435906001600160a01b038216820361012f57565b608435906001600160a01b038216820361012f57565b60a435906001600160a01b038216820361012f57565b60e435906001600160a01b038216820361012f57565b61010435906001600160a01b038216820361012f57565b6040519190601f01601f1916820167ffffffffffffffff81118382101761082257604052565b634e487b7160e01b600052604160045260246000fd5b81601f8201121561012f5780359067ffffffffffffffff821161082257610868601f8301601f19166020016107fc565b928284526020838301011161012f57816000926020809301838601378301015290565b81601f8201121561012f5780359167ffffffffffffffff8311610822578260051b916020806108bb8186016107fc565b80968152019382010191821161012f57602001915b8183106108dd5750505090565b823560ff8116810361012f578152602092830192016108d0565b60a4359063ffffffff8216820361012f57565b60c4359063ffffffff8216820361012f57565b600052600080516020610cf283398151915260205260016040600020015490565b6001600160a01b03811660009081527fb7db2dd08fcb62d0c9e08c51941cae53c267786a0b75803fb7960902fc8ef97d602052604090205460ff166109ea576001600160a01b031660008181527fb7db2dd08fcb62d0c9e08c51941cae53c267786a0b75803fb7960902fc8ef97d60205260408120805460ff191660011790553391907f2f8788117e7eff1d82e926ec794901d17c78024a50270940304540a733656f0d8180a4600190565b50600090565b6001600160a01b03811660009081527f7fd9957335868d530b3a02e10a71f86271a34deadb5ee52b2ba3d611ed087617602052604090205460ff166109ea576001600160a01b031660008181527f7fd9957335868d530b3a02e10a71f86271a34deadb5ee52b2ba3d611ed08761760205260408120805460ff191660011790553391907f360f1ba4dc07a42c6671063d838f69946ccc4187f391399e06fd8ed4605900f3907f2f8788117e7eff1d82e926ec794901d17c78024a50270940304540a733656f0d9080a4600190565b6000818152600080516020610cf2833981519152602090815260408083206001600160a01b038616845290915290205460ff16610b60576000818152600080516020610cf2833981519152602090815260408083206001600160a01b0395909516808452949091528120805460ff19166001179055339291907f2f8788117e7eff1d82e926ec794901d17c78024a50270940304540a733656f0d9080a4600190565b5050600090565b3360009081527f7fd9957335868d530b3a02e10a71f86271a34deadb5ee52b2ba3d611ed087617602052604090205460ff1615610ba057565b63e2517d3f60e01b600052336004527f360f1ba4dc07a42c6671063d838f69946ccc4187f391399e06fd8ed4605900f360245260446000fd5b6000818152600080516020610cf28339815191526020908152604080832033845290915290205460ff1615610c0b5750565b63e2517d3f60e01b6000523360045260245260446000fd5b6000818152600080516020610cf2833981519152602090815260408083206001600160a01b038616845290915290205460ff1615610b60576000818152600080516020610cf2833981519152602090815260408083206001600160a01b0395909516808452949091528120805460ff19169055339291907ff6391f5c32d9c69d2a47ea670b442974b53935d1edc7fd64eb21e047a839171b9080a4600190565b60ff600080516020610d328339815191525460401c1615610ce057565b631afcd79f60e31b60005260046000fdfe02dd7bc7dec4dceedda775e58dd541e08a116c6c53815c0bd028192f7b626800cd5ed15c6e187e77e9aee88184c21f4f2182ab5827cb3b7e07fbedcd63f03300f0c57e16840df040f15088dc2f81fe391c3923bec73e23a9662efc9c229c6a00a26469706673582212200a730e9ee9d8d49c376b9930bd724a2f42301fc7f15c7d8bafd5464567d13a6464736f6c634300081a0033","linkReferences":{}},"methodIdentifiers":{"BONDING_ROLE()":"3094afb3","DEFAULT_ADMIN_ROLE()":"a217fddf","executeBondingCurveApplication(uint256,uint256,uint256,address)":"23c31596","getRoleAdmin(bytes32)":"248a9ca3","grantRole(bytes32,address)":"2f2ff15d","hasRole(bytes32,address)":"91d14854","initFromBondingCurve(string,string,uint8[],bytes32,address,uint32,uint256,uint256,address)":"3fa2da7e","initialize(address,address,address,address,address,address,uint256,address,uint256)":"0f07646a","mockAgentToken()":"6dee767c","mockId()":"774519c6","paused()":"5c975abb","proposeAgent(string,string,string,uint8[],bytes32,address,uint32,uint256)":"9e4ec30a","renounceRole(bytes32,address)":"36568abe","revokeRole(bytes32,address)":"d547741f","setMockAgentToken(address)":"e8730541","setMockId(uint256)":"a12e9b88","supportsInterface(bytes4)":"01ffc9a7","totalAgents()":"c5053712","withdraw(uint256)":"2e1a7d4d"},"id":28}