{"abi":[{"type":"constructor","inputs":[],"stateMutability":"nonpayable"},{"type":"function","name":"DEFAULT_ADMIN_ROLE","inputs":[],"outputs":[{"name":"","type":"bytes32","internalType":"bytes32"}],"stateMutability":"view"},{"type":"function","name":"WITHDRAW_ROLE","inputs":[],"outputs":[{"name":"","type":"bytes32","internalType":"bytes32"}],"stateMutability":"view"},{"type":"function","name":"allDAOs","inputs":[{"name":"","type":"uint256","internalType":"uint256"}],"outputs":[{"name":"","type":"address","internalType":"address"}],"stateMutability":"view"},{"type":"function","name":"allTokens","inputs":[{"name":"","type":"uint256","internalType":"uint256"}],"outputs":[{"name":"","type":"address","internalType":"address"}],"stateMutability":"view"},{"type":"function","name":"allTradingTokens","inputs":[{"name":"","type":"uint256","internalType":"uint256"}],"outputs":[{"name":"","type":"address","internalType":"address"}],"stateMutability":"view"},{"type":"function","name":"applicationThreshold","inputs":[],"outputs":[{"name":"","type":"uint256","internalType":"uint256"}],"stateMutability":"view"},{"type":"function","name":"assetToken","inputs":[],"outputs":[{"name":"","type":"address","internalType":"address"}],"stateMutability":"view"},{"type":"function","name":"daoImplementation","inputs":[],"outputs":[{"name":"","type":"address","internalType":"address"}],"stateMutability":"view"},{"type":"function","name":"defaultDelegatee","inputs":[],"outputs":[{"name":"","type":"address","internalType":"address"}],"stateMutability":"view"},{"type":"function","name":"executeApplication","inputs":[{"name":"id","type":"uint256","internalType":"uint256"},{"name":"canStake","type":"bool","internalType":"bool"}],"outputs":[],"stateMutability":"nonpayable"},{"type":"function","name":"executeTokenApplication","inputs":[{"name":"id","type":"uint256","internalType":"uint256"},{"name":"canStake","type":"bool","internalType":"bool"}],"outputs":[],"stateMutability":"nonpayable"},{"type":"function","name":"getApplication","inputs":[{"name":"proposalId","type":"uint256","internalType":"uint256"}],"outputs":[{"name":"","type":"tuple","internalType":"struct AgentFactoryV4.Application","components":[{"name":"name","type":"string","internalType":"string"},{"name":"symbol","type":"string","internalType":"string"},{"name":"tokenURI","type":"string","internalType":"string"},{"name":"status","type":"uint8","internalType":"enum AgentFactoryV4.ApplicationStatus"},{"name":"withdrawableAmount","type":"uint256","internalType":"uint256"},{"name":"proposer","type":"address","internalType":"address"},{"name":"cores","type":"uint8[]","internalType":"uint8[]"},{"name":"proposalEndBlock","type":"uint256","internalType":"uint256"},{"name":"virtualId","type":"uint256","internalType":"uint256"},{"name":"tbaSalt","type":"bytes32","internalType":"bytes32"},{"name":"tbaImplementation","type":"address","internalType":"address"},{"name":"daoVotingPeriod","type":"uint32","internalType":"uint32"},{"name":"daoThreshold","type":"uint256","internalType":"uint256"}]}],"stateMutability":"view"},{"type":"function","name":"getRoleAdmin","inputs":[{"name":"role","type":"bytes32","internalType":"bytes32"}],"outputs":[{"name":"","type":"bytes32","internalType":"bytes32"}],"stateMutability":"view"},{"type":"function","name":"grantRole","inputs":[{"name":"role","type":"bytes32","internalType":"bytes32"},{"name":"account","type":"address","internalType":"address"}],"outputs":[],"stateMutability":"nonpayable"},{"type":"function","name":"hasRole","inputs":[{"name":"role","type":"bytes32","internalType":"bytes32"},{"name":"account","type":"address","internalType":"address"}],"outputs":[{"name":"","type":"bool","internalType":"bool"}],"stateMutability":"view"},{"type":"function","name":"initFromToken","inputs":[{"name":"tokenAddr","type":"address","internalType":"address"},{"name":"cores","type":"uint8[]","internalType":"uint8[]"},{"name":"tbaSalt","type":"bytes32","internalType":"bytes32"},{"name":"tbaImplementation","type":"address","internalType":"address"},{"name":"daoVotingPeriod","type":"uint32","internalType":"uint32"},{"name":"daoThreshold","type":"uint256","internalType":"uint256"},{"name":"initialLP","type":"uint256","internalType":"uint256"}],"outputs":[{"name":"","type":"uint256","internalType":"uint256"}],"stateMutability":"nonpayable"},{"type":"function","name":"initialize","inputs":[{"name":"tokenImplementation_","type":"address","internalType":"address"},{"name":"veTokenImplementation_","type":"address","internalType":"address"},{"name":"daoImplementation_","type":"address","internalType":"address"},{"name":"tbaRegistry_","type":"address","internalType":"address"},{"name":"assetToken_","type":"address","internalType":"address"},{"name":"nft_","type":"address","internalType":"address"},{"name":"applicationThreshold_","type":"uint256","internalType":"uint256"},{"name":"vault_","type":"address","internalType":"address"},{"name":"nextId_","type":"uint256","internalType":"uint256"}],"outputs":[],"stateMutability":"nonpayable"},{"type":"function","name":"isCompatibleToken","inputs":[{"name":"tokenAddr","type":"address","internalType":"address"}],"outputs":[{"name":"","type":"bool","internalType":"bool"}],"stateMutability":"view"},{"type":"function","name":"maturityDuration","inputs":[],"outputs":[{"name":"","type":"uint256","internalType":"uint256"}],"stateMutability":"view"},{"type":"function","name":"nft","inputs":[],"outputs":[{"name":"","type":"address","internalType":"address"}],"stateMutability":"view"},{"type":"function","name":"pause","inputs":[],"outputs":[],"stateMutability":"nonpayable"},{"type":"function","name":"paused","inputs":[],"outputs":[{"name":"","type":"bool","internalType":"bool"}],"stateMutability":"view"},{"type":"function","name":"proposeAgent","inputs":[{"name":"name","type":"string","internalType":"string"},{"name":"symbol","type":"string","internalType":"string"},{"name":"tokenURI","type":"string","internalType":"string"},{"name":"cores","type":"uint8[]","internalType":"uint8[]"},{"name":"tbaSalt","type":"bytes32","internalType":"bytes32"},{"name":"tbaImplementation","type":"address","internalType":"address"},{"name":"daoVotingPeriod","type":"uint32","internalType":"uint32"},{"name":"daoThreshold","type":"uint256","internalType":"uint256"}],"outputs":[{"name":"","type":"uint256","internalType":"uint256"}],"stateMutability":"nonpayable"},{"type":"function","name":"renounceRole","inputs":[{"name":"role","type":"bytes32","internalType":"bytes32"},{"name":"callerConfirmation","type":"address","internalType":"address"}],"outputs":[],"stateMutability":"nonpayable"},{"type":"function","name":"revokeRole","inputs":[{"name":"role","type":"bytes32","internalType":"bytes32"},{"name":"account","type":"address","internalType":"address"}],"outputs":[],"stateMutability":"nonpayable"},{"type":"function","name":"setApplicationThreshold","inputs":[{"name":"newThreshold","type":"uint256","internalType":"uint256"}],"outputs":[],"stateMutability":"nonpayable"},{"type":"function","name":"setAssetToken","inputs":[{"name":"newToken","type":"address","internalType":"address"}],"outputs":[],"stateMutability":"nonpayable"},{"type":"function","name":"setDefaultDelegatee","inputs":[{"name":"newDelegatee","type":"address","internalType":"address"}],"outputs":[],"stateMutability":"nonpayable"},{"type":"function","name":"setImplementations","inputs":[{"name":"token","type":"address","internalType":"address"},{"name":"veToken","type":"address","internalType":"address"},{"name":"dao","type":"address","internalType":"address"}],"outputs":[],"stateMutability":"nonpayable"},{"type":"function","name":"setMaturityDuration","inputs":[{"name":"newDuration","type":"uint256","internalType":"uint256"}],"outputs":[],"stateMutability":"nonpayable"},{"type":"function","name":"setTokenAdmin","inputs":[{"name":"newTokenAdmin","type":"address","internalType":"address"}],"outputs":[],"stateMutability":"nonpayable"},{"type":"function","name":"setTokenSupplyParams","inputs":[{"name":"maxSupply","type":"uint256","internalType":"uint256"},{"name":"lpSupply","type":"uint256","internalType":"uint256"},{"name":"vaultSupply","type":"uint256","internalType":"uint256"},{"name":"maxTokensPerWallet","type":"uint256","internalType":"uint256"},{"name":"maxTokensPerTxn","type":"uint256","internalType":"uint256"},{"name":"botProtectionDurationInSeconds","type":"uint256","internalType":"uint256"},{"name":"vault","type":"address","internalType":"address"}],"outputs":[],"stateMutability":"nonpayable"},{"type":"function","name":"setTokenTaxParams","inputs":[{"name":"projectBuyTaxBasisPoints","type":"uint256","internalType":"uint256"},{"name":"projectSellTaxBasisPoints","type":"uint256","internalType":"uint256"},{"name":"taxSwapThresholdBasisPoints","type":"uint256","internalType":"uint256"},{"name":"projectTaxRecipient","type":"address","internalType":"address"}],"outputs":[],"stateMutability":"nonpayable"},{"type":"function","name":"setUniswapRouter","inputs":[{"name":"router","type":"address","internalType":"address"}],"outputs":[],"stateMutability":"nonpayable"},{"type":"function","name":"setVault","inputs":[{"name":"newVault","type":"address","internalType":"address"}],"outputs":[],"stateMutability":"nonpayable"},{"type":"function","name":"supportsInterface","inputs":[{"name":"interfaceId","type":"bytes4","internalType":"bytes4"}],"outputs":[{"name":"","type":"bool","internalType":"bool"}],"stateMutability":"view"},{"type":"function","name":"tbaRegistry","inputs":[],"outputs":[{"name":"","type":"address","internalType":"address"}],"stateMutability":"view"},{"type":"function","name":"tokenImplementation","inputs":[],"outputs":[{"name":"","type":"address","internalType":"address"}],"stateMutability":"view"},{"type":"function","name":"totalAgents","inputs":[],"outputs":[{"name":"","type":"uint256","internalType":"uint256"}],"stateMutability":"view"},{"type":"function","name":"unpause","inputs":[],"outputs":[],"stateMutability":"nonpayable"},{"type":"function","name":"veTokenImplementation","inputs":[],"outputs":[{"name":"","type":"address","internalType":"address"}],"stateMutability":"view"},{"type":"function","name":"withdraw","inputs":[{"name":"id","type":"uint256","internalType":"uint256"}],"outputs":[],"stateMutability":"nonpayable"},{"type":"event","name":"ApplicationThresholdUpdated","inputs":[{"name":"newThreshold","type":"uint256","indexed":false,"internalType":"uint256"}],"anonymous":false},{"type":"event","name":"GovUpdated","inputs":[{"name":"newGov","type":"address","indexed":false,"internalType":"address"}],"anonymous":false},{"type":"event","name":"ImplContractsUpdated","inputs":[{"name":"token","type":"address","indexed":false,"internalType":"address"},{"name":"dao","type":"address","indexed":false,"internalType":"address"}],"anonymous":false},{"type":"event","name":"Initialized","inputs":[{"name":"version","type":"uint64","indexed":false,"internalType":"uint64"}],"anonymous":false},{"type":"event","name":"NewApplication","inputs":[{"name":"id","type":"uint256","indexed":false,"internalType":"uint256"}],"anonymous":false},{"type":"event","name":"NewPersona","inputs":[{"name":"virtualId","type":"uint256","indexed":false,"internalType":"uint256"},{"name":"token","type":"address","indexed":false,"internalType":"address"},{"name":"dao","type":"address","indexed":false,"internalType":"address"},{"name":"tba","type":"address","indexed":false,"internalType":"address"},{"name":"veToken","type":"address","indexed":false,"internalType":"address"},{"name":"lp","type":"address","indexed":false,"internalType":"address"}],"anonymous":false},{"type":"event","name":"Paused","inputs":[{"name":"account","type":"address","indexed":false,"internalType":"address"}],"anonymous":false},{"type":"event","name":"RoleAdminChanged","inputs":[{"name":"role","type":"bytes32","indexed":true,"internalType":"bytes32"},{"name":"previousAdminRole","type":"bytes32","indexed":true,"internalType":"bytes32"},{"name":"newAdminRole","type":"bytes32","indexed":true,"internalType":"bytes32"}],"anonymous":false},{"type":"event","name":"RoleGranted","inputs":[{"name":"role","type":"bytes32","indexed":true,"internalType":"bytes32"},{"name":"account","type":"address","indexed":true,"internalType":"address"},{"name":"sender","type":"address","indexed":true,"internalType":"address"}],"anonymous":false},{"type":"event","name":"RoleRevoked","inputs":[{"name":"role","type":"bytes32","indexed":true,"internalType":"bytes32"},{"name":"account","type":"address","indexed":true,"internalType":"address"},{"name":"sender","type":"address","indexed":true,"internalType":"address"}],"anonymous":false},{"type":"event","name":"Unpaused","inputs":[{"name":"account","type":"address","indexed":false,"internalType":"address"}],"anonymous":false},{"type":"error","name":"AccessControlBadConfirmation","inputs":[]},{"type":"error","name":"AccessControlUnauthorizedAccount","inputs":[{"name":"account","type":"address","internalType":"address"},{"name":"neededRole","type":"bytes32","internalType":"bytes32"}]},{"type":"error","name":"AddressEmptyCode","inputs":[{"name":"target","type":"address","internalType":"address"}]},{"type":"error","name":"AddressInsufficientBalance","inputs":[{"name":"account","type":"address","internalType":"address"}]},{"type":"error","name":"ERC1167FailedCreateClone","inputs":[]},{"type":"error","name":"EnforcedPause","inputs":[]},{"type":"error","name":"ExpectedPause","inputs":[]},{"type":"error","name":"FailedInnerCall","inputs":[]},{"type":"error","name":"InvalidInitialization","inputs":[]},{"type":"error","name":"NotInitializing","inputs":[]},{"type":"error","name":"SafeERC20FailedOperation","inputs":[{"name":"token","type":"address","internalType":"address"}]}],"bytecode":{"object":"0x6080806040523460d2577ff0c57e16840df040f15088dc2f81fe391c3923bec73e23a9662efc9c229c6a005460ff8160401c1660c1576002600160401b03196001600160401b03821601605c575b604051614d9890816100d88239f35b6001600160401b0319166001600160401b039081177ff0c57e16840df040f15088dc2f81fe391c3923bec73e23a9662efc9c229c6a005581527fc7f505b2f371ae2175ee4913f4499e1f2633a7b5936321eed1cdaeb6115181d290602090a13880604d565b63f92ee8a960e01b60005260046000fd5b600080fdfe608080604052600436101561001357600080fd5b60003560e01c90816301ffc9a714612ae557508063063513b714612ac75780630c4cb55c14612a9e5780630f07646a146128205780631083f761146127f75780631f2f4bfd14611fc7578063248a9ca314611f9257806326bde5aa14611f4f5780632a7d4a1f14611db25780632e1a7d4d14611b945780632f2ff15d14611b545780632f3a3d5d14611b2b57806336568abe14611ae55780633f4ba83a14611a62578063449664c014611a35578063468d198d14611a0c57806347ccca02146119e35780634c88672a146118d25780635c975abb146118a25780635ca3cedf1461170d578063634282af146116a55780636817031b146116625780638456cb59146115ee57806391d14854146115a15780639300d2381461152e5780639cbe0bac146115055780639d699326146114dc5780639d7b6842146114995780639e4ec30a14610e0c578063a217fddf14610df0578063aa3d000a14610d28578063b4136bd814610cc0578063bd1cf25814610c74578063bea9849e14610c31578063c505371214610c13578063d547741f14610bcc578063d739ac2914610bab578063ddf4427514610b8d578063e02023a114610b52578063e887b1cc14610ad6578063f745759414610a935763fc98f079146101ed57600080fd5b346109df5760e03660031901126109df57610206612b38565b6024356001600160401b0381116109df57610225903690600401612cf1565b61022d612b7a565b916084359063ffffffff82168092036109df5760c43561024b614b20565b6001600160a01b038216600081815260146020526040902054909290610a575761027490613047565b15610a1e576009546040516370a0823160e01b81523360048201526001600160a01b0390911690602081602481855afa908115610944576000916109ec575b506102c360065480921015613190565b604051636eb1769f60e11b815233600482015230602482015291602090839060449082905afa8015610944576000906109b3575b610303925010156131dc565b61030f84511515613233565b801561096f5761032190303384614b4a565b60095460065461033d91309033906001600160a01b0316614b4a565b6001549261034a84613278565b600155816000526014602052836040600020558360005260156020526040600020826001600160601b0360a01b825416179055604051926306fdde0360e01b8452600084600481865afa92831561094457600494600094610950575b50600090604051958680926395d89b4160e01b82525afa9384156109445760009461091f575b5060065495604051936103de85612c3b565b8452602084019485526020966040516103f78982612c57565b6000815260408601526000606086015260808501523360a085015260c084019283524360e0850152600061010085015260443561012085015260018060a01b031661014084015261016083015260a43561018083015283600052600b855260406000209282518051906001600160401b03821161079b576104828261047c8854612d59565b88612ece565b8790601f83116001146108b4576104b29291600091836107c7575b50508160011b916000199060031b1c19161790565b84555b518051906001600160401b03821161079b576104e1826104d86001880154612d59565b60018801612ece565b8690601f8311600114610843576105109291600091836107c75750508160011b916000199060031b1c19161790565b60018401555b60408201518051906001600160401b03821161079b576105468261053d6002880154612d59565b60028801612ece565b8690601f83116001146107d2576105759291600091836107c75750508160011b916000199060031b1c19161790565b60028401555b606082015160038110156107b1576105969060038501612fce565b6080820151600484015560a08201516005840180546001600160a01b0319166001600160a01b039290921691909117905551805160068401916001600160401b03821161079b57600160401b821161079b578690835483855580841061074d575b500191600052856000208160051c9160005b83811061070e5750601f1981169003806106bf575b5050505060e0810151600783015561010081015160088301556101208101516009830155610140810151600a8301805461016084015163ffffffff60a01b60a09190911b166001600160a01b039093166001600160c01b0319909116179190911790556101800151600b909101556040518181527f0ff47c4a3dc48719ecfd1876116e80d7d76ec7cb67248ae49449f9104747af29908390a1604051908152f35b9260009360005b898282106106e057505050500155610180600b388061061e565b61070484978360ff60019596975116919060ff809160031b9316831b921b19161790565b96019291016106c6565b6000805b8a80821061072857505083820155600101610609565b875191979260019260ff60038b901b81811b19909316911690911b1792019601610712565b610779908560005283600020601f80870160051c8201928188168061077f575b500160051c0190612eb7565b386105f7565b600019850190815490600019908a0360031b1c1690553861076d565b634e487b7160e01b600052604160045260246000fd5b634e487b7160e01b600052602160045260246000fd5b01519050388061049d565b91906002860160005287600020906000935b89601f198516861061082a57506001945083601f19811610610811575b505050811b01600284015561057b565b015160001960f88460031b161c19169055388080610801565b82820151845594850194600190930192909101906107e4565b91906001860160005287600020906000935b89601f198516861061089b57506001945083601f19811610610882575b505050811b016001840155610516565b015160001960f88460031b161c19169055388080610872565b8282015184559485019460019093019290910190610855565b91908660005288600020906000935b8a601f198516861061090657506001945083601f198116106108ed575b505050811b0184556104b5565b015160001960f88460031b161c191690553880806108e0565b82820151845594850194600190930192909101906108c3565b61093d9194503d806000833e6109358183612c57565b810190612fe6565b92386103cc565b6040513d6000823e3d90fd5b6000919450610968903d8084833e6109358183612c57565b93906103a6565b606460405162461bcd60e51b815260206004820152602060248201527f496e697469616c4c50206d7573742062652067726561746572207468616e20306044820152fd5b506020823d6020116109e4575b816109cd60209383612c57565b810103126109df5761030391516102f7565b600080fd5b3d91506109c0565b90506020813d602011610a16575b81610a0760209383612c57565b810103126109df5751386102b3565b3d91506109fa565b60405162461bcd60e51b81526020600482015260116024820152702ab739bab83837b93a32b2103a37b5b2b760791b6044820152606490fd5b60405162461bcd60e51b8152602060048201526014602482015273546f6b656e20616c72656164792065786973747360601b6044820152606490fd5b346109df5760203660031901126109df57610aac612b38565b610ab46133da565b601080546001600160a01b0319166001600160a01b0392909216919091179055005b346109df5760203660031901126109df57600435600d548110156109df57600090600d54811015610b3e57600d9091527fd7b6990105719101dabeb77144f2a3385c8033acd3af97e9423a695e81ad1eb501546040516001600160a01b039091168152602090f35b634e487b7160e01b82526032600452602482fd5b346109df5760003660031901126109df5760206040517f5d8e12c39142ff96d79d04d15d1ba1269e4fe57bb9d26f43523628b34ba108ec8152f35b346109df5760003660031901126109df576020600654604051908152f35b346109df5760203660031901126109df57610bc46133da565b600435600a55005b346109df5760403660031901126109df57610c11600435610beb612b4e565b90610c0c610c0782600052600060205260016040600020015490565b61342d565b6134a9565b005b346109df5760003660031901126109df576020600754604051908152f35b346109df5760203660031901126109df57610c4a612b38565b610c526133da565b600e80546001600160a01b0319166001600160a01b0392909216919091179055005b346109df5760203660031901126109df577fcfa33021ab0175831433b2f3bd8eeb24a22f5ae53ca0e660a246811754f9e34a6020600435610cb36133da565b80600655604051908152a1005b346109df5760203660031901126109df576004356008548110156109df57600090600854811015610b3e5760089091527ff3f7a9fe364faab93b216da50a3214154f22a0a2b415b23a84c8169e8b636ee301546040516001600160a01b039091168152602090f35b346109df57610da9610d3936612bee565b600c54610d4c60ff8260a01c1615612f0a565b60ff60a01b1916600160a01b17600c556000828152600b6020526040902060050154336001600160a01b0391909116148015610db8575b610d8c90612f47565b60405191610da483610d9d81612d93565b0384612c57565b6135c5565b600c805460ff60a01b19169055005b503360009081527f20be27040b8e00df40bca0df34743417f3574a156386188f7d7f14369e5ee82b602052604090205460ff16610d83565b346109df5760003660031901126109df57602060405160008152f35b346109df576101003660031901126109df576004356001600160401b0381116109df57610e3d903690600401612c93565b6024356001600160401b0381116109df57610e5c903690600401612c93565b906044356001600160401b0381116109df57610e7c903690600401612c93565b906064356001600160401b0381116109df57610e9c903690600401612cf1565b92610ea5612b90565b60c43563ffffffff81168091036109df57610ebe614b20565b6009546040516370a0823160e01b81523360048201526001600160a01b0390911690602081602481855afa90811561094457600091611467575b50610f0860065480921015613190565b604051636eb1769f60e11b815233600482015230602482015291602083604481845afa92831561094457600093611431575b50610f4a82610f5f9410156131dc565b610f5689511515613233565b30903390614b4a565b60015494610f6c86613278565b60015560065460405195610f7f87612c3b565b865260208601948552604086019182526060860190600082526080870190815260a0870133815260c08801998a5260e0880191438352610100890193600085526101208a019560843587526101408b019860018060a01b031689526101608b019788526101808b019960e4358b528c600052600b60205260406000209b5180516001600160401b03811161079b57611022818f61101c8154612d59565b90612ece565b60208e6001601f8411146113ca57508190611053936000926107c75750508160011b916000199060031b1c19161790565b8c555b51805160018d01916001600160401b03821161079b576110808261107a8554612d59565b85612ece565b602090601f8311600114611363576110b09291600091836107c75750508160011b916000199060031b1c19161790565b90555b51805160028c01916001600160401b03821161079b576110d78261107a8554612d59565b602090601f83116001146112fc576111079291600091836107c75750508160011b916000199060031b1c19161790565b90555b5160038110156107b1576111219060038b01612fce565b516004890155516005880180546001600160a01b0319166001600160a01b0392909216919091179055975180516006880199916001600160401b03821161079b57600160401b821161079b576020908b54838d558084106112cb575b50019960005260206000208160051c9160005b8381106112835750601f198116900380611230575b835160078b0155845160088b0155855160098b01558751600a8b018054895163ffffffff60a01b60a09190911b166001600160a01b039093166001600160c01b0319909116179190911790558851600b8b01556040518b81526020908c907f0ff47c4a3dc48719ecfd1876116e80d7d76ec7cb67248ae49449f9104747af29908390a1604051908152f35b9a60009b60005b818110611252575050500198909855602097600b8a806111a5565b90919c60206112798f928460ff6001955116919060ff809160031b9316831b921b19161790565b9e01929101611237565b6000805b6020811061129c575083820155600101611190565b9d9060208f6001926112c29160ff865116919060ff809160031b9316831b921b19161790565b92019e01611287565b6112f6908d60005283600020601f80870160051c8201928188168061077f57500160051c0190612eb7565b8c61117d565b90601f1983169184600052816000209260005b81811061134b5750908460019594939210611332575b505050811b01905561110a565b015160001960f88460031b161c191690558f8080611325565b9293602060018192878601518155019501930161130f565b90601f1983169184600052816000209260005b8181106113b25750908460019594939210611399575b505050811b0190556110b3565b015160001960f88460031b161c1916905538808061138c565b92936020600181928786015181550195019301611376565b9192601f19841692600052816000209260005b8181106114195750908460019594939210611400575b505050811b018c55611056565b015160001960f88460031b161c191690553880806113f3565b929360206001819287860151815501950193016113dd565b92506020833d60201161145f575b8161144c60209383612c57565b810103126109df57915191610f4a610f3a565b3d915061143f565b90506020813d602011611491575b8161148260209383612c57565b810103126109df575188610ef8565b3d9150611475565b346109df5760203660031901126109df576114b2612b38565b6114ba6133da565b601180546001600160a01b0319166001600160a01b0392909216919091179055005b346109df5760003660031901126109df576003546040516001600160a01b039091168152602090f35b346109df5760003660031901126109df57600f546040516001600160a01b039091168152602090f35b346109df5760603660031901126109df57611547612b38565b61154f612b4e565b90611558612b64565b906115616133da565b600280546001600160a01b03199081166001600160a01b039384161790915560038054821693831693909317909255600f80549092169216919091179055005b346109df5760403660031901126109df576115ba612b4e565b600435600052600060205260406000209060018060a01b0316600052602052602060ff604060002054166040519015158152f35b346109df5760003660031901126109df576116076133da565b61160f614b20565b600160ff19600080516020614d23833981519152541617600080516020614d23833981519152557f62e78cea01bee320cd4e420270b5ea74000d11b0c9f74754ebdbfc544b05a2586020604051338152a1005b346109df5760203660031901126109df5761167b612b38565b6116836133da565b600c80546001600160a01b0319166001600160a01b0392909216919091179055005b346109df5760203660031901126109df576004356007548110156109df57600090600754811015610b3e5760079091527fa66cc928b5edb82af9bd49922954155ab7b0942694bea4ce44661d9a8736c68801546040516001600160a01b039091168152602090f35b346109df5760803660031901126109df57611726612b7a565b61172e6133da565b6040519060043560208301526024356040830152604435606083015260018060a01b031660808201526080815261176660a082612c57565b80516001600160401b03811161079b57611781601354612d59565b601f8111611848575b50602091601f82116001146117ca576117ba92600091836117bf5750508160011b916000199060031b1c19161790565b601355005b01519050838061049d565b601f1982169260136000527f66de8ffda797e3de9c05e8fc57b3bf0ec28a930d40b0d285d93c06501cf6a0909160005b85811061183057508360019510611817575b505050811b01601355005b015160001960f88460031b161c1916905582808061180c565b919260206001819286850151815501940192016117fa565b6013600052611892907f66de8ffda797e3de9c05e8fc57b3bf0ec28a930d40b0d285d93c06501cf6a090601f840160051c81019160208510611898575b601f0160051c0190612eb7565b8261178a565b9091508190611885565b346109df5760003660031901126109df57602060ff600080516020614d2383398151915254166040519015158152f35b346109df576118e036612bee565b90600c546118f460ff8260a01c1615612f0a565b60ff60a01b1916600160a01b17600c556000818152600b6020526040902060050154336001600160a01b03919091161480156119ab575b61193490612f47565b6000818152601560205260409020546001600160a01b03161561196657610da99160405191610da483610d9d81612d93565b60405162461bcd60e51b815260206004820152601c60248201527f4e6f7420637573746f6d20746f6b656e206170706c69636174696f6e000000006044820152606490fd5b503360009081527f20be27040b8e00df40bca0df34743417f3574a156386188f7d7f14369e5ee82b602052604090205460ff1661192b565b346109df5760003660031901126109df576004546040516001600160a01b039091168152602090f35b346109df5760003660031901126109df576005546040516001600160a01b039091168152602090f35b346109df5760203660031901126109df576020611a58611a53612b38565b613047565b6040519015158152f35b346109df5760003660031901126109df57611a7b6133da565b600080516020614d238339815191525460ff811615611ad45760ff1916600080516020614d23833981519152557f5db9ee0a495bf2e6ff9c91a7834c1ba4fdd244a5e8aa4e537bd38aeae4b073aa6020604051338152a1005b638dfc202b60e01b60005260046000fd5b346109df5760403660031901126109df57611afe612b4e565b336001600160a01b03821603611b1a57610c11906004356134a9565b63334bd91960e11b60005260046000fd5b346109df5760003660031901126109df576002546040516001600160a01b039091168152602090f35b346109df5760403660031901126109df57610c11600435611b73612b4e565b90611b8f610c0782600052600060205260016040600020015490565b61334f565b346109df5760203660031901126109df57600435600c54611bbb60ff8260a01c1615612f0a565b60ff60a01b1916600160a01b17600c556000818152600b60205260409020600581018054909190336001600160a01b0391909116148015611d7a575b611c0090612f47565b6003810160ff81541660038110156107b157611c1c9015612f82565b6007820154431115611d355760049190910180546000909155815460ff19166002179091556009548254611c5d92916001600160a01b039182169116613468565b6000828152601560205260409020546001600160a01b03169081611c8a57600c805460ff60a01b19169055005b546040516370a0823160e01b8152306004820152906001600160a01b0316602082602481865afa90811561094457600091611cff575b611ccb925083613468565b600052601460205260006040812055600052601560205260406000206001600160601b0360a01b8154169055808080610da9565b90506020823d602011611d2d575b81611d1a60209383612c57565b810103126109df57611ccb915190611cc0565b3d9150611d0d565b60405162461bcd60e51b815260206004820152601e60248201527f4170706c69636174696f6e206973206e6f74206d6174757265642079657400006044820152606490fd5b503360009081527f20be27040b8e00df40bca0df34743417f3574a156386188f7d7f14369e5ee82b602052604090205460ff16611bf7565b346109df5760e03660031901126109df5760c4356001600160a01b038116908190036109df57611de06133da565b60405190600435602083015260243560408301526044356060830152606435608083015260843560a083015260a43560c083015260e082015260e08152611e2961010082612c57565b80516001600160401b03811161079b57611e44601254612d59565b601f8111611f00575b50602091601f8211600114611e8257611e7d92600091836117bf5750508160011b916000199060031b1c19161790565b601255005b601f1982169260126000527fbb8a6a4669ba250d26cd7a459eca9d215f8307e33aebe50379bc5a3617ec34449160005b858110611ee857508360019510611ecf575b505050811b01601255005b015160001960f88460031b161c19169055828080611ec4565b91926020600181928685015181550194019201611eb2565b6012600052611f49907fbb8a6a4669ba250d26cd7a459eca9d215f8307e33aebe50379bc5a3617ec3444601f840160051c8101916020851061189857601f0160051c0190612eb7565b82611e4d565b346109df5760203660031901126109df57611f68612b38565b611f706133da565b600980546001600160a01b0319166001600160a01b0392909216919091179055005b346109df5760203660031901126109df576020611fbf600435600052600060205260016040600020015490565b604051908152f35b346109df5760203660031901126109df576000610180604051611fe981612c3b565b6060815260606020820152606060408201528260608201528260808201528260a0820152606060c08201528260e0820152826101008201528261012082015282610140820152826101608201520152600435600052600b602052604060002060405161205481612c3b565b60405161206c816120658186612e34565b0382612c57565b81526040519161208383610d9d8160018501612e34565b60208201928352604051926120a68461209f8160028601612e34565b0385612c57565b6040830193845260ff60038301541691606084019260038110156107b157835260048101546080850190815260058201546001600160a01b031660a0860190815260405160068401805480835260009182526020808320849391840192905b81601f84011061264f57549181811061263b575b818110612624575b81811061260d575b8181106125f6575b8181106125e0575b8181106125c9575b8181106125b2575b81811061259b575b818110612584575b81811061256d575b818110612556575b81811061253f575b818110612528575b818110612511575b8181106124fa575b8181106124e3575b8181106124cc575b8181106124b5575b81811061249e575b818110612487575b818110612470575b818110612459575b818110612442575b81811061242b575b818110612414575b8181106123fd575b8181106123e6575b8181106123cf575b8181106123b8575b8181106123a1575b81811061238a575b1061237c575b500361221b9082612c57565b60c0870190815260078401549060e0880191825260088501549261010089019384526009860154946101208a01958652600a8701549a6101408b0197600160a01b600190038d1689526101608c019c60a01c63ffffffff168d52600b0154986101808c01998a526040519b60208d525160208d016101a090526101c08d016122a291612bc9565b90518c8203601f190160408e01526122ba9190612bc9565b90518b8203601f190160608d01526122d29190612bc9565b985160038110156107b15760808b01525160a08a0152516001600160a01b031660c089015251878703601f190160e089015280518088526020978801979091019060005b8181106123635750509051610100880152505161012086015251610140850152516001600160a01b0316610160840152925163ffffffff1661018083015291516101a08201529081900390f35b825160ff16895260209889019890920191600101612316565b60f81c81526020018a61220f565b92602060019160ff8560f01c168152019301612209565b92602060019160ff8560e81c168152019301612201565b92602060019160ff8560e01c1681520193016121f9565b92602060019160ff8560d81c1681520193016121f1565b92602060019160ff8560d01c1681520193016121e9565b92602060019160ff8560c81c1681520193016121e1565b92602060019160ff8560c01c1681520193016121d9565b92602060019160ff8560b81c1681520193016121d1565b92602060019160ff8560b01c1681520193016121c9565b92602060019160ff8560a81c1681520193016121c1565b92602060019160ff8560a01c1681520193016121b9565b92602060019160ff8560981c1681520193016121b1565b92602060019160ff8560901c1681520193016121a9565b92602060019160ff8560881c1681520193016121a1565b92602060019160ff8560801c168152019301612199565b92602060019160ff8560781c168152019301612191565b92602060019160ff8560701c168152019301612189565b92602060019160ff8560681c168152019301612181565b92602060019160ff8560601c168152019301612179565b92602060019160ff8560581c168152019301612171565b92602060019160ff8560501c168152019301612169565b92602060019160ff8560481c168152019301612161565b92602060019160ff8560401c168152019301612159565b92602060019160ff8560381c168152019301612151565b92602060019160ff8560301c168152019301612149565b92602060019160ff8560281c168152019301612141565b92602060019160ff85831c168152019301612139565b92602060019160ff8560181c168152019301612131565b92602060019160ff8560101c168152019301612129565b92602060019160ff8560081c168152019301612121565b92602060019160ff85168152019301612119565b935090916001610400602092865460ff8116825260ff8160081c168583015260ff8160101c16604083015260ff8160181c16606083015260ff81861c16608083015260ff8160281c1660a083015260ff8160301c1660c083015260ff8160381c1660e083015260ff8160401c1661010083015260ff8160481c1661012083015260ff8160501c1661014083015260ff8160581c1661016083015260ff8160601c1661018083015260ff8160681c166101a083015260ff8160701c166101c083015260ff8160781c166101e083015260ff8160801c1661020083015260ff8160881c1661022083015260ff8160901c1661024083015260ff8160981c1661026083015260ff8160a01c1661028083015260ff8160a81c166102a083015260ff8160b01c166102c083015260ff8160b81c166102e083015260ff8160c01c1661030083015260ff8160c81c1661032083015260ff8160d01c1661034083015260ff8160d81c1661036083015260ff8160e01c1661038083015260ff8160e81c166103a083015260ff8160f01c166103c083015260f81c6103e0820152019401920190849392612105565b346109df5760003660031901126109df576009546040516001600160a01b039091168152602090f35b346109df576101203660031901126109df5761283a612b38565b612842612b4e565b61284a612b64565b612852612b7a565b6084356001600160a01b038116908190036109df5761286f612b90565b9260e4359460018060a01b0386168096036109df57600080516020614d43833981519152549660ff8860401c1615976001600160401b03811680159081612a96575b6001149081612a8c575b159081612a83575b50612a725767ffffffffffffffff198116600117600080516020614d438339815191525588612a45575b506128f6614b8e565b6128fe614b8e565b60ff19600080516020614d238339815191525416600080516020614d238339815191525560018060a01b03166001600160601b0360a01b600254161760025560018060a01b03166001600160601b0360a01b600f541617600f5560018060a01b03166001600160601b0360a01b60035416176003556001600160601b0360a01b600954161760095560018060a01b03166001600160601b0360a01b600554161760055560018060a01b03166001600160601b0360a01b600454161760045560c435600655610104356001556129d23361329d565b506001600160601b0360a01b600c541617600c556129ec57005b68ff000000000000000019600080516020614d438339815191525416600080516020614d43833981519152557fc7f505b2f371ae2175ee4913f4499e1f2633a7b5936321eed1cdaeb6115181d2602060405160018152a1005b68ffffffffffffffffff19166801000000000000000117600080516020614d4383398151915255886128ed565b63f92ee8a960e01b60005260046000fd5b9050158a6128c3565b303b1591506128bb565b8a91506128b1565b346109df5760003660031901126109df576011546040516001600160a01b039091168152602090f35b346109df5760003660031901126109df576020600a54604051908152f35b346109df5760203660031901126109df576004359063ffffffff60e01b82168092036109df57602091637965db0b60e01b8114908115612b27575b5015158152f35b6301ffc9a760e01b14905083612b20565b600435906001600160a01b03821682036109df57565b602435906001600160a01b03821682036109df57565b604435906001600160a01b03821682036109df57565b606435906001600160a01b03821682036109df57565b60a435906001600160a01b03821682036109df57565b60005b838110612bb95750506000910152565b8181015183820152602001612ba9565b90602091612be281518092818552858086019101612ba6565b601f01601f1916010190565b60409060031901126109df576004359060243580151581036109df5790565b8054821015612c255760005260206000200190600090565b634e487b7160e01b600052603260045260246000fd5b6101a081019081106001600160401b0382111761079b57604052565b90601f801991011681019081106001600160401b0382111761079b57604052565b6001600160401b03811161079b57601f01601f191660200190565b81601f820112156109df57803590612caa82612c78565b92612cb86040519485612c57565b828452602083830101116109df57816000926020809301838601378301015290565b6001600160401b03811161079b5760051b60200190565b9080601f830112156109df57813590612d0982612cda565b92612d176040519485612c57565b82845260208085019360051b8201019182116109df57602001915b818310612d3f5750505090565b823560ff811681036109df57815260209283019201612d32565b90600182811c92168015612d89575b6020831014612d7357565b634e487b7160e01b600052602260045260246000fd5b91607f1691612d68565b60125460009291612da382612d59565b8082529160018116908115612e185750600114612dbe575050565b601260009081529293509091907fbb8a6a4669ba250d26cd7a459eca9d215f8307e33aebe50379bc5a3617ec34445b838310612dfe575060209250010190565b600181602092949394548385870101520191019190612ded565b9050602093945060ff929192191683830152151560051b010190565b60009291815491612e4483612d59565b8083529260018116908115612e9a5750600114612e6057505050565b60009081526020812093945091925b838310612e80575060209250010190565b600181602092949394548385870101520191019190612e6f565b915050602093945060ff929192191683830152151560051b010190565b818110612ec2575050565b60008155600101612eb7565b9190601f8111612edd57505050565b612f08926000526020600020906020601f840160051c8301931061189857601f0160051c0190612eb7565b565b15612f1157565b60405162461bcd60e51b815260206004820152600e60248201526d31b0b73737ba103932b2b73a32b960911b6044820152606490fd5b15612f4e57565b60405162461bcd60e51b815260206004820152600c60248201526b2737ba10383937b837b9b2b960a11b6044820152606490fd5b15612f8957565b60405162461bcd60e51b815260206004820152601960248201527f4170706c69636174696f6e206973206e6f7420616374697665000000000000006044820152606490fd5b9060038110156107b15760ff80198354169116179055565b6020818303126109df578051906001600160401b0382116109df570181601f820112156109df57805161301881612c78565b926130266040519485612c57565b818452602082840101116109df576130449160208085019101612ba6565b90565b6040516306fdde0360e01b81526001600160a01b039190911690600081600481855afa9081613177575b5061307c5750600090565b6040516395d89b4160e01b8152600081600481855afa908161315e575b506130a45750600090565b6040516318160ddd60e01b8152602081600481855afa908161312f575b506130cc5750600090565b6020602491604051928380926370a0823160e01b82523060048301525afa9081613100575b506130fb57600090565b600190565b6020813d602011613127575b8161311960209383612c57565b810103126109df57516130f1565b3d915061310c565b6020813d602011613156575b8161314860209383612c57565b810103126109df57516130c1565b3d915061313b565b613172903d806000833e6109358183612c57565b613099565b61318b903d806000833e6109358183612c57565b613071565b1561319757565b60405162461bcd60e51b815260206004820152601860248201527f496e73756666696369656e7420617373657420746f6b656e00000000000000006044820152606490fd5b156131e357565b60405162461bcd60e51b815260206004820152602260248201527f496e73756666696369656e7420617373657420746f6b656e20616c6c6f77616e604482015261636560f01b6064820152608490fd5b1561323a57565b60405162461bcd60e51b815260206004820152601660248201527510dbdc995cc81b5d5cdd081899481c1c9bdd9a59195960521b6044820152606490fd5b60001981146132875760010190565b634e487b7160e01b600052601160045260246000fd5b6001600160a01b03811660009081527fad3228b676f7d3cd4284a5443f17f1962b36e491b30a40b2405849e597ba5fb5602052604090205460ff16613349576001600160a01b031660008181527fad3228b676f7d3cd4284a5443f17f1962b36e491b30a40b2405849e597ba5fb560205260408120805460ff191660011790553391907f2f8788117e7eff1d82e926ec794901d17c78024a50270940304540a733656f0d8180a4600190565b50600090565b6000818152602081815260408083206001600160a01b038616845290915290205460ff166133d3576000818152602081815260408083206001600160a01b0395909516808452949091528120805460ff19166001179055339291907f2f8788117e7eff1d82e926ec794901d17c78024a50270940304540a733656f0d9080a4600190565b5050600090565b3360009081527fad3228b676f7d3cd4284a5443f17f1962b36e491b30a40b2405849e597ba5fb5602052604090205460ff161561341357565b63e2517d3f60e01b60005233600452600060245260446000fd5b60008181526020818152604080832033845290915290205460ff16156134505750565b63e2517d3f60e01b6000523360045260245260446000fd5b60405163a9059cbb60e01b60208201526001600160a01b03929092166024830152604480830193909352918152612f08916134a4606483612c57565b614bbc565b6000818152602081815260408083206001600160a01b038616845290915290205460ff16156133d3576000818152602081815260408083206001600160a01b0395909516808452949091528120805460ff19169055339291907ff6391f5c32d9c69d2a47ea670b442974b53935d1edc7fd64eb21e047a839171b9080a4600190565b51906001600160a01b03821682036109df57565b6000929181549161354f83612d59565b926001811690811561359a575060011461356857505050565b909192935060005260206000206000905b8382106135865750500190565b600181602092548486015201910190613579565b60ff191683525050811515909102019150565b908160209103126109df575180151581036109df5790565b9190600092808452600b60205260ff6003604086200154166003811015614b0c576135f09015612f82565b6010546001600160a01b031615614ad157808452600b60205260408420936004850191818354935560038601600160ff198254161790558152601560205260018060a01b03604082205416801560001461464957506040519061365e826136578189612e34565b0383612c57565b604051613672816120658160018b01612e34565b600254613687906001600160a01b0316614c5a565b9560018060a01b0387169360405192606084018481106001600160401b03821117614635579161371161371f926136ff9460405260018060a01b0360105416875260018060a01b03600e5416602088015260018060a01b03600954166040880152604051948593604060208601526060850190612bc9565b838103601f1901604085015290612bc9565b03601f198101835282612c57565b843b15613ea857604051634258efa960e11b81529284928492909184600485015b6003821061460f57505050906137646137769260c0606486015260c4850190612bc9565b83810360031901608485015290612bc9565b8181036003190160a4830152601354839161379082612d59565b91828252846001821691826000146145f1575050600114614593575b50508190038183875af18015613e9d57614583575b5090600d54600160401b811015614460578060016137e49201600d55600d612c0d565b81546001600160a01b0360039290921b91821b19169083901b17905560405163d6efd7c360e01b81528593908381600481865afa908115613fa35784916144e3575b508051156144cf57602001516009546001600160a01b039182169761384e9392909116613468565b803b15613f2d57818091602460405180948193631672aef960e21b83523060048401525af18015613e9d579082916144ba575b50505b6040519166029ba30b5b2b2160cd1b60208401526138b7836138a9602782018961353f565b03601f198101855284612c57565b604051607360f81b60208201526138d8816137116021820160018b0161353f565b600587018054600f549195916001600160a01b0391821691906138fc908216614c5a565b1696600a544201988942116144a6576004546001600160a01b031690893b156144a2579161394e9391889593613960604051988997889763b2193b4d60e01b895260e060048a015260e4890190612bc9565b87810360031901602489015290612bc9565b93604486015260018060a01b03169b8c6064860152608485015260a4840152151560c4830152038183895af18015613ee05790839161448d575b5050600754600160401b811015614460578060016139bd92016007556007612c0d565b81546001600160a01b0360039290921b91821b19169086901b17905560405191613a096004846139f0602082018b61353f565b632044414f60e01b815203601b19810186520184612c57565b600a87019363ffffffff855460a01c1693600b8901549060018060a01b03613a3a60018060a01b0360035416614c5a565b169560018060a01b036004541690873b156144895791613a799186936040519586948594631c63df3560e21b865260a0600487015260a4860190612bc9565b928d6024860152604485015260648401526084830152038183895af18015613ee057908391614474575b5050600854600160401b81101561446057806001613ac692016008556008612c0d565b81546001600160a01b0360039290921b82811b199091169087901b1790915560048054604051632fd77c0d60e11b81529a921691906020908b9081855afa998a15613fa357849a61442c575b50600c548354604051631f889aa560e11b8152600481018d90526001600160a01b0392831660248201526101006044820152600684019790949290918c9116613b62610104870160028701612e34565b908a606488015260848701526003198682030160a4870152602089549182815201988852602088209088915b81601f840110614284575491818110614270575b818110614259575b818110614242575b81811061422b575b818110614215575b8181106141fe575b8181106141e7575b8181106141d0575b8181106141b9575b8181106141a2575b81811061418b575b818110614174575b81811061415d575b818110614146575b81811061412f575b818110614118575b818110614101575b8181106140ea575b8181106140d3575b8181106140bc575b8181106140a5575b81811061408e575b818110614077575b818110614060575b818110614049575b818110614032575b81811061401b575b818110614004575b818110613fed575b818110613fd6575b818110613fbf575b10613fae575b5060c48501526001600160a01b031660e4840181905295602091849182900390829088905af18015613fa357613f71575b600881018a9055600554965460099091015460048054604051638a54c52f60e01b81526001600160a01b039485169281019290925260248201929092524660448201529082166064820152608481018b90529660209250879160a49183918791165af1948515613e9d578295613f35575b506004546001600160a01b031694853b15613f315760405163190b373360e31b8152600481018a90526001600160a01b03909116602482018190529583908290604490829084905af18015613ee057908391613f18575b505060405163095ea7b360e01b8152600481018790526000196024820152602081604481868c5af18015613ee057613eeb575b506040516370a0823160e01b8152306004820152906020826024818b5afa918215613ee0578392613eac575b50546011546001600160a01b039081169116873b15613ea8576040519263a7d545db60e01b84526004840152602483015260448201528181606481838a5af18015613e9d57613e85575b50506040805196875260208701919091528501526060840152608083015260a08201527ff9d151d23a5253296eb20ab40959cf48828ea2732d337416716e302ed83ca6589060c090a1565b613e90828092612c57565b613e9a5780613e3a565b80fd5b6040513d84823e3d90fd5b8380fd5b9091506020813d602011613ed8575b81613ec860209383612c57565b810103126109df57519038613df0565b3d9150613ebb565b6040513d85823e3d90fd5b613f0c9060203d602011613f11575b613f048183612c57565b8101906135ad565b613dc4565b503d613efa565b81613f2291612c57565b613f2d578138613d91565b5080fd5b8280fd5b9094506020813d602011613f69575b81613f5160209383612c57565b81010312613f2d57613f629061352b565b9338613d3a565b3d9150613f44565b6020823d602011613f9b575b81613f8a60209383612c57565b810103126109df5760209150613cc9565b3d9150613f7d565b6040513d86823e3d90fd5b60f81c885260209097019684613c98565b99602060019160ff8560f01c168152019a01613c92565b99602060019160ff8560e81c168152019a01613c8a565b99602060019160ff8560e01c168152019a01613c82565b99602060019160ff8560d81c168152019a01613c7a565b99602060019160ff8560d01c168152019a01613c72565b99602060019160ff8560c81c168152019a01613c6a565b99602060019160ff8560c01c168152019a01613c62565b99602060019160ff8560b81c168152019a01613c5a565b99602060019160ff8560b01c168152019a01613c52565b99602060019160ff8560a81c168152019a01613c4a565b99602060019160ff8560a01c168152019a01613c42565b99602060019160ff8560981c168152019a01613c3a565b99602060019160ff8560901c168152019a01613c32565b99602060019160ff8560881c168152019a01613c2a565b99602060019160ff8560801c168152019a01613c22565b99602060019160ff8560781c168152019a01613c1a565b99602060019160ff8560701c168152019a01613c12565b99602060019160ff8560681c168152019a01613c0a565b99602060019160ff8560601c168152019a01613c02565b99602060019160ff8560581c168152019a01613bfa565b99602060019160ff8560501c168152019a01613bf2565b99602060019160ff8560481c168152019a01613bea565b99602060019160ff8560401c168152019a01613be2565b99602060019160ff8560381c168152019a01613bda565b99602060019160ff8560301c168152019a01613bd2565b99602060019160ff8560281c168152019a01613bca565b99602060019160ff85831c168152019a01613bc2565b99602060019160ff8560181c168152019a01613bba565b99602060019160ff8560101c168152019a01613bb2565b99602060019160ff8560081c168152019a01613baa565b99602060019160ff85168152019a01613ba2565b996020919293506104006001918c5460ff8116825260ff8160081c168583015260ff8160101c16604083015260ff8160181c16606083015260ff81861c16608083015260ff8160281c1660a083015260ff8160301c1660c083015260ff8160381c1660e083015260ff8160401c1661010083015260ff8160481c1661012083015260ff8160501c1661014083015260ff8160581c1661016083015260ff8160601c1661018083015260ff8160681c166101a083015260ff8160701c166101c083015260ff8160781c166101e083015260ff8160801c1661020083015260ff8160881c1661022083015260ff8160901c1661024083015260ff8160981c1661026083015260ff8160a01c1661028083015260ff8160a81c166102a083015260ff8160b01c166102c083015260ff8160b81c166102e083015260ff8160c01c1661030083015260ff8160c81c1661032083015260ff8160d01c1661034083015260ff8160d81c1661036083015260ff8160e01c1661038083015260ff8160e81c166103a083015260ff8160f01c166103c083015260f81c6103e0820152019a019201908d92613b8e565b9099506020813d602011614458575b8161444860209383612c57565b810103126109df57519838613b12565b3d915061443b565b634e487b7160e01b83526041600452602483fd5b8161447e91612c57565b613f2d578138613aa3565b8580fd5b8161449791612c57565b613f2d57813861399a565b8780fd5b634e487b7160e01b87526011600452602487fd5b816144c491612c57565b613e9a578038613881565b634e487b7160e01b84526032600452602484fd5b90503d8085833e6144f48183612c57565b81019060208183031261457f578051906001600160401b03821161448957019080601f8301121561457f57815161452a81612cda565b926145386040519485612c57565b81845260208085019260051b82010192831161457b57602001905b8282106145635750505038613826565b602080916145708461352b565b815201910190614553565b8680fd5b8480fd5b8161458d91612c57565b386137c1565b60138552849250907f66de8ffda797e3de9c05e8fc57b3bf0ec28a930d40b0d285d93c06501cf6a0905b8184106145d15750500160200181386137ac565b6001919550602092945080548385870101520191019091859385936145bd565b909450602093915060ff191683830152151560051b010190386137ac565b82516001600160a01b031681528896508795506020928301926001929092019101613740565b634e487b7160e01b86526041600452602486fd5b600e5460405163c45a015560e01b8152939550909290602090829060049082906001600160a01b03165afa908115613e9d578291614a97575b5060095460405163e6a4390560e01b81526001600160a01b038581166004830152918216602482018190529290911690602081604481855afa908115613fa3578491614a5d575b506001600160a01b0316614a22576040516364e329cb60e11b81526001600160a01b0385811660048301529290921660248301526020908290604490829086905af1908115613e9d5782916149e8575b509360018060a01b03600e541660405183806020830163095ea7b360e01b8152846024850152600019604485015260448452614756606485612c57565b83519082895af1614765614c2a565b816149b9575b50806149af575b1561496a575b5050600954600e5460405163095ea7b360e01b602082019081526001600160a01b03928316602483018190526044808401879052835293919290911690859081906147c4606486612c57565b84519082855af16147d3614c2a565b8161493b575b5080614931575b156148f1575b5050600e546009546040516370a0823160e01b81523060048201526001600160a01b0392831693509116602082602481895afa9182156148e657859081936148ae575b509061010491606094604051968795869462e8e33760e81b86528b60048701526024860152604485015260648401528160848401528160a48401523060c48401524260e48401525af18015613e9d57614883575b50613884565b606090813d83116148a7575b6148998183612c57565b81010312613e9a573861487d565b503d61488f565b919250506020813d6020116148de575b816148cb60209383612c57565b8101031261457f57519084610104614829565b3d91506148be565b6040513d87823e3d90fd5b6134a4614929936040519063095ea7b360e01b6020830152602482015286604482015260448152614923606482612c57565b82614bbc565b3880806147e6565b50803b15156147e0565b8051801592508215614950575b5050386147d9565b61496392506020809183010191016135ad565b3880614948565b6149a26149a8926040519063095ea7b360e01b602083015260248201528560448201526044815261499c606482612c57565b86614bbc565b84614bbc565b3880614778565b50843b1515614772565b80518015925082156149ce575b50503861476b565b6149e192506020809183010191016135ad565b38806149c6565b90506020813d602011614a1a575b81614a0360209383612c57565b81010312613f2d57614a149061352b565b38614719565b3d91506149f6565b60405162461bcd60e51b8152602060048201526013602482015272706f6f6c20616c72656164792065786973747360681b6044820152606490fd5b90506020813d602011614a8f575b81614a7860209383612c57565b81010312613ea857614a899061352b565b386146c9565b3d9150614a6b565b90506020813d602011614ac9575b81614ab260209383612c57565b81010312613f2d57614ac39061352b565b38614682565b3d9150614aa5565b60405162461bcd60e51b8152602060048201526013602482015272151bdad95b8818591b5a5b881b9bdd081cd95d606a1b6044820152606490fd5b634e487b7160e01b85526021600452602485fd5b60ff600080516020614d238339815191525416614b3957565b63d93c066560e01b60005260046000fd5b6040516323b872dd60e01b60208201526001600160a01b039283166024820152929091166044830152606480830193909352918152612f08916134a4608483612c57565b60ff600080516020614d438339815191525460401c1615614bab57565b631afcd79f60e31b60005260046000fd5b600080614be59260018060a01b03169360208151910182865af1614bde614c2a565b9083614cc1565b8051908115159182614c0f575b5050614bfb5750565b635274afe760e01b60005260045260246000fd5b614c2292506020809183010191016135ad565b153880614bf2565b3d15614c55573d90614c3b82612c78565b91614c496040519384612c57565b82523d6000602084013e565b606090565b6e5af43d82803e903d91602b57fd5bf390763d602d80600a3d3981f3363d3d373d3d3d363d7300000062ffffff8260881c161760005260781b17602052603760096000f0906001600160a01b03821615614cb057565b6330be1a3d60e21b60005260046000fd5b90614ce75750805115614cd657805190602001fd5b630a12f52160e11b60005260046000fd5b81511580614d19575b614cf8575090565b639996b31560e01b60009081526001600160a01b0391909116600452602490fd5b50803b15614cf056fecd5ed15c6e187e77e9aee88184c21f4f2182ab5827cb3b7e07fbedcd63f03300f0c57e16840df040f15088dc2f81fe391c3923bec73e23a9662efc9c229c6a00a264697066735822122012063f6402fa235b710564c9e037d8540c38f55dd5c15be9b91f8a675b77cc0364736f6c634300081a0033","linkReferences":{}},"methodIdentifiers":{"DEFAULT_ADMIN_ROLE()":"a217fddf","WITHDRAW_ROLE()":"e02023a1","allDAOs(uint256)":"b4136bd8","allTokens(uint256)":"634282af","allTradingTokens(uint256)":"e887b1cc","applicationThreshold()":"ddf44275","assetToken()":"1083f761","daoImplementation()":"9d699326","defaultDelegatee()":"0c4cb55c","executeApplication(uint256,bool)":"aa3d000a","executeTokenApplication(uint256,bool)":"4c88672a","getApplication(uint256)":"1f2f4bfd","getRoleAdmin(bytes32)":"248a9ca3","grantRole(bytes32,address)":"2f2ff15d","hasRole(bytes32,address)":"91d14854","initFromToken(address,uint8[],bytes32,address,uint32,uint256,uint256)":"fc98f079","initialize(address,address,address,address,address,address,uint256,address,uint256)":"0f07646a","isCompatibleToken(address)":"449664c0","maturityDuration()":"063513b7","nft()":"47ccca02","pause()":"8456cb59","paused()":"5c975abb","proposeAgent(string,string,string,uint8[],bytes32,address,uint32,uint256)":"9e4ec30a","renounceRole(bytes32,address)":"36568abe","revokeRole(bytes32,address)":"d547741f","setApplicationThreshold(uint256)":"bd1cf258","setAssetToken(address)":"26bde5aa","setDefaultDelegatee(address)":"9d7b6842","setImplementations(address,address,address)":"9300d238","setMaturityDuration(uint256)":"d739ac29","setTokenAdmin(address)":"f7457594","setTokenSupplyParams(uint256,uint256,uint256,uint256,uint256,uint256,address)":"2a7d4a1f","setTokenTaxParams(uint256,uint256,uint256,address)":"5ca3cedf","setUniswapRouter(address)":"bea9849e","setVault(address)":"6817031b","supportsInterface(bytes4)":"01ffc9a7","tbaRegistry()":"468d198d","tokenImplementation()":"2f3a3d5d","totalAgents()":"c5053712","unpause()":"3f4ba83a","veTokenImplementation()":"9cbe0bac","withdraw(uint256)":"2e1a7d4d"},"id":60}