{"abi":[{"type":"constructor","inputs":[],"stateMutability":"nonpayable"},{"type":"function","name":"ADMIN_ROLE","inputs":[],"outputs":[{"name":"","type":"bytes32","internalType":"bytes32"}],"stateMutability":"view"},{"type":"function","name":"DEFAULT_ADMIN_ROLE","inputs":[],"outputs":[{"name":"","type":"bytes32","internalType":"bytes32"}],"stateMutability":"view"},{"type":"function","name":"EXECUTOR_ROLE","inputs":[],"outputs":[{"name":"","type":"bytes32","internalType":"bytes32"}],"stateMutability":"view"},{"type":"function","name":"assetToken","inputs":[],"outputs":[{"name":"","type":"address","internalType":"contract IERC20"}],"stateMutability":"view"},{"type":"function","name":"bonusRate","inputs":[],"outputs":[{"name":"","type":"uint16","internalType":"uint16"}],"stateMutability":"view"},{"type":"function","name":"distributeBonus","inputs":[{"name":"agentId","type":"uint256","internalType":"uint256"},{"name":"recipient","type":"address","internalType":"address"},{"name":"amount","type":"uint256","internalType":"uint256"}],"outputs":[],"stateMutability":"nonpayable"},{"type":"function","name":"getRoleAdmin","inputs":[{"name":"role","type":"bytes32","internalType":"bytes32"}],"outputs":[{"name":"","type":"bytes32","internalType":"bytes32"}],"stateMutability":"view"},{"type":"function","name":"grantRole","inputs":[{"name":"role","type":"bytes32","internalType":"bytes32"},{"name":"account","type":"address","internalType":"address"}],"outputs":[],"stateMutability":"nonpayable"},{"type":"function","name":"hasRole","inputs":[{"name":"role","type":"bytes32","internalType":"bytes32"},{"name":"account","type":"address","internalType":"address"}],"outputs":[{"name":"","type":"bool","internalType":"bool"}],"stateMutability":"view"},{"type":"function","name":"initialize","inputs":[{"name":"defaultAdmin_","type":"address","internalType":"address"},{"name":"assetToken_","type":"address","internalType":"address"}],"outputs":[],"stateMutability":"nonpayable"},{"type":"function","name":"renounceRole","inputs":[{"name":"role","type":"bytes32","internalType":"bytes32"},{"name":"callerConfirmation","type":"address","internalType":"address"}],"outputs":[],"stateMutability":"nonpayable"},{"type":"function","name":"revokeRole","inputs":[{"name":"role","type":"bytes32","internalType":"bytes32"},{"name":"account","type":"address","internalType":"address"}],"outputs":[],"stateMutability":"nonpayable"},{"type":"function","name":"setAllowances","inputs":[{"name":"agentIds","type":"uint256[]","internalType":"uint256[]"},{"name":"allowances","type":"uint256[]","internalType":"uint256[]"}],"outputs":[],"stateMutability":"nonpayable"},{"type":"function","name":"supportsInterface","inputs":[{"name":"interfaceId","type":"bytes4","internalType":"bytes4"}],"outputs":[{"name":"","type":"bool","internalType":"bool"}],"stateMutability":"view"},{"type":"function","name":"updateBonusRate","inputs":[{"name":"bonusRate_","type":"uint16","internalType":"uint16"}],"outputs":[],"stateMutability":"nonpayable"},{"type":"event","name":"AllowanceUpdated","inputs":[{"name":"agentId","type":"uint256","indexed":false,"internalType":"uint256"},{"name":"newAllowance","type":"uint256","indexed":false,"internalType":"uint256"}],"anonymous":false},{"type":"event","name":"BonusRateUpdated","inputs":[{"name":"oldBonusRate","type":"uint16","indexed":false,"internalType":"uint16"},{"name":"newBonusRate","type":"uint16","indexed":false,"internalType":"uint16"}],"anonymous":false},{"type":"event","name":"Initialized","inputs":[{"name":"version","type":"uint64","indexed":false,"internalType":"uint64"}],"anonymous":false},{"type":"event","name":"PaidAgent","inputs":[{"name":"agentId","type":"uint256","indexed":false,"internalType":"uint256"},{"name":"amount","type":"uint256","indexed":false,"internalType":"uint256"}],"anonymous":false},{"type":"event","name":"RoleAdminChanged","inputs":[{"name":"role","type":"bytes32","indexed":true,"internalType":"bytes32"},{"name":"previousAdminRole","type":"bytes32","indexed":true,"internalType":"bytes32"},{"name":"newAdminRole","type":"bytes32","indexed":true,"internalType":"bytes32"}],"anonymous":false},{"type":"event","name":"RoleGranted","inputs":[{"name":"role","type":"bytes32","indexed":true,"internalType":"bytes32"},{"name":"account","type":"address","indexed":true,"internalType":"address"},{"name":"sender","type":"address","indexed":true,"internalType":"address"}],"anonymous":false},{"type":"event","name":"RoleRevoked","inputs":[{"name":"role","type":"bytes32","indexed":true,"internalType":"bytes32"},{"name":"account","type":"address","indexed":true,"internalType":"address"},{"name":"sender","type":"address","indexed":true,"internalType":"address"}],"anonymous":false},{"type":"error","name":"AccessControlBadConfirmation","inputs":[]},{"type":"error","name":"AccessControlUnauthorizedAccount","inputs":[{"name":"account","type":"address","internalType":"address"},{"name":"neededRole","type":"bytes32","internalType":"bytes32"}]},{"type":"error","name":"AddressEmptyCode","inputs":[{"name":"target","type":"address","internalType":"address"}]},{"type":"error","name":"AddressInsufficientBalance","inputs":[{"name":"account","type":"address","internalType":"address"}]},{"type":"error","name":"FailedInnerCall","inputs":[]},{"type":"error","name":"InvalidInitialization","inputs":[]},{"type":"error","name":"NotInitializing","inputs":[]},{"type":"error","name":"SafeERC20FailedOperation","inputs":[{"name":"token","type":"address","internalType":"address"}]}],"bytecode":{"object":"0x6080806040523460d2577ff0c57e16840df040f15088dc2f81fe391c3923bec73e23a9662efc9c229c6a005460ff8160401c1660c1576002600160401b03196001600160401b03821601605c575b604051610f4a90816100d88239f35b6001600160401b0319166001600160401b039081177ff0c57e16840df040f15088dc2f81fe391c3923bec73e23a9662efc9c229c6a005581527fc7f505b2f371ae2175ee4913f4499e1f2633a7b5936321eed1cdaeb6115181d290602090a13880604d565b63f92ee8a960e01b60005260046000fd5b600080fdfe608080604052600436101561001357600080fd5b60003560e01c90816301ffc9a7146106935750806307bd0265146106585780631083f7611461062b578063248a9ca3146106055780632f2ff15d146105d457806336568abe1461058e57806339bc978314610566578063485cc955146103ab5780635af123f41461038957806375b238fc1461034e57806391d14854146102f4578063a217fddf146102d8578063ccded2861461016a578063d269f0b7146101015763d547741f146100c457600080fd5b346100fc5760403660031901126100fc576100fa6004356100e36106e6565b906100f56100f08261079c565b610b60565b610dd3565b005b600080fd5b346100fc5760203660031901126100fc5760043561ffff81168091036100fc5760407f17ecb9fa6da5ae667729ab9753915755c1562870b3319551fa655d4f68adb4d89161014d610aee565b61ffff6000548282198216176000558351928352166020820152a1005b346100fc5760403660031901126100fc5760043567ffffffffffffffff81116100fc5761019b903690600401610734565b60243567ffffffffffffffff81116100fc576101bb903690600401610734565b906101c4610aee565b80518251036102a35760005b81518110156100fa576101e38183610ac4565b51906101ef8185610ac4565b5191806000526002602052604060002054831061024c576040816001947fd272f74aeb55de396ac593d01d2424ca7f9c1f8bfdbc368650c2cc49b0424507936000528560205280836000205582519182526020820152a1016101d0565b60405162461bcd60e51b815260206004820152602960248201527f416c6c6f77616e63652063616e6e6f74206265206c657373207468616e2070616044820152681a5908185b5bdd5b9d60ba1b6064820152608490fd5b60405162461bcd60e51b815260206004820152600d60248201526c125b9d985b1a59081a5b9c1d5d609a1b6044820152606490fd5b346100fc5760003660031901126100fc57602060405160008152f35b346100fc5760403660031901126100fc5761030d6106e6565b600435600052600080516020610ed583398151915260205260406000209060018060a01b0316600052602052602060ff604060002054166040519015158152f35b346100fc5760003660031901126100fc5760206040517fa49807205ce4d355092ef5a8a18f56e8913cf4a201fbe287825b095693c217758152f35b346100fc5760003660031901126100fc57602061ffff60005416604051908152f35b346100fc5760403660031901126100fc576004356001600160a01b03811681036100fc576103d76106e6565b90600080516020610ef5833981519152549160ff8360401c16159267ffffffffffffffff81168015908161055e575b6001149081610554575b15908161054b575b5061053a5767ffffffffffffffff198116600117600080516020610ef5833981519152558361050d575b5060ff600080516020610ef58339815191525460401c16156104fc576104748261046e610dac94610baa565b50610c7e565b506000549062010000600160b01b039060101b169069ffffffffffffffffffff60b01b1617176000556104a357005b68ff000000000000000019600080516020610ef58339815191525416600080516020610ef5833981519152557fc7f505b2f371ae2175ee4913f4499e1f2633a7b5936321eed1cdaeb6115181d2602060405160018152a1005b631afcd79f60e31b60005260046000fd5b68ffffffffffffffffff19166801000000000000000117600080516020610ef58339815191525583610442565b63f92ee8a960e01b60005260046000fd5b90501585610418565b303b159150610410565b859150610406565b346100fc5760603660031901126100fc576100fa6105826106e6565b604435906004356107bd565b346100fc5760403660031901126100fc576105a76106e6565b336001600160a01b038216036105c3576100fa90600435610dd3565b63334bd91960e11b60005260046000fd5b346100fc5760403660031901126100fc576100fa6004356105f36106e6565b906106006100f08261079c565b610d2a565b346100fc5760203660031901126100fc57602061062360043561079c565b604051908152f35b346100fc5760003660031901126100fc5760005460405160109190911c6001600160a01b03168152602090f35b346100fc5760003660031901126100fc5760206040517fd8aa0f3194971a2a116679f7c2090f6939c8d4e01a2a8d7e41d55e5351469e638152f35b346100fc5760203660031901126100fc576004359063ffffffff60e01b82168092036100fc57602091637965db0b60e01b81149081156106d5575b5015158152f35b6301ffc9a760e01b149050836106ce565b602435906001600160a01b03821682036100fc57565b90601f8019910116810190811067ffffffffffffffff82111761071e57604052565b634e487b7160e01b600052604160045260246000fd5b9080601f830112156100fc5781359167ffffffffffffffff831161071e578260051b906040519361076860208401866106fc565b84526020808501928201019283116100fc57602001905b82821061078c5750505090565b813581526020918201910161077f565b600052600080516020610ed583398151915260205260016040600020015490565b91908215610a8c576001600160a01b03168015610a53578115808015610a1a575b610a145783600052600160205260406000205492846000526002602052604060002054840393841161096f576000549161ffff831680830292830414171561096f57612710900492808411610a0c575b508215159081610985575b5061084357505050565b826000526002602052604060002080549083820180921161096f575560008060018060a01b03815460101c1692604051602081019163a9059cbb60e01b835260248201528560448201526044815261089c6064826106fc565b519082855af13d15610963573d67ffffffffffffffff811161071e576108e591604051916108d46020601f19601f84011601846106fc565b82523d6000602084013e5b83610e73565b805190811515918261093f575b505061092b57507f4ada13b2fbbe5cded7980d11456a07d339c09fd8510087f7ba973da4ea1a60d89160409182519182526020820152a1565b635274afe760e01b60005260045260246000fd5b81925090602091810103126100fc57602001518015908115036100fc5738806108f2565b6108e5906060906108df565b634e487b7160e01b600052601160045260246000fd5b6040516370a0823160e01b815230600482015291506020908290602490829060101c6001600160a01b03165afa8015610a005783916000916109cb575b50101538610839565b9150506020813d6020116109f8575b816109e7602093836106fc565b810103126100fc57829051386109c2565b3d91506109da565b6040513d6000823e3d90fd5b92503861082e565b50505050565b503360009081527f52fce5e8a5d0d9e8d1ea29f4525e512e9c27bf92cae50374d497f918ab48f382602052604090205460ff16156107de565b60405162461bcd60e51b8152602060048201526011602482015270125b9d985b1a59081c9958da5c1a595b9d607a1b6044820152606490fd5b60405162461bcd60e51b815260206004820152601060248201526f125b9d985b1a59081859d95b9d08125160821b6044820152606490fd5b8051821015610ad85760209160051b010190565b634e487b7160e01b600052603260045260246000fd5b3360009081527fb16e88c42fd4e48df2dd6a2eabd6bc9aec654ec170056b470819f8892cc6431c602052604090205460ff1615610b2757565b63e2517d3f60e01b600052336004527fa49807205ce4d355092ef5a8a18f56e8913cf4a201fbe287825b095693c2177560245260446000fd5b6000818152600080516020610ed58339815191526020908152604080832033845290915290205460ff1615610b925750565b63e2517d3f60e01b6000523360045260245260446000fd5b6001600160a01b03811660009081527fb16e88c42fd4e48df2dd6a2eabd6bc9aec654ec170056b470819f8892cc6431c602052604090205460ff16610c78576001600160a01b031660008181527fb16e88c42fd4e48df2dd6a2eabd6bc9aec654ec170056b470819f8892cc6431c60205260408120805460ff191660011790553391907fa49807205ce4d355092ef5a8a18f56e8913cf4a201fbe287825b095693c21775907f2f8788117e7eff1d82e926ec794901d17c78024a50270940304540a733656f0d9080a4600190565b50600090565b6001600160a01b03811660009081527fb7db2dd08fcb62d0c9e08c51941cae53c267786a0b75803fb7960902fc8ef97d602052604090205460ff16610c78576001600160a01b031660008181527fb7db2dd08fcb62d0c9e08c51941cae53c267786a0b75803fb7960902fc8ef97d60205260408120805460ff191660011790553391907f2f8788117e7eff1d82e926ec794901d17c78024a50270940304540a733656f0d8180a4600190565b6000818152600080516020610ed5833981519152602090815260408083206001600160a01b038616845290915290205460ff16610dcc576000818152600080516020610ed5833981519152602090815260408083206001600160a01b0395909516808452949091528120805460ff19166001179055339291907f2f8788117e7eff1d82e926ec794901d17c78024a50270940304540a733656f0d9080a4600190565b5050600090565b6000818152600080516020610ed5833981519152602090815260408083206001600160a01b038616845290915290205460ff1615610dcc576000818152600080516020610ed5833981519152602090815260408083206001600160a01b0395909516808452949091528120805460ff19169055339291907ff6391f5c32d9c69d2a47ea670b442974b53935d1edc7fd64eb21e047a839171b9080a4600190565b90610e995750805115610e8857805190602001fd5b630a12f52160e11b60005260046000fd5b81511580610ecb575b610eaa575090565b639996b31560e01b60009081526001600160a01b0391909116600452602490fd5b50803b15610ea256fe02dd7bc7dec4dceedda775e58dd541e08a116c6c53815c0bd028192f7b626800f0c57e16840df040f15088dc2f81fe391c3923bec73e23a9662efc9c229c6a00a2646970667358221220602f350596facf14400b9eea9200ee9c70b775a4d0854abb4a39d0c0fe8a6d6a64736f6c634300081a0033","linkReferences":{}},"methodIdentifiers":{"ADMIN_ROLE()":"75b238fc","DEFAULT_ADMIN_ROLE()":"a217fddf","EXECUTOR_ROLE()":"07bd0265","assetToken()":"1083f761","bonusRate()":"5af123f4","distributeBonus(uint256,address,uint256)":"39bc9783","getRoleAdmin(bytes32)":"248a9ca3","grantRole(bytes32,address)":"2f2ff15d","hasRole(bytes32,address)":"91d14854","initialize(address,address)":"485cc955","renounceRole(bytes32,address)":"36568abe","revokeRole(bytes32,address)":"d547741f","setAllowances(uint256[],uint256[])":"ccded286","supportsInterface(bytes4)":"01ffc9a7","updateBonusRate(uint16)":"d269f0b7"},"id":52}