{"abi":[{"type":"constructor","inputs":[],"stateMutability":"nonpayable"},{"type":"receive","stateMutability":"payable"},{"type":"function","name":"BALLOT_TYPEHASH","inputs":[],"outputs":[{"name":"","type":"bytes32","internalType":"bytes32"}],"stateMutability":"view"},{"type":"function","name":"CLOCK_MODE","inputs":[],"outputs":[{"name":"","type":"string","internalType":"string"}],"stateMutability":"view"},{"type":"function","name":"COUNTING_MODE","inputs":[],"outputs":[{"name":"","type":"string","internalType":"string"}],"stateMutability":"pure"},{"type":"function","name":"EXTENDED_BALLOT_TYPEHASH","inputs":[],"outputs":[{"name":"","type":"bytes32","internalType":"bytes32"}],"stateMutability":"view"},{"type":"function","name":"cancel","inputs":[{"name":"proposalId","type":"uint256","internalType":"uint256"}],"outputs":[],"stateMutability":"nonpayable"},{"type":"function","name":"cancel","inputs":[{"name":"targets","type":"address[]","internalType":"address[]"},{"name":"values","type":"uint256[]","internalType":"uint256[]"},{"name":"calldatas","type":"bytes[]","internalType":"bytes[]"},{"name":"descriptionHash","type":"bytes32","internalType":"bytes32"}],"outputs":[{"name":"","type":"uint256","internalType":"uint256"}],"stateMutability":"nonpayable"},{"type":"function","name":"castVote","inputs":[{"name":"proposalId","type":"uint256","internalType":"uint256"},{"name":"support","type":"uint8","internalType":"uint8"}],"outputs":[{"name":"","type":"uint256","internalType":"uint256"}],"stateMutability":"nonpayable"},{"type":"function","name":"castVoteBySig","inputs":[{"name":"proposalId","type":"uint256","internalType":"uint256"},{"name":"support","type":"uint8","internalType":"uint8"},{"name":"voter","type":"address","internalType":"address"},{"name":"signature","type":"bytes","internalType":"bytes"}],"outputs":[{"name":"","type":"uint256","internalType":"uint256"}],"stateMutability":"nonpayable"},{"type":"function","name":"castVoteWithReason","inputs":[{"name":"proposalId","type":"uint256","internalType":"uint256"},{"name":"support","type":"uint8","internalType":"uint8"},{"name":"reason","type":"string","internalType":"string"}],"outputs":[{"name":"","type":"uint256","internalType":"uint256"}],"stateMutability":"nonpayable"},{"type":"function","name":"castVoteWithReasonAndParams","inputs":[{"name":"proposalId","type":"uint256","internalType":"uint256"},{"name":"support","type":"uint8","internalType":"uint8"},{"name":"reason","type":"string","internalType":"string"},{"name":"params","type":"bytes","internalType":"bytes"}],"outputs":[{"name":"","type":"uint256","internalType":"uint256"}],"stateMutability":"nonpayable"},{"type":"function","name":"castVoteWithReasonAndParamsBySig","inputs":[{"name":"proposalId","type":"uint256","internalType":"uint256"},{"name":"support","type":"uint8","internalType":"uint8"},{"name":"voter","type":"address","internalType":"address"},{"name":"reason","type":"string","internalType":"string"},{"name":"params","type":"bytes","internalType":"bytes"},{"name":"signature","type":"bytes","internalType":"bytes"}],"outputs":[{"name":"","type":"uint256","internalType":"uint256"}],"stateMutability":"nonpayable"},{"type":"function","name":"clock","inputs":[],"outputs":[{"name":"","type":"uint48","internalType":"uint48"}],"stateMutability":"view"},{"type":"function","name":"eip712Domain","inputs":[],"outputs":[{"name":"fields","type":"bytes1","internalType":"bytes1"},{"name":"name","type":"string","internalType":"string"},{"name":"version","type":"string","internalType":"string"},{"name":"chainId","type":"uint256","internalType":"uint256"},{"name":"verifyingContract","type":"address","internalType":"address"},{"name":"salt","type":"bytes32","internalType":"bytes32"},{"name":"extensions","type":"uint256[]","internalType":"uint256[]"}],"stateMutability":"view"},{"type":"function","name":"execute","inputs":[{"name":"targets","type":"address[]","internalType":"address[]"},{"name":"values","type":"uint256[]","internalType":"uint256[]"},{"name":"calldatas","type":"bytes[]","internalType":"bytes[]"},{"name":"descriptionHash","type":"bytes32","internalType":"bytes32"}],"outputs":[{"name":"","type":"uint256","internalType":"uint256"}],"stateMutability":"payable"},{"type":"function","name":"execute","inputs":[{"name":"proposalId","type":"uint256","internalType":"uint256"}],"outputs":[],"stateMutability":"payable"},{"type":"function","name":"getMaturity","inputs":[{"name":"proposalId","type":"uint256","internalType":"uint256"}],"outputs":[{"name":"","type":"uint256","internalType":"uint256"}],"stateMutability":"view"},{"type":"function","name":"getPastScore","inputs":[{"name":"account","type":"address","internalType":"address"},{"name":"timepoint","type":"uint256","internalType":"uint256"}],"outputs":[{"name":"","type":"uint256","internalType":"uint256"}],"stateMutability":"view"},{"type":"function","name":"getVotes","inputs":[{"name":"account","type":"address","internalType":"address"},{"name":"timepoint","type":"uint256","internalType":"uint256"}],"outputs":[{"name":"","type":"uint256","internalType":"uint256"}],"stateMutability":"view"},{"type":"function","name":"getVotesWithParams","inputs":[{"name":"account","type":"address","internalType":"address"},{"name":"timepoint","type":"uint256","internalType":"uint256"},{"name":"params","type":"bytes","internalType":"bytes"}],"outputs":[{"name":"","type":"uint256","internalType":"uint256"}],"stateMutability":"view"},{"type":"function","name":"hasVoted","inputs":[{"name":"proposalId","type":"uint256","internalType":"uint256"},{"name":"account","type":"address","internalType":"address"}],"outputs":[{"name":"","type":"bool","internalType":"bool"}],"stateMutability":"view"},{"type":"function","name":"hashProposal","inputs":[{"name":"targets","type":"address[]","internalType":"address[]"},{"name":"values","type":"uint256[]","internalType":"uint256[]"},{"name":"calldatas","type":"bytes[]","internalType":"bytes[]"},{"name":"descriptionHash","type":"bytes32","internalType":"bytes32"}],"outputs":[{"name":"","type":"uint256","internalType":"uint256"}],"stateMutability":"pure"},{"type":"function","name":"initialize","inputs":[{"name":"name","type":"string","internalType":"string"},{"name":"token","type":"address","internalType":"contract IVotes"},{"name":"agentNft","type":"address","internalType":"address"},{"name":"threshold","type":"uint256","internalType":"uint256"},{"name":"votingPeriod_","type":"uint32","internalType":"uint32"}],"outputs":[],"stateMutability":"nonpayable"},{"type":"function","name":"name","inputs":[],"outputs":[{"name":"","type":"string","internalType":"string"}],"stateMutability":"view"},{"type":"function","name":"nonces","inputs":[{"name":"owner","type":"address","internalType":"address"}],"outputs":[{"name":"","type":"uint256","internalType":"uint256"}],"stateMutability":"view"},{"type":"function","name":"onERC1155BatchReceived","inputs":[{"name":"","type":"address","internalType":"address"},{"name":"","type":"address","internalType":"address"},{"name":"","type":"uint256[]","internalType":"uint256[]"},{"name":"","type":"uint256[]","internalType":"uint256[]"},{"name":"","type":"bytes","internalType":"bytes"}],"outputs":[{"name":"","type":"bytes4","internalType":"bytes4"}],"stateMutability":"nonpayable"},{"type":"function","name":"onERC1155Received","inputs":[{"name":"","type":"address","internalType":"address"},{"name":"","type":"address","internalType":"address"},{"name":"","type":"uint256","internalType":"uint256"},{"name":"","type":"uint256","internalType":"uint256"},{"name":"","type":"bytes","internalType":"bytes"}],"outputs":[{"name":"","type":"bytes4","internalType":"bytes4"}],"stateMutability":"nonpayable"},{"type":"function","name":"onERC721Received","inputs":[{"name":"","type":"address","internalType":"address"},{"name":"","type":"address","internalType":"address"},{"name":"","type":"uint256","internalType":"uint256"},{"name":"","type":"bytes","internalType":"bytes"}],"outputs":[{"name":"","type":"bytes4","internalType":"bytes4"}],"stateMutability":"nonpayable"},{"type":"function","name":"proposalCount","inputs":[],"outputs":[{"name":"","type":"uint256","internalType":"uint256"}],"stateMutability":"view"},{"type":"function","name":"proposalDeadline","inputs":[{"name":"proposalId","type":"uint256","internalType":"uint256"}],"outputs":[{"name":"","type":"uint256","internalType":"uint256"}],"stateMutability":"view"},{"type":"function","name":"proposalDetails","inputs":[{"name":"proposalId","type":"uint256","internalType":"uint256"}],"outputs":[{"name":"","type":"address[]","internalType":"address[]"},{"name":"","type":"uint256[]","internalType":"uint256[]"},{"name":"","type":"bytes[]","internalType":"bytes[]"},{"name":"","type":"bytes32","internalType":"bytes32"}],"stateMutability":"view"},{"type":"function","name":"proposalDetailsAt","inputs":[{"name":"index","type":"uint256","internalType":"uint256"}],"outputs":[{"name":"","type":"uint256","internalType":"uint256"},{"name":"","type":"address[]","internalType":"address[]"},{"name":"","type":"uint256[]","internalType":"uint256[]"},{"name":"","type":"bytes[]","internalType":"bytes[]"},{"name":"","type":"bytes32","internalType":"bytes32"}],"stateMutability":"view"},{"type":"function","name":"proposalEta","inputs":[{"name":"proposalId","type":"uint256","internalType":"uint256"}],"outputs":[{"name":"","type":"uint256","internalType":"uint256"}],"stateMutability":"view"},{"type":"function","name":"proposalNeedsQueuing","inputs":[{"name":"","type":"uint256","internalType":"uint256"}],"outputs":[{"name":"","type":"bool","internalType":"bool"}],"stateMutability":"view"},{"type":"function","name":"proposalProposer","inputs":[{"name":"proposalId","type":"uint256","internalType":"uint256"}],"outputs":[{"name":"","type":"address","internalType":"address"}],"stateMutability":"view"},{"type":"function","name":"proposalSnapshot","inputs":[{"name":"proposalId","type":"uint256","internalType":"uint256"}],"outputs":[{"name":"","type":"uint256","internalType":"uint256"}],"stateMutability":"view"},{"type":"function","name":"proposalThreshold","inputs":[],"outputs":[{"name":"","type":"uint256","internalType":"uint256"}],"stateMutability":"view"},{"type":"function","name":"proposalVotes","inputs":[{"name":"proposalId","type":"uint256","internalType":"uint256"}],"outputs":[{"name":"againstVotes","type":"uint256","internalType":"uint256"},{"name":"forVotes","type":"uint256","internalType":"uint256"},{"name":"abstainVotes","type":"uint256","internalType":"uint256"}],"stateMutability":"view"},{"type":"function","name":"propose","inputs":[{"name":"targets","type":"address[]","internalType":"address[]"},{"name":"values","type":"uint256[]","internalType":"uint256[]"},{"name":"calldatas","type":"bytes[]","internalType":"bytes[]"},{"name":"description","type":"string","internalType":"string"}],"outputs":[{"name":"","type":"uint256","internalType":"uint256"}],"stateMutability":"nonpayable"},{"type":"function","name":"queue","inputs":[{"name":"targets","type":"address[]","internalType":"address[]"},{"name":"values","type":"uint256[]","internalType":"uint256[]"},{"name":"calldatas","type":"bytes[]","internalType":"bytes[]"},{"name":"descriptionHash","type":"bytes32","internalType":"bytes32"}],"outputs":[{"name":"","type":"uint256","internalType":"uint256"}],"stateMutability":"nonpayable"},{"type":"function","name":"queue","inputs":[{"name":"proposalId","type":"uint256","internalType":"uint256"}],"outputs":[],"stateMutability":"nonpayable"},{"type":"function","name":"quorum","inputs":[{"name":"blockNumber","type":"uint256","internalType":"uint256"}],"outputs":[{"name":"","type":"uint256","internalType":"uint256"}],"stateMutability":"view"},{"type":"function","name":"quorumDenominator","inputs":[],"outputs":[{"name":"","type":"uint256","internalType":"uint256"}],"stateMutability":"pure"},{"type":"function","name":"quorumNumerator","inputs":[{"name":"timepoint","type":"uint256","internalType":"uint256"}],"outputs":[{"name":"","type":"uint256","internalType":"uint256"}],"stateMutability":"view"},{"type":"function","name":"quorumNumerator","inputs":[],"outputs":[{"name":"","type":"uint256","internalType":"uint256"}],"stateMutability":"view"},{"type":"function","name":"relay","inputs":[{"name":"target","type":"address","internalType":"address"},{"name":"value","type":"uint256","internalType":"uint256"},{"name":"data","type":"bytes","internalType":"bytes"}],"outputs":[],"stateMutability":"payable"},{"type":"function","name":"scoreOf","inputs":[{"name":"account","type":"address","internalType":"address"}],"outputs":[{"name":"","type":"uint256","internalType":"uint256"}],"stateMutability":"view"},{"type":"function","name":"setProposalThreshold","inputs":[{"name":"newProposalThreshold","type":"uint256","internalType":"uint256"}],"outputs":[],"stateMutability":"nonpayable"},{"type":"function","name":"setVotingDelay","inputs":[{"name":"newVotingDelay","type":"uint48","internalType":"uint48"}],"outputs":[],"stateMutability":"nonpayable"},{"type":"function","name":"setVotingPeriod","inputs":[{"name":"newVotingPeriod","type":"uint32","internalType":"uint32"}],"outputs":[],"stateMutability":"nonpayable"},{"type":"function","name":"state","inputs":[{"name":"proposalId","type":"uint256","internalType":"uint256"}],"outputs":[{"name":"","type":"uint8","internalType":"enum IGovernor.ProposalState"}],"stateMutability":"view"},{"type":"function","name":"supportsInterface","inputs":[{"name":"interfaceId","type":"bytes4","internalType":"bytes4"}],"outputs":[{"name":"","type":"bool","internalType":"bool"}],"stateMutability":"view"},{"type":"function","name":"token","inputs":[],"outputs":[{"name":"","type":"address","internalType":"contract IERC5805"}],"stateMutability":"view"},{"type":"function","name":"totalScore","inputs":[],"outputs":[{"name":"","type":"uint256","internalType":"uint256"}],"stateMutability":"view"},{"type":"function","name":"updateQuorumNumerator","inputs":[{"name":"newQuorumNumerator","type":"uint256","internalType":"uint256"}],"outputs":[],"stateMutability":"nonpayable"},{"type":"function","name":"version","inputs":[],"outputs":[{"name":"","type":"string","internalType":"string"}],"stateMutability":"view"},{"type":"function","name":"votingDelay","inputs":[],"outputs":[{"name":"","type":"uint256","internalType":"uint256"}],"stateMutability":"view"},{"type":"function","name":"votingPeriod","inputs":[],"outputs":[{"name":"","type":"uint256","internalType":"uint256"}],"stateMutability":"view"},{"type":"event","name":"EIP712DomainChanged","inputs":[],"anonymous":false},{"type":"event","name":"Initialized","inputs":[{"name":"version","type":"uint64","indexed":false,"internalType":"uint64"}],"anonymous":false},{"type":"event","name":"ProposalCanceled","inputs":[{"name":"proposalId","type":"uint256","indexed":false,"internalType":"uint256"}],"anonymous":false},{"type":"event","name":"ProposalCreated","inputs":[{"name":"proposalId","type":"uint256","indexed":false,"internalType":"uint256"},{"name":"proposer","type":"address","indexed":false,"internalType":"address"},{"name":"targets","type":"address[]","indexed":false,"internalType":"address[]"},{"name":"values","type":"uint256[]","indexed":false,"internalType":"uint256[]"},{"name":"signatures","type":"string[]","indexed":false,"internalType":"string[]"},{"name":"calldatas","type":"bytes[]","indexed":false,"internalType":"bytes[]"},{"name":"voteStart","type":"uint256","indexed":false,"internalType":"uint256"},{"name":"voteEnd","type":"uint256","indexed":false,"internalType":"uint256"},{"name":"description","type":"string","indexed":false,"internalType":"string"}],"anonymous":false},{"type":"event","name":"ProposalExecuted","inputs":[{"name":"proposalId","type":"uint256","indexed":false,"internalType":"uint256"}],"anonymous":false},{"type":"event","name":"ProposalQueued","inputs":[{"name":"proposalId","type":"uint256","indexed":false,"internalType":"uint256"},{"name":"etaSeconds","type":"uint256","indexed":false,"internalType":"uint256"}],"anonymous":false},{"type":"event","name":"ProposalThresholdSet","inputs":[{"name":"oldProposalThreshold","type":"uint256","indexed":false,"internalType":"uint256"},{"name":"newProposalThreshold","type":"uint256","indexed":false,"internalType":"uint256"}],"anonymous":false},{"type":"event","name":"QuorumNumeratorUpdated","inputs":[{"name":"oldQuorumNumerator","type":"uint256","indexed":false,"internalType":"uint256"},{"name":"newQuorumNumerator","type":"uint256","indexed":false,"internalType":"uint256"}],"anonymous":false},{"type":"event","name":"ValidatorEloRating","inputs":[{"name":"proposalId","type":"uint256","indexed":false,"internalType":"uint256"},{"name":"voter","type":"address","indexed":false,"internalType":"address"},{"name":"score","type":"uint256","indexed":false,"internalType":"uint256"},{"name":"votes","type":"uint8[]","indexed":false,"internalType":"uint8[]"}],"anonymous":false},{"type":"event","name":"VoteCast","inputs":[{"name":"voter","type":"address","indexed":true,"internalType":"address"},{"name":"proposalId","type":"uint256","indexed":false,"internalType":"uint256"},{"name":"support","type":"uint8","indexed":false,"internalType":"uint8"},{"name":"weight","type":"uint256","indexed":false,"internalType":"uint256"},{"name":"reason","type":"string","indexed":false,"internalType":"string"}],"anonymous":false},{"type":"event","name":"VoteCastWithParams","inputs":[{"name":"voter","type":"address","indexed":true,"internalType":"address"},{"name":"proposalId","type":"uint256","indexed":false,"internalType":"uint256"},{"name":"support","type":"uint8","indexed":false,"internalType":"uint8"},{"name":"weight","type":"uint256","indexed":false,"internalType":"uint256"},{"name":"reason","type":"string","indexed":false,"internalType":"string"},{"name":"params","type":"bytes","indexed":false,"internalType":"bytes"}],"anonymous":false},{"type":"event","name":"VotingDelaySet","inputs":[{"name":"oldVotingDelay","type":"uint256","indexed":false,"internalType":"uint256"},{"name":"newVotingDelay","type":"uint256","indexed":false,"internalType":"uint256"}],"anonymous":false},{"type":"event","name":"VotingPeriodSet","inputs":[{"name":"oldVotingPeriod","type":"uint256","indexed":false,"internalType":"uint256"},{"name":"newVotingPeriod","type":"uint256","indexed":false,"internalType":"uint256"}],"anonymous":false},{"type":"error","name":"CheckpointUnorderedInsertion","inputs":[]},{"type":"error","name":"ERC5805FutureLookup","inputs":[{"name":"timepoint","type":"uint256","internalType":"uint256"},{"name":"clock","type":"uint48","internalType":"uint48"}]},{"type":"error","name":"FailedInnerCall","inputs":[]},{"type":"error","name":"GovernorAlreadyCastVote","inputs":[{"name":"voter","type":"address","internalType":"address"}]},{"type":"error","name":"GovernorAlreadyQueuedProposal","inputs":[{"name":"proposalId","type":"uint256","internalType":"uint256"}]},{"type":"error","name":"GovernorDisabledDeposit","inputs":[]},{"type":"error","name":"GovernorInsufficientProposerVotes","inputs":[{"name":"proposer","type":"address","internalType":"address"},{"name":"votes","type":"uint256","internalType":"uint256"},{"name":"threshold","type":"uint256","internalType":"uint256"}]},{"type":"error","name":"GovernorInvalidProposalLength","inputs":[{"name":"targets","type":"uint256","internalType":"uint256"},{"name":"calldatas","type":"uint256","internalType":"uint256"},{"name":"values","type":"uint256","internalType":"uint256"}]},{"type":"error","name":"GovernorInvalidQuorumFraction","inputs":[{"name":"quorumNumerator","type":"uint256","internalType":"uint256"},{"name":"quorumDenominator","type":"uint256","internalType":"uint256"}]},{"type":"error","name":"GovernorInvalidSignature","inputs":[{"name":"voter","type":"address","internalType":"address"}]},{"type":"error","name":"GovernorInvalidVoteType","inputs":[]},{"type":"error","name":"GovernorInvalidVotingPeriod","inputs":[{"name":"votingPeriod","type":"uint256","internalType":"uint256"}]},{"type":"error","name":"GovernorNonexistentProposal","inputs":[{"name":"proposalId","type":"uint256","internalType":"uint256"}]},{"type":"error","name":"GovernorNotQueuedProposal","inputs":[{"name":"proposalId","type":"uint256","internalType":"uint256"}]},{"type":"error","name":"GovernorOnlyExecutor","inputs":[{"name":"account","type":"address","internalType":"address"}]},{"type":"error","name":"GovernorOnlyProposer","inputs":[{"name":"account","type":"address","internalType":"address"}]},{"type":"error","name":"GovernorQueueNotImplemented","inputs":[]},{"type":"error","name":"GovernorRestrictedProposer","inputs":[{"name":"proposer","type":"address","internalType":"address"}]},{"type":"error","name":"GovernorUnexpectedProposalState","inputs":[{"name":"proposalId","type":"uint256","internalType":"uint256"},{"name":"current","type":"uint8","internalType":"enum IGovernor.ProposalState"},{"name":"expectedStates","type":"bytes32","internalType":"bytes32"}]},{"type":"error","name":"InvalidAccountNonce","inputs":[{"name":"account","type":"address","internalType":"address"},{"name":"currentNonce","type":"uint256","internalType":"uint256"}]},{"type":"error","name":"InvalidInitialization","inputs":[]},{"type":"error","name":"NotInitializing","inputs":[]},{"type":"error","name":"QueueEmpty","inputs":[]},{"type":"error","name":"QueueFull","inputs":[]},{"type":"error","name":"SafeCastOverflowedUintDowncast","inputs":[{"name":"bits","type":"uint8","internalType":"uint8"},{"name":"value","type":"uint256","internalType":"uint256"}]}],"bytecode":{"object":"0x60808060405234620000bd577ff0c57e16840df040f15088dc2f81fe391c3923bec73e23a9662efc9c229c6a009081549060ff8260401c16620000ae57506001600160401b036002600160401b03198282160162000068575b6040516156699081620000c38239f35b6001600160401b031990911681179091556040519081527fc7f505b2f371ae2175ee4913f4499e1f2633a7b5936321eed1cdaeb6115181d290602090a138808062000058565b63f92ee8a960e01b8152600490fd5b600080fdfe6080604052600436101561001b575b361561001957600080fd5b005b60003560e01c806301ffc9a7146103ab57806302a251a3146103a657806306f3f9e6146103a157806306fdde031461039c578063133af45614610397578063143489d014610392578063150b7a021461038d578063160cbed71461038857806316e9eaec14610383578063209e1f0d1461037e5780632656227d146103795780632d63f693146103745780632e82db941461036f5780632fe3e2611461036a5780633932abb1146103655780633e4f49e61461036057806340e58ee51461035b5780634385963214610356578063452115d6146103515780634bf5d7e91461034c578063544ffc9c1461034757806354fd4d5014610342578063567813881461033d5780635b8d0e0d146103385780635f398a141461033357806360c4247f1461032e578063718f7cd41461032957806379051887146103245780637b3c71d31461031f5780637d5e81e21461031a5780637ecebe00146103155780637f1e7d411461031057806384b0196e1461030b5780638ff262e31461030657806391ddadf41461030157806397c3d334146102fc5780639a802a6d146102f7578063a7713a70146102f2578063a9a95294146102ed578063ab58fb8e146102e8578063b58131b0146102e3578063bc197c81146102de578063c006719f146102d9578063c01f9e37146102d4578063c28bc2fa146102cf578063c59057e4146102ca578063da35c664146102c5578063dd4e2ba5146102c0578063ddf0b009146102bb578063deaaa7cc146102b6578063e540d01d146102b1578063eb9019d4146102ac578063ece40cc1146102a7578063f23a6e61146102a2578063f8ce560a1461029d578063fc0c546a146102985763fe0d94c10361000e57611e75565b611e3f565b611d95565b611d3c565b611d18565b611c87565b611c55565b611c1a565b611bc2565b611b64565b611b27565b611b14565b611aa8565b611a8a565b611a6c565b6119e0565b6119a4565b611960565b611944565b611921565b61184b565b61182e565b611803565b6116c1565b6115f0565b611520565b6114c4565b61143c565b6113e3565b611362565b6111ea565b6111b9565b611146565b6110aa565b611031565b610fe4565b610f8c565b610f5c565b610f40565b610ee7565b610e88565b610e5b565b610e05565b610dca565b610d09565b610cc5565b610ca6565b610c05565b610bd6565b610a52565b61083a565b6106b5565b610663565b61055b565b610452565b61041e565b346104195760203660031901126104195760043563ffffffff60e01b8116809103610419576020906332a2ad4360e11b8114908115610408575b81156103f7575b506040519015158152f35b6301ffc9a760e01b149050386103ec565b630271189760e51b811491506103e5565b600080fd5b3461041957600036600319011261041957602063ffffffff6000805160206154d48339815191525460301c16604051908152f35b346104195760203660031901126104195760043561046e613975565b612710908181116104e2577f0553476bf02ef2726e8ce5ced78d63e26e602e4a2257b1f559418e24b4633997906001600160d01b036104ab614fea565b166104c66104b76146ab565b6104c084614d33565b90615281565b505060408051918252602082019290925290819081015b0390a1005b6044916040519163243e544560e01b835260048301526024820152fd5b60005b8381106105125750506000910152565b8181015183820152602001610502565b9060209161053b815180928185528580860191016104ff565b601f01601f1916010190565b906020610558928181520190610522565b90565b346104195760008060031936011261064f5760405190806000805160206155d48339815191529081549061058e826124b8565b8086529260019280841690811561062257506001146105c8575b6105c4866105b88188038261077e565b60405191829182610547565b0390f35b815292507fda13dda7583a39a3cd73e8830529c760837228fa4683752c823b17e10548aad55b82841061060a5750505081016020016105b8826105c4386105a8565b805460208587018101919091529093019281016105ee565b90508695506105c4969350602092506105b894915060ff191682840152151560051b8201019293386105a8565b80fd5b6001600160a01b0381160361041957565b346104195760203660031901126104195760043561068081610652565b6001600160a01b031660009081526001602090815260409091206001600160d01b03906106ac90615041565b16604051908152f35b34610419576020366003190112610419576004356000526000805160206154b4833981519152602052602060018060a01b0360406000205416604051908152f35b634e487b7160e01b600052604160045260246000fd5b604081019081106001600160401b0382111761072757604052565b6106f6565b602081019081106001600160401b0382111761072757604052565b60c081019081106001600160401b0382111761072757604052565b61010081019081106001600160401b0382111761072757604052565b90601f801991011681019081106001600160401b0382111761072757604052565b60405190608082018281106001600160401b0382111761072757604052565b604051906107cb8261070c565b565b6001600160401b03811161072757601f01601f191660200190565b9291926107f4826107cd565b91610802604051938461077e565b829481845281830111610419578281602093846000960137010152565b9080601f8301121561041957816020610558933591016107e8565b3461041957608036600319011261041957610856600435610652565b610861602435610652565b6064356001600160401b0381116104195761088090369060040161081f565b50604051630a85bd0160e11b8152602090f35b6001600160401b0381116107275760051b60200190565b81601f82011215610419578035916108c183610893565b926108cf604051948561077e565b808452602092838086019260051b820101928311610419578301905b8282106108f9575050505090565b838091833561090781610652565b8152019101906108eb565b81601f820112156104195780359161092983610893565b92610937604051948561077e565b808452602092838086019260051b820101928311610419578301905b828210610961575050505090565b81358152908301908301610953565b9080601f830112156104195781359061098882610893565b92610996604051948561077e565b828452602092838086019160051b8301019280841161041957848301915b8483106109c45750505050505090565b82356001600160401b0381116104195786916109e58484809489010161081f565b8152019201916109b4565b6080600319820112610419576001600160401b03916004358381116104195782610a1c916004016108aa565b926024358181116104195783610a3491600401610912565b9260443591821161041957610a4b91600401610970565b9060643590565b3461041957610a6c610a63366109f0565b9291909161286f565b610a75816122ac565b906008821015610acc576010600160ff84161b1615610aa057604051634844252360e11b8152600490fd5b610ac3606492604051926331b75e4d60e01b845260048401526024830190610e4e565b60106044820152fd5b610e38565b90815180825260208080930193019160005b828110610af1575050505090565b83516001600160a01b031685529381019392810192600101610ae3565b90815180825260208080930193019160005b828110610b2e575050505090565b835185529381019392810192600101610b20565b90815180825260208092019182818360051b85019501936000915b848310610b6d5750505050505090565b9091929394958480610b8783856001950387528a51610522565b9801930193019194939290610b5d565b949392610bc3606093610bb5610bd19460808a5260808a0190610ad1565b9088820360208a0152610b0e565b908682036040880152610b42565b930152565b34610419576020366003190112610419576105c4610bf5600435614445565b9060409492945194859485610b97565b3461041957604036600319011261041957600435610c2281610652565b60243565ffffffffffff610c346146ab565b1680821015610c8857506001600160a01b0390911660009081526001602052604090206105c4916001600160d01b0391610c7791610c7190614d66565b90614dc8565b604051911681529081906020820190565b6044925060405191637669fc0f60e11b835260048301526024820152fd5b6020610cbd610cb4366109f0565b92919091612ac4565b604051908152f35b34610419576020366003190112610419576004356000526000805160206154b4833981519152602052602065ffffffffffff60406000205460a01c16604051908152f35b34610419576020366003190112610419576004357f7fd223d3380145bd26132714391e777c488a0df7ac2dd4b66419d8549fb3a600908154811015610dc557610dad916000527f417ab5363cd721cbd7a5446b963bb4274a7db26ef2bb28819834095c165ca17a0154610dbb610d7e82614445565b9392959091610d9f604051978897885260a0602089015260a0880190610ad1565b908682036040880152610b0e565b908482036060860152610b42565b9060808301520390f35b612a9a565b346104195760003660031901126104195760206040517f3e83946653575f9a39005e1545185629e92736b7528ab20ca3816f315424a8118152f35b3461041957600036600319011261041957602065ffffffffffff6000805160206154d48339815191525416604051908152f35b634e487b7160e01b600052602160045260246000fd5b906008821015610acc5752565b34610419576020366003190112610419576020610e796004356122ac565b610e866040518092610e4e565bf35b34610419576020366003190112610419576004356000526000805160206155b48339815191526020526100196040600020600381015490610ec88161427a565b90610ee16002610eda600184016142d2565b9201614321565b91612c14565b3461041957604036600319011261041957602060ff610f34602435610f0b81610652565b6004356000526000845260036040600020019060018060a01b0316600052602052604060002090565b54166040519015158152f35b34610419576020610cbd610f53366109f0565b92919091612c14565b34610419576000366003190112610419576105c4610f7861476b565b604051918291602083526020830190610522565b34610419576020366003190112610419576105c4610fc760043560005260006020526040600020908154906002600184015493015491929190565b604080519384526020840192909252908201529081906060820190565b34610419576000366003190112610419576105c46040516110048161070c565b60018152603160f81b6020820152604051918291602083526020830190610522565b60ff81160361041957565b34610419576040366003190112610419576020610cbd60243561105381611026565b60405161105f8161072c565b60008152604051916110708361072c565b6000835233600435612e14565b9181601f84011215610419578235916001600160401b038311610419576020838186019501011161041957565b346104195760c0366003190112610419576024356110c781611026565b604435906110d482610652565b6001600160401b0390606435828111610419576110f590369060040161107d565b6084358481116104195761110d90369060040161081f565b9160a435948511610419576105c49561112d61113696369060040161081f565b946004356135ea565b6040519081529081906020820190565b346104195760803660031901126104195760243561116381611026565b6001600160401b03906044358281116104195761118490369060040161107d565b9091606435938411610419576111af610cbd936111a7602096369060040161081f565b9336916107e8565b9033600435612e14565b34610419576020366003190112610419576020610cbd600435614552565b6084359063ffffffff8216820361041957565b346104195760a0366003190112610419576001600160401b036004358181116104195761121b90369060040161081f565b6024359061122882610652565b6044359061123582610652565b61123d6111d7565b916000805160206155f4833981519152549460ff8660401c161595168015908161134a575b6001149081611340575b159081611337575b50611325576000805160206155f4833981519152805467ffffffffffffffff191660011790556112ad9385611300575b60643592611e8c565b6112b357005b6000805160206155f4833981519152805460ff60401b19169055604051600181527fc7f505b2f371ae2175ee4913f4499e1f2633a7b5936321eed1cdaeb6115181d29080602081016104dd565b6000805160206155f4833981519152805460ff60401b1916600160401b1790556112a4565b60405163f92ee8a960e01b8152600490fd5b90501538611274565b303b15915061126c565b869150611262565b65ffffffffffff81160361041957565b346104195760203660031901126104195760043561137f81611352565b611387613975565b6000805160206154d48339815191529081547fc565b045403dc03c2eea82b81a0465edad9e2e7fc4d97e11421c209da93d7a93604080519365ffffffffffff9081851686521693846020820152a165ffffffffffff1916179055005b346104195760603660031901126104195760243561140081611026565b6044356001600160401b0381116104195760209161142f611428610cbd93369060040161107d565b36916107e8565b604051916110708361072c565b34610419576080366003190112610419576001600160401b036004358181116104195761146d9036906004016108aa565b9060243581811161041957611486903690600401610912565b916044358281116104195761149f903690600401610970565b606435928311610419576105c4936114be61113694369060040161081f565b926120c9565b34610419576020366003190112610419576004356114e181610652565b60018060a01b03166000527f5ab42ced628888259c08ac98db1eb0cf702fc1501344311d8b100cd1bfe4bb006020526020604060002054604051908152f35b3461041957602036600319011261041957602061157460043561155e8160005260006020526040600020908154906002600184015493015491929190565b509190506000526002835260406000205461227d565b61271090808210156115895750604051908152f35b9050610cbd565b916115c5906115b761055897959693600f60f81b865260e0602087015260e0860190610522565b908482036040860152610522565b60608301949094526001600160a01b03166080820152600060a082015280830360c090910152610b0e565b34610419576000366003190112610419577fa16a46d94261c7517cc8ff89f61c0ce93598e3c849801011dee649a6a557d100541580611698575b1561165b57611637612720565b61163f6127da565b906105c461164b614942565b6040519384933091469186611590565b60405162461bcd60e51b81526020600482015260156024820152741152540dcc4c8e88155b9a5b9a5d1a585b1a5e9959605a1b6044820152606490fd5b507fa16a46d94261c7517cc8ff89f61c0ce93598e3c849801011dee649a6a557d101541561162a565b34610419576080366003190112610419576024356004356116e182611026565b604435916116ee83610652565b6064356001600160401b038111610419576117bf6117136117c392369060040161081f565b6001600160a01b03861660009081527f5ab42ced628888259c08ac98db1eb0cf702fc1501344311d8b100cd1bfe4bb00602052604090208054600181019091556117b99060405160208101917ff2aad550cf55f045cb27e9c559f9889fdfb6e6cdaa032301d6ea397784ae51d7835288604083015260ff8816606083015260018060a01b038a16608083015260a082015260a081526117b181610747565b5190206148c2565b86614b98565b1590565b6117de5790611136916105c4936117d8612398565b926136ff565b6040516394ab6c0760e01b81526001600160a01b0384166004820152602490fd5b0390fd5b3461041957600036600319011261041957602061181e6146ab565b65ffffffffffff60405191168152f35b346104195760003660031901126104195760206040516127108152f35b346104195760603660031901126104195760043561186881610652565b6044356001600160401b0381116104195761188790369060040161081f565b5060008051602061557483398151915254604051630748d63560e31b81526001600160a01b03928316600482015260248035908201529160209183916044918391165afa801561191c576105c4916000916118ee575b506040519081529081906020820190565b61190f915060203d8111611915575b611907818361077e565b81019061229d565b386118dd565b503d6118fd565b6120bd565b346104195760003660031901126104195760206001600160d01b036106ac614fea565b3461041957602036600319011261041957602060405160008152f35b34610419576020366003190112610419576004356000526000805160206154b4833981519152602052602065ffffffffffff60016040600020015416604051908152f35b346104195760003660031901126104195760207ed7616c8fe29c6c2fbe1d0c5bc8f2faa4c35b43746e70b24b4d532752affd0054604051908152f35b346104195760a0366003190112610419576119fc600435610652565b611a07602435610652565b6001600160401b0360443581811161041957611a27903690600401610912565b5060643581811161041957611a40903690600401610912565b5060843590811161041957611a5990369060040161081f565b5060405163bc197c8160e01b8152602090f35b34610419576000366003190112610419576020600354604051908152f35b34610419576020366003190112610419576020610cbd600435612a4c565b606036600319011261041957600435611ac081610652565b604435906001600160401b0382116104195760008091611ae761001994369060040161107d565b90611af0613975565b81604051928392833781018481520391602435905af1611b0e612b7a565b90614b6f565b34610419576020610cbd610a63366109f0565b346104195760003660031901126104195760207f7fd223d3380145bd26132714391e777c488a0df7ac2dd4b66419d8549fb3a60054604051908152f35b34610419576000366003190112610419576105c4604051611b848161070c565b602081527f737570706f72743d627261766f2671756f72756d3d666f722c6162737461696e6020820152604051918291602083526020830190610522565b34610419576020366003190112610419576004356000526000805160206155b4833981519152602052610a6c6040600020600381015490611c028161427a565b90611c146002610eda600184016142d2565b9161286f565b346104195760003660031901126104195760206040517ff2aad550cf55f045cb27e9c559f9889fdfb6e6cdaa032301d6ea397784ae51d78152f35b346104195760203660031901126104195760043563ffffffff811681036104195761001990611c82613975565b613b7a565b3461041957604036600319011261041957600435611ca481610652565b6000604051611cb28161072c565b5260008051602061557483398151915254604051630748d63560e31b81526001600160a01b03928316600482015260248035908201529160209183916044918391165afa801561191c576105c4916000916118ee57506040519081529081906020820190565b3461041957602036600319011261041957611d31613975565b610019600435613c0c565b346104195760a036600319011261041957611d58600435610652565b611d63602435610652565b6084356001600160401b03811161041957611d8290369060040161081f565b5060405163f23a6e6160e01b8152602090f35b34610419576020366003190112610419576024600435602060018060a01b03600080516020615574833981519152541660405193848092632394e7a360e21b82528560048301525afa91821561191c576105c49261271092611e0992600092611e1b575b50611e0390614552565b906130b1565b04604051918291829190602083019252565b611e03919250611e389060203d811161191557611907818361077e565b9190611df9565b3461041957600036600319011261041957600080516020615574833981519152546040516001600160a01b039091168152602090f35b6020366003190112610419576100196004356143fe565b949392909192611e9a614893565b60405195611ea78761070c565b6001808852602090603160f81b828a0152611ec0614893565b8251906001600160401b0382116107275760008051602061553483398151915292611ef483611eef86546124b8565b612509565b80601f8411600114611fdf57506107cb999a611f9596948480611f9096611fa29c9b9996611f3996600093611fd4575b501b916000199060031b1c1916179055612653565b611f6260007fa16a46d94261c7517cc8ff89f61c0ce93598e3c849801011dee649a6a557d10055565b611f8b60007fa16a46d94261c7517cc8ff89f61c0ce93598e3c849801011dee649a6a557d10155565b6123ab565b613b04565b611f9d614893565b61466d565b611faa6144ec565b611fb2614893565b60018060a01b03166bffffffffffffffffffffffff60a01b6004541617600455565b880151925038611f24565b60008051602061553483398151915260005291929190601f198316600080516020615594833981519152926000905b82821061205e57505094611f909484611f39946107cb9e9f94611fa29d9c9a97611f959c9a10612045575b5050811b019055612653565b87015160001960f88460031b161c191690553880612039565b808785968294968c0151815501950193019061200e565b634e487b7160e01b600052601160045260246000fd5b65ffffffffffff90811660001901919082116120a357565b612075565b90816020910312610419575161055881610652565b6040513d6000823e3d90fd5b91939290936120db6117bf83336139c7565b612248576121066121006120f56120f06146ab565b61208b565b65ffffffffffff1690565b33612d81565b7ed7616c8fe29c6c2fbe1d0c5bc8f2faa4c35b43746e70b24b4d532752affd00546004549096919061214e90612142906001600160a01b031681565b6001600160a01b031690565b6040518091634d3f464760e11b825281600460209485935afa90811561191c5760009161222b575b5088831091826121bc575b505061219557506105589495503393613f61565b604051636121770b60e11b8152336004820152602481019190915260448101879052606490fd5b604051636e9960c360e01b81526001600160a01b039350909182908290600490829087165afa91821561191c576000926121fe575b5050163314153880612181565b61221d9250803d10612224575b612215818361077e565b8101906120a8565b38806121f1565b503d61220b565b6122429150823d841161222457612215818361077e565b38612176565b60405163d9b3955760e01b8152336004820152602490fd5b6000526000805160206154b4833981519152602052604060002090565b8115612287570490565b634e487b7160e01b600052601260045260246000fd5b90816020910312610419575190565b6122b58161289d565b906008821015610acc57600182146122cb575090565b8060206122f66123569360005260006020526040600020908154906002600184015493015491929190565b506000805160206155748339815191525490939150612335906120f590612326906001600160a01b031693612260565b5460a01c65ffffffffffff1690565b906040518080968194632394e7a360e21b8352600483019190602083019252565b03915afa91821561191c57600092612378575b50146123725790565b50600490565b61239191925060203d811161191557611907818361077e565b9038612369565b604051906123a58261072c565b60008252565b906123b4614893565b81516001600160401b038111610727576000805160206155d4833981519152906123e7816123e284546124b8565b612565565b602080601f8311600114612423575081929394600092612418575b50508160011b916000199060031b1c1916179055565b015190503880612402565b90601f198316956124636000805160206155d48339815191526000527fda13dda7583a39a3cd73e8830529c760837228fa4683752c823b17e10548aad590565b926000905b8882106124a057505083600195969710612487575b505050811b019055565b015160001960f88460031b161c1916905538808061247d565b80600185968294968601518155019501930190612468565b90600182811c921680156124e8575b60208310146124d257565b634e487b7160e01b600052602260045260246000fd5b91607f16916124c7565b8181106124fd575050565b600081556001016124f2565b90601f8211612516575050565b6107cb91600080516020615534833981519152600052600080516020615594833981519152906020601f840160051c8301931061255b575b601f0160051c01906124f2565b909150819061254e565b90601f8211612572575050565b6107cb916000805160206155d48339815191526000527fda13dda7583a39a3cd73e8830529c760837228fa4683752c823b17e10548aad5906020601f840160051c8301931061255b57601f0160051c01906124f2565b90601f82116125d5575050565b6107cb91600080516020615554833981519152600052600080516020615614833981519152906020601f840160051c8301931061255b57601f0160051c01906124f2565b9190601f811161262857505050565b6107cb926000526020600020906020601f840160051c8301931061255b57601f0160051c01906124f2565b9081516001600160401b03811161072757600080516020615554833981519152906126878161268284546124b8565b6125c8565b602080601f83116001146126b75750819293946000926124185750508160011b916000199060031b1c1916179055565b90601f198316956126e560008051602061555483398151915260005260008051602061561483398151915290565b926000905b8882106127085750508360019596971061248757505050811b019055565b806001859682949686015181550195019301906126ea565b60405190600082600080516020615534833981519152918254612742816124b8565b808452936001918083169081156127b6575060011461276a575b50506107cb9250038361077e565b600090815291506000805160206155948339815191525b84831061279b57506107cb9350508101602001388061275c565b81935090816020925483858a01015201910190918592612781565b915050602092506107cb94915060ff191682840152151560051b820101388061275c565b604051906000826000805160206155548339815191529182546127fc816124b8565b808452936001918083169081156127b657506001146128235750506107cb9250038361077e565b600090815291506000805160206156148339815191525b84831061285457506107cb9350508101602001388061275c565b81935090816020925483858a0101520191019091859261283a565b929061288961289792604051948593602085019788610b97565b03601f19810183528261077e565b51902090565b6128a681612260565b5460ff8160f01c1661298a5760f81c612984576128c86120f561232683612260565b801561296b576128d96120f56146ab565b80911015612964576128ea82612a4c565b106128f55750600190565b6129016117bf826129ac565b801561293f575b156129135750600390565b6120f5600161292461293193612260565b015465ffffffffffff1690565b61293a57600490565b600590565b5061295f6117bf8260005260006020526040600020600181015490541090565b612908565b5050600090565b604051636ad0607560e01b815260048101839052602490fd5b50600290565b5050600790565b90600182018092116120a357565b919082018092116120a357565b600052600060205260406000206000805160206154b4833981519152602052602465ffffffffffff60406000205460a01c16602060018060a01b03600080516020615574833981519152541660405193848092632394e7a360e21b82528560048301525afa91821561191c57612a479261271092612a3592600092611e1b5750611e0390614552565b0491600260018201549101549061299f565b101590565b6000526000805160206154b483398151915260205260406000205465ffffffffffff908163ffffffff8260d01c169160a01c16018181116120a3571690565b60001981146120a35760010190565b634e487b7160e01b600052603260045260246000fd5b8051821015610dc55760209160051b010190565b9392612ad59092919282848761286f565b91612adf836122ac565b946008861015610acc576030600160ff88161b1615612b4d5783949550612b08612b1e94612260565b805460ff60f01b1916600160f01b179055612baa565b6040518181527f712ae1383f79ac853f8d882153778e0260ef8f03b504e2866e0593e04d2b291f90602090a190565b6040516331b75e4d60e01b815260048101859052606490612b716024820189610e4e565b60306044820152fd5b3d15612ba5573d90612b8b826107cd565b91612b99604051938461077e565b82523d6000602084013e565b606090565b929190600093845b8151811015612c0c57612c0790612c0187806001600160a01b03612bd68588612ab0565b5116612be28589612ab0565b5190612bee868b612ab0565b5191602083519301915af1611b0e612b7a565b50612a8b565b612bb2565b505050509050565b929190612c238383838761286f565b612c2c816122ac565b6008811015610acc5760018060ff83161b1615612c90575060009081526000805160206154b483398151915260205260409020546001600160a01b03163303612c785761055893612cdb565b60405163233d98e360e01b8152336004820152602490fd5b90612cb4606492604051926331b75e4d60e01b845260048401526024830190610e4e565b60016044820152fd5b6027198101919082116120a357565b6000198101919082116120a357565b90612ce793929161286f565b612cf0816122ac565b6008811015610acc57603b600160ff83161b1615612d545750612d1281612260565b80546001600160f81b0316600160f81b1790556040518181527f789cf55be980739dad1d0699b93b58e806b51c9d96619bfa8fe0a28abaa7b30c90602090a190565b90612d78606492604051926331b75e4d60e01b845260048401526024830190610e4e565b603b6044820152fd5b6020906000604051612d928161072c565b5260008051602061557483398151915254604051630748d63560e31b81526001600160a01b039283166004820152602481019490945283916044918391165afa90811561191c57600091612de4575090565b610558915060203d811161191557611907818361077e565b6001600160d01b03908116600101919082116120a357565b92939160ff91600193612e6681612e5d612e56856003612e3e8c6000526000602052604060002090565b019060018060a01b0316600052602052604060002090565b5460ff1690565b9885858a61377b565b961580612f40575b612e88575b50501614612e7f575090565b61055890612f63565b612e9b612e96600354612a8b565b600355565b6001600160a01b0382166000908152600160205260409020612f0990612ec043614d66565b612f03612efe612ef9612eed612ee88960018060a01b03166000526001602052604060002090565b615041565b6001600160d01b031690565b614d33565b612dfc565b9161535b565b505086868251151580612f35575b612f23575b5050612e73565b612f2c93613126565b38808686612f1c565b508686861614612f17565b50612f5e612e56836003612e3e8a6000526000602052604060002090565b612e6e565b612f888160005260006020526040600020908154906002600184015493015491929190565b50600080516020615574833981519152546001600160a01b03169150602065ffffffffffff612fb685612260565b5460a01c16602460405180958193632394e7a360e21b835260048301525afa91821561191c57600092612ff6575b5014612fed5750565b6107cb906143fe565b61300f91925060203d811161191557611907818361077e565b9038612fe4565b90816020910312610419575180151581036104195790565b6020908181840312610419578051906001600160401b03821161041957019180601f8401121561041957825161306381610893565b93613071604051958661077e565b818552838086019260051b820101928311610419578301905b828210613098575050505090565b83809183516130a681611026565b81520191019061308a565b818102929181159184041417156120a357565b90815180825260208080930193019160005b8281106130e4575050505090565b835160ff16855293810193928101926001016130d6565b90926080926105589594835260018060a01b03166020830152604082015281606082015201906130c4565b6004549293909261314190612142906001600160a01b031681565b936040518095634d3f464760e11b825281600460209889935afa90811561191c576000916132b5575b506040516331a9108f60e11b8152600481018590526001600160a01b0391821691908781602481865afa90811561191c57600091613298575b50161561329057604051638209c69960e01b815260048101859052908690829060249082905afa90811561191c57600091613263575b501561325c5761321582867ff1cd7e1d668275f9d580c0adbf414afb0b7163a48f0bed7353f9cbab029b7975976132579551830101910161302e565b9061322a61322383866132fe565b91826130b1565b613249613241866000526002602052604060002090565b91825461299f565b9055604051948594856130fb565b0390a1565b5050505050565b6132839150863d8811613289575b61327b818361077e565b810190613016565b386131d9565b503d613271565b505050505050565b6132af9150883d8a1161222457612215818361077e565b386131a3565b6132cc9150863d881161222457612215818361077e565b3861316a565b90816020910312610419575161055881611026565b6040906105589392815281602082015201906130c4565b600480549192909161331a90612142906001600160a01b031681565b91604091825193634d3f464760e11b855260209485818581855afa90811561191c576000916135cd575b50845163b9f7fe5360e01b815286818681865afa90811561191c576000916135b0575b50855163ccc16f6960e01b815285810189815290986001600160a01b039390919084169089908b9081906020010381845afa998a1561191c5760009a613587575b5087516312903cd960e11b8152878101928352929189918491829081906020015b03915afa801561191c5783899261340f94600093613558575b5089516387e2d55360e01b81528981019c8d5260ff90931660208d01521699909283918291604090910190565b03818b5afa90811561191c5760009161353b575b5060649781613438575b505050505050505090565b8798509086979161346394959697518080968194637f1e7d4160e01b83528b83019190602083019252565b03915afa91821561191c578593889160009461351c575b5087516360295fdb60e11b815296879182905afa92831561191c576134bd9688966000956134fd575b50516301cc047760e71b81529687958694859384016132e7565b0392165afa91821561191c576000926134e0575b5050388080808080808061342d565b6134f69250803d1061191557611907818361077e565b38806134d1565b613515919550873d891161222457612215818361077e565b93386134a3565b613534919450823d841161191557611907818361077e565b923861347a565b6135529150873d891161191557611907818361077e565b38613423565b613579919350843d8611613580575b613571818361077e565b8101906132d2565b91386133e2565b503d613567565b89919a50916135a66133c99493833d851161191557611907818361077e565b9a915091926133a8565b6135c79150873d891161222457612215818361077e565b38613367565b6135e49150863d881161222457612215818361077e565b38613344565b9390929196956117bf6136c3916136bd8a61363f8160018060a01b03166000527f5ab42ced628888259c08ac98db1eb0cf702fc1501344311d8b100cd1bfe4bb00602052604060002080549060018201905590565b61364a36888a6107e8565b602081519101208b5160208d0120906040519260208401947f3e83946653575f9a39005e1545185629e92736b7528ab20ca3816f315424a81186528d604086015260ff8d16606086015260018060a01b0316608085015260a084015260c083015260e082015260e081526117b181610762565b8a614b98565b6136de576105589596916136d89136916107e8565b92612e14565b6040516394ab6c0760e01b81526001600160a01b0388166004820152602490fd5b916105589391604051936137128561072c565b60008552612e14565b93909260ff6137479361055897958752166020860152604085015260a0606085015260a0840190610522565b916080818403910152610522565b909260ff6080936105589695845216602083015260408201528160608201520190610522565b929190613787846122ac565b6008811015610acc576002600160ff83161b161561384957506137b86137b26120f561232687612260565b8261483f565b946137c586848488613881565b805161380d57506138077fb8e138887d0aa13bab447e82de9d5c1777041ecd21ca36ba824ff1e6c07ddda4938660405194859460018060a01b03169785613755565b0390a290565b613807907fe2babfbac5889a709b63bb7f598b324e08bc5a4fb9ec647fb3cbc9ec07eb8712948760405195869560018060a01b0316988661371b565b6040516331b75e4d60e01b81526004810186905260649161386e906024830190610e4e565b60026044820152fd5b60041115610acc57565b61389760ff916000526000602052604060002090565b9216906003821461396f576001600160a01b038116600090815260038401602081905260409091206138c890612e56565b61394e576138f8916138eb919060018060a01b0316600052602052604060002090565b805460ff19166001179055565b8061390e57509061390a90825461299f565b9055565b600181036139265750600161390a910191825461299f565b60020361393c57600261390a910191825461299f565b6040516303599be160e11b8152600490fd5b6040516371c6af4960e01b81526001600160a01b0383166004820152602490fd5b50505050565b33300361397e57565b6040516347096e4760e01b8152336004820152602490fd5b6040906139b26000939594606083019683526020830190610e4e565b0152565b908151811015610dc5570160200190565b815160348110613a7e5760131981840101516001600160a01b0319166b1b91f1b211f2119351b859f160a31b01613a7e5791600092613a0581612cbd565b915b818310613a22575050506001600160a01b0391821691161490565b909193613a48613a43613a3587856139b6565b516001600160f81b03191690565b613a86565b919015613a735760041b6010600160a01b031660ff919091161793613a6c90612a8b565b9190613a07565b505050505050600190565b505050600190565b60f81c9081602f1080613afa575b15613aa657600191602f190160ff1690565b8160401080613af0575b15613ac2576001916036190160ff1690565b8160601080613ae6575b15613ade576001916056190160ff1690565b600091508190565b5060678210613acc565b5060478210613ab0565b50603a8210613a94565b90613b756107cb92613b14614893565b613b1c614893565b6000805160206154d483398151915280547fc565b045403dc03c2eea82b81a0465edad9e2e7fc4d97e11421c209da93d7a936040805165ffffffffffff8416815260006020820152a165ffffffffffff19169055613b7a565b613c0c565b63ffffffff90818116908115613bf35769ffffffff000000000000907f7e3f7f0708a84de9203036abaa450dccc85ad5ff52f78c170f3edb55cf5e882860406000805160206154d4833981519152958654958251918760301c1682526020820152a160301b169069ffffffff0000000000001916179055565b60405163f1cfbf0560e01b815260006004820152602490fd5b7ed7616c8fe29c6c2fbe1d0c5bc8f2faa4c35b43746e70b24b4d532752affd00805460408051918252602082018490527fccb45da8d5717e6c4544694297c4ba5cf151d455c9bb0ed4fc7a38411bc0546191a155565b7f7fd223d3380145bd26132714391e777c488a0df7ac2dd4b66419d8549fb3a600805490600160401b8210156107275760018201808255821015610dc5576000527f417ab5363cd721cbd7a5446b963bb4274a7db26ef2bb28819834095c165ca17a0155565b91818110613cd557505050565b6107cb92600052602060002091820191016124f2565b8151916001600160401b03831161072757600160401b831161072757613d1683835481855584613cc8565b602080910191600052806000209060005b848110613d35575050505050565b83518382015592810192600101613d27565b91909182516001600160401b03811161072757613d6e81613d6884546124b8565b84612619565b602080601f8311600114613d9e5750819293946000926124185750508160011b916000199060031b1c1916179055565b90601f19831695613db485600052602060002090565b926000905b888210613dd75750508360019596971061248757505050811b019055565b80600185968294968601518155019501930190613db9565b815191600160401b8311610727578154838355808410613e4d575b50613e1f602080920192600052602060002090565b6000925b848410613e31575050505050565b60018382613e4183945186613d47565b01920193019290613e23565b6000838152846020822092830192015b828110613e6b575050613e0a565b80613e78600192546124b8565b80613e85575b5001613e5d565b601f908181118414613e9d5750508281555b38613e7e565b83613ebf92613eb185600052602060002090565b920160051c820191016124f2565b60008181526020812081835555613e97565b90805180516001600160401b03811161072757600160401b811161072757613efe81855481875586613cc8565b6020809201846000528260002060005b838110613f46575050505081613f2e606092600394015160018601613ceb565b613f3f604082015160028601613def565b0151910155565b82516001600160a01b03168282015591840191600101613f0e565b919493948351613f796020860191822083858761286f565b948451845190818114801590614157575b801561414f575b61412657505065ffffffffffff80613fab61232689612260565b166140ff57869798610558976140af84897f7d84a6263ae0d98d3329bd7b46bb4e8d6f98cd35a7adb45c274c8b7fd5ebd5e0958963ffffffff61400a613fef6146ab565b6000805160206154d48339815191525494808616911661299f565b9260301c1661408d61401b88612260565b80546001600160a01b0319166001600160a01b038b1617815561406461404086614d66565b825465ffffffffffff60a01b191660a09190911b65ffffffffffff60a01b16178255565b61406d83614d98565b815463ffffffff60d01b191660d09190911b63ffffffff60d01b16179055565b8c6140a261409b8651614162565b928561299f565b94604051998a998a6141ac565b0390a16140bb87613c62565b519020916140c761079f565b9384526020840152604083015260608201526140fa836000526000805160206155b4833981519152602052604060002090565b613ed1565b86614109816122ac565b6040516331b75e4d60e01b81529182916117ff9160048401613996565b8451604051630447b05d60e41b8152600481019290925260248201526044810191909152606490fd5b508015613f91565b508451811415613f8a565b9061416c82610893565b614179604051918261077e565b828152809261418a601f1991610893565b019060005b82811061419b57505050565b80606060208093850101520161418f565b95926141df906141ed939b9a9899969592885260209b60018060a01b03168c8901526101208060408a0152880190610ad1565b908682036060880152610b0e565b9784890360808601528251808a52818a019180808360051b8d01019501926000905b83821061424c575050505050610558969750906142339184820360a0860152610b42565b9360c083015260e0820152610100818403910152610522565b9091929395838061426b8f93600194601f199082030186528a51610522565b9801920192019093929161420f565b9060405191828154918282526020928383019160005283600020936000905b8282106142af575050506107cb9250038361077e565b85546001600160a01b031684526001958601958895509381019390910190614299565b9060405191828154918282526020928383019160005283600020936000905b828210614307575050506107cb9250038361077e565b8554845260019586019588955093810193909101906142f1565b9081549161432e83610893565b9260409161433e8351958661077e565b81855260009081526020808220938291908188015b8584106143635750505050505050565b8151838692895492614374846124b8565b8082526001948086169081156143e257506001146143aa575b5061439c81600196038261077e565b815201970193019295614353565b8b8a52838a20955089905b8082106143cb575081018301945061439c61438d565b8654838301860152958501958894909101906143b5565b60ff19168584015250151560051b81018301945061439c61438d565b6000526000805160206155b4833981519152602052614442604060002060038101549061442a8161427a565b9061443c6002610eda600184016142d2565b91612ac4565b50565b806000526000805160206155b483398151915260205260406000209160405190608082018281106001600160401b03821117610727576040526144878461427a565b8252614495600185016142d2565b916020810192835260036144ab60028701614321565b95604083019687520154936060820194808652156144d25750519151935192519193929190565b604051636ad0607560e01b81526004810191909152602490fd5b6144f4614893565b6144fc614893565b7f0553476bf02ef2726e8ce5ced78d63e26e602e4a2257b1f559418e24b463399760406001600160d01b0361452f614fea565b1661454061453b6146ab565b61515a565b505081519081526113ec6020820152a1565b6000805160206154f483398151915280549160001983018381116120a357831115610dc5576000928284527f293b0181c8ec34cd3252e741689bdc21b70ee7a0ec76216439035a5c3718909a8101549165ffffffffffff9281848216111561466157506145be90614d66565b8490826005811161460c575b506145d5935061543d565b806145e85750506001600160d01b031690565b6145f190612ccc565b9152600080516020615514833981519152015460301c612eed565b909261461782614eaa565b82039182116120a3576145d59486885280836000805160206155148339815191520154169085161060001461464f5750915b386145ca565b92915061465b90612991565b90614649565b94505050505060301c90565b614675614893565b61467d614893565b60008051602061557483398151915280546001600160a01b0319166001600160a01b03909216919091179055565b600080516020615574833981519152546040516324776b7d60e21b815290602090829060049082906001600160a01b03165afa600091816146f6575b50610558575061055843614d66565b90916020823d821161472a575b816147106020938361077e565b8101031261064f57505161472381611352565b90386146e7565b3d9150614703565b6040519061473f8261070c565b601d82527f6d6f64653d626c6f636b6e756d6265722666726f6d3d64656661756c740000006020830152565b60008051602061557483398151915254604051634bf5d7e960e01b8152906000908190839060049082906001600160a01b03165afa909182826147b8575b50506105585750610558614732565b909192503d8082843e6147cb818461077e565b820191602081840312614837578051906001600160401b03821161483b570182601f8201121561483757805191614801836107cd565b9361480f604051958661077e565b8385526020848401011161064f57509061482f91602080850191016104ff565b9038806147a9565b5080fd5b8280fd5b60008051602061557483398151915254604051630748d63560e31b81526001600160a01b039283166004820152602481019390935260209183916044918391165afa90811561191c57600091612de4575090565b60ff6000805160206155f48339815191525460401c16156148b057565b604051631afcd79f60e31b8152600490fd5b6042906148cd61495a565b6148d5614a77565b6040519060208201927f8b73c3c69bb8fe3d512ecc4cf759cc79239f7b179b0ffacaa9a75d522b39400f8452604083015260608201524660808201523060a082015260a0815261492481610747565b519020906040519161190160f01b8352600283015260228201522090565b60405161494e8161072c565b60008152906000368137565b604051600090600080516020615534833981519152918183549161497d836124b8565b808352602093848401966001918281169081600014614a575750600114614a0c575b5050506149ae9250038261077e565b519081156149ba572090565b50507fa16a46d94261c7517cc8ff89f61c0ce93598e3c849801011dee649a6a557d1005480156149e75790565b507fc5d2460186f7233c927e7db2dcc703c0e500b653ca82273b7bfad8045d85a47090565b600090815260008051602061559483398151915295935091905b818310614a3f5750506149ae935082010138808061499f565b85548784018501529485019486945091830191614a26565b925050506149ae94925060ff19168652151560051b82010138808061499f565b6040516000906000805160206155548339815191529181835491614a9a836124b8565b808352602093848401966001918281169081600014614b4f5750600114614b04575b505050614acb9250038261077e565b51908115614ad7572090565b50507fa16a46d94261c7517cc8ff89f61c0ce93598e3c849801011dee649a6a557d1015480156149e75790565b600090815260008051602061561483398151915295935091905b818310614b37575050614acb9350820101388080614abc565b85548784018501529485019486945091830191614b1e565b92505050614acb94925060ff19168652151560051b820101388080614abc565b9091906107cb5750805115614b8657805190602001fd5b604051630a12f52160e11b8152600490fd5b614ba28383614c61565b50614baf81959295613877565b159384614c4b575b508315614bc5575b50505090565b6000929350908291604051614bfe816128896020820194630b135d3f60e11b998a87526024840152604060448401526064830190610522565b51915afa90614c0b612b7a565b82614c3d575b82614c21575b5050388080614bbf565b9091506020818051810103126104195760200151143880614c17565b915060208251101591614c11565b6001600160a01b03838116911614935038614bb7565b8151919060418303614c9257614c8b92506020820151906060604084015193015160001a90614c9d565b9192909190565b505060009160029190565b91907f7fffffffffffffffffffffffffffffff5d576e7357a4501ddfe92f46681b20a08411614d1557926020929160ff608095604051948552168484015260408301526060820152600092839182805260015afa1561191c5780516001600160a01b03811615614d0c57918190565b50809160019190565b50505060009160039190565b9080821015614d2e575090565b905090565b6001600160d01b0390818111614d47571690565b604490604051906306dfcc6560e41b825260d060048301526024820152fd5b65ffffffffffff90818111614d79571690565b604490604051906306dfcc6560e41b8252603060048301526024820152fd5b63ffffffff90818111614da9571690565b604490604051906306dfcc6560e41b8252602060048301526024820152fd5b90815460008160058111614e5f575b509190915b828110614e0f57505060008115600014614df857505050600090565b614e03602092612ccc565b92815220015460301c90565b90918082169080831860011c82018092116120a3578460005265ffffffffffff8083602060002001541690851610600014614e4d5750915b90614ddc565b929150614e5990612991565b90614e47565b9091614e6a82614eaa565b82039182116120a35784835265ffffffffffff80836020862001541690851610600014614e9a5750905b38614dd7565b9150614ea590612991565b614e94565b8015614fe45780614f7d614f76614f6c614f62614f58614f4e614f44614f3a60016105589a6000908b60801c80614fd8575b508060401c80614fcb575b508060201c80614fbe575b508060101c80614fb1575b508060081c80614fa4575b508060041c80614f97575b508060021c80614f8a575b50821c614f83575b811c1b614f33818b61227d565b0160011c90565b614f33818a61227d565b614f33818961227d565b614f33818861227d565b614f33818761227d565b614f33818661227d565b614f33818561227d565b809261227d565b90614d21565b8101614f26565b6002915091019038614f1e565b6004915091019038614f13565b6008915091019038614f08565b6010915091019038614efd565b6020915091019038614ef2565b6040915091019038614ee7565b91505060809038614edc565b50600090565b6000805160206154f483398151915280546000918161500b57505050600090565b816000198101116120a3577f293b0181c8ec34cd3252e741689bdc21b70ee7a0ec76216439035a5c3718909a9252015460301c90565b80546000918161505357505050600090565b6000199282848101116120a35760209181522001015460301c90565b6000805160206154f4833981519152908154600160401b8110156107275760018101808455811015610dc557600092909252805160209091015160301b65ffffffffffff191665ffffffffffff91909116176000805160206155148339815191529190910155565b908154600160401b8110156107275760018101808455811015610dc55760009283526020928390208251929093015160301b65ffffffffffff191665ffffffffffff9290921691909117910155565b90604051604081018181106001600160401b0382111761072757604052915465ffffffffffff8116835260301c6020830152565b6000805160206154f483398151915254801561525b576151a96151a461517f83612ccc565b6000805160206154f48339815191526000526000805160206155148339815191520190565b615126565b805165ffffffffffff848116939116831061524957615213936020936151d86120f5855165ffffffffffff1690565b0361521a57506151ed61517f61520592612ccc565b6713ec00000000000065ffffffffffff825416179055565b01516001600160d01b031690565b906113ec90565b615244915061523861522a6107be565b65ffffffffffff9092168252565b6113ec8185015261506f565b615205565b604051632520601d60e01b8152600490fd5b506152789061526b61522a6107be565b6113ec602082015261506f565b6000906113ec90565b6000805160206154f483398151915254919291908115615331576152aa6151a461517f84612ccc565b805165ffffffffffff83811694911684106152495785602093615308956152da6120f5865165ffffffffffff1690565b0361530c57506152ef61517f61520593612ccc565b9065ffffffffffff82549181199060301b169116179055565b9190565b9050615244915061531e61522a6107be565b6001600160d01b0387168185015261506f565b615355915061534161522a6107be565b6001600160d01b038416602082015261506f565b60009190565b805492939291908215615419576153846151a461537785612ccc565b8360005260206000200190565b90615395825165ffffffffffff1690565b65ffffffffffff84811691168110615249576153089460209488926153c36120f5875165ffffffffffff1690565b036153e65750615205926153d96152ef92612ccc565b9060005260206000200190565b915050615244916154066153f86107be565b65ffffffffffff9093168352565b6001600160d01b038816828601526150d7565b61535592506154296153f86107be565b6001600160d01b03851660208301526150d7565b905b82811061544b57505090565b90918082169080831860011c82018092116120a3576000805160206154f483398151915260005265ffffffffffff8083600080516020615514833981519152015416908516106000146154a15750915b9061543f565b9291506154ad90612991565b9061549b56fe7c712897014dbe49c045ef1299aa2d5f9e67e48eea4403efa21f1e0f3ac0cb0100d7616c8fe29c6c2fbe1d0c5bc8f2faa4c35b43746e70b24b4d532752affd01e770710421fd2cad75ad828c61aa98f2d77d423a440b67872d0f65554148e000293b0181c8ec34cd3252e741689bdc21b70ee7a0ec76216439035a5c3718909ba16a46d94261c7517cc8ff89f61c0ce93598e3c849801011dee649a6a557d102a16a46d94261c7517cc8ff89f61c0ce93598e3c849801011dee649a6a557d1033ba4977254e415696610a40ebf2258dbfa0ec6a2ff64e84bfe715ff16977cc0042ad5d3e1f2e6e70edcf6d991b8a3023d3fca8047a131592f9edb9fd9b89d57d7fd223d3380145bd26132714391e777c488a0df7ac2dd4b66419d8549fb3a6017c712897014dbe49c045ef1299aa2d5f9e67e48eea4403efa21f1e0f3ac0cb00f0c57e16840df040f15088dc2f81fe391c3923bec73e23a9662efc9c229c6a005f9ce34815f8e11431c7bb75a8e6886a91478f7ffc1dbb0a98dc240fddd76b75a2646970667358221220cd58635f174c28bd1092ca44157c95b0212cc0c7db40af17d096f086a78d210564736f6c63430008140033","linkReferences":{}},"methodIdentifiers":{"BALLOT_TYPEHASH()":"deaaa7cc","CLOCK_MODE()":"4bf5d7e9","COUNTING_MODE()":"dd4e2ba5","EXTENDED_BALLOT_TYPEHASH()":"2fe3e261","cancel(address[],uint256[],bytes[],bytes32)":"452115d6","cancel(uint256)":"40e58ee5","castVote(uint256,uint8)":"56781388","castVoteBySig(uint256,uint8,address,bytes)":"8ff262e3","castVoteWithReason(uint256,uint8,string)":"7b3c71d3","castVoteWithReasonAndParams(uint256,uint8,string,bytes)":"5f398a14","castVoteWithReasonAndParamsBySig(uint256,uint8,address,string,bytes,bytes)":"5b8d0e0d","clock()":"91ddadf4","eip712Domain()":"84b0196e","execute(address[],uint256[],bytes[],bytes32)":"2656227d","execute(uint256)":"fe0d94c1","getMaturity(uint256)":"7f1e7d41","getPastScore(address,uint256)":"209e1f0d","getVotes(address,uint256)":"eb9019d4","getVotesWithParams(address,uint256,bytes)":"9a802a6d","hasVoted(uint256,address)":"43859632","hashProposal(address[],uint256[],bytes[],bytes32)":"c59057e4","initialize(string,address,address,uint256,uint32)":"718f7cd4","name()":"06fdde03","nonces(address)":"7ecebe00","onERC1155BatchReceived(address,address,uint256[],uint256[],bytes)":"bc197c81","onERC1155Received(address,address,uint256,uint256,bytes)":"f23a6e61","onERC721Received(address,address,uint256,bytes)":"150b7a02","proposalCount()":"da35c664","proposalDeadline(uint256)":"c01f9e37","proposalDetails(uint256)":"16e9eaec","proposalDetailsAt(uint256)":"2e82db94","proposalEta(uint256)":"ab58fb8e","proposalNeedsQueuing(uint256)":"a9a95294","proposalProposer(uint256)":"143489d0","proposalSnapshot(uint256)":"2d63f693","proposalThreshold()":"b58131b0","proposalVotes(uint256)":"544ffc9c","propose(address[],uint256[],bytes[],string)":"7d5e81e2","queue(address[],uint256[],bytes[],bytes32)":"160cbed7","queue(uint256)":"ddf0b009","quorum(uint256)":"f8ce560a","quorumDenominator()":"97c3d334","quorumNumerator()":"a7713a70","quorumNumerator(uint256)":"60c4247f","relay(address,uint256,bytes)":"c28bc2fa","scoreOf(address)":"133af456","setProposalThreshold(uint256)":"ece40cc1","setVotingDelay(uint48)":"79051887","setVotingPeriod(uint32)":"e540d01d","state(uint256)":"3e4f49e6","supportsInterface(bytes4)":"01ffc9a7","token()":"fc0c546a","totalScore()":"c006719f","updateQuorumNumerator(uint256)":"06f3f9e6","version()":"54fd4d50","votingDelay()":"3932abb1","votingPeriod()":"02a251a3"},"id":7}