{"abi":[{"type":"function","name":"ADMIN_ROLE","inputs":[],"outputs":[{"name":"","type":"bytes32","internalType":"bytes32"}],"stateMutability":"view"},{"type":"function","name":"DEFAULT_ADMIN_ROLE","inputs":[],"outputs":[{"name":"","type":"bytes32","internalType":"bytes32"}],"stateMutability":"view"},{"type":"function","name":"agentNft","inputs":[],"outputs":[{"name":"","type":"address","internalType":"contract IAgentNft"}],"stateMutability":"view"},{"type":"function","name":"getRoleAdmin","inputs":[{"name":"role","type":"bytes32","internalType":"bytes32"}],"outputs":[{"name":"","type":"bytes32","internalType":"bytes32"}],"stateMutability":"view"},{"type":"function","name":"grantRole","inputs":[{"name":"role","type":"bytes32","internalType":"bytes32"},{"name":"account","type":"address","internalType":"address"}],"outputs":[],"stateMutability":"nonpayable"},{"type":"function","name":"hasRole","inputs":[{"name":"role","type":"bytes32","internalType":"bytes32"},{"name":"account","type":"address","internalType":"address"}],"outputs":[{"name":"","type":"bool","internalType":"bool"}],"stateMutability":"view"},{"type":"function","name":"inferenceCount","inputs":[{"name":"agentId","type":"uint256","internalType":"uint256"}],"outputs":[{"name":"","type":"uint256","internalType":"uint256"}],"stateMutability":"view"},{"type":"function","name":"initialize","inputs":[{"name":"defaultAdmin_","type":"address","internalType":"address"},{"name":"token_","type":"address","internalType":"address"},{"name":"agentNft_","type":"address","internalType":"address"}],"outputs":[],"stateMutability":"nonpayable"},{"type":"function","name":"prompt","inputs":[{"name":"promptHash","type":"bytes32","internalType":"bytes32"},{"name":"agentIds","type":"uint256[]","internalType":"uint256[]"},{"name":"amounts","type":"uint256[]","internalType":"uint256[]"},{"name":"coreIds","type":"uint8[][]","internalType":"uint8[][]"}],"outputs":[],"stateMutability":"nonpayable"},{"type":"function","name":"promptMulti","inputs":[{"name":"promptHashes","type":"bytes32[]","internalType":"bytes32[]"},{"name":"agentIds","type":"uint256[]","internalType":"uint256[]"},{"name":"amounts","type":"uint256[]","internalType":"uint256[]"},{"name":"coreIds","type":"uint8[][]","internalType":"uint8[][]"}],"outputs":[],"stateMutability":"nonpayable"},{"type":"function","name":"renounceRole","inputs":[{"name":"role","type":"bytes32","internalType":"bytes32"},{"name":"callerConfirmation","type":"address","internalType":"address"}],"outputs":[],"stateMutability":"nonpayable"},{"type":"function","name":"revokeRole","inputs":[{"name":"role","type":"bytes32","internalType":"bytes32"},{"name":"account","type":"address","internalType":"address"}],"outputs":[],"stateMutability":"nonpayable"},{"type":"function","name":"supportsInterface","inputs":[{"name":"interfaceId","type":"bytes4","internalType":"bytes4"}],"outputs":[{"name":"","type":"bool","internalType":"bool"}],"stateMutability":"view"},{"type":"function","name":"token","inputs":[],"outputs":[{"name":"","type":"address","internalType":"contract IERC20"}],"stateMutability":"view"},{"type":"event","name":"Initialized","inputs":[{"name":"version","type":"uint64","indexed":false,"internalType":"uint64"}],"anonymous":false},{"type":"event","name":"Prompt","inputs":[{"name":"sender","type":"address","indexed":true,"internalType":"address"},{"name":"promptHash","type":"bytes32","indexed":false,"internalType":"bytes32"},{"name":"agentId","type":"uint256","indexed":false,"internalType":"uint256"},{"name":"cost","type":"uint256","indexed":false,"internalType":"uint256"},{"name":"coreIds","type":"uint8[]","indexed":false,"internalType":"uint8[]"}],"anonymous":false},{"type":"event","name":"RoleAdminChanged","inputs":[{"name":"role","type":"bytes32","indexed":true,"internalType":"bytes32"},{"name":"previousAdminRole","type":"bytes32","indexed":true,"internalType":"bytes32"},{"name":"newAdminRole","type":"bytes32","indexed":true,"internalType":"bytes32"}],"anonymous":false},{"type":"event","name":"RoleGranted","inputs":[{"name":"role","type":"bytes32","indexed":true,"internalType":"bytes32"},{"name":"account","type":"address","indexed":true,"internalType":"address"},{"name":"sender","type":"address","indexed":true,"internalType":"address"}],"anonymous":false},{"type":"event","name":"RoleRevoked","inputs":[{"name":"role","type":"bytes32","indexed":true,"internalType":"bytes32"},{"name":"account","type":"address","indexed":true,"internalType":"address"},{"name":"sender","type":"address","indexed":true,"internalType":"address"}],"anonymous":false},{"type":"error","name":"AccessControlBadConfirmation","inputs":[]},{"type":"error","name":"AccessControlUnauthorizedAccount","inputs":[{"name":"account","type":"address","internalType":"address"},{"name":"neededRole","type":"bytes32","internalType":"bytes32"}]},{"type":"error","name":"AddressEmptyCode","inputs":[{"name":"target","type":"address","internalType":"address"}]},{"type":"error","name":"AddressInsufficientBalance","inputs":[{"name":"account","type":"address","internalType":"address"}]},{"type":"error","name":"FailedInnerCall","inputs":[]},{"type":"error","name":"InvalidInitialization","inputs":[]},{"type":"error","name":"NotInitializing","inputs":[]},{"type":"error","name":"ReentrancyGuardReentrantCall","inputs":[]},{"type":"error","name":"SafeERC20FailedOperation","inputs":[{"name":"token","type":"address","internalType":"address"}]}],"bytecode":{"object":"0x608080604052346015576113cf908161001b8239f35b600080fdfe608080604052600436101561001357600080fd5b60003560e01c90816301ffc9a714610a1657508063248a9ca3146109f05780632f2ff15d146109bf57806330b731971461099357806336568abe1461094d5780636ffa22bf1461064a57806375b238fc1461060f57806391d14854146105b55780639cbef4a91461058c578063a14ea29914610314578063a217fddf146102f8578063c0c53b8b1461011f578063d547741f146100e75763fc0c546a146100b957600080fd5b346100e25760003660031901126100e2576001546040516001600160a01b039091168152602090f35b600080fd5b346100e25760403660031901126100e25761011d600435610106610a69565b9061011861011382610c04565b610e68565b6110db565b005b346100e25760603660031901126100e2576004356001600160a01b03811681036100e25761014b610a69565b6044356001600160a01b03811691908290036100e25760008051602061137a8339815191525460ff8160401c1615936001600160401b038216801590816102f0575b60011490816102e6575b1590816102dd575b506102cc5767ffffffffffffffff19821660011760008051602061137a83398151915255610207918561029f575b506101d66112aa565b6101de6112aa565b6101e66112aa565b600160008051602061135a8339815191525561020181610eb2565b50610f86565b5060018060a01b03166bffffffffffffffffffffffff60a01b60015416176001556bffffffffffffffffffffffff60a01b600254161760025561024657005b68ff00000000000000001960008051602061137a833981519152541660008051602061137a833981519152557fc7f505b2f371ae2175ee4913f4499e1f2633a7b5936321eed1cdaeb6115181d2602060405160018152a1005b68ffffffffffffffffff1916680100000000000000011760008051602061137a83398151915255856101cd565b63f92ee8a960e01b60005260046000fd5b9050158661019f565b303b159150610197565b86915061018d565b346100e25760003660031901126100e257602060405160008152f35b346100e25760803660031901126100e2576004356024356001600160401b0381116100e257610347903690600401610acd565b906044356001600160401b0381116100e257610367903690600401610acd565b6064356001600160401b0381116100e257610386903690600401610b2a565b9061038f61117b565b6000916103a88551835181149081610581575b50610c25565b6000925b82518410156103d4576103cc6001916103c58686610c61565b5190610c8b565b9301926103ac565b6001546040516370a0823160e01b815233600482015292959450602090839060249082906001600160a01b03165afa801561052d5760009061054d575b61041d92501015610cae565b60005b8451811015610539578061043660249287610c61565b51600254604051635652386760e11b8152600481018390529360009185919082906001600160a01b03165afa92831561052d5760019361049f9160009161050c575b5060600151845460a086901b86900390811691166104968588610c61565b519133906111b7565b80600052600060205260406000206104b78154610e09565b90557f0e03c4b7e9e76107bd2bbd9278ade04842e22e3aaab7bc23306f9c11073f852b6104e48386610c61565b516104ef8489610c61565b519061050360405192839233968b85610e18565b0390a201610420565b610527913d8091833e61051f8183610a7f565b810190610d05565b89610478565b6040513d6000823e3d90fd5b600160008051602061135a83398151915255005b506020823d602011610579575b8161056760209383610a7f565b810103126100e25761041d9151610411565b3d915061055a565b9050825114876103a2565b346100e25760003660031901126100e2576002546040516001600160a01b039091168152602090f35b346100e25760403660031901126100e2576105ce610a69565b60043560005260008051602061133a83398151915260205260406000209060018060a01b0316600052602052602060ff604060002054166040519015158152f35b346100e25760003660031901126100e25760206040517fa49807205ce4d355092ef5a8a18f56e8913cf4a201fbe287825b095693c217758152f35b346100e25760803660031901126100e2576004356001600160401b0381116100e257366023820112156100e25780600401359061068682610ab6565b916106946040519384610a7f565b8083526024602084019160051b830101913683116100e257602401905b82821061093d57836024356001600160401b0381116100e2576106d8903690600401610acd565b906044356001600160401b0381116100e2576106f8903690600401610acd565b6064356001600160401b0381116100e257610717903690600401610b2a565b9261072061117b565b6000928151938351851480610933575b80610929575b61073f90610c25565b6000905b858210610911576001546040516370a0823160e01b81523360048201529250602090839060249082906001600160a01b03165afa801561052d576000906108dd575b61079192501015610cae565b60009160005b8581106107b257600160008051602061135a83398151915255005b84876107be8385610c61565b518061085f575b82917f0e03c4b7e9e76107bd2bbd9278ade04842e22e3aaab7bc23306f9c11073f852b916108566108478761084081610839818f8f90829d60019f91600161081a93816104969260a01b036001541693610c61565b88600052600060205260406000206108328154610e09565b9055610c61565b5198610c61565b5194610c61565b51604051938493339785610e18565b0390a201610797565b92955050506024600060018060a01b036002541660405192838092635652386760e11b82528660048301525afa91821561052d57858988928784849785976000916108c4575b50606001516001600160a01b03169a5094955091935091506107c59050565b6108d7913d8091833e61051f8183610a7f565b8f6108a5565b506020823d602011610909575b816108f760209383610a7f565b810103126100e2576107919151610785565b3d91506108ea565b6109216001916103c58488610c61565b910190610743565b5081518514610736565b5085518514610730565b81358152602091820191016106b1565b346100e25760403660031901126100e257610966610a69565b336001600160a01b038216036109825761011d906004356110db565b63334bd91960e11b60005260046000fd5b346100e25760203660031901126100e25760043560005260006020526020604060002054604051908152f35b346100e25760403660031901126100e25761011d6004356109de610a69565b906109eb61011382610c04565b611032565b346100e25760203660031901126100e2576020610a0e600435610c04565b604051908152f35b346100e25760203660031901126100e2576004359063ffffffff60e01b82168092036100e257602091637965db0b60e01b8114908115610a58575b5015158152f35b6301ffc9a760e01b14905083610a51565b602435906001600160a01b03821682036100e257565b90601f801991011681019081106001600160401b03821117610aa057604052565b634e487b7160e01b600052604160045260246000fd5b6001600160401b038111610aa05760051b60200190565b9080601f830112156100e2578135610ae481610ab6565b92610af26040519485610a7f565b81845260208085019260051b8201019283116100e257602001905b828210610b1a5750505090565b8135815260209182019101610b0d565b81601f820112156100e257803590610b4182610ab6565b92610b4f6040519485610a7f565b82845260208085019360051b830101918183116100e25760208101935b838510610b7b57505050505090565b84356001600160401b0381116100e257820183603f820112156100e2576020810135610ba681610ab6565b91610bb46040519384610a7f565b8183526020808085019360051b83010101908682116100e257604001915b818310610bea57505050815260209485019401610b6c565b823560ff811681036100e257815260209283019201610bd2565b60005260008051602061133a83398151915260205260016040600020015490565b15610c2c57565b60405162461bcd60e51b815260206004820152600d60248201526c125b9d985b1a59081a5b9c1d5d609a1b6044820152606490fd5b8051821015610c755760209160051b010190565b634e487b7160e01b600052603260045260246000fd5b91908201809211610c9857565b634e487b7160e01b600052601160045260246000fd5b15610cb557565b60405162461bcd60e51b8152602060048201526014602482015273496e73756666696369656e742062616c616e636560601b6044820152606490fd5b51906001600160a01b03821682036100e257565b6020818303126100e2578051906001600160401b0382116100e257019060a0828203126100e2576040519160a083018381106001600160401b03821117610aa057604052610d5281610cf1565b8352610d6060208201610cf1565b6020840152610d7160408201610cf1565b6040840152610d8260608201610cf1565b60608401526080810151906001600160401b0382116100e257019080601f830112156100e257815190610db482610ab6565b92610dc26040519485610a7f565b82845260208085019360051b8201019182116100e257602001915b818310610def57505050608082015290565b825160ff811681036100e257815260209283019201610ddd565b6000198114610c985760010190565b60a09193602093608083019583528483015260408201526080606082015284518094520192019060005b818110610e4f5750505090565b825160ff16845260209384019390920191600101610e42565b600081815260008051602061133a8339815191526020908152604080832033845290915290205460ff1615610e9a5750565b63e2517d3f60e01b6000523360045260245260446000fd5b6001600160a01b03811660009081527fb16e88c42fd4e48df2dd6a2eabd6bc9aec654ec170056b470819f8892cc6431c602052604090205460ff16610f80576001600160a01b031660008181527fb16e88c42fd4e48df2dd6a2eabd6bc9aec654ec170056b470819f8892cc6431c60205260408120805460ff191660011790553391907fa49807205ce4d355092ef5a8a18f56e8913cf4a201fbe287825b095693c21775907f2f8788117e7eff1d82e926ec794901d17c78024a50270940304540a733656f0d9080a4600190565b50600090565b6001600160a01b03811660009081527fb7db2dd08fcb62d0c9e08c51941cae53c267786a0b75803fb7960902fc8ef97d602052604090205460ff16610f80576001600160a01b031660008181527fb7db2dd08fcb62d0c9e08c51941cae53c267786a0b75803fb7960902fc8ef97d60205260408120805460ff191660011790553391907f2f8788117e7eff1d82e926ec794901d17c78024a50270940304540a733656f0d8180a4600190565b600081815260008051602061133a833981519152602090815260408083206001600160a01b038616845290915290205460ff166110d457600081815260008051602061133a833981519152602090815260408083206001600160a01b0395909516808452949091528120805460ff19166001179055339291907f2f8788117e7eff1d82e926ec794901d17c78024a50270940304540a733656f0d9080a4600190565b5050600090565b600081815260008051602061133a833981519152602090815260408083206001600160a01b038616845290915290205460ff16156110d457600081815260008051602061133a833981519152602090815260408083206001600160a01b0395909516808452949091528120805460ff19169055339291907ff6391f5c32d9c69d2a47ea670b442974b53935d1edc7fd64eb21e047a839171b9080a4600190565b600260008051602061135a83398151915254146111a657600260008051602061135a83398151915255565b633ee5aeb560e01b60005260046000fd5b6040516323b872dd60e01b602082019081526001600160a01b0393841660248301529390921660448301526064808301949094529281529160009182916111ff608486610a7f565b60018060a01b031693519082855af13d1561129e573d6001600160401b038111610aa057611250916040519161123f6020601f19601f8401160184610a7f565b82523d6000602084013e5b836112d8565b805190811515918261127a575b50506112665750565b635274afe760e01b60005260045260246000fd5b81925090602091810103126100e257602001518015908115036100e257388061125d565b6112509060609061124a565b60ff60008051602061137a8339815191525460401c16156112c757565b631afcd79f60e31b60005260046000fd5b906112fe57508051156112ed57805190602001fd5b630a12f52160e11b60005260046000fd5b81511580611330575b61130f575090565b639996b31560e01b60009081526001600160a01b0391909116600452602490fd5b50803b1561130756fe02dd7bc7dec4dceedda775e58dd541e08a116c6c53815c0bd028192f7b6268009b779b17422d0df92223018b32b4d1fa46e071723d6817e2486d003becc55f00f0c57e16840df040f15088dc2f81fe391c3923bec73e23a9662efc9c229c6a00a2646970667358221220b73ce0c3f1164969d0b8a015505c412b29ab54f1c1e8608adc2db54644d24f4b64736f6c634300081a0033","linkReferences":{}},"methodIdentifiers":{"ADMIN_ROLE()":"75b238fc","DEFAULT_ADMIN_ROLE()":"a217fddf","agentNft()":"9cbef4a9","getRoleAdmin(bytes32)":"248a9ca3","grantRole(bytes32,address)":"2f2ff15d","hasRole(bytes32,address)":"91d14854","inferenceCount(uint256)":"30b73197","initialize(address,address,address)":"c0c53b8b","prompt(bytes32,uint256[],uint256[],uint8[][])":"a14ea299","promptMulti(bytes32[],uint256[],uint256[],uint8[][])":"6ffa22bf","renounceRole(bytes32,address)":"36568abe","revokeRole(bytes32,address)":"d547741f","supportsInterface(bytes4)":"01ffc9a7","token()":"fc0c546a"},"id":0}