{"abi":[{"type":"function","name":"addInitialLiquidity","inputs":[{"name":"provider","type":"address","internalType":"address"}],"outputs":[],"stateMutability":"nonpayable"},{"type":"function","name":"initialize","inputs":[{"name":"admins","type":"address[]","internalType":"address[]"},{"name":"nameSymbol","type":"bytes","internalType":"bytes"},{"name":"supplyParams","type":"bytes","internalType":"bytes"},{"name":"taxParams","type":"bytes","internalType":"bytes"}],"outputs":[],"stateMutability":"nonpayable"},{"type":"function","name":"liquidityPools","inputs":[{"name":"","type":"uint256","internalType":"uint256"}],"outputs":[{"name":"","type":"address","internalType":"address"}],"stateMutability":"view"}],"bytecode":{"object":"0x60808060405234601557610346908161001b8239f35b600080fdfe6080604052600436101561001257600080fd5b60003560e01c806359cabbe41461024c57806379d747be1461020a5763c5a92e201461003d57600080fd5b346101e55760803660031901126101e55760043567ffffffffffffffff81116101e557366023820112156101e557806004013567ffffffffffffffff81116101b9578060051b91604051916100956020850184610297565b8252602082019060248294820101903682116101e557602401915b8183106101ea5750505060243567ffffffffffffffff81116101e5576100da9036906004016102b9565b5060443567ffffffffffffffff81116101e5576100fb9036906004016102b9565b5060643567ffffffffffffffff81116101e55761011c9036906004016102b9565b5051156101cf5760018060a01b039051166bffffffffffffffffffffffff60a01b6001541617600155604051602081016104c560f41b815242602283015260228252610169604283610297565b60018060a01b039151902016600054680100000000000000008110156101b957806001610199920160005561027d565b81546001600160a01b0360039290921b91821b191692901b919091179055005b634e487b7160e01b600052604160045260246000fd5b634e487b7160e01b600052603260045260246000fd5b600080fd5b82356001600160a01b03811681036101e5578152602092830192016100b0565b346101e55760203660031901126101e5576004356000548110156101e55761023360209161027d565b905460405160039290921b1c6001600160a01b03168152f35b346101e55760203660031901126101e557610265610267565b005b600435906001600160a01b03821682036101e557565b6000548110156101cf576000805260206000200190600090565b90601f8019910116810190811067ffffffffffffffff8211176101b957604052565b81601f820112156101e55780359067ffffffffffffffff82116101b957604051926102ee601f8401601f191660200185610297565b828452602083830101116101e55781600092602080930183860137830101529056fea26469706673582212200e652ca87b22a77d769b228162c4522877ee33b30323958e4a26c92c9b69555664736f6c634300081a0033","linkReferences":{}},"methodIdentifiers":{"addInitialLiquidity(address)":"59cabbe4","initialize(address[],bytes,bytes,bytes)":"c5a92e20","liquidityPools(uint256)":"79d747be"},"id":9}