{"abi":[{"type":"function","name":"initialize","inputs":[{"name":"name","type":"string","internalType":"string"},{"name":"token","type":"address","internalType":"contract IVotes"},{"name":"nft","type":"address","internalType":"address"},{"name":"threshold","type":"uint256","internalType":"uint256"},{"name":"votingPeriod","type":"uint32","internalType":"uint32"}],"outputs":[],"stateMutability":"nonpayable"}],"bytecode":{"object":"0x60808060405234601557610126908161001b8239f35b600080fdfe60806004361015600e57600080fd5b60003560e01c63718f7cd414602257600080fd5b3460d55760a036600319011260d55760043567ffffffffffffffff811160d5573660238201121560d557806004013567ffffffffffffffff811160da57601f8101601f19908116603f0116830167ffffffffffffffff81118482101760da57604052808352366024828401011160d55760009281602460209401848301370101526024356001600160a01b0381160360d5576044356001600160a01b0381160360d55760843563ffffffff81160360d557005b600080fd5b634e487b7160e01b600052604160045260246000fdfea2646970667358221220bbb3ea45bc09eb73506d8c31fe878c690c5b7bc8e49645761312f0de1b886b1764736f6c634300081a0033","linkReferences":{}},"methodIdentifiers":{"initialize(string,address,address,uint256,uint32)":"718f7cd4"},"id":122}