{"abi":[{"type":"constructor","inputs":[],"stateMutability":"nonpayable"},{"type":"function","name":"ADMIN_ROLE","inputs":[],"outputs":[{"name":"","type":"bytes32","internalType":"bytes32"}],"stateMutability":"view"},{"type":"function","name":"DEFAULT_ADMIN_ROLE","inputs":[],"outputs":[{"name":"","type":"bytes32","internalType":"bytes32"}],"stateMutability":"view"},{"type":"function","name":"EXECUTOR_ROLE","inputs":[],"outputs":[{"name":"","type":"bytes32","internalType":"bytes32"}],"stateMutability":"view"},{"type":"function","name":"getRoleAdmin","inputs":[{"name":"role","type":"bytes32","internalType":"bytes32"}],"outputs":[{"name":"","type":"bytes32","internalType":"bytes32"}],"stateMutability":"view"},{"type":"function","name":"grantRole","inputs":[{"name":"role","type":"bytes32","internalType":"bytes32"},{"name":"account","type":"address","internalType":"address"}],"outputs":[],"stateMutability":"nonpayable"},{"type":"function","name":"hasRole","inputs":[{"name":"role","type":"bytes32","internalType":"bytes32"},{"name":"account","type":"address","internalType":"address"}],"outputs":[{"name":"","type":"bool","internalType":"bool"}],"stateMutability":"view"},{"type":"function","name":"initialize","inputs":[{"name":"defaultAdmin_","type":"address","internalType":"address"},{"name":"taxToken_","type":"address","internalType":"address"}],"outputs":[],"stateMutability":"nonpayable"},{"type":"function","name":"manualRefund","inputs":[{"name":"txhash","type":"bytes32","internalType":"bytes32"},{"name":"recipient","type":"address","internalType":"address"},{"name":"amount","type":"uint256","internalType":"uint256"}],"outputs":[],"stateMutability":"nonpayable"},{"type":"function","name":"refund","inputs":[{"name":"recipient","type":"address","internalType":"address"},{"name":"txhashes","type":"bytes32[]","internalType":"bytes32[]"},{"name":"amounts","type":"uint256[]","internalType":"uint256[]"}],"outputs":[],"stateMutability":"nonpayable"},{"type":"function","name":"refunds","inputs":[{"name":"txhash","type":"bytes32","internalType":"bytes32"}],"outputs":[{"name":"amount","type":"uint256","internalType":"uint256"}],"stateMutability":"view"},{"type":"function","name":"renounceRole","inputs":[{"name":"role","type":"bytes32","internalType":"bytes32"},{"name":"callerConfirmation","type":"address","internalType":"address"}],"outputs":[],"stateMutability":"nonpayable"},{"type":"function","name":"revokeRole","inputs":[{"name":"role","type":"bytes32","internalType":"bytes32"},{"name":"account","type":"address","internalType":"address"}],"outputs":[],"stateMutability":"nonpayable"},{"type":"function","name":"supportsInterface","inputs":[{"name":"interfaceId","type":"bytes4","internalType":"bytes4"}],"outputs":[{"name":"","type":"bool","internalType":"bool"}],"stateMutability":"view"},{"type":"function","name":"taxToken","inputs":[],"outputs":[{"name":"","type":"address","internalType":"address"}],"stateMutability":"view"},{"type":"function","name":"withdraw","inputs":[{"name":"token","type":"address","internalType":"address"}],"outputs":[],"stateMutability":"nonpayable"},{"type":"event","name":"Initialized","inputs":[{"name":"version","type":"uint64","indexed":false,"internalType":"uint64"}],"anonymous":false},{"type":"event","name":"RoleAdminChanged","inputs":[{"name":"role","type":"bytes32","indexed":true,"internalType":"bytes32"},{"name":"previousAdminRole","type":"bytes32","indexed":true,"internalType":"bytes32"},{"name":"newAdminRole","type":"bytes32","indexed":true,"internalType":"bytes32"}],"anonymous":false},{"type":"event","name":"RoleGranted","inputs":[{"name":"role","type":"bytes32","indexed":true,"internalType":"bytes32"},{"name":"account","type":"address","indexed":true,"internalType":"address"},{"name":"sender","type":"address","indexed":true,"internalType":"address"}],"anonymous":false},{"type":"event","name":"RoleRevoked","inputs":[{"name":"role","type":"bytes32","indexed":true,"internalType":"bytes32"},{"name":"account","type":"address","indexed":true,"internalType":"address"},{"name":"sender","type":"address","indexed":true,"internalType":"address"}],"anonymous":false},{"type":"event","name":"TaxRefunded","inputs":[{"name":"txhash","type":"bytes32","indexed":true,"internalType":"bytes32"},{"name":"recipient","type":"address","indexed":false,"internalType":"address"},{"name":"amount","type":"uint256","indexed":false,"internalType":"uint256"}],"anonymous":false},{"type":"error","name":"AccessControlBadConfirmation","inputs":[]},{"type":"error","name":"AccessControlUnauthorizedAccount","inputs":[{"name":"account","type":"address","internalType":"address"},{"name":"neededRole","type":"bytes32","internalType":"bytes32"}]},{"type":"error","name":"AddressEmptyCode","inputs":[{"name":"target","type":"address","internalType":"address"}]},{"type":"error","name":"AddressInsufficientBalance","inputs":[{"name":"account","type":"address","internalType":"address"}]},{"type":"error","name":"FailedInnerCall","inputs":[]},{"type":"error","name":"InvalidInitialization","inputs":[]},{"type":"error","name":"NotInitializing","inputs":[]},{"type":"error","name":"SafeERC20FailedOperation","inputs":[{"name":"token","type":"address","internalType":"address"}]},{"type":"error","name":"TxHashExists","inputs":[{"name":"txhash","type":"bytes32","internalType":"bytes32"}]}],"bytecode":{"object":"0x6080806040523460d2577ff0c57e16840df040f15088dc2f81fe391c3923bec73e23a9662efc9c229c6a005460ff8160401c1660c1576002600160401b03196001600160401b03821601605c575b604051610e8290816100d88239f35b6001600160401b0319166001600160401b039081177ff0c57e16840df040f15088dc2f81fe391c3923bec73e23a9662efc9c229c6a005581527fc7f505b2f371ae2175ee4913f4499e1f2633a7b5936321eed1cdaeb6115181d290602090a13880604d565b63f92ee8a960e01b60005260046000fd5b600080fdfe608080604052600436101561001357600080fd5b60003560e01c90816301ffc9a7146107fe5750806307bd0265146107c35780631fc928ae1461079a578063248a9ca3146107745780632c6434951461071e5780632f2ff15d146106ed57806336568abe146106a7578063485cc9551461050357806351cff8d91461045f5780635faf133b146101de57806375b238fc146101a35780638a1727531461017757806391d148541461011d578063a217fddf146101015763d547741f146100c457600080fd5b346100fc5760403660031901126100fc576100fa6004356100e3610851565b906100f56100f0826108cd565b6109ad565b610d0b565b005b600080fd5b346100fc5760003660031901126100fc57602060405160008152f35b346100fc5760403660031901126100fc57610136610851565b600435600052600080516020610e0d83398151915260205260406000209060018060a01b0316600052602052602060ff604060002054166040519015158152f35b346100fc5760203660031901126100fc5760043560005260016020526020604060002054604051908152f35b346100fc5760003660031901126100fc5760206040517fa49807205ce4d355092ef5a8a18f56e8913cf4a201fbe287825b095693c217758152f35b346100fc5760603660031901126100fc576101f7610867565b60243567ffffffffffffffff81116100fc57366023820112156100fc57806004013590610223826108b5565b91610231604051938461087d565b8083526024602084019160051b830101913683116100fc57602401905b82821061044f575050506044359167ffffffffffffffff83116100fc57366023840112156100fc57826004013592610285846108b5565b93610293604051958661087d565b8085526024602086019160051b830101913683116100fc57602401905b82821061043f5750503360009081527f52fce5e8a5d0d9e8d1ea29f4525e512e9c27bf92cae50374d497f918ab48f382602052604090205460ff161590506104065781518351036103ce5760009060005b83518110156103b5576103148185610911565b5161031f8287610911565b51938160005260016020526040600020546103a057907f8caa0bc1de0055956cd35e5310bb938c106726d05009de06ce9881975b49e6f961039761037587600196958560005287602052816040600020556108ee565b604080516001600160a01b038916815260208101999099529097918291820190565b0390a201610301565b506374e8729760e11b60005260045260246000fd5b6000546100fa90849084906001600160a01b03166109f7565b60405162461bcd60e51b815260206004820152601060248201526f556e6d61746368656420696e7075747360801b6044820152606490fd5b63e2517d3f60e01b600052336004527fd8aa0f3194971a2a116679f7c2090f6939c8d4e01a2a8d7e41d55e5351469e6360245260446000fd5b81358152602091820191016102b0565b813581526020918201910161024e565b346100fc5760203660031901126100fc57610478610867565b61048061093b565b6040516370a0823160e01b8152306004820152906001600160a01b0316602082602481845afa9081156104f7576000916104c1575b6100fa925033906109f7565b90506020823d6020116104ef575b816104dc6020938361087d565b810103126100fc576100fa9151906104b5565b3d91506104cf565b6040513d6000823e3d90fd5b346100fc5760403660031901126100fc5761051c610867565b610524610851565b600080516020610e2d833981519152549160ff8360401c16159267ffffffffffffffff81168015908161069f575b6001149081610695575b15908161068c575b5061067b5767ffffffffffffffff198116600117600080516020610e2d833981519152558361064e575b5060ff600080516020610e2d8339815191525460401c161561063d57806105b76105bd92610ae2565b50610b94565b5060018060a01b03166bffffffffffffffffffffffff60a01b60005416176000556105e457005b68ff000000000000000019600080516020610e2d8339815191525416600080516020610e2d833981519152557fc7f505b2f371ae2175ee4913f4499e1f2633a7b5936321eed1cdaeb6115181d2602060405160018152a1005b631afcd79f60e31b60005260046000fd5b68ffffffffffffffffff19166801000000000000000117600080516020610e2d833981519152558361058e565b63f92ee8a960e01b60005260046000fd5b90501585610564565b303b15915061055c565b859150610552565b346100fc5760403660031901126100fc576106c0610851565b336001600160a01b038216036106dc576100fa90600435610d0b565b63334bd91960e11b60005260046000fd5b346100fc5760403660031901126100fc576100fa60043561070c610851565b906107196100f0826108cd565b610c62565b346100fc5760603660031901126100fc576100fa61073a610851565b6044359061074661093b565b600435600052600160205260406000206107618382546108ee565b90556000546001600160a01b03166109f7565b346100fc5760203660031901126100fc5760206107926004356108cd565b604051908152f35b346100fc5760003660031901126100fc576000546040516001600160a01b039091168152602090f35b346100fc5760003660031901126100fc5760206040517fd8aa0f3194971a2a116679f7c2090f6939c8d4e01a2a8d7e41d55e5351469e638152f35b346100fc5760203660031901126100fc576004359063ffffffff60e01b82168092036100fc57602091637965db0b60e01b8114908115610840575b5015158152f35b6301ffc9a760e01b14905083610839565b602435906001600160a01b03821682036100fc57565b600435906001600160a01b03821682036100fc57565b90601f8019910116810190811067ffffffffffffffff82111761089f57604052565b634e487b7160e01b600052604160045260246000fd5b67ffffffffffffffff811161089f5760051b60200190565b600052600080516020610e0d83398151915260205260016040600020015490565b919082018092116108fb57565b634e487b7160e01b600052601160045260246000fd5b80518210156109255760209160051b010190565b634e487b7160e01b600052603260045260246000fd5b3360009081527fb16e88c42fd4e48df2dd6a2eabd6bc9aec654ec170056b470819f8892cc6431c602052604090205460ff161561097457565b63e2517d3f60e01b600052336004527fa49807205ce4d355092ef5a8a18f56e8913cf4a201fbe287825b095693c2177560245260446000fd5b6000818152600080516020610e0d8339815191526020908152604080832033845290915290205460ff16156109df5750565b63e2517d3f60e01b6000523360045260245260446000fd5b60405163a9059cbb60e01b602082019081526001600160a01b039390931660248201526044808201949094529283526000918291610a3660648661087d565b60018060a01b031693519082855af13d15610ad6573d67ffffffffffffffff811161089f57610a889160405191610a776020601f19601f840116018461087d565b82523d6000602084013e5b83610dab565b8051908115159182610ab2575b5050610a9e5750565b635274afe760e01b60005260045260246000fd5b81925090602091810103126100fc57602001518015908115036100fc573880610a95565b610a8890606090610a82565b6001600160a01b03811660009081527fb7db2dd08fcb62d0c9e08c51941cae53c267786a0b75803fb7960902fc8ef97d602052604090205460ff16610b8e576001600160a01b031660008181527fb7db2dd08fcb62d0c9e08c51941cae53c267786a0b75803fb7960902fc8ef97d60205260408120805460ff191660011790553391907f2f8788117e7eff1d82e926ec794901d17c78024a50270940304540a733656f0d8180a4600190565b50600090565b6001600160a01b03811660009081527fb16e88c42fd4e48df2dd6a2eabd6bc9aec654ec170056b470819f8892cc6431c602052604090205460ff16610b8e576001600160a01b031660008181527fb16e88c42fd4e48df2dd6a2eabd6bc9aec654ec170056b470819f8892cc6431c60205260408120805460ff191660011790553391907fa49807205ce4d355092ef5a8a18f56e8913cf4a201fbe287825b095693c21775907f2f8788117e7eff1d82e926ec794901d17c78024a50270940304540a733656f0d9080a4600190565b6000818152600080516020610e0d833981519152602090815260408083206001600160a01b038616845290915290205460ff16610d04576000818152600080516020610e0d833981519152602090815260408083206001600160a01b0395909516808452949091528120805460ff19166001179055339291907f2f8788117e7eff1d82e926ec794901d17c78024a50270940304540a733656f0d9080a4600190565b5050600090565b6000818152600080516020610e0d833981519152602090815260408083206001600160a01b038616845290915290205460ff1615610d04576000818152600080516020610e0d833981519152602090815260408083206001600160a01b0395909516808452949091528120805460ff19169055339291907ff6391f5c32d9c69d2a47ea670b442974b53935d1edc7fd64eb21e047a839171b9080a4600190565b90610dd15750805115610dc057805190602001fd5b630a12f52160e11b60005260046000fd5b81511580610e03575b610de2575090565b639996b31560e01b60009081526001600160a01b0391909116600452602490fd5b50803b15610dda56fe02dd7bc7dec4dceedda775e58dd541e08a116c6c53815c0bd028192f7b626800f0c57e16840df040f15088dc2f81fe391c3923bec73e23a9662efc9c229c6a00a2646970667358221220226c381b2a7d17bf98d7eef49f5a769f05ec45d29fcb011b12c281d8686bd79b64736f6c634300081a0033","linkReferences":{}},"methodIdentifiers":{"ADMIN_ROLE()":"75b238fc","DEFAULT_ADMIN_ROLE()":"a217fddf","EXECUTOR_ROLE()":"07bd0265","getRoleAdmin(bytes32)":"248a9ca3","grantRole(bytes32,address)":"2f2ff15d","hasRole(bytes32,address)":"91d14854","initialize(address,address)":"485cc955","manualRefund(bytes32,address,uint256)":"2c643495","refund(address,bytes32[],uint256[])":"5faf133b","refunds(bytes32)":"8a172753","renounceRole(bytes32,address)":"36568abe","revokeRole(bytes32,address)":"d547741f","supportsInterface(bytes4)":"01ffc9a7","taxToken()":"1fc928ae","withdraw(address)":"51cff8d9"},"id":51}