{"abi":[{"type":"constructor","inputs":[{"name":"initialOwner","type":"address","internalType":"address"}],"stateMutability":"nonpayable"},{"type":"function","name":"CLOCK_MODE","inputs":[],"outputs":[{"name":"","type":"string","internalType":"string"}],"stateMutability":"view"},{"type":"function","name":"DOMAIN_SEPARATOR","inputs":[],"outputs":[{"name":"","type":"bytes32","internalType":"bytes32"}],"stateMutability":"view"},{"type":"function","name":"allowance","inputs":[{"name":"owner","type":"address","internalType":"address"},{"name":"spender","type":"address","internalType":"address"}],"outputs":[{"name":"","type":"uint256","internalType":"uint256"}],"stateMutability":"view"},{"type":"function","name":"approve","inputs":[{"name":"","type":"address","internalType":"address"},{"name":"","type":"uint256","internalType":"uint256"}],"outputs":[{"name":"","type":"bool","internalType":"bool"}],"stateMutability":"nonpayable"},{"type":"function","name":"balanceOf","inputs":[{"name":"account","type":"address","internalType":"address"}],"outputs":[{"name":"","type":"uint256","internalType":"uint256"}],"stateMutability":"view"},{"type":"function","name":"checkpoints","inputs":[{"name":"account","type":"address","internalType":"address"},{"name":"pos","type":"uint32","internalType":"uint32"}],"outputs":[{"name":"","type":"tuple","internalType":"struct Checkpoints.Checkpoint208","components":[{"name":"_key","type":"uint48","internalType":"uint48"},{"name":"_value","type":"uint208","internalType":"uint208"}]}],"stateMutability":"view"},{"type":"function","name":"clock","inputs":[],"outputs":[{"name":"","type":"uint48","internalType":"uint48"}],"stateMutability":"view"},{"type":"function","name":"decimals","inputs":[],"outputs":[{"name":"","type":"uint8","internalType":"uint8"}],"stateMutability":"view"},{"type":"function","name":"delegate","inputs":[{"name":"delegatee","type":"address","internalType":"address"}],"outputs":[],"stateMutability":"nonpayable"},{"type":"function","name":"delegateBySig","inputs":[{"name":"delegatee","type":"address","internalType":"address"},{"name":"nonce","type":"uint256","internalType":"uint256"},{"name":"expiry","type":"uint256","internalType":"uint256"},{"name":"v","type":"uint8","internalType":"uint8"},{"name":"r","type":"bytes32","internalType":"bytes32"},{"name":"s","type":"bytes32","internalType":"bytes32"}],"outputs":[],"stateMutability":"nonpayable"},{"type":"function","name":"delegates","inputs":[{"name":"account","type":"address","internalType":"address"}],"outputs":[{"name":"","type":"address","internalType":"address"}],"stateMutability":"view"},{"type":"function","name":"eip712Domain","inputs":[],"outputs":[{"name":"fields","type":"bytes1","internalType":"bytes1"},{"name":"name","type":"string","internalType":"string"},{"name":"version","type":"string","internalType":"string"},{"name":"chainId","type":"uint256","internalType":"uint256"},{"name":"verifyingContract","type":"address","internalType":"address"},{"name":"salt","type":"bytes32","internalType":"bytes32"},{"name":"extensions","type":"uint256[]","internalType":"uint256[]"}],"stateMutability":"view"},{"type":"function","name":"getPastTotalSupply","inputs":[{"name":"timepoint","type":"uint256","internalType":"uint256"}],"outputs":[{"name":"","type":"uint256","internalType":"uint256"}],"stateMutability":"view"},{"type":"function","name":"getPastVotes","inputs":[{"name":"account","type":"address","internalType":"address"},{"name":"timepoint","type":"uint256","internalType":"uint256"}],"outputs":[{"name":"","type":"uint256","internalType":"uint256"}],"stateMutability":"view"},{"type":"function","name":"getVotes","inputs":[{"name":"account","type":"address","internalType":"address"}],"outputs":[{"name":"","type":"uint256","internalType":"uint256"}],"stateMutability":"view"},{"type":"function","name":"name","inputs":[],"outputs":[{"name":"","type":"string","internalType":"string"}],"stateMutability":"view"},{"type":"function","name":"nonces","inputs":[{"name":"owner","type":"address","internalType":"address"}],"outputs":[{"name":"","type":"uint256","internalType":"uint256"}],"stateMutability":"view"},{"type":"function","name":"numCheckpoints","inputs":[{"name":"account","type":"address","internalType":"address"}],"outputs":[{"name":"","type":"uint32","internalType":"uint32"}],"stateMutability":"view"},{"type":"function","name":"oracleTransfer","inputs":[{"name":"froms","type":"address[]","internalType":"address[]"},{"name":"tos","type":"address[]","internalType":"address[]"},{"name":"values","type":"uint256[]","internalType":"uint256[]"}],"outputs":[{"name":"","type":"bool","internalType":"bool"}],"stateMutability":"nonpayable"},{"type":"function","name":"owner","inputs":[],"outputs":[{"name":"","type":"address","internalType":"address"}],"stateMutability":"view"},{"type":"function","name":"permit","inputs":[{"name":"owner","type":"address","internalType":"address"},{"name":"spender","type":"address","internalType":"address"},{"name":"value","type":"uint256","internalType":"uint256"},{"name":"deadline","type":"uint256","internalType":"uint256"},{"name":"v","type":"uint8","internalType":"uint8"},{"name":"r","type":"bytes32","internalType":"bytes32"},{"name":"s","type":"bytes32","internalType":"bytes32"}],"outputs":[],"stateMutability":"nonpayable"},{"type":"function","name":"renounceOwnership","inputs":[],"outputs":[],"stateMutability":"nonpayable"},{"type":"function","name":"symbol","inputs":[],"outputs":[{"name":"","type":"string","internalType":"string"}],"stateMutability":"view"},{"type":"function","name":"totalSupply","inputs":[],"outputs":[{"name":"","type":"uint256","internalType":"uint256"}],"stateMutability":"view"},{"type":"function","name":"transfer","inputs":[{"name":"","type":"address","internalType":"address"},{"name":"","type":"uint256","internalType":"uint256"}],"outputs":[{"name":"","type":"bool","internalType":"bool"}],"stateMutability":"nonpayable"},{"type":"function","name":"transferFrom","inputs":[{"name":"","type":"address","internalType":"address"},{"name":"","type":"address","internalType":"address"},{"name":"","type":"uint256","internalType":"uint256"}],"outputs":[{"name":"","type":"bool","internalType":"bool"}],"stateMutability":"nonpayable"},{"type":"function","name":"transferOwnership","inputs":[{"name":"newOwner","type":"address","internalType":"address"}],"outputs":[],"stateMutability":"nonpayable"},{"type":"event","name":"Approval","inputs":[{"name":"owner","type":"address","indexed":true,"internalType":"address"},{"name":"spender","type":"address","indexed":true,"internalType":"address"},{"name":"value","type":"uint256","indexed":false,"internalType":"uint256"}],"anonymous":false},{"type":"event","name":"DelegateChanged","inputs":[{"name":"delegator","type":"address","indexed":true,"internalType":"address"},{"name":"fromDelegate","type":"address","indexed":true,"internalType":"address"},{"name":"toDelegate","type":"address","indexed":true,"internalType":"address"}],"anonymous":false},{"type":"event","name":"DelegateVotesChanged","inputs":[{"name":"delegate","type":"address","indexed":true,"internalType":"address"},{"name":"previousVotes","type":"uint256","indexed":false,"internalType":"uint256"},{"name":"newVotes","type":"uint256","indexed":false,"internalType":"uint256"}],"anonymous":false},{"type":"event","name":"EIP712DomainChanged","inputs":[],"anonymous":false},{"type":"event","name":"OwnershipTransferred","inputs":[{"name":"previousOwner","type":"address","indexed":true,"internalType":"address"},{"name":"newOwner","type":"address","indexed":true,"internalType":"address"}],"anonymous":false},{"type":"event","name":"Transfer","inputs":[{"name":"from","type":"address","indexed":true,"internalType":"address"},{"name":"to","type":"address","indexed":true,"internalType":"address"},{"name":"value","type":"uint256","indexed":false,"internalType":"uint256"}],"anonymous":false},{"type":"error","name":"CheckpointUnorderedInsertion","inputs":[]},{"type":"error","name":"ECDSAInvalidSignature","inputs":[]},{"type":"error","name":"ECDSAInvalidSignatureLength","inputs":[{"name":"length","type":"uint256","internalType":"uint256"}]},{"type":"error","name":"ECDSAInvalidSignatureS","inputs":[{"name":"s","type":"bytes32","internalType":"bytes32"}]},{"type":"error","name":"ERC20ExceededSafeSupply","inputs":[{"name":"increasedSupply","type":"uint256","internalType":"uint256"},{"name":"cap","type":"uint256","internalType":"uint256"}]},{"type":"error","name":"ERC20InsufficientAllowance","inputs":[{"name":"spender","type":"address","internalType":"address"},{"name":"allowance","type":"uint256","internalType":"uint256"},{"name":"needed","type":"uint256","internalType":"uint256"}]},{"type":"error","name":"ERC20InsufficientBalance","inputs":[{"name":"sender","type":"address","internalType":"address"},{"name":"balance","type":"uint256","internalType":"uint256"},{"name":"needed","type":"uint256","internalType":"uint256"}]},{"type":"error","name":"ERC20InvalidApprover","inputs":[{"name":"approver","type":"address","internalType":"address"}]},{"type":"error","name":"ERC20InvalidReceiver","inputs":[{"name":"receiver","type":"address","internalType":"address"}]},{"type":"error","name":"ERC20InvalidSender","inputs":[{"name":"sender","type":"address","internalType":"address"}]},{"type":"error","name":"ERC20InvalidSpender","inputs":[{"name":"spender","type":"address","internalType":"address"}]},{"type":"error","name":"ERC2612ExpiredSignature","inputs":[{"name":"deadline","type":"uint256","internalType":"uint256"}]},{"type":"error","name":"ERC2612InvalidSigner","inputs":[{"name":"signer","type":"address","internalType":"address"},{"name":"owner","type":"address","internalType":"address"}]},{"type":"error","name":"ERC5805FutureLookup","inputs":[{"name":"timepoint","type":"uint256","internalType":"uint256"},{"name":"clock","type":"uint48","internalType":"uint48"}]},{"type":"error","name":"ERC6372InconsistentClock","inputs":[]},{"type":"error","name":"InvalidAccountNonce","inputs":[{"name":"account","type":"address","internalType":"address"},{"name":"currentNonce","type":"uint256","internalType":"uint256"}]},{"type":"error","name":"InvalidShortString","inputs":[]},{"type":"error","name":"OwnableInvalidOwner","inputs":[{"name":"owner","type":"address","internalType":"address"}]},{"type":"error","name":"OwnableUnauthorizedAccount","inputs":[{"name":"account","type":"address","internalType":"address"}]},{"type":"error","name":"SafeCastOverflowedUintDowncast","inputs":[{"name":"bits","type":"uint8","internalType":"uint8"},{"name":"value","type":"uint256","internalType":"uint256"}]},{"type":"error","name":"StringTooLong","inputs":[{"name":"str","type":"string","internalType":"string"}]},{"type":"error","name":"VotesExpiredSignature","inputs":[{"name":"expiry","type":"uint256","internalType":"uint256"}]}],"bytecode":{"object":"0x61016080604052346104fc5760208161280780380380916100208285610501565b8339810103126104fc57516001600160a01b038116908190036104fc5760405161004b604082610501565b60178152602081017f5669727475616c2050726f746f636f6c20566f74696e67000000000000000000815260405190610085604083610501565b601782527f5669727475616c2050726f746f636f6c20566f74696e670000000000000000006020830152604051926100be604085610501565b60098452681d995592549515505360ba1b6020850152604051936100e3604086610501565b60018552603160f81b60208601908152845190946001600160401b0382116103f95760035490600182811c921680156104f2575b60208310146103d95781601f849311610482575b50602090601f831160011461041a5760009261040f575b50508160011b916000199060031b1c1916176003555b8051906001600160401b0382116103f95760045490600182811c921680156103ef575b60208310146103d95781601f849311610369575b50602090601f8311600114610301576000926102f6575b50508160011b916000199060031b1c1916176004555b6101c581610524565b610120526101d2846106d2565b61014052519020918260e05251902080610100524660a0526040519060208201927f8b73c3c69bb8fe3d512ecc4cf759cc79239f7b179b0ffacaa9a75d522b39400f8452604083015260608201524660808201523060a082015260a0815261023b60c082610501565b5190206080523060c05280156102e057600b80546001600160a01b03198116831790915560405191906001600160a01b03167f8be0079c531659141344cd1fd0a4f28419497f9722a3daafe3b4186f6b6457e0600080a3611f969081610871823960805181611210015260a051816112cd015260c051816111da015260e0518161125f01526101005181611285015261012051816108ba015261014051816108e30152f35b631e4fbdf760e01b600052600060045260246000fd5b0151905038806101a6565b600460009081528281209350601f198516905b8181106103515750908460019594939210610338575b505050811b016004556101bc565b015160001960f88460031b161c1916905538808061032a565b92936020600181928786015181550195019301610314565b60046000529091507f8a35acfbc15ff81a39ae7d344fd709f28e8600b4aa8c65c6b64bfe7fe36bd19b601f840160051c810191602085106103cf575b90601f859493920160051c01905b8181106103c0575061018f565b600081558493506001016103b3565b90915081906103a5565b634e487b7160e01b600052602260045260246000fd5b91607f169161017b565b634e487b7160e01b600052604160045260246000fd5b015190503880610142565b600360009081528281209350601f198516905b81811061046a5750908460019594939210610451575b505050811b01600355610158565b015160001960f88460031b161c19169055388080610443565b9293602060018192878601518155019501930161042d565b60036000529091507fc2575a0e9e593c00f959f8c92f12db2869c3395a3b0502d05e2516446f71f85b601f840160051c810191602085106104e8575b90601f859493920160051c01905b8181106104d9575061012b565b600081558493506001016104cc565b90915081906104be565b91607f1691610117565b600080fd5b601f909101601f19168101906001600160401b038211908210176103f957604052565b908151602081106000146105bc575090601f815111610560576020815191015160208210610550571790565b6000198260200360031b1b161790565b6040519063305a27a960e01b8252602060048301528181519182602483015260005b8381106105a45750508160006044809484010152601f80199101168101030190fd5b60208282018101516044878401015285935001610582565b6001600160401b0381116103f957600554600181811c911680156106c8575b60208210146103d957601f8111610692575b50602092601f821160011461062d5792819293600092610622575b50508160011b916000199060031b1c19161760055560ff90565b015190503880610608565b601f198216936005600052806000209160005b86811061067a5750836001959610610661575b505050811b0160055560ff90565b015160001960f88460031b161c19169055388080610653565b91926020600181928685015181550194019201610640565b6005600052601f6020600020910160051c810190601f830160051c015b8181106106bc57506105ed565b600081556001016106af565b90607f16906105db565b9081516020811060001461075a575090601f8151116106fe576020815191015160208210610550571790565b6040519063305a27a960e01b8252602060048301528181519182602483015260005b8381106107425750508160006044809484010152601f80199101168101030190fd5b60208282018101516044878401015285935001610720565b6001600160401b0381116103f957600654600181811c91168015610866575b60208210146103d957601f8111610830575b50602092601f82116001146107cb57928192936000926107c0575b50508160011b916000199060031b1c19161760065560ff90565b0151905038806107a6565b601f198216936006600052806000209160005b86811061081857508360019596106107ff575b505050811b0160065560ff90565b015160001960f88460031b161c191690553880806107f1565b919260206001819286850151815501940192016107de565b6006600052601f6020600020910160051c810190601f830160051c015b81811061085a575061078b565b6000815560010161084d565b90607f169061077956fe6080604052600436101561001257600080fd5b60003560e01c806306fdde03146101c7578063095ea7b3146101c257806318160ddd146101bd57806323b872dd146101b8578063313ce567146101b35780633644e515146101ae5780633a46b1a8146101a95780634bf5d7e9146101a4578063587cde1e1461019f5780635c19a95c1461019a5780636fcfff451461019557806370a0823114610190578063715018a61461018b5780637ab7c65d146101865780637ecebe001461018157806384b0196e1461017c5780638da5cb5b146101775780638e539e8c1461017257806391ddadf41461016d57806395d89b41146101685780639ab24eb014610163578063a9059cbb1461015e578063c3cda52014610159578063d505accf14610154578063dd62ed3e1461014f578063f1127ed81461014a5763f2fde38b1461014557600080fd5b610f51565b610eb9565b610e61565b610d38565b610c24565b610beb565b610ba2565b610afa565b610ace565b6109cb565b6109a2565b6108a1565b610867565b610787565b61063a565b610601565b61059b565b610577565b610535565b6104a3565b61040b565b6103e8565b6103cc565b6103a4565b610386565b61032f565b610221565b919082519283825260005b8481106101f8575050826000602080949584010152601f8019910116010190565b806020809284010151828286010152016101d7565b90602061021e9281815201906101cc565b90565b346102fe5760003660031901126102fe57604051600060035461024381610fdb565b80845290600181169081156102da575060011461027b575b6102778361026b818503826106ce565b6040519182918261020d565b0390f35b600360009081527fc2575a0e9e593c00f959f8c92f12db2869c3395a3b0502d05e2516446f71f85b939250905b8082106102c05750909150810160200161026b61025b565b9192600181602092548385880101520191019092916102a8565b60ff191660208086019190915291151560051b8401909101915061026b905061025b565b600080fd5b600435906001600160a01b03821682036102fe57565b602435906001600160a01b03821682036102fe57565b346102fe5760403660031901126102fe57610348610303565b5060405162461bcd60e51b8152602060048201526015602482015274105c1c1c9bdd99481b9bdd081cdd5c1c1bdc9d1959605a1b6044820152606490fd5b346102fe5760003660031901126102fe576020600254604051908152f35b346102fe5760603660031901126102fe576103bd610303565b506103c6610319565b50611098565b346102fe5760003660031901126102fe57602060405160128152f35b346102fe5760003660031901126102fe5760206104036111d7565b604051908152f35b346102fe5760403660031901126102fe57610424610303565b60243565ffffffffffff610437436112f3565b16918282101561048b576001600160a01b0316600090815260096020526040902061027792506001600160d01b039161047a9190610474906112f3565b90611364565b604051911681529081906020820190565b50637669fc0f60e11b60005260045260245260446000fd5b346102fe5760003660031901126102fe576104bd436112f3565b65ffffffffffff806104ce436112f3565b169116036105245761027760408051906104e881836106ce565b601d82527f6d6f64653d626c6f636b6e756d6265722666726f6d3d64656661756c740000006020830152519182916020835260208301906101cc565b6301bfc1c560e61b60005260046000fd5b346102fe5760203660031901126102fe576001600160a01b03610556610303565b166000526008602052602060018060a01b0360406000205416604051908152f35b346102fe5760203660031901126102fe57610599610593610303565b33611400565b005b346102fe5760203660031901126102fe576001600160a01b036105bc610303565b16600052600960205260406000205463ffffffff81116105e85760405163ffffffff9091168152602090f35b6306dfcc6560e41b600052602060045260245260446000fd5b346102fe5760203660031901126102fe57602061040361061f610303565b6001600160a01b031660009081526020819052604090205490565b346102fe5760003660031901126102fe57610653611483565b600b80546001600160a01b031981169091556000906001600160a01b03167f8be0079c531659141344cd1fd0a4f28419497f9722a3daafe3b4186f6b6457e08280a3005b634e487b7160e01b600052604160045260246000fd5b6040810190811067ffffffffffffffff8211176106c957604052565b610697565b90601f8019910116810190811067ffffffffffffffff8211176106c957604052565b604051906106ff6040836106ce565b565b67ffffffffffffffff81116106c95760051b60200190565b9080601f830112156102fe5781359061073182610701565b9261073f60405194856106ce565b82845260208085019360051b8201019182116102fe57602001915b8183106107675750505090565b82356001600160a01b03811681036102fe5781526020928301920161075a565b346102fe5760603660031901126102fe5760043567ffffffffffffffff81116102fe576107b8903690600401610719565b60243567ffffffffffffffff81116102fe576107d8903690600401610719565b6044359067ffffffffffffffff82116102fe57366023830112156102fe5781600401359261080584610701565b9261081360405194856106ce565b8484526024602085019560051b820101903682116102fe57602401945b818610610857576102776108458686866110d6565b60405190151581529081906020820190565b8535815260209586019501610830565b346102fe5760203660031901126102fe576001600160a01b03610888610303565b1660005260076020526020604060002054604051908152f35b346102fe5760003660031901126102fe576109476108de7f0000000000000000000000000000000000000000000000000000000000000000611a19565b6109077f0000000000000000000000000000000000000000000000000000000000000000611a7d565b602060405161091682826106ce565b600081528161095581830194601f198301368737604051978897600f60f81b895260e0858a015260e08901906101cc565b9087820360408901526101cc565b91466060870152306080870152600060a087015285830360c0870152519182815201929160005b82811061098b57505050500390f35b83518552869550938101939281019260010161097c565b346102fe5760003660031901126102fe57600b546040516001600160a01b039091168152602090f35b346102fe5760203660031901126102fe5760043565ffffffffffff6109ef436112f3565b169081811015610ab757610a02906112f3565b6000600a5481928160058111610a57575b5090602093610a2392600a61174a565b80610a3c57505b6040516001600160d01b039091168152f35b610a459061133a565b600a825290829020015460301c610a2a565b93610a61856115d5565b8503948511610ab257602094610a2393600a865265ffffffffffff8288882001541665ffffffffffff851610600014610aa05750915b91925093610a13565b929150610aac90611349565b90610a97565b611324565b637669fc0f60e11b60005260045260245260446000fd5b346102fe5760003660031901126102fe576020610aea436112f3565b65ffffffffffff60405191168152f35b346102fe5760003660031901126102fe576040516000600454610b1c81610fdb565b80845290600181169081156102da5750600114610b43576102778361026b818503826106ce565b600460009081527f8a35acfbc15ff81a39ae7d344fd709f28e8600b4aa8c65c6b64bfe7fe36bd19b939250905b808210610b885750909150810160200161026b61025b565b919260018160209254838588010152019101909291610b70565b346102fe5760203660031901126102fe576001600160a01b03610bc3610303565b166000526009602052602060018060d01b03610be260406000206114ac565b16604051908152f35b346102fe5760403660031901126102fe576103c6610303565b6064359060ff821682036102fe57565b6084359060ff821682036102fe57565b346102fe5760c03660031901126102fe57610c3d610303565b60243590604435610c4c610c04565b6084359060a43592804211610d245791610cd19391610cc3610cc89460405160208101917fe48329057bfd03d55e49b547132e39cffd9c1820ad7b9d4c5307691425d15adf835260018060a01b038a1660408301528a6060830152608082015260808152610cbb60a0826106ce565b5190206114db565b611ab4565b90929192611b69565b6001600160a01b0381166000908152600760205260409020805460018101909155809303610d03576105999250611400565b90506301d4b62360e61b60005260018060a01b031660045260245260446000fd5b632341d78760e11b60005260045260246000fd5b346102fe5760e03660031901126102fe57610d51610303565b610d59610319565b6044359060643592610d69610c14565b60a43560c43590864211610e4c576001600160a01b0384166000908152600760205260409020805460018101909155610e0f9390610e0a909860405160208101917f6e71edae12b1b97f4d1f60370fef10105fa2faae0126114a169c64845d6126c9835260018060a01b0389169b8c604084015260018060a01b038b1660608401528b608084015260a083015260c082015260c08152610cbb60e0826106ce565b611501565b936001600160a01b03851603610e29576105999350611510565b6325c0072360e11b6000526001600160a01b038085166004521660245260446000fd5b8663313c898160e11b60005260045260246000fd5b346102fe5760403660031901126102fe576020610eb0610e7f610303565b610e87610319565b6001600160a01b0391821660009081526001855260408082209290931681526020919091522090565b54604051908152f35b346102fe5760403660031901126102fe57610ed2610303565b6024359063ffffffff821682036102fe57610f2891610f2291610ef36111be565b50610efc6111be565b506001600160a01b03166000908152600960205260409020610f1c6111be565b50611beb565b50611c03565b60408051825165ffffffffffff1681526020928301516001600160d01b03169281019290925290f35b346102fe5760203660031901126102fe57610f6a610303565b610f72611483565b6001600160a01b03168015610fc557600b80546001600160a01b0319811683179091556001600160a01b03167f8be0079c531659141344cd1fd0a4f28419497f9722a3daafe3b4186f6b6457e0600080a3005b631e4fbdf760e01b600052600060045260246000fd5b90600182811c9216801561100b575b6020831014610ff557565b634e487b7160e01b600052602260045260246000fd5b91607f1691610fea565b6000929181549161102583610fdb565b808352926001811690811561107b575060011461104157505050565b60009081526020812093945091925b838310611061575060209250010190565b600181602092949394548385870101520191019190611050565b915050602093945060ff929192191683830152151560051b010190565b60405162461bcd60e51b8152602060048201526016602482015275151c985b9cd9995c881b9bdd081cdd5c1c1bdc9d195960521b6044820152606490fd5b929190926110e2611483565b805184518091149081611184575b501561114f5760005b81518110156111465780611140611122611115600194866111a5565b516001600160a01b031690565b61112f611115848a6111a5565b61113984886111a5565b51916118d5565b016110f9565b50600193505050565b60405162461bcd60e51b815260206004820152600d60248201526c125b9d985b1a59081a5b9c1d5d609a1b6044820152606490fd5b9050825114386110f0565b634e487b7160e01b600052603260045260246000fd5b80518210156111b95760209160051b010190565b61118f565b604051906111cb826106ad565b60006020838281520152565b307f00000000000000000000000000000000000000000000000000000000000000006001600160a01b031614806112ca575b15611232577f000000000000000000000000000000000000000000000000000000000000000090565b60405160208101907f8b73c3c69bb8fe3d512ecc4cf759cc79239f7b179b0ffacaa9a75d522b39400f82527f000000000000000000000000000000000000000000000000000000000000000060408201527f000000000000000000000000000000000000000000000000000000000000000060608201524660808201523060a082015260a081526112c460c0826106ce565b51902090565b507f00000000000000000000000000000000000000000000000000000000000000004614611209565b65ffffffffffff811161130b5765ffffffffffff1690565b6306dfcc6560e41b600052603060045260245260446000fd5b634e487b7160e01b600052601160045260246000fd5b600019810191908211610ab257565b9060018201809211610ab257565b91908201809211610ab257565b9081549060008291600584116113aa575b61138093508461174a565b600091908061139157505050600090565b61139a9061133a565b9082526020909120015460301c90565b91926113b5816115d5565b8103908111610ab257611380938560005265ffffffffffff82602060002001541665ffffffffffff8516106000146113ee575091611375565b9291506113fa90611349565b90611375565b6001600160a01b03818116600081815260086020526040812080548685166001600160a01b0319821681179092556106ff9694169461147d9390928691907f3134e8a2e6d97e929a7e54011ea5485d7d196dd5f0ba4d4ef95803e8e3fc257f9080a46001600160a01b031660009081526020819052604090205490565b916117b1565b600b546001600160a01b0316330361149757565b63118cdaa760e01b6000523360045260246000fd5b805490816114bb575050600090565b81600019810111610ab25760005260001990602060002001015460301c90565b6042906114e66111d7565b906040519161190160f01b8352600283015260228201522090565b9161021e9391610cc893611ab4565b6001600160a01b031690811561159f576001600160a01b038116928315611589578061157c7f8c5be1e5ebec7d5bd14f71427d1e84f3dd0314c0f7b2291e5b200ac8c7c3b9259385600052600160205260406000209060018060a01b0316600052602052604060002090565b55604051908152602090a3565b634a1406b160e11b600052600060045260246000fd5b63e602df0560e01b600052600060045260246000fd5b81156115bf570490565b634e487b7160e01b600052601260045260246000fd5b80156117445761021e906116da6116d36116c96116bf6116b56116ab6116a1611697600161168560008b608081901c80611736575b508061161961167b9260401c90565b80611729575b5061162a8160201c90565b8061171c575b5061163b8160101c90565b8061170f575b5061164c8160081c90565b80611702575b5061165d8160041c90565b806116f5575b5061166e8160021c90565b806116e8575b5060011c90565b6116e05760011c90565b1b611690818b6115b5565b0160011c90565b611690818a6115b5565b61169081896115b5565b61169081886115b5565b61169081876115b5565b61169081866115b5565b61169081856115b5565b80926115b5565b90611c27565b820160011c90565b6002915092019138611674565b6004915092019138611663565b6008915092019138611652565b6010915092019138611641565b6020915092019138611630565b604091509201913861161f565b60809250905061167b61160a565b50600090565b91905b83821061175a5750505090565b9091928083169080841860011c8201809211610ab2578460005265ffffffffffff82602060002001541665ffffffffffff84161060001461179f5750925b919061174d565b9392506117ab90611349565b91611798565b6001600160a01b038083169392919081169081851415806118cc575b6117d9575b5050505050565b8161185e575b5050826117ee575b80806117d2565b6001600160a01b031660009081526009602052604090207fdec2bacdd2f05b59de34da9b523dff8be42e5e38e818c82fdb0bae774387a7249161183b916118359091611c39565b90611ca4565b604080516001600160d01b039384168152919092166020820152a23880806117e7565b6001600160a01b031660009081526009602052604090207fdec2bacdd2f05b59de34da9b523dff8be42e5e38e818c82fdb0bae774387a724906118aa906118a486611c39565b90611c6c565b604080516001600160d01b039384168152919092166020820152a238806117df565b508315156117cd565b9291906001600160a01b03841680159081156119ae576118ff6118fa85600254611357565b600255565b6001600160a01b038316908161198b5761191c8560025403600255565b6040518581527fddf252ad1be2c89b69c2b068fc378daa952ba7f163c4a11628f55a4df523b3ef90602090a3611957575b6106ff9293611d0d565b600254936001600160d01b038086116119725750935061194d565b630e58ae9360e11b600052600486905260245260446000fd5b6001600160a01b038416600090815260208190526040902085815401905561191c565b6001600160a01b0386166000908152602081905260409020548481106119f3578490036119ed8760018060a01b03166000526000602052604060002090565b556118ff565b63391434e360e21b6000526001600160a01b038716600452602452604484905260646000fd5b60ff8114611a635760ff811690601f8211611a52576040805192611a3d82856106ce565b6020808552840191601f190136833783525290565b632cd44ac360e21b60005260046000fd5b5060405161021e81611a76816005611015565b03826106ce565b60ff8114611aa15760ff811690601f8211611a52576040805192611a3d82856106ce565b5060405161021e81611a76816006611015565b91907f7fffffffffffffffffffffffffffffff5d576e7357a4501ddfe92f46681b20a08411611b3d579160209360809260ff60009560405194855216868401526040830152606082015282805260015afa15611b31576000516001600160a01b03811615611b255790600090600090565b50600090600190600090565b6040513d6000823e3d90fd5b50505060009160039190565b60041115611b5357565b634e487b7160e01b600052602160045260246000fd5b611b7281611b49565b80611b7b575050565b611b8481611b49565b60018103611b9d5763f645eedf60e01b60005260046000fd5b611ba681611b49565b60028103611bc3575063fce698f760e01b60005260045260246000fd5b80611bcf600392611b49565b14611bd75750565b6335e2f38360e21b60005260045260246000fd5b80548210156111b95760005260206000200190600090565b90604051611c10816106ad565b915465ffffffffffff8116835260301c6020830152565b9080821015611c34575090565b905090565b6001600160d01b038111611c53576001600160d01b031690565b6306dfcc6560e41b60005260d060045260245260446000fd5b90611c76436112f3565b90611c80836114ac565b6001600160d01b039182169082160391908211610ab257611ca092611e26565b9091565b90611cae436112f3565b90611cb8836114ac565b6001600160d01b039182169082160191908211610ab257611ca092611e26565b611ce1436112f3565b90611cec600a6114ac565b6001600160d01b0391821690821603908111610ab257611ca091600a611e26565b9091906001600160a01b03168015611d75575b6106ff926001600160a01b0316908115611d5d575b600090815260086020526040808220549282529020546001600160a01b0390811691166117b1565b611d6e611d6984611c39565b611cd8565b5050611d35565b611d7e82611c39565b92611d88436112f3565b93611d93600a6114ac565b6001600160d01b039182169082160194908511610ab2576106ff94611db991600a611e26565b9050509250611d20565b8054680100000000000000008110156106c957611de591600182018155611beb565b611e1057815160209092015160301b65ffffffffffff191665ffffffffffff92909216919091179055565b634e487b7160e01b600052600060045260246000fd5b805492939291908215611f3657611e54611e4f611e428561133a565b8360005260206000200190565b611c03565b9065ffffffffffff611e6c835165ffffffffffff1690565b8185169182911611611f2557611ee9946020948892611e9f611e94875165ffffffffffff1690565b65ffffffffffff1690565b03611eed5750611edb92611eb5611ec29261133a565b9060005260206000200190565b9065ffffffffffff82549181199060301b169116179055565b01516001600160d01b031690565b9190565b915050611f2091611f0d611eff6106f0565b65ffffffffffff9093168352565b6001600160d01b03881682860152611dc3565b611edb565b632520601d60e01b60005260046000fd5b611f5a9250611f46611eff6106f0565b6001600160d01b0385166020830152611dc3565b6000919056fea26469706673582212206c4ee1bbca1c760d2b504bde881e9d447ae424c141aa47fc463399ec6443e61364736f6c634300081a0033","linkReferences":{}},"methodIdentifiers":{"CLOCK_MODE()":"4bf5d7e9","DOMAIN_SEPARATOR()":"3644e515","allowance(address,address)":"dd62ed3e","approve(address,uint256)":"095ea7b3","balanceOf(address)":"70a08231","checkpoints(address,uint32)":"f1127ed8","clock()":"91ddadf4","decimals()":"313ce567","delegate(address)":"5c19a95c","delegateBySig(address,uint256,uint256,uint8,bytes32,bytes32)":"c3cda520","delegates(address)":"587cde1e","eip712Domain()":"84b0196e","getPastTotalSupply(uint256)":"8e539e8c","getPastVotes(address,uint256)":"3a46b1a8","getVotes(address)":"9ab24eb0","name()":"06fdde03","nonces(address)":"7ecebe00","numCheckpoints(address)":"6fcfff45","oracleTransfer(address[],address[],uint256[])":"7ab7c65d","owner()":"8da5cb5b","permit(address,address,uint256,uint256,uint8,bytes32,bytes32)":"d505accf","renounceOwnership()":"715018a6","symbol()":"95d89b41","totalSupply()":"18160ddd","transfer(address,uint256)":"a9059cbb","transferFrom(address,address,uint256)":"23b872dd","transferOwnership(address)":"f2fde38b"},"id":33}