{"abi":[{"type":"constructor","inputs":[{"name":"fxManager","type":"address","internalType":"address"}],"stateMutability":"nonpayable"},{"type":"function","name":"allowance","inputs":[{"name":"owner","type":"address","internalType":"address"},{"name":"spender","type":"address","internalType":"address"}],"outputs":[{"name":"","type":"uint256","internalType":"uint256"}],"stateMutability":"view"},{"type":"function","name":"approve","inputs":[{"name":"spender","type":"address","internalType":"address"},{"name":"value","type":"uint256","internalType":"uint256"}],"outputs":[{"name":"","type":"bool","internalType":"bool"}],"stateMutability":"nonpayable"},{"type":"function","name":"balanceOf","inputs":[{"name":"account","type":"address","internalType":"address"}],"outputs":[{"name":"","type":"uint256","internalType":"uint256"}],"stateMutability":"view"},{"type":"function","name":"burn","inputs":[{"name":"user","type":"address","internalType":"address"},{"name":"amount","type":"uint256","internalType":"uint256"}],"outputs":[],"stateMutability":"nonpayable"},{"type":"function","name":"decimals","inputs":[],"outputs":[{"name":"","type":"uint8","internalType":"uint8"}],"stateMutability":"view"},{"type":"function","name":"mint","inputs":[{"name":"user","type":"address","internalType":"address"},{"name":"amount","type":"uint256","internalType":"uint256"}],"outputs":[],"stateMutability":"nonpayable"},{"type":"function","name":"name","inputs":[],"outputs":[{"name":"","type":"string","internalType":"string"}],"stateMutability":"view"},{"type":"function","name":"setFxManager","inputs":[{"name":"fxManager","type":"address","internalType":"address"}],"outputs":[],"stateMutability":"nonpayable"},{"type":"function","name":"symbol","inputs":[],"outputs":[{"name":"","type":"string","internalType":"string"}],"stateMutability":"view"},{"type":"function","name":"totalSupply","inputs":[],"outputs":[{"name":"","type":"uint256","internalType":"uint256"}],"stateMutability":"view"},{"type":"function","name":"transfer","inputs":[{"name":"to","type":"address","internalType":"address"},{"name":"value","type":"uint256","internalType":"uint256"}],"outputs":[{"name":"","type":"bool","internalType":"bool"}],"stateMutability":"nonpayable"},{"type":"function","name":"transferFrom","inputs":[{"name":"from","type":"address","internalType":"address"},{"name":"to","type":"address","internalType":"address"},{"name":"value","type":"uint256","internalType":"uint256"}],"outputs":[{"name":"","type":"bool","internalType":"bool"}],"stateMutability":"nonpayable"},{"type":"event","name":"Approval","inputs":[{"name":"owner","type":"address","indexed":true,"internalType":"address"},{"name":"spender","type":"address","indexed":true,"internalType":"address"},{"name":"value","type":"uint256","indexed":false,"internalType":"uint256"}],"anonymous":false},{"type":"event","name":"Transfer","inputs":[{"name":"from","type":"address","indexed":true,"internalType":"address"},{"name":"to","type":"address","indexed":true,"internalType":"address"},{"name":"value","type":"uint256","indexed":false,"internalType":"uint256"}],"anonymous":false},{"type":"error","name":"ERC20InsufficientAllowance","inputs":[{"name":"spender","type":"address","internalType":"address"},{"name":"allowance","type":"uint256","internalType":"uint256"},{"name":"needed","type":"uint256","internalType":"uint256"}]},{"type":"error","name":"ERC20InsufficientBalance","inputs":[{"name":"sender","type":"address","internalType":"address"},{"name":"balance","type":"uint256","internalType":"uint256"},{"name":"needed","type":"uint256","internalType":"uint256"}]},{"type":"error","name":"ERC20InvalidApprover","inputs":[{"name":"approver","type":"address","internalType":"address"}]},{"type":"error","name":"ERC20InvalidReceiver","inputs":[{"name":"receiver","type":"address","internalType":"address"}]},{"type":"error","name":"ERC20InvalidSender","inputs":[{"name":"sender","type":"address","internalType":"address"}]},{"type":"error","name":"ERC20InvalidSpender","inputs":[{"name":"spender","type":"address","internalType":"address"}]}],"bytecode":{"object":"0x60806040523461035257610bcf6020813803918261001c81610357565b93849283398101031261035257516001600160a01b03811690819003610352576100466040610357565b90600b82526a2132b2b6b2b92a37b5b2b760a91b60208301526100696040610357565b6003815262424d5760e81b602082015282519091906001600160401b03811161025b57600354600181811c91168015610348575b602082101461023b57601f81116102e3575b506020601f821160011461027c5781929394600092610271575b50508160011b916000199060031b1c1916176003555b81516001600160401b03811161025b57600454600181811c91168015610251575b602082101461023b57601f81116101d6575b50602092601f82116001146101715792819293600092610166575b50508160011b916000199060031b1c1916176004555b600580546001600160a01b031916919091179055604051610852908161037d8239f35b01519050388061012d565b601f198216936004600052806000209160005b8681106101be57508360019596106101a5575b505050811b01600455610143565b015160001960f88460031b161c19169055388080610197565b91926020600181928685015181550194019201610184565b60046000527f8a35acfbc15ff81a39ae7d344fd709f28e8600b4aa8c65c6b64bfe7fe36bd19b601f830160051c81019160208410610231575b601f0160051c01905b8181106102255750610112565b60008155600101610218565b909150819061020f565b634e487b7160e01b600052602260045260246000fd5b90607f1690610100565b634e487b7160e01b600052604160045260246000fd5b0151905038806100c9565b601f198216906003600052806000209160005b8181106102cb575095836001959697106102b2575b505050811b016003556100df565b015160001960f88460031b161c191690553880806102a4565b9192602060018192868b01518155019401920161028f565b60036000527fc2575a0e9e593c00f959f8c92f12db2869c3395a3b0502d05e2516446f71f85b601f830160051c8101916020841061033e575b601f0160051c01905b81811061033257506100af565b60008155600101610325565b909150819061031c565b90607f169061009d565b600080fd5b6040519190601f01601f191682016001600160401b0381118382101761025b5760405256fe608080604052600436101561001357600080fd5b60003560e01c90816306fdde03146105fe57508063095ea7b314610578578063115a46891461053957806318160ddd1461051b57806323b872dd1461042e578063313ce5671461041257806340c10f191461035157806370a082311461031757806395d89b41146101f65780639dc29fac1461012a578063a9059cbb146100f95763dd62ed3e146100a357600080fd5b346100f45760403660031901126100f4576100bc61071a565b6100c4610730565b6001600160a01b039182166000908152600160209081526040808320949093168252928352819020549051908152f35b600080fd5b346100f45760403660031901126100f45761011f61011561071a565b6024359033610783565b602060405160018152f35b346100f45760403660031901126100f45761014361071a565b6024359061015c60018060a01b03600554163314610746565b6001600160a01b03169081156101e0576000908282528160205260408220548181106101c85760208285937fddf252ad1be2c89b69c2b068fc378daa952ba7f163c4a11628f55a4df523b3ef93869787528684520360408620558060025403600255604051908152a380f35b60649363391434e360e21b8452600452602452604452fd5b634b637e8f60e11b600052600060045260246000fd5b346100f45760003660031901126100f45760405160006004548060011c9060018116801561030d575b6020831081146102f9578285529081156102dd5750600114610286575b50819003601f01601f191681019067ffffffffffffffff8211818310176102705761026c829182604052826106d1565b0390f35b634e487b7160e01b600052604160045260246000fd5b905060046000527f8a35acfbc15ff81a39ae7d344fd709f28e8600b4aa8c65c6b64bfe7fe36bd19b6000905b8282106102c75750602091508201018261023c565b60018160209254838588010152019101906102b2565b90506020925060ff191682840152151560051b8201018261023c565b634e487b7160e01b84526022600452602484fd5b91607f169161021f565b346100f45760203660031901126100f4576001600160a01b0361033861071a565b1660005260006020526020604060002054604051908152f35b346100f45760403660031901126100f45761036a61071a565b6024359061038360018060a01b03600554163314610746565b6001600160a01b031680156103fc57600254918083018093116103e6576020926002557fddf252ad1be2c89b69c2b068fc378daa952ba7f163c4a11628f55a4df523b3ef600093849284845283825260408420818154019055604051908152a380f35b634e487b7160e01b600052601160045260246000fd5b63ec442f0560e01b600052600060045260246000fd5b346100f45760003660031901126100f457602060405160128152f35b346100f45760603660031901126100f45761044761071a565b61044f610730565b6001600160a01b038216600081815260016020818152604080842033855290915290912054919360443593929091810161048f575b5061011f9350610783565b8381106104fe5784156104e85733156104d25761011f946000526001602052604060002060018060a01b0333166000526020528360406000209103905584610484565b634a1406b160e11b600052600060045260246000fd5b63e602df0560e01b600052600060045260246000fd5b8390637dc7a0d960e11b6000523360045260245260445260646000fd5b346100f45760003660031901126100f4576020600254604051908152f35b346100f45760203660031901126100f4576001600160a01b0361055a61071a565b166bffffffffffffffffffffffff60a01b6005541617600555600080f35b346100f45760403660031901126100f45761059161071a565b6024359033156104e8576001600160a01b03169081156104d257336000526001602052604060002082600052602052806040600020556040519081527f8c5be1e5ebec7d5bd14f71427d1e84f3dd0314c0f7b2291e5b200ac8c7c3b92560203392a3602060405160018152f35b346100f45760003660031901126100f45760006003548060011c906001811680156106c7575b6020831081146102f9578285529081156102dd57506001146106705750819003601f01601f191681019067ffffffffffffffff8211818310176102705761026c829182604052826106d1565b905060036000527fc2575a0e9e593c00f959f8c92f12db2869c3395a3b0502d05e2516446f71f85b6000905b8282106106b15750602091508201018261023c565b600181602092548385880101520191019061069c565b91607f1691610624565b91909160208152825180602083015260005b818110610704575060409293506000838284010152601f8019910116010190565b80602080928701015160408286010152016106e3565b600435906001600160a01b03821682036100f457565b602435906001600160a01b03821682036100f457565b1561074d57565b60405162461bcd60e51b815260206004820152600e60248201526d24b73b30b634b21039b2b73232b960911b6044820152606490fd5b6001600160a01b03169081156101e0576001600160a01b03169182156103fc5760008281528060205260408120548281106108025791604082827fddf252ad1be2c89b69c2b068fc378daa952ba7f163c4a11628f55a4df523b3ef958760209652828652038282205586815280845220818154019055604051908152a3565b916064928463391434e360e21b8452600452602452604452fdfea2646970667358221220df59e06511e9fc1eee7a59e2171d420cab4b7a49caa30c56bc7bff1295532f9b64736f6c634300081a0033","linkReferences":{}},"methodIdentifiers":{"allowance(address,address)":"dd62ed3e","approve(address,uint256)":"095ea7b3","balanceOf(address)":"70a08231","burn(address,uint256)":"9dc29fac","decimals()":"313ce567","mint(address,uint256)":"40c10f19","name()":"06fdde03","setFxManager(address)":"115a4689","symbol()":"95d89b41","totalSupply()":"18160ddd","transfer(address,uint256)":"a9059cbb","transferFrom(address,address,uint256)":"23b872dd"},"id":10}