{"abi":[{"type":"constructor","inputs":[],"stateMutability":"nonpayable"},{"type":"function","name":"ADMIN_ROLE","inputs":[],"outputs":[{"name":"","type":"bytes32","internalType":"bytes32"}],"stateMutability":"view"},{"type":"function","name":"CREATOR_ROLE","inputs":[],"outputs":[{"name":"","type":"bytes32","internalType":"bytes32"}],"stateMutability":"view"},{"type":"function","name":"DEFAULT_ADMIN_ROLE","inputs":[],"outputs":[{"name":"","type":"bytes32","internalType":"bytes32"}],"stateMutability":"view"},{"type":"function","name":"allPairsLength","inputs":[],"outputs":[{"name":"","type":"uint256","internalType":"uint256"}],"stateMutability":"view"},{"type":"function","name":"buyTax","inputs":[],"outputs":[{"name":"","type":"uint256","internalType":"uint256"}],"stateMutability":"view"},{"type":"function","name":"createPair","inputs":[{"name":"tokenA","type":"address","internalType":"address"},{"name":"tokenB","type":"address","internalType":"address"}],"outputs":[{"name":"","type":"address","internalType":"address"}],"stateMutability":"nonpayable"},{"type":"function","name":"getPair","inputs":[{"name":"tokenA","type":"address","internalType":"address"},{"name":"tokenB","type":"address","internalType":"address"}],"outputs":[{"name":"","type":"address","internalType":"address"}],"stateMutability":"view"},{"type":"function","name":"getRoleAdmin","inputs":[{"name":"role","type":"bytes32","internalType":"bytes32"}],"outputs":[{"name":"","type":"bytes32","internalType":"bytes32"}],"stateMutability":"view"},{"type":"function","name":"grantRole","inputs":[{"name":"role","type":"bytes32","internalType":"bytes32"},{"name":"account","type":"address","internalType":"address"}],"outputs":[],"stateMutability":"nonpayable"},{"type":"function","name":"hasRole","inputs":[{"name":"role","type":"bytes32","internalType":"bytes32"},{"name":"account","type":"address","internalType":"address"}],"outputs":[{"name":"","type":"bool","internalType":"bool"}],"stateMutability":"view"},{"type":"function","name":"initialize","inputs":[{"name":"taxVault_","type":"address","internalType":"address"},{"name":"buyTax_","type":"uint256","internalType":"uint256"},{"name":"sellTax_","type":"uint256","internalType":"uint256"}],"outputs":[],"stateMutability":"nonpayable"},{"type":"function","name":"pairs","inputs":[{"name":"","type":"uint256","internalType":"uint256"}],"outputs":[{"name":"","type":"address","internalType":"address"}],"stateMutability":"view"},{"type":"function","name":"renounceRole","inputs":[{"name":"role","type":"bytes32","internalType":"bytes32"},{"name":"callerConfirmation","type":"address","internalType":"address"}],"outputs":[],"stateMutability":"nonpayable"},{"type":"function","name":"revokeRole","inputs":[{"name":"role","type":"bytes32","internalType":"bytes32"},{"name":"account","type":"address","internalType":"address"}],"outputs":[],"stateMutability":"nonpayable"},{"type":"function","name":"router","inputs":[],"outputs":[{"name":"","type":"address","internalType":"address"}],"stateMutability":"view"},{"type":"function","name":"sellTax","inputs":[],"outputs":[{"name":"","type":"uint256","internalType":"uint256"}],"stateMutability":"view"},{"type":"function","name":"setRouter","inputs":[{"name":"router_","type":"address","internalType":"address"}],"outputs":[],"stateMutability":"nonpayable"},{"type":"function","name":"setTaxParams","inputs":[{"name":"newVault_","type":"address","internalType":"address"},{"name":"buyTax_","type":"uint256","internalType":"uint256"},{"name":"sellTax_","type":"uint256","internalType":"uint256"}],"outputs":[],"stateMutability":"nonpayable"},{"type":"function","name":"supportsInterface","inputs":[{"name":"interfaceId","type":"bytes4","internalType":"bytes4"}],"outputs":[{"name":"","type":"bool","internalType":"bool"}],"stateMutability":"view"},{"type":"function","name":"taxVault","inputs":[],"outputs":[{"name":"","type":"address","internalType":"address"}],"stateMutability":"view"},{"type":"event","name":"Initialized","inputs":[{"name":"version","type":"uint64","indexed":false,"internalType":"uint64"}],"anonymous":false},{"type":"event","name":"PairCreated","inputs":[{"name":"tokenA","type":"address","indexed":true,"internalType":"address"},{"name":"tokenB","type":"address","indexed":true,"internalType":"address"},{"name":"pair","type":"address","indexed":false,"internalType":"address"},{"name":"","type":"uint256","indexed":false,"internalType":"uint256"}],"anonymous":false},{"type":"event","name":"RoleAdminChanged","inputs":[{"name":"role","type":"bytes32","indexed":true,"internalType":"bytes32"},{"name":"previousAdminRole","type":"bytes32","indexed":true,"internalType":"bytes32"},{"name":"newAdminRole","type":"bytes32","indexed":true,"internalType":"bytes32"}],"anonymous":false},{"type":"event","name":"RoleGranted","inputs":[{"name":"role","type":"bytes32","indexed":true,"internalType":"bytes32"},{"name":"account","type":"address","indexed":true,"internalType":"address"},{"name":"sender","type":"address","indexed":true,"internalType":"address"}],"anonymous":false},{"type":"event","name":"RoleRevoked","inputs":[{"name":"role","type":"bytes32","indexed":true,"internalType":"bytes32"},{"name":"account","type":"address","indexed":true,"internalType":"address"},{"name":"sender","type":"address","indexed":true,"internalType":"address"}],"anonymous":false},{"type":"error","name":"AccessControlBadConfirmation","inputs":[]},{"type":"error","name":"AccessControlUnauthorizedAccount","inputs":[{"name":"account","type":"address","internalType":"address"},{"name":"neededRole","type":"bytes32","internalType":"bytes32"}]},{"type":"error","name":"InvalidInitialization","inputs":[]},{"type":"error","name":"NotInitializing","inputs":[]},{"type":"error","name":"ReentrancyGuardReentrantCall","inputs":[]}],"bytecode":{"object":"0x6080806040523460d2577ff0c57e16840df040f15088dc2f81fe391c3923bec73e23a9662efc9c229c6a005460ff8160401c1660c1576002600160401b03196001600160401b03821601605c575b60405161181c90816100d88239f35b6001600160401b0319166001600160401b039081177ff0c57e16840df040f15088dc2f81fe391c3923bec73e23a9662efc9c229c6a005581527fc7f505b2f371ae2175ee4913f4499e1f2633a7b5936321eed1cdaeb6115181d290602090a13880604d565b63f92ee8a960e01b60005260046000fd5b600080fdfe608080604052600436101561001357600080fd5b60003560e01c90816301ffc9a71461089857508063248a9ca3146108725780632f2ff15d1461084157806336568abe146107fb5780634f7041a5146107dd578063574f2ba3146107bf57806375b238fc146107845780637a1ac61e146105f85780637acf6337146105aa5780638aeda25a1461056f57806391d1485414610515578063a217fddf146104f9578063b91ac788146104b7578063c0d7865514610474578063c9c65396146101fa578063cc1776d3146101dc578063d547741f146101a4578063e2ad37b01461017b578063e6a43905146101295763f887ea40146100fb57600080fd5b34610124576000366003190112610124576002546040516001600160a01b039091168152602090f35b600080fd5b3461012457604036600319011261012457610142610901565b61014a6108eb565b6001600160a01b03918216600090815260208181526040808320938516835292815290829020549151919092168152f35b34610124576000366003190112610124576003546040516001600160a01b039091168152602090f35b34610124576040366003190112610124576101da6004356101c36108eb565b906101d56101d082610972565b610a51565b610bf6565b005b34610124576000366003190112610124576020600554604051908152f35b3461012457604036600319011261012457610213610901565b61021b6108eb565b3360009081527f7a5b68ff0f13768bc86eb4902144e89f1547a35d6d4bf0e23c2f18b32c5a92f1602052604090205490919060ff161561043b5760026000805160206117a7833981519152541461042a5760026000805160206117a7833981519152556001600160a01b031690610293821515610993565b6001600160a01b03166102a7811515610993565b6002546001600160a01b031680156103f95760405190610ac280830183811067ffffffffffffffff8211176103d7576060928492610cc5843981528560208201528460408201520301906000f080156103ed57600083815260208181526040808320858452825280832080546001600160a01b03199081166001600160a01b039690961695861790915583835281842087855290925290912080549091168217905560015492909190680100000000000000008410156103d75761037384600160209601600155610941565b81549060031b9085821b9160018060a01b03901b19161790557f0d3648bd0f6ba80134a33ba9275ac585d9d315f0ad8355cddefde31afa28d0e9604060015481519086825287820152a360016000805160206117a783398151915255604051908152f35b634e487b7160e01b600052604160045260246000fd5b6040513d6000823e3d90fd5b60405162461bcd60e51b81526020600482015260096024820152682737903937baba32b960b91b6044820152606490fd5b633ee5aeb560e01b60005260046000fd5b63e2517d3f60e01b600052336004527f828634d95e775031b9ff576b159a8509d3053581a8c9c4d7d86899e0afcd882f60245260446000fd5b346101245760203660031901126101245761048d610901565b6104956109df565b600280546001600160a01b0319166001600160a01b0392909216919091179055005b3461012457602036600319011261012457600435600154811015610124576104e0602091610941565b905460405160039290921b1c6001600160a01b03168152f35b3461012457600036600319011261012457602060405160008152f35b346101245760403660031901126101245761052e6108eb565b60043560005260008051602061178783398151915260205260406000209060018060a01b0316600052602052602060ff604060002054166040519015158152f35b346101245760003660031901126101245760206040517f828634d95e775031b9ff576b159a8509d3053581a8c9c4d7d86899e0afcd882f8152f35b34610124576105b836610917565b916105c16109df565b6001600160a01b03166105d5811515610993565b6bffffffffffffffffffffffff60a01b6003541617600355600455600555600080f35b346101245761060636610917565b906000805160206117c7833981519152549260ff8460401c16159367ffffffffffffffff81168015908161077c575b6001149081610772575b159081610769575b506107585767ffffffffffffffff1981166001176000805160206117c7833981519152558461072b575b5061067a610c96565b610682610c96565b61068a610c96565b60016000805160206117a7833981519152556106a533610a9b565b5060018060a01b03166bffffffffffffffffffffffff60a01b60035416176003556004556005556106d257005b68ff0000000000000000196000805160206117c783398151915254166000805160206117c7833981519152557fc7f505b2f371ae2175ee4913f4499e1f2633a7b5936321eed1cdaeb6115181d2602060405160018152a1005b68ffffffffffffffffff191668010000000000000001176000805160206117c78339815191525584610671565b63f92ee8a960e01b60005260046000fd5b90501586610647565b303b15915061063f565b869150610635565b346101245760003660031901126101245760206040517fa49807205ce4d355092ef5a8a18f56e8913cf4a201fbe287825b095693c217758152f35b34610124576000366003190112610124576020600154604051908152f35b34610124576000366003190112610124576020600454604051908152f35b34610124576040366003190112610124576108146108eb565b336001600160a01b03821603610830576101da90600435610bf6565b63334bd91960e11b60005260046000fd5b34610124576040366003190112610124576101da6004356108606108eb565b9061086d6101d082610972565b610b4d565b34610124576020366003190112610124576020610890600435610972565b604051908152f35b34610124576020366003190112610124576004359063ffffffff60e01b821680920361012457602091637965db0b60e01b81149081156108da575b5015158152f35b6301ffc9a760e01b149050836108d3565b602435906001600160a01b038216820361012457565b600435906001600160a01b038216820361012457565b6060906003190112610124576004356001600160a01b038116810361012457906024359060443590565b60015481101561095c57600160005260206000200190600090565b634e487b7160e01b600052603260045260246000fd5b60005260008051602061178783398151915260205260016040600020015490565b1561099a57565b60405162461bcd60e51b815260206004820152601f60248201527f5a65726f2061646472657373657320617265206e6f7420616c6c6f7765642e006044820152606490fd5b3360009081527fb16e88c42fd4e48df2dd6a2eabd6bc9aec654ec170056b470819f8892cc6431c602052604090205460ff1615610a1857565b63e2517d3f60e01b600052336004527fa49807205ce4d355092ef5a8a18f56e8913cf4a201fbe287825b095693c2177560245260446000fd5b60008181526000805160206117878339815191526020908152604080832033845290915290205460ff1615610a835750565b63e2517d3f60e01b6000523360045260245260446000fd5b6001600160a01b03811660009081527fb7db2dd08fcb62d0c9e08c51941cae53c267786a0b75803fb7960902fc8ef97d602052604090205460ff16610b47576001600160a01b031660008181527fb7db2dd08fcb62d0c9e08c51941cae53c267786a0b75803fb7960902fc8ef97d60205260408120805460ff191660011790553391907f2f8788117e7eff1d82e926ec794901d17c78024a50270940304540a733656f0d8180a4600190565b50600090565b6000818152600080516020611787833981519152602090815260408083206001600160a01b038616845290915290205460ff16610bef576000818152600080516020611787833981519152602090815260408083206001600160a01b0395909516808452949091528120805460ff19166001179055339291907f2f8788117e7eff1d82e926ec794901d17c78024a50270940304540a733656f0d9080a4600190565b5050600090565b6000818152600080516020611787833981519152602090815260408083206001600160a01b038616845290915290205460ff1615610bef576000818152600080516020611787833981519152602090815260408083206001600160a01b0395909516808452949091528120805460ff19169055339291907ff6391f5c32d9c69d2a47ea670b442974b53935d1edc7fd64eb21e047a839171b9080a4600190565b60ff6000805160206117c78339815191525460401c1615610cb357565b631afcd79f60e31b60005260046000fdfe6080346100e457601f610ac238819003918201601f19168301916001600160401b038311848410176100e9578084926060946040528339810103126100e457610047816100ff565b61005f6040610058602085016100ff565b93016100ff565b60016000556001600160a01b039091169161007b831515610113565b6001600160a01b031690610090821515610113565b6001600160a01b0316916100a5831515610113565b60018060a01b0319600154161760015560018060a01b0319600254161760025560018060a01b0319600354161760035560405161096290816101608239f35b600080fd5b634e487b7160e01b600052604160045260246000fd5b51906001600160a01b03821682036100e457565b1561011a57565b60405162461bcd60e51b815260206004820152601f60248201527f5a65726f2061646472657373657320617265206e6f7420616c6c6f7765642e006044820152606490fdfe608080604052600436101561001357600080fd5b60003560e01c9081630902f1ac1461065c575080630e06dfc91461063a5780630fc63d10146106115780631b2ef1ca146105175780632ccb1b30146104bc5780635673b02d146103ee5780635c52a5f21461029f5780635c921eb9146102425780635c9d6938146102185780635f64b55b146101ef5780637464fc3d146101d1578063b69ef8a81461017c578063c66f2455146100e75763f887ea40146100b957600080fd5b346100e25760003660031901126100e2576001546040516001600160a01b039091168152602090f35b600080fd5b346100e25760003660031901126100e2576003546040516370a0823160e01b815230600482015290602090829060249082906001600160a01b03165afa80156101705760009061013d575b602090604051908152f35b506020813d602011610168575b816101576020938361073f565b810103126100e25760209051610132565b3d915061014a565b6040513d6000823e3d90fd5b346100e25760003660031901126100e2576002546040516370a0823160e01b815230600482015290602090829060249082906001600160a01b03165afa80156101705760009061013d57602090604051908152f35b346100e25760003660031901126100e2576020600654604051908152f35b346100e25760003660031901126100e2576003546040516001600160a01b039091168152602090f35b346100e25760003660031901126100e257602061023a60055460045490610696565b604051908152f35b346100e25760403660031901126100e25761029d61025e610680565b61027360018060a01b036001541633146106b6565b6102876001600160a01b0382161515610761565b60035460243591906001600160a01b03166107c7565b005b346100e25760603660031901126100e2576102b8610680565b6024356001600160a01b03811691908290036100e2576102e360018060a01b036001541633146106b6565b6001600160a01b038116916102f9831515610761565b610304811515610761565b60405163095ea7b360e01b602082019081526001600160a01b039390931660248201526044803581830152815291600090819061034260648661073f565b84519082855af161035161088b565b816103bf575b50806103b5575b1561036f575b602060405160018152f35b6103a86103ad936040519063095ea7b360e01b6020830152602482015260006044820152604481526103a260648261073f565b8261081d565b61081d565b808080610364565b50803b151561035e565b80518015925082156103d4575b505084610357565b6103e79250602080918301019101610805565b84806103cc565b346100e25760803660031901126100e2577f298c349c742327269dc8de6ad66687767310c948ea309df826f5bd103e19d20760806004356024356044356064359161044460018060a01b036001541633146106b6565b61045981610454866004546107ad565b6107ba565b61046984610454856005546107ad565b600654916040516104798161070d565b81815282602082015283604082015260604291015260045560055560065542600755604051938452602084015260408301526060820152a1602060405160018152f35b346100e25760403660031901126100e25761029d6104d8610680565b6104ed60018060a01b036001541633146106b6565b6105016001600160a01b0382161515610761565b60025460243591906001600160a01b03166107c7565b346100e25760403660031901126100e2576004356024359061054460018060a01b036001541633146106b6565b6007546105db57818102908082048314811517156105c5577fcc9c58b575eabd3f6a1ee653e91fcea3ff546867ffc3782a3bbca1f9b6dbb8df92604092835161058c8161070d565b838152826020820152818582015260604291015282600455816005556006554260075582519182526020820152a1602060405160018152f35b634e487b7160e01b600052601160045260246000fd5b60405162461bcd60e51b815260206004820152600e60248201526d105b1c9958591e481b5a5b9d195960921b6044820152606490fd5b346100e25760003660031901126100e2576002546040516001600160a01b039091168152602090f35b346100e25760003660031901126100e257602061023a60045460055490610696565b346100e25760003660031901126100e2576040906004546005549082526020820152f35b600435906001600160a01b03821682036100e257565b81156106a0570490565b634e487b7160e01b600052601260045260246000fd5b156106bd57565b60405162461bcd60e51b815260206004820152602260248201527f4f6e6c7920726f757465722063616e2063616c6c20746869732066756e63746960448201526137b760f11b6064820152608490fd5b6080810190811067ffffffffffffffff82111761072957604052565b634e487b7160e01b600052604160045260246000fd5b90601f8019910116810190811067ffffffffffffffff82111761072957604052565b1561076857565b60405162461bcd60e51b815260206004820152601f60248201527f5a65726f2061646472657373657320617265206e6f7420616c6c6f7765642e006044820152606490fd5b919082018092116105c557565b919082039182116105c557565b60405163a9059cbb60e01b60208201526001600160a01b03929092166024830152604480830193909352918152610803916103a860648361073f565b565b908160209103126100e2575180151581036100e25790565b6000806108469260018060a01b03169360208151910182865af161083f61088b565b90836108cb565b8051908115159182610870575b505061085c5750565b635274afe760e01b60005260045260246000fd5b6108839250602080918301019101610805565b153880610853565b3d156108c6573d9067ffffffffffffffff821161072957604051916108ba601f8201601f19166020018461073f565b82523d6000602084013e565b606090565b906108f157508051156108e057805190602001fd5b630a12f52160e11b60005260046000fd5b81511580610923575b610902575090565b639996b31560e01b60009081526001600160a01b0391909116600452602490fd5b50803b156108fa56fea264697066735822122059abe0ad7b4ff820e464aa9c4bd9c4ff2f68013ef8c75a9e96992eab990a516464736f6c634300081a003302dd7bc7dec4dceedda775e58dd541e08a116c6c53815c0bd028192f7b6268009b779b17422d0df92223018b32b4d1fa46e071723d6817e2486d003becc55f00f0c57e16840df040f15088dc2f81fe391c3923bec73e23a9662efc9c229c6a00a26469706673582212200b5b06b3a0570ca29a2c6d4abbda3f237234b00e5acd66ee9be7af9dfdae91f864736f6c634300081a0033","linkReferences":{}},"methodIdentifiers":{"ADMIN_ROLE()":"75b238fc","CREATOR_ROLE()":"8aeda25a","DEFAULT_ADMIN_ROLE()":"a217fddf","allPairsLength()":"574f2ba3","buyTax()":"4f7041a5","createPair(address,address)":"c9c65396","getPair(address,address)":"e6a43905","getRoleAdmin(bytes32)":"248a9ca3","grantRole(bytes32,address)":"2f2ff15d","hasRole(bytes32,address)":"91d14854","initialize(address,uint256,uint256)":"7a1ac61e","pairs(uint256)":"b91ac788","renounceRole(bytes32,address)":"36568abe","revokeRole(bytes32,address)":"d547741f","router()":"f887ea40","sellTax()":"cc1776d3","setRouter(address)":"c0d78655","setTaxParams(address,uint256,uint256)":"7acf6337","supportsInterface(bytes4)":"01ffc9a7","taxVault()":"e2ad37b0"},"id":20}