{"abi":[{"type":"constructor","inputs":[{"name":"token","type":"address","internalType":"contract IVotes"},{"name":"initialVotingDelay","type":"uint48","internalType":"uint48"},{"name":"initialVotingPeriod","type":"uint32","internalType":"uint32"},{"name":"initialProposalThreshold","type":"uint256","internalType":"uint256"}],"stateMutability":"nonpayable"},{"type":"receive","stateMutability":"payable"},{"type":"function","name":"BALLOT_TYPEHASH","inputs":[],"outputs":[{"name":"","type":"bytes32","internalType":"bytes32"}],"stateMutability":"view"},{"type":"function","name":"CLOCK_MODE","inputs":[],"outputs":[{"name":"","type":"string","internalType":"string"}],"stateMutability":"view"},{"type":"function","name":"COUNTING_MODE","inputs":[],"outputs":[{"name":"","type":"string","internalType":"string"}],"stateMutability":"pure"},{"type":"function","name":"DEFAULT_ADMIN_ROLE","inputs":[],"outputs":[{"name":"","type":"bytes32","internalType":"bytes32"}],"stateMutability":"view"},{"type":"function","name":"EXECUTOR_ROLE","inputs":[],"outputs":[{"name":"","type":"bytes32","internalType":"bytes32"}],"stateMutability":"view"},{"type":"function","name":"EXTENDED_BALLOT_TYPEHASH","inputs":[],"outputs":[{"name":"","type":"bytes32","internalType":"bytes32"}],"stateMutability":"view"},{"type":"function","name":"cancel","inputs":[{"name":"proposalId","type":"uint256","internalType":"uint256"}],"outputs":[],"stateMutability":"nonpayable"},{"type":"function","name":"cancel","inputs":[{"name":"targets","type":"address[]","internalType":"address[]"},{"name":"values","type":"uint256[]","internalType":"uint256[]"},{"name":"calldatas","type":"bytes[]","internalType":"bytes[]"},{"name":"descriptionHash","type":"bytes32","internalType":"bytes32"}],"outputs":[{"name":"","type":"uint256","internalType":"uint256"}],"stateMutability":"nonpayable"},{"type":"function","name":"castVote","inputs":[{"name":"proposalId","type":"uint256","internalType":"uint256"},{"name":"support","type":"uint8","internalType":"uint8"}],"outputs":[{"name":"","type":"uint256","internalType":"uint256"}],"stateMutability":"nonpayable"},{"type":"function","name":"castVoteBySig","inputs":[{"name":"proposalId","type":"uint256","internalType":"uint256"},{"name":"support","type":"uint8","internalType":"uint8"},{"name":"voter","type":"address","internalType":"address"},{"name":"signature","type":"bytes","internalType":"bytes"}],"outputs":[{"name":"","type":"uint256","internalType":"uint256"}],"stateMutability":"nonpayable"},{"type":"function","name":"castVoteWithReason","inputs":[{"name":"proposalId","type":"uint256","internalType":"uint256"},{"name":"support","type":"uint8","internalType":"uint8"},{"name":"reason","type":"string","internalType":"string"}],"outputs":[{"name":"","type":"uint256","internalType":"uint256"}],"stateMutability":"nonpayable"},{"type":"function","name":"castVoteWithReasonAndParams","inputs":[{"name":"proposalId","type":"uint256","internalType":"uint256"},{"name":"support","type":"uint8","internalType":"uint8"},{"name":"reason","type":"string","internalType":"string"},{"name":"params","type":"bytes","internalType":"bytes"}],"outputs":[{"name":"","type":"uint256","internalType":"uint256"}],"stateMutability":"nonpayable"},{"type":"function","name":"castVoteWithReasonAndParamsBySig","inputs":[{"name":"proposalId","type":"uint256","internalType":"uint256"},{"name":"support","type":"uint8","internalType":"uint8"},{"name":"voter","type":"address","internalType":"address"},{"name":"reason","type":"string","internalType":"string"},{"name":"params","type":"bytes","internalType":"bytes"},{"name":"signature","type":"bytes","internalType":"bytes"}],"outputs":[{"name":"","type":"uint256","internalType":"uint256"}],"stateMutability":"nonpayable"},{"type":"function","name":"clock","inputs":[],"outputs":[{"name":"","type":"uint48","internalType":"uint48"}],"stateMutability":"view"},{"type":"function","name":"earlyExecute","inputs":[{"name":"proposalId","type":"uint256","internalType":"uint256"}],"outputs":[{"name":"","type":"uint256","internalType":"uint256"}],"stateMutability":"payable"},{"type":"function","name":"eip712Domain","inputs":[],"outputs":[{"name":"fields","type":"bytes1","internalType":"bytes1"},{"name":"name","type":"string","internalType":"string"},{"name":"version","type":"string","internalType":"string"},{"name":"chainId","type":"uint256","internalType":"uint256"},{"name":"verifyingContract","type":"address","internalType":"address"},{"name":"salt","type":"bytes32","internalType":"bytes32"},{"name":"extensions","type":"uint256[]","internalType":"uint256[]"}],"stateMutability":"view"},{"type":"function","name":"execute","inputs":[{"name":"targets","type":"address[]","internalType":"address[]"},{"name":"values","type":"uint256[]","internalType":"uint256[]"},{"name":"calldatas","type":"bytes[]","internalType":"bytes[]"},{"name":"descriptionHash","type":"bytes32","internalType":"bytes32"}],"outputs":[{"name":"","type":"uint256","internalType":"uint256"}],"stateMutability":"payable"},{"type":"function","name":"execute","inputs":[{"name":"proposalId","type":"uint256","internalType":"uint256"}],"outputs":[],"stateMutability":"payable"},{"type":"function","name":"getRoleAdmin","inputs":[{"name":"role","type":"bytes32","internalType":"bytes32"}],"outputs":[{"name":"","type":"bytes32","internalType":"bytes32"}],"stateMutability":"view"},{"type":"function","name":"getVotes","inputs":[{"name":"account","type":"address","internalType":"address"},{"name":"timepoint","type":"uint256","internalType":"uint256"}],"outputs":[{"name":"","type":"uint256","internalType":"uint256"}],"stateMutability":"view"},{"type":"function","name":"getVotesWithParams","inputs":[{"name":"account","type":"address","internalType":"address"},{"name":"timepoint","type":"uint256","internalType":"uint256"},{"name":"params","type":"bytes","internalType":"bytes"}],"outputs":[{"name":"","type":"uint256","internalType":"uint256"}],"stateMutability":"view"},{"type":"function","name":"grantRole","inputs":[{"name":"role","type":"bytes32","internalType":"bytes32"},{"name":"account","type":"address","internalType":"address"}],"outputs":[],"stateMutability":"nonpayable"},{"type":"function","name":"hasRole","inputs":[{"name":"role","type":"bytes32","internalType":"bytes32"},{"name":"account","type":"address","internalType":"address"}],"outputs":[{"name":"","type":"bool","internalType":"bool"}],"stateMutability":"view"},{"type":"function","name":"hasVoted","inputs":[{"name":"proposalId","type":"uint256","internalType":"uint256"},{"name":"account","type":"address","internalType":"address"}],"outputs":[{"name":"","type":"bool","internalType":"bool"}],"stateMutability":"view"},{"type":"function","name":"hashProposal","inputs":[{"name":"targets","type":"address[]","internalType":"address[]"},{"name":"values","type":"uint256[]","internalType":"uint256[]"},{"name":"calldatas","type":"bytes[]","internalType":"bytes[]"},{"name":"descriptionHash","type":"bytes32","internalType":"bytes32"}],"outputs":[{"name":"","type":"uint256","internalType":"uint256"}],"stateMutability":"pure"},{"type":"function","name":"name","inputs":[],"outputs":[{"name":"","type":"string","internalType":"string"}],"stateMutability":"view"},{"type":"function","name":"nonces","inputs":[{"name":"owner","type":"address","internalType":"address"}],"outputs":[{"name":"","type":"uint256","internalType":"uint256"}],"stateMutability":"view"},{"type":"function","name":"onERC1155BatchReceived","inputs":[{"name":"","type":"address","internalType":"address"},{"name":"","type":"address","internalType":"address"},{"name":"","type":"uint256[]","internalType":"uint256[]"},{"name":"","type":"uint256[]","internalType":"uint256[]"},{"name":"","type":"bytes","internalType":"bytes"}],"outputs":[{"name":"","type":"bytes4","internalType":"bytes4"}],"stateMutability":"nonpayable"},{"type":"function","name":"onERC1155Received","inputs":[{"name":"","type":"address","internalType":"address"},{"name":"","type":"address","internalType":"address"},{"name":"","type":"uint256","internalType":"uint256"},{"name":"","type":"uint256","internalType":"uint256"},{"name":"","type":"bytes","internalType":"bytes"}],"outputs":[{"name":"","type":"bytes4","internalType":"bytes4"}],"stateMutability":"nonpayable"},{"type":"function","name":"onERC721Received","inputs":[{"name":"","type":"address","internalType":"address"},{"name":"","type":"address","internalType":"address"},{"name":"","type":"uint256","internalType":"uint256"},{"name":"","type":"bytes","internalType":"bytes"}],"outputs":[{"name":"","type":"bytes4","internalType":"bytes4"}],"stateMutability":"nonpayable"},{"type":"function","name":"proposalCount","inputs":[],"outputs":[{"name":"","type":"uint256","internalType":"uint256"}],"stateMutability":"view"},{"type":"function","name":"proposalDeadline","inputs":[{"name":"proposalId","type":"uint256","internalType":"uint256"}],"outputs":[{"name":"","type":"uint256","internalType":"uint256"}],"stateMutability":"view"},{"type":"function","name":"proposalDetails","inputs":[{"name":"proposalId","type":"uint256","internalType":"uint256"}],"outputs":[{"name":"","type":"address[]","internalType":"address[]"},{"name":"","type":"uint256[]","internalType":"uint256[]"},{"name":"","type":"bytes[]","internalType":"bytes[]"},{"name":"","type":"bytes32","internalType":"bytes32"}],"stateMutability":"view"},{"type":"function","name":"proposalDetailsAt","inputs":[{"name":"index","type":"uint256","internalType":"uint256"}],"outputs":[{"name":"","type":"uint256","internalType":"uint256"},{"name":"","type":"address[]","internalType":"address[]"},{"name":"","type":"uint256[]","internalType":"uint256[]"},{"name":"","type":"bytes[]","internalType":"bytes[]"},{"name":"","type":"bytes32","internalType":"bytes32"}],"stateMutability":"view"},{"type":"function","name":"proposalEta","inputs":[{"name":"proposalId","type":"uint256","internalType":"uint256"}],"outputs":[{"name":"","type":"uint256","internalType":"uint256"}],"stateMutability":"view"},{"type":"function","name":"proposalNeedsQueuing","inputs":[{"name":"","type":"uint256","internalType":"uint256"}],"outputs":[{"name":"","type":"bool","internalType":"bool"}],"stateMutability":"view"},{"type":"function","name":"proposalProposer","inputs":[{"name":"proposalId","type":"uint256","internalType":"uint256"}],"outputs":[{"name":"","type":"address","internalType":"address"}],"stateMutability":"view"},{"type":"function","name":"proposalSnapshot","inputs":[{"name":"proposalId","type":"uint256","internalType":"uint256"}],"outputs":[{"name":"","type":"uint256","internalType":"uint256"}],"stateMutability":"view"},{"type":"function","name":"proposalThreshold","inputs":[],"outputs":[{"name":"","type":"uint256","internalType":"uint256"}],"stateMutability":"view"},{"type":"function","name":"proposalVotes","inputs":[{"name":"proposalId","type":"uint256","internalType":"uint256"}],"outputs":[{"name":"againstVotes","type":"uint256","internalType":"uint256"},{"name":"forVotes","type":"uint256","internalType":"uint256"},{"name":"abstainVotes","type":"uint256","internalType":"uint256"}],"stateMutability":"view"},{"type":"function","name":"propose","inputs":[{"name":"targets","type":"address[]","internalType":"address[]"},{"name":"values","type":"uint256[]","internalType":"uint256[]"},{"name":"calldatas","type":"bytes[]","internalType":"bytes[]"},{"name":"description","type":"string","internalType":"string"}],"outputs":[{"name":"","type":"uint256","internalType":"uint256"}],"stateMutability":"nonpayable"},{"type":"function","name":"queue","inputs":[{"name":"targets","type":"address[]","internalType":"address[]"},{"name":"values","type":"uint256[]","internalType":"uint256[]"},{"name":"calldatas","type":"bytes[]","internalType":"bytes[]"},{"name":"descriptionHash","type":"bytes32","internalType":"bytes32"}],"outputs":[{"name":"","type":"uint256","internalType":"uint256"}],"stateMutability":"nonpayable"},{"type":"function","name":"queue","inputs":[{"name":"proposalId","type":"uint256","internalType":"uint256"}],"outputs":[],"stateMutability":"nonpayable"},{"type":"function","name":"quorum","inputs":[{"name":"blockNumber","type":"uint256","internalType":"uint256"}],"outputs":[{"name":"","type":"uint256","internalType":"uint256"}],"stateMutability":"view"},{"type":"function","name":"relay","inputs":[{"name":"target","type":"address","internalType":"address"},{"name":"value","type":"uint256","internalType":"uint256"},{"name":"data","type":"bytes","internalType":"bytes"}],"outputs":[],"stateMutability":"payable"},{"type":"function","name":"renounceRole","inputs":[{"name":"role","type":"bytes32","internalType":"bytes32"},{"name":"callerConfirmation","type":"address","internalType":"address"}],"outputs":[],"stateMutability":"nonpayable"},{"type":"function","name":"revokeRole","inputs":[{"name":"role","type":"bytes32","internalType":"bytes32"},{"name":"account","type":"address","internalType":"address"}],"outputs":[],"stateMutability":"nonpayable"},{"type":"function","name":"setProposalThreshold","inputs":[{"name":"newProposalThreshold","type":"uint256","internalType":"uint256"}],"outputs":[],"stateMutability":"nonpayable"},{"type":"function","name":"setVotingDelay","inputs":[{"name":"newVotingDelay","type":"uint48","internalType":"uint48"}],"outputs":[],"stateMutability":"nonpayable"},{"type":"function","name":"setVotingPeriod","inputs":[{"name":"newVotingPeriod","type":"uint32","internalType":"uint32"}],"outputs":[],"stateMutability":"nonpayable"},{"type":"function","name":"state","inputs":[{"name":"proposalId","type":"uint256","internalType":"uint256"}],"outputs":[{"name":"","type":"uint8","internalType":"enum IGovernor.ProposalState"}],"stateMutability":"view"},{"type":"function","name":"supportsInterface","inputs":[{"name":"interfaceId","type":"bytes4","internalType":"bytes4"}],"outputs":[{"name":"","type":"bool","internalType":"bool"}],"stateMutability":"view"},{"type":"function","name":"token","inputs":[],"outputs":[{"name":"","type":"address","internalType":"contract IERC5805"}],"stateMutability":"view"},{"type":"function","name":"updateQuorum","inputs":[{"name":"newQuorum","type":"uint224","internalType":"uint224"}],"outputs":[],"stateMutability":"nonpayable"},{"type":"function","name":"version","inputs":[],"outputs":[{"name":"","type":"string","internalType":"string"}],"stateMutability":"view"},{"type":"function","name":"votingDelay","inputs":[],"outputs":[{"name":"","type":"uint256","internalType":"uint256"}],"stateMutability":"view"},{"type":"function","name":"votingPeriod","inputs":[],"outputs":[{"name":"","type":"uint256","internalType":"uint256"}],"stateMutability":"view"},{"type":"event","name":"EIP712DomainChanged","inputs":[],"anonymous":false},{"type":"event","name":"ProposalCanceled","inputs":[{"name":"proposalId","type":"uint256","indexed":false,"internalType":"uint256"}],"anonymous":false},{"type":"event","name":"ProposalCreated","inputs":[{"name":"proposalId","type":"uint256","indexed":false,"internalType":"uint256"},{"name":"proposer","type":"address","indexed":false,"internalType":"address"},{"name":"targets","type":"address[]","indexed":false,"internalType":"address[]"},{"name":"values","type":"uint256[]","indexed":false,"internalType":"uint256[]"},{"name":"signatures","type":"string[]","indexed":false,"internalType":"string[]"},{"name":"calldatas","type":"bytes[]","indexed":false,"internalType":"bytes[]"},{"name":"voteStart","type":"uint256","indexed":false,"internalType":"uint256"},{"name":"voteEnd","type":"uint256","indexed":false,"internalType":"uint256"},{"name":"description","type":"string","indexed":false,"internalType":"string"}],"anonymous":false},{"type":"event","name":"ProposalExecuted","inputs":[{"name":"proposalId","type":"uint256","indexed":false,"internalType":"uint256"}],"anonymous":false},{"type":"event","name":"ProposalQueued","inputs":[{"name":"proposalId","type":"uint256","indexed":false,"internalType":"uint256"},{"name":"etaSeconds","type":"uint256","indexed":false,"internalType":"uint256"}],"anonymous":false},{"type":"event","name":"ProposalThresholdSet","inputs":[{"name":"oldProposalThreshold","type":"uint256","indexed":false,"internalType":"uint256"},{"name":"newProposalThreshold","type":"uint256","indexed":false,"internalType":"uint256"}],"anonymous":false},{"type":"event","name":"QuorumUpdated","inputs":[{"name":"oldQuorum","type":"uint224","indexed":false,"internalType":"uint224"},{"name":"newQuorum","type":"uint224","indexed":false,"internalType":"uint224"}],"anonymous":false},{"type":"event","name":"RoleAdminChanged","inputs":[{"name":"role","type":"bytes32","indexed":true,"internalType":"bytes32"},{"name":"previousAdminRole","type":"bytes32","indexed":true,"internalType":"bytes32"},{"name":"newAdminRole","type":"bytes32","indexed":true,"internalType":"bytes32"}],"anonymous":false},{"type":"event","name":"RoleGranted","inputs":[{"name":"role","type":"bytes32","indexed":true,"internalType":"bytes32"},{"name":"account","type":"address","indexed":true,"internalType":"address"},{"name":"sender","type":"address","indexed":true,"internalType":"address"}],"anonymous":false},{"type":"event","name":"RoleRevoked","inputs":[{"name":"role","type":"bytes32","indexed":true,"internalType":"bytes32"},{"name":"account","type":"address","indexed":true,"internalType":"address"},{"name":"sender","type":"address","indexed":true,"internalType":"address"}],"anonymous":false},{"type":"event","name":"VoteCast","inputs":[{"name":"voter","type":"address","indexed":true,"internalType":"address"},{"name":"proposalId","type":"uint256","indexed":false,"internalType":"uint256"},{"name":"support","type":"uint8","indexed":false,"internalType":"uint8"},{"name":"weight","type":"uint256","indexed":false,"internalType":"uint256"},{"name":"reason","type":"string","indexed":false,"internalType":"string"}],"anonymous":false},{"type":"event","name":"VoteCastWithParams","inputs":[{"name":"voter","type":"address","indexed":true,"internalType":"address"},{"name":"proposalId","type":"uint256","indexed":false,"internalType":"uint256"},{"name":"support","type":"uint8","indexed":false,"internalType":"uint8"},{"name":"weight","type":"uint256","indexed":false,"internalType":"uint256"},{"name":"reason","type":"string","indexed":false,"internalType":"string"},{"name":"params","type":"bytes","indexed":false,"internalType":"bytes"}],"anonymous":false},{"type":"event","name":"VotingDelaySet","inputs":[{"name":"oldVotingDelay","type":"uint256","indexed":false,"internalType":"uint256"},{"name":"newVotingDelay","type":"uint256","indexed":false,"internalType":"uint256"}],"anonymous":false},{"type":"event","name":"VotingPeriodSet","inputs":[{"name":"oldVotingPeriod","type":"uint256","indexed":false,"internalType":"uint256"},{"name":"newVotingPeriod","type":"uint256","indexed":false,"internalType":"uint256"}],"anonymous":false},{"type":"error","name":"AccessControlBadConfirmation","inputs":[]},{"type":"error","name":"AccessControlUnauthorizedAccount","inputs":[{"name":"account","type":"address","internalType":"address"},{"name":"neededRole","type":"bytes32","internalType":"bytes32"}]},{"type":"error","name":"CheckpointUnorderedInsertion","inputs":[]},{"type":"error","name":"FailedInnerCall","inputs":[]},{"type":"error","name":"GovernorAlreadyCastVote","inputs":[{"name":"voter","type":"address","internalType":"address"}]},{"type":"error","name":"GovernorAlreadyQueuedProposal","inputs":[{"name":"proposalId","type":"uint256","internalType":"uint256"}]},{"type":"error","name":"GovernorDisabledDeposit","inputs":[]},{"type":"error","name":"GovernorInsufficientProposerVotes","inputs":[{"name":"proposer","type":"address","internalType":"address"},{"name":"votes","type":"uint256","internalType":"uint256"},{"name":"threshold","type":"uint256","internalType":"uint256"}]},{"type":"error","name":"GovernorInvalidProposalLength","inputs":[{"name":"targets","type":"uint256","internalType":"uint256"},{"name":"calldatas","type":"uint256","internalType":"uint256"},{"name":"values","type":"uint256","internalType":"uint256"}]},{"type":"error","name":"GovernorInvalidSignature","inputs":[{"name":"voter","type":"address","internalType":"address"}]},{"type":"error","name":"GovernorInvalidVoteType","inputs":[]},{"type":"error","name":"GovernorInvalidVotingPeriod","inputs":[{"name":"votingPeriod","type":"uint256","internalType":"uint256"}]},{"type":"error","name":"GovernorNonexistentProposal","inputs":[{"name":"proposalId","type":"uint256","internalType":"uint256"}]},{"type":"error","name":"GovernorNotQueuedProposal","inputs":[{"name":"proposalId","type":"uint256","internalType":"uint256"}]},{"type":"error","name":"GovernorOnlyExecutor","inputs":[{"name":"account","type":"address","internalType":"address"}]},{"type":"error","name":"GovernorOnlyProposer","inputs":[{"name":"account","type":"address","internalType":"address"}]},{"type":"error","name":"GovernorQueueNotImplemented","inputs":[]},{"type":"error","name":"GovernorRestrictedProposer","inputs":[{"name":"proposer","type":"address","internalType":"address"}]},{"type":"error","name":"GovernorUnexpectedProposalState","inputs":[{"name":"proposalId","type":"uint256","internalType":"uint256"},{"name":"current","type":"uint8","internalType":"enum IGovernor.ProposalState"},{"name":"expectedStates","type":"bytes32","internalType":"bytes32"}]},{"type":"error","name":"InvalidAccountNonce","inputs":[{"name":"account","type":"address","internalType":"address"},{"name":"currentNonce","type":"uint256","internalType":"uint256"}]},{"type":"error","name":"InvalidShortString","inputs":[]},{"type":"error","name":"QueueEmpty","inputs":[]},{"type":"error","name":"QueueFull","inputs":[]},{"type":"error","name":"SafeCastOverflowedUintDowncast","inputs":[{"name":"bits","type":"uint8","internalType":"uint8"},{"name":"value","type":"uint256","internalType":"uint256"}]},{"type":"error","name":"StringTooLong","inputs":[{"name":"str","type":"string","internalType":"string"}]}],"bytecode":{"object":"0x610180604052346100a35761001e6100156100f7565b9291909161018a565b604051613ff79081610a4e823960805181613189015260a05181613240015260c05181613153015260e051816131d8015261010051816131fe015261012051816111f30152610140518161121f0152610160518181816115be01528181611a3d01528181611c9e0152818161223d0152818161241001528181612d3a0152612eb50152f35b600080fd5b634e487b7160e01b600052604160045260246000fd5b601f909101601f19168101906001600160401b038211908210176100e157604052565b6100a8565b604051906100f56040836100be565b565b614a456080813803918260405193849261011182856100be565b8339810103126100a35780516001600160a01b03811681036100a35760208201519265ffffffffffff841684036100a35760408301519263ffffffff841684036100a357606001519193929190565b6040519061016f6040836100be565b600e8252565b604051906101846040836100be565b60018252565b929061026d926102636102689261025e6101a2610160565b602081016d5669727475616c47656e6573697360901b81526101c2610175565b906020820190603160f81b82526101d8846105c0565b610120526101e5836106ba565b6101405283519020918260e05251902080610100524660a0526040519060208201927f8b73c3c69bb8fe3d512ecc4cf759cc79239f7b179b0ffacaa9a75d522b39400f8452604083015260608201524660808201523060a082015260a0815261024f60c0826100be565b5190206080523060c05261031c565b6104b8565b610505565b610589565b6001600160a01b031661016052610282610870565b505061028d33610406565b50565b90600182811c921680156102c0575b60208310146102aa57565b634e487b7160e01b600052602260045260246000fd5b91607f169161029f565b601f82116102d757505050565b6000526020600020906020601f840160051c83019310610312575b601f0160051c01905b818110610306575050565b600081556001016102fb565b90915081906102f2565b80519091906001600160401b0381116100e1576103458161033e600354610290565b60036102ca565b602092601f8211600114610387576103779293829160009261037c575b50508160011b916000199060031b1c19161790565b600355565b015190503880610362565b6003600052601f198216937fc2575a0e9e593c00f959f8c92f12db2869c3395a3b0502d05e2516446f71f85b9160005b8681106103ee57508360019596106103d5575b505050811b01600355565b015160001960f88460031b161c191690553880806103ca565b919260206001819286850151815501940192016103b7565b6001600160a01b03811660009081527f13649b2456f1b42fef0f0040b3aaeabcd21a76a0f3f5defd4f583839455116e8602052604090205460ff166104b2576001600160a01b031660008181527f13649b2456f1b42fef0f0040b3aaeabcd21a76a0f3f5defd4f583839455116e860205260408120805460ff191660011790553391907f2f8788117e7eff1d82e926ec794901d17c78024a50270940304540a733656f0d8180a4600190565b50600090565b6008547fc565b045403dc03c2eea82b81a0465edad9e2e7fc4d97e11421c209da93d7a93604065ffffffffffff81519481851686521693846020820152a165ffffffffffff191617600855565b63ffffffff81169081156105735769ffffffff000000000000907f7e3f7f0708a84de9203036abaa450dccc85ad5ff52f78c170f3edb55cf5e882860406008549481519063ffffffff8760301c1682526020820152a160301b169069ffffffff000000000000191617600855565b63f1cfbf0560e01b600052600060045260246000fd5b7fccb45da8d5717e6c4544694297c4ba5cf151d455c9bb0ed4fc7a38411bc0546160406007548151908152836020820152a1600755565b908151602081106000146105dc5750906105d9906109d9565b90565b6001600160401b0381116100e157610600816105f9600054610290565b60006102ca565b602092601f8211600114610639576106319293829160009261037c5750508160011b916000199060031b1c19161790565b60005560ff90565b60008052601f198216937f290decd9548b62a8d60345a988386fc84ba6bc95484008f6362f93160ef3e5639160005b8681106106a25750836001959610610689575b505050811b0160005560ff90565b015160001960f88460031b161c1916905538808061067b565b91926020600181928685015181550194019201610668565b908151602081106000146106d35750906105d9906109d9565b6001600160401b0381116100e1576106f7816106f0600154610290565b60016102ca565b602092601f8211600114610730576107289293829160009261037c5750508160011b916000199060031b1c19161790565b60015560ff90565b6001600052601f198216937fb10e2d527612073b26eecdfd717e6a320cf44b4afac2b0732d9fcbe2b7fa0cf69160005b86811061079a5750836001959610610781575b505050811b0160015560ff90565b015160001960f88460031b161c19169055388080610773565b91926020600181928685015181550194019201610760565b908154680100000000000000008110156100e1576001810180845581101561080157600092835260209283902082519284015190931b63ffffffff191663ffffffff9290921691909117910155565b634e487b7160e01b600052603260045260246000fd5b60001981019190821161082657565b634e487b7160e01b600052601160045260246000fd5b604080519192919081016001600160401b038111828210176100e157604052602081935463ffffffff81168352811c910152565b600e548015610980576108b76108b261088883610817565b600e6000527fbb7b4a454dc3493923482f07822329ed19e8244eff582cc204f8554c3620c3fd0190565b61083c565b9063ffffffff6108cb835163ffffffff1690565b1661096f57816020916108f16108e8610934955163ffffffff1690565b63ffffffff1690565b6109435769021e19e0c9bab240000061090f61088861092693610817565b9063ffffffff82549181199060201b169116179055565b01516001600160e01b031690565b9069021e19e0c9bab240000090565b5061096a61094f6100e6565b6000815269021e19e0c9bab2400000818501525b600e6107b2565b610926565b632520601d60e01b60005260046000fd5b506109a561098c6100e6565b6000815269021e19e0c9bab24000006020820152610963565b60009069021e19e0c9bab240000090565b6020815191015190602081106109ca575090565b6000199060200360031b1b1690565b601f8151116109f1576109eb816109b6565b90511790565b6040519063305a27a960e01b8252602060048301528181519182602483015260005b838110610a355750508160006044809484010152601f80199101168101030190fd5b60208282018101516044878401015285935001610a1356fe6080604052600436101561001b575b361561001957600080fd5b005b60003560e01c806301ffc9a7146103ab57806302a251a3146103a657806306fdde03146103a157806307bd02651461039c578063143489d014610397578063150b7a0214610392578063160cbed71461038d57806316e9eaec14610388578063248a9ca3146103835780632656227d1461037e5780632d63f693146103795780632e82db94146103745780632f2ff15d1461036f5780632fe3e2611461036a57806336568abe146103655780633932abb1146103605780633e4f49e61461035b57806340e58ee5146103565780634385963214610351578063452115d61461034c5780634bf5d7e914610347578063544ffc9c1461034257806354fd4d501461033d57806356781388146103385780635b8d0e0d146103335780635f398a141461032e57806379051887146103295780637b3c71d3146103245780637d5e81e21461031f5780637ecebe001461031a57806384b0196e146103155780638ff262e31461031057806391d148541461030b57806391ddadf41461030657806397ad3b6f146103015780639a802a6d146102fc578063a217fddf146102f7578063a9a95294146102f2578063ab58fb8e146102ed578063b58131b0146102e8578063bc197c81146102e3578063c01f9e37146102de578063c28bc2fa146102d9578063c59057e4146102d4578063d547741f146102cf578063da35c664146102ca578063dd4e2ba5146102c5578063ddf0b009146102c0578063deaaa7cc146102bb578063e540d01d146102b6578063eb9019d4146102b1578063ece40cc1146102ac578063f23a6e61146102a7578063f5379ea9146102a2578063f8ce560a1461029d578063fc0c546a146102985763fe0d94c10361000e57611ccd565b611c88565b611c6a565b611b51565b611afc565b611aa9565b6119dd565b611933565b6118f8565b6118b0565b611851565b611833565b6117f3565b6117d7565b61176f565b611751565b6116bc565b61169e565b611669565b61164d565b611631565b611550565b61143f565b611414565b6113cd565b6112b2565b6111db565b6111a1565b6110f3565b61109e565b61102c565b610f9c565b610efa565b610e93565b610e40565b610dfd565b610dcd565b610db1565b610d5b565b610d09565b610cda565b610c8b565b610c45565b610c0a565b610bc5565b610b23565b610aec565b610ad5565b610aa0565b610a71565b610951565b61072d565b6105d3565b610598565b6104bb565b610438565b346104335760203660031901126104335760043563ffffffff60e01b811680910361043357637965db0b60e01b81149081156103f0575b506040519015158152602090f35b6332a2ad4360e11b811491508115610422575b8115610411575b50386103e2565b6301ffc9a760e01b1490503861040a565b630271189760e51b81149150610403565b600080fd5b3461043357600036600319011261043357602063ffffffff60085460301c16604051908152f35b60005b8381106104725750506000910152565b8181015183820152602001610462565b9060209161049b8151809281855285808601910161045f565b601f01601f1916010190565b9060206104b8928181520190610482565b90565b346104335760003660031901126104335760405160006003546104dd81611d13565b80845290600181169081156105745750600114610515575b610511836105058185038261067f565b604051918291826104a7565b0390f35b600360009081527fc2575a0e9e593c00f959f8c92f12db2869c3395a3b0502d05e2516446f71f85b939250905b80821061055a575090915081016020016105056104f5565b919260018160209254838588010152019101909291610542565b60ff191660208086019190915291151560051b8401909101915061050590506104f5565b346104335760003660031901126104335760206040517fd8aa0f3194971a2a116679f7c2090f6939c8d4e01a2a8d7e41d55e5351469e638152f35b34610433576020366003190112610433576004356000526004602052602060018060a01b0360406000205416604051908152f35b600435906001600160a01b038216820361043357565b602435906001600160a01b038216820361043357565b604435906001600160a01b038216820361043357565b634e487b7160e01b600052604160045260246000fd5b604081019081106001600160401b0382111761067a57604052565b610649565b90601f801991011681019081106001600160401b0382111761067a57604052565b604051906106af60408361067f565b565b604051906106af60808361067f565b6001600160401b03811161067a57601f01601f191660200190565b9291926106e7826106c0565b916106f5604051938461067f565b829481845281830111610433578281602093846000960137010152565b9080601f83011215610433578160206104b8933591016106db565b3461043357608036600319011261043357610746610607565b5061074f61061d565b506064356001600160401b0381116104335761076f903690600401610712565b50604051630a85bd0160e11b8152602090f35b6001600160401b03811161067a5760051b60200190565b9080601f83011215610433578135906107b182610782565b926107bf604051948561067f565b82845260208085019360051b82010191821161043357602001915b8183106107e75750505090565b82356001600160a01b0381168103610433578152602092830192016107da565b9080601f8301121561043357813561081e81610782565b9261082c604051948561067f565b81845260208085019260051b82010192831161043357602001905b8282106108545750505090565b8135815260209182019101610847565b9080601f8301121561043357813561087b81610782565b92610889604051948561067f565b81845260208085019260051b820101918383116104335760208201905b8382106108b557505050505090565b81356001600160401b038111610433576020916108d787848094880101610712565b8152019101906108a6565b6080600319820112610433576004356001600160401b038111610433578161090c91600401610799565b916024356001600160401b038111610433578261092b91600401610807565b91604435906001600160401b0382116104335761094a91600401610864565b9060643590565b346104335761095f366108e2565b92919091611dd0565b906020808351928381520192019060005b8181106109865750505090565b82516001600160a01b0316845260209384019390920191600101610979565b906020808351928381520192019060005b8181106109c35750505090565b82518452602093840193909201916001016109b6565b9080602083519182815201916020808360051b8301019401926000915b838310610a0557505050505090565b9091929394602080610a23600193601f198682030187528951610482565b970193019301919392906109f6565b949392610a5e606093610a50610a6c9460808a5260808a0190610968565b9088820360208a01526109a5565b9086820360408801526109d9565b930152565b3461043357602036600319011261043357610511610a90600435611efc565b9060409492945194859485610a32565b34610433576020366003190112610433576020610acd600435600052600c60205260016040600020015490565b604051908152f35b6020610acd610ae3366108e2565b92919091611fba565b34610433576020366003190112610433576004356000526004602052602065ffffffffffff60406000205460a01c16604051908152f35b3461043357602036600319011261043357600435600954811015610bc057610ba89060096000527f6e1540171b6c0c960b71a7020d9f60077f6af931a8bbf590da0223dacf75c7af0154610bb6610b7982611efc565b9392959091610b9a604051978897885260a0602089015260a0880190610968565b9086820360408801526109a5565b9084820360608601526109d9565b9060808301520390f35b611f90565b3461043357604036600319011261043357610019600435610be461061d565b90610c05610c0082600052600c60205260016040600020015490565b6128d9565b612916565b346104335760003660031901126104335760206040517f3e83946653575f9a39005e1545185629e92736b7528ab20ca3816f315424a8118152f35b3461043357604036600319011261043357600435610c6161061d565b336001600160a01b03821603610c7a57610019916129aa565b63334bd91960e11b60005260046000fd5b3461043357600036600319011261043357602065ffffffffffff60085416604051908152f35b634e487b7160e01b600052602160045260246000fd5b6008811015610cd557602452565b610cb1565b3461043357602036600319011261043357610cf66004356120ed565b6040516008821015610cd5576020918152f35b3461043357602036600319011261043357600435600052600a6020526100196040600020600381015490610d3c81611df6565b90610d556002610d4e60018401611e4a565b9201611e95565b91612112565b3461043357604036600319011261043357602060ff610da5600435610d7e61061d565b90600052600b845260036040600020019060018060a01b0316600052602052604060002090565b54166040519015158152f35b34610433576020610acd610dc4366108e2565b92919091612112565b3461043357600036600319011261043357610511610de9612228565b604051918291602083526020830190610482565b3461043357602036600319011261043357600435600052600b60205260606040600020805490600260018201549101549060405192835260208301526040820152f35b34610433576000366003190112610433576105116040805190610e63818361067f565b60018252603160f81b602083015251918291602083526020830190610482565b6024359060ff8216820361043357565b34610433576040366003190112610433576020610acd600435610eb4610e83565b60405191610ec2858461067f565b600083523390612b53565b9181601f84011215610433578235916001600160401b038311610433576020838186019501011161043357565b346104335760c036600319011261043357600435610f16610e83565b90610f1f610633565b906064356001600160401b03811161043357610f3f903690600401610ecd565b6084356001600160401b03811161043357610f5e903690600401610712565b9160a435946001600160401b0386116104335761051196610f86610f8c973690600401610712565b95612305565b6040519081529081906020820190565b3461043357608036600319011261043357600435610fb8610e83565b906044356001600160401b03811161043357610fd8903690600401610ecd565b9190926064356001600160401b0381116104335761101194611001611009923690600401610712565b9436916106db565b913390612ccf565b604051908152602090f35b65ffffffffffff81160361043357565b34610433576020366003190112610433576004356110498161101c565b611051612e22565b6008547fc565b045403dc03c2eea82b81a0465edad9e2e7fc4d97e11421c209da93d7a93604065ffffffffffff81519481851686521693846020820152a165ffffffffffff191617600855005b34610433576060366003190112610433576004356110ba610e83565b90604435906001600160401b038211610433576020926110eb6110e4610acd943690600401610ecd565b36916106db565b913390612b53565b34610433576080366003190112610433576004356001600160401b03811161043357611123903690600401610799565b6024356001600160401b03811161043357611142903690600401610807565b906044356001600160401b03811161043357611162903690600401610864565b90606435916001600160401b0383116104335736602384011215610433576105119361119b610f8c9436906024816004013591016106db565b92612e40565b34610433576020366003190112610433576001600160a01b036111c2610607565b1660005260026020526020604060002054604051908152f35b346104335760003660031901126104335760e06112177f0000000000000000000000000000000000000000000000000000000000000000613449565b6105116112437f00000000000000000000000000000000000000000000000000000000000000006134a6565b916112916020936112836040519361125b878661067f565b60008552601f1987013688870137604051978897600f60f81b895288015260e0870190610482565b908582036040870152610482565b90466060850152306080850152600060a085015283820360c08501526109a5565b34610433576080366003190112610433576004356112ce610e83565b906112d7610633565b916064356001600160401b0381116104335761138c6112fd611390923690600401610712565b6001600160a01b03861660009081526002602052604090208054600181019091556113869060405160208101917ff2aad550cf55f045cb27e9c559f9889fdfb6e6cdaa032301d6ea397784ae51d7835288604083015260ff8816606083015260018060a01b038a16608083015260a082015260a0815261137e60c08261067f565b519020612b71565b86612ba1565b1590565b6113ab5790610f8c91610511936113a56121d8565b92612b53565b6394ab6c0760e01b6000526001600160a01b03831660045260246000fd5b6000fd5b3461043357604036600319011261043357602060ff610da56004356113f061061d565b90600052600c845260406000209060018060a01b0316600052602052604060002090565b3461043357600036600319011261043357602061142f6123fb565b65ffffffffffff60405191168152f35b34610433576020366003190112610433576004356001600160e01b038116908181036104335761146d612e22565b600e5480611510575060005b61149165ffffffffffff61148b6123fb565b16612f6d565b926001600160d01b0381116114f757507fcd95ef72661846d9156e45d16b0aba02495d0bdff56c28057171e9464f3fc270926114d7906001600160d01b03841690613559565b5050604080516001600160e01b03928316815292909116602083015290a1005b6306dfcc6560e41b60005260d060045260245260446000fd5b8060001981011161154b57600e6000527fbb7b4a454dc3493923482f07822329ed19e8244eff582cc204f8554c3620c3fc015460201c611479565b61248f565b3461043357606036600319011261043357611569610607565b6024356044356001600160401b0381116104335761158b903690600401610712565b50604051630748d63560e31b81526001600160a01b039283166004820152602481019190915290602090829060449082907f0000000000000000000000000000000000000000000000000000000000000000165afa801561162c576000906115f857604051908152602090f35b506020813d602011611624575b816116126020938361067f565b81010312610433576105119051611011565b3d9150611605565b6121cc565b3461043357600036600319011261043357602060405160008152f35b3461043357602036600319011261043357602060405160008152f35b34610433576020366003190112610433576020610acd600435600052600460205265ffffffffffff6001604060002001541690565b34610433576000366003190112610433576020600754604051908152f35b346104335760a0366003190112610433576116d5610607565b506116de61061d565b506044356001600160401b038111610433576116fe903690600401610807565b506064356001600160401b0381116104335761171e903690600401610807565b506084356001600160401b0381116104335761173e903690600401610712565b5060405163bc197c8160e01b8152602090f35b34610433576020366003190112610433576020610acd6004356124a5565b606036600319011261043357611783610607565b6024356044356001600160401b03811161043357610019926000926117ad84933690600401610ecd565b91906117b7612e22565b826040519384928337810185815203925af16117d16124f0565b90612f9a565b34610433576020610acd6117ea366108e2565b92919091612520565b346104335760403660031901126104335761001960043561181261061d565b9061182e610c0082600052600c60205260016040600020015490565b6129aa565b34610433576000366003190112610433576020600954604051908152f35b34610433576000366003190112610433576105116040805190611874818361067f565b602082527f737570706f72743d627261766f2671756f72756d3d666f722c6162737461696e602083015251918291602083526020830190610482565b3461043357602036600319011261043357600435600052600a60205260406000206003810154906118e081611df6565b906118f26002610d4e60018401611e4a565b91611dd0565b346104335760003660031901126104335760206040517ff2aad550cf55f045cb27e9c559f9889fdfb6e6cdaa032301d6ea397784ae51d78152f35b346104335760203660031901126104335760043563ffffffff8116908181036104335761195e612e22565b81156119c75769ffffffff000000000000907f7e3f7f0708a84de9203036abaa450dccc85ad5ff52f78c170f3edb55cf5e882860406008549481519063ffffffff8760301c1682526020820152a160301b169069ffffffff000000000000191617600855600080f35b63f1cfbf0560e01b600052600060045260246000fd5b34610433576040366003190112610433576119f6610607565b6024356020906000604051611a0b848261067f565b52604051630748d63560e31b81526001600160a01b0393841660048201526024810191909152918190839060449082907f0000000000000000000000000000000000000000000000000000000000000000165afa90811561162c57600091611a79575b604051828152602090f35b905081813d8311611aa2575b611a8f818361067f565b8101031261043357610511905138611a6e565b503d611a85565b3461043357602036600319011261043357600435611ac5612e22565b7fccb45da8d5717e6c4544694297c4ba5cf151d455c9bb0ed4fc7a38411bc0546160406007548151908152836020820152a1600755005b346104335760a036600319011261043357611b15610607565b50611b1e61061d565b506084356001600160401b03811161043357611b3e903690600401610712565b5060405163f23a6e6160e01b8152602090f35b602036600319011261043357600435611b68612867565b611b7181611efc565b50611b7d8493946120ed565b916008831015610cd557610511946001611bd6941480611c48575b80611c39575b80611c12575b611bad9061254e565b611bd1611bc486600052600d602052604060002090565b805460ff19166001179055565b612804565b6040518181527f712ae1383f79ac853f8d882153778e0260ef8f03b504e2866e0593e04d2b291f90602090a16040519081529081906020820190565b5084600052600d602052611bad611c3261138c604060002060ff90541690565b9050611ba4565b50611c4385612fdd565b611b9e565b50611c6585600052600b6020526040600020600181015490541090565b611b98565b34610433576020366003190112610433576020610acd6004356125c7565b34610433576000366003190112610433576040517f00000000000000000000000000000000000000000000000000000000000000006001600160a01b03168152602090f35b602036600319011261043357600435600052600a6020526100196040600020600381015490611cfb81611df6565b90611d0d6002610d4e60018401611e4a565b91611fba565b90600182811c92168015611d43575b6020831014611d2d57565b634e487b7160e01b600052602260045260246000fd5b91607f1691611d22565b60009291815491611d5d83611d13565b8083529260018116908115611db35750600114611d7957505050565b60009081526020812093945091925b838310611d99575060209250010190565b600181602092949394548385870101520191019190611d88565b915050602093945060ff929192191683830152151560051b010190565b91611de49391611ddf93612520565b61269b565b50634844252360e11b60005260046000fd5b906040519182815491828252602082019060005260206000209260005b818110611e285750506106af9250038361067f565b84546001600160a01b0316835260019485019487945060209093019201611e13565b906040519182815491828252602082019060005260206000209260005b818110611e7c5750506106af9250038361067f565b8454835260019485019487945060209093019201611e67565b908154611ea181610782565b92611eaf604051948561067f565b818452602084019060005260206000206000915b838310611ed05750505050565b600160208192604051611eee81611ee78189611d4d565b038261067f565b815201920192019190611ec3565b80600052600a60205260406000209160405190608082018281106001600160401b0382111761067a57604052611f3184611df6565b8252611f3f60018501611e4a565b91602081019283526003611f5560028701611e95565b9560408301968752015493606082019480865215611f7c5750519151935192519193929190565b636ad0607560e01b60005260045260246000fd5b634e487b7160e01b600052603260045260246000fd5b8051821015610bc05760209160051b010190565b919092611fc990828585612520565b92602092611fd8603086612761565b50612003611ff0866000526004602052604060002090565b805460ff60f01b1916600160f01b179055565b6000935b50906120139291612804565b8061205c575b612052575b6040518181527f712ae1383f79ac853f8d882153778e0260ef8f03b504e2866e0593e04d2b291f9080602081015b0390a190565b600060055561201e565b5061207861138c6005546001600160801b0381169060801c1490565b612019565b84518110156120dd57600190306120b36120a761209a848a611fa6565b516001600160a01b031690565b6001600160a01b031690565b146120bf575b0161207d565b6120d86120cc8289611fa6565b518a81519101206127a1565b6120b9565b5091955093909291612013612007565b80600052600d60205260ff6040600020541661210c576104b890612a35565b50600790565b92919061212183838387612520565b61212a816126dd565b506000908152600460205260409020546001600160a01b031633036121b75761215293612520565b61215d603b82612761565b50612172816000526004602052604060002090565b80546001600160f81b0316600160f81b1790556040518181527f789cf55be980739dad1d0699b93b58e806b51c9d96619bfa8fe0a28abaa7b30c90806020810161204c565b63233d98e360e01b6000523360045260246000fd5b6040513d6000823e3d90fd5b604051906121e760208361067f565b60008252565b604051906121fc60408361067f565b601d82527f6d6f64653d626c6f636b6e756d6265722666726f6d3d64656661756c740000006020830152565b604051634bf5d7e960e01b81526000816004817f00000000000000000000000000000000000000000000000000000000000000006001600160a01b03165afa6000918161227e575b506104b857506104b86121ed565b90913d8082843e61228f818461067f565b8201916020818403126122fd578051906001600160401b038211612301570182601f820112156122fd578051916122c5836106c0565b936122d3604051958661067f565b838552602084840101116122fa5750906122f3916020808501910161045f565b9038612270565b80fd5b5080fd5b8280fd5b93909291969561138c6123c2916123bc8a61233b8160018060a01b03166000526002602052604060002080549060018201905590565b61234636888a6106db565b602081519101208b5160208d0120906040519260208401947f3e83946653575f9a39005e1545185629e92736b7528ab20ca3816f315424a81186528d604086015260ff8d16606086015260018060a01b0316608085015260a084015260c083015260e082015260e0815261137e6101008261067f565b8a612ba1565b6123dd576104b89596916123d79136916106db565b92612ccf565b6394ab6c0760e01b6000526001600160a01b03871660045260246000fd5b6040516324776b7d60e21b81526020816004817f00000000000000000000000000000000000000000000000000000000000000006001600160a01b03165afa60009181612452575b506104b857506104b8436134dd565b9091506020813d602011612487575b8161246e6020938361067f565b8101031261043357516124808161101c565b9038612443565b3d9150612461565b634e487b7160e01b600052601160045260246000fd5b80600052600460205265ffffffffffff60406000205460a01c1690600052600460205263ffffffff60406000205460d01c160165ffffffffffff811161154b5765ffffffffffff1690565b3d1561251b573d90612501826106c0565b9161250f604051938461067f565b82523d6000602084013e565b606090565b929061253a61254892604051948593602085019788610a32565b03601f19810183528261067f565b51902090565b1561255557565b60405162461bcd60e51b815260206004820152602660248201527f50726f706f73616c206e6f7420726561647920666f72206561726c792065786560448201526531baba34b7b760d11b6064820152608490fd5b60001981019190821161154b57565b60271981019190821161154b57565b600e54600019810190811161154b576125df90612f6d565b600060206040516125ef8161065f565b8281520152600e54811015610bc057600e60005261261c90600080516020613fa283398151915201613025565b81612638602063ffffffff84511693015160018060e01b031690565b911115612660575061265461264f6104b892612f6d565b613047565b6001600160e01b031690565b6001600160e01b0316919050565b6008811015610cd55760ff600191161b90565b600452606491906008811015610cd5576024526000604452565b6126a4816120ed565b9060106126b08361266e565b16156126ba575090565b6331b75e4d60e01b6000526004526126d29150610cc7565b601060445260646000fd5b6126e6816120ed565b9060016126f28361266e565b16156126fc575090565b6331b75e4d60e01b6000526004526127149150610cc7565b600160445260646000fd5b612728816120ed565b9060026127348361266e565b161561273e575090565b6331b75e4d60e01b6000526004526127569150610cc7565b600260445260646000fd5b9061276b826120ed565b91816127768461266e565b161561278157505090565b6331b75e4d60e01b60005260045261279882610cc7565b60445260646000fd5b600554908160801c6001600160801b036001820193166001600160801b038416146127f35760005260066020526040600020556001600160801b036005549181199082199060801b1616911617600555565b638acb5f2760e01b60005260046000fd5b92919260005b8151811015612860576001906128596000806001600160a01b0361282e8588611fa6565b511661283a8589611fa6565b5190612846868c611fa6565b5191602083519301915af16117d16124f0565b500161280a565b5050509050565b3360009081527fd531b195aaaa067d0a1c653f157f218d5ddb49dd1f460a610ec3af7e3f4ec6b3602052604090205460ff16156128a057565b63e2517d3f60e01b600052336004527fd8aa0f3194971a2a116679f7c2090f6939c8d4e01a2a8d7e41d55e5351469e6360245260446000fd5b6000818152600c6020908152604080832033845290915290205460ff16156128fe5750565b63e2517d3f60e01b6000523360045260245260446000fd5b6000818152600c602090815260408083206001600160a01b038616845290915290205460ff166129a3576000818152600c602090815260408083206001600160a01b03861684529091529020805460ff1916600117905533916001600160a01b0316907f2f8788117e7eff1d82e926ec794901d17c78024a50270940304540a733656f0d600080a4600190565b5050600090565b6000818152600c602090815260408083206001600160a01b038616845290915290205460ff16156129a3576000818152600c602090815260408083206001600160a01b03861684529091529020805460ff1916905533916001600160a01b0316907ff6391f5c32d9c69d2a47ea670b442974b53935d1edc7fd64eb21e047a839171b600080a4600190565b612a49816000526004602052604060002090565b5460f881901c9060f01c60ff16612b4c57612b4657612a92612a87612a78836000526004602052604060002090565b5460a01c65ffffffffffff1690565b65ffffffffffff1690565b8015612b3057612aa3612a876123fb565b809110156129a357612ab4826124a5565b10612abf5750600190565b612acb61138c82612fdd565b8015612b0b575b15612add5750600390565b612afd90600052600460205265ffffffffffff6001604060002001541690565b612b0657600490565b600590565b50612b2b61138c82600052600b6020526040600020600181015490541090565b612ad2565b636ad0607560e01b600052600482905260246000fd5b50600290565b5050600790565b916104b8939160405193612b6860208661067f565b60008552612ccf565b604290612b7c613150565b906040519161190160f01b8352600283015260228201522090565b60041115610cd557565b90612bac8382613266565b50612bb981959295612b97565b159384612c59575b508315612bcf575b50505090565b600093509061253a612c088594936040519283916020830195630b135d3f60e11b87526024840152604060448401526064830190610482565b51915afa612c146124f0565b81612c4b575b81612c29575b50388080612bc9565b90506020818051810103126104335760200151630b135d3f60e11b1438612c20565b905060208151101590612c1a565b6001600160a01b03848116911614935038612bc1565b93909260ff612c9b936104b897958752166020860152604085015260a0606085015260a0840190610482565b916080818403910152610482565b909260ff6080936104b89695845216602083015260408201528160608201520190610482565b9392919093612cdd8161271f565b5080600052600460205265ffffffffffff612d06604060002065ffffffffffff905460a01c1690565b169360405195630748d63560e31b875260018060a01b03811695866004890152602488015260208760448160018060a01b037f0000000000000000000000000000000000000000000000000000000000000000165afa96871561162c57600097612dea575b508684612d7892856132a2565b8051612db75750612db17fb8e138887d0aa13bab447e82de9d5c1777041ecd21ca36ba824ff1e6c07ddda4938660405194859485612ca9565b0390a290565b612db1907fe2babfbac5889a709b63bb7f598b324e08bc5a4fb9ec647fb3cbc9ec07eb8712948760405195869586612c6f565b909396506020813d602011612e1a575b81612e076020938361067f565b8101031261043357519592612d78612d6b565b3d9150612dfa565b333003612e2b57565b6347096e4760e01b6000523360045260246000fd5b9193929093612e4f8233613391565b15612f585760001965ffffffffffff612e666123fb565b16019465ffffffffffff861161154b5760009560209680604051612e8a8a8261067f565b52604051630748d63560e31b815233600482015265ffffffffffff92909216602483015287826044817f00000000000000000000000000000000000000000000000000000000000000006001600160a01b03165afa97881561162c578198612f25575b505050600754808710612f0857506104b89495503393613c71565b636121770b60e11b60005233600452602487905260445260646000fd5b909180939850813d8311612f51575b612f3e818361067f565b810103126122fa57505194388080612eed565b503d612f34565b63d9b3955760e01b6000523360045260246000fd5b63ffffffff8111612f815763ffffffff1690565b6306dfcc6560e41b600052602060045260245260446000fd5b9091906106af5750805115612fb157805190602001fd5b630a12f52160e11b60005260046000fd5b906001820180921161154b57565b9190820180921161154b57565b80600052600b602052604060002090600052600460205261300d65ffffffffffff60406000205460a01c166125c7565b60026001830154920154820180921161154b57111590565b906040516130328161065f565b602081935463ffffffff81168352811c910152565b600e549060009180600581116130fc575b509163ffffffff600092165b8382106130a757505050806130795750600090565b6130a06130886104b8926125a9565b600e600052600080516020613fa28339815191520190565b5460201c90565b9091928083169080841860011c820180921161154b57600e8552600080516020613fa283398151915282015463ffffffff168310156130ea5750925b9190613064565b9392506130f690612fc2565b916130e3565b906131068261368f565b820391821161154b57600e600052600080516020613fa283398151915282015463ffffffff908116908416101561313f57505b38613058565b925061314a90612fc2565b91613139565b307f00000000000000000000000000000000000000000000000000000000000000006001600160a01b0316148061323d575b156131ab577f000000000000000000000000000000000000000000000000000000000000000090565b60405160208101907f8b73c3c69bb8fe3d512ecc4cf759cc79239f7b179b0ffacaa9a75d522b39400f82527f000000000000000000000000000000000000000000000000000000000000000060408201527f000000000000000000000000000000000000000000000000000000000000000060608201524660808201523060a082015260a0815261254860c08261067f565b507f00000000000000000000000000000000000000000000000000000000000000004614613182565b81519190604183036132975761329092506020820151906060604084015193015160001a90613804565b9192909190565b505060009160029190565b6132b860ff91600052600b602052604060002090565b9216906003821461337a576001600160a01b038116600090815260038401602081905260409091205460ff1661335c5761330791611bc4919060018060a01b0316600052602052604060002090565b8061331d575090613319908254612fd0565b9055565b60018103613335575060016133199101918254612fd0565b60020361334b5760026133199101918254612fd0565b6303599be160e11b60005260046000fd5b6371c6af4960e01b6000526001600160a01b03821660045260246000fd5b50505050565b908151811015610bc0570160200190565b8151603481106134415760131981840101516001600160a01b0319166b1b91f1b211f2119351b859f160a31b0161344157916000926133cf816125b8565b915b8183106133ec575050506001600160a01b0391821691161490565b90919361341261340d6133ff8785613380565b516001600160f81b03191690565b61388d565b90156134365760019160ff9060041b6010600160a01b0316911617940191906133d1565b505050505050600190565b505050600190565b60ff81146134935760ff811690601f821161348257604080519261346d828561067f565b6020808552840191601f190136833783525290565b632cd44ac360e21b60005260046000fd5b506040516104b881611ee7816000611d4d565b60ff81146134ca5760ff811690601f821161348257604080519261346d828561067f565b506040516104b881611ee7816001611d4d565b65ffffffffffff81116134f55765ffffffffffff1690565b6306dfcc6560e41b600052603060045260245260446000fd5b805490600160401b82101561067a5760018201815560008154831015610bc0579081526020902001815160209283015190921b63ffffffff191663ffffffff92909216919091179055565b600e54919291908115613645578161358061357b61308863ffffffff956125a9565b613025565b9061358f825163ffffffff1690565b848416948591161161363457856020936135f7956135bd6135b4865163ffffffff1690565b63ffffffff1690565b036135fb57506135d26130886135e9936125a9565b9063ffffffff82549181199060201b169116179055565b01516001600160e01b031690565b9190565b905061362f915061361961360d6106a0565b63ffffffff9092168252565b6001600160e01b038716818501525b600e61350e565b6135e9565b632520601d60e01b60005260046000fd5b613669915061365561360d6106a0565b6001600160e01b0384166020820152613628565b60009190565b8115613679570490565b634e487b7160e01b600052601260045260246000fd5b80156137fe576104b89061379461378d61378361377961376f61376561375b613751600161373f60008b608081901c806137f0575b50806136d36137359260401c90565b806137e3575b506136e48160201c90565b806137d6575b506136f58160101c90565b806137c9575b506137068160081c90565b806137bc575b506137178160041c90565b806137af575b506137288160021c90565b806137a2575b5060011c90565b61379a5760011c90565b1b61374a818b61366f565b0160011c90565b61374a818a61366f565b61374a818961366f565b61374a818861366f565b61374a818761366f565b61374a818661366f565b61374a818561366f565b809261366f565b90613e78565b820160011c90565b600291509201913861372e565b600491509201913861371d565b600891509201913861370c565b60109150920191386136fb565b60209150920191386136ea565b60409150920191386136d9565b6080925090506137356136c4565b50600090565b91907f7fffffffffffffffffffffffffffffff5d576e7357a4501ddfe92f46681b20a08411613881579160209360809260ff60009560405194855216868401526040830152606082015282805260015afa1561162c576000516001600160a01b038116156138755790600090600090565b50600090600190600090565b50505060009160039190565b60f81c9081602f1080613901575b156138ad57600191602f190160ff1690565b81604010806138f7575b156138c9576001916036190160ff1690565b81606010806138ed575b156138e5576001916056190160ff1690565b600091508190565b50606782106138d3565b50604782106138b7565b50603a821061389b565b600954600160401b81101561067a5760018101600955600954811015610bc05760096000527f6e1540171b6c0c960b71a7020d9f60077f6af931a8bbf590da0223dacf75c7af0155565b818110613960575050565b60008155600101613955565b9181811061397957505050565b6106af9260005260206000209182019101613955565b8151916001600160401b03831161067a57600160401b831161067a576020906139bd8484548186558561396c565b0190600052602060002060005b8381106139d75750505050565b6001906020845194019381840155016139ca565b9190601f81116139fa57505050565b6106af926000526020600020906020601f840160051c83019310613a26575b601f0160051c0190613955565b9091508190613a19565b91909182516001600160401b03811161067a57613a5781613a518454611d13565b846139eb565b6020601f8211600114613a94578190613319939495600092613a89575b50508160011b916000199060031b1c19161790565b015190503880613a74565b601f19821690613aa984600052602060002090565b9160005b818110613ae557509583600195969710613acc575b505050811b019055565b015160001960f88460031b161c19169055388080613ac2565b9192602060018192868b015181550194019201613aad565b815191600160401b831161067a578154838355808410613b5a575b506020613b2c910191600052602060002090565b6000915b838310613b3d5750505050565b6001602082613b4e83945186613a30565b01920192019190613b30565b8260005283602060002091820191015b818110613b775750613b18565b80613b8460019254611d13565b80613b91575b5001613b6a565b601f81118314613ba75750600081555b38613b8a565b613bcb9083601f613bbd85600052602060002090565b920160051c82019101613955565b60008181526020812081835555613ba1565b9080518051906001600160401b03821161067a57600160401b821161067a57602090613c0e8386548188558761396c565b0183600052602060002060005b838110613c545750505050606081613c3c602060039401516001860161398f565b613c4d604082015160028601613afd565b0151910155565b82516001600160a01b031681830155602090920191600101613c1b565b919493948351613c8960208601918220838587612520565b948451845190818114801590613e6d575b8015613e65575b613e4657505065ffffffffffff613cc5612a78886000526004602052604060002090565b16613e28577f7d84a6263ae0d98d3329bd7b46bb4e8d6f98cd35a7adb45c274c8b7fd5ebd5e08697986104b897613de58489613d24613d026123fb565b65ffffffffffff613d1d612a8765ffffffffffff6008541690565b9116612fd0565b89613d3a6135b463ffffffff60085460301c1690565b613dc3613d51886000526004602052604060002090565b80546001600160a01b0319166001600160a01b038b16178155613d9a613d76866134dd565b825465ffffffffffff60a01b191660a09190911b65ffffffffffff60a01b16178255565b613da383612f6d565b815463ffffffff60d01b191660d09190911b63ffffffff60d01b16179055565b8c613dd8613dd18651613e8a565b9285612fd0565b94604051998a998a613ed4565b0390a1613df18761390b565b51902091613dfd6106b1565b938452602084015260408301526060820152613e2383600052600a602052604060002090565b613bdd565b6113c986613e35816120ed565b6331b75e4d60e01b60005290612681565b8451630447b05d60e41b60005260049190915260245260445260646000fd5b508015613ca1565b508451811415613c9a565b9080821015613e85575090565b905090565b90613e9482610782565b613ea1604051918261067f565b8281528092613eb2601f1991610782565b019060005b828110613ec357505050565b806060602080938501015201613eb7565b959998969794939192613f1593613f0792885260018060a01b031660208801526101206040880152610120870190610968565b9085820360608701526109a5565b968388036080850152815180895260208901906020808260051b8c01019401916000905b828210613f7557505050506104b896975090613f5c9184820360a08601526109d9565b9360c083015260e0820152610100818403910152610482565b90919294602080613f936001938f601f199082030186528951610482565b970192019201909291613f3956febb7b4a454dc3493923482f07822329ed19e8244eff582cc204f8554c3620c3fda2646970667358221220e5f2367f790388df88b1c1e38a19cd6bfb10fe354560b6ac74e58bbc375e435a64736f6c634300081a0033","linkReferences":{}},"methodIdentifiers":{"BALLOT_TYPEHASH()":"deaaa7cc","CLOCK_MODE()":"4bf5d7e9","COUNTING_MODE()":"dd4e2ba5","DEFAULT_ADMIN_ROLE()":"a217fddf","EXECUTOR_ROLE()":"07bd0265","EXTENDED_BALLOT_TYPEHASH()":"2fe3e261","cancel(address[],uint256[],bytes[],bytes32)":"452115d6","cancel(uint256)":"40e58ee5","castVote(uint256,uint8)":"56781388","castVoteBySig(uint256,uint8,address,bytes)":"8ff262e3","castVoteWithReason(uint256,uint8,string)":"7b3c71d3","castVoteWithReasonAndParams(uint256,uint8,string,bytes)":"5f398a14","castVoteWithReasonAndParamsBySig(uint256,uint8,address,string,bytes,bytes)":"5b8d0e0d","clock()":"91ddadf4","earlyExecute(uint256)":"f5379ea9","eip712Domain()":"84b0196e","execute(address[],uint256[],bytes[],bytes32)":"2656227d","execute(uint256)":"fe0d94c1","getRoleAdmin(bytes32)":"248a9ca3","getVotes(address,uint256)":"eb9019d4","getVotesWithParams(address,uint256,bytes)":"9a802a6d","grantRole(bytes32,address)":"2f2ff15d","hasRole(bytes32,address)":"91d14854","hasVoted(uint256,address)":"43859632","hashProposal(address[],uint256[],bytes[],bytes32)":"c59057e4","name()":"06fdde03","nonces(address)":"7ecebe00","onERC1155BatchReceived(address,address,uint256[],uint256[],bytes)":"bc197c81","onERC1155Received(address,address,uint256,uint256,bytes)":"f23a6e61","onERC721Received(address,address,uint256,bytes)":"150b7a02","proposalCount()":"da35c664","proposalDeadline(uint256)":"c01f9e37","proposalDetails(uint256)":"16e9eaec","proposalDetailsAt(uint256)":"2e82db94","proposalEta(uint256)":"ab58fb8e","proposalNeedsQueuing(uint256)":"a9a95294","proposalProposer(uint256)":"143489d0","proposalSnapshot(uint256)":"2d63f693","proposalThreshold()":"b58131b0","proposalVotes(uint256)":"544ffc9c","propose(address[],uint256[],bytes[],string)":"7d5e81e2","queue(address[],uint256[],bytes[],bytes32)":"160cbed7","queue(uint256)":"ddf0b009","quorum(uint256)":"f8ce560a","relay(address,uint256,bytes)":"c28bc2fa","renounceRole(bytes32,address)":"36568abe","revokeRole(bytes32,address)":"d547741f","setProposalThreshold(uint256)":"ece40cc1","setVotingDelay(uint48)":"79051887","setVotingPeriod(uint32)":"e540d01d","state(uint256)":"3e4f49e6","supportsInterface(bytes4)":"01ffc9a7","token()":"fc0c546a","updateQuorum(uint224)":"97ad3b6f","version()":"54fd4d50","votingDelay()":"3932abb1","votingPeriod()":"02a251a3"},"id":31}