{"abi":[{"type":"constructor","inputs":[],"stateMutability":"nonpayable"},{"type":"receive","stateMutability":"payable"},{"type":"function","name":"acceptOwnership","inputs":[],"outputs":[],"stateMutability":"nonpayable"},{"type":"function","name":"addInitialLiquidity","inputs":[{"name":"lpOwner","type":"address","internalType":"address"}],"outputs":[],"stateMutability":"nonpayable"},{"type":"function","name":"addLiquidityPool","inputs":[{"name":"newLiquidityPool_","type":"address","internalType":"address"}],"outputs":[],"stateMutability":"nonpayable"},{"type":"function","name":"addValidCaller","inputs":[{"name":"newValidCallerHash_","type":"bytes32","internalType":"bytes32"}],"outputs":[],"stateMutability":"nonpayable"},{"type":"function","name":"allowance","inputs":[{"name":"owner","type":"address","internalType":"address"},{"name":"spender","type":"address","internalType":"address"}],"outputs":[{"name":"","type":"uint256","internalType":"uint256"}],"stateMutability":"view"},{"type":"function","name":"approve","inputs":[{"name":"spender","type":"address","internalType":"address"},{"name":"amount","type":"uint256","internalType":"uint256"}],"outputs":[{"name":"","type":"bool","internalType":"bool"}],"stateMutability":"nonpayable"},{"type":"function","name":"balanceOf","inputs":[{"name":"account","type":"address","internalType":"address"}],"outputs":[{"name":"","type":"uint256","internalType":"uint256"}],"stateMutability":"view"},{"type":"function","name":"botProtectionDurationInSeconds","inputs":[],"outputs":[{"name":"","type":"uint256","internalType":"uint256"}],"stateMutability":"view"},{"type":"function","name":"burn","inputs":[{"name":"value","type":"uint256","internalType":"uint256"}],"outputs":[],"stateMutability":"nonpayable"},{"type":"function","name":"burnFrom","inputs":[{"name":"account","type":"address","internalType":"address"},{"name":"value","type":"uint256","internalType":"uint256"}],"outputs":[],"stateMutability":"nonpayable"},{"type":"function","name":"decimals","inputs":[],"outputs":[{"name":"","type":"uint8","internalType":"uint8"}],"stateMutability":"view"},{"type":"function","name":"decreaseAllowance","inputs":[{"name":"spender","type":"address","internalType":"address"},{"name":"subtractedValue","type":"uint256","internalType":"uint256"}],"outputs":[{"name":"","type":"bool","internalType":"bool"}],"stateMutability":"nonpayable"},{"type":"function","name":"distributeTaxTokens","inputs":[],"outputs":[],"stateMutability":"nonpayable"},{"type":"function","name":"fundedDate","inputs":[],"outputs":[{"name":"","type":"uint32","internalType":"uint32"}],"stateMutability":"view"},{"type":"function","name":"increaseAllowance","inputs":[{"name":"spender","type":"address","internalType":"address"},{"name":"addedValue","type":"uint256","internalType":"uint256"}],"outputs":[{"name":"","type":"bool","internalType":"bool"}],"stateMutability":"nonpayable"},{"type":"function","name":"initialize","inputs":[{"name":"integrationAddresses_","type":"address[3]","internalType":"address[3]"},{"name":"baseParams_","type":"bytes","internalType":"bytes"},{"name":"supplyParams_","type":"bytes","internalType":"bytes"},{"name":"taxParams_","type":"bytes","internalType":"bytes"}],"outputs":[],"stateMutability":"nonpayable"},{"type":"function","name":"isLiquidityPool","inputs":[{"name":"queryAddress_","type":"address","internalType":"address"}],"outputs":[{"name":"","type":"bool","internalType":"bool"}],"stateMutability":"view"},{"type":"function","name":"isValidCaller","inputs":[{"name":"queryHash_","type":"bytes32","internalType":"bytes32"}],"outputs":[{"name":"","type":"bool","internalType":"bool"}],"stateMutability":"view"},{"type":"function","name":"liquidityPools","inputs":[],"outputs":[{"name":"liquidityPools_","type":"address[]","internalType":"address[]"}],"stateMutability":"view"},{"type":"function","name":"name","inputs":[],"outputs":[{"name":"","type":"string","internalType":"string"}],"stateMutability":"view"},{"type":"function","name":"owner","inputs":[],"outputs":[{"name":"","type":"address","internalType":"address"}],"stateMutability":"view"},{"type":"function","name":"pairToken","inputs":[],"outputs":[{"name":"","type":"address","internalType":"address"}],"stateMutability":"view"},{"type":"function","name":"pendingOwner","inputs":[],"outputs":[{"name":"","type":"address","internalType":"address"}],"stateMutability":"view"},{"type":"function","name":"projectBuyTaxBasisPoints","inputs":[],"outputs":[{"name":"","type":"uint16","internalType":"uint16"}],"stateMutability":"view"},{"type":"function","name":"projectSellTaxBasisPoints","inputs":[],"outputs":[{"name":"","type":"uint16","internalType":"uint16"}],"stateMutability":"view"},{"type":"function","name":"projectTaxPendingSwap","inputs":[],"outputs":[{"name":"","type":"uint128","internalType":"uint128"}],"stateMutability":"view"},{"type":"function","name":"projectTaxRecipient","inputs":[],"outputs":[{"name":"","type":"address","internalType":"address"}],"stateMutability":"view"},{"type":"function","name":"removeLiquidityPool","inputs":[{"name":"removedLiquidityPool_","type":"address","internalType":"address"}],"outputs":[],"stateMutability":"nonpayable"},{"type":"function","name":"removeValidCaller","inputs":[{"name":"removedValidCallerHash_","type":"bytes32","internalType":"bytes32"}],"outputs":[],"stateMutability":"nonpayable"},{"type":"function","name":"renounceOwnership","inputs":[],"outputs":[],"stateMutability":"nonpayable"},{"type":"function","name":"setProjectTaxRates","inputs":[{"name":"newProjectBuyTaxBasisPoints_","type":"uint16","internalType":"uint16"},{"name":"newProjectSellTaxBasisPoints_","type":"uint16","internalType":"uint16"}],"outputs":[],"stateMutability":"nonpayable"},{"type":"function","name":"setProjectTaxRecipient","inputs":[{"name":"projectTaxRecipient_","type":"address","internalType":"address"}],"outputs":[],"stateMutability":"nonpayable"},{"type":"function","name":"setSwapThresholdBasisPoints","inputs":[{"name":"swapThresholdBasisPoints_","type":"uint16","internalType":"uint16"}],"outputs":[],"stateMutability":"nonpayable"},{"type":"function","name":"swapThresholdBasisPoints","inputs":[],"outputs":[{"name":"","type":"uint16","internalType":"uint16"}],"stateMutability":"view"},{"type":"function","name":"symbol","inputs":[],"outputs":[{"name":"","type":"string","internalType":"string"}],"stateMutability":"view"},{"type":"function","name":"totalBuyTaxBasisPoints","inputs":[],"outputs":[{"name":"","type":"uint256","internalType":"uint256"}],"stateMutability":"view"},{"type":"function","name":"totalSellTaxBasisPoints","inputs":[],"outputs":[{"name":"","type":"uint256","internalType":"uint256"}],"stateMutability":"view"},{"type":"function","name":"totalSupply","inputs":[],"outputs":[{"name":"","type":"uint256","internalType":"uint256"}],"stateMutability":"view"},{"type":"function","name":"transfer","inputs":[{"name":"to","type":"address","internalType":"address"},{"name":"amount","type":"uint256","internalType":"uint256"}],"outputs":[{"name":"","type":"bool","internalType":"bool"}],"stateMutability":"nonpayable"},{"type":"function","name":"transferFrom","inputs":[{"name":"from","type":"address","internalType":"address"},{"name":"to","type":"address","internalType":"address"},{"name":"amount","type":"uint256","internalType":"uint256"}],"outputs":[{"name":"","type":"bool","internalType":"bool"}],"stateMutability":"nonpayable"},{"type":"function","name":"transferOwnership","inputs":[{"name":"newOwner","type":"address","internalType":"address"}],"outputs":[],"stateMutability":"nonpayable"},{"type":"function","name":"uniswapV2Pair","inputs":[],"outputs":[{"name":"","type":"address","internalType":"address"}],"stateMutability":"view"},{"type":"function","name":"validCallers","inputs":[],"outputs":[{"name":"validCallerHashes_","type":"bytes32[]","internalType":"bytes32[]"}],"stateMutability":"view"},{"type":"function","name":"vault","inputs":[],"outputs":[{"name":"","type":"address","internalType":"address"}],"stateMutability":"view"},{"type":"function","name":"withdrawERC20","inputs":[{"name":"token_","type":"address","internalType":"address"},{"name":"amount_","type":"uint256","internalType":"uint256"}],"outputs":[],"stateMutability":"nonpayable"},{"type":"function","name":"withdrawETH","inputs":[{"name":"amount_","type":"uint256","internalType":"uint256"}],"outputs":[],"stateMutability":"nonpayable"},{"type":"event","name":"Approval","inputs":[{"name":"owner","type":"address","indexed":true,"internalType":"address"},{"name":"spender","type":"address","indexed":true,"internalType":"address"},{"name":"value","type":"uint256","indexed":false,"internalType":"uint256"}],"anonymous":false},{"type":"event","name":"AutoSwapThresholdUpdated","inputs":[{"name":"oldThreshold","type":"uint256","indexed":false,"internalType":"uint256"},{"name":"newThreshold","type":"uint256","indexed":false,"internalType":"uint256"}],"anonymous":false},{"type":"event","name":"ExternalCallError","inputs":[{"name":"identifier","type":"uint256","indexed":false,"internalType":"uint256"}],"anonymous":false},{"type":"event","name":"InitialLiquidityAdded","inputs":[{"name":"tokenA","type":"uint256","indexed":false,"internalType":"uint256"},{"name":"tokenB","type":"uint256","indexed":false,"internalType":"uint256"},{"name":"lpToken","type":"uint256","indexed":false,"internalType":"uint256"}],"anonymous":false},{"type":"event","name":"Initialized","inputs":[{"name":"version","type":"uint64","indexed":false,"internalType":"uint64"}],"anonymous":false},{"type":"event","name":"LimitsUpdated","inputs":[{"name":"oldMaxTokensPerTransaction","type":"uint256","indexed":false,"internalType":"uint256"},{"name":"newMaxTokensPerTransaction","type":"uint256","indexed":false,"internalType":"uint256"},{"name":"oldMaxTokensPerWallet","type":"uint256","indexed":false,"internalType":"uint256"},{"name":"newMaxTokensPerWallet","type":"uint256","indexed":false,"internalType":"uint256"}],"anonymous":false},{"type":"event","name":"LiquidityPoolAdded","inputs":[{"name":"addedPool","type":"address","indexed":false,"internalType":"address"}],"anonymous":false},{"type":"event","name":"LiquidityPoolCreated","inputs":[{"name":"addedPool","type":"address","indexed":false,"internalType":"address"}],"anonymous":false},{"type":"event","name":"LiquidityPoolRemoved","inputs":[{"name":"removedPool","type":"address","indexed":false,"internalType":"address"}],"anonymous":false},{"type":"event","name":"OwnershipTransferStarted","inputs":[{"name":"previousOwner","type":"address","indexed":true,"internalType":"address"},{"name":"newOwner","type":"address","indexed":true,"internalType":"address"}],"anonymous":false},{"type":"event","name":"OwnershipTransferred","inputs":[{"name":"previousOwner","type":"address","indexed":true,"internalType":"address"},{"name":"newOwner","type":"address","indexed":true,"internalType":"address"}],"anonymous":false},{"type":"event","name":"ProjectTaxBasisPointsChanged","inputs":[{"name":"oldBuyBasisPoints","type":"uint256","indexed":false,"internalType":"uint256"},{"name":"newBuyBasisPoints","type":"uint256","indexed":false,"internalType":"uint256"},{"name":"oldSellBasisPoints","type":"uint256","indexed":false,"internalType":"uint256"},{"name":"newSellBasisPoints","type":"uint256","indexed":false,"internalType":"uint256"}],"anonymous":false},{"type":"event","name":"ProjectTaxRecipientUpdated","inputs":[{"name":"treasury","type":"address","indexed":false,"internalType":"address"}],"anonymous":false},{"type":"event","name":"RevenueAutoSwap","inputs":[],"anonymous":false},{"type":"event","name":"Transfer","inputs":[{"name":"from","type":"address","indexed":true,"internalType":"address"},{"name":"to","type":"address","indexed":true,"internalType":"address"},{"name":"value","type":"uint256","indexed":false,"internalType":"uint256"}],"anonymous":false},{"type":"event","name":"ValidCallerAdded","inputs":[{"name":"addedValidCaller","type":"bytes32","indexed":false,"internalType":"bytes32"}],"anonymous":false},{"type":"event","name":"ValidCallerRemoved","inputs":[{"name":"removedValidCaller","type":"bytes32","indexed":false,"internalType":"bytes32"}],"anonymous":false},{"type":"error","name":"AdapterParamsMustBeEmpty","inputs":[]},{"type":"error","name":"AdditionToPoolIsBelowPerTransactionMinimum","inputs":[]},{"type":"error","name":"AdditionToPoolWouldExceedPerAddressCap","inputs":[]},{"type":"error","name":"AdditionToPoolWouldExceedPoolCap","inputs":[]},{"type":"error","name":"AddressAlreadySet","inputs":[]},{"type":"error","name":"AddressEmptyCode","inputs":[{"name":"target","type":"address","internalType":"address"}]},{"type":"error","name":"AddressInsufficientBalance","inputs":[{"name":"account","type":"address","internalType":"address"}]},{"type":"error","name":"AllowanceDecreasedBelowZero","inputs":[]},{"type":"error","name":"AlreadyInitialised","inputs":[]},{"type":"error","name":"ApprovalCallerNotOwnerNorApproved","inputs":[]},{"type":"error","name":"ApprovalQueryForNonexistentToken","inputs":[]},{"type":"error","name":"ApproveFromTheZeroAddress","inputs":[]},{"type":"error","name":"ApproveToTheZeroAddress","inputs":[]},{"type":"error","name":"AuctionStatusIsNotEnded","inputs":[]},{"type":"error","name":"AuctionStatusIsNotOpen","inputs":[]},{"type":"error","name":"AuxCallFailed","inputs":[{"name":"modules","type":"address[]","internalType":"address[]"},{"name":"value","type":"uint256","internalType":"uint256"},{"name":"data","type":"bytes","internalType":"bytes"},{"name":"txGas","type":"uint256","internalType":"uint256"}]},{"type":"error","name":"BalanceMismatch","inputs":[]},{"type":"error","name":"BalanceQueryForZeroAddress","inputs":[]},{"type":"error","name":"BidMustBeBelowTheFloorForRefundDuringAuction","inputs":[]},{"type":"error","name":"BidMustBeBelowTheFloorWhenReducingQuantity","inputs":[]},{"type":"error","name":"BondingCurveError","inputs":[{"name":"error","type":"uint8","internalType":"enum IErrors.BondingCurveErrorType"}]},{"type":"error","name":"BurnExceedsBalance","inputs":[]},{"type":"error","name":"BurnFromTheZeroAddress","inputs":[]},{"type":"error","name":"CallerIsNotAdminNorFactory","inputs":[]},{"type":"error","name":"CallerIsNotDepositBoxOwner","inputs":[]},{"type":"error","name":"CallerIsNotFactory","inputs":[]},{"type":"error","name":"CallerIsNotFactoryOrProjectOwner","inputs":[]},{"type":"error","name":"CallerIsNotFactoryProjectOwnerOrPool","inputs":[]},{"type":"error","name":"CallerIsNotPlatformAdmin","inputs":[{"name":"caller","type":"address","internalType":"address"}]},{"type":"error","name":"CallerIsNotSuperAdmin","inputs":[{"name":"caller","type":"address","internalType":"address"}]},{"type":"error","name":"CallerIsNotTheManager","inputs":[]},{"type":"error","name":"CallerIsNotTheOwner","inputs":[]},{"type":"error","name":"CallerMustBeLzApp","inputs":[]},{"type":"error","name":"CanOnlyReduce","inputs":[]},{"type":"error","name":"CannotAddLiquidityOnCreateAndUseDRIPool","inputs":[]},{"type":"error","name":"CannotSetNewManagerToTheZeroAddress","inputs":[]},{"type":"error","name":"CannotSetNewOwnerToTheZeroAddress","inputs":[]},{"type":"error","name":"CannotSetToZeroAddress","inputs":[]},{"type":"error","name":"CannotWithdrawThisToken","inputs":[]},{"type":"error","name":"CollectionAlreadyRevealed","inputs":[]},{"type":"error","name":"ContractIsDecommissioned","inputs":[]},{"type":"error","name":"ContractIsNotPaused","inputs":[]},{"type":"error","name":"ContractIsPaused","inputs":[]},{"type":"error","name":"DecreasedAllowanceBelowZero","inputs":[]},{"type":"error","name":"DeployerOnly","inputs":[]},{"type":"error","name":"DeploymentError","inputs":[]},{"type":"error","name":"DepositBoxIsNotOpen","inputs":[]},{"type":"error","name":"DestinationIsNotTrustedSource","inputs":[]},{"type":"error","name":"DriPoolAddressCannotBeAddressZero","inputs":[]},{"type":"error","name":"FailedInnerCall","inputs":[]},{"type":"error","name":"GasLimitIsTooLow","inputs":[]},{"type":"error","name":"IncorrectConfirmationValue","inputs":[]},{"type":"error","name":"IncorrectPayment","inputs":[]},{"type":"error","name":"InitialLiquidityAlreadyAdded","inputs":[]},{"type":"error","name":"InitialLiquidityNotYetAdded","inputs":[]},{"type":"error","name":"InsufficientAllowance","inputs":[]},{"type":"error","name":"InvalidAdapterParams","inputs":[]},{"type":"error","name":"InvalidAddress","inputs":[]},{"type":"error","name":"InvalidEndpointCaller","inputs":[]},{"type":"error","name":"InvalidInitialization","inputs":[]},{"type":"error","name":"InvalidMinGas","inputs":[]},{"type":"error","name":"InvalidOracleSignature","inputs":[]},{"type":"error","name":"InvalidPayload","inputs":[]},{"type":"error","name":"InvalidReceiver","inputs":[]},{"type":"error","name":"InvalidSourceSendingContract","inputs":[]},{"type":"error","name":"InvalidTotalShares","inputs":[]},{"type":"error","name":"LPLockUpMustFitUint88","inputs":[]},{"type":"error","name":"LimitsCanOnlyBeRaised","inputs":[]},{"type":"error","name":"LiquidityPoolCannotBeAddressZero","inputs":[]},{"type":"error","name":"LiquidityPoolMustBeAContractAddress","inputs":[]},{"type":"error","name":"ListLengthMismatch","inputs":[]},{"type":"error","name":"MachineAddressCannotBeAddressZero","inputs":[]},{"type":"error","name":"ManagerUnauthorizedAccount","inputs":[]},{"type":"error","name":"MaxBidQuantityIs255","inputs":[]},{"type":"error","name":"MaxPublicMintAllowanceExceeded","inputs":[{"name":"requested","type":"uint256","internalType":"uint256"},{"name":"alreadyMinted","type":"uint256","internalType":"uint256"},{"name":"maxAllowance","type":"uint256","internalType":"uint256"}]},{"type":"error","name":"MaxSupplyTooHigh","inputs":[]},{"type":"error","name":"MaxTokensPerTxnExceeded","inputs":[]},{"type":"error","name":"MaxTokensPerWalletExceeded","inputs":[]},{"type":"error","name":"MetadataIsLocked","inputs":[]},{"type":"error","name":"MinGasLimitNotSet","inputs":[]},{"type":"error","name":"MintERC2309QuantityExceedsLimit","inputs":[]},{"type":"error","name":"MintToZeroAddress","inputs":[]},{"type":"error","name":"MintZeroQuantity","inputs":[]},{"type":"error","name":"MintingIsClosedForever","inputs":[]},{"type":"error","name":"NewBuyTaxBasisPointsExceedsMaximum","inputs":[]},{"type":"error","name":"NewSellTaxBasisPointsExceedsMaximum","inputs":[]},{"type":"error","name":"NoETHForLiquidityPair","inputs":[]},{"type":"error","name":"NoPaymentDue","inputs":[]},{"type":"error","name":"NoRefundForCaller","inputs":[]},{"type":"error","name":"NoStoredMessage","inputs":[]},{"type":"error","name":"NoTokenForLiquidityPair","inputs":[]},{"type":"error","name":"NoTrustedPathRecord","inputs":[]},{"type":"error","name":"NotInitializing","inputs":[]},{"type":"error","name":"NothingToClaim","inputs":[]},{"type":"error","name":"OperationDidNotSucceed","inputs":[]},{"type":"error","name":"OracleSignatureHasExpired","inputs":[]},{"type":"error","name":"OwnableInvalidOwner","inputs":[{"name":"owner","type":"address","internalType":"address"}]},{"type":"error","name":"OwnableUnauthorizedAccount","inputs":[{"name":"account","type":"address","internalType":"address"}]},{"type":"error","name":"OwnerQueryForNonexistentToken","inputs":[]},{"type":"error","name":"OwnershipNotInitializedForExtraData","inputs":[]},{"type":"error","name":"ParamTooLargeEndDate","inputs":[]},{"type":"error","name":"ParamTooLargeMinETH","inputs":[]},{"type":"error","name":"ParamTooLargePerAddressMax","inputs":[]},{"type":"error","name":"ParamTooLargePoolPerTxnMinETH","inputs":[]},{"type":"error","name":"ParamTooLargePoolSupply","inputs":[]},{"type":"error","name":"ParamTooLargeStartDate","inputs":[]},{"type":"error","name":"ParamTooLargeVestingDays","inputs":[]},{"type":"error","name":"ParametersDoNotMatchSignedMessage","inputs":[]},{"type":"error","name":"PassedConfigDoesNotMatchApproved","inputs":[]},{"type":"error","name":"PauseCutOffHasPassed","inputs":[]},{"type":"error","name":"PaymentMustCoverPerMintFee","inputs":[]},{"type":"error","name":"PermitDidNotSucceed","inputs":[]},{"type":"error","name":"PlatformAdminCannotBeAddressZero","inputs":[]},{"type":"error","name":"PlatformTreasuryCannotBeAddressZero","inputs":[]},{"type":"error","name":"PoolIsAboveMinimum","inputs":[]},{"type":"error","name":"PoolIsBelowMinimum","inputs":[]},{"type":"error","name":"PoolPhaseIsClosed","inputs":[]},{"type":"error","name":"PoolPhaseIsNotAfter","inputs":[]},{"type":"error","name":"PoolVestingNotYetComplete","inputs":[]},{"type":"error","name":"ProjectOwnerCannotBeAddressZero","inputs":[]},{"type":"error","name":"ProofInvalid","inputs":[]},{"type":"error","name":"QuantityExceedsMaxPossibleCollectionSupply","inputs":[]},{"type":"error","name":"QuantityExceedsRemainingCollectionSupply","inputs":[]},{"type":"error","name":"QuantityExceedsRemainingPhaseSupply","inputs":[]},{"type":"error","name":"ReferralIdAlreadyUsed","inputs":[]},{"type":"error","name":"RequestingMoreThanAvailableBalance","inputs":[]},{"type":"error","name":"RequestingMoreThanRemainingAllocation","inputs":[{"name":"previouslyMinted","type":"uint256","internalType":"uint256"},{"name":"requested","type":"uint256","internalType":"uint256"},{"name":"remainingAllocation","type":"uint256","internalType":"uint256"}]},{"type":"error","name":"RoyaltyFeeWillExceedSalePrice","inputs":[]},{"type":"error","name":"SafeERC20FailedOperation","inputs":[{"name":"token","type":"address","internalType":"address"}]},{"type":"error","name":"ShareTotalCannotBeZero","inputs":[]},{"type":"error","name":"SliceOutOfBounds","inputs":[]},{"type":"error","name":"SliceOverflow","inputs":[]},{"type":"error","name":"SuperAdminCannotBeAddressZero","inputs":[]},{"type":"error","name":"SupplyTotalMismatch","inputs":[]},{"type":"error","name":"SupportWindowIsNotOpen","inputs":[]},{"type":"error","name":"TaxFreeAddressCannotBeAddressZero","inputs":[]},{"type":"error","name":"TaxPeriodStillInForce","inputs":[]},{"type":"error","name":"TemplateCannotBeAddressZero","inputs":[]},{"type":"error","name":"TemplateNotFound","inputs":[]},{"type":"error","name":"ThisMintIsClosed","inputs":[]},{"type":"error","name":"TotalSharesMustMatchDenominator","inputs":[]},{"type":"error","name":"TransferAmountExceedsBalance","inputs":[]},{"type":"error","name":"TransferCallerNotOwnerNorApproved","inputs":[]},{"type":"error","name":"TransferFailed","inputs":[]},{"type":"error","name":"TransferFromIncorrectOwner","inputs":[]},{"type":"error","name":"TransferFromZeroAddress","inputs":[]},{"type":"error","name":"TransferToNonERC721ReceiverImplementer","inputs":[]},{"type":"error","name":"TransferToZeroAddress","inputs":[]},{"type":"error","name":"URIQueryForNonexistentToken","inputs":[]},{"type":"error","name":"UnrecognisedVRFMode","inputs":[]},{"type":"error","name":"VRFCoordinatorCannotBeAddressZero","inputs":[]},{"type":"error","name":"ValueExceedsMaximum","inputs":[]}],"bytecode":{"object":"0x608080604052346100b9577ff0c57e16840df040f15088dc2f81fe391c3923bec73e23a9662efc9c229c6a009081549060ff8260401c166100aa57506001600160401b036002600160401b031982821601610065575b6040516131e59081620000bf8239f35b6001600160401b031990911681179091556040519081527fc7f505b2f371ae2175ee4913f4499e1f2633a7b5936321eed1cdaeb6115181d290602090a1388080610055565b63f92ee8a960e01b8152600490fd5b600080fdfe608080604052600436101561001d575b50361561001b57600080fd5b005b60003560e01c908163038272b6146123305750806306fdde031461229c578063095ea7b31461227657806310b828c91461224f57806318160ddd1461223157806323b872dd146121de5780632ead095514611cd2578063313ce56714611cb6578063326b3b8b14611c0e5780633950935114611bbd5780633de35b7914611b9457806342966c6814611b7757806349bd5a5e14611b4e5780634bed5ad214611b2957806359cabbe4146117b657806363a9c1f21461179857806370a082311461175e578063715018a6146116dd57806379ba50971461168a57806379cc67901461165a57806384b1df5214610c7a5780638589287a14610bff5780638da5cb5b14610bc9578063936b293414610af357806395d89b4114610a2b5780639808751d14610993578063a1db978214610890578063a457c2d71461082a578063a45cae0214610362578063a9059cbb146107d7578063ae22107f14610758578063b0d7509714610731578063b2c5c9eb1461070c578063b498d39f14610656578063bfe3098f14610628578063d6efd7c314610598578063dd62ed3e14610547578063e30c397814610511578063e37d9e9514610496578063e85455d714610469578063ea8b242414610440578063ee6a934c14610387578063eeae0f9714610362578063f14210a6146102d9578063f2fde38b146102525763fbfa77cf14610224573861000f565b3461024d57600036600319011261024d576006546040516001600160a01b039091168152602090f35b600080fd5b3461024d57602036600319011261024d5761026b6123a1565b610273612db4565b60008051602061319083398151915280546001600160a01b0319166001600160a01b039283169081179091556000805160206130f0833981519152549091167f38d16b8cac22d99fc7c124b9cd0de2d3fa1faef420bfe791d8c362d765e22700600080a3005b3461024d57602036600319011261024d576000805160206130f083398151915254336001600160a01b0391821614159081610353575b50610341576000808080600435335af1610327612b62565b501561032f57005b6040516312171d8360e31b8152600490fd5b60405163faa39fbf60e01b8152600490fd5b6010541633141590508161030f565b3461024d57600036600319011261024d57602061ffff60025460c81c16604051908152f35b3461024d57602036600319011261024d576103a06123a1565b6000805160206130f0833981519152546001600160a01b0390811633141580610432575b610341578116908115610420573b1561040e576020816104047fb893f883ef734b712208a877459424ee509832c57e0461fb1ac99ed4d42f2d8993612ea6565b50604051908152a1005b604051630f9da0c760e41b8152600490fd5b60405163b47cdee560e01b8152600490fd5b5033816010541614156103c4565b3461024d57600036600319011261024d576004546040516001600160a01b039091168152602090f35b3461024d57602036600319011261024d57602061048c6104876123a1565b6125ee565b6040519015158152f35b3461024d57602036600319011261024d576000805160206130f08339815191525460043590336001600160a01b0391821614159081610502575b50610341576020816104047ff7d7abaf8b0e82705f2ef671054dd11a306d870da0bbb8be1ff24bd0096de7ba93612f23565b601054163314159050826104d0565b3461024d57600036600319011261024d57600080516020613190833981519152546040516001600160a01b039091168152602090f35b3461024d57604036600319011261024d576105606123a1565b6105686123b7565b9060018060a01b03809116600052600b602052604060002091166000526020526020604060002054604051908152f35b3461024d57600036600319011261024d5760405180600e54808252826020809301600e6000527fbb7b4a454dc3493923482f07822329ed19e8244eff582cc204f8554c3620c3fd9260005b85828210610612575050506105fa9250038361240c565b61060e60405192828493845283019061248f565b0390f35b85548452600195860195889550930192016105e3565b3461024d57602036600319011261024d57600435600052600d60205260206040600020541515604051908152f35b3461024d57600036600319011261024d5760405180600c5480835260208093018091600c6000527fdf6966c971051c3d54ec59162606531493a51404a002842f56009d7e5cf4a8c79060005b868282106106f85786866106b88288038361240c565b604051928392818401908285525180915260408401929160005b8281106106e157505050500390f35b8351855286955093810193928101926001016106d2565b8354855290930192600192830192016106a2565b3461024d57600036600319011261024d57602061ffff60025460d81c16604051908152f35b3461024d57600036600319011261024d5760206001600160801b0360055416604051908152f35b3461024d57602036600319011261024d576107716123a1565b6000805160206130f0833981519152546001600160a01b0391908216331415806107c9575b610341577f59c3fbcae88f30e9b0e35c132a7f68c53231dffa4722f197c7ecb0ee013eee60916020911661040481613046565b503382601054161415610796565b3461024d57604036600319011261024d5761080e6107f36123a1565b6107fc336125ee565b908115610819575b602435903361262d565b602060405160018152f35b9050610824816125ee565b90610804565b3461024d57604036600319011261024d576108436123a1565b6024359033600052600b602052604060002060018060a01b0382166000526020526040600020549180831061087e5761080e92039033612bf9565b604051637b5591b560e11b8152600490fd5b3461024d57604036600319011261024d576108a96123a1565b6000805160206130f0833981519152546001600160a01b039190821633141580610985575b61034157163081146109735760405163a9059cbb60e01b602082019081523360248084019190915235604480840191909152825261092b91600091829161091660648261240c565b519082865af1610924612b62565b9083612dd5565b8051908115159182610958575b505061094057005b60249060405190635274afe760e01b82526004820152fd5b61096b92506020809183010191016125d6565b158280610938565b60405163992501b360e01b8152600490fd5b5033826010541614156108ce565b3461024d57602036600319011261024d576109ac6123a1565b6000805160206130f0833981519152546001600160a01b039190821633141580610a1d575b610341577fa4eea51cd2f21eac6612ba054a363ae2fd59698fc258ab414313cd73f69f2b859160209116806bffffffffffffffffffffffff60a01b6004541617600455604051908152a1005b5033826010541614156109d1565b3461024d57600036600319011261024d576040516000600854610a4d81612538565b80845290600190818116908115610acc5750600114610a83575b61060e84610a778186038261240c565b60405191829182612375565b6008600090815292506000805160206131308339815191525b828410610ab4575050508101602001610a7782610a67565b80546020858701810191909152909301928101610a9c565b60ff191660208087019190915292151560051b85019092019250610a779150839050610a67565b3461024d57604036600319011261024d57610b0c6123cd565b60243561ffff9182821680830361024d576000805160206130f083398151915254336001600160a01b0391821614159081610bba575b50610341577f8da1f77a22734510b762a9625e69e737d7c0cc48984e810e5802fb341eb80a3e936080936002549061ffff60d81b9060d81b1661ffff60c81b8560c81b1663ffffffff60c81b19831617176002558160405194818360c81c16865216602085015260d81c1660408301526060820152a1005b60105416331415905085610b42565b3461024d57600036600319011261024d576000805160206130f0833981519152546040516001600160a01b039091168152602090f35b3461024d57602036600319011261024d576000805160206130f08339815191525460043590336001600160a01b0391821614159081610c6b575b50610341576020816104047fdd5aeaec2032ed464aed048b9014721d48de827cef3d77f78f0a76f1f0136dd493612f70565b60105416331415905082610c39565b3461024d5760c036600319011261024d57366023121561024d57604051606081018181106001600160401b038211176113d45760405260648136821161024d576004905b82821061163a575050356001600160401b03811161024d57610ce4903690600401612448565b6084356001600160401b03811161024d57610d03903690600401612448565b60a4356001600160401b03811161024d57610d22903690600401612448565b9260008051602061317083398151915254926001600160401b0384168015908161162a575b6001149081611620575b159081611617575b506116055760016001600160401b03198516176000805160206131708339815191525560ff8460401c16156115d8575b8151610d9d906001600160a01b0316612d46565b80518101906040816020840193031261024d5760208101516001600160401b03811161024d57826020610dd2928401016124f3565b916040820151916001600160401b03831161024d57610df492016020016124f3565b8051906001600160401b0382116113d4578190610e12600854612538565b601f8111611564575b50602090601f83116001146114ec576000926114e1575b50508160011b916000199060031b1c1916176008555b8051906001600160401b0382116113d4578190610e66600754612538565b601f811161146d575b50602090601f83116001146113f5576000926113ea575b50508160011b916000199060031b1c1916176007555b602081015160028054610100600160a81b03191660089290921b610100600160a81b031691909117905560400151600380546001600160a01b03199081166001600160a01b0393909316929092179055815190939060e09083018390031261024d5760405160e081018181106001600160401b038211176113d4576040526020830151815260408301519160208201928352606084015193604083019485526080810151606084015260a08101516080840152610f6760e060c08301519260a08601938452016124cc565b9360c0840194855260808380518101031261024d5760405194608086018681106001600160401b038211176113d4576040526020840151865260408401516020870152610fc2608060608601519560408901968752016124cc565b94606087019586528051610fd98951855190612572565b036113c2576001600160801b039051116113b05760018060a01b039051168860065416176006555193670de0b6b3a7640000958686029580870488149015171561139a575186810296818804149015171561139a5761103b915160015561257f565b15159060ff6002549161ffff60e81b905160e81b1692169061010062ff000160e81b0316171760025560018060a01b039051168460045416176004558061138a575b508061136e575b5060025460405163c45a015560e01b80825260089290921c6001600160a01b03169391602082600481885afa9182156112a557600092611332575b5060035460405163e6a4390560e01b81523060048201526001600160a01b0391821660248201819052909390929160209185916044918391165afa9283156112a5576000936112f6575b506001600160a01b038316156111bc575b5060ff9450506001600160a01b031661113281612ea6565b5081600054161760005533906010541617601055600160a01b8260a01b19600354161760035560401c161561116357005b68ff0000000000000000196000805160206131708339815191525416600080516020613170833981519152557fc7f505b2f371ae2175ee4913f4499e1f2633a7b5936321eed1cdaeb6115181d2602060405160018152a1005b602091925060046040518097819382525afa9384156112a5576000946112b1575b506040516364e329cb60e11b81523060048201526001600160a01b03909116602482015292602090849081600081604481015b03926001600160a01b03165af180156112a55760009061126b575b6040516001600160a01b038216815260ff94507f969ffc8569f9af3993220e04ac05164e5db4e3d9f8b1a47f64e7de9a04b8ea2f90602090a1848061111a565b506020833d60201161129d575b816112856020938361240c565b8101031261024d5761129860ff936124cc565b61122b565b3d9150611278565b6040513d6000823e3d90fd5b93506020843d6020116112ee575b816112cc6020938361240c565b8101031261024d576112106020916112e56000966124cc565b955091506111dd565b3d91506112bf565b9092506020813d60201161132a575b816113126020938361240c565b8101031261024d57611323906124cc565b9186611109565b3d9150611305565b9091506020813d602011611366575b8161134e6020938361240c565b8101031261024d5761135f906124cc565b90856110bf565b3d9150611341565b60065461138491906001600160a01b0316612b92565b82611084565b6113949030612b92565b8361107d565b634e487b7160e01b600052601160045260246000fd5b604051637f47720f60e11b8152600490fd5b6040516361cf53d560e01b8152600490fd5b634e487b7160e01b600052604160045260246000fd5b015190508680610e86565b92506007600052600080516020613110833981519152906000935b601f1984168510611452576001945083601f19811610611439575b505050811b01600755610e9c565b015160001960f88460031b161c1916905586808061142b565b81810151835560209485019460019093019290910190611410565b9091506007600052601f830160051c60008051602061311083398151915201602084106114cc575b908392915b601f820160051c6000805160206131108339815191520181106114bd5750610e6f565b6000815584935060010161149a565b50600080516020613110833981519152611495565b015190508780610e32565b92506008600052600080516020613130833981519152906000935b601f1984168510611549576001945083601f19811610611530575b505050811b01600855610e48565b015160001960f88460031b161c19169055878080611522565b81810151835560209485019460019093019290910190611507565b9091506008600052601f830160051c60008051602061313083398151915201602084106115c3575b908392915b601f820160051c6000805160206131308339815191520181106115b45750610e1b565b60008155849350600101611591565b5060008051602061313083398151915261158c565b68ffffffffffffffffff198416680100000000000000011760008051602061317083398151915255610d89565b60405163f92ee8a960e01b8152600490fd5b90501586610d59565b303b159150610d51565b604086901c60ff16159150610d47565b81356001600160a01b038116810361024d57815260209182019101610cbe565b3461024d57604036600319011261024d5761001b6116766123a1565b60243590611685823383612c5a565b612cbf565b3461024d57600036600319011261024d5760008051602061319083398151915254336001600160a01b03909116036116c55761001b33612d46565b60405163118cdaa760e01b8152336004820152602490fd5b3461024d57600036600319011261024d576116f6612db4565b60008051602061319083398151915280546001600160a01b03199081169091556000805160206130f0833981519152805491821690556000906001600160a01b03167f8be0079c531659141344cd1fd0a4f28419497f9722a3daafe3b4186f6b6457e08280a3005b3461024d57602036600319011261024d576001600160a01b0361177f6123a1565b16600052600a6020526020604060002054604051908152f35b3461024d57600036600319011261024d576020600154604051908152f35b3461024d5760208060031936011261024d576117d06123a1565b6000805160206130f0833981519152546001600160a01b0390811633141580611b1b575b6103415760025463ffffffff8160a81c16611b095763ffffffff60a81b19164260a81b63ffffffff60a81b16176002819055306000908152600a8552604090205415611af75760081c81163015611ae5578015611ad35730600052600b8452604060002081600052845260001990816040600020556040518281527f8c5be1e5ebec7d5bd14f71427d1e84f3dd0314c0f7b2291e5b200ac8c7c3b925863092a38382600354169160448460025460081c166000604051958694859363095ea7b360e01b8552600485015260248401525af180156112a557611ab6575b508060025460081c1691816003541630600052600a855260406000205490604051946370a0823160e01b86523060048701528686602481855afa9586156112a557600096611a80575b5060609291600061010492604051988995869462e8e33760e81b86523060048701526024860152604485015260648401528160848401528160a48401523060c48401524260e48401525af19081156112a5578492600094600090600094611a35575b5060606119ff967fbf59dda00152e02f20e18cab7307c8afe0714e7f69cf24a1377cbbddcb40f9bb9260405191825287820152856040820152a16003805460ff60a01b191690556000805460405163a9059cbb60e01b81526001600160a01b0390941660048501526024840194909452919485939190911691839182906044820190565b03925af180156112a557611a0f57005b8161001b92903d10611a2e575b611a26818361240c565b8101906125d6565b503d611a1c565b935050925092506060813d8211611a78575b81611a546060938361240c565b8101031261024d57805181850151604090920151909385939192909190606061197b565b3d9150611a47565b9095508681819493943d8311611aaf575b611a9b818361240c565b8101031261024d5751949091906060611919565b503d611a91565b611acc90843d8611611a2e57611a26818361240c565b50836118d0565b60405163b2fa1ef360e01b8152600490fd5b6040516356fdae6560e11b8152600490fd5b6040516330d86fb160e11b8152600490fd5b60405163b1f3376760e01b8152600490fd5b5033816010541614156117f4565b3461024d57600036600319011261024d57602061ffff60025460e81c16604051908152f35b3461024d57600036600319011261024d576000546040516001600160a01b039091168152602090f35b3461024d57602036600319011261024d5761001b60043533612cbf565b3461024d57600036600319011261024d576003546040516001600160a01b039091168152602090f35b3461024d57604036600319011261024d5761080e611bd96123a1565b33600052600b602052604060002060018060a01b038216600052602052611c07602435604060002054612572565b9033612bf9565b3461024d57602036600319011261024d57611c276123cd565b6000805160206130f083398151915254336001600160a01b0391821614159081611ca7575b506103415760407fe4351c45b53ffb7ebad0b66cc0f1a3dfe2963c099421eeaded141104df39206a9160025461ffff60e81b8260e81b1661ffff60e81b1982161760025582519161ffff809260e81c168352166020820152a1005b60105416331415905082611c4c565b3461024d57600036600319011261024d57602060405160128152f35b3461024d57600036600319011261024d576005546001600160801b038116611cf657005b6fffffffffffffffffffffffffffffffff198116600555600454600080546001600160a01b039283169392919082168414806121d6575b806121c3575b6121b157301561219f57831561218d5730600052600a602052604060002054916001600160801b038416831061217b5760025460ff8116611f2e575b50506001600160801b0383169160025460ff811680611f27575b80611f17575b611de5575b50611dac906001600160801b03604094951690612620565b308252600a6020528282205583815220611dc7828254612572565b905560405190815260008051602061315083398151915260203092a3005b8290611df0876125ee565b80611f07575b15611e97575061ffff60025460d81c1680611e5d575b505b8015611d945760409350906001600160801b03611dac92308552600a6020528585208181540190558551818152309060008051602061315083398151915260203092a390861603935090611d94565b612710906001600160801b0387160204906005546001600160801b038084168183160116906001600160801b031916176005550186611e0c565b611ea0306125ee565b80611ef7575b611eb1575b50611e0e565b60c81c61ffff168015611eab5761271091506001600160801b03861602046005546001600160801b038083168183160116906001600160801b0319161760055586611eab565b5061ffff8160c81c161515611ea6565b5061ffff8160d81c161515611df6565b5060ff60035460a01c1615611d8f565b5082611d89565b30600052600a602052604060002054908192612710611f5760095461ffff8560e81c16906124e0565b0490818410158061216b575b8061215b575b8061214c575b8061213d575b611f82575b505050611d6f565b6003805460ff60a01b198116600160a01b17909155916014808202918015908304909114171561139a57808511612135575b508060405192611fc3846123f1565b60028452604036602086013730611fd985612b2f565b5216611fe483612b52565b526102584201421161139a57808360081c163b1561024d5788926000928361203693604051809781968295635c11d79560e01b84528b600485015285602485015260a0604485015260a484019061248f565b90606483015261025842016084830152039360081c165af19081612121575b5061209f5750507f60dc41faad9fe4f70f304dcef26d96d71e98ec8e21e4a340921d94dfe46307dc602060405160058152a15b6003805460ff60a01b191690558480808080611f7a565b8181101561210a576001600160801b036120c8600554936120c383861694856124e0565b612b0f565b1690036001600160801b0381116120f6576001600160801b0316906001600160801b03191617600555612088565b634e487b7160e01b83526011600452602483fd5b50506001600160801b031960055416600555612088565b61212c9194506123de565b60009287612055565b935089611fb4565b50808360081c16891415611f75565b50808360081c16301415611f6f565b50612165306125ee565b15611f69565b5060ff60035460a01c1615611f63565b604051635dd58b8b60e01b8152600490fd5b604051633a954ecd60e21b8152600490fd5b604051630b07e54560e11b8152600490fd5b604051630d970b4560e21b8152600490fd5b5063ffffffff60025460a81c1615611d33565b506000611d2d565b3461024d57606036600319011261024d5761080e6121fa6123a1565b6122026123b7565b60443590612211823385612c5a565b61221a836125ee565b928361262d57925061222b816125ee565b9261262d565b3461024d57600036600319011261024d576020600954604051908152f35b3461024d57600036600319011261024d57602063ffffffff60025460a81c16604051908152f35b3461024d57604036600319011261024d5761080e6122926123a1565b6024359033612bf9565b3461024d57600036600319011261024d5760405160006007546122be81612538565b80845290600190818116908115610acc57506001146122e75761060e84610a778186038261240c565b6007600090815292506000805160206131108339815191525b828410612318575050508101602001610a7782610a67565b80546020858701810191909152909301928101612300565b3461024d57600036600319011261024d5760209061ffff60025460d81c168152f35b60005b8381106123655750506000910152565b8181015183820152602001612355565b604091602082526123958151809281602086015260208686019101612352565b601f01601f1916010190565b600435906001600160a01b038216820361024d57565b602435906001600160a01b038216820361024d57565b6004359061ffff8216820361024d57565b6001600160401b0381116113d457604052565b606081019081106001600160401b038211176113d457604052565b90601f801991011681019081106001600160401b038211176113d457604052565b6001600160401b0381116113d457601f01601f191660200190565b81601f8201121561024d5780359061245f8261242d565b9261246d604051948561240c565b8284526020838301011161024d57816000926020809301838601378301015290565b90815180825260208080930193019160005b8281106124af575050505090565b83516001600160a01b0316855293810193928101926001016124a1565b51906001600160a01b038216820361024d57565b8181029291811591840414171561139a57565b81601f8201121561024d5780516125098161242d565b92612517604051948561240c565b8184526020828401011161024d576125359160208085019101612352565b90565b90600182811c92168015612568575b602083101461255257565b634e487b7160e01b600052602260045260246000fd5b91607f1691612547565b9190820180921161139a57565b8051908115806125ca575b15612596575050600090565b60025490602061ffff60d81b91015160d81b169161ffff60c81b9060c81b169063ffffffff60c81b19161717600255600190565b5060208101511561258a565b9081602091031261024d5751801515810361024d5790565b6000546001600160a01b039182169116811490811561260b575090565b9050600052600f602052604060002054151590565b9190820391821161139a57565b6000805491949390916001600160a01b0384811691161480612afc575b80612ae9575b6121b1576001600160a01b0385161561219f576001600160a01b0383161561218d576001600160a01b0385168252600a602052604082205481811061217b5760025460ff811661285b575b5081946002549060ff82169081612853575b5080612843575b61271c575b506020926126d96000805160206131508339815191529593604093612620565b6001600160a01b038881168352600a86528383209190915583168152208054612703908690612572565b90556040519384526001600160a01b03908116941692a3565b8390612727866125ee565b80612833575b156127cc575061ffff60025460d81c168061279b575b505b80156126b9576040919550926126d96000805160206131508339815191529593602095308452600a87528484208181540190558451818152309089898d60018060a01b031692a3810397935093955050926126b9565b61271090840204906005546001600160801b038084168183160116906001600160801b031916176005550138612743565b6127d5886125ee565b80612823575b6127e6575b50612745565b60c81c61ffff1680156127e05761271091508302046005546001600160801b038083168183160116906001600160801b03191617600555386127e0565b5061ffff8160c81c1615156127db565b5061ffff8160d81c16151561272d565b5060ff60035460a01c16156126b4565b9050386126ad565b308452600a6020526040842054809161271061288160095461ffff8460e81c16906124e0565b04908183101580612ad9575b80612ac9575b80612aae575b80612a93575b6128ac575b50505061269b565b6003805460ff60a01b198116600160a01b179091559180156014808302839004141715612a7457601481028411612a88575b50604051916128ec836123f1565b6002835260403660208501373061290284612b2f565b526001600160a01b031661291583612b52565b526004546001600160a01b03169142610258810110612a7457600882901c6001600160a01b03163b15612a705787916129799183604051809681958294635c11d79560e01b84528a600485015284602485015260a0604485015260a484019061248f565b606483019190915242610258016084830152039260081c6001600160a01b03165af19081612a5d575b506129eb5750507f60dc41faad9fe4f70f304dcef26d96d71e98ec8e21e4a340921d94dfe46307dc602060405160058152a15b6003805460ff60a01b19169055388080806128a4565b81811015612a4657612a1390600554926001600160801b039283916120c383871694856124e0565b169003818111612a325716906001600160801b031916176005556129d5565b634e487b7160e01b86526011600452602486fd5b50506001600160801b0319600554166005556129d5565b612a69909691966123de565b94386129a2565b8780fd5b634e487b7160e01b88526011600452602488fd5b6014029250386128de565b506001600160a01b03888116600883901c909116141561289f565b506001600160a01b038a8116600883901c9091161415612899565b50612ad38a6125ee565b15612893565b5060ff60035460a01c161561288d565b5063ffffffff60025460a81c1615612650565b506001600160a01b03851630141561264a565b8115612b19570490565b634e487b7160e01b600052601260045260246000fd5b805115612b3c5760200190565b634e487b7160e01b600052603260045260246000fd5b805160011015612b3c5760400190565b3d15612b8d573d90612b738261242d565b91612b81604051938461240c565b82523d6000602084013e565b606090565b6001600160a01b0316908115612be857600080516020613150833981519152602082612bcb6001600160801b0360009516600954612572565b600955848452600a825260408420818154019055604051908152a3565b604051622e076360e81b8152600490fd5b6001600160a01b03908116918215611ae55716918215611ad35760207f8c5be1e5ebec7d5bd14f71427d1e84f3dd0314c0f7b2291e5b200ac8c7c3b9259183600052600b8252604060002085600052825280604060002055604051908152a3565b9060018060a01b03808316600052600b6020526040600020908216600052602052604060002054926000198403612c92575b50505050565b808410612cad57612ca4930391612bf9565b38808080612c8c565b6040516313be252b60e01b8152600490fd5b6001600160a01b03168015612d345780600052600a60205260406000205491808310612d225760208160008051602061315083398151915292600095858752600a84520360408620556001600160801b03811660095403600955604051908152a3565b60405163588569f760e01b8152600490fd5b6040516304fca6bd60e41b8152600490fd5b60008051602061319083398151915280546001600160a01b03199081169091556000805160206130f083398151915280549182166001600160a01b0393841690811790915591167f8be0079c531659141344cd1fd0a4f28419497f9722a3daafe3b4186f6b6457e0600080a3565b6000805160206130f0833981519152546001600160a01b031633036116c557565b90612dfc5750805115612dea57805190602001fd5b604051630a12f52160e11b8152600490fd5b81511580612e2f575b612e0d575090565b604051639996b31560e01b81526001600160a01b039091166004820152602490fd5b50803b15612e05565b600e54811015612b3c57600e6000527fbb7b4a454dc3493923482f07822329ed19e8244eff582cc204f8554c3620c3fd0190600090565b600c54811015612b3c57600c6000527fdf6966c971051c3d54ec59162606531493a51404a002842f56009d7e5cf4a8c70190600090565b6000818152600f6020526040812054612f1e57600e54600160401b811015612f0a579082612ef6612edf84600160409601600e55612e38565b819391549060031b91821b91600019901b19161790565b9055600e54928152600f6020522055600190565b634e487b7160e01b82526041600452602482fd5b905090565b6000818152600d6020526040812054612f1e57600c54600160401b811015612f0a579082612f5c612edf84600160409601600c55612e6f565b9055600c54928152600d6020522055600190565b6000818152600d60205260408120549091908015613041576000199080820181811161302d57600c5490838201918211612a3257818103612ff9575b505050600c548015612fe557810190612fc482612e6f565b909182549160031b1b19169055600c558152600d6020526040812055600190565b634e487b7160e01b84526031600452602484fd5b613017613008612edf93612e6f565b90549060031b1c928392612e6f565b90558452600d6020526040842055388080612fac565b634e487b7160e01b85526011600452602485fd5b505090565b6000818152600f60205260408120549091908015613041576000199080820181811161302d57600e5490838201918211612a32578181036130bb575b505050600e548015612fe55781019061309a82612e38565b909182549160031b1b19169055600e558152600f6020526040812055600190565b6130d96130ca612edf93612e38565b90549060031b1c928392612e38565b90558452600f602052604084205538808061308256fe9016d09d72d40fdae2fd8ceac6b6234c7706214fd39c1cd1e609a0528c199300a66cc928b5edb82af9bd49922954155ab7b0942694bea4ce44661d9a8736c688f3f7a9fe364faab93b216da50a3214154f22a0a2b415b23a84c8169e8b636ee3ddf252ad1be2c89b69c2b068fc378daa952ba7f163c4a11628f55a4df523b3eff0c57e16840df040f15088dc2f81fe391c3923bec73e23a9662efc9c229c6a00237e158222e3e6968b72b9db0d8043aacf074ad9f650f0d1606b4d82ee432c00a2646970667358221220c319b1206950a73d3e0d3805420a83935e239d73c810304de9e574c83ec85c5564736f6c63430008140033","linkReferences":{}},"methodIdentifiers":{"acceptOwnership()":"79ba5097","addInitialLiquidity(address)":"59cabbe4","addLiquidityPool(address)":"ee6a934c","addValidCaller(bytes32)":"e37d9e95","allowance(address,address)":"dd62ed3e","approve(address,uint256)":"095ea7b3","balanceOf(address)":"70a08231","botProtectionDurationInSeconds()":"63a9c1f2","burn(uint256)":"42966c68","burnFrom(address,uint256)":"79cc6790","decimals()":"313ce567","decreaseAllowance(address,uint256)":"a457c2d7","distributeTaxTokens()":"2ead0955","fundedDate()":"10b828c9","increaseAllowance(address,uint256)":"39509351","initialize(address[3],bytes,bytes,bytes)":"84b1df52","isLiquidityPool(address)":"e85455d7","isValidCaller(bytes32)":"bfe3098f","liquidityPools()":"d6efd7c3","name()":"06fdde03","owner()":"8da5cb5b","pairToken()":"3de35b79","pendingOwner()":"e30c3978","projectBuyTaxBasisPoints()":"a45cae02","projectSellTaxBasisPoints()":"b2c5c9eb","projectTaxPendingSwap()":"b0d75097","projectTaxRecipient()":"ea8b2424","removeLiquidityPool(address)":"ae22107f","removeValidCaller(bytes32)":"8589287a","renounceOwnership()":"715018a6","setProjectTaxRates(uint16,uint16)":"936b2934","setProjectTaxRecipient(address)":"9808751d","setSwapThresholdBasisPoints(uint16)":"326b3b8b","swapThresholdBasisPoints()":"4bed5ad2","symbol()":"95d89b41","totalBuyTaxBasisPoints()":"eeae0f97","totalSellTaxBasisPoints()":"038272b6","totalSupply()":"18160ddd","transfer(address,uint256)":"a9059cbb","transferFrom(address,address,uint256)":"23b872dd","transferOwnership(address)":"f2fde38b","uniswapV2Pair()":"49bd5a5e","validCallers()":"b498d39f","vault()":"fbfa77cf","withdrawERC20(address,uint256)":"a1db9782","withdrawETH(uint256)":"f14210a6"},"id":10}