{"abi":[{"type":"function","name":"currentId","inputs":[],"outputs":[{"name":"","type":"uint256","internalType":"uint256"}],"stateMutability":"view"},{"type":"function","name":"mint","inputs":[{"name":"virtualId","type":"uint256","internalType":"uint256"},{"name":"to","type":"address","internalType":"address"},{"name":"tokenURI","type":"string","internalType":"string"},{"name":"dao","type":"address","internalType":"address"},{"name":"proposer","type":"address","internalType":"address"},{"name":"cores","type":"uint8[]","internalType":"uint8[]"},{"name":"lp","type":"address","internalType":"address"},{"name":"token","type":"address","internalType":"address"}],"outputs":[],"stateMutability":"nonpayable"},{"type":"function","name":"minted","inputs":[{"name":"","type":"uint256","internalType":"uint256"}],"outputs":[{"name":"","type":"bool","internalType":"bool"}],"stateMutability":"view"},{"type":"function","name":"nextVirtualId","inputs":[],"outputs":[{"name":"","type":"uint256","internalType":"uint256"}],"stateMutability":"view"},{"type":"function","name":"setTBA","inputs":[{"name":"virtualId","type":"uint256","internalType":"uint256"},{"name":"tba","type":"address","internalType":"address"}],"outputs":[],"stateMutability":"nonpayable"},{"type":"function","name":"tbas","inputs":[{"name":"","type":"uint256","internalType":"uint256"}],"outputs":[{"name":"","type":"address","internalType":"address"}],"stateMutability":"view"}],"bytecode":{"object":"0x60808060405234601a57600160025561037590816100208239f35b600080fdfe6080604052600436101561001257600080fd5b60003560e01c80633f11354a1461012f5780635faef81a1461005e5780637dc0bf3f146100fe5780639bb55d39146100ca578063c859b998146100815763e00dd1611461005e57600080fd5b3461007c57600036600319011261007c576020600254604051908152f35b600080fd5b3461007c57604036600319011261007c5761009a6102ab565b600435600090815260016020526040902080546001600160a01b0319166001600160a01b03909216919091179055005b3461007c57602036600319011261007c576004356000526001602052602060018060a01b0360406000205416604051908152f35b3461007c57602036600319011261007c576004356000526000602052602060ff604060002054166040519015158152f35b3461007c5761010036600319011261007c576101496102ab565b5060443567ffffffffffffffff811161007c573660238201121561007c5780600401359067ffffffffffffffff82116102955761018f601f8301601f1916602001610319565b91808352366024828401011161007c5760009281602460209401848301370101526101b86102c1565b506101c16102d7565b5060a43567ffffffffffffffff811161007c573660238201121561007c5780600401359067ffffffffffffffff821161029557602460208360051b93610208828601610319565b90815201928201019036821161007c57602401915b81831061027b5761022c6102ed565b50610235610303565b5060043560005260006020526040600020600160ff19825416179055600254600019811461026557600101600255005b634e487b7160e01b600052601160045260246000fd5b823560ff8116810361007c5781526020928301920161021d565b634e487b7160e01b600052604160045260246000fd5b602435906001600160a01b038216820361007c57565b606435906001600160a01b038216820361007c57565b608435906001600160a01b038216820361007c57565b60c435906001600160a01b038216820361007c57565b60e435906001600160a01b038216820361007c57565b6040519190601f01601f1916820167ffffffffffffffff8111838210176102955760405256fea26469706673582212208181e88e1f875b46ee01da4d8eeebe8f99aa2c57ddfe6fcd201b31bb95ed77ac64736f6c634300081a0033","linkReferences":{}},"methodIdentifiers":{"currentId()":"e00dd161","mint(uint256,address,string,address,address,uint8[],address,address)":"3f11354a","minted(uint256)":"7dc0bf3f","nextVirtualId()":"5faef81a","setTBA(uint256,address)":"c859b998","tbas(uint256)":"9bb55d39"},"id":123}