{"abi":[{"type":"constructor","inputs":[],"stateMutability":"nonpayable"},{"type":"function","name":"approve","inputs":[{"name":"to","type":"address","internalType":"address"},{"name":"tokenId","type":"uint256","internalType":"uint256"}],"outputs":[],"stateMutability":"nonpayable"},{"type":"function","name":"balanceOf","inputs":[{"name":"owner","type":"address","internalType":"address"}],"outputs":[{"name":"","type":"uint256","internalType":"uint256"}],"stateMutability":"view"},{"type":"function","name":"getAdmin","inputs":[],"outputs":[{"name":"","type":"address","internalType":"address"}],"stateMutability":"view"},{"type":"function","name":"getAgentDAO","inputs":[{"name":"virtualId","type":"uint256","internalType":"uint256"}],"outputs":[{"name":"","type":"address","internalType":"contract IGovernor"}],"stateMutability":"view"},{"type":"function","name":"getApproved","inputs":[{"name":"tokenId","type":"uint256","internalType":"uint256"}],"outputs":[{"name":"","type":"address","internalType":"address"}],"stateMutability":"view"},{"type":"function","name":"getChildren","inputs":[{"name":"tokenId","type":"uint256","internalType":"uint256"}],"outputs":[{"name":"","type":"uint256[]","internalType":"uint256[]"}],"stateMutability":"view"},{"type":"function","name":"getCore","inputs":[{"name":"tokenId","type":"uint256","internalType":"uint256"}],"outputs":[{"name":"","type":"uint8","internalType":"uint8"}],"stateMutability":"view"},{"type":"function","name":"getDatasetId","inputs":[{"name":"tokenId","type":"uint256","internalType":"uint256"}],"outputs":[{"name":"","type":"uint256","internalType":"uint256"}],"stateMutability":"view"},{"type":"function","name":"getEloCalculator","inputs":[],"outputs":[{"name":"","type":"address","internalType":"address"}],"stateMutability":"view"},{"type":"function","name":"getParentId","inputs":[{"name":"tokenId","type":"uint256","internalType":"uint256"}],"outputs":[{"name":"","type":"uint256","internalType":"uint256"}],"stateMutability":"view"},{"type":"function","name":"initialize","inputs":[{"name":"thePersonaAddress","type":"address","internalType":"address"}],"outputs":[],"stateMutability":"nonpayable"},{"type":"function","name":"isAccepted","inputs":[{"name":"tokenId","type":"uint256","internalType":"uint256"}],"outputs":[{"name":"","type":"bool","internalType":"bool"}],"stateMutability":"view"},{"type":"function","name":"isApprovedForAll","inputs":[{"name":"owner","type":"address","internalType":"address"},{"name":"operator","type":"address","internalType":"address"}],"outputs":[{"name":"","type":"bool","internalType":"bool"}],"stateMutability":"view"},{"type":"function","name":"isModel","inputs":[{"name":"tokenId","type":"uint256","internalType":"uint256"}],"outputs":[{"name":"","type":"bool","internalType":"bool"}],"stateMutability":"view"},{"type":"function","name":"mint","inputs":[{"name":"to","type":"address","internalType":"address"},{"name":"virtualId","type":"uint256","internalType":"uint256"},{"name":"coreId","type":"uint8","internalType":"uint8"},{"name":"newTokenURI","type":"string","internalType":"string"},{"name":"proposalId","type":"uint256","internalType":"uint256"},{"name":"parentId","type":"uint256","internalType":"uint256"},{"name":"isModel_","type":"bool","internalType":"bool"},{"name":"datasetId","type":"uint256","internalType":"uint256"}],"outputs":[{"name":"","type":"uint256","internalType":"uint256"}],"stateMutability":"nonpayable"},{"type":"function","name":"modelContributions","inputs":[{"name":"","type":"uint256","internalType":"uint256"}],"outputs":[{"name":"","type":"bool","internalType":"bool"}],"stateMutability":"view"},{"type":"function","name":"modelDatasets","inputs":[{"name":"","type":"uint256","internalType":"uint256"}],"outputs":[{"name":"","type":"uint256","internalType":"uint256"}],"stateMutability":"view"},{"type":"function","name":"name","inputs":[],"outputs":[{"name":"","type":"string","internalType":"string"}],"stateMutability":"view"},{"type":"function","name":"ownerOf","inputs":[{"name":"tokenId","type":"uint256","internalType":"uint256"}],"outputs":[{"name":"","type":"address","internalType":"address"}],"stateMutability":"view"},{"type":"function","name":"personaNft","inputs":[],"outputs":[{"name":"","type":"address","internalType":"address"}],"stateMutability":"view"},{"type":"function","name":"safeTransferFrom","inputs":[{"name":"from","type":"address","internalType":"address"},{"name":"to","type":"address","internalType":"address"},{"name":"tokenId","type":"uint256","internalType":"uint256"}],"outputs":[],"stateMutability":"nonpayable"},{"type":"function","name":"safeTransferFrom","inputs":[{"name":"from","type":"address","internalType":"address"},{"name":"to","type":"address","internalType":"address"},{"name":"tokenId","type":"uint256","internalType":"uint256"},{"name":"data","type":"bytes","internalType":"bytes"}],"outputs":[],"stateMutability":"nonpayable"},{"type":"function","name":"setAdmin","inputs":[{"name":"newAdmin","type":"address","internalType":"address"}],"outputs":[],"stateMutability":"nonpayable"},{"type":"function","name":"setApprovalForAll","inputs":[{"name":"operator","type":"address","internalType":"address"},{"name":"approved","type":"bool","internalType":"bool"}],"outputs":[],"stateMutability":"nonpayable"},{"type":"function","name":"setEloCalculator","inputs":[{"name":"eloCalculator_","type":"address","internalType":"address"}],"outputs":[],"stateMutability":"nonpayable"},{"type":"function","name":"supportsInterface","inputs":[{"name":"interfaceId","type":"bytes4","internalType":"bytes4"}],"outputs":[{"name":"","type":"bool","internalType":"bool"}],"stateMutability":"view"},{"type":"function","name":"symbol","inputs":[],"outputs":[{"name":"","type":"string","internalType":"string"}],"stateMutability":"view"},{"type":"function","name":"tokenByIndex","inputs":[{"name":"index","type":"uint256","internalType":"uint256"}],"outputs":[{"name":"","type":"uint256","internalType":"uint256"}],"stateMutability":"view"},{"type":"function","name":"tokenOfOwnerByIndex","inputs":[{"name":"owner","type":"address","internalType":"address"},{"name":"index","type":"uint256","internalType":"uint256"}],"outputs":[{"name":"","type":"uint256","internalType":"uint256"}],"stateMutability":"view"},{"type":"function","name":"tokenURI","inputs":[{"name":"tokenId","type":"uint256","internalType":"uint256"}],"outputs":[{"name":"","type":"string","internalType":"string"}],"stateMutability":"view"},{"type":"function","name":"tokenVirtualId","inputs":[{"name":"tokenId","type":"uint256","internalType":"uint256"}],"outputs":[{"name":"","type":"uint256","internalType":"uint256"}],"stateMutability":"view"},{"type":"function","name":"totalSupply","inputs":[],"outputs":[{"name":"","type":"uint256","internalType":"uint256"}],"stateMutability":"view"},{"type":"function","name":"transferFrom","inputs":[{"name":"from","type":"address","internalType":"address"},{"name":"to","type":"address","internalType":"address"},{"name":"tokenId","type":"uint256","internalType":"uint256"}],"outputs":[],"stateMutability":"nonpayable"},{"type":"event","name":"Approval","inputs":[{"name":"owner","type":"address","indexed":true,"internalType":"address"},{"name":"approved","type":"address","indexed":true,"internalType":"address"},{"name":"tokenId","type":"uint256","indexed":true,"internalType":"uint256"}],"anonymous":false},{"type":"event","name":"ApprovalForAll","inputs":[{"name":"owner","type":"address","indexed":true,"internalType":"address"},{"name":"operator","type":"address","indexed":true,"internalType":"address"},{"name":"approved","type":"bool","indexed":false,"internalType":"bool"}],"anonymous":false},{"type":"event","name":"BatchMetadataUpdate","inputs":[{"name":"_fromTokenId","type":"uint256","indexed":false,"internalType":"uint256"},{"name":"_toTokenId","type":"uint256","indexed":false,"internalType":"uint256"}],"anonymous":false},{"type":"event","name":"Initialized","inputs":[{"name":"version","type":"uint64","indexed":false,"internalType":"uint64"}],"anonymous":false},{"type":"event","name":"MetadataUpdate","inputs":[{"name":"_tokenId","type":"uint256","indexed":false,"internalType":"uint256"}],"anonymous":false},{"type":"event","name":"NewContribution","inputs":[{"name":"tokenId","type":"uint256","indexed":false,"internalType":"uint256"},{"name":"virtualId","type":"uint256","indexed":false,"internalType":"uint256"},{"name":"parentId","type":"uint256","indexed":false,"internalType":"uint256"},{"name":"datasetId","type":"uint256","indexed":false,"internalType":"uint256"}],"anonymous":false},{"type":"event","name":"Transfer","inputs":[{"name":"from","type":"address","indexed":true,"internalType":"address"},{"name":"to","type":"address","indexed":true,"internalType":"address"},{"name":"tokenId","type":"uint256","indexed":true,"internalType":"uint256"}],"anonymous":false},{"type":"error","name":"ERC721EnumerableForbiddenBatchMint","inputs":[]},{"type":"error","name":"ERC721IncorrectOwner","inputs":[{"name":"sender","type":"address","internalType":"address"},{"name":"tokenId","type":"uint256","internalType":"uint256"},{"name":"owner","type":"address","internalType":"address"}]},{"type":"error","name":"ERC721InsufficientApproval","inputs":[{"name":"operator","type":"address","internalType":"address"},{"name":"tokenId","type":"uint256","internalType":"uint256"}]},{"type":"error","name":"ERC721InvalidApprover","inputs":[{"name":"approver","type":"address","internalType":"address"}]},{"type":"error","name":"ERC721InvalidOperator","inputs":[{"name":"operator","type":"address","internalType":"address"}]},{"type":"error","name":"ERC721InvalidOwner","inputs":[{"name":"owner","type":"address","internalType":"address"}]},{"type":"error","name":"ERC721InvalidReceiver","inputs":[{"name":"receiver","type":"address","internalType":"address"}]},{"type":"error","name":"ERC721InvalidSender","inputs":[{"name":"sender","type":"address","internalType":"address"}]},{"type":"error","name":"ERC721NonexistentToken","inputs":[{"name":"tokenId","type":"uint256","internalType":"uint256"}]},{"type":"error","name":"ERC721OutOfBoundsIndex","inputs":[{"name":"owner","type":"address","internalType":"address"},{"name":"index","type":"uint256","internalType":"uint256"}]},{"type":"error","name":"InvalidInitialization","inputs":[]},{"type":"error","name":"NotInitializing","inputs":[]}],"bytecode":{"object":"0x6080806040523460d2577ff0c57e16840df040f15088dc2f81fe391c3923bec73e23a9662efc9c229c6a005460ff8160401c1660c1576002600160401b03196001600160401b03821601605c575b6040516123e790816100d88239f35b6001600160401b0319166001600160401b039081177ff0c57e16840df040f15088dc2f81fe391c3923bec73e23a9662efc9c229c6a005581527fc7f505b2f371ae2175ee4913f4499e1f2633a7b5936321eed1cdaeb6115181d290602090a13880604d565b63f92ee8a960e01b60005260046000fd5b600080fdfe608080604052600436101561001357600080fd5b60003560e01c90816301ffc9a7146117c55750806306fdde0314611715578063081812fc146116ca578063095ea7b3146115d857806318160ddd146115ad5780631ca95e131461151157806323b872dd146114fa578063252079b2146114cb57806329bc3b85146113fc5780632f745c591461137757806342842e0e1461134d57806349ae8dc3146112a15780634f6ccce7146111ef5780636352211e146111d15780636e9960c3146111a8578063704b6c021461111a57806370a08231146110ef5780638209c69914610f3b57806395d89b4114611008578063a22cb46514610f6c578063a761299714610f3b578063aadc35e214610f0b578063b88d4fde14610ea9578063c052bfb614610e80578063c14b197a1461087a578063c4d66de8146109ac578063c87b56dd14610975578063ccc16f6914610949578063dbdd0aab1461091d578063dcf75bef146108f4578063e985e9c5146108a6578063ed1aa24c1461087a5763f031f7301461018a57600080fd5b3461086157610100366003190112610861576101a46118a3565b6024356044359160ff83168093036108615760643567ffffffffffffffff81116108615736602382011215610861576101e7903690602481600401359101611947565b6084359260a4359260c4359283151584036108615760e435916024602061020d86611df8565b604051630143489d60e41b8152600481018b905292839182906001600160a01b03165afa90811561086e5760009161082f575b506001600160a01b031633036107d15786861461078c576001600160a01b03811690811561077657879160006102758461215e565b928260018060a01b038516801580159788610736575b5061029584611d4b565b805460010190558d85527f80bb2b638cc20bc4d0a60d66940f3ab4a00c1d7b313497ca82fb0b4ab00793026020526040852080546001600160a01b031916841790558d83837fddf252ad1be2c89b69c2b068fc378daa952ba7f163c4a11628f55a4df523b3ef8880a41561065657600080516020612312833981519152548d85527f645e039705490088daad89bae25049a34f4a9072d398537b1ab2425f24cbed0360205260408520556103488d6120df565b036105e7575b505050506105d157856000527f0542a41881ee128a365a727b282c86fa859579490b9bb45aab8503648c8e790060205260406000209080519067ffffffffffffffff82116104f85781906103a2845461197e565b601f811161057e575b50602090601f83116001146105195760009261050e575b50508160011b916000199060031b1c19161790555b7ff8e1a15aba9398e019f0b49df1a4fde98ee17ae345cb5f6b5e2c27f5033e8ce76020604051878152a18460005260016020528160406000205584600052600260205283604060002055836000526003602052604060002093845493600160401b8510156104f85760209761049288610479887fb0c63b0a40c3e23bce51bffd048743be952d168e928fb6f768c58cb8ceec5f809a600160809b018155611d84565b90919082549060031b91821b91600019901b1916179055565b876000526004895260406000209060ff198254161790556104cc575b604051928684528784015260408301526060820152a1604051908152f35b85600052600587526040600020600160ff198254161790558560005260068752816040600020556104ae565b634e487b7160e01b600052604160045260246000fd5b0151905038806103c2565b60008581528281209350601f198516905b818110610566575090846001959493921061054d575b505050811b0190556103d7565b015160001960f88460031b161c19169055388080610540565b9293602060018192878601518155019501930161052a565b909150836000526020600020601f840160051c810191602085106105c7575b90601f859493920160051c01905b8181106105b857506103ab565b600081558493506001016105ab565b909150819061059d565b6339e3563760e11b600052600060045260246000fd5b6105f090611db2565b600019810192908311610642579060409181526000805160206122d28339815191526020528181208382526020528a828220558a81526000805160206122b2833981519152602052205538808061034e565b634e487b7160e01b82526011600452602482fd5b8082146103485761066686611db2565b8d85526000805160206122b283398151915260205260408520548181036106ce575b508d85526000805160206122b28339815191526020528460408120558185526000805160206122d283398151915260205260408520908552602052836040812055610348565b8286526000805160206122d28339815191526020526040862082875260205260408620548387526000805160206122d28339815191526020526040872082885260205280604088205586526000805160206122b2833981519152602052604086205538610688565b60009081526000805160206123328339815191526020526040902080546001600160a01b031916905561076887611d4b565b80546000190190558d61028b565b633250574960e11b600052600060045260246000fd5b60405162461bcd60e51b815260206004820152601a60248201527f43616e6e6f7420626520706172656e74206f6620697473656c660000000000006044820152606490fd5b60405162461bcd60e51b815260206004820152603060248201527f4f6e6c792070726f706f73616c2070726f706f7365722063616e206d696e742060448201526f10dbdb9d1c9a589d5d1a5bdb8813919560821b6064820152608490fd5b90506020813d602011610866575b8161084a60209383611909565b810103126108615761085b90611de4565b38610240565b600080fd5b3d915061083d565b6040513d6000823e3d90fd5b346108615760203660031901126108615760043560005260066020526020604060002054604051908152f35b34610861576040366003190112610861576108bf6118a3565b6108d06108ca6118b9565b91611d12565b9060018060a01b0316600052602052602060ff604060002054166040519015158152f35b34610861576000366003190112610861576000546040516001600160a01b039091168152602090f35b346108615760203660031901126108615760043560005260026020526020604060002054604051908152f35b346108615760203660031901126108615760043560005260016020526020604060002054604051908152f35b34610861576020366003190112610861576109a8610994600435612198565b604051918291602083526020830190611864565b0390f35b34610861576020366003190112610861576109c56118a3565b6000805160206123528339815191525460ff8160401c16159067ffffffffffffffff811680159081610e78575b6001149081610e6e575b159081610e65575b50610e545767ffffffffffffffff1981166001176000805160206123528339815191525581610e27575b50604090815192610a3f8385611909565b600c84526b21b7b73a3934b13aba34b7b760a11b6020850152825193610a658486611909565b6002855261564360f01b6020860152610a7c612283565b610a84612283565b80519067ffffffffffffffff82116104f8578190610ab06000805160206122f28339815191525461197e565b601f8111610da3575b50602090601f8311600114610d1557600092610d0a575b50508160011b916000199060031b1c1916176000805160206122f2833981519152555b835167ffffffffffffffff81116104f857610b1c6000805160206123728339815191525461197e565b601f8111610c98575b50602094601f8211600114610c1757948192939495600092610c0c575b50508160011b916000199060031b1c191617600080516020612372833981519152555b610b6d612283565b610b75612283565b60018060a01b03166bffffffffffffffffffffffff60a01b6000541617600055336bffffffffffffffffffffffff60a01b6007541617600755610bb457005b60207fc7f505b2f371ae2175ee4913f4499e1f2633a7b5936321eed1cdaeb6115181d29168ff0000000000000000196000805160206123528339815191525416600080516020612352833981519152555160018152a1005b015190508580610b42565b601f19821695600080516020612372833981519152600052806000209160005b888110610c8057508360019596979810610c67575b505050811b0160008051602061237283398151915255610b65565b015160001960f88460031b161c19169055858080610c4c565b91926020600181928685015181550194019201610c37565b6000805160206123728339815191526000527ff4bad0a69248f59680a4f2b3000328cec71a413447c96781cfe5996daa8c456e601f830160051c81019160208410610d00575b601f0160051c01905b818110610cf45750610b25565b60008155600101610ce7565b9091508190610cde565b015190508680610ad0565b6000805160206122f283398151915260009081526000805160206123928339815191529350601f198516905b818110610d8b5750908460019594939210610d72575b505050811b016000805160206122f283398151915255610af3565b015160001960f88460031b161c19169055868080610d57565b92936020600181928786015181550195019301610d41565b9091506000805160206122f2833981519152600052601f830160051c600080516020612392833981519152019060208410610e11575b90601f8493920160051c60008051602061239283398151915201905b818110610e025750610ab9565b60008155849350600101610df5565b6000805160206123928339815191529150610dd9565b68ffffffffffffffffff191668010000000000000001176000805160206123528339815191525582610a2e565b63f92ee8a960e01b60005260046000fd5b90501584610a04565b303b1591506109fc565b8391506109f2565b34610861576000366003190112610861576008546040516001600160a01b039091168152602090f35b3461086157608036600319011261086157610ec26118a3565b610eca6118b9565b6064359167ffffffffffffffff8311610861573660238401121561086157610eff610f09933690602481600401359101611947565b9160443591611f98565b005b34610861576020366003190112610861576020610f29600435611df8565b6040516001600160a01b039091168152f35b34610861576020366003190112610861576004356000526005602052602060ff604060002054166040519015158152f35b3461086157604036600319011261086157610f856118a3565b60243590811515809203610861576001600160a01b0316908115610ff357610fac33611d12565b82600052602052604060002060ff1981541660ff83161790556040519081527f17307eab39ab6107e8899845ad3d59bd9653f200f220920489ca2b5937696c3160203392a3005b50630b61174360e31b60005260045260246000fd5b34610861576000366003190112610861576040516000600080516020612372833981519152546110378161197e565b80845290600181169081156110cb575060011461105f575b6109a88361099481850382611909565b60008051602061237283398151915260009081527ff4bad0a69248f59680a4f2b3000328cec71a413447c96781cfe5996daa8c456e939250905b8082106110b15750909150810160200161099461104f565b919260018160209254838588010152019101909291611099565b60ff191660208086019190915291151560051b84019091019150610994905061104f565b3461086157602036600319011261086157602061111261110d6118a3565b611db2565b604051908152f35b34610861576020366003190112610861576111336118a3565b600754906001600160a01b0382163303611163576001600160a01b03166001600160a01b03199190911617600755005b60405162461bcd60e51b815260206004820152601860248201527f4f6e6c792061646d696e2063616e207365742061646d696e00000000000000006044820152606490fd5b34610861576000366003190112610861576007546040516001600160a01b039091168152602090f35b34610861576020366003190112610861576020610f2960043561215e565b3461086157602036600319011261086157600435600080516020612312833981519152548110156112885760009060008051602061231283398151915254811015611274576000805160206123128339815191529091527fa42f15e5d656f8155fd7419d740a6073999f19cd6e061449ce4a257150545bf20154604051908152602090f35b634e487b7160e01b82526032600452602482fd5b63295f44f760e21b600052600060045260245260446000fd5b3461086157602036600319011261086157600435600052600360205260406000206040518060208354918281520190819360005260206000209060005b81811061133757505050816112f4910382611909565b6040519182916020830190602084525180915260408301919060005b81811061131e575050500390f35b8251845285945060209384019390920191600101611310565b82548452602090930192600192830192016112de565b3461086157610f0961135e366118cf565b906040519261136e602085611909565b60008452611f98565b34610861576040366003190112610861576113906118a3565b6024359061139d81611db2565b8210156113dd5760018060a01b03166000526000805160206122d28339815191526020526040600020906000526020526020604060002054604051908152f35b63295f44f760e21b60005260018060a01b031660045260245260446000fd5b3461086157602036600319011261086157600435806000526001602052602060018060a01b03611430604060002054611df8565b1691602460405180948193631f27a4f360e11b835260048301525afa90811561086e57600091611489575b50600881101561147357602090600460405191148152f35b634e487b7160e01b600052602160045260246000fd5b6020813d6020116114c3575b816114a260209383611909565b810103126114bf57519060088210156114bc57508161145b565b80fd5b5080fd5b3d9150611495565b34610861576020366003190112610861576004356000526004602052602060ff60406000205416604051908152f35b3461086157610f0961150b366118cf565b916119b8565b346108615760203660031901126108615761152a6118a3565b6007546001600160a01b0316330361155e57600880546001600160a01b0319166001600160a01b0392909216919091179055005b60405162461bcd60e51b815260206004820152602160248201527f4f6e6c792061646d696e2063616e2073657420656c6f2063616c63756c61746f6044820152603960f91b6064820152608490fd5b3461086157600036600319011261086157602060008051602061231283398151915254604051908152f35b34610861576040366003190112610861576115f16118a3565b6024356115fd8161212d565b331515806116b7575b80611693575b61167e5781906001600160a01b0384811691167f8c5be1e5ebec7d5bd14f71427d1e84f3dd0314c0f7b2291e5b200ac8c7c3b925600080a460009081526000805160206123328339815191526020526040902080546001600160a01b0319166001600160a01b03909216919091179055005b63a9fbf51f60e01b6000523360045260246000fd5b5061169d81611d12565b336000908152602091909152604090205460ff161561160c565b506001600160a01b038116331415611606565b34610861576020366003190112610861576020610f296004356116ec8161212d565b50600090815260008051602061233283398151915260205260409020546001600160a01b031690565b346108615760003660031901126108615760405160006000805160206122f2833981519152546117448161197e565b80845290600181169081156110cb575060011461176b576109a88361099481850382611909565b6000805160206122f28339815191526000908152600080516020612392833981519152939250905b8082106117ab5750909150810160200161099461104f565b919260018160209254838588010152019101909291611793565b34610861576020366003190112610861576004359063ffffffff60e01b821680920361086157602091632483248360e11b8114908115611807575b5015158152f35b63780e9d6360e01b811491508115611821575b5083611800565b6380ac58cd60e01b811491508115611853575b8115611842575b508361181a565b6301ffc9a760e01b1490508361183b565b635b5e139f60e01b81149150611834565b919082518082526020808301940160005b828110611893575050600081602094950152601f8019910116010190565b8181015186820152602001611875565b600435906001600160a01b038216820361086157565b602435906001600160a01b038216820361086157565b6060906003190112610861576004356001600160a01b038116810361086157906024356001600160a01b0381168103610861579060443590565b90601f8019910116810190811067ffffffffffffffff8211176104f857604052565b67ffffffffffffffff81116104f857601f01601f191660200190565b9291926119538261192b565b916119616040519384611909565b829481845281830111610861578281602093846000960137010152565b90600182811c921680156119ae575b602083101461199857565b634e487b7160e01b600052602260045260246000fd5b91607f169161198d565b9091906001600160a01b0383168015610776576000906119d78461215e565b9133151580611c66575b506001600160a01b0383169586158015611c27575b6119ff82611d4b565b805460010190558683527f80bb2b638cc20bc4d0a60d66940f3ab4a00c1d7b313497ca82fb0b4ab00793026020526040832080546001600160a01b031916851790558684897fddf252ad1be2c89b69c2b068fc378daa952ba7f163c4a11628f55a4df523b3ef8680a415611b4757600080516020612312833981519152548683527f645e039705490088daad89bae25049a34f4a9072d398537b1ab2425f24cbed036020526040832055611ab2866120df565b828703611aec575b5050505060018060a01b0316808303611ad257505050565b6364283d7b60e01b60005260045260245260445260646000fd5b611af590611db2565b600019810192908311610642579060409181526000805160206122d283398151915260205281812083825260205285828220558581526000805160206122b28339815191526020522055388080611aba565b868314611ab257611b5784611db2565b8683526000805160206122b28339815191526020526040832054818103611bbf575b508683526000805160206122b28339815191526020528260408120558783526000805160206122d283398151915260205260408320908352602052816040812055611ab2565b8884526000805160206122d28339815191526020526040842082855260205260408420548985526000805160206122d28339815191526020526040852082865260205280604086205584526000805160206122b2833981519152602052604084205538611b79565b60008781526000805160206123328339815191526020526040902080546001600160a01b0319169055611c5985611d4b565b80546000190190556119f6565b80611caf575b15611c7757386119e1565b9250506001600160a01b0316611c9957602491637e27328960e01b8252600452fd5b60449163177e802f60e01b825233600452602452fd5b506001600160a01b03831633148015611cf5575b80611c6c5750600085815260008051602061233283398151915260205260409020546001600160a01b03163314611c6c565b50611cff83611d12565b338252602052604081205460ff16611cc3565b6001600160a01b031660009081527f80bb2b638cc20bc4d0a60d66940f3ab4a00c1d7b313497ca82fb0b4ab00793056020526040902090565b6001600160a01b031660009081527f80bb2b638cc20bc4d0a60d66940f3ab4a00c1d7b313497ca82fb0b4ab00793036020526040902090565b8054821015611d9c5760005260206000200190600090565b634e487b7160e01b600052603260045260246000fd5b6001600160a01b03811615611dce57611dca90611d4b565b5490565b6322718ad960e21b600052600060045260246000fd5b51906001600160a01b038216820361086157565b60008054604051635652386760e11b81526004810193909352829060249082906001600160a01b03165afa90811561086e57600091611e40575b50516001600160a01b031690565b903d8082843e611e508184611909565b8201916020818403126114bf5780519067ffffffffffffffff8211611f6857019160a0838203126114bf576040519260a0840184811067ffffffffffffffff821117611f8457604052611ea281611de4565b8452611eb060208201611de4565b6020850152611ec160408201611de4565b6040850152611ed260608201611de4565b606085015260808101519067ffffffffffffffff8211611f8057019080601f83011215611f685781519267ffffffffffffffff8411611f6c578360051b9260405194611f216020860187611909565b85526020808601948201019283116114bf57602001925b828410611f4e5750505050608082015238611e32565b835160ff81168103611f6857815260209384019301611f38565b8280fd5b634e487b7160e01b81526041600452602490fd5b8380fd5b634e487b7160e01b84526041600452602484fd5b9291611fa58183866119b8565b813b611fb2575b50505050565b604051630a85bd0160e11b81523360048201526001600160a01b0394851660248201526044810191909152608060648201529216919060209082908190611ffd906084830190611864565b03816000865af1809160009161209c575b509061206757503d15612060573d6120258161192b565b906120336040519283611909565b81523d6000602083013e5b8051908161205b5782633250574960e11b60005260045260246000fd5b602001fd5b606061203e565b6001600160e01b03191663757a42ff60e11b01612088575038808080611fac565b633250574960e11b60005260045260246000fd5b6020813d6020116120d7575b816120b560209383611909565b810103126114bf5751906001600160e01b0319821682036114bc57503861200e565b3d91506120a8565b6000805160206123128339815191525490600160401b8210156104f85761047982600161212b940160008051602061231283398151915255600080516020612312833981519152611d84565b565b6121368161215e565b906001600160a01b0382161561214a575090565b637e27328960e01b60005260045260246000fd5b60009081527f80bb2b638cc20bc4d0a60d66940f3ab4a00c1d7b313497ca82fb0b4ab007930260205260409020546001600160a01b031690565b6121a18161212d565b506000527f0542a41881ee128a365a727b282c86fa859579490b9bb45aab8503648c8e79006020526040600020604051908160008254926121e18461197e565b8084529360018116908115612261575060011461221a575b5061220692500382611909565b6000604051612216602082611909565b5290565b90506000929192526020600020906000915b81831061224557505090602061220692820101386121f9565b602091935080600191548385880101520191019091839261222c565b90506020925061220694915060ff191682840152151560051b820101386121f9565b60ff6000805160206123528339815191525460401c16156122a057565b631afcd79f60e31b60005260046000fdfe645e039705490088daad89bae25049a34f4a9072d398537b1ab2425f24cbed01645e039705490088daad89bae25049a34f4a9072d398537b1ab2425f24cbed0080bb2b638cc20bc4d0a60d66940f3ab4a00c1d7b313497ca82fb0b4ab0079300645e039705490088daad89bae25049a34f4a9072d398537b1ab2425f24cbed0280bb2b638cc20bc4d0a60d66940f3ab4a00c1d7b313497ca82fb0b4ab0079304f0c57e16840df040f15088dc2f81fe391c3923bec73e23a9662efc9c229c6a0080bb2b638cc20bc4d0a60d66940f3ab4a00c1d7b313497ca82fb0b4ab007930137c58c799b6609234b945e882912ee9ad34948a1dfaa20a97485e1a7752bbf81a2646970667358221220940fa31e35d5dcf67bf7d77432bf92aec79fc397a786b95c198568cb589d656c64736f6c634300081a0033","linkReferences":{}},"methodIdentifiers":{"approve(address,uint256)":"095ea7b3","balanceOf(address)":"70a08231","getAdmin()":"6e9960c3","getAgentDAO(uint256)":"aadc35e2","getApproved(uint256)":"081812fc","getChildren(uint256)":"49ae8dc3","getCore(uint256)":"252079b2","getDatasetId(uint256)":"c14b197a","getEloCalculator()":"c052bfb6","getParentId(uint256)":"dbdd0aab","initialize(address)":"c4d66de8","isAccepted(uint256)":"29bc3b85","isApprovedForAll(address,address)":"e985e9c5","isModel(uint256)":"8209c699","mint(address,uint256,uint8,string,uint256,uint256,bool,uint256)":"f031f730","modelContributions(uint256)":"a7612997","modelDatasets(uint256)":"ed1aa24c","name()":"06fdde03","ownerOf(uint256)":"6352211e","personaNft()":"dcf75bef","safeTransferFrom(address,address,uint256)":"42842e0e","safeTransferFrom(address,address,uint256,bytes)":"b88d4fde","setAdmin(address)":"704b6c02","setApprovalForAll(address,bool)":"a22cb465","setEloCalculator(address)":"1ca95e13","supportsInterface(bytes4)":"01ffc9a7","symbol()":"95d89b41","tokenByIndex(uint256)":"4f6ccce7","tokenOfOwnerByIndex(address,uint256)":"2f745c59","tokenURI(uint256)":"c87b56dd","tokenVirtualId(uint256)":"ccc16f69","totalSupply()":"18160ddd","transferFrom(address,address,uint256)":"23b872dd"},"id":5}