{"abi":[{"type":"function","name":"DEFAULT_ADMIN_ROLE","inputs":[],"outputs":[{"name":"","type":"bytes32","internalType":"bytes32"}],"stateMutability":"view"},{"type":"function","name":"TOKEN_SAVER_ROLE","inputs":[],"outputs":[{"name":"","type":"bytes32","internalType":"bytes32"}],"stateMutability":"view"},{"type":"function","name":"getRoleAdmin","inputs":[{"name":"role","type":"bytes32","internalType":"bytes32"}],"outputs":[{"name":"","type":"bytes32","internalType":"bytes32"}],"stateMutability":"view"},{"type":"function","name":"grantRole","inputs":[{"name":"role","type":"bytes32","internalType":"bytes32"},{"name":"account","type":"address","internalType":"address"}],"outputs":[],"stateMutability":"nonpayable"},{"type":"function","name":"hasRole","inputs":[{"name":"role","type":"bytes32","internalType":"bytes32"},{"name":"account","type":"address","internalType":"address"}],"outputs":[{"name":"","type":"bool","internalType":"bool"}],"stateMutability":"view"},{"type":"function","name":"renounceRole","inputs":[{"name":"role","type":"bytes32","internalType":"bytes32"},{"name":"callerConfirmation","type":"address","internalType":"address"}],"outputs":[],"stateMutability":"nonpayable"},{"type":"function","name":"revokeRole","inputs":[{"name":"role","type":"bytes32","internalType":"bytes32"},{"name":"account","type":"address","internalType":"address"}],"outputs":[],"stateMutability":"nonpayable"},{"type":"function","name":"saveToken","inputs":[{"name":"_token","type":"address","internalType":"address"},{"name":"_receiver","type":"address","internalType":"address"},{"name":"_amount","type":"uint256","internalType":"uint256"}],"outputs":[],"stateMutability":"nonpayable"},{"type":"function","name":"supportsInterface","inputs":[{"name":"interfaceId","type":"bytes4","internalType":"bytes4"}],"outputs":[{"name":"","type":"bool","internalType":"bool"}],"stateMutability":"view"},{"type":"event","name":"RoleAdminChanged","inputs":[{"name":"role","type":"bytes32","indexed":true,"internalType":"bytes32"},{"name":"previousAdminRole","type":"bytes32","indexed":true,"internalType":"bytes32"},{"name":"newAdminRole","type":"bytes32","indexed":true,"internalType":"bytes32"}],"anonymous":false},{"type":"event","name":"RoleGranted","inputs":[{"name":"role","type":"bytes32","indexed":true,"internalType":"bytes32"},{"name":"account","type":"address","indexed":true,"internalType":"address"},{"name":"sender","type":"address","indexed":true,"internalType":"address"}],"anonymous":false},{"type":"event","name":"RoleRevoked","inputs":[{"name":"role","type":"bytes32","indexed":true,"internalType":"bytes32"},{"name":"account","type":"address","indexed":true,"internalType":"address"},{"name":"sender","type":"address","indexed":true,"internalType":"address"}],"anonymous":false},{"type":"event","name":"TokenSaved","inputs":[{"name":"by","type":"address","indexed":true,"internalType":"address"},{"name":"receiver","type":"address","indexed":true,"internalType":"address"},{"name":"token","type":"address","indexed":true,"internalType":"address"},{"name":"amount","type":"uint256","indexed":false,"internalType":"uint256"}],"anonymous":false},{"type":"error","name":"AccessControlBadConfirmation","inputs":[]},{"type":"error","name":"AccessControlUnauthorizedAccount","inputs":[{"name":"account","type":"address","internalType":"address"},{"name":"neededRole","type":"bytes32","internalType":"bytes32"}]},{"type":"error","name":"AddressEmptyCode","inputs":[{"name":"target","type":"address","internalType":"address"}]},{"type":"error","name":"AddressInsufficientBalance","inputs":[{"name":"account","type":"address","internalType":"address"}]},{"type":"error","name":"FailedInnerCall","inputs":[]},{"type":"error","name":"SafeERC20FailedOperation","inputs":[{"name":"token","type":"address","internalType":"address"}]}],"bytecode":{"object":"0x60808060405234601557610679908161001b8239f35b600080fdfe608080604052600436101561001357600080fd5b60003560e01c90816301ffc9a71461040f57508063248a9ca3146103da5780632f2ff15d1461039a57806336568abe1461035457806376175b061461031957806391d14854146102cc5780639afdb2c2146100ea578063a217fddf146100ce5763d547741f1461008257600080fd5b346100c95760403660031901126100c9576100c76004356100a1610462565b906100c26100bd82600052600060205260016040600020015490565b610478565b61053e565b005b600080fd5b346100c95760003660031901126100c957602060405160008152f35b346100c95760603660031901126100c9576004356001600160a01b038116908190036100c957610118610462565b3360009081527fd6258023de8dfbb5912550ba7b6613517bf13c442784ee5998ddac4edb10529a60205260409020546044359060ff16156102725760008060405193602085019063a9059cbb60e01b825260018060a01b0316948560248201528460448201526044815261018d6064826105c0565b519082875af13d15610266573d67ffffffffffffffff8111610250576101d691604051916101c56020601f19601f84011601846105c0565b82523d6000602084013e5b856105e2565b805190811515918261022c575b5050610217576040519081527f30d87cec6b4c56cede1018725d1e6d9304e2f7ee6d25b004b7e2183f793f26bc60203392a4005b82635274afe760e01b60005260045260246000fd5b81925090602091810103126100c957602001518015908115036100c95784806101e3565b634e487b7160e01b600052604160045260246000fd5b6101d6906060906101d0565b60405162461bcd60e51b815260206004820152602c60248201527f546f6b656e53617665722e6f6e6c79546f6b656e53617665723a207065726d6960448201526b1cdcda5bdb8819195b9a595960a21b6064820152608490fd5b346100c95760403660031901126100c9576102e5610462565b600435600052600060205260406000209060018060a01b0316600052602052602060ff604060002054166040519015158152f35b346100c95760003660031901126100c95760206040517fd9d917c4034cff8a8c5fa1e40f9fbaf906b827c33ae3ab1fcabbb616cb8ef24d8152f35b346100c95760403660031901126100c95761036d610462565b336001600160a01b03821603610389576100c79060043561053e565b63334bd91960e11b60005260046000fd5b346100c95760403660031901126100c9576100c76004356103b9610462565b906103d56100bd82600052600060205260016040600020015490565b6104b3565b346100c95760203660031901126100c9576020610407600435600052600060205260016040600020015490565b604051908152f35b346100c95760203660031901126100c9576004359063ffffffff60e01b82168092036100c957602091637965db0b60e01b8114908115610451575b5015158152f35b6301ffc9a760e01b1490508361044a565b602435906001600160a01b03821682036100c957565b60008181526020818152604080832033845290915290205460ff161561049b5750565b63e2517d3f60e01b6000523360045260245260446000fd5b6000818152602081815260408083206001600160a01b038616845290915290205460ff16610537576000818152602081815260408083206001600160a01b0395909516808452949091528120805460ff19166001179055339291907f2f8788117e7eff1d82e926ec794901d17c78024a50270940304540a733656f0d9080a4600190565b5050600090565b6000818152602081815260408083206001600160a01b038616845290915290205460ff1615610537576000818152602081815260408083206001600160a01b0395909516808452949091528120805460ff19169055339291907ff6391f5c32d9c69d2a47ea670b442974b53935d1edc7fd64eb21e047a839171b9080a4600190565b90601f8019910116810190811067ffffffffffffffff82111761025057604052565b9061060857508051156105f757805190602001fd5b630a12f52160e11b60005260046000fd5b8151158061063a575b610619575090565b639996b31560e01b60009081526001600160a01b0391909116600452602490fd5b50803b1561061156fea2646970667358221220ea6e0cf52fe4da942f9c57ae46cf30f1c402782f0d8818fb58f9a19aea62e29e64736f6c634300081a0033","linkReferences":{}},"methodIdentifiers":{"DEFAULT_ADMIN_ROLE()":"a217fddf","TOKEN_SAVER_ROLE()":"76175b06","getRoleAdmin(bytes32)":"248a9ca3","grantRole(bytes32,address)":"2f2ff15d","hasRole(bytes32,address)":"91d14854","renounceRole(bytes32,address)":"36568abe","revokeRole(bytes32,address)":"d547741f","saveToken(address,address,uint256)":"9afdb2c2","supportsInterface(bytes4)":"01ffc9a7"},"id":40}