{"abi":[{"type":"function","name":"initialize","inputs":[{"name":"_name","type":"string","internalType":"string"},{"name":"_token","type":"address","internalType":"contract IVotes"},{"name":"_nft","type":"address","internalType":"address"},{"name":"_proposalThreshold","type":"uint256","internalType":"uint256"},{"name":"_votingPeriod","type":"uint32","internalType":"uint32"}],"outputs":[],"stateMutability":"nonpayable"},{"type":"function","name":"name","inputs":[],"outputs":[{"name":"","type":"string","internalType":"string"}],"stateMutability":"view"},{"type":"function","name":"nft","inputs":[],"outputs":[{"name":"","type":"address","internalType":"address"}],"stateMutability":"view"},{"type":"function","name":"proposalThreshold","inputs":[],"outputs":[{"name":"","type":"uint256","internalType":"uint256"}],"stateMutability":"view"},{"type":"function","name":"token","inputs":[],"outputs":[{"name":"","type":"address","internalType":"contract IVotes"}],"stateMutability":"view"},{"type":"function","name":"votingPeriod","inputs":[],"outputs":[{"name":"","type":"uint32","internalType":"uint32"}],"stateMutability":"view"}],"bytecode":{"object":"0x60808060405234601557610501908161001b8239f35b600080fdfe608080604052600436101561001357600080fd5b60003560e01c90816302a251a31461042e5750806306fdde031461032c57806347ccca0214610303578063718f7cd4146100ad578063b58131b01461008f5763fc0c546a1461006157600080fd5b3461008a57600036600319011261008a576001546040516001600160a01b039091168152602090f35b600080fd5b3461008a57600036600319011261008a576020600354604051908152f35b3461008a5760a036600319011261008a5760043567ffffffffffffffff811161008a573660238201121561008a57806004013567ffffffffffffffff81116102ed5760405191610107601f8301601f191660200184610489565b818352366024838301011161008a578160009260246020930183860137830101526024356001600160a01b0381169081900361008a576044356001600160a01b0381169081900361008a576084359163ffffffff831680930361008a57835167ffffffffffffffff81116102ed5761018060005461044f565b601f8111610281575b50602094601f821160011461021057948192939495600092610205575b50508160011b916000199060031b1c1916176000555b6bffffffffffffffffffffffff60a01b60015416176001556bffffffffffffffffffffffff60a01b600254161760025560643560035563ffffffff196004541617600455600080f35b0151905085806101a6565b601f19821695600080526000805160206104ac8339815191529160005b88811061026957508360019596979810610250575b505050811b016000556101bc565b015160001960f88460031b161c19169055858080610242565b9192602060018192868501518155019401920161022d565b60008052601f820160051c6000805160206104ac8339815191520190602083106102d7575b601f0160051c6000805160206104ac83398151915201905b8181106102cb5750610189565b600081556001016102be565b6000805160206104ac83398151915291506102a6565b634e487b7160e01b600052604160045260246000fd5b3461008a57600036600319011261008a576002546040516001600160a01b039091168152602090f35b3461008a57600036600319011261008a57604051600081600054916103508361044f565b808352926001811690811561040f57506001146103c3575b61037492500382610489565b60405190602082528181519182602083015260005b8381106103ab5750508160006040809484010152601f80199101168101030190f35b60208282018101516040878401015285935001610389565b50600080805290916000805160206104ac8339815191525b8183106103f357505090602061037492820101610368565b60209193508060019154838588010152019101909183926103db565b6020925061037494915060ff191682840152151560051b820101610368565b3461008a57600036600319011261008a5760209063ffffffff600454168152f35b90600182811c9216801561047f575b602083101461046957565b634e487b7160e01b600052602260045260246000fd5b91607f169161045e565b90601f8019910116810190811067ffffffffffffffff8211176102ed5760405256fe290decd9548b62a8d60345a988386fc84ba6bc95484008f6362f93160ef3e563a2646970667358221220ad4bd3669141fc9cc5eb2c5eab7c731a98aba690dc4a95e46ac3f226870dd2f964736f6c634300081a0033","linkReferences":{}},"methodIdentifiers":{"initialize(string,address,address,uint256,uint32)":"718f7cd4","name()":"06fdde03","nft()":"47ccca02","proposalThreshold()":"b58131b0","token()":"fc0c546a","votingPeriod()":"02a251a3"},"id":6}