{"abi":[{"type":"constructor","inputs":[],"stateMutability":"nonpayable"},{"type":"function","name":"BONDING_ROLE","inputs":[],"outputs":[{"name":"","type":"bytes32","internalType":"bytes32"}],"stateMutability":"view"},{"type":"function","name":"DEFAULT_ADMIN_ROLE","inputs":[],"outputs":[{"name":"","type":"bytes32","internalType":"bytes32"}],"stateMutability":"view"},{"type":"function","name":"WITHDRAW_ROLE","inputs":[],"outputs":[{"name":"","type":"bytes32","internalType":"bytes32"}],"stateMutability":"view"},{"type":"function","name":"allDAOs","inputs":[{"name":"","type":"uint256","internalType":"uint256"}],"outputs":[{"name":"","type":"address","internalType":"address"}],"stateMutability":"view"},{"type":"function","name":"allTokens","inputs":[{"name":"","type":"uint256","internalType":"uint256"}],"outputs":[{"name":"","type":"address","internalType":"address"}],"stateMutability":"view"},{"type":"function","name":"allTradingTokens","inputs":[{"name":"","type":"uint256","internalType":"uint256"}],"outputs":[{"name":"","type":"address","internalType":"address"}],"stateMutability":"view"},{"type":"function","name":"applicationThreshold","inputs":[],"outputs":[{"name":"","type":"uint256","internalType":"uint256"}],"stateMutability":"view"},{"type":"function","name":"assetToken","inputs":[],"outputs":[{"name":"","type":"address","internalType":"address"}],"stateMutability":"view"},{"type":"function","name":"daoImplementation","inputs":[],"outputs":[{"name":"","type":"address","internalType":"address"}],"stateMutability":"view"},{"type":"function","name":"defaultDelegatee","inputs":[],"outputs":[{"name":"","type":"address","internalType":"address"}],"stateMutability":"view"},{"type":"function","name":"executeApplication","inputs":[{"name":"id","type":"uint256","internalType":"uint256"},{"name":"canStake","type":"bool","internalType":"bool"}],"outputs":[],"stateMutability":"nonpayable"},{"type":"function","name":"executeBondingCurveApplication","inputs":[{"name":"id","type":"uint256","internalType":"uint256"},{"name":"totalSupply","type":"uint256","internalType":"uint256"},{"name":"lpSupply","type":"uint256","internalType":"uint256"},{"name":"vault","type":"address","internalType":"address"}],"outputs":[{"name":"","type":"address","internalType":"address"}],"stateMutability":"nonpayable"},{"type":"function","name":"getApplication","inputs":[{"name":"proposalId","type":"uint256","internalType":"uint256"}],"outputs":[{"name":"","type":"tuple","internalType":"struct AgentFactoryV3.Application","components":[{"name":"name","type":"string","internalType":"string"},{"name":"symbol","type":"string","internalType":"string"},{"name":"tokenURI","type":"string","internalType":"string"},{"name":"status","type":"uint8","internalType":"enum AgentFactoryV3.ApplicationStatus"},{"name":"withdrawableAmount","type":"uint256","internalType":"uint256"},{"name":"proposer","type":"address","internalType":"address"},{"name":"cores","type":"uint8[]","internalType":"uint8[]"},{"name":"proposalEndBlock","type":"uint256","internalType":"uint256"},{"name":"virtualId","type":"uint256","internalType":"uint256"},{"name":"tbaSalt","type":"bytes32","internalType":"bytes32"},{"name":"tbaImplementation","type":"address","internalType":"address"},{"name":"daoVotingPeriod","type":"uint32","internalType":"uint32"},{"name":"daoThreshold","type":"uint256","internalType":"uint256"}]}],"stateMutability":"view"},{"type":"function","name":"getRoleAdmin","inputs":[{"name":"role","type":"bytes32","internalType":"bytes32"}],"outputs":[{"name":"","type":"bytes32","internalType":"bytes32"}],"stateMutability":"view"},{"type":"function","name":"gov","inputs":[],"outputs":[{"name":"","type":"address","internalType":"address"}],"stateMutability":"view"},{"type":"function","name":"grantRole","inputs":[{"name":"role","type":"bytes32","internalType":"bytes32"},{"name":"account","type":"address","internalType":"address"}],"outputs":[],"stateMutability":"nonpayable"},{"type":"function","name":"hasRole","inputs":[{"name":"role","type":"bytes32","internalType":"bytes32"},{"name":"account","type":"address","internalType":"address"}],"outputs":[{"name":"","type":"bool","internalType":"bool"}],"stateMutability":"view"},{"type":"function","name":"initFromBondingCurve","inputs":[{"name":"name","type":"string","internalType":"string"},{"name":"symbol","type":"string","internalType":"string"},{"name":"cores","type":"uint8[]","internalType":"uint8[]"},{"name":"tbaSalt","type":"bytes32","internalType":"bytes32"},{"name":"tbaImplementation","type":"address","internalType":"address"},{"name":"daoVotingPeriod","type":"uint32","internalType":"uint32"},{"name":"daoThreshold","type":"uint256","internalType":"uint256"},{"name":"applicationThreshold_","type":"uint256","internalType":"uint256"},{"name":"creator","type":"address","internalType":"address"}],"outputs":[{"name":"","type":"uint256","internalType":"uint256"}],"stateMutability":"nonpayable"},{"type":"function","name":"initialize","inputs":[{"name":"tokenImplementation_","type":"address","internalType":"address"},{"name":"veTokenImplementation_","type":"address","internalType":"address"},{"name":"daoImplementation_","type":"address","internalType":"address"},{"name":"tbaRegistry_","type":"address","internalType":"address"},{"name":"assetToken_","type":"address","internalType":"address"},{"name":"nft_","type":"address","internalType":"address"},{"name":"applicationThreshold_","type":"uint256","internalType":"uint256"},{"name":"vault_","type":"address","internalType":"address"},{"name":"nextId_","type":"uint256","internalType":"uint256"}],"outputs":[],"stateMutability":"nonpayable"},{"type":"function","name":"maturityDuration","inputs":[],"outputs":[{"name":"","type":"uint256","internalType":"uint256"}],"stateMutability":"view"},{"type":"function","name":"nft","inputs":[],"outputs":[{"name":"","type":"address","internalType":"address"}],"stateMutability":"view"},{"type":"function","name":"pause","inputs":[],"outputs":[],"stateMutability":"nonpayable"},{"type":"function","name":"paused","inputs":[],"outputs":[{"name":"","type":"bool","internalType":"bool"}],"stateMutability":"view"},{"type":"function","name":"proposeAgent","inputs":[{"name":"name","type":"string","internalType":"string"},{"name":"symbol","type":"string","internalType":"string"},{"name":"tokenURI","type":"string","internalType":"string"},{"name":"cores","type":"uint8[]","internalType":"uint8[]"},{"name":"tbaSalt","type":"bytes32","internalType":"bytes32"},{"name":"tbaImplementation","type":"address","internalType":"address"},{"name":"daoVotingPeriod","type":"uint32","internalType":"uint32"},{"name":"daoThreshold","type":"uint256","internalType":"uint256"}],"outputs":[{"name":"","type":"uint256","internalType":"uint256"}],"stateMutability":"nonpayable"},{"type":"function","name":"renounceRole","inputs":[{"name":"role","type":"bytes32","internalType":"bytes32"},{"name":"callerConfirmation","type":"address","internalType":"address"}],"outputs":[],"stateMutability":"nonpayable"},{"type":"function","name":"revokeRole","inputs":[{"name":"role","type":"bytes32","internalType":"bytes32"},{"name":"account","type":"address","internalType":"address"}],"outputs":[],"stateMutability":"nonpayable"},{"type":"function","name":"setApplicationThreshold","inputs":[{"name":"newThreshold","type":"uint256","internalType":"uint256"}],"outputs":[],"stateMutability":"nonpayable"},{"type":"function","name":"setAssetToken","inputs":[{"name":"newToken","type":"address","internalType":"address"}],"outputs":[],"stateMutability":"nonpayable"},{"type":"function","name":"setDefaultDelegatee","inputs":[{"name":"newDelegatee","type":"address","internalType":"address"}],"outputs":[],"stateMutability":"nonpayable"},{"type":"function","name":"setImplementations","inputs":[{"name":"token","type":"address","internalType":"address"},{"name":"veToken","type":"address","internalType":"address"},{"name":"dao","type":"address","internalType":"address"}],"outputs":[],"stateMutability":"nonpayable"},{"type":"function","name":"setMaturityDuration","inputs":[{"name":"newDuration","type":"uint256","internalType":"uint256"}],"outputs":[],"stateMutability":"nonpayable"},{"type":"function","name":"setTokenAdmin","inputs":[{"name":"newTokenAdmin","type":"address","internalType":"address"}],"outputs":[],"stateMutability":"nonpayable"},{"type":"function","name":"setTokenSupplyParams","inputs":[{"name":"maxSupply","type":"uint256","internalType":"uint256"},{"name":"lpSupply","type":"uint256","internalType":"uint256"},{"name":"vaultSupply","type":"uint256","internalType":"uint256"},{"name":"maxTokensPerWallet","type":"uint256","internalType":"uint256"},{"name":"maxTokensPerTxn","type":"uint256","internalType":"uint256"},{"name":"botProtectionDurationInSeconds","type":"uint256","internalType":"uint256"},{"name":"vault","type":"address","internalType":"address"}],"outputs":[],"stateMutability":"nonpayable"},{"type":"function","name":"setTokenTaxParams","inputs":[{"name":"projectBuyTaxBasisPoints","type":"uint256","internalType":"uint256"},{"name":"projectSellTaxBasisPoints","type":"uint256","internalType":"uint256"},{"name":"taxSwapThresholdBasisPoints","type":"uint256","internalType":"uint256"},{"name":"projectTaxRecipient","type":"address","internalType":"address"}],"outputs":[],"stateMutability":"nonpayable"},{"type":"function","name":"setUniswapRouter","inputs":[{"name":"router","type":"address","internalType":"address"}],"outputs":[],"stateMutability":"nonpayable"},{"type":"function","name":"setVault","inputs":[{"name":"newVault","type":"address","internalType":"address"}],"outputs":[],"stateMutability":"nonpayable"},{"type":"function","name":"supportsInterface","inputs":[{"name":"interfaceId","type":"bytes4","internalType":"bytes4"}],"outputs":[{"name":"","type":"bool","internalType":"bool"}],"stateMutability":"view"},{"type":"function","name":"tbaRegistry","inputs":[],"outputs":[{"name":"","type":"address","internalType":"address"}],"stateMutability":"view"},{"type":"function","name":"tokenImplementation","inputs":[],"outputs":[{"name":"","type":"address","internalType":"address"}],"stateMutability":"view"},{"type":"function","name":"totalAgents","inputs":[],"outputs":[{"name":"","type":"uint256","internalType":"uint256"}],"stateMutability":"view"},{"type":"function","name":"unpause","inputs":[],"outputs":[],"stateMutability":"nonpayable"},{"type":"function","name":"veTokenImplementation","inputs":[],"outputs":[{"name":"","type":"address","internalType":"address"}],"stateMutability":"view"},{"type":"function","name":"withdraw","inputs":[{"name":"id","type":"uint256","internalType":"uint256"}],"outputs":[],"stateMutability":"nonpayable"},{"type":"event","name":"ApplicationThresholdUpdated","inputs":[{"name":"newThreshold","type":"uint256","indexed":false,"internalType":"uint256"}],"anonymous":false},{"type":"event","name":"GovUpdated","inputs":[{"name":"newGov","type":"address","indexed":false,"internalType":"address"}],"anonymous":false},{"type":"event","name":"ImplContractsUpdated","inputs":[{"name":"token","type":"address","indexed":false,"internalType":"address"},{"name":"dao","type":"address","indexed":false,"internalType":"address"}],"anonymous":false},{"type":"event","name":"Initialized","inputs":[{"name":"version","type":"uint64","indexed":false,"internalType":"uint64"}],"anonymous":false},{"type":"event","name":"NewApplication","inputs":[{"name":"id","type":"uint256","indexed":false,"internalType":"uint256"}],"anonymous":false},{"type":"event","name":"NewPersona","inputs":[{"name":"virtualId","type":"uint256","indexed":false,"internalType":"uint256"},{"name":"token","type":"address","indexed":false,"internalType":"address"},{"name":"dao","type":"address","indexed":false,"internalType":"address"},{"name":"tba","type":"address","indexed":false,"internalType":"address"},{"name":"veToken","type":"address","indexed":false,"internalType":"address"},{"name":"lp","type":"address","indexed":false,"internalType":"address"}],"anonymous":false},{"type":"event","name":"Paused","inputs":[{"name":"account","type":"address","indexed":false,"internalType":"address"}],"anonymous":false},{"type":"event","name":"RoleAdminChanged","inputs":[{"name":"role","type":"bytes32","indexed":true,"internalType":"bytes32"},{"name":"previousAdminRole","type":"bytes32","indexed":true,"internalType":"bytes32"},{"name":"newAdminRole","type":"bytes32","indexed":true,"internalType":"bytes32"}],"anonymous":false},{"type":"event","name":"RoleGranted","inputs":[{"name":"role","type":"bytes32","indexed":true,"internalType":"bytes32"},{"name":"account","type":"address","indexed":true,"internalType":"address"},{"name":"sender","type":"address","indexed":true,"internalType":"address"}],"anonymous":false},{"type":"event","name":"RoleRevoked","inputs":[{"name":"role","type":"bytes32","indexed":true,"internalType":"bytes32"},{"name":"account","type":"address","indexed":true,"internalType":"address"},{"name":"sender","type":"address","indexed":true,"internalType":"address"}],"anonymous":false},{"type":"event","name":"Unpaused","inputs":[{"name":"account","type":"address","indexed":false,"internalType":"address"}],"anonymous":false},{"type":"error","name":"AccessControlBadConfirmation","inputs":[]},{"type":"error","name":"AccessControlUnauthorizedAccount","inputs":[{"name":"account","type":"address","internalType":"address"},{"name":"neededRole","type":"bytes32","internalType":"bytes32"}]},{"type":"error","name":"AddressEmptyCode","inputs":[{"name":"target","type":"address","internalType":"address"}]},{"type":"error","name":"AddressInsufficientBalance","inputs":[{"name":"account","type":"address","internalType":"address"}]},{"type":"error","name":"ERC1167FailedCreateClone","inputs":[]},{"type":"error","name":"EnforcedPause","inputs":[]},{"type":"error","name":"ExpectedPause","inputs":[]},{"type":"error","name":"FailedInnerCall","inputs":[]},{"type":"error","name":"InvalidInitialization","inputs":[]},{"type":"error","name":"NotInitializing","inputs":[]},{"type":"error","name":"SafeERC20FailedOperation","inputs":[{"name":"token","type":"address","internalType":"address"}]}],"bytecode":{"object":"0x6080806040523460d2577ff0c57e16840df040f15088dc2f81fe391c3923bec73e23a9662efc9c229c6a005460ff8160401c1660c1576002600160401b03196001600160401b03821601605c575b604051615b9490816100d88239f35b6001600160401b0319166001600160401b039081177ff0c57e16840df040f15088dc2f81fe391c3923bec73e23a9662efc9c229c6a005581527fc7f505b2f371ae2175ee4913f4499e1f2633a7b5936321eed1cdaeb6115181d290602090a13880604d565b63f92ee8a960e01b60005260046000fd5b600080fdfe608080604052600436101561001357600080fd5b600090813560e01c90816301ffc9a714614e9857508063063513b714614e7a5780630c4cb55c14614e515780630f07646a14614bd25780631083f76114614ba957806312d43a5114614b805780631f2f4bfd1461434857806323c3159614612cb5578063248a9ca314612c7f57806326bde5aa14612c3f5780632a7d4a1f14612a9f5780632e1a7d4d146129465780632f2ff15d146129055780632f3a3d5d146128dc5780633094afb3146128a157806336568abe1461285c5780633f4ba83a146127da5780633fa2da7e146120f5578063468d198d146120cc57806347ccca02146120a35780635c975abb146120735780635ca3cedf14611ee3578063634282af14611e765780636817031b14611e365780638456cb5914611dc157806391d1485414611d765780639300d23814611d015780639cbe0bac14611cd85780639d69932614611caf5780639d7b684214611c6f5780639e4ec30a14611582578063a217fddf14611566578063aa3d000a1461049c578063b4136bd81461042f578063bd1cf258146103e1578063bea9849e146103a1578063c505371214610383578063d547741f14610339578063d739ac2914610316578063ddf44275146102f8578063e02023a1146102bd578063e887b1cc1461023c5763f7457594146101fa57600080fd5b3461023957602036600319011261023957610213614eed565b61021b6156c6565b60018060a01b03166001600160601b0360a01b601254161760125580f35b80fd5b50346102395760203660031901126102395760043590600e5482101561023957600e548210156102a957600e81527fbb7b4a454dc3493923482f07822329ed19e8244eff582cc204f8554c3620c3fd9091015460405160039290921b1c6001600160a01b03168152602090f35b634e487b7160e01b81526032600452602490fd5b503461023957806003193601126102395760206040517f5d8e12c39142ff96d79d04d15d1ba1269e4fe57bb9d26f43523628b34ba108ec8152f35b50346102395780600319360112610239576020600654604051908152f35b5034610239576020366003190112610239576103306156c6565b600435600a5580f35b50346102395760403660031901126102395761037f600435610359614f03565b9061037a61037582600052600060205260016040600020015490565b615719565b61581a565b5080f35b50346102395780600319360112610239576020600754604051908152f35b5034610239576020366003190112610239576103bb614eed565b6103c36156c6565b60018060a01b03166001600160601b0360a01b600f541617600f5580f35b5034610239576020366003190112610239577fcfa33021ab0175831433b2f3bd8eeb24a22f5ae53ca0e660a246811754f9e34a60206004356104216156c6565b80600655604051908152a180f35b50346102395760203660031901126102395760043590600854821015610239576008548210156102a957600881527ff3f7a9fe364faab93b216da50a3214154f22a0a2b415b23a84c8169e8b636ee39091015460405160039290921b1c6001600160a01b03168152602090f35b50346102395760403660031901126102395760043560243590811515809203610dde57600d546104d260ff8260a01c16156152c7565b60ff60a01b1916600160a01b17600d55808352600b6020526040832060050154336001600160a01b0391909116148015611525575b6105109061536b565b6040519083826014549161052383615147565b808352926001811690811561150657506001146114a8575b61054792500383615017565b808452600b60205260ff60036040862001541660038110156114945761056d90156153a6565b6012546001600160a01b031615611459578352600b60205260408320906004820192848454945560038301600160ff198254161790556001830190604051946105c1866105ba8188615222565b0387615017565b6040516105d9816105d28187615222565b0382615017565b6002546105ee906001600160a01b0316615a56565b9461064f61066f60018060a01b038816996106616040519561060f87614ffc565b6012546001600160a01b039081168852600f5481166020808a01919091526009549091166040808a01919091528051918201529485936060850190614f5b565b838103601f1901604085015290614f5b565b03601f198101835282615017565b883b1561141257604051634258efa960e11b81528a939092919084600485015b6003821061143657505050826106dc6106cb86946106b9849560c0606487015260c4860190614f5b565b84810360031901608486015290614f5b565b8281036003190160a4840152615181565b0381838c5af18015610d4257611421575b50506106f884615938565b60405163d6efd7c360e01b815287816004818a5afa908115611416578891611376575b5080511561136257602001516009546001600160a01b039182169561074393929091166157da565b843b1561135e57604051631672aef960e21b815230600482015286908181602481838b5af18015610d4257611349575b50506107c9906107d76040519366029ba30b5b2b2160cd1b60208601526107af856107a1602782018a615754565b03601f198101875286615017565b604051938491607360f81b60208401526021830190615754565b03601f198101845283615017565b60058501805460105491936001600160a01b0391821693909290916107fc9116615a56565b9260018060a01b03841695600a54420191824211611335576004548c95946001600160a01b0390911693929190893b15610d3e57869461085c9461086e604051988997889763b2193b4d60e01b895260e060048a015260e4890190614f5b565b87810360031901602489015290614f5b565b9360448601528c6064860152608485015260a484015260c4830152038183895af18015610d4257611320575b50506108a59061597d565b604051946108d56004876108bc6020820189615754565b632044414f60e01b815203601b19810189520187615017565b600a85019163ffffffff835460a01c169688600b8801546108ff60018060a01b0360035416615a56565b6004546001600160a01b038083169c9295929116908c3b1561131c5761094a8580948f938d9060405198899788968795631c63df3560e21b875260a0600488015260a4870190614f5b565b93602486015260448501526064840152608483015203925af18015610d4257611303575b50506109799061599e565b60018060a01b03600454169560405196632fd77c0d60e11b8852602088600481845afa9788156112f8578a986112c4575b50600d548354604051631f889aa560e11b8152600481018b90526001600160a01b03928316602482015261010060448201528c9594939092909160068501918b918e91166109ff610104870160028901615222565b91606487015260848601526003198582030160a4860152602083549182815201928852602088209088915b81601f8401106111125786946020969486948c9486945491818110611100575b8181106110ea575b8181106110d4575b8181106110be575b8181106110aa575b818110611094575b81811061107e575b818110611068575b818110611052575b81811061103c575b818110611026575b818110611010575b818110610ffa575b818110610fe4575b818110610fce575b818110610fb8575b818110610fa2575b818110610f8c575b818110610f76575b818110610f60575b818110610f4a575b818110610f34575b818110610f1e575b818110610f08575b818110610ef2575b818110610edc575b818110610ec6575b818110610eb0575b818110610e9a575b818110610e84575b818110610e6e575b10610e5f575b5060c48301528b60e483015203925af18015610e5457610e1e575b5060088101889055600554945460099091015460048054604051638a54c52f60e01b81526001600160a01b0394851692810192909252602482019290925246604482015290821660648201526084810189905294602091869160a49183918791165af1938415610d42578294610de2575b506004546001600160a01b031693843b15610dde5782809160446040518094819363190b373360e31b83528d600484015260018060a01b0316998a60248401525af1908115610d8d578391610dc5575b505060405163095ea7b360e01b8152600481018690526000196024820152602081604481868b5af18015610d8d57610d98575b506040516370a0823160e01b8152306004820152906020826024818a5afa918215610d8d578392610d51575b50546013546001600160a01b039081169116863b15610d4d576040519263a7d545db60e01b8452600484015260248301526044820152818160648183895af18015610d4257610d1f575b50937ff9d151d23a5253296eb20ab40959cf48828ea2732d337416716e302ed83ca6589360c093888894604051958652602086015260408501526060840152608083015260a0820152a1600d805460ff60a01b1916905580f35b81610d2f91979695949397615017565b610d3e57909192938638610cc5565b8680fd5b6040513d84823e3d90fd5b8380fd5b925090506020823d602011610d85575b81610d6e60209383615017565b81010312610d80578891519038610c7b565b600080fd5b3d9150610d61565b6040513d85823e3d90fd5b610db99060203d602011610dbe575b610db18183615017565b8101906157c2565b610c4f565b503d610da7565b81610dcf91615017565b610dda578138610c1c565b5080fd5b8280fd5b9093506020813d602011610e16575b81610dfe60209383615017565b81010312610dda57610e0f90615304565b9238610bcc565b3d9150610df1565b9092506020813d602011610e4c575b81610e3a60209383615017565b81010312610d80575088916020610b5b565b3d9150610e2d565b6040513d86823e3d90fd5b60f81c82529087019038610b40565b938a60019160ff8560f01c168152019401610b3a565b938a60019160ff8560e81c168152019401610b32565b938a60019160ff8560e01c168152019401610b2a565b938a60019160ff8560d81c168152019401610b22565b938a60019160ff8560d01c168152019401610b1a565b938a60019160ff8560c81c168152019401610b12565b938a60019160ff8560c01c168152019401610b0a565b938a60019160ff8560b81c168152019401610b02565b938a60019160ff8560b01c168152019401610afa565b938a60019160ff8560a81c168152019401610af2565b938a60019160ff8560a01c168152019401610aea565b938a60019160ff8560981c168152019401610ae2565b938a60019160ff8560901c168152019401610ada565b938a60019160ff8560881c168152019401610ad2565b938a60019160ff8560801c168152019401610aca565b938a60019160ff8560781c168152019401610ac2565b938a60019160ff8560701c168152019401610aba565b938a60019160ff8560681c168152019401610ab2565b938a60019160ff8560601c168152019401610aaa565b938a60019160ff8560581c168152019401610aa2565b938a60019160ff8560501c168152019401610a9a565b938a60019160ff8560481c168152019401610a92565b938a60019160ff8560401c168152019401610a8a565b938a60019160ff8560381c168152019401610a82565b938a60019160ff8560301c168152019401610a7a565b938a60019160ff8560281c168152019401610a72565b828b1c60ff168552938a0193600101610a6a565b938a60019160ff8560181c168152019401610a62565b938a60019160ff8560101c168152019401610a5a565b938a60019160ff8560081c168152019401610a52565b60ff83168552938a0193600101610a4a565b9495969798509150916001610400602092865460ff8116825260ff8160081c168583015260ff8160101c16604083015260ff8160181c16606083015260ff81861c16608083015260ff8160281c1660a083015260ff8160301c1660c083015260ff8160381c1660e083015260ff8160401c1661010083015260ff8160481c1661012083015260ff8160501c1661014083015260ff8160581c1661016083015260ff8160601c1661018083015260ff8160681c166101a083015260ff8160701c166101c083015260ff8160781c166101e083015260ff8160801c1661020083015260ff8160881c1661022083015260ff8160901c1661024083015260ff8160981c1661026083015260ff8160a01c1661028083015260ff8160a81c166102a083015260ff8160b01c166102c083015260ff8160b81c166102e083015260ff8160c01c1661030083015260ff8160c81c1661032083015260ff8160d01c1661034083015260ff8160d81c1661036083015260ff8160e01c1661038083015260ff8160e81c166103a083015260ff8160f01c166103c083015260f81c6103e082015201940192018b918f989796959493610a2a565b9097506020813d6020116112f0575b816112e060209383615017565b81010312610d80575196386109aa565b3d91506112d3565b6040513d8c823e3d90fd5b8161130d91615017565b61131857883861096e565b8880fd5b8480fd5b8161132a91615017565b610d3e57863861089a565b634e487b7160e01b8c52601160045260248cfd5b8161135391615017565b61135e578538610773565b8580fd5b634e487b7160e01b88526032600452602488fd5b90503d8089833e6113878183615017565b810190602081830312611318578051906001600160401b03821161141257019080601f830112156113185781516113bd8161509a565b926113cb6040519485615017565b81845260208085019260051b82010192831161140e57602001905b8282106113f6575050503861071b565b6020809161140384615304565b8152019101906113e6565b8a80fd5b8980fd5b6040513d8a823e3d90fd5b8161142b91615017565b610d3e5786386106ed565b82516001600160a01b031681528d9650602092830192600192909201910161068f565b60405162461bcd60e51b8152602060048201526013602482015272151bdad95b8818591b5a5b881b9bdd081cd95d606a1b6044820152606490fd5b634e487b7160e01b85526021600452602485fd5b50601486529085907fce6d7b5282bd9a3661ae061feed1dbda4e52ab073b1f9285be6e155d9c38d4ec5b8183106114ea5750509060206105479282010161053b565b60209193508060019154838589010152019101909184926114d2565b6020925061054794915060ff191682840152151560051b82010161053b565b507f5d8e12c39142ff96d79d04d15d1ba1269e4fe57bb9d26f43523628b34ba108ec835260208381526040808520336000908152925290205460ff16610507565b5034610239578060031936011261023957602090604051908152f35b503461023957610100366003190112610239576004356001600160401b038111610dda576115b4903690600401615053565b6024356001600160401b038111610dde576115d3903690600401615053565b6044356001600160401b038111610d4d576115f2903690600401615053565b916064356001600160401b03811161131c576116129036906004016150b1565b61161a614f45565b60c4359163ffffffff8316809303610d3e5761163461589c565b6009546040516370a0823160e01b81523360048201526001600160a01b0390911690602081602481855afa908115611c64578991611c32575b5061167d6006548092101561540a565b604051636eb1769f60e11b815233600482015230602482015291602083604481845afa9283156112f8578a93611bfc575b506116be826116d3941015615456565b6116ca845115156154ad565b309033906158c6565b600154956116e0876154f2565b60015560065490604051956116f487614fca565b865260208601968752604086015287606086015260808501523360a085015260c08401524360e08401528561010084015260843561012084015260018060a01b031661014083015261016082015260e435610180820152828452600b602052604084209181518051906001600160401b038211611a9a5761177f826117798754615147565b8761532f565b602090601f8311600114611b99576117af9291889183611aae575b50508160011b916000199060031b1c19161790565b83555b518051906001600160401b038211611b85576117de826117d56001870154615147565b6001870161532f565b602090601f8311600114611b1c5761180d9291879183611aae5750508160011b916000199060031b1c19161790565b60018301555b6002820160408201518051906001600160401b038211611a9a576118418261183b8554615147565b8561532f565b602090601f8311600114611ab9576118709291889183611aae5750508160011b916000199060031b1c19161790565b90555b606081015160038110156114945761188e90600384016153f2565b6080810151600483015560a08101516005830180546001600160a01b0319166001600160a01b039290921691909117905560c0810151805160068401916001600160401b038211611a9a57600160401b8211611a9a576020908354838555808410611a4e575b500191865260208620908060051c92875b848110611a0f5750601f19821690910390816119be575b60e0850151600787015561010085015160088701556101208501516009870155610140850151600a8701805461016088015163ffffffff60a01b60a09190911b166001600160a01b039093166001600160c01b031990911617919091179055610180850151600b87015560405187815260209088907f0ff47c4a3dc48719ecfd1876116e80d7d76ec7cb67248ae49449f9104747af29908390a1604051908152f35b90875b8181106119df575050500193909355602092610180600b388061191c565b9091976020611a056001928460ff8d5116919060ff809160031b9316831b921b19161790565b99019291016119c1565b88895b60208110611a27575084820155600101611905565b835190939160019160209160ff600388901b81811b199092169216901b1792019301611a12565b611a7890858a52838a20601f80870160051c82019281881680611a7e575b500160051c0190615318565b386118f4565b600019850190815490600019908a0360031b1c16905538611a6c565b634e487b7160e01b87526041600452602487fd5b01519050388061179a565b8388528188209190601f198416895b818110611b045750908460019594939210611aeb575b505050811b019055611873565b015160001960f88460031b161c19169055388080611ade565b92936020600181928786015181550195019301611ac8565b6001850187528187209190601f198416885b818110611b6d5750908460019594939210611b54575b505050811b016001830155611813565b015160001960f88460031b161c19169055388080611b44565b92936020600181928786015181550195019301611b2e565b634e487b7160e01b86526041600452602486fd5b8588528188209190601f198416895b818110611be45750908460019594939210611bcb575b505050811b0183556117b2565b015160001960f88460031b161c19169055388080611bbe565b92936020600181928786015181550195019301611ba8565b92506020833d602011611c2a575b81611c1760209383615017565b81010312610d80579151916116be6116ae565b3d9150611c0a565b90506020813d602011611c5c575b81611c4d60209383615017565b81010312610d8057513861166d565b3d9150611c40565b6040513d8b823e3d90fd5b503461023957602036600319011261023957611c89614eed565b611c916156c6565b60018060a01b03166001600160601b0360a01b601354161760135580f35b50346102395780600319360112610239576003546040516001600160a01b039091168152602090f35b50346102395780600319360112610239576010546040516001600160a01b039091168152602090f35b503461023957606036600319011261023957611d1b614eed565b611d23614f03565b90611d2c614f19565b90611d356156c6565b600280546001600160a01b03199081166001600160a01b03938416179091556003805482169383169390931790925560108054909216921691909117905580f35b5034610239576040366003190112610239576040611d92614f03565b91600435815280602052209060018060a01b0316600052602052602060ff604060002054166040519015158152f35b5034610239578060031936011261023957611dda6156c6565b611de261589c565b600160ff19600080516020615b1f833981519152541617600080516020615b1f833981519152557f62e78cea01bee320cd4e420270b5ea74000d11b0c9f74754ebdbfc544b05a2586020604051338152a180f35b503461023957602036600319011261023957611e50614eed565b611e586156c6565b60018060a01b03166001600160601b0360a01b600d541617600d5580f35b50346102395760203660031901126102395760043590600754821015610239576007548210156102a957600781527fa66cc928b5edb82af9bd49922954155ab7b0942694bea4ce44661d9a8736c6889091015460405160039290921b1c6001600160a01b03168152602090f35b503461023957611ef236614f9c565b91611efe9493946156c6565b6040519460208601526040850152606084015260018060a01b0316608083015260808252611f2d60a083615017565b81516001600160401b03811161205f57611f48601554615147565b601f8111612006575b50602092601f8211600114611f885782938291611f829492611aae5750508160011b916000199060031b1c19161790565b60155580f35b60158352601f198216937f55f448fdea98c4d29eb340757ef0a66cd03dbb9538908a6a81d96026b71ec47591845b868110611fee5750836001959610611fd5575b505050811b0160155580f35b015160001960f88460031b161c19169055388080611fc9565b91926020600181928685015181550194019201611fb6565b6015835261204f907f55f448fdea98c4d29eb340757ef0a66cd03dbb9538908a6a81d96026b71ec475601f840160051c81019160208510612055575b601f0160051c0190615318565b38611f51565b9091508190612042565b634e487b7160e01b82526041600452602482fd5b5034610239578060031936011261023957602060ff600080516020615b1f83398151915254166040519015158152f35b50346102395780600319360112610239576004546040516001600160a01b039091168152602090f35b50346102395780600319360112610239576005546040516001600160a01b039091168152602090f35b503461023957610120366003190112610239576004356001600160401b038111610dda57612127903690600401615053565b906024356001600160401b038111610dda57612147903690600401615053565b906044356001600160401b038111610dda576121679036906004016150b1565b92612170614f2f565b60a4359063ffffffff8216809203610d4d5760e43595610104356001600160a01b0381169081900361135e576121a461589c565b6121ac615654565b6009546040516370a0823160e01b81523360048201526001600160a01b0390911690602081602481855afa8015611416578a9089906127a4575b6121f29250101561540a565b604051636eb1769f60e11b8152336004820152306024820152602081604481855afa90811561141657908a91899161276d575b509161223682612242941015615456565b6116ca855115156154ad565b6001549661224f886154f2565b6001556040519561225f87614fca565b865260208601526020976040516122768a82615017565b8781526040870152866060870152608086015260a085015260c08401524360e08401528361010084015260643561012084015260018060a01b031661014083015261016082015260c435610180820152828252600b8452604082209181518051906001600160401b038211612683576122f3826117798754615147565b8690601f8311600114612705576123219291849183611aae5750508160011b916000199060031b1c19161790565b83555b60208201518051906001600160401b038211612683576123548261234b6001880154615147565b6001880161532f565b8690601f8311600114612697576123829291849183611aae5750508160011b916000199060031b1c19161790565b60018401555b60408201518051906001600160401b038211612683576123b8826123af6002880154615147565b6002880161532f565b8690601f8311600114612615576123e69291849183611aae5750508160011b916000199060031b1c19161790565b60028401555b606082015160038110156126015761240790600385016153f2565b6080820151600484015560a08201516005840180546001600160a01b0319166001600160a01b039290921691909117905560c0820151805160068501916001600160401b0382116125ed57600160401b82116125ed57879083548385558084106125be575b5001918352868320908060051c92845b8481106125805750601f1982169091039081612534575b60e0860151600788015561010086015160088801556101208601516009880155610140860151600a8801805461016089015163ffffffff60a01b60a09190911b166001600160a01b039093166001600160c01b031990911617919091179055610180860151600b880155604051888152899089907f0ff47c4a3dc48719ecfd1876116e80d7d76ec7cb67248ae49449f9104747af29908390a1604051908152f35b90845b8982821061255257505050500155610180600b388080612493565b61257684978360ff60019596975116919060ff809160031b9316831b921b19161790565b9601929101612537565b85865b8b8082106125995750508482015560010161247c565b845191949260019260ff600388901b81811b19909316911690911b1792019301612583565b6125e790858752838720601f80870160051c82019281881680611a7e57500160051c0190615318565b3861246c565b634e487b7160e01b84526041600452602484fd5b634e487b7160e01b82526021600452602482fd5b91906002860184528784209084935b89601f198516861061266a57506001945083601f19811610612651575b505050811b0160028401556123ec565b015160001960f88460031b161c19169055388080612641565b8282015184559485019460019093019290910190612624565b634e487b7160e01b83526041600452602483fd5b91906001860184528784209084935b89601f19851686106126ec57506001945083601f198116106126d3575b505050811b016001840155612388565b015160001960f88460031b161c191690553880806126c3565b82820151845594850194600190930192909101906126a6565b91908584528784209084935b89601f198516861061275457506001945083601f1981161061273b575b505050811b018355612324565b015160001960f88460031b161c1916905538808061272e565b8282015184559485019460019093019290910190612711565b9150506020813d60201161279c575b8161278960209383615017565b81010312610d8057518990612236612225565b3d915061277c565b50506020813d6020116127d2575b816127bf60209383615017565b81010312610d8057896121f291516121e6565b3d91506127b2565b50346102395780600319360112610239576127f36156c6565b600080516020615b1f8339815191525460ff81161561284d5760ff1916600080516020615b1f833981519152557f5db9ee0a495bf2e6ff9c91a7834c1ba4fdd244a5e8aa4e537bd38aeae4b073aa6020604051338152a180f35b638dfc202b60e01b8252600482fd5b503461023957604036600319011261023957612876614f03565b336001600160a01b038216036128925761037f9060043561581a565b63334bd91960e11b8252600482fd5b503461023957806003193601126102395760206040517f360f1ba4dc07a42c6671063d838f69946ccc4187f391399e06fd8ed4605900f38152f35b50346102395780600319360112610239576002546040516001600160a01b039091168152602090f35b50346102395760403660031901126102395761037f600435612925614f03565b9061294161037582600052600060205260016040600020015490565b6155c9565b503461023957602036600319011261023957600d5461296b60ff8260a01c16156152c7565b60ff60a01b1916600160a01b17600d556004358152600b60205260408120600581018054336001600160a01b0391909116148015612a5e575b6129ad9061536b565b600382019060ff8254166003811015611494576129ca90156153a6565b6007830154431115612a1957600492909201805490849055815460ff19166002179091556009549154612a09926001600160a01b0391821691166157da565b600d805460ff60a01b1916905580f35b60405162461bcd60e51b815260206004820152601e60248201527f4170706c69636174696f6e206973206e6f74206d6174757265642079657400006044820152606490fd5b507f5d8e12c39142ff96d79d04d15d1ba1269e4fe57bb9d26f43523628b34ba108ec835260208381526040808520336000908152925290205460ff166129a4565b50346102395760e03660031901126102395760c4356001600160a01b038116919082900361023957612acf6156c6565b60405191600435602084015260243560408401526044356060840152606435608084015260843560a084015260a43560c084015260e083015260e08252612b1861010083615017565b81516001600160401b03811161205f57612b33601454615147565b601f8111612bf1575b50602092601f8211600114612b735782938291612b6d9492611aae5750508160011b916000199060031b1c19161790565b60145580f35b60148352601f198216937fce6d7b5282bd9a3661ae061feed1dbda4e52ab073b1f9285be6e155d9c38d4ec91845b868110612bd95750836001959610612bc0575b505050811b0160145580f35b015160001960f88460031b161c19169055388080612bb4565b91926020600181928685015181550194019201612ba1565b60148352612c39907fce6d7b5282bd9a3661ae061feed1dbda4e52ab073b1f9285be6e155d9c38d4ec601f840160051c8101916020851061205557601f0160051c0190615318565b38612b3c565b503461023957602036600319011261023957612c59614eed565b612c616156c6565b60018060a01b03166001600160601b0360a01b600954161760095580f35b5034610239576020366003190112610239576020612cad600435600052600060205260016040600020015490565b604051908152f35b503461023957612cc436614f9c565b9091612cce615654565b600d54612ce160ff8260a01c16156152c7565b60ff60a01b1916600160a01b17600d5582810381811161433457604051938260208601526040850152606084015280608084015260a08301528360c083015260018060a01b031660e082015260e08152612d3d61010082615017565b818352600b60205260ff600360408520015416600381101561432057612d6390156153a6565b6012546001600160a01b03161561145957818352600b602052604083206004810191848354935560038201600160ff198254161790556001820160405193612db685612daf8187615222565b0386615017565b604051612dc7816105d28186615222565b600254612ddc906001600160a01b0316615a56565b9361064f612dfd60018060a01b038716986106616040519561060f87614ffc565b873b1561141257604051634258efa960e11b8152928a928492909184600485015b600382106142fa575050506106cb83926106b9612e469360c0606487015260c4860190614f5b565b0381838a5af18015611416576142e6575b50612e6183615938565b60405163d6efd7c360e01b81528781600481895afa90811561141657889161424e575b5080511561136257602001516009546001600160a01b0391821694612eac93929091166157da565b833b1561135e57604051631672aef960e21b815230600482015286908181602481838a5af18015610d4257614239575b5050610661612f316040519266029ba30b5b2b2160cd1b6020850152612f1784612f096027820189615754565b03601f198101865285615017565b604051928391607360f81b60208401526021830190615754565b60058401805460105491926001600160a01b03918216929091612f549116615a56565b9160018060a01b03831694600a54420190814211611335576004548c94936001600160a01b03909116929190883b1561135e578593612fb393612fc5604051978896879663b2193b4d60e01b885260e0600489015260e4880190614f5b565b86810360031901602488015290614f5b565b9260448501528b6064850152608484015260a4830152600160c4830152038183895af18015610d4257614224575b5050612ffe9061597d565b604051946130156004876108bc6020820189615754565b600a85019163ffffffff835460a01c169689600b88015461303f60018060a01b0360035416615a56565b6004546001600160a01b038083169c9295929116908c3b1561131c5761308a8580948f938d9060405198899788968795631c63df3560e21b875260a0600488015260a4870190614f5b565b93602486015260448501526064840152608483015203925af18015610d425761420f575b50506130b99061599e565b60018060a01b03600454169560405196632fd77c0d60e11b8852602088600481845afa978815614204578b986141d0575b50600d548354604051631f889aa560e11b8152600481018b90526001600160a01b03928316602482015261010060448201528d9594939092909160068501918b918e911661313f610104870160028901615222565b91606487015260848601526003198582030160a4860152602083549182815201928852602088209088915b81601f84011061401d5786946020969486948c948694549181811061400b575b818110613ff5575b818110613fdf575b818110613fc9575b818110613fb5575b818110613f9f575b818110613f89575b818110613f73575b818110613f5d575b818110613f47575b818110613f31575b818110613f1b575b818110613f05575b818110613eef575b818110613ed9575b818110613ec3575b818110613ead575b818110613e97575b818110613e81575b818110613e6b575b818110613e55575b818110613e3f575b818110613e29575b818110613e13575b818110613dfd575b818110613de7575b818110613dd1575b818110613dbb575b818110613da5575b818110613d8f575b818110613d79575b10613d6a575b5060c48301528b60e483015203925af18015610e5457613d34575b5060088101889055600554945460099091015460048054604051638a54c52f60e01b81526001600160a01b0394851692810192909252602482019290925246604482015290821660648201526084810189905294602091869160a49183918791165af1938415610d42578294613cf8575b506004546001600160a01b031693843b15610dde5782809160446040518094819363190b373360e31b83528d600484015260018060a01b0316998a60248401525af1908115610d8d578391613ce3575b505060405163095ea7b360e01b8152600481018690526000196024820152602081604481868b5af18015610d8d57613cc6575b506040516370a0823160e01b8152306004820152906020826024818a5afa918215610d8d578392613c8f575b50546013546001600160a01b039081169116863b15610d4d576040519263a7d545db60e01b8452600484015260248301526044820152818160648183895af18015610d4257613c6c575b5050907ff9d151d23a5253296eb20ab40959cf48828ea2732d337416716e302ed83ca6589560c095949392604051958652602086015260408501526060840152608083015260a0820152a18152600b6020526040812060405161346781614fca565b604051613478816105d28186615222565b815260405161348e816105d28160018701615222565b60208201526040516134a7816105d28160028701615222565b60408201526134c060ff600384015416606083016152a5565b6004820154608082015260058201546001600160a01b031660a0820152604051600683018054808352908552602080862091839182019087905b80601f830110613ac457613610945491818110613ab0575b818110613a99575b818110613a82575b818110613a6b575b818110613a55575b818110613a3e575b818110613a27575b818110613a10575b8181106139f9575b8181106139e2575b8181106139cb575b8181106139b4575b81811061399d575b818110613986575b81811061396f575b818110613958575b818110613941575b81811061392a575b818110613913575b8181106138fc575b8181106138e5575b8181106138ce575b8181106138b7575b8181106138a0575b818110613889575b818110613872575b81811061385b575b818110613844575b81811061382d575b818110613816575b8181106137ff575b106137f1575b500382615017565b60c0820152600782015460e0820152610180600b60088401549384610100850152600981015461012085015263ffffffff600a82015460018060a01b03811661014087015260a01c1661016085015201549101528160018060a01b036004541691602460405180948193635652386760e11b835260048301525afa908115610d425782916136be575b602082810151600d805460ff60a01b191690556040516001600160a01b039091168152f35b90503d8083833e6136cf8183615017565b810190602081830312610dde578051906001600160401b038211610d4d57019060a082820312610dde576040519160a083018381106001600160401b038211176137dd5760405261371f81615304565b835261372d60208201615304565b602084015261373e60408201615304565b604084015261374f60608201615304565b60608401526080810151906001600160401b03821161131c57019080601f83011215610d4d578151936137818561509a565b9261378f6040519485615017565b85845260208085019660051b820101928311610dda57602001945b8286106137c35750505060209250608082015238613699565b855160ff81168103610dde578152602095860195016137aa565b634e487b7160e01b85526041600452602485fd5b60f81c815260200138613608565b92602060019160ff8560f01c168152019301613602565b92602060019160ff8560e81c1681520193016135fa565b92602060019160ff8560e01c1681520193016135f2565b92602060019160ff8560d81c1681520193016135ea565b92602060019160ff8560d01c1681520193016135e2565b92602060019160ff8560c81c1681520193016135da565b92602060019160ff8560c01c1681520193016135d2565b92602060019160ff8560b81c1681520193016135ca565b92602060019160ff8560b01c1681520193016135c2565b92602060019160ff8560a81c1681520193016135ba565b92602060019160ff8560a01c1681520193016135b2565b92602060019160ff8560981c1681520193016135aa565b92602060019160ff8560901c1681520193016135a2565b92602060019160ff8560881c16815201930161359a565b92602060019160ff8560801c168152019301613592565b92602060019160ff8560781c16815201930161358a565b92602060019160ff8560701c168152019301613582565b92602060019160ff8560681c16815201930161357a565b92602060019160ff8560601c168152019301613572565b92602060019160ff8560581c16815201930161356a565b92602060019160ff8560501c168152019301613562565b92602060019160ff8560481c16815201930161355a565b92602060019160ff8560401c168152019301613552565b92602060019160ff8560381c16815201930161354a565b92602060019160ff8560301c168152019301613542565b92602060019160ff8560281c16815201930161353a565b92602060019160ff85831c168152019301613532565b92602060019160ff8560181c16815201930161352a565b92602060019160ff8560101c168152019301613522565b92602060019160ff8560081c16815201930161351a565b92602060019160ff85168152019301613512565b916020919350610400600191865460ff8116825260ff8160081c168583015260ff8160101c16604083015260ff8160181c16606083015260ff81861c16608083015260ff8160281c1660a083015260ff8160301c1660c083015260ff8160381c1660e083015260ff8160401c1661010083015260ff8160481c1661012083015260ff8160501c1661014083015260ff8160581c1661016083015260ff8160601c1661018083015260ff8160681c166101a083015260ff8160701c166101c083015260ff8160781c166101e083015260ff8160801c1661020083015260ff8160881c1661022083015260ff8160901c1661024083015260ff8160981c1661026083015260ff8160a01c1661028083015260ff8160a81c166102a083015260ff8160b01c166102c083015260ff8160b81c166102e083015260ff8160c01c1661030083015260ff8160c81c1661032083015260ff8160d01c1661034083015260ff8160d81c1661036083015260ff8160e01c1661038083015260ff8160e81c166103a083015260ff8160f01c166103c083015260f81c6103e08201520194019201849293916134fa565b81613c7c91979695949397615017565b613c8b57909192938738613405565b8780fd5b925090506020823d602011613cbe575b81613cac60209383615017565b81010312610d805789915190386133bb565b3d9150613c9f565b613cde9060203d602011610dbe57610db18183615017565b61338f565b81613ced91615017565b610dda57813861335c565b9093506020813d602011613d2c575b81613d1460209383615017565b81010312610dda57613d2590615304565b923861330c565b3d9150613d07565b9092506020813d602011613d62575b81613d5060209383615017565b81010312610d8057508991602061329b565b3d9150613d43565b60f81c82529087019038613280565b938a60019160ff8560f01c16815201940161327a565b938a60019160ff8560e81c168152019401613272565b938a60019160ff8560e01c16815201940161326a565b938a60019160ff8560d81c168152019401613262565b938a60019160ff8560d01c16815201940161325a565b938a60019160ff8560c81c168152019401613252565b938a60019160ff8560c01c16815201940161324a565b938a60019160ff8560b81c168152019401613242565b938a60019160ff8560b01c16815201940161323a565b938a60019160ff8560a81c168152019401613232565b938a60019160ff8560a01c16815201940161322a565b938a60019160ff8560981c168152019401613222565b938a60019160ff8560901c16815201940161321a565b938a60019160ff8560881c168152019401613212565b938a60019160ff8560801c16815201940161320a565b938a60019160ff8560781c168152019401613202565b938a60019160ff8560701c1681520194016131fa565b938a60019160ff8560681c1681520194016131f2565b938a60019160ff8560601c1681520194016131ea565b938a60019160ff8560581c1681520194016131e2565b938a60019160ff8560501c1681520194016131da565b938a60019160ff8560481c1681520194016131d2565b938a60019160ff8560401c1681520194016131ca565b938a60019160ff8560381c1681520194016131c2565b938a60019160ff8560301c1681520194016131ba565b938a60019160ff8560281c1681520194016131b2565b828b1c60ff168552938a01936001016131aa565b938a60019160ff8560181c1681520194016131a2565b938a60019160ff8560101c16815201940161319a565b938a60019160ff8560081c168152019401613192565b60ff83168552938a019360010161318a565b9495969798509150916001610400602092865460ff8116825260ff8160081c168583015260ff8160101c16604083015260ff8160181c16606083015260ff81861c16608083015260ff8160281c1660a083015260ff8160301c1660c083015260ff8160381c1660e083015260ff8160401c1661010083015260ff8160481c1661012083015260ff8160501c1661014083015260ff8160581c1661016083015260ff8160601c1661018083015260ff8160681c166101a083015260ff8160701c166101c083015260ff8160781c166101e083015260ff8160801c1661020083015260ff8160881c1661022083015260ff8160901c1661024083015260ff8160981c1661026083015260ff8160a01c1661028083015260ff8160a81c166102a083015260ff8160b01c166102c083015260ff8160b81c166102e083015260ff8160c01c1661030083015260ff8160c81c1661032083015260ff8160d01c1661034083015260ff8160d81c1661036083015260ff8160e01c1661038083015260ff8160e81c166103a083015260ff8160f01c166103c083015260f81c6103e082015201940192018f979695949392918c9261316a565b9097506020813d6020116141fc575b816141ec60209383615017565b81010312610d80575196386130ea565b3d91506141df565b6040513d8d823e3d90fd5b8161421991615017565b6114125789386130ae565b8161422e91615017565b613c8b578738612ff3565b8161424391615017565b61135e578538612edc565b90503d8089833e61425f8183615017565b810190602081830312611318578051906001600160401b03821161141257019080601f830112156113185781516142958161509a565b926142a36040519485615017565b81845260208085019260051b82010192831161140e57602001905b8282106142ce5750505038612e84565b602080916142db84615304565b8152019101906142be565b876142f391989298615017565b9538612e57565b82516001600160a01b031681528e96508795506020928301926001929092019101612e1e565b634e487b7160e01b84526021600452602484fd5b634e487b7160e01b86526011600452602486fd5b5034610239576020366003190112610239578061018060405161436a81614fca565b6060815260606020820152606060408201528260608201528260808201528260a0820152606060c08201528260e08201528261010082015282610120820152826101408201528261016082015201526004358152600b6020526040812090604051906143d582614fca565b6040516143e6816105d28187615222565b82526040516143fc816105d28160018801615222565b602083019081526040519361441885612daf8160028501615222565b6040840194855260ff6003820154166144356060860191826152a5565b60048201546080860190815260058301546001600160a01b031660a087019081526040516006850180548083529088526020808920949593949293928492918301918a915b81601f8401106149d85754918181106149c4575b8181106149ad575b818110614996575b81811061497f575b818110614969575b818110614952575b81811061493b575b818110614924575b81811061490d575b8181106148f6575b8181106148df575b8181106148c8575b8181106148b1575b81811061489a575b818110614883575b81811061486c575b818110614855575b81811061483e575b818110614827575b818110614810575b8181106147f9575b8181106147e2575b8181106147cb575b8181106147b4575b81811061479d575b818110614786575b81811061476f575b818110614758575b818110614741575b81811061472a575b818110614713575b10614705575b50036145909083615017565b60c0880191825260078501549160e089019283526008860154936101008a019485526009870154956101208b01968752600a8801549b6101408c01988d600160a01b60019003168a526101608d01809e60a01c63ffffffff169052600b0154996101808d019a8b526040519c60208e52518d602081016101a090526101c00161461891614f5b565b90518d8203601f190160408f01526146309190614f5b565b90518c8203601f190160608e01526146489190614f5b565b935160038110156146f15760808c01525160a08b0152516001600160a01b031660c08a015251888203601f190160e08a0152805180835260209283019892909101915b8181106146d85750509051610100880152505161012086015251610140850152516001600160a01b0316610160840152925163ffffffff1661018083015291516101a08201529081900390f35b825160ff1689526020988901989092019160010161468b565b634e487b7160e01b8b52602160045260248bfd5b60f81c815260200138614584565b92602060019160ff8560f01c16815201930161457e565b92602060019160ff8560e81c168152019301614576565b92602060019160ff8560e01c16815201930161456e565b92602060019160ff8560d81c168152019301614566565b92602060019160ff8560d01c16815201930161455e565b92602060019160ff8560c81c168152019301614556565b92602060019160ff8560c01c16815201930161454e565b92602060019160ff8560b81c168152019301614546565b92602060019160ff8560b01c16815201930161453e565b92602060019160ff8560a81c168152019301614536565b92602060019160ff8560a01c16815201930161452e565b92602060019160ff8560981c168152019301614526565b92602060019160ff8560901c16815201930161451e565b92602060019160ff8560881c168152019301614516565b92602060019160ff8560801c16815201930161450e565b92602060019160ff8560781c168152019301614506565b92602060019160ff8560701c1681520193016144fe565b92602060019160ff8560681c1681520193016144f6565b92602060019160ff8560601c1681520193016144ee565b92602060019160ff8560581c1681520193016144e6565b92602060019160ff8560501c1681520193016144de565b92602060019160ff8560481c1681520193016144d6565b92602060019160ff8560401c1681520193016144ce565b92602060019160ff8560381c1681520193016144c6565b92602060019160ff8560301c1681520193016144be565b92602060019160ff8560281c1681520193016144b6565b92602060019160ff85831c1681520193016144ae565b92602060019160ff8560181c1681520193016144a6565b92602060019160ff8560101c16815201930161449e565b92602060019160ff8560081c168152019301614496565b92602060019160ff8516815201930161448e565b935090916001610400602092865460ff8116825260ff8160081c168583015260ff8160101c16604083015260ff8160181c16606083015260ff81861c16608083015260ff8160281c1660a083015260ff8160301c1660c083015260ff8160381c1660e083015260ff8160401c1661010083015260ff8160481c1661012083015260ff8160501c1661014083015260ff8160581c1661016083015260ff8160601c1661018083015260ff8160681c166101a083015260ff8160701c166101c083015260ff8160781c166101e083015260ff8160801c1661020083015260ff8160881c1661022083015260ff8160901c1661024083015260ff8160981c1661026083015260ff8160a01c1661028083015260ff8160a81c166102a083015260ff8160b01c166102c083015260ff8160b81c166102e083015260ff8160c01c1661030083015260ff8160c81c1661032083015260ff8160d01c1661034083015260ff8160d81c1661036083015260ff8160e01c1661038083015260ff8160e81c166103a083015260ff8160f01c166103c083015260f81c6103e082015201940192019085939261447a565b5034610239578060031936011261023957600c546040516001600160a01b039091168152602090f35b50346102395780600319360112610239576009546040516001600160a01b039091168152602090f35b50346102395761012036600319011261023957614bed614eed565b614bf5614f03565b614bfd614f19565b6064356001600160a01b0381169081900361131c57614c1a614f2f565b614c22614f45565b9260e4359460018060a01b038616809603613c8b57600080516020615b3f833981519152549660ff8860401c1615976001600160401b03811680159081614e49575b6001149081614e3f575b159081614e36575b50614e275767ffffffffffffffff198116600117600080516020615b3f8339815191525588614dfa575b50614ca961590a565b614cb161590a565b60ff19600080516020615b1f8339815191525416600080516020615b1f8339815191525560018060a01b03166001600160601b0360a01b600254161760025560018060a01b03166001600160601b0360a01b601054161760105560018060a01b03166001600160601b0360a01b600354161760035560018060a01b03166001600160601b0360a01b60095416176009556001600160601b0360a01b600554161760055560018060a01b03166001600160601b0360a01b600454161760045560c43560065561010435600155614d8533615517565b506001600160601b0360a01b600d541617600d55614da05780f35b68ff000000000000000019600080516020615b3f8339815191525416600080516020615b3f833981519152557fc7f505b2f371ae2175ee4913f4499e1f2633a7b5936321eed1cdaeb6115181d2602060405160018152a180f35b68ffffffffffffffffff19166801000000000000000117600080516020615b3f8339815191525538614ca0565b63f92ee8a960e01b8a5260048afd5b90501538614c76565b303b159150614c6e565b8a9150614c64565b50346102395780600319360112610239576013546040516001600160a01b039091168152602090f35b50346102395780600319360112610239576020600a54604051908152f35b905034610dda576020366003190112610dda5760043563ffffffff60e01b8116809103610dde5760209250637965db0b60e01b8114908115614edc575b5015158152f35b6301ffc9a760e01b14905038614ed5565b600435906001600160a01b0382168203610d8057565b602435906001600160a01b0382168203610d8057565b604435906001600160a01b0382168203610d8057565b608435906001600160a01b0382168203610d8057565b60a435906001600160a01b0382168203610d8057565b919082519283825260005b848110614f87575050826000602080949584010152601f8019910116010190565b80602080928401015182828601015201614f66565b6080906003190112610d80576004359060243590604435906064356001600160a01b0381168103610d805790565b6101a081019081106001600160401b03821117614fe657604052565b634e487b7160e01b600052604160045260246000fd5b606081019081106001600160401b03821117614fe657604052565b90601f801991011681019081106001600160401b03821117614fe657604052565b6001600160401b038111614fe657601f01601f191660200190565b81601f82011215610d805780359061506a82615038565b926150786040519485615017565b82845260208383010111610d8057816000926020809301838601378301015290565b6001600160401b038111614fe65760051b60200190565b9080601f83011215610d80578135906150c98261509a565b926150d76040519485615017565b82845260208085019360051b820101918211610d8057602001915b8183106150ff5750505090565b823560ff81168103610d80578152602092830192016150f2565b80548210156151315760005260206000200190600090565b634e487b7160e01b600052603260045260246000fd5b90600182811c92168015615177575b602083101461516157565b634e487b7160e01b600052602260045260246000fd5b91607f1691615156565b6015546000929161519182615147565b808252916001811690811561520657506001146151ac575050565b601560009081529293509091907f55f448fdea98c4d29eb340757ef0a66cd03dbb9538908a6a81d96026b71ec4755b8383106151ec575060209250010190565b6001816020929493945483858701015201910191906151db565b9050602093945060ff929192191683830152151560051b010190565b6000929181549161523283615147565b8083529260018116908115615288575060011461524e57505050565b60009081526020812093945091925b83831061526e575060209250010190565b60018160209294939454838587010152019101919061525d565b915050602093945060ff929192191683830152151560051b010190565b60038210156152b15752565b634e487b7160e01b600052602160045260246000fd5b156152ce57565b60405162461bcd60e51b815260206004820152600e60248201526d31b0b73737ba103932b2b73a32b960911b6044820152606490fd5b51906001600160a01b0382168203610d8057565b818110615323575050565b60008155600101615318565b9190601f811161533e57505050565b615369926000526020600020906020601f840160051c8301931061205557601f0160051c0190615318565b565b1561537257565b60405162461bcd60e51b815260206004820152600c60248201526b2737ba10383937b837b9b2b960a11b6044820152606490fd5b156153ad57565b60405162461bcd60e51b815260206004820152601960248201527f4170706c69636174696f6e206973206e6f7420616374697665000000000000006044820152606490fd5b9060038110156152b15760ff80198354169116179055565b1561541157565b60405162461bcd60e51b815260206004820152601860248201527f496e73756666696369656e7420617373657420746f6b656e00000000000000006044820152606490fd5b1561545d57565b60405162461bcd60e51b815260206004820152602260248201527f496e73756666696369656e7420617373657420746f6b656e20616c6c6f77616e604482015261636560f01b6064820152608490fd5b156154b457565b60405162461bcd60e51b815260206004820152601660248201527510dbdc995cc81b5d5cdd081899481c1c9bdd9a59195960521b6044820152606490fd5b60001981146155015760010190565b634e487b7160e01b600052601160045260246000fd5b6001600160a01b03811660009081527fad3228b676f7d3cd4284a5443f17f1962b36e491b30a40b2405849e597ba5fb5602052604090205460ff166155c3576001600160a01b031660008181527fad3228b676f7d3cd4284a5443f17f1962b36e491b30a40b2405849e597ba5fb560205260408120805460ff191660011790553391907f2f8788117e7eff1d82e926ec794901d17c78024a50270940304540a733656f0d8180a4600190565b50600090565b6000818152602081815260408083206001600160a01b038616845290915290205460ff1661564d576000818152602081815260408083206001600160a01b0395909516808452949091528120805460ff19166001179055339291907f2f8788117e7eff1d82e926ec794901d17c78024a50270940304540a733656f0d9080a4600190565b5050600090565b3360009081527f47fa3846800aa0e8a0094e76ddd8b6215145788c21499f1987cd67ad6fc41810602052604090205460ff161561568d57565b63e2517d3f60e01b600052336004527f360f1ba4dc07a42c6671063d838f69946ccc4187f391399e06fd8ed4605900f360245260446000fd5b3360009081527fad3228b676f7d3cd4284a5443f17f1962b36e491b30a40b2405849e597ba5fb5602052604090205460ff16156156ff57565b63e2517d3f60e01b60005233600452600060245260446000fd5b60008181526020818152604080832033845290915290205460ff161561573c5750565b63e2517d3f60e01b6000523360045260245260446000fd5b6000929181549161576483615147565b92600181169081156157af575060011461577d57505050565b909192935060005260206000206000905b83821061579b5750500190565b60018160209254848601520191019061578e565b60ff191683525050811515909102019150565b90816020910312610d8057518015158103610d805790565b60405163a9059cbb60e01b60208201526001600160a01b03909216602483015260448083019390935291815261536991615815606483615017565b6159bf565b6000818152602081815260408083206001600160a01b038616845290915290205460ff161561564d576000818152602081815260408083206001600160a01b0395909516808452949091528120805460ff19169055339291907ff6391f5c32d9c69d2a47ea670b442974b53935d1edc7fd64eb21e047a839171b9080a4600190565b60ff600080516020615b1f83398151915254166158b557565b63d93c066560e01b60005260046000fd5b6040516323b872dd60e01b60208201526001600160a01b03928316602482015292909116604483015260648083019390935291815261536991615815608483615017565b60ff600080516020615b3f8339815191525460401c161561592757565b631afcd79f60e31b60005260046000fd5b600e54600160401b811015614fe6578060016159599201600e55600e615119565b81546001600160a01b0393841660039290921b91821b9390911b1916919091179055565b600754600160401b811015614fe65780600161595992016007556007615119565b600854600160401b811015614fe65780600161595992016008556008615119565b600080615a099260018060a01b03169360208151910182865af13d15615a4e573d906159ea82615038565b916159f86040519384615017565b82523d6000602084013e5b83615abd565b8051908115159182615a33575b5050615a1f5750565b635274afe760e01b60005260045260246000fd5b615a4692506020809183010191016157c2565b153880615a16565b606090615a03565b6e5af43d82803e903d91602b57fd5bf390763d602d80600a3d3981f3363d3d373d3d3d363d7300000062ffffff8260881c161760005260781b17602052603760096000f0906001600160a01b03821615615aac57565b6330be1a3d60e21b60005260046000fd5b90615ae35750805115615ad257805190602001fd5b630a12f52160e11b60005260046000fd5b81511580615b15575b615af4575090565b639996b31560e01b60009081526001600160a01b0391909116600452602490fd5b50803b15615aec56fecd5ed15c6e187e77e9aee88184c21f4f2182ab5827cb3b7e07fbedcd63f03300f0c57e16840df040f15088dc2f81fe391c3923bec73e23a9662efc9c229c6a00a264697066735822122080028815eedd56ddce1b6f021af5a8de3d1c1fb06aeaaab0c17dd928acec396464736f6c634300081a0033","linkReferences":{}},"methodIdentifiers":{"BONDING_ROLE()":"3094afb3","DEFAULT_ADMIN_ROLE()":"a217fddf","WITHDRAW_ROLE()":"e02023a1","allDAOs(uint256)":"b4136bd8","allTokens(uint256)":"634282af","allTradingTokens(uint256)":"e887b1cc","applicationThreshold()":"ddf44275","assetToken()":"1083f761","daoImplementation()":"9d699326","defaultDelegatee()":"0c4cb55c","executeApplication(uint256,bool)":"aa3d000a","executeBondingCurveApplication(uint256,uint256,uint256,address)":"23c31596","getApplication(uint256)":"1f2f4bfd","getRoleAdmin(bytes32)":"248a9ca3","gov()":"12d43a51","grantRole(bytes32,address)":"2f2ff15d","hasRole(bytes32,address)":"91d14854","initFromBondingCurve(string,string,uint8[],bytes32,address,uint32,uint256,uint256,address)":"3fa2da7e","initialize(address,address,address,address,address,address,uint256,address,uint256)":"0f07646a","maturityDuration()":"063513b7","nft()":"47ccca02","pause()":"8456cb59","paused()":"5c975abb","proposeAgent(string,string,string,uint8[],bytes32,address,uint32,uint256)":"9e4ec30a","renounceRole(bytes32,address)":"36568abe","revokeRole(bytes32,address)":"d547741f","setApplicationThreshold(uint256)":"bd1cf258","setAssetToken(address)":"26bde5aa","setDefaultDelegatee(address)":"9d7b6842","setImplementations(address,address,address)":"9300d238","setMaturityDuration(uint256)":"d739ac29","setTokenAdmin(address)":"f7457594","setTokenSupplyParams(uint256,uint256,uint256,uint256,uint256,uint256,address)":"2a7d4a1f","setTokenTaxParams(uint256,uint256,uint256,address)":"5ca3cedf","setUniswapRouter(address)":"bea9849e","setVault(address)":"6817031b","supportsInterface(bytes4)":"01ffc9a7","tbaRegistry()":"468d198d","tokenImplementation()":"2f3a3d5d","totalAgents()":"c5053712","unpause()":"3f4ba83a","veTokenImplementation()":"9cbe0bac","withdraw(uint256)":"2e1a7d4d"},"id":59}