{"abi":[{"type":"function","name":"airdrop","inputs":[{"name":"_token","type":"address","internalType":"contract IERC20"},{"name":"_recipients","type":"address[]","internalType":"address[]"},{"name":"_amounts","type":"uint256[]","internalType":"uint256[]"},{"name":"_total","type":"uint256","internalType":"uint256"}],"outputs":[],"stateMutability":"nonpayable"}],"bytecode":{"object":"0x608080604052346015576101ac908161001b8239f35b600080fdfe6080604052600436101561001257600080fd5b60003560e01c63ac3e20891461002757600080fd5b3461009d57608036600319011261009d576004356001600160a01b038116810361009d5760243567ffffffffffffffff811161009d5761006b9036906004016100a2565b50906044359167ffffffffffffffff831161009d5761009161009b9336906004016100a2565b91606435936100d3565b005b600080fd5b9181601f8401121561009d5782359167ffffffffffffffff831161009d576020808501948460051b01011161009d57565b91929093600060646020926040519082828601926323b872dd60e01b8452336024820152306044820152015282865af13d1560016000511417161561009d5760405163a9059cbb60e01b602082019081529194919360448201929160240160005b878110610145575050505050505050565b8060051b808501358352830135855260206000604489828a5af13d1560016000511417161561009d5760010161013456fea264697066735822122034cbc94e0f6efdcff0f2d2e8d48638b2cf01e73f280898150603594443828e9364736f6c634300081a0033","linkReferences":{}},"methodIdentifiers":{"airdrop(address,address[],uint256[],uint256)":"ac3e2089"},"id":53}