{"abi":[{"type":"constructor","inputs":[{"name":"token","type":"address","internalType":"contract IVotes"},{"name":"initialVotingDelay","type":"uint48","internalType":"uint48"},{"name":"initialVotingPeriod","type":"uint32","internalType":"uint32"},{"name":"initialProposalThreshold","type":"uint256","internalType":"uint256"},{"name":"initialQuorumNumerator","type":"uint256","internalType":"uint256"}],"stateMutability":"nonpayable"},{"type":"receive","stateMutability":"payable"},{"type":"function","name":"BALLOT_TYPEHASH","inputs":[],"outputs":[{"name":"","type":"bytes32","internalType":"bytes32"}],"stateMutability":"view"},{"type":"function","name":"CLOCK_MODE","inputs":[],"outputs":[{"name":"","type":"string","internalType":"string"}],"stateMutability":"view"},{"type":"function","name":"COUNTING_MODE","inputs":[],"outputs":[{"name":"","type":"string","internalType":"string"}],"stateMutability":"pure"},{"type":"function","name":"EXTENDED_BALLOT_TYPEHASH","inputs":[],"outputs":[{"name":"","type":"bytes32","internalType":"bytes32"}],"stateMutability":"view"},{"type":"function","name":"cancel","inputs":[{"name":"proposalId","type":"uint256","internalType":"uint256"}],"outputs":[],"stateMutability":"nonpayable"},{"type":"function","name":"cancel","inputs":[{"name":"targets","type":"address[]","internalType":"address[]"},{"name":"values","type":"uint256[]","internalType":"uint256[]"},{"name":"calldatas","type":"bytes[]","internalType":"bytes[]"},{"name":"descriptionHash","type":"bytes32","internalType":"bytes32"}],"outputs":[{"name":"","type":"uint256","internalType":"uint256"}],"stateMutability":"nonpayable"},{"type":"function","name":"castVote","inputs":[{"name":"proposalId","type":"uint256","internalType":"uint256"},{"name":"support","type":"uint8","internalType":"uint8"}],"outputs":[{"name":"","type":"uint256","internalType":"uint256"}],"stateMutability":"nonpayable"},{"type":"function","name":"castVoteBySig","inputs":[{"name":"proposalId","type":"uint256","internalType":"uint256"},{"name":"support","type":"uint8","internalType":"uint8"},{"name":"voter","type":"address","internalType":"address"},{"name":"signature","type":"bytes","internalType":"bytes"}],"outputs":[{"name":"","type":"uint256","internalType":"uint256"}],"stateMutability":"nonpayable"},{"type":"function","name":"castVoteWithReason","inputs":[{"name":"proposalId","type":"uint256","internalType":"uint256"},{"name":"support","type":"uint8","internalType":"uint8"},{"name":"reason","type":"string","internalType":"string"}],"outputs":[{"name":"","type":"uint256","internalType":"uint256"}],"stateMutability":"nonpayable"},{"type":"function","name":"castVoteWithReasonAndParams","inputs":[{"name":"proposalId","type":"uint256","internalType":"uint256"},{"name":"support","type":"uint8","internalType":"uint8"},{"name":"reason","type":"string","internalType":"string"},{"name":"params","type":"bytes","internalType":"bytes"}],"outputs":[{"name":"","type":"uint256","internalType":"uint256"}],"stateMutability":"nonpayable"},{"type":"function","name":"castVoteWithReasonAndParamsBySig","inputs":[{"name":"proposalId","type":"uint256","internalType":"uint256"},{"name":"support","type":"uint8","internalType":"uint8"},{"name":"voter","type":"address","internalType":"address"},{"name":"reason","type":"string","internalType":"string"},{"name":"params","type":"bytes","internalType":"bytes"},{"name":"signature","type":"bytes","internalType":"bytes"}],"outputs":[{"name":"","type":"uint256","internalType":"uint256"}],"stateMutability":"nonpayable"},{"type":"function","name":"clock","inputs":[],"outputs":[{"name":"","type":"uint48","internalType":"uint48"}],"stateMutability":"view"},{"type":"function","name":"eip712Domain","inputs":[],"outputs":[{"name":"fields","type":"bytes1","internalType":"bytes1"},{"name":"name","type":"string","internalType":"string"},{"name":"version","type":"string","internalType":"string"},{"name":"chainId","type":"uint256","internalType":"uint256"},{"name":"verifyingContract","type":"address","internalType":"address"},{"name":"salt","type":"bytes32","internalType":"bytes32"},{"name":"extensions","type":"uint256[]","internalType":"uint256[]"}],"stateMutability":"view"},{"type":"function","name":"execute","inputs":[{"name":"targets","type":"address[]","internalType":"address[]"},{"name":"values","type":"uint256[]","internalType":"uint256[]"},{"name":"calldatas","type":"bytes[]","internalType":"bytes[]"},{"name":"descriptionHash","type":"bytes32","internalType":"bytes32"}],"outputs":[{"name":"","type":"uint256","internalType":"uint256"}],"stateMutability":"payable"},{"type":"function","name":"execute","inputs":[{"name":"proposalId","type":"uint256","internalType":"uint256"}],"outputs":[],"stateMutability":"payable"},{"type":"function","name":"getVotes","inputs":[{"name":"account","type":"address","internalType":"address"},{"name":"timepoint","type":"uint256","internalType":"uint256"}],"outputs":[{"name":"","type":"uint256","internalType":"uint256"}],"stateMutability":"view"},{"type":"function","name":"getVotesWithParams","inputs":[{"name":"account","type":"address","internalType":"address"},{"name":"timepoint","type":"uint256","internalType":"uint256"},{"name":"params","type":"bytes","internalType":"bytes"}],"outputs":[{"name":"","type":"uint256","internalType":"uint256"}],"stateMutability":"view"},{"type":"function","name":"hasVoted","inputs":[{"name":"proposalId","type":"uint256","internalType":"uint256"},{"name":"account","type":"address","internalType":"address"}],"outputs":[{"name":"","type":"bool","internalType":"bool"}],"stateMutability":"view"},{"type":"function","name":"hashProposal","inputs":[{"name":"targets","type":"address[]","internalType":"address[]"},{"name":"values","type":"uint256[]","internalType":"uint256[]"},{"name":"calldatas","type":"bytes[]","internalType":"bytes[]"},{"name":"descriptionHash","type":"bytes32","internalType":"bytes32"}],"outputs":[{"name":"","type":"uint256","internalType":"uint256"}],"stateMutability":"pure"},{"type":"function","name":"name","inputs":[],"outputs":[{"name":"","type":"string","internalType":"string"}],"stateMutability":"view"},{"type":"function","name":"nonces","inputs":[{"name":"owner","type":"address","internalType":"address"}],"outputs":[{"name":"","type":"uint256","internalType":"uint256"}],"stateMutability":"view"},{"type":"function","name":"onERC1155BatchReceived","inputs":[{"name":"","type":"address","internalType":"address"},{"name":"","type":"address","internalType":"address"},{"name":"","type":"uint256[]","internalType":"uint256[]"},{"name":"","type":"uint256[]","internalType":"uint256[]"},{"name":"","type":"bytes","internalType":"bytes"}],"outputs":[{"name":"","type":"bytes4","internalType":"bytes4"}],"stateMutability":"nonpayable"},{"type":"function","name":"onERC1155Received","inputs":[{"name":"","type":"address","internalType":"address"},{"name":"","type":"address","internalType":"address"},{"name":"","type":"uint256","internalType":"uint256"},{"name":"","type":"uint256","internalType":"uint256"},{"name":"","type":"bytes","internalType":"bytes"}],"outputs":[{"name":"","type":"bytes4","internalType":"bytes4"}],"stateMutability":"nonpayable"},{"type":"function","name":"onERC721Received","inputs":[{"name":"","type":"address","internalType":"address"},{"name":"","type":"address","internalType":"address"},{"name":"","type":"uint256","internalType":"uint256"},{"name":"","type":"bytes","internalType":"bytes"}],"outputs":[{"name":"","type":"bytes4","internalType":"bytes4"}],"stateMutability":"nonpayable"},{"type":"function","name":"proposalCount","inputs":[],"outputs":[{"name":"","type":"uint256","internalType":"uint256"}],"stateMutability":"view"},{"type":"function","name":"proposalDeadline","inputs":[{"name":"proposalId","type":"uint256","internalType":"uint256"}],"outputs":[{"name":"","type":"uint256","internalType":"uint256"}],"stateMutability":"view"},{"type":"function","name":"proposalDetails","inputs":[{"name":"proposalId","type":"uint256","internalType":"uint256"}],"outputs":[{"name":"","type":"address[]","internalType":"address[]"},{"name":"","type":"uint256[]","internalType":"uint256[]"},{"name":"","type":"bytes[]","internalType":"bytes[]"},{"name":"","type":"bytes32","internalType":"bytes32"}],"stateMutability":"view"},{"type":"function","name":"proposalDetailsAt","inputs":[{"name":"index","type":"uint256","internalType":"uint256"}],"outputs":[{"name":"","type":"uint256","internalType":"uint256"},{"name":"","type":"address[]","internalType":"address[]"},{"name":"","type":"uint256[]","internalType":"uint256[]"},{"name":"","type":"bytes[]","internalType":"bytes[]"},{"name":"","type":"bytes32","internalType":"bytes32"}],"stateMutability":"view"},{"type":"function","name":"proposalEta","inputs":[{"name":"proposalId","type":"uint256","internalType":"uint256"}],"outputs":[{"name":"","type":"uint256","internalType":"uint256"}],"stateMutability":"view"},{"type":"function","name":"proposalNeedsQueuing","inputs":[{"name":"","type":"uint256","internalType":"uint256"}],"outputs":[{"name":"","type":"bool","internalType":"bool"}],"stateMutability":"view"},{"type":"function","name":"proposalProposer","inputs":[{"name":"proposalId","type":"uint256","internalType":"uint256"}],"outputs":[{"name":"","type":"address","internalType":"address"}],"stateMutability":"view"},{"type":"function","name":"proposalSnapshot","inputs":[{"name":"proposalId","type":"uint256","internalType":"uint256"}],"outputs":[{"name":"","type":"uint256","internalType":"uint256"}],"stateMutability":"view"},{"type":"function","name":"proposalThreshold","inputs":[],"outputs":[{"name":"","type":"uint256","internalType":"uint256"}],"stateMutability":"view"},{"type":"function","name":"proposalVotes","inputs":[{"name":"proposalId","type":"uint256","internalType":"uint256"}],"outputs":[{"name":"againstVotes","type":"uint256","internalType":"uint256"},{"name":"forVotes","type":"uint256","internalType":"uint256"},{"name":"abstainVotes","type":"uint256","internalType":"uint256"}],"stateMutability":"view"},{"type":"function","name":"propose","inputs":[{"name":"targets","type":"address[]","internalType":"address[]"},{"name":"values","type":"uint256[]","internalType":"uint256[]"},{"name":"calldatas","type":"bytes[]","internalType":"bytes[]"},{"name":"description","type":"string","internalType":"string"}],"outputs":[{"name":"","type":"uint256","internalType":"uint256"}],"stateMutability":"nonpayable"},{"type":"function","name":"queue","inputs":[{"name":"targets","type":"address[]","internalType":"address[]"},{"name":"values","type":"uint256[]","internalType":"uint256[]"},{"name":"calldatas","type":"bytes[]","internalType":"bytes[]"},{"name":"descriptionHash","type":"bytes32","internalType":"bytes32"}],"outputs":[{"name":"","type":"uint256","internalType":"uint256"}],"stateMutability":"nonpayable"},{"type":"function","name":"queue","inputs":[{"name":"proposalId","type":"uint256","internalType":"uint256"}],"outputs":[],"stateMutability":"nonpayable"},{"type":"function","name":"quorum","inputs":[{"name":"blockNumber","type":"uint256","internalType":"uint256"}],"outputs":[{"name":"","type":"uint256","internalType":"uint256"}],"stateMutability":"view"},{"type":"function","name":"quorumDenominator","inputs":[],"outputs":[{"name":"","type":"uint256","internalType":"uint256"}],"stateMutability":"pure"},{"type":"function","name":"quorumNumerator","inputs":[{"name":"timepoint","type":"uint256","internalType":"uint256"}],"outputs":[{"name":"","type":"uint256","internalType":"uint256"}],"stateMutability":"view"},{"type":"function","name":"quorumNumerator","inputs":[],"outputs":[{"name":"","type":"uint256","internalType":"uint256"}],"stateMutability":"view"},{"type":"function","name":"relay","inputs":[{"name":"target","type":"address","internalType":"address"},{"name":"value","type":"uint256","internalType":"uint256"},{"name":"data","type":"bytes","internalType":"bytes"}],"outputs":[],"stateMutability":"payable"},{"type":"function","name":"setProposalThreshold","inputs":[{"name":"newProposalThreshold","type":"uint256","internalType":"uint256"}],"outputs":[],"stateMutability":"nonpayable"},{"type":"function","name":"setVotingDelay","inputs":[{"name":"newVotingDelay","type":"uint48","internalType":"uint48"}],"outputs":[],"stateMutability":"nonpayable"},{"type":"function","name":"setVotingPeriod","inputs":[{"name":"newVotingPeriod","type":"uint32","internalType":"uint32"}],"outputs":[],"stateMutability":"nonpayable"},{"type":"function","name":"state","inputs":[{"name":"proposalId","type":"uint256","internalType":"uint256"}],"outputs":[{"name":"","type":"uint8","internalType":"enum IGovernor.ProposalState"}],"stateMutability":"view"},{"type":"function","name":"supportsInterface","inputs":[{"name":"interfaceId","type":"bytes4","internalType":"bytes4"}],"outputs":[{"name":"","type":"bool","internalType":"bool"}],"stateMutability":"view"},{"type":"function","name":"token","inputs":[],"outputs":[{"name":"","type":"address","internalType":"contract IERC5805"}],"stateMutability":"view"},{"type":"function","name":"updateQuorumNumerator","inputs":[{"name":"newQuorumNumerator","type":"uint256","internalType":"uint256"}],"outputs":[],"stateMutability":"nonpayable"},{"type":"function","name":"version","inputs":[],"outputs":[{"name":"","type":"string","internalType":"string"}],"stateMutability":"view"},{"type":"function","name":"votingDelay","inputs":[],"outputs":[{"name":"","type":"uint256","internalType":"uint256"}],"stateMutability":"view"},{"type":"function","name":"votingPeriod","inputs":[],"outputs":[{"name":"","type":"uint256","internalType":"uint256"}],"stateMutability":"view"},{"type":"event","name":"EIP712DomainChanged","inputs":[],"anonymous":false},{"type":"event","name":"ProposalCanceled","inputs":[{"name":"proposalId","type":"uint256","indexed":false,"internalType":"uint256"}],"anonymous":false},{"type":"event","name":"ProposalCreated","inputs":[{"name":"proposalId","type":"uint256","indexed":false,"internalType":"uint256"},{"name":"proposer","type":"address","indexed":false,"internalType":"address"},{"name":"targets","type":"address[]","indexed":false,"internalType":"address[]"},{"name":"values","type":"uint256[]","indexed":false,"internalType":"uint256[]"},{"name":"signatures","type":"string[]","indexed":false,"internalType":"string[]"},{"name":"calldatas","type":"bytes[]","indexed":false,"internalType":"bytes[]"},{"name":"voteStart","type":"uint256","indexed":false,"internalType":"uint256"},{"name":"voteEnd","type":"uint256","indexed":false,"internalType":"uint256"},{"name":"description","type":"string","indexed":false,"internalType":"string"}],"anonymous":false},{"type":"event","name":"ProposalExecuted","inputs":[{"name":"proposalId","type":"uint256","indexed":false,"internalType":"uint256"}],"anonymous":false},{"type":"event","name":"ProposalQueued","inputs":[{"name":"proposalId","type":"uint256","indexed":false,"internalType":"uint256"},{"name":"etaSeconds","type":"uint256","indexed":false,"internalType":"uint256"}],"anonymous":false},{"type":"event","name":"ProposalThresholdSet","inputs":[{"name":"oldProposalThreshold","type":"uint256","indexed":false,"internalType":"uint256"},{"name":"newProposalThreshold","type":"uint256","indexed":false,"internalType":"uint256"}],"anonymous":false},{"type":"event","name":"QuorumNumeratorUpdated","inputs":[{"name":"oldQuorumNumerator","type":"uint256","indexed":false,"internalType":"uint256"},{"name":"newQuorumNumerator","type":"uint256","indexed":false,"internalType":"uint256"}],"anonymous":false},{"type":"event","name":"VoteCast","inputs":[{"name":"voter","type":"address","indexed":true,"internalType":"address"},{"name":"proposalId","type":"uint256","indexed":false,"internalType":"uint256"},{"name":"support","type":"uint8","indexed":false,"internalType":"uint8"},{"name":"weight","type":"uint256","indexed":false,"internalType":"uint256"},{"name":"reason","type":"string","indexed":false,"internalType":"string"}],"anonymous":false},{"type":"event","name":"VoteCastWithParams","inputs":[{"name":"voter","type":"address","indexed":true,"internalType":"address"},{"name":"proposalId","type":"uint256","indexed":false,"internalType":"uint256"},{"name":"support","type":"uint8","indexed":false,"internalType":"uint8"},{"name":"weight","type":"uint256","indexed":false,"internalType":"uint256"},{"name":"reason","type":"string","indexed":false,"internalType":"string"},{"name":"params","type":"bytes","indexed":false,"internalType":"bytes"}],"anonymous":false},{"type":"event","name":"VotingDelaySet","inputs":[{"name":"oldVotingDelay","type":"uint256","indexed":false,"internalType":"uint256"},{"name":"newVotingDelay","type":"uint256","indexed":false,"internalType":"uint256"}],"anonymous":false},{"type":"event","name":"VotingPeriodSet","inputs":[{"name":"oldVotingPeriod","type":"uint256","indexed":false,"internalType":"uint256"},{"name":"newVotingPeriod","type":"uint256","indexed":false,"internalType":"uint256"}],"anonymous":false},{"type":"error","name":"CheckpointUnorderedInsertion","inputs":[]},{"type":"error","name":"FailedInnerCall","inputs":[]},{"type":"error","name":"GovernorAlreadyCastVote","inputs":[{"name":"voter","type":"address","internalType":"address"}]},{"type":"error","name":"GovernorAlreadyQueuedProposal","inputs":[{"name":"proposalId","type":"uint256","internalType":"uint256"}]},{"type":"error","name":"GovernorDisabledDeposit","inputs":[]},{"type":"error","name":"GovernorInsufficientProposerVotes","inputs":[{"name":"proposer","type":"address","internalType":"address"},{"name":"votes","type":"uint256","internalType":"uint256"},{"name":"threshold","type":"uint256","internalType":"uint256"}]},{"type":"error","name":"GovernorInvalidProposalLength","inputs":[{"name":"targets","type":"uint256","internalType":"uint256"},{"name":"calldatas","type":"uint256","internalType":"uint256"},{"name":"values","type":"uint256","internalType":"uint256"}]},{"type":"error","name":"GovernorInvalidQuorumFraction","inputs":[{"name":"quorumNumerator","type":"uint256","internalType":"uint256"},{"name":"quorumDenominator","type":"uint256","internalType":"uint256"}]},{"type":"error","name":"GovernorInvalidSignature","inputs":[{"name":"voter","type":"address","internalType":"address"}]},{"type":"error","name":"GovernorInvalidVoteType","inputs":[]},{"type":"error","name":"GovernorInvalidVotingPeriod","inputs":[{"name":"votingPeriod","type":"uint256","internalType":"uint256"}]},{"type":"error","name":"GovernorNonexistentProposal","inputs":[{"name":"proposalId","type":"uint256","internalType":"uint256"}]},{"type":"error","name":"GovernorNotQueuedProposal","inputs":[{"name":"proposalId","type":"uint256","internalType":"uint256"}]},{"type":"error","name":"GovernorOnlyExecutor","inputs":[{"name":"account","type":"address","internalType":"address"}]},{"type":"error","name":"GovernorOnlyProposer","inputs":[{"name":"account","type":"address","internalType":"address"}]},{"type":"error","name":"GovernorQueueNotImplemented","inputs":[]},{"type":"error","name":"GovernorRestrictedProposer","inputs":[{"name":"proposer","type":"address","internalType":"address"}]},{"type":"error","name":"GovernorUnexpectedProposalState","inputs":[{"name":"proposalId","type":"uint256","internalType":"uint256"},{"name":"current","type":"uint8","internalType":"enum IGovernor.ProposalState"},{"name":"expectedStates","type":"bytes32","internalType":"bytes32"}]},{"type":"error","name":"InvalidAccountNonce","inputs":[{"name":"account","type":"address","internalType":"address"},{"name":"currentNonce","type":"uint256","internalType":"uint256"}]},{"type":"error","name":"InvalidShortString","inputs":[]},{"type":"error","name":"QueueEmpty","inputs":[]},{"type":"error","name":"QueueFull","inputs":[]},{"type":"error","name":"SafeCastOverflowedUintDowncast","inputs":[{"name":"bits","type":"uint8","internalType":"uint8"},{"name":"value","type":"uint256","internalType":"uint256"}]},{"type":"error","name":"StringTooLong","inputs":[{"name":"str","type":"string","internalType":"string"}]}],"bytecode":{"object":"0x610180604052346100b15761001e610015610118565b939290926101ac565b604051613c1e9081610b72823960805181612d2b015260a05181612de2015260c05181612cf5015260e05181612d7a01526101005181612da001526101205181611165015261014051816111910152610160518181816113f50152818161184b0152818161198a01528181611a2c015281816120cb01528181612419015281816127be01528181612a350152612bb10152f35b600080fd5b634e487b7160e01b600052604160045260246000fd5b601f909101601f19168101906001600160401b038211908210176100ef57604052565b6100b6565b604051906101036040836100cc565b565b519065ffffffffffff821682036100b157565b6147b09060a0823803928360405194859261013382856100cc565b8339810103126100b1578151916001600160a01b03831683036100b15761015c60208201610105565b9260408201519263ffffffff841684036100b15760806060840151930151919493929190565b604051906101916040836100cc565b600f8252565b604051906101a66040836100cc565b60018252565b919261028f610103959461028a610294946102856101c8610182565b602081016e159a5c9d1d585b141c9bdd1bd8dbdb608a1b81526101e9610197565b906020820190603160f81b82526101ff846105ff565b6101205261020c836106f9565b6101405283519020918260e05251902080610100524660a0526040519060208201927f8b73c3c69bb8fe3d512ecc4cf759cc79239f7b179b0ffacaa9a75d522b39400f8452604083015260608201524660808201523060a082015260a0815261027660c0826100cc565b5190206080523060c052610332565b6104f5565b610542565b6105c6565b6001600160a01b03166101605261041c565b90600182811c921680156102d6575b60208310146102c057565b634e487b7160e01b600052602260045260246000fd5b91607f16916102b5565b601f82116102ed57505050565b6000526020600020906020601f840160051c83019310610328575b601f0160051c01905b81811061031c575050565b60008155600101610311565b9091508190610308565b80519091906001600160401b0381116100ef5761035b816103546003546102a6565b60036102e0565b602092601f821160011461039d5761038d92938291600092610392575b50508160011b916000199060031b1c19161790565b600355565b015190503880610378565b6003600052601f198216937fc2575a0e9e593c00f959f8c92f12db2869c3395a3b0502d05e2516446f71f85b9160005b86811061040457508360019596106103eb575b505050811b01600355565b015160001960f88460031b161c191690553880806103e0565b919260206001819286850151815501940192016103cd565b9061271082116104da57600c54600092908061047757509091506000805160206147908339815191529060005b6104636104546107f1565b61045d84610896565b90610a25565b5050604080519182526020820192909252a1565b806000198101116104c657600c9093527fdf6966c971051c3d54ec59162606531493a51404a002842f56009d7e5cf4a8c69092015490916000805160206147908339815191529160301c610449565b634e487b7160e01b84526011600452602484fd5b5063243e544560e01b60005260045261271060245260446000fd5b6008547fc565b045403dc03c2eea82b81a0465edad9e2e7fc4d97e11421c209da93d7a93604065ffffffffffff81519481851686521693846020820152a165ffffffffffff191617600855565b63ffffffff81169081156105b05769ffffffff000000000000907f7e3f7f0708a84de9203036abaa450dccc85ad5ff52f78c170f3edb55cf5e882860406008549481519063ffffffff8760301c1682526020820152a160301b169069ffffffff000000000000191617600855565b63f1cfbf0560e01b600052600060045260246000fd5b60075460408051918252602082018390527fccb45da8d5717e6c4544694297c4ba5cf151d455c9bb0ed4fc7a38411bc0546191a1600755565b9081516020811060001461061b575090610618906108ec565b90565b6001600160401b0381116100ef5761063f816106386000546102a6565b60006102e0565b602092601f821160011461067857610670929382916000926103925750508160011b916000199060031b1c19161790565b60005560ff90565b60008052601f198216937f290decd9548b62a8d60345a988386fc84ba6bc95484008f6362f93160ef3e5639160005b8681106106e157508360019596106106c8575b505050811b0160005560ff90565b015160001960f88460031b161c191690553880806106ba565b919260206001819286850151815501940192016106a7565b90815160208110600014610712575090610618906108ec565b6001600160401b0381116100ef576107368161072f6001546102a6565b60016102e0565b602092601f821160011461076f57610767929382916000926103925750508160011b916000199060031b1c19161790565b60015560ff90565b6001600052601f198216937fb10e2d527612073b26eecdfd717e6a320cf44b4afac2b0732d9fcbe2b7fa0cf69160005b8681106107d957508360019596106107c0575b505050811b0160015560ff90565b015160001960f88460031b161c191690553880806107b2565b9192602060018192868501518155019401920161079f565b610160516040516324776b7d60e21b815290602090829060049082906001600160a01b03165afa6000918161085a575b50610618575065ffffffffffff43116108405765ffffffffffff431690565b6306dfcc6560e41b60005260306004524360245260446000fd5b9091506020813d60201161088e575b81610876602093836100cc565b810103126100b15761088790610105565b9038610821565b3d9150610869565b6001600160d01b0381116108b0576001600160d01b031690565b6306dfcc6560e41b60005260d060045260245260446000fd5b6020815191015190602081106108dd575090565b6000199060200360031b1b1690565b601f815111610904576108fe816108c9565b90511790565b6040519063305a27a960e01b8252602060048301528181519182602483015260005b8381106109485750508160006044809484010152601f80199101168101030190fd5b60208282018101516044878401015285935001610926565b60001981019190821161096f57565b634e487b7160e01b600052601160045260246000fd5b908154680100000000000000008110156100ef57600181018084558110156109d95760009283526020928390208251929093015160301b65ffffffffffff191665ffffffffffff9290921691909117910155565b634e487b7160e01b600052603260045260246000fd5b604080519192919081016001600160401b038111828210176100ef57604052915465ffffffffffff8116835260301c6020830152565b600c54919291908115610b475781610a78610a73610a4965ffffffffffff95610960565b600c6000527fdf6966c971051c3d54ec59162606531493a51404a002842f56009d7e5cf4a8c70190565b6109ef565b90610a89825165ffffffffffff1690565b8484169485911611610b365785602093610af795610abb610ab0865165ffffffffffff1690565b65ffffffffffff1690565b03610afb5750610ad0610a49610ae993610960565b9065ffffffffffff82549181199060301b169116179055565b01516001600160d01b031690565b9190565b9050610b319150610b1b610b0d6100f4565b65ffffffffffff9092168252565b6001600160d01b038716818501525b600c610985565b610ae9565b632520601d60e01b60005260046000fd5b610b6b9150610b57610b0d6100f4565b6001600160d01b0384166020820152610b2a565b6000919056fe6080604052600436101561001b575b361561001957600080fd5b005b60003560e01c806301ffc9a71461035b57806302a251a31461035657806306f3f9e61461035157806306fdde031461034c578063143489d014610347578063150b7a0214610342578063160cbed71461033d57806316e9eaec146103385780632656227d146103335780632d63f6931461032e5780632e82db94146103295780632fe3e261146103245780633932abb11461031f5780633e4f49e61461031a57806340e58ee5146103155780634385963214610310578063452115d61461030b5780634bf5d7e914610306578063544ffc9c1461030157806354fd4d50146102fc57806356781388146102f75780635b8d0e0d146102f25780635f398a14146102ed57806360c4247f146102e857806379051887146102e35780637b3c71d3146102de5780637d5e81e2146102d95780637ecebe00146102d457806384b0196e146102cf5780638ff262e3146102ca57806391ddadf4146102c557806397c3d334146102c05780639a802a6d146102bb578063a7713a70146102b6578063a9a95294146102b1578063ab58fb8e146102ac578063b58131b0146102a7578063bc197c81146102a2578063c01f9e371461029d578063c28bc2fa14610298578063c59057e414610293578063da35c6641461028e578063dd4e2ba514610289578063ddf0b00914610284578063deaaa7cc1461027f578063e540d01d1461027a578063eb9019d414610275578063ece40cc114610270578063f23a6e611461026b578063f8ce560a14610266578063fc0c546a146102615763fe0d94c10361000e57611a5b565b611a16565b611959565b611904565b6118af565b6117ea565b611740565b611705565b6116bd565b61165e565b611640565b611624565b6115bc565b61159e565b611509565b6114eb565b6114b6565b61149a565b61146e565b611387565b61136a565b61133f565b611224565b61114d565b611113565b611065565b611010565b610f9e565b610f70565b610ef0565b610e4e565b610de7565b610d94565b610d51565b610d21565b610d05565b610caf565b610c5d565b610c2e565b610bdf565b610ba4565b610b02565b610acb565b610aac565b610a7d565b61095d565b610739565b6105fa565b61051d565b6103f5565b6103ce565b346103c95760203660031901126103c95760043563ffffffff60e01b81168091036103c9576020906332a2ad4360e11b81149081156103b8575b81156103a7575b506040519015158152f35b6301ffc9a760e01b1490503861039c565b630271189760e51b81149150610395565b600080fd5b346103c95760003660031901126103c957602063ffffffff60085460301c16604051908152f35b346103c95760203660031901126103c957600435610411612541565b61271081116104a7576001600160d01b0361042a612c63565b1690610434612404565b916001600160d01b03821161048d577f0553476bf02ef2726e8ce5ced78d63e26e602e4a2257b1f559418e24b463399792610479906001600160d01b038416906132fe565b5050604080519182526020820192909252a1005b506306dfcc6560e41b60005260d060045260245260446000fd5b63243e544560e01b60005260045261271060245260446000fd5b60005b8381106104d45750506000910152565b81810151838201526020016104c4565b906020916104fd815180928185528580860191016104c1565b601f01601f1916010190565b90602061051a9281815201906104e4565b90565b346103c95760003660031901126103c957604051600060035461053f81611aa1565b80845290600181169081156105d65750600114610577575b6105738361056781850382610686565b60405191829182610509565b0390f35b600360009081527fc2575a0e9e593c00f959f8c92f12db2869c3395a3b0502d05e2516446f71f85b939250905b8082106105bc57509091508101602001610567610557565b9192600181602092548385880101520191019092916105a4565b60ff191660208086019190915291151560051b840190910191506105679050610557565b346103c95760203660031901126103c9576004356000526004602052602060018060a01b0360406000205416604051908152f35b600435906001600160a01b03821682036103c957565b602435906001600160a01b03821682036103c957565b604435906001600160a01b03821682036103c957565b634e487b7160e01b600052604160045260246000fd5b90601f801991011681019081106001600160401b038211176106a757604052565b610670565b604051906106bb604083610686565b565b604051906106bb608083610686565b6001600160401b0381116106a757601f01601f191660200190565b9291926106f3826106cc565b916107016040519384610686565b8294818452818301116103c9578281602093846000960137010152565b9080601f830112156103c95781602061051a933591016106e7565b346103c95760803660031901126103c95761075261062e565b5061075b610644565b506064356001600160401b0381116103c95761077b90369060040161071e565b50604051630a85bd0160e11b8152602090f35b6001600160401b0381116106a75760051b60200190565b9080601f830112156103c9578135906107bd8261078e565b926107cb6040519485610686565b82845260208085019360051b8201019182116103c957602001915b8183106107f35750505090565b82356001600160a01b03811681036103c9578152602092830192016107e6565b9080601f830112156103c957813561082a8161078e565b926108386040519485610686565b81845260208085019260051b8201019283116103c957602001905b8282106108605750505090565b8135815260209182019101610853565b9080601f830112156103c95781356108878161078e565b926108956040519485610686565b81845260208085019260051b820101918383116103c95760208201905b8382106108c157505050505090565b81356001600160401b0381116103c9576020916108e38784809488010161071e565b8152019101906108b2565b60806003198201126103c9576004356001600160401b0381116103c95781610918916004016107a5565b916024356001600160401b0381116103c9578261093791600401610813565b91604435906001600160401b0382116103c95761095691600401610870565b9060643590565b346103c95761096b366108ee565b92919091611b5e565b906020808351928381520192019060005b8181106109925750505090565b82516001600160a01b0316845260209384019390920191600101610985565b906020808351928381520192019060005b8181106109cf5750505090565b82518452602093840193909201916001016109c2565b9080602083519182815201916020808360051b8301019401926000915b838310610a1157505050505090565b9091929394602080610a2f600193601f1986820301875289516104e4565b97019301930191939290610a02565b949392610a6a606093610a5c610a789460808a5260808a0190610974565b9088820360208a01526109b1565b9086820360408801526109e5565b930152565b346103c95760203660031901126103c957610573610a9c600435611c8a565b9060409492945194859485610a3e565b6020610ac3610aba366108ee565b92919091611d48565b604051908152f35b346103c95760203660031901126103c9576004356000526004602052602065ffffffffffff60406000205460a01c16604051908152f35b346103c95760203660031901126103c957600435600954811015610b9f57610b879060096000527f6e1540171b6c0c960b71a7020d9f60077f6af931a8bbf590da0223dacf75c7af0154610b95610b5882611c8a565b9392959091610b79604051978897885260a0602089015260a0880190610974565b9086820360408801526109b1565b9084820360608601526109e5565b9060808301520390f35b611d1e565b346103c95760003660031901126103c95760206040517f3e83946653575f9a39005e1545185629e92736b7528ab20ca3816f315424a8118152f35b346103c95760003660031901126103c957602065ffffffffffff60085416604051908152f35b634e487b7160e01b600052602160045260246000fd5b6008811015610c2957602452565b610c05565b346103c95760203660031901126103c957610c4a600435611e7b565b6040516008821015610c29576020918152f35b346103c95760203660031901126103c957600435600052600a6020526100196040600020600381015490610c9081611b84565b90610ca96002610ca260018401611bd8565b9201611c23565b91611fa0565b346103c95760403660031901126103c957602060ff610cf9600435610cd2610644565b90600052600b845260036040600020019060018060a01b0316600052602052604060002090565b54166040519015158152f35b346103c9576020610ac3610d18366108ee565b92919091611fa0565b346103c95760003660031901126103c957610573610d3d6120b6565b6040519182916020835260208301906104e4565b346103c95760203660031901126103c957600435600052600b60205260606040600020805490600260018201549101549060405192835260208301526040820152f35b346103c95760003660031901126103c9576105736040805190610db78183610686565b60018252603160f81b6020830152519182916020835260208301906104e4565b6024359060ff821682036103c957565b346103c95760403660031901126103c9576020610ac3600435610e08610dd7565b60405191610e168584610686565b60008352339061284e565b9181601f840112156103c9578235916001600160401b0383116103c957602083818601950101116103c957565b346103c95760c03660031901126103c957600435610e6a610dd7565b90610e7361065a565b906064356001600160401b0381116103c957610e93903690600401610e21565b6084356001600160401b0381116103c957610eb290369060040161071e565b9160a435946001600160401b0386116103c95761057396610eda610ee097369060040161071e565b95612193565b6040519081529081906020820190565b346103c95760803660031901126103c957600435610f0c610dd7565b906044356001600160401b0381116103c957610f2c903690600401610e21565b9190926064356001600160401b0381116103c957610f6594610f55610f5d92369060040161071e565b9436916106e7565b9133906129ca565b604051908152602090f35b346103c95760203660031901126103c9576020610ac36004356122bd565b65ffffffffffff8116036103c957565b346103c95760203660031901126103c957600435610fbb81610f8e565b610fc3612541565b6008547fc565b045403dc03c2eea82b81a0465edad9e2e7fc4d97e11421c209da93d7a93604065ffffffffffff81519481851686521693846020820152a165ffffffffffff191617600855005b346103c95760603660031901126103c95760043561102c610dd7565b90604435906001600160401b0382116103c95760209261105d611056610ac3943690600401610e21565b36916106e7565b91339061284e565b346103c95760803660031901126103c9576004356001600160401b0381116103c9576110959036906004016107a5565b6024356001600160401b0381116103c9576110b4903690600401610813565b906044356001600160401b0381116103c9576110d4903690600401610870565b90606435916001600160401b0383116103c957366023840112156103c9576105739361110d610ee09436906024816004013591016106e7565b92612b3d565b346103c95760203660031901126103c9576001600160a01b0361113461062e565b1660005260026020526020604060002054604051908152f35b346103c95760003660031901126103c95760e06111897f00000000000000000000000000000000000000000000000000000000000000006131e7565b6105736111b57f0000000000000000000000000000000000000000000000000000000000000000613244565b916112036020936111f5604051936111cd8786610686565b60008552601f1987013688870137604051978897600f60f81b895288015260e08701906104e4565b9085820360408701526104e4565b90466060850152306080850152600060a085015283820360c08501526109b1565b346103c95760803660031901126103c957600435611240610dd7565b9061124961065a565b916064356001600160401b0381116103c9576112fe61126f61130292369060040161071e565b6001600160a01b03861660009081526002602052604090208054600181019091556112f89060405160208101917ff2aad550cf55f045cb27e9c559f9889fdfb6e6cdaa032301d6ea397784ae51d7835288604083015260ff8816606083015260018060a01b038a16608083015260a082015260a081526112f060c082610686565b51902061286c565b8661289c565b1590565b61131d5790610ee09161057393611317612066565b9261284e565b6394ab6c0760e01b6000526001600160a01b03831660045260246000fd5b6000fd5b346103c95760003660031901126103c957602061135a612404565b65ffffffffffff60405191168152f35b346103c95760003660031901126103c95760206040516127108152f35b346103c95760603660031901126103c9576113a061062e565b6024356044356001600160401b0381116103c9576113c290369060040161071e565b50604051630748d63560e31b81526001600160a01b039283166004820152602481019190915290602090829060449082907f0000000000000000000000000000000000000000000000000000000000000000165afa8015611469576105739160009161143a575b506040519081529081906020820190565b61145c915060203d602011611462575b6114548183610686565b810190612c54565b38611429565b503d61144a565b61205a565b346103c95760003660031901126103c95760206001600160d01b03611491612c63565b16604051908152f35b346103c95760203660031901126103c957602060405160008152f35b346103c95760203660031901126103c9576020610ac3600435600052600460205265ffffffffffff6001604060002001541690565b346103c95760003660031901126103c9576020600754604051908152f35b346103c95760a03660031901126103c95761152261062e565b5061152b610644565b506044356001600160401b0381116103c95761154b903690600401610813565b506064356001600160401b0381116103c95761156b903690600401610813565b506084356001600160401b0381116103c95761158b90369060040161071e565b5060405163bc197c8160e01b8152602090f35b346103c95760203660031901126103c9576020610ac3600435612498565b60603660031901126103c9576115d061062e565b6024356044356001600160401b0381116103c957610019926000926115fa84933690600401610e21565b9190611604612541565b826040519384928337810185815203925af161161e6124e3565b90612caa565b346103c9576020610ac3611637366108ee565b92919091612513565b346103c95760003660031901126103c9576020600954604051908152f35b346103c95760003660031901126103c95761057360408051906116818183610686565b602082527f737570706f72743d627261766f2671756f72756d3d666f722c6162737461696e6020830152519182916020835260208301906104e4565b346103c95760203660031901126103c957600435600052600a60205260406000206003810154906116ed81611b84565b906116ff6002610ca260018401611bd8565b91611b5e565b346103c95760003660031901126103c95760206040517ff2aad550cf55f045cb27e9c559f9889fdfb6e6cdaa032301d6ea397784ae51d78152f35b346103c95760203660031901126103c95760043563ffffffff8116908181036103c95761176b612541565b81156117d45769ffffffff000000000000907f7e3f7f0708a84de9203036abaa450dccc85ad5ff52f78c170f3edb55cf5e882860406008549481519063ffffffff8760301c1682526020820152a160301b169069ffffffff000000000000191617600855600080f35b63f1cfbf0560e01b600052600060045260246000fd5b346103c95760403660031901126103c95761180361062e565b6024359060209160006040516118198582610686565b52604051630748d63560e31b81526001600160a01b0392831660048201526024810191909152908290829060449082907f0000000000000000000000000000000000000000000000000000000000000000165afa9081156114695761057392600092611892575b50506040519081529081906020820190565b6118a89250803d10611462576114548183610686565b3880611880565b346103c95760203660031901126103c9576004356118cb612541565b60075460408051918252602082018390527fccb45da8d5717e6c4544694297c4ba5cf151d455c9bb0ed4fc7a38411bc0546191a1600755005b346103c95760a03660031901126103c95761191d61062e565b50611926610644565b506084356001600160401b0381116103c95761194690369060040161071e565b5060405163f23a6e6160e01b8152602090f35b346103c95760203660031901126103c957600435604051632394e7a360e21b815260048101829052906020826024817f00000000000000000000000000000000000000000000000000000000000000006001600160a01b03165afa918215611469576000926119f1575b506119cd906122bd565b908181029181830414901517156119ec57610573906127109004610ee0565b612289565b6119cd919250611a0f9060203d602011611462576114548183610686565b91906119c3565b346103c95760003660031901126103c9576040517f00000000000000000000000000000000000000000000000000000000000000006001600160a01b03168152602090f35b60203660031901126103c957600435600052600a6020526100196040600020600381015490611a8981611b84565b90611a9b6002610ca260018401611bd8565b91611d48565b90600182811c92168015611ad1575b6020831014611abb57565b634e487b7160e01b600052602260045260246000fd5b91607f1691611ab0565b60009291815491611aeb83611aa1565b8083529260018116908115611b415750600114611b0757505050565b60009081526020812093945091925b838310611b27575060209250010190565b600181602092949394548385870101520191019190611b16565b915050602093945060ff929192191683830152151560051b010190565b91611b729391611b6d93612513565b61258c565b50634844252360e11b60005260046000fd5b906040519182815491828252602082019060005260206000209260005b818110611bb65750506106bb92500383610686565b84546001600160a01b0316835260019485019487945060209093019201611ba1565b906040519182815491828252602082019060005260206000209260005b818110611c0a5750506106bb92500383610686565b8454835260019485019487945060209093019201611bf5565b908154611c2f8161078e565b92611c3d6040519485610686565b818452602084019060005260206000206000915b838310611c5e5750505050565b600160208192604051611c7c81611c758189611adb565b0382610686565b815201920192019190611c51565b80600052600a60205260406000209160405190608082018281106001600160401b038211176106a757604052611cbf84611b84565b8252611ccd60018501611bd8565b91602081019283526003611ce360028701611c23565b9560408301968752015493606082019480865215611d0a5750519151935192519193929190565b636ad0607560e01b60005260045260246000fd5b634e487b7160e01b600052603260045260246000fd5b8051821015610b9f5760209160051b010190565b919092611d5790828585612513565b92602092611d66603086612652565b50611d91611d7e866000526004602052604060002090565b805460ff60f01b1916600160f01b179055565b6000935b5090611da192916126f5565b80611dea575b611de0575b6040518181527f712ae1383f79ac853f8d882153778e0260ef8f03b504e2866e0593e04d2b291f9080602081015b0390a190565b6000600555611dac565b50611e066112fe6005546001600160801b0381169060801c1490565b611da7565b8451811015611e6b5760019030611e41611e35611e28848a611d34565b516001600160a01b031690565b6001600160a01b031690565b14611e4d575b01611e0b565b611e66611e5a8289611d34565b518a8151910120612692565b611e47565b5091955093909291611da1611d95565b611e8f816000526004602052604060002090565b5460f881901c9060f01c60ff16611f9957611f9357611ed8611ecd611ebe836000526004602052604060002090565b5460a01c65ffffffffffff1690565b65ffffffffffff1690565b8015611f7d57611ee9611ecd612404565b80911015611f7657611efa82612498565b10611f055750600190565b611f116112fe82612773565b8015611f51575b15611f235750600390565b611f4390600052600460205265ffffffffffff6001604060002001541690565b611f4c57600490565b600590565b50611f716112fe82600052600b6020526040600020600181015490541090565b611f18565b5050600090565b636ad0607560e01b600052600482905260246000fd5b50600290565b5050600790565b929190611faf83838387612513565b611fb8816125ce565b506000908152600460205260409020546001600160a01b0316330361204557611fe093612513565b611feb603b82612652565b50612000816000526004602052604060002090565b80546001600160f81b0316600160f81b1790556040518181527f789cf55be980739dad1d0699b93b58e806b51c9d96619bfa8fe0a28abaa7b30c908060208101611dda565b63233d98e360e01b6000523360045260246000fd5b6040513d6000823e3d90fd5b60405190612075602083610686565b60008252565b6040519061208a604083610686565b601d82527f6d6f64653d626c6f636b6e756d6265722666726f6d3d64656661756c740000006020830152565b604051634bf5d7e960e01b81526000816004817f00000000000000000000000000000000000000000000000000000000000000006001600160a01b03165afa6000918161210c575b5061051a575061051a61207b565b90913d8082843e61211d8184610686565b82019160208184031261218b578051906001600160401b03821161218f570182601f8201121561218b57805191612153836106cc565b936121616040519586610686565b8385526020848401011161218857509061218191602080850191016104c1565b90386120fe565b80fd5b5080fd5b8280fd5b9390929196956112fe6122509161224a8a6121c98160018060a01b03166000526002602052604060002080549060018201905590565b6121d436888a6106e7565b602081519101208b5160208d0120906040519260208401947f3e83946653575f9a39005e1545185629e92736b7528ab20ca3816f315424a81186528d604086015260ff8d16606086015260018060a01b0316608085015260a084015260c083015260e082015260e081526112f061010082610686565b8a61289c565b61226b5761051a9596916122659136916106e7565b926129ca565b6394ab6c0760e01b6000526001600160a01b03871660045260246000fd5b634e487b7160e01b600052601160045260246000fd5b6000198101919082116119ec57565b6027198101919082116119ec57565b600c549060001982018281116119ec57821115610b9f57600c6000527fdf6966c971051c3d54ec59162606531493a51404a002842f56009d7e5cf4a8c68201548165ffffffffffff821611156123fb575061231790612b0c565b6000829160058411612388575b61232e93506130a4565b806123395750600090565b61237c61237561234b61051a9361229f565b600c6000527fdf6966c971051c3d54ec59162606531493a51404a002842f56009d7e5cf4a8c70190565b5460301c90565b6001600160d01b031690565b919261239381612f2f565b81039081116119ec5761232e93600c60005265ffffffffffff827fdf6966c971051c3d54ec59162606531493a51404a002842f56009d7e5cf4a8c701541665ffffffffffff8516106000146123e9575091612324565b9291506123f590612758565b90612324565b91505060301c90565b6040516324776b7d60e21b81526020816004817f00000000000000000000000000000000000000000000000000000000000000006001600160a01b03165afa6000918161245b575b5061051a575061051a43612b0c565b9091506020813d602011612490575b8161247760209383610686565b810103126103c9575161248981610f8e565b903861244c565b3d915061246a565b80600052600460205265ffffffffffff60406000205460a01c1690600052600460205263ffffffff60406000205460d01c160165ffffffffffff81116119ec5765ffffffffffff1690565b3d1561250e573d906124f4826106cc565b916125026040519384610686565b82523d6000602084013e565b606090565b929061252d61253b92604051948593602085019788610a3e565b03601f198101835282610686565b51902090565b33300361254a57565b6347096e4760e01b6000523360045260246000fd5b6008811015610c295760ff600191161b90565b600452606491906008811015610c29576024526000604452565b61259581611e7b565b9060106125a18361255f565b16156125ab575090565b6331b75e4d60e01b6000526004526125c39150610c1b565b601060445260646000fd5b6125d781611e7b565b9060016125e38361255f565b16156125ed575090565b6331b75e4d60e01b6000526004526126059150610c1b565b600160445260646000fd5b61261981611e7b565b9060026126258361255f565b161561262f575090565b6331b75e4d60e01b6000526004526126479150610c1b565b600260445260646000fd5b9061265c82611e7b565b91816126678461255f565b161561267257505090565b6331b75e4d60e01b60005260045261268982610c1b565b60445260646000fd5b600554908160801c6001600160801b036001820193166001600160801b038416146126e45760005260066020526040600020556001600160801b036005549181199082199060801b1616911617600555565b638acb5f2760e01b60005260046000fd5b92919260005b81518110156127515760019061274a6000806001600160a01b0361271f8588611d34565b511661272b8589611d34565b5190612737868c611d34565b5191602083519301915af161161e6124e3565b50016126fb565b5050509050565b90600182018092116119ec57565b919082018092116119ec57565b80600052600b602052604060002090600052600460205265ffffffffffff60406000205460a01c1660405190632394e7a360e21b825280600483015260208260248160018060a01b037f0000000000000000000000000000000000000000000000000000000000000000165afa91821561146957600092612829575b506127f9906122bd565b908181029181830414901517156119ec57612824906127109004916002600182015491015490612766565b101590565b6127f99192506128479060203d602011611462576114548183610686565b91906127ef565b9161051a939160405193612863602086610686565b600085526129ca565b604290612877612cf2565b906040519161190160f01b8352600283015260228201522090565b60041115610c2957565b906128a78382612e08565b506128b481959295612892565b159384612954575b5083156128ca575b50505090565b600093509061252d6129038594936040519283916020830195630b135d3f60e11b875260248401526040604484015260648301906104e4565b51915afa61290f6124e3565b81612946575b81612924575b503880806128c4565b90506020818051810103126103c95760200151630b135d3f60e11b143861291b565b905060208151101590612915565b6001600160a01b038481169116149350386128bc565b93909260ff6129969361051a97958752166020860152604085015260a0606085015260a08401906104e4565b9160808184039101526104e4565b909260ff60809361051a96958452166020830152604082015281606082015201906104e4565b93929190936129d881612610565b5080600052600460205265ffffffffffff612a01604060002065ffffffffffff905460a01c1690565b169360405195630748d63560e31b875260018060a01b03811695866004890152602488015260208760448160018060a01b037f0000000000000000000000000000000000000000000000000000000000000000165afa96871561146957600097612ae5575b508684612a739285612e44565b8051612ab25750612aac7fb8e138887d0aa13bab447e82de9d5c1777041ecd21ca36ba824ff1e6c07ddda49386604051948594856129a4565b0390a290565b612aac907fe2babfbac5889a709b63bb7f598b324e08bc5a4fb9ec647fb3cbc9ec07eb871294876040519586958661296a565b84975090612b04612a739260203d602011611462576114548183610686565b975090612a66565b65ffffffffffff8111612b245765ffffffffffff1690565b6306dfcc6560e41b600052603060045260245260446000fd5b9193929093612b4c823361312f565b15612c3f5760001965ffffffffffff612b63612404565b16019465ffffffffffff86116119ec5760009586604051612b85602082610686565b52604051630748d63560e31b815233600482015265ffffffffffff9190911660248201526020816044817f00000000000000000000000000000000000000000000000000000000000000006001600160a01b03165afa9687156114695796612c1e575b50600754808710612c01575061051a9495503393613894565b636121770b60e11b60005233600452602487905260445260646000fd5b612c3891965060203d602011611462576114548183610686565b9438612be8565b63d9b3955760e01b6000523360045260246000fd5b908160209103126103c9575190565b600c5480612c715750600090565b806000198101116119ec57600c6000527fdf6966c971051c3d54ec59162606531493a51404a002842f56009d7e5cf4a8c6015460301c90565b9091906106bb5750805115612cc157805190602001fd5b630a12f52160e11b60005260046000fd5b8115612cdc570490565b634e487b7160e01b600052601260045260246000fd5b307f00000000000000000000000000000000000000000000000000000000000000006001600160a01b03161480612ddf575b15612d4d577f000000000000000000000000000000000000000000000000000000000000000090565b60405160208101907f8b73c3c69bb8fe3d512ecc4cf759cc79239f7b179b0ffacaa9a75d522b39400f82527f000000000000000000000000000000000000000000000000000000000000000060408201527f000000000000000000000000000000000000000000000000000000000000000060608201524660808201523060a082015260a0815261253b60c082610686565b507f00000000000000000000000000000000000000000000000000000000000000004614612d24565b8151919060418303612e3957612e3292506020820151906060604084015193015160001a90613415565b9192909190565b505060009160029190565b612e5a60ff91600052600b602052604060002090565b92169060038214612f29576001600160a01b038116600090815260038401602081905260409091205460ff16612f0b57612eb691612ea9919060018060a01b0316600052602052604060002090565b805460ff19166001179055565b80612ecc575090612ec8908254612766565b9055565b60018103612ee457506001612ec89101918254612766565b600203612efa576002612ec89101918254612766565b6303599be160e11b60005260046000fd5b6371c6af4960e01b6000526001600160a01b03821660045260246000fd5b50505050565b801561309e5761051a9061303461302d61302361301961300f613005612ffb612ff16001612fdf60008b608081901c80613090575b5080612f73612fd59260401c90565b80613083575b50612f848160201c90565b80613076575b50612f958160101c90565b80613069575b50612fa68160081c90565b8061305c575b50612fb78160041c90565b8061304f575b50612fc88160021c90565b80613042575b5060011c90565b61303a5760011c90565b1b612fea818b612cd2565b0160011c90565b612fea818a612cd2565b612fea8189612cd2565b612fea8188612cd2565b612fea8187612cd2565b612fea8186612cd2565b612fea8185612cd2565b8092612cd2565b9061349e565b820160011c90565b6002915092019138612fce565b6004915092019138612fbd565b6008915092019138612fac565b6010915092019138612f9b565b6020915092019138612f8a565b6040915092019138612f79565b608092509050612fd5612f64565b50600090565b905b8281106130b257505090565b90918082169080831860011c82018092116119ec57600c6000527fdf6966c971051c3d54ec59162606531493a51404a002842f56009d7e5cf4a8c782015465ffffffffffff908116908516101561310c5750915b906130a6565b92915061311890612758565b90613106565b908151811015610b9f570160200190565b8151603481106131df5760131981840101516001600160a01b0319166b1b91f1b211f2119351b859f160a31b016131df579160009261316d816122ae565b915b81831061318a575050506001600160a01b0391821691161490565b9091936131b06131ab61319d878561311e565b516001600160f81b03191690565b6134b0565b90156131d45760019160ff9060041b6010600160a01b03169116179401919061316f565b505050505050600190565b505050600190565b60ff81146132315760ff811690601f821161322057604080519261320b8285610686565b6020808552840191601f190136833783525290565b632cd44ac360e21b60005260046000fd5b5060405161051a81611c75816000611adb565b60ff81146132685760ff811690601f821161322057604080519261320b8285610686565b5060405161051a81611c75816001611adb565b805490600160401b8210156106a75760018201815560008154831015610b9f579081526020902001815160209092015160301b65ffffffffffff191665ffffffffffff92909216919091179055565b90604051604081018181106001600160401b038211176106a757604052915465ffffffffffff8116835260301c6020830152565b600c549192919081156133eb578161332761332261234b65ffffffffffff9561229f565b6132ca565b90613338825165ffffffffffff1690565b84841694859116116133da578560209361339b9561335f611ecd865165ffffffffffff1690565b0361339f575061337461234b61338d9361229f565b9065ffffffffffff82549181199060301b169116179055565b01516001600160d01b031690565b9190565b90506133d591506133bf6133b16106ac565b65ffffffffffff9092168252565b6001600160d01b038716818501525b600c61327b565b61338d565b632520601d60e01b60005260046000fd5b61340f91506133fb6133b16106ac565b6001600160d01b03841660208201526133ce565b60009190565b91907f7fffffffffffffffffffffffffffffff5d576e7357a4501ddfe92f46681b20a08411613492579160209360809260ff60009560405194855216868401526040830152606082015282805260015afa15611469576000516001600160a01b038116156134865790600090600090565b50600090600190600090565b50505060009160039190565b90808210156134ab575090565b905090565b60f81c9081602f1080613524575b156134d057600191602f190160ff1690565b816040108061351a575b156134ec576001916036190160ff1690565b8160601080613510575b15613508576001916056190160ff1690565b600091508190565b50606782106134f6565b50604782106134da565b50603a82106134be565b600954600160401b8110156106a75760018101600955600954811015610b9f5760096000527f6e1540171b6c0c960b71a7020d9f60077f6af931a8bbf590da0223dacf75c7af0155565b818110613583575050565b60008155600101613578565b9181811061359c57505050565b6106bb9260005260206000209182019101613578565b8151916001600160401b0383116106a757600160401b83116106a7576020906135e08484548186558561358f565b0190600052602060002060005b8381106135fa5750505050565b6001906020845194019381840155016135ed565b9190601f811161361d57505050565b6106bb926000526020600020906020601f840160051c83019310613649575b601f0160051c0190613578565b909150819061363c565b91909182516001600160401b0381116106a75761367a816136748454611aa1565b8461360e565b6020601f82116001146136b7578190612ec89394956000926136ac575b50508160011b916000199060031b1c19161790565b015190503880613697565b601f198216906136cc84600052602060002090565b9160005b818110613708575095836001959697106136ef575b505050811b019055565b015160001960f88460031b161c191690553880806136e5565b9192602060018192868b0151815501940192016136d0565b815191600160401b83116106a757815483835580841061377d575b50602061374f910191600052602060002090565b6000915b8383106137605750505050565b600160208261377183945186613653565b01920192019190613753565b8260005283602060002091820191015b81811061379a575061373b565b806137a760019254611aa1565b806137b4575b500161378d565b601f811183146137ca5750600081555b386137ad565b6137ee9083601f6137e085600052602060002090565b920160051c82019101613578565b600081815260208120818355556137c4565b9080518051906001600160401b0382116106a757600160401b82116106a7576020906138318386548188558761358f565b0183600052602060002060005b838110613877575050505060608161385f60206003940151600186016135b2565b613870604082015160028601613720565b0151910155565b82516001600160a01b03168183015560209092019160010161383e565b9194939483516138ac60208601918220838587612513565b948451845190818114801590613a99575b8015613a91575b613a7257505065ffffffffffff6138e8611ebe886000526004602052604060002090565b16613a54577f7d84a6263ae0d98d3329bd7b46bb4e8d6f98cd35a7adb45c274c8b7fd5ebd5e086979861051a97613a118489613947613925612404565b65ffffffffffff613940611ecd65ffffffffffff6008541690565b9116612766565b8961396661395d63ffffffff60085460301c1690565b63ffffffff1690565b6139ef61397d886000526004602052604060002090565b80546001600160a01b0319166001600160a01b038b161781556139c66139a286612b0c565b825465ffffffffffff60a01b191660a09190911b65ffffffffffff60a01b16178255565b6139cf83613bbb565b815463ffffffff60d01b191660d09190911b63ffffffff60d01b16179055565b8c613a046139fd8651613aa4565b9285612766565b94604051998a998a613aee565b0390a1613a1d8761352e565b51902091613a296106bd565b938452602084015260408301526060820152613a4f83600052600a602052604060002090565b613800565b61133b86613a6181611e7b565b6331b75e4d60e01b60005290612572565b8451630447b05d60e41b60005260049190915260245260445260646000fd5b5080156138c4565b5084518114156138bd565b90613aae8261078e565b613abb6040519182610686565b8281528092613acc601f199161078e565b019060005b828110613add57505050565b806060602080938501015201613ad1565b959998969794939192613b2f93613b2192885260018060a01b031660208801526101206040880152610120870190610974565b9085820360608701526109b1565b968388036080850152815180895260208901906020808260051b8c01019401916000905b828210613b8f575050505061051a96975090613b769184820360a08601526109e5565b9360c083015260e08201526101008184039101526104e4565b90919294602080613bad6001938f601f1990820301865289516104e4565b970192019201909291613b53565b63ffffffff8111613bcf5763ffffffff1690565b6306dfcc6560e41b600052602060045260245260446000fdfea2646970667358221220f8eef3365f8a0af7340b9f54b58318c30663bc1a5653ac57eae8acdee283fd1b64736f6c634300081a00330553476bf02ef2726e8ce5ced78d63e26e602e4a2257b1f559418e24b4633997","linkReferences":{}},"methodIdentifiers":{"BALLOT_TYPEHASH()":"deaaa7cc","CLOCK_MODE()":"4bf5d7e9","COUNTING_MODE()":"dd4e2ba5","EXTENDED_BALLOT_TYPEHASH()":"2fe3e261","cancel(address[],uint256[],bytes[],bytes32)":"452115d6","cancel(uint256)":"40e58ee5","castVote(uint256,uint8)":"56781388","castVoteBySig(uint256,uint8,address,bytes)":"8ff262e3","castVoteWithReason(uint256,uint8,string)":"7b3c71d3","castVoteWithReasonAndParams(uint256,uint8,string,bytes)":"5f398a14","castVoteWithReasonAndParamsBySig(uint256,uint8,address,string,bytes,bytes)":"5b8d0e0d","clock()":"91ddadf4","eip712Domain()":"84b0196e","execute(address[],uint256[],bytes[],bytes32)":"2656227d","execute(uint256)":"fe0d94c1","getVotes(address,uint256)":"eb9019d4","getVotesWithParams(address,uint256,bytes)":"9a802a6d","hasVoted(uint256,address)":"43859632","hashProposal(address[],uint256[],bytes[],bytes32)":"c59057e4","name()":"06fdde03","nonces(address)":"7ecebe00","onERC1155BatchReceived(address,address,uint256[],uint256[],bytes)":"bc197c81","onERC1155Received(address,address,uint256,uint256,bytes)":"f23a6e61","onERC721Received(address,address,uint256,bytes)":"150b7a02","proposalCount()":"da35c664","proposalDeadline(uint256)":"c01f9e37","proposalDetails(uint256)":"16e9eaec","proposalDetailsAt(uint256)":"2e82db94","proposalEta(uint256)":"ab58fb8e","proposalNeedsQueuing(uint256)":"a9a95294","proposalProposer(uint256)":"143489d0","proposalSnapshot(uint256)":"2d63f693","proposalThreshold()":"b58131b0","proposalVotes(uint256)":"544ffc9c","propose(address[],uint256[],bytes[],string)":"7d5e81e2","queue(address[],uint256[],bytes[],bytes32)":"160cbed7","queue(uint256)":"ddf0b009","quorum(uint256)":"f8ce560a","quorumDenominator()":"97c3d334","quorumNumerator()":"a7713a70","quorumNumerator(uint256)":"60c4247f","relay(address,uint256,bytes)":"c28bc2fa","setProposalThreshold(uint256)":"ece40cc1","setVotingDelay(uint48)":"79051887","setVotingPeriod(uint32)":"e540d01d","state(uint256)":"3e4f49e6","supportsInterface(bytes4)":"01ffc9a7","token()":"fc0c546a","updateQuorumNumerator(uint256)":"06f3f9e6","version()":"54fd4d50","votingDelay()":"3932abb1","votingPeriod()":"02a251a3"},"id":32}