{"abi":[{"type":"constructor","inputs":[{"name":"initialOwner","type":"address","internalType":"address"}],"stateMutability":"nonpayable"},{"type":"function","name":"UPGRADE_INTERFACE_VERSION","inputs":[],"outputs":[{"name":"","type":"string","internalType":"string"}],"stateMutability":"view"},{"type":"function","name":"owner","inputs":[],"outputs":[{"name":"","type":"address","internalType":"address"}],"stateMutability":"view"},{"type":"function","name":"renounceOwnership","inputs":[],"outputs":[],"stateMutability":"nonpayable"},{"type":"function","name":"transferOwnership","inputs":[{"name":"newOwner","type":"address","internalType":"address"}],"outputs":[],"stateMutability":"nonpayable"},{"type":"function","name":"upgradeAndCall","inputs":[{"name":"proxy","type":"address","internalType":"contract ITransparentUpgradeableProxy"},{"name":"implementation","type":"address","internalType":"address"},{"name":"data","type":"bytes","internalType":"bytes"}],"outputs":[],"stateMutability":"payable"},{"type":"event","name":"OwnershipTransferred","inputs":[{"name":"previousOwner","type":"address","indexed":true,"internalType":"address"},{"name":"newOwner","type":"address","indexed":true,"internalType":"address"}],"anonymous":false},{"type":"error","name":"OwnableInvalidOwner","inputs":[{"name":"owner","type":"address","internalType":"address"}]},{"type":"error","name":"OwnableUnauthorizedAccount","inputs":[{"name":"account","type":"address","internalType":"address"}]}],"bytecode":{"object":"0x60803460bc57601f61049338819003918201601f19168301916001600160401b0383118484101760c15780849260209460405283398101031260bc57516001600160a01b0381169081900360bc57801560a657600080546001600160a01b031981168317825560405192916001600160a01b03909116907f8be0079c531659141344cd1fd0a4f28419497f9722a3daafe3b4186f6b6457e09080a36103bb90816100d88239f35b631e4fbdf760e01b600052600060045260246000fd5b600080fd5b634e487b7160e01b600052604160045260246000fdfe6080604052600436101561001257600080fd5b6000803560e01c8063715018a6146102895780638da5cb5b146102625780639623609d14610131578063ad3cb1cc146100e45763f2fde38b1461005457600080fd5b346100e15760203660031901126100e1576004356001600160a01b038116908190036100dd5761008261035c565b80156100c95781546001600160a01b03198116821783556001600160a01b03167f8be0079c531659141344cd1fd0a4f28419497f9722a3daafe3b4186f6b6457e08380a380f35b631e4fbdf760e01b82526004829052602482fd5b5080fd5b80fd5b50346100e157806003193601126100e1575061012d6040516101076040826102e3565b60058152640352e302e360dc1b602082015260405191829160208352602083019061031b565b0390f35b5060603660031901126100e1576004356001600160a01b038116908190036100dd576024356001600160a01b038116908190036102425760443567ffffffffffffffff811161025e573660238201121561025e57806004013567ffffffffffffffff811161024a576040518593929091906101b6601f8301601f1916602001846102e3565b81835236602483830101116102465781859260246020930183860137830101526101de61035c565b833b156102425761021493839260405180968194829363278f794360e11b8452600484015260406024840152604483019061031b565b039134905af18015610235576102275780f35b610230916102e3565b388180f35b50604051903d90823e3d90fd5b8280fd5b8480fd5b634e487b7160e01b85526041600452602485fd5b8380fd5b50346100e157806003193601126100e157546040516001600160a01b039091168152602090f35b50346100e157806003193601126100e1576102a261035c565b80546001600160a01b03198116825581906001600160a01b03167f8be0079c531659141344cd1fd0a4f28419497f9722a3daafe3b4186f6b6457e08280a380f35b90601f8019910116810190811067ffffffffffffffff82111761030557604052565b634e487b7160e01b600052604160045260246000fd5b919082519283825260005b848110610347575050826000602080949584010152601f8019910116010190565b80602080928401015182828601015201610326565b6000546001600160a01b0316330361037057565b63118cdaa760e01b6000523360045260246000fdfea2646970667358221220e55057855b04ddd90ed132186f90c72152f5f0389b62bfecf2b3ff6df62d53a564736f6c634300081a0033","linkReferences":{}},"methodIdentifiers":{"UPGRADE_INTERFACE_VERSION()":"ad3cb1cc","owner()":"8da5cb5b","renounceOwnership()":"715018a6","transferOwnership(address)":"f2fde38b","upgradeAndCall(address,address,bytes)":"9623609d"},"id":128}