{"abi":[{"type":"constructor","inputs":[{"name":"router_","type":"address","internalType":"address"},{"name":"tokenIn_","type":"address","internalType":"address"},{"name":"tokenOut_","type":"address","internalType":"address"},{"name":"factory_","type":"address","internalType":"address"}],"stateMutability":"nonpayable"},{"type":"function","name":"factory","inputs":[],"outputs":[{"name":"","type":"address","internalType":"address"}],"stateMutability":"view"},{"type":"function","name":"getAmountsOut","inputs":[{"name":"amountIn","type":"uint256","internalType":"uint256"},{"name":"path","type":"address[]","internalType":"address[]"}],"outputs":[{"name":"amounts","type":"uint256[]","internalType":"uint256[]"}],"stateMutability":"view"},{"type":"function","name":"router","inputs":[],"outputs":[{"name":"","type":"address","internalType":"address"}],"stateMutability":"view"},{"type":"function","name":"swapExactTokensForTokens","inputs":[{"name":"amountIn","type":"uint256","internalType":"uint256"},{"name":"amountOutMin","type":"uint256","internalType":"uint256"},{"name":"path","type":"address[]","internalType":"address[]"},{"name":"to","type":"address","internalType":"address"},{"name":"deadline","type":"uint256","internalType":"uint256"}],"outputs":[{"name":"amounts","type":"uint256[]","internalType":"uint256[]"}],"stateMutability":"nonpayable"},{"type":"function","name":"tokenIn","inputs":[],"outputs":[{"name":"","type":"address","internalType":"address"}],"stateMutability":"view"},{"type":"function","name":"tokenOut","inputs":[],"outputs":[{"name":"","type":"address","internalType":"address"}],"stateMutability":"view"},{"type":"error","name":"AddressEmptyCode","inputs":[{"name":"target","type":"address","internalType":"address"}]},{"type":"error","name":"AddressInsufficientBalance","inputs":[{"name":"account","type":"address","internalType":"address"}]},{"type":"error","name":"FailedInnerCall","inputs":[]},{"type":"error","name":"SafeERC20FailedOperation","inputs":[{"name":"token","type":"address","internalType":"address"}]}],"bytecode":{"object":"0x60808060405234610192576080816109ea803803809161001f8285610197565b83398101031261019257610032816101d0565b9061003f602082016101d0565b916100586060610051604085016101d0565b93016101d0565b600080546001600160a01b03199081166001600160a01b039485169081178355600180548316978616978817905560028054831696861696909617909555600380549091169390921692909217905560405163095ea7b360e01b602082019081526024820184905260001960448084019190915282529293909290919081906100e2606486610197565b84519082855af16100f16101e4565b81610163575b5080610159575b15610113575b6040516106df908161030b8239f35b61014c610151936040519063095ea7b360e01b602083015260248201526000604482015260448152610146606482610197565b8261023b565b61023b565b388080610104565b50803b15156100fe565b8051801592508215610178575b5050386100f7565b61018b9250602080918301019101610223565b3880610170565b600080fd5b601f909101601f19168101906001600160401b038211908210176101ba57604052565b634e487b7160e01b600052604160045260246000fd5b51906001600160a01b038216820361019257565b3d1561021e573d906001600160401b0382116101ba5760405191610212601f8201601f191660200184610197565b82523d6000602084013e565b606090565b90816020910312610192575180151581036101925790565b6000806102649260018060a01b03169360208151910182865af161025d6101e4565b90836102a9565b805190811515918261028e575b505061027a5750565b635274afe760e01b60005260045260246000fd5b6102a19250602080918301019101610223565b153880610271565b906102cf57508051156102be57805190602001fd5b630a12f52160e11b60005260046000fd5b81511580610301575b6102e0575090565b639996b31560e01b60009081526001600160a01b0391909116600452602490fd5b50803b156102d856fe6080604052600436101561001257600080fd5b60003560e01c806338ed17391461021e5780636daf390b146101f5578063c45a0155146101cc578063d0202d3b146101a3578063d06ca61f1461008c5763f887ea401461005e57600080fd5b34610087576000366003190112610087576000546040516001600160a01b039091168152602090f35b600080fd5b346100875760403660031901126100875760243567ffffffffffffffff8111610087576100bd903690600401610424565b505061014d60006100cc6104e5565b600154600254600354604051926001600160a01b0391821692821691166100f28461048f565b83526020830152836040830152606082015261010d82610542565b5261011781610542565b5060018060a01b038254166040518080958194631542686b60e21b835260043560048401526040602484015260448301906105df565b03915afa80156101975761017091600091610174575b5060405191829182610455565b0390f35b61019191503d806000833e61018981836104ab565b810190610565565b82610163565b6040513d6000823e3d90fd5b34610087576000366003190112610087576002546040516001600160a01b039091168152602090f35b34610087576000366003190112610087576003546040516001600160a01b039091168152602090f35b34610087576000366003190112610087576001546040516001600160a01b039091168152602090f35b346100875760a03660031901126100875760043560443567ffffffffffffffff811161008757610252903690600401610424565b50506064356001600160a01b0381169190829003610087576102726104e5565b6001546002546003546040516001600160a01b03938416939092918116911661029a8361048f565b83835260208301526000604083015260608201526102b783610542565b526102c182610542565b5060008060405160208101906323b872dd60e01b8252336024820152306044820152866064820152606481526102f86084826104ab565b519082855af13d15610418573d67ffffffffffffffff81116104025761034191604051916103306020601f19601f84011601846104ab565b82523d6000602084013e5b83610648565b80519081151591826103de575b50506103ca575060009161039a918360018060a01b03815416926040519687958694859363cac88ea960e01b85526004850152602435602485015260a0604485015260a48401906105df565b906064830152608435608483015203925af180156101975761017091600091610174575060405191829182610455565b635274afe760e01b60005260045260246000fd5b8192509060209181010312610087576020015180159081150361008757858061034e565b634e487b7160e01b600052604160045260246000fd5b6103419060609061033b565b9181601f840112156100875782359167ffffffffffffffff8311610087576020808501948460051b01011161008757565b602060408183019282815284518094520192019060005b8181106104795750505090565b825184526020938401939092019160010161046c565b6080810190811067ffffffffffffffff82111761040257604052565b90601f8019910116810190811067ffffffffffffffff82111761040257604052565b67ffffffffffffffff81116104025760051b60200190565b604080519091906104f683826104ab565b6001815291601f19018260005b82811061050f57505050565b60209060405161051e8161048f565b60008152600083820152600060408201526000606082015282828501015201610503565b80511561054f5760200190565b634e487b7160e01b600052603260045260246000fd5b6020818303126100875780519067ffffffffffffffff821161008757019080601f83011215610087578151610599816104cd565b926105a760405194856104ab565b81845260208085019260051b82010192831161008757602001905b8282106105cf5750505090565b81518152602091820191016105c2565b906020808351928381520192019060005b8181106105fd5750505090565b825180516001600160a01b03908116865260208281015182168188015260408084015115159088015260609283015190911691860191909152608090940193909201916001016105f0565b9061066e575080511561065d57805190602001fd5b630a12f52160e11b60005260046000fd5b815115806106a0575b61067f575090565b639996b31560e01b60009081526001600160a01b0391909116600452602490fd5b50803b1561067756fea264697066735822122061732481666e20c785e118de2c88eb10d8f90bc5ed177747b20309f04e17ff4964736f6c634300081a0033","linkReferences":{}},"methodIdentifiers":{"factory()":"c45a0155","getAmountsOut(uint256,address[])":"d06ca61f","router()":"f887ea40","swapExactTokensForTokens(uint256,uint256,address[],address,uint256)":"38ed1739","tokenIn()":"6daf390b","tokenOut()":"d0202d3b"},"id":41}