{"abi":[{"type":"constructor","inputs":[{"name":"mockLp","type":"address","internalType":"address"}],"stateMutability":"nonpayable"},{"type":"function","name":"addInitialLiquidity","inputs":[{"name":"sender","type":"address","internalType":"address"}],"outputs":[],"stateMutability":"nonpayable"},{"type":"function","name":"initialize","inputs":[{"name":"_addresses","type":"address[3]","internalType":"address[3]"},{"name":"_nameParams","type":"bytes","internalType":"bytes"},{"name":"_supplyParams","type":"bytes","internalType":"bytes"},{"name":"_taxParams","type":"bytes","internalType":"bytes"}],"outputs":[],"stateMutability":"nonpayable"},{"type":"function","name":"liquidityPools","inputs":[{"name":"","type":"uint256","internalType":"uint256"}],"outputs":[{"name":"","type":"address","internalType":"address"}],"stateMutability":"view"}],"bytecode":{"object":"0x60803460e057601f61033038819003918201601f19168301916001600160401b0383118484101760ca5780849260209460405283398101031260e057516001600160a01b0381169081900360e0576000546801000000000000000081101560ca57600181018060005581101560b457600080527f290decd9548b62a8d60345a988386fc84ba6bc95484008f6362f93160ef3e5630180546001600160a01b031916909117905560405161024a90816100e68239f35b634e487b7160e01b600052603260045260246000fd5b634e487b7160e01b600052604160045260246000fd5b600080fdfe608080604052600436101561001357600080fd5b60003560e01c90816359cabbe41461018257816379d747be1461012a57506384b1df521461004057600080fd5b346100ef5760c03660031901126100ef5736602312156100ef576040516060810181811067ffffffffffffffff82111761011457604052366064116100ef576004905b606482106100f45760643567ffffffffffffffff81116100ef576100ab9036906004016101ab565b5060843567ffffffffffffffff81116100ef576100cc9036906004016101ab565b5060a43567ffffffffffffffff81116100ef576100ed9036906004016101ab565b005b600080fd5b81356001600160a01b03811681036100ef57815260209182019101610083565b634e487b7160e01b600052604160045260246000fd5b346100ef5760203660031901126100ef57600435906000548210156100ef57600080527f290decd9548b62a8d60345a988386fc84ba6bc95484008f6362f93160ef3e563909101546001600160a01b03168152602090f35b346100ef5760203660031901126100ef576004356100ed6001600160a01b03821682036100ef57565b81601f820112156100ef5780359067ffffffffffffffff82116101145760405192601f8301601f19908116603f0116840167ffffffffffffffff81118582101761011457604052828452602083830101116100ef5781600092602080930183860137830101529056fea26469706673582212209478ac1daf851cc78a21ebd4d800b2c43dabaeafbca1a66934e939f361ca270864736f6c634300081a0033","linkReferences":{}},"methodIdentifiers":{"addInitialLiquidity(address)":"59cabbe4","initialize(address[3],bytes,bytes,bytes)":"84b1df52","liquidityPools(uint256)":"79d747be"},"id":124}