{"abi":[{"type":"constructor","inputs":[],"stateMutability":"nonpayable"},{"type":"function","name":"CLOCK_MODE","inputs":[],"outputs":[{"name":"","type":"string","internalType":"string"}],"stateMutability":"view"},{"type":"function","name":"agentNft","inputs":[],"outputs":[{"name":"","type":"address","internalType":"address"}],"stateMutability":"view"},{"type":"function","name":"allowance","inputs":[{"name":"owner","type":"address","internalType":"address"},{"name":"spender","type":"address","internalType":"address"}],"outputs":[{"name":"","type":"uint256","internalType":"uint256"}],"stateMutability":"view"},{"type":"function","name":"approve","inputs":[{"name":"","type":"address","internalType":"address"},{"name":"","type":"uint256","internalType":"uint256"}],"outputs":[{"name":"","type":"bool","internalType":"bool"}],"stateMutability":"nonpayable"},{"type":"function","name":"assetToken","inputs":[],"outputs":[{"name":"","type":"address","internalType":"address"}],"stateMutability":"view"},{"type":"function","name":"balanceOf","inputs":[{"name":"account","type":"address","internalType":"address"}],"outputs":[{"name":"","type":"uint256","internalType":"uint256"}],"stateMutability":"view"},{"type":"function","name":"canStake","inputs":[],"outputs":[{"name":"","type":"bool","internalType":"bool"}],"stateMutability":"view"},{"type":"function","name":"checkpoints","inputs":[{"name":"account","type":"address","internalType":"address"},{"name":"pos","type":"uint32","internalType":"uint32"}],"outputs":[{"name":"","type":"tuple","internalType":"struct Checkpoints.Checkpoint208","components":[{"name":"_key","type":"uint48","internalType":"uint48"},{"name":"_value","type":"uint208","internalType":"uint208"}]}],"stateMutability":"view"},{"type":"function","name":"clock","inputs":[],"outputs":[{"name":"","type":"uint48","internalType":"uint48"}],"stateMutability":"view"},{"type":"function","name":"decimals","inputs":[],"outputs":[{"name":"","type":"uint8","internalType":"uint8"}],"stateMutability":"view"},{"type":"function","name":"delegate","inputs":[{"name":"delegatee","type":"address","internalType":"address"}],"outputs":[],"stateMutability":"nonpayable"},{"type":"function","name":"delegateBySig","inputs":[{"name":"delegatee","type":"address","internalType":"address"},{"name":"nonce","type":"uint256","internalType":"uint256"},{"name":"expiry","type":"uint256","internalType":"uint256"},{"name":"v","type":"uint8","internalType":"uint8"},{"name":"r","type":"bytes32","internalType":"bytes32"},{"name":"s","type":"bytes32","internalType":"bytes32"}],"outputs":[],"stateMutability":"nonpayable"},{"type":"function","name":"delegates","inputs":[{"name":"account","type":"address","internalType":"address"}],"outputs":[{"name":"","type":"address","internalType":"address"}],"stateMutability":"view"},{"type":"function","name":"eip712Domain","inputs":[],"outputs":[{"name":"fields","type":"bytes1","internalType":"bytes1"},{"name":"name","type":"string","internalType":"string"},{"name":"version","type":"string","internalType":"string"},{"name":"chainId","type":"uint256","internalType":"uint256"},{"name":"verifyingContract","type":"address","internalType":"address"},{"name":"salt","type":"bytes32","internalType":"bytes32"},{"name":"extensions","type":"uint256[]","internalType":"uint256[]"}],"stateMutability":"view"},{"type":"function","name":"founder","inputs":[],"outputs":[{"name":"","type":"address","internalType":"address"}],"stateMutability":"view"},{"type":"function","name":"getPastBalanceOf","inputs":[{"name":"account","type":"address","internalType":"address"},{"name":"timepoint","type":"uint256","internalType":"uint256"}],"outputs":[{"name":"","type":"uint256","internalType":"uint256"}],"stateMutability":"view"},{"type":"function","name":"getPastDelegates","inputs":[{"name":"account","type":"address","internalType":"address"},{"name":"timepoint","type":"uint256","internalType":"uint256"}],"outputs":[{"name":"","type":"address","internalType":"address"}],"stateMutability":"view"},{"type":"function","name":"getPastTotalSupply","inputs":[{"name":"timepoint","type":"uint256","internalType":"uint256"}],"outputs":[{"name":"","type":"uint256","internalType":"uint256"}],"stateMutability":"view"},{"type":"function","name":"getPastVotes","inputs":[{"name":"account","type":"address","internalType":"address"},{"name":"timepoint","type":"uint256","internalType":"uint256"}],"outputs":[{"name":"","type":"uint256","internalType":"uint256"}],"stateMutability":"view"},{"type":"function","name":"getVotes","inputs":[{"name":"account","type":"address","internalType":"address"}],"outputs":[{"name":"","type":"uint256","internalType":"uint256"}],"stateMutability":"view"},{"type":"function","name":"initialLock","inputs":[],"outputs":[{"name":"","type":"uint256","internalType":"uint256"}],"stateMutability":"view"},{"type":"function","name":"initialize","inputs":[{"name":"_name","type":"string","internalType":"string"},{"name":"_symbol","type":"string","internalType":"string"},{"name":"_founder","type":"address","internalType":"address"},{"name":"_assetToken","type":"address","internalType":"address"},{"name":"_matureAt","type":"uint256","internalType":"uint256"},{"name":"_agentNft","type":"address","internalType":"address"},{"name":"_canStake","type":"bool","internalType":"bool"}],"outputs":[],"stateMutability":"nonpayable"},{"type":"function","name":"matureAt","inputs":[],"outputs":[{"name":"","type":"uint256","internalType":"uint256"}],"stateMutability":"view"},{"type":"function","name":"name","inputs":[],"outputs":[{"name":"","type":"string","internalType":"string"}],"stateMutability":"view"},{"type":"function","name":"nonces","inputs":[{"name":"owner","type":"address","internalType":"address"}],"outputs":[{"name":"","type":"uint256","internalType":"uint256"}],"stateMutability":"view"},{"type":"function","name":"numCheckpoints","inputs":[{"name":"account","type":"address","internalType":"address"}],"outputs":[{"name":"","type":"uint32","internalType":"uint32"}],"stateMutability":"view"},{"type":"function","name":"setCanStake","inputs":[{"name":"_canStake","type":"bool","internalType":"bool"}],"outputs":[],"stateMutability":"nonpayable"},{"type":"function","name":"setMatureAt","inputs":[{"name":"_matureAt","type":"uint256","internalType":"uint256"}],"outputs":[],"stateMutability":"nonpayable"},{"type":"function","name":"stake","inputs":[{"name":"amount","type":"uint256","internalType":"uint256"},{"name":"receiver","type":"address","internalType":"address"},{"name":"delegatee","type":"address","internalType":"address"}],"outputs":[],"stateMutability":"nonpayable"},{"type":"function","name":"symbol","inputs":[],"outputs":[{"name":"","type":"string","internalType":"string"}],"stateMutability":"view"},{"type":"function","name":"totalSupply","inputs":[],"outputs":[{"name":"","type":"uint256","internalType":"uint256"}],"stateMutability":"view"},{"type":"function","name":"transfer","inputs":[{"name":"","type":"address","internalType":"address"},{"name":"","type":"uint256","internalType":"uint256"}],"outputs":[{"name":"","type":"bool","internalType":"bool"}],"stateMutability":"nonpayable"},{"type":"function","name":"transferFrom","inputs":[{"name":"","type":"address","internalType":"address"},{"name":"","type":"address","internalType":"address"},{"name":"","type":"uint256","internalType":"uint256"}],"outputs":[{"name":"","type":"bool","internalType":"bool"}],"stateMutability":"nonpayable"},{"type":"function","name":"withdraw","inputs":[{"name":"amount","type":"uint256","internalType":"uint256"}],"outputs":[],"stateMutability":"nonpayable"},{"type":"event","name":"Approval","inputs":[{"name":"owner","type":"address","indexed":true,"internalType":"address"},{"name":"spender","type":"address","indexed":true,"internalType":"address"},{"name":"value","type":"uint256","indexed":false,"internalType":"uint256"}],"anonymous":false},{"type":"event","name":"DelegateChanged","inputs":[{"name":"delegator","type":"address","indexed":true,"internalType":"address"},{"name":"fromDelegate","type":"address","indexed":true,"internalType":"address"},{"name":"toDelegate","type":"address","indexed":true,"internalType":"address"}],"anonymous":false},{"type":"event","name":"DelegateVotesChanged","inputs":[{"name":"delegate","type":"address","indexed":true,"internalType":"address"},{"name":"previousVotes","type":"uint256","indexed":false,"internalType":"uint256"},{"name":"newVotes","type":"uint256","indexed":false,"internalType":"uint256"}],"anonymous":false},{"type":"event","name":"EIP712DomainChanged","inputs":[],"anonymous":false},{"type":"event","name":"Initialized","inputs":[{"name":"version","type":"uint64","indexed":false,"internalType":"uint64"}],"anonymous":false},{"type":"event","name":"Transfer","inputs":[{"name":"from","type":"address","indexed":true,"internalType":"address"},{"name":"to","type":"address","indexed":true,"internalType":"address"},{"name":"value","type":"uint256","indexed":false,"internalType":"uint256"}],"anonymous":false},{"type":"error","name":"AddressEmptyCode","inputs":[{"name":"target","type":"address","internalType":"address"}]},{"type":"error","name":"AddressInsufficientBalance","inputs":[{"name":"account","type":"address","internalType":"address"}]},{"type":"error","name":"CheckpointUnorderedInsertion","inputs":[]},{"type":"error","name":"CheckpointUnorderedInsertion","inputs":[]},{"type":"error","name":"ECDSAInvalidSignature","inputs":[]},{"type":"error","name":"ECDSAInvalidSignatureLength","inputs":[{"name":"length","type":"uint256","internalType":"uint256"}]},{"type":"error","name":"ECDSAInvalidSignatureS","inputs":[{"name":"s","type":"bytes32","internalType":"bytes32"}]},{"type":"error","name":"ERC20ExceededSafeSupply","inputs":[{"name":"increasedSupply","type":"uint256","internalType":"uint256"},{"name":"cap","type":"uint256","internalType":"uint256"}]},{"type":"error","name":"ERC20InsufficientAllowance","inputs":[{"name":"spender","type":"address","internalType":"address"},{"name":"allowance","type":"uint256","internalType":"uint256"},{"name":"needed","type":"uint256","internalType":"uint256"}]},{"type":"error","name":"ERC20InsufficientBalance","inputs":[{"name":"sender","type":"address","internalType":"address"},{"name":"balance","type":"uint256","internalType":"uint256"},{"name":"needed","type":"uint256","internalType":"uint256"}]},{"type":"error","name":"ERC20InvalidApprover","inputs":[{"name":"approver","type":"address","internalType":"address"}]},{"type":"error","name":"ERC20InvalidReceiver","inputs":[{"name":"receiver","type":"address","internalType":"address"}]},{"type":"error","name":"ERC20InvalidSender","inputs":[{"name":"sender","type":"address","internalType":"address"}]},{"type":"error","name":"ERC20InvalidSpender","inputs":[{"name":"spender","type":"address","internalType":"address"}]},{"type":"error","name":"ERC5805FutureLookup","inputs":[{"name":"timepoint","type":"uint256","internalType":"uint256"},{"name":"clock","type":"uint48","internalType":"uint48"}]},{"type":"error","name":"ERC6372InconsistentClock","inputs":[]},{"type":"error","name":"FailedInnerCall","inputs":[]},{"type":"error","name":"InvalidAccountNonce","inputs":[{"name":"account","type":"address","internalType":"address"},{"name":"currentNonce","type":"uint256","internalType":"uint256"}]},{"type":"error","name":"InvalidInitialization","inputs":[]},{"type":"error","name":"NotInitializing","inputs":[]},{"type":"error","name":"SafeCastOverflowedUintDowncast","inputs":[{"name":"bits","type":"uint8","internalType":"uint8"},{"name":"value","type":"uint256","internalType":"uint256"}]},{"type":"error","name":"SafeERC20FailedOperation","inputs":[{"name":"token","type":"address","internalType":"address"}]},{"type":"error","name":"VotesExpiredSignature","inputs":[{"name":"expiry","type":"uint256","internalType":"uint256"}]}],"bytecode":{"object":"0x6080806040523460d2577ff0c57e16840df040f15088dc2f81fe391c3923bec73e23a9662efc9c229c6a005460ff8160401c1660c1576002600160401b03196001600160401b03821601605c575b6040516132d290816100d88239f35b6001600160401b0319166001600160401b039081177ff0c57e16840df040f15088dc2f81fe391c3923bec73e23a9662efc9c229c6a005581527fc7f505b2f371ae2175ee4913f4499e1f2633a7b5936321eed1cdaeb6115181d290602090a13880604d565b63f92ee8a960e01b60005260046000fd5b600080fdfe6080604052600436101561001257600080fd5b60003560e01c806306fdde0314610237578063095ea7b3146102325780631083f7611461022d57806318160ddd1461022857806323b872dd146102235780632e1a7d4d1461021e578063313ce567146102195780633a46b1a8146102145780634bf5d7e91461020f5780634d853ee51461020a578063587cde1e146102055780635c19a95c146102005780635ec80600146101fb5780636fcfff45146101f657806370a08231146101f15780637e893f80146101ec5780637ecebe00146101e7578063836f8f20146101e257806384b0196e146101dd5780638e539e8c146101d857806391ddadf4146101d357806395d89b41146101ce5780639ab24eb0146101c95780639cbef4a9146101c45780639ed27809146101bf578063a5e881b3146101ba578063a7d545db146101b5578063a9059cbb146101b0578063b2193b4d146101ab578063c3cda520146101a6578063d7b7d405146101a1578063dd62ed3e1461019c578063e8867180146101975763f1127ed81461019257600080fd5b611593565b61151c565b6114ac565b61141a565b6112d8565b611246565b611156565b610e52565b610e34565b610e11565b610de8565b610db1565b610cef565b610cc3565b610b68565b610a97565b6109f4565b61099b565b6108df565b61087f565b610828565b610703565b6106e1565b610692565b610669565b6105d7565b610558565b61053c565b6104c3565b61049b565b610470565b610447565b6103f0565b6102a1565b600091031261024757565b600080fd5b919082519283825260005b848110610278575050826000602080949584010152601f8019910116010190565b80602080928401015182828601015201610257565b90602061029e92818152019061024c565b90565b346102475760003660031901126102475760405160006000805160206131fd833981519152546102d08161161a565b80845290600181169081156103745750600114610308575b610304836102f8818503826111a6565b6040519182918261028d565b0390f35b6000805160206131fd83398151915260009081527f2ae08a8e29253f69ac5d979a101956ab8f8d9d7ded63fa7a83b16fc47648eab0939250905b80821061035a575090915081016020016102f86102e8565b919260018160209254838588010152019101909291610342565b60ff191660208086019190915291151560051b840190910191506102f890506102e8565b600435906001600160a01b038216820361024757565b602435906001600160a01b038216820361024757565b604435906001600160a01b038216820361024757565b60a435906001600160a01b038216820361024757565b3461024757604036600319011261024757610409610398565b5060405162461bcd60e51b8152602060048201526015602482015274105c1c1c9bdd99481b9bdd081cdd5c1c1bdc9d1959605a1b6044820152606490fd5b34610247576000366003190112610247576002546040516001600160a01b039091168152602090f35b3461024757600036600319011261024757602060008051602061323d83398151915254604051908152f35b34610247576060366003190112610247576104b4610398565b506104bd6103ae565b5061181e565b346102475760203660031901126102475760085460043560ff82166105065760016104f59260ff19161760085561193d565b61050460ff1960085416600855565b005b60405162461bcd60e51b815260206004820152600e60248201526d31b0b73737ba103932b2b73a32b960911b6044820152606490fd5b3461024757600036600319011261024757602060405160128152f35b3461024757604036600319011261024757610571610398565b6024359065ffffffffffff610585436120a9565b16808310156105bf575061059b6105b3916118cb565b6001600160d01b03926105ad906120a9565b906120e8565b60405191168152602090f35b82637669fc0f60e11b60005260045260245260446000fd5b34610247576000366003190112610247576105f1436120a9565b65ffffffffffff80610602436120a9565b1691160361065857610304604080519061061c81836111a6565b601d82527f6d6f64653d626c6f636b6e756d6265722666726f6d3d64656661756c7400000060208301525191829160208352602083019061024c565b6301bfc1c560e61b60005260046000fd5b34610247576000366003190112610247576001546040516001600160a01b039091168152602090f35b34610247576020366003190112610247576001600160a01b036106b3610398565b166000526000805160206131dd833981519152602052602060018060a01b0360406000205416604051908152f35b34610247576020366003190112610247576105046106fd610398565b3361218d565b346102475760403660031901126102475761071c610398565b6024359065ffffffffffff610730436120a9565b16808310156105bf575060018060a01b031660005260006020526107586040600020916120a9565b81549060008291600584116107ca575b610773935084612e4b565b908161079b57505061030460005b6040516001600160a01b0390911681529081906020820190565b6107b46107c5916107ae61030494611872565b90612505565b505460301c6001600160a01b031690565b610781565b916107d484612797565b84039384116108235765ffffffffffff6107ee8587612505565b50541665ffffffffffff8416101561080b57506107739291610768565b91905060018301809311610823576107739290610768565b61185c565b3461024757602036600319011261024757610849610844610398565b6118cb565b5463ffffffff81116108665760209063ffffffff60405191168152f35b6306dfcc6560e41b600052602060045260245260446000fd5b346102475760203660031901126102475760206108d761089d610398565b6001600160a01b031660009081527f52c63247e1f47db19d5ce0460030c497f067ca4cebf71ba98eeadabe20bace00602052604090205490565b604051908152f35b34610247576020366003190112610247576044600435600354604051632474521560e21b81527fa49807205ce4d355092ef5a8a18f56e8913cf4a201fbe287825b095693c2177560048201523360248201529260209184919082906001600160a01b03165afa918215610996576105049261096291600091610967575b50611a50565b600455565b610989915060203d60201161098f575b61098181836111a6565b810190611a2f565b3861095c565b503d610977565b611a44565b34610247576020366003190112610247576001600160a01b036109bc610398565b166000527f5ab42ced628888259c08ac98db1eb0cf702fc1501344311d8b100cd1bfe4bb006020526020604060002054604051908152f35b34610247576000366003190112610247576020600654604051908152f35b929391610a34610a4292600f60f81b865260e0602087015260e086019061024c565b90848203604086015261024c565b92606083015260018060a01b03166080820152600060a082015260c08183039101526020808351928381520192019060005b818110610a815750505090565b8251845260209384019390920191600101610a74565b34610247576000366003190112610247577fa16a46d94261c7517cc8ff89f61c0ce93598e3c849801011dee649a6a557d100541580610b3f575b15610b0257610ade611654565b610ae6611749565b90610304610af2611a88565b6040519384933091469186610a12565b60405162461bcd60e51b81526020600482015260156024820152741152540dcc4c8e88155b9a5b9a5d1a585b1a5e9959605a1b6044820152606490fd5b507fa16a46d94261c7517cc8ff89f61c0ce93598e3c849801011dee649a6a557d1015415610ad1565b346102475760203660031901126102475760043565ffffffffffff610b8c436120a9565b169081811015610cac57610b9f906120a9565b600060008051602061325d8339815191525481928160058111610c42575b509061030493610bdb9260008051602061325d83398151915261290c565b80610bfc57505b6040516001600160d01b0390911681529081906020820190565b610c0590611872565b60008051602061325d8339815191529091527f88c46c62109817164d0ae1873830d4299a82e5daf552a3d8e989b27638fcf748015460301c610be2565b93610c4c85612797565b85039485116108235761030494610bdb9360008051602061325d833981519152865265ffffffffffff826020882001541665ffffffffffff851610600014610c9a5750915b91925093610bbd565b929150610ca6906120da565b90610c91565b637669fc0f60e11b60005260045260245260446000fd5b34610247576000366003190112610247576020610cdf436120a9565b65ffffffffffff60405191168152f35b3461024757600036600319011261024757604051600060008051602061321d83398151915254610d1e8161161a565b80845290600181169081156103745750600114610d4557610304836102f8818503826111a6565b60008051602061321d83398151915260009081527f46a2803e59a4de4e7a4c574b1243f25977ac4c77d5a1a4a609b5394cebb4a2aa939250905b808210610d97575090915081016020016102f86102e8565b919260018160209254838588010152019101909291610d7f565b346102475760203660031901126102475760206001600160d01b03610ddf610dda610844610398565b612343565b16604051908152f35b34610247576000366003190112610247576003546040516001600160a01b039091168152602090f35b3461024757600036600319011261024757602060ff600554166040519015158152f35b34610247576000366003190112610247576020600454604051908152f35b3461024757606036600319011261024757600435610e6e6103ae565b610e766103c4565b60055460ff168015611134575b610e8c90611aa4565b610e97831515611afe565b600254610eba90610eae906001600160a01b031681565b6001600160a01b031690565b6040516370a0823160e01b8152336004820152602081602481855afa90811561099657610ef3918691600091611115575b501015611b4a565b604051636eb1769f60e11b815233600482015230602482015290602090829060449082905afa90811561099657610f369185916000916110f6575b501015611b95565b600354610f4d90610eae906001600160a01b031681565b60405163225742f560e11b81523060048201529190602083602481845afa928315610996576000936110c5575b50604051634752f9ef60e01b815260048101849052602081602481855afa801561099657610fb1916000916110a6575b5015611bec565b60008051602061323d8339815191525415611098575b803b1561024757604051634b56175360e01b815260048101939093526001600160a01b03821660248401526000908390604490829084905af1801561099657610504946110439361103d9261107d575b50611037813033611032610eae60025460018060a01b031690565b612372565b846123b6565b8261218d565b6001600160a01b03811660009081526007602052604090209061107761107161106b436120a9565b92611904565b54612036565b916125b9565b8061108c6000611092936111a6565b8061023c565b38611017565b6110a185600655565b610fc7565b6110bf915060203d60201161098f5761098181836111a6565b38610faa565b6110e891935060203d6020116110ef575b6110e081836111a6565b810190611b3b565b9138610f7a565b503d6110d6565b61110f915060203d6020116110ef576110e081836111a6565b38610f2e565b61112e915060203d6020116110ef576110e081836111a6565b38610eeb565b50610e8c61114e60008051602061323d8339815191525490565b159050610e83565b34610247576040366003190112610247576104bd610398565b634e487b7160e01b600052604160045260246000fd5b6040810190811067ffffffffffffffff8211176111a157604052565b61116f565b90601f8019910116810190811067ffffffffffffffff8211176111a157604052565b604051906111d76040836111a6565b565b67ffffffffffffffff81116111a157601f01601f191660200190565b81601f820112156102475780359061120c826111d9565b9261121a60405194856111a6565b8284526020838301011161024757816000926020809301838601378301015290565b8015150361024757565b346102475760e03660031901126102475760043567ffffffffffffffff8111610247576112779036906004016111f5565b60243567ffffffffffffffff8111610247576112979036906004016111f5565b906112a06103c4565b60643592906001600160a01b03841684036102475761050493608435916112c56103da565b9360c435956112d38761123c565b611c2c565b346102475760c0366003190112610247576112f1610398565b6044359060243560643560ff811681036102475760843560a4359185421161140557916113f9916114009360426105049860405160208101917fe48329057bfd03d55e49b547132e39cffd9c1820ad7b9d4c5307691425d15adf835260018060a01b038b16604083015289606083015260808201526080815261137560a0826111a6565b5190206113806130cc565b611388613136565b6040519060208201927f8b73c3c69bb8fe3d512ecc4cf759cc79239f7b179b0ffacaa9a75d522b39400f8452604083015260608201524660808201523060a082015260a081526113d960c0826111a6565b519020906040519161190160f01b8352600283015260228201522061248b565b91826124a3565b61218d565b85632341d78760e11b60005260045260246000fd5b3461024757604036600319011261024757611433610398565b60243565ffffffffffff611446436120a9565b169182821015611494576001600160a01b0316600090815260076020526040902061030492506001600160d01b039161148391906105ad906120a9565b604051911681529081906020820190565b50637669fc0f60e11b60005260045260245260446000fd5b34610247576040366003190112610247576114c5610398565b6114cd6103ae565b6001600160a01b0391821660009081527f52c63247e1f47db19d5ce0460030c497f067ca4cebf71ba98eeadabe20bace0160209081526040808320949093168252928352819020549051908152f35b34610247576020366003190112610247576004356115398161123c565b6001546001600160a01b031633036115605760ff8019600554169115151617600555600080f35b60405162461bcd60e51b815260206004820152600b60248201526a2737ba103337bab73232b960a91b6044820152606490fd5b34610247576040366003190112610247576115ac610398565b60243563ffffffff81168103610247576115ee6115f4916115e06040946115d1611f6c565b506115da611f6c565b506118cb565b6115e8611f6c565b50612505565b50612595565b8151815165ffffffffffff1681526020918201516001600160d01b031691810191909152f35b90600182811c9216801561164a575b602083101461163457565b634e487b7160e01b600052602260045260246000fd5b91607f1691611629565b604051906000827fa16a46d94261c7517cc8ff89f61c0ce93598e3c849801011dee649a6a557d10254916116878361161a565b808352926001811690811561172a57506001146116ab575b6111d7925003836111a6565b507fa16a46d94261c7517cc8ff89f61c0ce93598e3c849801011dee649a6a557d102600090815290917f42ad5d3e1f2e6e70edcf6d991b8a3023d3fca8047a131592f9edb9fd9b89d57d5b81831061170e5750509060206111d79282010161169f565b60209193508060019154838589010152019101909184926116f6565b602092506111d794915060ff191682840152151560051b82010161169f565b604051906000827fa16a46d94261c7517cc8ff89f61c0ce93598e3c849801011dee649a6a557d103549161177c8361161a565b808352926001811690811561172a575060011461179f576111d7925003836111a6565b507fa16a46d94261c7517cc8ff89f61c0ce93598e3c849801011dee649a6a557d103600090815290917f5f9ce34815f8e11431c7bb75a8e6886a91478f7ffc1dbb0a98dc240fddd76b755b8183106118025750509060206111d79282010161169f565b60209193508060019154838589010152019101909184926117ea565b60405162461bcd60e51b8152602060048201526016602482015275151c985b9cd9995c881b9bdd081cdd5c1c1bdc9d195960521b6044820152606490fd5b634e487b7160e01b600052601160045260246000fd5b60001981019190821161082357565b9190820391821161082357565b1561189557565b60405162461bcd60e51b815260206004820152600e60248201526d139bdd081b585d1d5c99481e595d60921b6044820152606490fd5b6001600160a01b031660009081527fe8b26c30fad74198956032a3533d903385d56dd795af560196f9c78d4af40d016020526040902090565b6001600160a01b031660009081527f52c63247e1f47db19d5ce0460030c497f067ca4cebf71ba98eeadabe20bace006020526040902090565b8061194733611904565b54106119f3576001546111d79190611967906001600160a01b0316610eae565b3314806119d6575b6119c3575b61197e8133611f85565b3360009081526007602052604090206119a590611999612184565b61107761107133611904565b505060025433906119be906001600160a01b0316610eae565b612069565b6119d160045442101561188e565b611974565b506119ea816119e433611904565b54611881565b6006541161196f565b60405162461bcd60e51b8152602060048201526014602482015273496e73756666696369656e742062616c616e636560601b6044820152606490fd5b90816020910312610247575161029e8161123c565b6040513d6000823e3d90fd5b15611a5757565b60405162461bcd60e51b81526020600482015260096024820152682737ba1030b236b4b760b91b6044820152606490fd5b60405190611a976020836111a6565b6000808352366020840137565b15611aab57565b60405162461bcd60e51b815260206004820152602560248201527f5374616b696e672069732064697361626c656420666f722070726976617465206044820152641859d95b9d60da1b6064820152608490fd5b15611b0557565b60405162461bcd60e51b815260206004820152600e60248201526d043616e6e6f74207374616b6520360941b6044820152606490fd5b90816020910312610247575190565b15611b5157565b606460405162461bcd60e51b815260206004820152602060248201527f496e73756666696369656e7420617373657420746f6b656e2062616c616e63656044820152fd5b15611b9c57565b60405162461bcd60e51b815260206004820152602260248201527f496e73756666696369656e7420617373657420746f6b656e20616c6c6f77616e604482015261636560f01b6064820152608490fd5b15611bf357565b60405162461bcd60e51b81526020600482015260116024820152701059d95b9d08109b1858dadb1a5cdd1959607a1b6044820152606490fd5b94929095939160008051602061327d833981519152549667ffffffffffffffff611c6d611c5f60ff8b60401c1615151590565b9967ffffffffffffffff1690565b1680159081611d8b575b6001149081611d81575b159081611d78575b50611d6757611ccf9688611cc6600167ffffffffffffffff1960008051602061327d83398151915254161760008051602061327d83398151915255565b611d3057611d93565b611cd557565b611d0160ff60401b1960008051602061327d833981519152541660008051602061327d83398151915255565b604051600181527fc7f505b2f371ae2175ee4913f4499e1f2633a7b5936321eed1cdaeb6115181d290602090a1565b611d62600160401b60ff60401b1960008051602061327d83398151915254161760008051602061327d83398151915255565b611d93565b63f92ee8a960e01b60005260046000fd5b90501538611c89565b303b159150611c81565b899150611c77565b939293611d9e61296b565b611da661296b565b80519067ffffffffffffffff82116111a157611dd982611dd46000805160206131fd8339815191525461161a565b612999565b602090601f8311600114611eb457611e7a94611e38611e979895611e2386611e5d976111d79e9d9b9761096297600092611ea9575b50508160011b916000199060031b1c19161790565b6000805160206131fd83398151915255612a4b565b611e4061296b565b60018060a01b03166001600160601b0360a01b6001541617600155565b60018060a01b03166001600160601b0360a01b6002541617600255565b60018060a01b03166001600160601b0360a01b6003541617600355565b60ff8019600554169115151617600555565b015190503880611e0e565b6000805160206131fd833981519152600052601f19831691907f2ae08a8e29253f69ac5d979a101956ab8f8d9d7ded63fa7a83b16fc47648eab09260005b818110611f545750611e9798956001866111d79d9c9a9661096296611e7a9b96611e5d9a611e389710611f3b575b505050811b016000805160206131fd83398151915255612a4b565b015160001960f88460031b161c19169055388080611f20565b92936020600181928786015181550195019301611ef2565b60405190611f7982611185565b60006020838281520152565b6001600160a01b0381169291908315612020576000611fa382611904565b548381106120045794836111d7959603611fbc84611904565b5560008051602061323d833981519152805485900390556040518481527fddf252ad1be2c89b69c2b068fc378daa952ba7f163c4a11628f55a4df523b3ef90602090a3612ea8565b63391434e360e21b825260048690526024526044839052606490fd5b634b637e8f60e11b600052600060045260246000fd5b6001600160d01b038111612050576001600160d01b031690565b6306dfcc6560e41b60005260d060045260245260446000fd5b60405163a9059cbb60e01b60208201526001600160a01b0390921660248301526044808301939093529181526111d7916120a46064836111a6565b6126d7565b65ffffffffffff81116120c15765ffffffffffff1690565b6306dfcc6560e41b600052603060045260245260446000fd5b906001820180921161082357565b90815490600082916005841161212e575b61210493508461290c565b600091908061211557505050600090565b61211e90611872565b9082526020909120015460301c90565b919261213981612797565b810390811161082357612104938560005265ffffffffffff82602060002001541665ffffffffffff8516106000146121725750916120f9565b92915061217e906120da565b906120f9565b61029e436120a9565b6001600160a01b0381811660008181526000805160206131dd8339815191526020526040812080548685166001600160a01b0319821681179092559294612242949390931692869261223c9290859088907f3134e8a2e6d97e929a7e54011ea5485d7d196dd5f0ba4d4ef95803e8e3fc257f9080a46001600160a01b031660009081527f52c63247e1f47db19d5ce0460030c497f067ca4cebf71ba98eeadabe20bace00602052604090205490565b91612cbb565b6000526000602052604060002090612259436120a9565b8254929083156122fa5765ffffffffffff61228561227f61227987611872565b85612505565b50612e1e565b805165ffffffffffff16828416928391161161233257516122b49065ffffffffffff165b65ffffffffffff1690565b036122fa57506122ca906107ae6111d794611872565b5080546601000000000000600160d01b03191660309290921b6601000000000000600160d01b0316919091179055565b916111d7935061232d9061231d61230f6111c8565b65ffffffffffff9095168552565b6001600160a01b03166020840152565b612dbf565b632520601d60e01b60005260046000fd5b80549081612352575050600090565b816000198101116108235760005260001990602060002001015460301c90565b6040516323b872dd60e01b60208201526001600160a01b0392831660248201529290911660448301526064808301939093529181526111d7916120a46084836111a6565b6001600160a01b03811692919083156124755760008051602061323d833981519152548281018091116108235760008051602061323d833981519152556000936123ff82611904565b80548401905560405183815285907fddf252ad1be2c89b69c2b068fc378daa952ba7f163c4a11628f55a4df523b3ef90602090a360008051602061323d833981519152546001600160d01b03908181116124605750506111d7929350612f3b565b630e58ae9360e11b8652600452602452604484fd5b63ec442f0560e01b600052600060045260246000fd5b9161029e939161249a93612b69565b90929192612c12565b6001600160a01b031660008181527f5ab42ced628888259c08ac98db1eb0cf702fc1501344311d8b100cd1bfe4bb0060205260409020805460018101909155918290036124ee575050565b6301d4b62360e61b60005260045260245260446000fd5b805482101561251d5760005260206000200190600090565b634e487b7160e01b600052603260045260246000fd5b634e487b7160e01b600052600060045260246000fd5b8054600160401b8110156111a15761256691600182018155612505565b61259057815160209092015160301b65ffffffffffff191665ffffffffffff909216919091179055565b612533565b906040516125a281611185565b915465ffffffffffff8116835260301c6020830152565b8054929392919082156126ad576125e76125e26125d585611872565b8360005260206000200190565b612595565b9065ffffffffffff6125ff835165ffffffffffff1690565b8185169182911611612332576126719460209488926126276122a9875165ffffffffffff1690565b0361267557506126639261263d61264a92611872565b9060005260206000200190565b9065ffffffffffff82549181199060301b169116179055565b01516001600160d01b031690565b9190565b9150506126a8916126956126876111c8565b65ffffffffffff9093168352565b6001600160d01b03881682860152612549565b612663565b6126d192506126bd6126876111c8565b6001600160d01b0385166020830152612549565b60009190565b6000806127219260018060a01b03169360208151910182865af13d1561276f573d90612702826111d9565b9161271060405193846111a6565b82523d6000602084013e5b8361317b565b8051908115159182612754575b50506127375750565b635274afe760e01b6000526001600160a01b031660045260246000fd5b6127679250602080918301019101611a2f565b15388061272e565b60609061271b565b8115612781570490565b634e487b7160e01b600052601260045260246000fd5b80156129065761029e9061289c61289561288b61288161287761286d612863612859600161284760008b608081901c806128f8575b50806127db61283d9260401c90565b806128eb575b506127ec8160201c90565b806128de575b506127fd8160101c90565b806128d1575b5061280e8160081c90565b806128c4575b5061281f8160041c90565b806128b7575b506128308160021c90565b806128aa575b5060011c90565b6128a25760011c90565b1b612852818b612777565b0160011c90565b612852818a612777565b6128528189612777565b6128528188612777565b6128528187612777565b6128528186612777565b6128528185612777565b8092612777565b90612c94565b820160011c90565b6002915092019138612836565b6004915092019138612825565b6008915092019138612814565b6010915092019138612803565b60209150920191386127f2565b60409150920191386127e1565b60809250905061283d6127cc565b50600090565b905b83831061291b5750505090565b9091926129288185612ca6565b908360005265ffffffffffff82602060002001541665ffffffffffff8416106000146129585750925b919061290e565b935060018101809111156129515761185c565b60ff60008051602061327d8339815191525460401c161561298857565b631afcd79f60e31b60005260046000fd5b601f81116129a5575050565b6000805160206131fd8339815191526000526020600020906020601f840160051c830193106129ef575b601f0160051c01905b8181106129e3575050565b600081556001016129d8565b90915081906129cf565b601f8211612a0657505050565b6000526020600020906020601f840160051c83019310612a41575b601f0160051c01905b818110612a35575050565b60008155600101612a2a565b9091508190612a21565b90815167ffffffffffffffff81116111a157612a8d81612a7960008051602061321d8339815191525461161a565b60008051602061321d8339815191526129f9565b602092601f8211600114612ad057612abe92938291600092611ea95750508160011b916000199060031b1c19161790565b60008051602061321d83398151915255565b60008051602061321d833981519152600052601f198216937f46a2803e59a4de4e7a4c574b1243f25977ac4c77d5a1a4a609b5394cebb4a2aa9160005b868110612b515750836001959610612b38575b505050811b0160008051602061321d83398151915255565b015160001960f88460031b161c19169055388080612b20565b91926020600181928685015181550194019201612b0d565b91907f7fffffffffffffffffffffffffffffff5d576e7357a4501ddfe92f46681b20a08411612be6579160209360809260ff60009560405194855216868401526040830152606082015282805260015afa15610996576000516001600160a01b03811615612bda5790600090600090565b50600090600190600090565b50505060009160039190565b60041115612bfc57565b634e487b7160e01b600052602160045260246000fd5b612c1b81612bf2565b80612c24575050565b612c2d81612bf2565b60018103612c465763f645eedf60e01b60005260046000fd5b612c4f81612bf2565b60028103612c6c575063fce698f760e01b60005260045260246000fd5b80612c78600392612bf2565b14612c805750565b6335e2f38360e21b60005260045260246000fd5b9080821015612ca1575090565b905090565b90808216911860011c81018091116108235790565b6001600160a01b03808316939291908116908185141580612db6575b612ce3575b5050505050565b81612d58575b505082612cf8575b8080612cdc565b7fdec2bacdd2f05b59de34da9b523dff8be42e5e38e818c82fdb0bae774387a72491612d2f612d29612d35936118cb565b91612036565b90612ffa565b604080516001600160d01b039384168152919092166020820152a2388080612cf1565b612d94612d857fdec2bacdd2f05b59de34da9b523dff8be42e5e38e818c82fdb0bae774387a724926118cb565b612d8e86612036565b90612fc2565b604080516001600160d01b039384168152919092166020820152a23880612ce9565b50831515612cd7565b8054600160401b8110156111a157612ddc91600182018155612505565b61259057815181546020909301516601000000000000600160d01b0360309190911b166001600160d01b031990931665ffffffffffff90911617919091179055565b90604051612e2b81611185565b915465ffffffffffff8116835260301c6001600160a01b03166020830152565b905b838310612e5a5750505090565b909192612e678185612ca6565b9065ffffffffffff612e798386612505565b50541665ffffffffffff84161015612e955750925b9190612e4d565b93506001810180911115612e8e5761185c565b6111d791906001600160a01b03168015612f23575b612ece612ec983612036565b61307d565b505060009081526000805160206131dd83398151915260205260408120549080527fd4fb29e10204005f1a39963c6862b79a755e22f0177c53f05cdc3786c702f974546001600160a01b039081169116612cbb565b612f34612f2f83612036565b61302e565b5050612ebd565b906111d791612f4c612f2f83612036565b50506001600160a01b03168015612faf575b6000805160206131dd8339815191526020527fd4fb29e10204005f1a39963c6862b79a755e22f0177c53f05cdc3786c702f9745460009182526040909120546001600160a01b039081169116612cbb565b612fbb612ec983612036565b5050612f5e565b90612fcc436120a9565b90612fd683612343565b6001600160d01b03918216908216039190821161082357612ff6926125b9565b9091565b90613004436120a9565b9061300e83612343565b6001600160d01b03918216908216019190821161082357612ff6926125b9565b613037436120a9565b9061304f60008051602061325d833981519152612343565b6001600160d01b039182169082160190811161082357612ff69160008051602061325d8339815191526125b9565b613086436120a9565b9061309e60008051602061325d833981519152612343565b6001600160d01b039182169082160390811161082357612ff69160008051602061325d8339815191526125b9565b6130d4611654565b80519081156130e4576020012090565b50507fa16a46d94261c7517cc8ff89f61c0ce93598e3c849801011dee649a6a557d1005480156131115790565b507fc5d2460186f7233c927e7db2dcc703c0e500b653ca82273b7bfad8045d85a47090565b61313e611749565b805190811561314e576020012090565b50507fa16a46d94261c7517cc8ff89f61c0ce93598e3c849801011dee649a6a557d1015480156131115790565b906131a1575080511561319057805190602001fd5b630a12f52160e11b60005260046000fd5b815115806131d3575b6131b2575090565b639996b31560e01b60009081526001600160a01b0391909116600452602490fd5b50803b156131aa56fee8b26c30fad74198956032a3533d903385d56dd795af560196f9c78d4af40d0052c63247e1f47db19d5ce0460030c497f067ca4cebf71ba98eeadabe20bace0352c63247e1f47db19d5ce0460030c497f067ca4cebf71ba98eeadabe20bace0452c63247e1f47db19d5ce0460030c497f067ca4cebf71ba98eeadabe20bace02e8b26c30fad74198956032a3533d903385d56dd795af560196f9c78d4af40d02f0c57e16840df040f15088dc2f81fe391c3923bec73e23a9662efc9c229c6a00a26469706673582212201c095a525a30d7bea8992c0e24324df3c76ce92413c38cdee75d22e50b740bba64736f6c634300081a0033","linkReferences":{}},"methodIdentifiers":{"CLOCK_MODE()":"4bf5d7e9","agentNft()":"9cbef4a9","allowance(address,address)":"dd62ed3e","approve(address,uint256)":"095ea7b3","assetToken()":"1083f761","balanceOf(address)":"70a08231","canStake()":"9ed27809","checkpoints(address,uint32)":"f1127ed8","clock()":"91ddadf4","decimals()":"313ce567","delegate(address)":"5c19a95c","delegateBySig(address,uint256,uint256,uint8,bytes32,bytes32)":"c3cda520","delegates(address)":"587cde1e","eip712Domain()":"84b0196e","founder()":"4d853ee5","getPastBalanceOf(address,uint256)":"d7b7d405","getPastDelegates(address,uint256)":"5ec80600","getPastTotalSupply(uint256)":"8e539e8c","getPastVotes(address,uint256)":"3a46b1a8","getVotes(address)":"9ab24eb0","initialLock()":"836f8f20","initialize(string,string,address,address,uint256,address,bool)":"b2193b4d","matureAt()":"a5e881b3","name()":"06fdde03","nonces(address)":"7ecebe00","numCheckpoints(address)":"6fcfff45","setCanStake(bool)":"e8867180","setMatureAt(uint256)":"7e893f80","stake(uint256,address,address)":"a7d545db","symbol()":"95d89b41","totalSupply()":"18160ddd","transfer(address,uint256)":"a9059cbb","transferFrom(address,address,uint256)":"23b872dd","withdraw(uint256)":"2e1a7d4d"},"id":64}