{"abi":[{"type":"constructor","inputs":[],"stateMutability":"nonpayable"},{"type":"function","name":"DENOM","inputs":[],"outputs":[{"name":"","type":"uint256","internalType":"uint256"}],"stateMutability":"view"},{"type":"function","name":"agentNft","inputs":[],"outputs":[{"name":"","type":"address","internalType":"address"}],"stateMutability":"view"},{"type":"function","name":"contributionNft","inputs":[],"outputs":[{"name":"","type":"address","internalType":"address"}],"stateMutability":"view"},{"type":"function","name":"impactMulOverrides","inputs":[{"name":"","type":"uint256","internalType":"uint256"}],"outputs":[{"name":"","type":"uint256","internalType":"uint256"}],"stateMutability":"view"},{"type":"function","name":"impactMultiplier","inputs":[],"outputs":[{"name":"","type":"uint256","internalType":"uint256"}],"stateMutability":"view"},{"type":"function","name":"initialize","inputs":[{"name":"serviceAddress","type":"address","internalType":"address"},{"name":"contributionAddress","type":"address","internalType":"address"},{"name":"agentAddress","type":"address","internalType":"address"},{"name":"ipShare_","type":"uint256","internalType":"uint256"},{"name":"impactMultiplier_","type":"uint256","internalType":"uint256"},{"name":"ipVault_","type":"address","internalType":"address"},{"name":"agentFactory_","type":"address","internalType":"address"},{"name":"initialOwner","type":"address","internalType":"address"},{"name":"maxImpact_","type":"uint256","internalType":"uint256"}],"outputs":[],"stateMutability":"nonpayable"},{"type":"function","name":"ipShare","inputs":[],"outputs":[{"name":"","type":"uint256","internalType":"uint256"}],"stateMutability":"view"},{"type":"function","name":"ipShareOverrides","inputs":[{"name":"","type":"uint256","internalType":"uint256"}],"outputs":[{"name":"","type":"uint256","internalType":"uint256"}],"stateMutability":"view"},{"type":"function","name":"ipVault","inputs":[],"outputs":[{"name":"","type":"address","internalType":"address"}],"stateMutability":"view"},{"type":"function","name":"maxImpact","inputs":[],"outputs":[{"name":"","type":"uint256","internalType":"uint256"}],"stateMutability":"view"},{"type":"function","name":"mint","inputs":[{"name":"nftId","type":"uint256","internalType":"uint256"}],"outputs":[],"stateMutability":"nonpayable"},{"type":"function","name":"owner","inputs":[],"outputs":[{"name":"","type":"address","internalType":"address"}],"stateMutability":"view"},{"type":"function","name":"renounceOwnership","inputs":[],"outputs":[],"stateMutability":"nonpayable"},{"type":"function","name":"saveToken","inputs":[{"name":"_token","type":"address","internalType":"address"},{"name":"_receiver","type":"address","internalType":"address"},{"name":"_amount","type":"uint256","internalType":"uint256"}],"outputs":[],"stateMutability":"nonpayable"},{"type":"function","name":"serviceNft","inputs":[],"outputs":[{"name":"","type":"address","internalType":"address"}],"stateMutability":"view"},{"type":"function","name":"setAgentFactory","inputs":[{"name":"_factory","type":"address","internalType":"address"}],"outputs":[],"stateMutability":"nonpayable"},{"type":"function","name":"setContributionNft","inputs":[{"name":"contributionAddress","type":"address","internalType":"address"}],"outputs":[],"stateMutability":"nonpayable"},{"type":"function","name":"setIPShare","inputs":[{"name":"_ipShare","type":"uint256","internalType":"uint256"}],"outputs":[],"stateMutability":"nonpayable"},{"type":"function","name":"setIPShareOverride","inputs":[{"name":"virtualId","type":"uint256","internalType":"uint256"},{"name":"_ipShare","type":"uint256","internalType":"uint256"}],"outputs":[],"stateMutability":"nonpayable"},{"type":"function","name":"setIPVault","inputs":[{"name":"_ipVault","type":"address","internalType":"address"}],"outputs":[],"stateMutability":"nonpayable"},{"type":"function","name":"setImpactMulOverride","inputs":[{"name":"virtualId","type":"uint256","internalType":"uint256"},{"name":"mul","type":"uint256","internalType":"uint256"}],"outputs":[],"stateMutability":"nonpayable"},{"type":"function","name":"setImpactMultiplier","inputs":[{"name":"_multiplier","type":"uint256","internalType":"uint256"}],"outputs":[],"stateMutability":"nonpayable"},{"type":"function","name":"setMaxImpact","inputs":[{"name":"maxImpact_","type":"uint256","internalType":"uint256"}],"outputs":[],"stateMutability":"nonpayable"},{"type":"function","name":"setServiceNft","inputs":[{"name":"serviceAddress","type":"address","internalType":"address"}],"outputs":[],"stateMutability":"nonpayable"},{"type":"function","name":"transferOwnership","inputs":[{"name":"newOwner","type":"address","internalType":"address"}],"outputs":[],"stateMutability":"nonpayable"},{"type":"event","name":"AgentIPShareUpdated","inputs":[{"name":"virtualId","type":"uint256","indexed":true,"internalType":"uint256"},{"name":"newMultiplier","type":"uint256","indexed":false,"internalType":"uint256"}],"anonymous":false},{"type":"event","name":"AgentImpactMultiplierUpdated","inputs":[{"name":"virtualId","type":"uint256","indexed":true,"internalType":"uint256"},{"name":"newMultiplier","type":"uint256","indexed":false,"internalType":"uint256"}],"anonymous":false},{"type":"event","name":"IPShareUpdated","inputs":[{"name":"newMultiplier","type":"uint256","indexed":false,"internalType":"uint256"}],"anonymous":false},{"type":"event","name":"ImpactMultiplierUpdated","inputs":[{"name":"newMultiplier","type":"uint256","indexed":false,"internalType":"uint256"}],"anonymous":false},{"type":"event","name":"Initialized","inputs":[{"name":"version","type":"uint64","indexed":false,"internalType":"uint64"}],"anonymous":false},{"type":"event","name":"OwnershipTransferred","inputs":[{"name":"previousOwner","type":"address","indexed":true,"internalType":"address"},{"name":"newOwner","type":"address","indexed":true,"internalType":"address"}],"anonymous":false},{"type":"event","name":"TokenSaved","inputs":[{"name":"by","type":"address","indexed":true,"internalType":"address"},{"name":"receiver","type":"address","indexed":true,"internalType":"address"},{"name":"token","type":"address","indexed":true,"internalType":"address"},{"name":"amount","type":"uint256","indexed":false,"internalType":"uint256"}],"anonymous":false},{"type":"error","name":"AddressEmptyCode","inputs":[{"name":"target","type":"address","internalType":"address"}]},{"type":"error","name":"AddressInsufficientBalance","inputs":[{"name":"account","type":"address","internalType":"address"}]},{"type":"error","name":"FailedInnerCall","inputs":[]},{"type":"error","name":"InvalidInitialization","inputs":[]},{"type":"error","name":"NotInitializing","inputs":[]},{"type":"error","name":"OwnableInvalidOwner","inputs":[{"name":"owner","type":"address","internalType":"address"}]},{"type":"error","name":"OwnableUnauthorizedAccount","inputs":[{"name":"account","type":"address","internalType":"address"}]},{"type":"error","name":"SafeERC20FailedOperation","inputs":[{"name":"token","type":"address","internalType":"address"}]}],"bytecode":{"object":"0x6080806040523460d2577ff0c57e16840df040f15088dc2f81fe391c3923bec73e23a9662efc9c229c6a005460ff8160401c1660c1576002600160401b03196001600160401b03821601605c575b60405161146d90816100d88239f35b6001600160401b0319166001600160401b039081177ff0c57e16840df040f15088dc2f81fe391c3923bec73e23a9662efc9c229c6a005581527fc7f505b2f371ae2175ee4913f4499e1f2633a7b5936321eed1cdaeb6115181d290602090a13880604d565b63f92ee8a960e01b60005260046000fd5b600080fdfe608080604052600436101561001357600080fd5b60003560e01c90816307c1aa1a146110e5575080630a2f51dc146110a25780630dceec231461108157806316343da4146110645780631c56b1df146110215780632a964f7e146110035780632bfd2dd814610dc75780634ad4c19c14610d9b5780635423771814610d7d5780636846545414610d31578063715018a614610cc75780637a6649e114610c7b5780637caf907314610c335780637cc1ce9e14610bf05780638da5cb5b14610bba5780639863bbe514610b8e5780639afdb2c214610a355780639cbef4a914610a0c578063a0712d6814610331578063a414a37214610308578063d11a675c146102ea578063e56efef5146102c1578063f2fde38b14610296578063f62d5008146102425763fb720a161461013257600080fd5b3461023d5761014036611135565b600254604051635652386760e11b81526004810184905290600090829060249082906001600160a01b03165afa9081156102315760009161020e575b50516001600160a01b031633036101c95760207f321b7627bf4bead82276d804d9f54a66c3da4fa43a3619ccea184b233a34278591836000526009825280604060002055604051908152a2005b60405162461bcd60e51b815260206004820152601a60248201527f4f6e6c79204167656e742044414f2063616e206f7065726174650000000000006044820152606490fd5b61022b91503d806000833e610223818361114b565b810190611181565b3861017c565b6040513d6000823e3d90fd5b600080fd5b3461023d5760207f9aaa975f1dff38a27549d33f7427d17b874eca174092041f2487ce5d8edaed5661027336611135565b61027e939193611332565b836000526008825280604060002055604051908152a2005b3461023d57602036600319011261023d576102bf6102b2611109565b6102ba611332565b6112bc565b005b3461023d57600036600319011261023d576000546040516001600160a01b039091168152602090f35b3461023d57600036600319011261023d576020600554604051908152f35b3461023d57600036600319011261023d576003546040516001600160a01b039091168152602090f35b3461023d57602036600319011261023d57600435600a5460ff81166109d65760ff1916600117600a5560008181526007602052604090205460ff166109a05760015460405163ccc16f6960e01b81526004810183905290602090829060249082906001600160a01b03165afa9081156102315760009161096e575b50801561093757600082815260076020526040808220805460ff191660011790556002549051635652386760e11b8152600481018490529190829060249082906001600160a01b03165afa9081156102315760009161091c575b50602090810151600154604051638209c69960e01b8152600481018690526001600160a01b0392831694929091169281602481865afa908115610231576000916108fd575b50156108b857600052600860205260406000205480156108af575b6040516360a58cbd60e11b81526004810185905290602082602481865afa9182156102315760009261087b575b5060005460405163e6aed85760e01b8152600481018790526001600160a01b0390911690602081602481855afa8015610231578390600090610841575b6006546104e69350808211610839575b506112a9565b670de0b6b3a7640000810290808204670de0b6b3a764000014901517156107e557612710900490831515928360001461082f5760206024926040519384809263e6aed85760e01b82528960048301525afa8015610231576000906107fb575b61054f92506112a9565b670de0b6b3a7640000810290808204670de0b6b3a764000014901517156107e5576127109004935b8482018083116107e55761059161271091600454906112a9565b049682610710575b50505061062c575b5050816105b5575b600a805460ff19169055005b60035460405163a9059cbb60e01b81526001600160a01b0390911660048201526024810192909252602090829060449082906000905af18015610231576105fd575b806105a9565b61061e9060203d602011610625575b610616818361114b565b810190611291565b50806105f7565b503d61060c565b6001546040516331a9108f60e11b81526004810192909252602090829060249082906001600160a01b03165afa908115610231576000916106ce575b5060405163a9059cbb60e01b81526001600160a01b039091166004820152602481019190915260208180604481015b03816000865af18015610231576106af575b806105a1565b6106c79060203d60201161062557610616818361114b565b50826106a9565b90506020813d602011610708575b816106e96020938361114b565b8101031261023d576106979161070060209261116d565b915091610668565b3d91506106dc565b6020906024604051809481936331a9108f60e11b835260048301525afa908115610231576000916107a3575b5060405163a9059cbb60e01b81526001600160a01b039091166004820152602481019190915260208180604481015b03816000895af1801561023157610784575b8080610599565b61079c9060203d60201161062557610616818361114b565b508561077d565b90506020813d6020116107dd575b816107be6020938361114b565b8101031261023d5761076b916107d560209261116d565b91509161073c565b3d91506107b1565b634e487b7160e01b600052601160045260246000fd5b506020823d602011610827575b816108156020938361114b565b8101031261023d5761054f9151610545565b3d9150610808565b5050600093610577565b9050896104e0565b90506020823d602011610873575b8161085c6020938361114b565b810103126108705750826104e691516104d0565b80fd5b3d915061084f565b90916020823d6020116108a7575b816108966020938361114b565b810103126108705750519085610493565b3d9150610889565b50600554610466565b60405162461bcd60e51b815260206004820152601860248201527f4e6f742061206d6f64656c20636f6e747269627574696f6e00000000000000006044820152606490fd5b610916915060203d60201161062557610616818361114b565b8561044b565b61093191503d806000833e610223818361114b565b83610406565b60405162461bcd60e51b815260206004820152600f60248201526e1059d95b9d081b9bdd08199bdd5b99608a1b6044820152606490fd5b906020823d602011610998575b816109886020938361114b565b81010312610870575051826103ac565b3d915061097b565b60405162461bcd60e51b815260206004820152600e60248201526d105b1c9958591e481b5a5b9d195960921b6044820152606490fd5b60405162461bcd60e51b815260206004820152600e60248201526d31b0b73737ba103932b2b73a32b960911b6044820152606490fd5b3461023d57600036600319011261023d576002546040516001600160a01b039091168152602090f35b3461023d57606036600319011261023d57610a4e611109565b610a5661111f565b9060443590610a63611332565b60405163a9059cbb60e01b602082019081526001600160a01b03858116602484015260448084018690528352929092169391600091829190610aa660648261114b565b519082875af13d15610b82573d67ffffffffffffffff8111610b6c57610aef9160405191610ade6020601f19601f840116018461114b565b82523d6000602084013e5b85611396565b8051908115159182610b51575b5050610b3c576040519182526001600160a01b03169033907f30d87cec6b4c56cede1018725d1e6d9304e2f7ee6d25b004b7e2183f793f26bc90602090a4005b82635274afe760e01b60005260045260246000fd5b610b649250602080918301019101611291565b158480610afc565b634e487b7160e01b600052604160045260246000fd5b610aef90606090610ae9565b3461023d57602036600319011261023d5760043560005260096020526020604060002054604051908152f35b3461023d57600036600319011261023d576000805160206113f8833981519152546040516001600160a01b039091168152602090f35b3461023d57602036600319011261023d57610c09611109565b610c11611332565b600080546001600160a01b0319166001600160a01b0392909216919091179055005b3461023d57602036600319011261023d57610c4c611109565b610c54611332565b600a8054610100600160a81b03191660089290921b610100600160a81b0316919091179055005b3461023d57602036600319011261023d577f9e4bbaa2f4ca6ad925ae5b0cf0127f1b1c7efb69bdb88fac377ccc1fde7668b66020600435610cba611332565b80600455604051908152a1005b3461023d57600036600319011261023d57610ce0611332565b6000805160206113f883398151915280546001600160a01b031981169091556000906001600160a01b03167f8be0079c531659141344cd1fd0a4f28419497f9722a3daafe3b4186f6b6457e08280a3005b3461023d57602036600319011261023d577ffd7acb0863c4ee814c494dda5a7889b7823328b7b3518cfd0d5881c6b7de46946020600435610d70611332565b80600555604051908152a1005b3461023d57600036600319011261023d576020600654604051908152f35b3461023d57602036600319011261023d5760043560005260086020526020604060002054604051908152f35b3461023d5761012036600319011261023d57610de1611109565b610de961111f565b6044356001600160a01b0381169081900361023d5760a4356001600160a01b038116919082900361023d5760c435926001600160a01b038416840361023d5760e435946001600160a01b038616860361023d576000805160206114188339815191525460ff8160401c16159667ffffffffffffffff821680159081610ffb575b6001149081610ff1575b159081610fe8575b50610fd75767ffffffffffffffff19821660011760008051602061141883398151915255610eba9188610faa575b50610eb2611368565b6102ba611368565b60018060a01b03166001600160601b0360a01b600054161760005560018060a01b03166001600160601b0360a01b60015416176001556001600160601b0360a01b60025416176002556064356004556084356005556001600160601b0360a01b6003541617600355600a5490610100600160a81b039060081b1690610100600160a81b03191617600a5561010435600655610f5157005b68ff0000000000000000196000805160206114188339815191525416600080516020611418833981519152557fc7f505b2f371ae2175ee4913f4499e1f2633a7b5936321eed1cdaeb6115181d2602060405160018152a1005b68ffffffffffffffffff191668010000000000000001176000805160206114188339815191525588610ea9565b63f92ee8a960e01b60005260046000fd5b90501589610e7b565b303b159150610e73565b899150610e69565b3461023d57600036600319011261023d576020600454604051908152f35b3461023d57602036600319011261023d5761103a611109565b611042611332565b600180546001600160a01b0319166001600160a01b0392909216919091179055005b3461023d57600036600319011261023d5760206040516127108152f35b3461023d57602036600319011261023d5761109a611332565b600435600655005b3461023d57602036600319011261023d576110bb611109565b6110c3611332565b600380546001600160a01b0319166001600160a01b0392909216919091179055005b3461023d57600036600319011261023d576001546001600160a01b03168152602090f35b600435906001600160a01b038216820361023d57565b602435906001600160a01b038216820361023d57565b604090600319011261023d576004359060243590565b90601f8019910116810190811067ffffffffffffffff821117610b6c57604052565b51906001600160a01b038216820361023d57565b60208183031261023d5780519067ffffffffffffffff821161023d57019060a08282031261023d576040519160a0830183811067ffffffffffffffff821117610b6c576040526111d08161116d565b83526111de6020820161116d565b60208401526111ef6040820161116d565b60408401526112006060820161116d565b606084015260808101519067ffffffffffffffff821161023d570181601f8201121561023d5780519167ffffffffffffffff8311610b6c578260051b916040519361124e602085018661114b565b845260208085019382010191821161023d57602001915b81831061127757505050608082015290565b825160ff8116810361023d57815260209283019201611265565b9081602091031261023d5751801515810361023d5790565b818102929181159184041417156107e557565b6001600160a01b0316801561131c576000805160206113f883398151915280546001600160a01b0319811683179091556001600160a01b03167f8be0079c531659141344cd1fd0a4f28419497f9722a3daafe3b4186f6b6457e0600080a3565b631e4fbdf760e01b600052600060045260246000fd5b6000805160206113f8833981519152546001600160a01b0316330361135357565b63118cdaa760e01b6000523360045260246000fd5b60ff6000805160206114188339815191525460401c161561138557565b631afcd79f60e31b60005260046000fd5b906113bc57508051156113ab57805190602001fd5b630a12f52160e11b60005260046000fd5b815115806113ee575b6113cd575090565b639996b31560e01b60009081526001600160a01b0391909116600452602490fd5b50803b156113c556fe9016d09d72d40fdae2fd8ceac6b6234c7706214fd39c1cd1e609a0528c199300f0c57e16840df040f15088dc2f81fe391c3923bec73e23a9662efc9c229c6a00a2646970667358221220d9e68ac18b7adf3f4ee23eab8434fdbbb873595bc20400e361feef777aca636864736f6c634300081a0033","linkReferences":{}},"methodIdentifiers":{"DENOM()":"16343da4","agentNft()":"9cbef4a9","contributionNft()":"07c1aa1a","impactMulOverrides(uint256)":"4ad4c19c","impactMultiplier()":"d11a675c","initialize(address,address,address,uint256,uint256,address,address,address,uint256)":"2bfd2dd8","ipShare()":"2a964f7e","ipShareOverrides(uint256)":"9863bbe5","ipVault()":"a414a372","maxImpact()":"54237718","mint(uint256)":"a0712d68","owner()":"8da5cb5b","renounceOwnership()":"715018a6","saveToken(address,address,uint256)":"9afdb2c2","serviceNft()":"e56efef5","setAgentFactory(address)":"7caf9073","setContributionNft(address)":"1c56b1df","setIPShare(uint256)":"7a6649e1","setIPShareOverride(uint256,uint256)":"fb720a16","setIPVault(address)":"0a2f51dc","setImpactMulOverride(uint256,uint256)":"f62d5008","setImpactMultiplier(uint256)":"68465454","setMaxImpact(uint256)":"0dceec23","setServiceNft(address)":"7cc1ce9e","transferOwnership(address)":"f2fde38b"},"id":55}