{"abi":[{"type":"function","name":"canStake","inputs":[],"outputs":[{"name":"","type":"bool","internalType":"bool"}],"stateMutability":"view"},{"type":"function","name":"founder","inputs":[],"outputs":[{"name":"","type":"address","internalType":"address"}],"stateMutability":"view"},{"type":"function","name":"initialize","inputs":[{"name":"name","type":"string","internalType":"string"},{"name":"symbol","type":"string","internalType":"string"},{"name":"_founder","type":"address","internalType":"address"},{"name":"_stakingAsset","type":"address","internalType":"address"},{"name":"_unlockTime","type":"uint256","internalType":"uint256"},{"name":"_nftAddress","type":"address","internalType":"address"},{"name":"_canStake","type":"bool","internalType":"bool"}],"outputs":[],"stateMutability":"nonpayable"},{"type":"function","name":"nftAddress","inputs":[],"outputs":[{"name":"","type":"address","internalType":"address"}],"stateMutability":"view"},{"type":"function","name":"stake","inputs":[{"name":"amount","type":"uint256","internalType":"uint256"},{"name":"recipient","type":"address","internalType":"address"},{"name":"delegatee","type":"address","internalType":"address"}],"outputs":[],"stateMutability":"nonpayable"},{"type":"function","name":"stakingAsset","inputs":[],"outputs":[{"name":"","type":"address","internalType":"address"}],"stateMutability":"view"},{"type":"function","name":"unlockTime","inputs":[],"outputs":[{"name":"","type":"uint256","internalType":"uint256"}],"stateMutability":"view"}],"bytecode":{"object":"0x6080806040523460155761032e908161001b8239f35b600080fdfe608080604052600436101561001357600080fd5b60003560e01c908163251c1aa314610232575080634d853ee5146102095780635bf8633a146101e05780637776768f146101b75780639ed2780914610191578063a7d545db1461016d5763b2193b4d1461006c57600080fd5b346101685760e03660031901126101685760043567ffffffffffffffff81116101685761009d903690600401610279565b5060243567ffffffffffffffff8111610168576100be903690600401610279565b506100c7610263565b6064356001600160a01b03811691908290036101685760a4356001600160a01b03811691908290036101685760c43592831515809403610168576bffffffffffffffffffffffff60a01b600054161760005560018060a01b03166bffffffffffffffffffffffff60a01b60015416176001556084356002556003549160ff60a01b9060a01b16916affffffffffffffffffffff60a81b161717600355600080f35b600080fd5b346101685760603660031901126101685761018661024d565b5061018f610263565b005b3461016857600036600319011261016857602060ff60035460a01c166040519015158152f35b34610168576000366003190112610168576000546040516001600160a01b039091168152602090f35b34610168576000366003190112610168576003546040516001600160a01b039091168152602090f35b34610168576000366003190112610168576001546040516001600160a01b039091168152602090f35b34610168576000366003190112610168576020906002548152f35b602435906001600160a01b038216820361016857565b604435906001600160a01b038216820361016857565b81601f820112156101685780359067ffffffffffffffff82116102e25760405192601f8301601f19908116603f0116840167ffffffffffffffff8111858210176102e2576040528284526020838301011161016857816000926020809301838601378301015290565b634e487b7160e01b600052604160045260246000fdfea264697066735822122041c5a2b38b5508745f297cbf2f7ca218753af4bf172fd88842834a7de3209bd664736f6c634300081a0033","linkReferences":{}},"methodIdentifiers":{"canStake()":"9ed27809","founder()":"4d853ee5","initialize(string,string,address,address,uint256,address,bool)":"b2193b4d","nftAddress()":"5bf8633a","stake(uint256,address,address)":"a7d545db","stakingAsset()":"7776768f","unlockTime()":"251c1aa3"},"id":10}