{"abi":[{"type":"function","name":"initialize","inputs":[{"name":"","type":"string","internalType":"string"},{"name":"","type":"address","internalType":"address"},{"name":"","type":"address","internalType":"address"},{"name":"","type":"uint256","internalType":"uint256"},{"name":"","type":"uint32","internalType":"uint32"}],"outputs":[],"stateMutability":"nonpayable"}],"bytecode":{"object":"0x6080806040523460155761014c908161001b8239f35b600080fdfe6080600436101561000f57600080fd5b60003560e01c63718f7cd41461002457600080fd5b346100cf5760a03660031901126100cf5760043567ffffffffffffffff81116100cf57366023820112156100cf57806004013567ffffffffffffffff81116100d457601f8101601f19908116603f0116830167ffffffffffffffff8111848210176100d45760405280835236602482840101116100cf5760009281602460209401848301370101526100b46100ea565b506100bd610100565b5060843563ffffffff8116036100cf57005b600080fd5b634e487b7160e01b600052604160045260246000fd5b602435906001600160a01b03821682036100cf57565b604435906001600160a01b03821682036100cf5756fea2646970667358221220900f27a29811de6bd92b9ad480a0ab7cde1f620cfb068c922bb67414764c237664736f6c634300081a0033","linkReferences":{}},"methodIdentifiers":{"initialize(string,address,address,uint256,uint32)":"718f7cd4"},"id":51}