{"abi":[{"type":"function","name":"createPair","inputs":[{"name":"tokenA","type":"address","internalType":"address"},{"name":"tokenB","type":"address","internalType":"address"}],"outputs":[{"name":"","type":"address","internalType":"address"}],"stateMutability":"nonpayable"},{"type":"function","name":"getPair","inputs":[{"name":"tokenA","type":"address","internalType":"address"},{"name":"tokenB","type":"address","internalType":"address"}],"outputs":[{"name":"","type":"address","internalType":"address"}],"stateMutability":"view"},{"type":"function","name":"setPair","inputs":[{"name":"tokenA","type":"address","internalType":"address"},{"name":"tokenB","type":"address","internalType":"address"},{"name":"lpToken","type":"address","internalType":"address"}],"outputs":[],"stateMutability":"nonpayable"}],"bytecode":{"object":"0x6080806040523461001657610db5908161001c8239f35b600080fdfe604060808152600436101561001357600080fd5b600090813560e01c80637bb4101214610154578063c9c653961461008d5763e6a439051461004057600080fd5b346100895780600319360112610089576020918161005c6101df565b916100656101fa565b6001600160a01b039384168252818652828220908416825285522054915191168152f35b5080fd5b50346100895780600319360112610089576100a66101df565b906100af6101fa565b918151610b6f8082019082821067ffffffffffffffff831117610140579082916102118339039085f0908115610136576001600160a01b03908116808652602086815284872095831687529485528386208054939092166001600160a01b031993841681179092558585528386209086528452938290208054909116841790555191825290f35b82513d86823e3d90fd5b634e487b7160e01b87526041600452602487fd5b50346100895760603660031901126100895761016e6101df565b906101776101fa565b6001600160a01b0392604435848116939291908490036101db578416938486528560205282862091168552602052808420926bffffffffffffffffffffffff60a01b9383858254161790558460205281852090855260205283209182541617905580f35b8580fd5b600435906001600160a01b03821682036101f557565b600080fd5b602435906001600160a01b03821682036101f55756fe60803462000339576040906001600160401b03908083018281118282101762000323578352600981526020916845524332304d6f636b60b81b838301528351928484018481108382111762000323578552600493848152634532304d60e01b828201528351908382116200030e576003928354926001968785811c9516801562000303575b83861014620002ee578190601f9586811162000298575b508390868311600114620002315760009262000225575b505060001982871b1c191690871b1784555b8151948511620002105786548681811c9116801562000205575b82821014620001f057838111620001a5575b50809285116001146200013757509383949184926000956200012b575b50501b92600019911b1c19161790555b5161083090816200033f8239f35b0151935038806200010d565b92919084601f1981168860005285600020956000905b898383106200018a57505050106200016f575b50505050811b0190556200011d565b01519060f884600019921b161c191690553880808062000160565b8587015189559097019694850194889350908101906200014d565b87600052816000208480880160051c820192848910620001e6575b0160051c019087905b828110620001d9575050620000f0565b60008155018790620001c9565b92508192620001c0565b602288634e487b7160e01b6000525260246000fd5b90607f1690620000de565b604187634e487b7160e01b6000525260246000fd5b015190503880620000b2565b90899350601f1983169188600052856000209260005b8782821062000281575050841162000268575b505050811b018455620000c4565b015160001983891b60f8161c191690553880806200025a565b8385015186558d9790950194938401930162000247565b90915086600052836000208680850160051c820192868610620002e4575b918b91869594930160051c01915b828110620002d45750506200009b565b600081558594508b9101620002c4565b92508192620002b6565b602289634e487b7160e01b6000525260246000fd5b94607f169462000084565b604186634e487b7160e01b6000525260246000fd5b634e487b7160e01b600052604160045260246000fd5b600080fdfe608060408181526004918236101561001657600080fd5b600092833560e01c91826306fdde03146105ca57508163095ea7b31461052057816318160ddd1461050157816323b872dd1461040a578163313ce567146103ee57816340c10f191461034257816370a082311461030b57816395d89b41146101ec5781639dc29fac1461011957508063a9059cbb146100e95763dd62ed3e1461009e57600080fd5b346100e557806003193601126100e557806020926100ba6106eb565b6100c2610706565b6001600160a01b0391821683526001865283832091168252845220549051908152f35b5080fd5b50346100e557806003193601126100e5576020906101126101086106eb565b602435903361071c565b5160018152f35b839150346100e557826003193601126100e5576101346106eb565b6001600160a01b038116916024359183156101d5578385528460205285852054918383106101a15750508184957fddf252ad1be2c89b69c2b068fc378daa952ba7f163c4a11628f55a4df523b3ef936020938688528785520381872055816002540360025551908152a380f35b865163391434e360e21b81526001600160a01b03909216908201908152602081018390526040810184905281906060010390fd5b8551634b637e8f60e11b8152808301869052602490fd5b8383346100e557816003193601126100e557805190828454600181811c90808316928315610301575b60209384841081146102ee578388529081156102d2575060011461027d575b505050829003601f01601f191682019267ffffffffffffffff84118385101761026a57508291826102669252826106a2565b0390f35b634e487b7160e01b815260418552602490fd5b8787529192508591837f8a35acfbc15ff81a39ae7d344fd709f28e8600b4aa8c65c6b64bfe7fe36bd19b5b8385106102be5750505050830101858080610234565b8054888601830152930192849082016102a8565b60ff1916878501525050151560051b8401019050858080610234565b634e487b7160e01b895260228a52602489fd5b91607f1691610215565b5050346100e55760203660031901126100e55760209181906001600160a01b036103336106eb565b16815280845220549051908152f35b919050346103ea57806003193601126103ea5761035d6106eb565b6001600160a01b031691602435919083156103d557600254908382018092116103c2575084927fddf252ad1be2c89b69c2b068fc378daa952ba7f163c4a11628f55a4df523b3ef9260209260025585855284835280852082815401905551908152a380f35b634e487b7160e01b865260119052602485fd5b84602492519163ec442f0560e01b8352820152fd5b8280fd5b5050346100e557816003193601126100e5576020905160128152f35b905082346104fe5760603660031901126104fe576104266106eb565b61042e610706565b916044359360018060a01b03831680835260016020528683203384526020528683205491600019830361046a575b60208861011289898961071c565b8683106104d25781156104bb5733156104a4575082526001602090815286832033845281529186902090859003905582906101128761045c565b8751634a1406b160e11b8152908101849052602490fd5b875163e602df0560e01b8152908101849052602490fd5b8751637dc7a0d960e11b8152339181019182526020820193909352604081018790528291506060010390fd5b80fd5b5050346100e557816003193601126100e5576020906002549051908152f35b9050346103ea57816003193601126103ea5761053a6106eb565b6024359033156105b3576001600160a01b031691821561059c57508083602095338152600187528181208582528752205582519081527f8c5be1e5ebec7d5bd14f71427d1e84f3dd0314c0f7b2291e5b200ac8c7c3b925843392a35160018152f35b8351634a1406b160e11b8152908101859052602490fd5b835163e602df0560e01b8152808401869052602490fd5b849084346103ea57826003193601126103ea5782600354600181811c90808316928315610698575b60209384841081146102ee578388529081156102d2575060011461064257505050829003601f01601f191682019267ffffffffffffffff84118385101761026a57508291826102669252826106a2565b600387529192508591837fc2575a0e9e593c00f959f8c92f12db2869c3395a3b0502d05e2516446f71f85b5b8385106106845750505050830101858080610234565b80548886018301529301928490820161066e565b91607f16916105f2565b6020808252825181830181905290939260005b8281106106d757505060409293506000838284010152601f8019910116010190565b8181018601518482016040015285016106b5565b600435906001600160a01b038216820361070157565b600080fd5b602435906001600160a01b038216820361070157565b916001600160a01b038084169283156107e157169283156107c85760009083825281602052604082205490838210610796575091604082827fddf252ad1be2c89b69c2b068fc378daa952ba7f163c4a11628f55a4df523b3ef958760209652828652038282205586815220818154019055604051908152a3565b60405163391434e360e21b81526001600160a01b03919091166004820152602481019190915260448101839052606490fd5b60405163ec442f0560e01b815260006004820152602490fd5b604051634b637e8f60e11b815260006004820152602490fdfea26469706673582212207e062d8319b5c91d2ba3dfe90805ae65ac8fcfdc6182f86a3e1f09d171db4b2b64736f6c63430008140033a2646970667358221220a602a29d1f7cde11b4937aa0a5ce3b98e5517bc0441ebe5708c81d0257e2d41d64736f6c63430008140033","linkReferences":{}},"methodIdentifiers":{"createPair(address,address)":"c9c65396","getPair(address,address)":"e6a43905","setPair(address,address,address)":"7bb41012"},"id":56}