{"abi":[{"type":"constructor","inputs":[],"stateMutability":"nonpayable"},{"type":"function","name":"ADMIN_ROLE","inputs":[],"outputs":[{"name":"","type":"bytes32","internalType":"bytes32"}],"stateMutability":"view"},{"type":"function","name":"DEFAULT_ADMIN_ROLE","inputs":[],"outputs":[{"name":"","type":"bytes32","internalType":"bytes32"}],"stateMutability":"view"},{"type":"function","name":"EXECUTOR_ROLE","inputs":[],"outputs":[{"name":"","type":"bytes32","internalType":"bytes32"}],"stateMutability":"view"},{"type":"function","name":"agentNft","inputs":[],"outputs":[{"name":"","type":"address","internalType":"contract IAgentNft"}],"stateMutability":"view"},{"type":"function","name":"agentTaxAmounts","inputs":[{"name":"agentId","type":"uint256","internalType":"uint256"}],"outputs":[{"name":"amountCollected","type":"uint256","internalType":"uint256"},{"name":"amountSwapped","type":"uint256","internalType":"uint256"}],"stateMutability":"view"},{"type":"function","name":"assetToken","inputs":[],"outputs":[{"name":"","type":"address","internalType":"address"}],"stateMutability":"view"},{"type":"function","name":"creatorFeeRate","inputs":[],"outputs":[{"name":"","type":"uint16","internalType":"uint16"}],"stateMutability":"view"},{"type":"function","name":"dcaSell","inputs":[{"name":"agentIds","type":"uint256[]","internalType":"uint256[]"},{"name":"slippage","type":"uint256","internalType":"uint256"},{"name":"maxOverride","type":"uint256","internalType":"uint256"}],"outputs":[],"stateMutability":"nonpayable"},{"type":"function","name":"feeRate","inputs":[],"outputs":[{"name":"","type":"uint16","internalType":"uint16"}],"stateMutability":"view"},{"type":"function","name":"getRoleAdmin","inputs":[{"name":"role","type":"bytes32","internalType":"bytes32"}],"outputs":[{"name":"","type":"bytes32","internalType":"bytes32"}],"stateMutability":"view"},{"type":"function","name":"grantRole","inputs":[{"name":"role","type":"bytes32","internalType":"bytes32"},{"name":"account","type":"address","internalType":"address"}],"outputs":[],"stateMutability":"nonpayable"},{"type":"function","name":"handleAgentTaxes","inputs":[{"name":"agentId","type":"uint256","internalType":"uint256"},{"name":"txhashes","type":"bytes32[]","internalType":"bytes32[]"},{"name":"amounts","type":"uint256[]","internalType":"uint256[]"},{"name":"minOutput","type":"uint256","internalType":"uint256"}],"outputs":[],"stateMutability":"nonpayable"},{"type":"function","name":"hasRole","inputs":[{"name":"role","type":"bytes32","internalType":"bytes32"},{"name":"account","type":"address","internalType":"address"}],"outputs":[{"name":"","type":"bool","internalType":"bool"}],"stateMutability":"view"},{"type":"function","name":"initialize","inputs":[{"name":"defaultAdmin_","type":"address","internalType":"address"},{"name":"assetToken_","type":"address","internalType":"address"},{"name":"taxToken_","type":"address","internalType":"address"},{"name":"router_","type":"address","internalType":"address"},{"name":"treasury_","type":"address","internalType":"address"},{"name":"minSwapThreshold_","type":"uint256","internalType":"uint256"},{"name":"maxSwapThreshold_","type":"uint256","internalType":"uint256"},{"name":"nft_","type":"address","internalType":"address"}],"outputs":[],"stateMutability":"nonpayable"},{"type":"function","name":"maxSwapThreshold","inputs":[],"outputs":[{"name":"","type":"uint256","internalType":"uint256"}],"stateMutability":"view"},{"type":"function","name":"minSwapThreshold","inputs":[],"outputs":[{"name":"","type":"uint256","internalType":"uint256"}],"stateMutability":"view"},{"type":"function","name":"renounceRole","inputs":[{"name":"role","type":"bytes32","internalType":"bytes32"},{"name":"callerConfirmation","type":"address","internalType":"address"}],"outputs":[],"stateMutability":"nonpayable"},{"type":"function","name":"revokeRole","inputs":[{"name":"role","type":"bytes32","internalType":"bytes32"},{"name":"account","type":"address","internalType":"address"}],"outputs":[],"stateMutability":"nonpayable"},{"type":"function","name":"router","inputs":[],"outputs":[{"name":"","type":"address","internalType":"contract IRouter"}],"stateMutability":"view"},{"type":"function","name":"supportsInterface","inputs":[{"name":"interfaceId","type":"bytes4","internalType":"bytes4"}],"outputs":[{"name":"","type":"bool","internalType":"bool"}],"stateMutability":"view"},{"type":"function","name":"taxHistory","inputs":[{"name":"txhash","type":"bytes32","internalType":"bytes32"}],"outputs":[{"name":"agentId","type":"uint256","internalType":"uint256"},{"name":"amount","type":"uint256","internalType":"uint256"}],"stateMutability":"view"},{"type":"function","name":"taxToken","inputs":[],"outputs":[{"name":"","type":"address","internalType":"address"}],"stateMutability":"view"},{"type":"function","name":"tbaBonus","inputs":[],"outputs":[{"name":"","type":"address","internalType":"contract ITBABonus"}],"stateMutability":"view"},{"type":"function","name":"treasury","inputs":[],"outputs":[{"name":"","type":"address","internalType":"address"}],"stateMutability":"view"},{"type":"function","name":"updateCreator","inputs":[{"name":"agentId","type":"uint256","internalType":"uint256"},{"name":"creator","type":"address","internalType":"address"}],"outputs":[],"stateMutability":"nonpayable"},{"type":"function","name":"updateSwapParams","inputs":[{"name":"router_","type":"address","internalType":"address"},{"name":"assetToken_","type":"address","internalType":"address"},{"name":"feeRate_","type":"uint16","internalType":"uint16"},{"name":"creatorFeeRate_","type":"uint16","internalType":"uint16"}],"outputs":[],"stateMutability":"nonpayable"},{"type":"function","name":"updateSwapThresholds","inputs":[{"name":"minSwapThreshold_","type":"uint256","internalType":"uint256"},{"name":"maxSwapThreshold_","type":"uint256","internalType":"uint256"}],"outputs":[],"stateMutability":"nonpayable"},{"type":"function","name":"updateTbaBonus","inputs":[{"name":"tbaBonus_","type":"address","internalType":"address"}],"outputs":[],"stateMutability":"nonpayable"},{"type":"function","name":"updateTreasury","inputs":[{"name":"treasury_","type":"address","internalType":"address"}],"outputs":[],"stateMutability":"nonpayable"},{"type":"function","name":"withdraw","inputs":[{"name":"token","type":"address","internalType":"address"}],"outputs":[],"stateMutability":"nonpayable"},{"type":"event","name":"CreatorUpdated","inputs":[{"name":"agentId","type":"uint256","indexed":false,"internalType":"uint256"},{"name":"oldCreator","type":"address","indexed":false,"internalType":"address"},{"name":"newCreator","type":"address","indexed":false,"internalType":"address"}],"anonymous":false},{"type":"event","name":"Initialized","inputs":[{"name":"version","type":"uint64","indexed":false,"internalType":"uint64"}],"anonymous":false},{"type":"event","name":"RoleAdminChanged","inputs":[{"name":"role","type":"bytes32","indexed":true,"internalType":"bytes32"},{"name":"previousAdminRole","type":"bytes32","indexed":true,"internalType":"bytes32"},{"name":"newAdminRole","type":"bytes32","indexed":true,"internalType":"bytes32"}],"anonymous":false},{"type":"event","name":"RoleGranted","inputs":[{"name":"role","type":"bytes32","indexed":true,"internalType":"bytes32"},{"name":"account","type":"address","indexed":true,"internalType":"address"},{"name":"sender","type":"address","indexed":true,"internalType":"address"}],"anonymous":false},{"type":"event","name":"RoleRevoked","inputs":[{"name":"role","type":"bytes32","indexed":true,"internalType":"bytes32"},{"name":"account","type":"address","indexed":true,"internalType":"address"},{"name":"sender","type":"address","indexed":true,"internalType":"address"}],"anonymous":false},{"type":"event","name":"SwapExecuted","inputs":[{"name":"agentId","type":"uint256","indexed":true,"internalType":"uint256"},{"name":"taxTokenAmount","type":"uint256","indexed":false,"internalType":"uint256"},{"name":"assetTokenAmount","type":"uint256","indexed":false,"internalType":"uint256"}],"anonymous":false},{"type":"event","name":"SwapFailed","inputs":[{"name":"agentId","type":"uint256","indexed":true,"internalType":"uint256"},{"name":"taxTokenAmount","type":"uint256","indexed":false,"internalType":"uint256"}],"anonymous":false},{"type":"event","name":"SwapParamsUpdated2","inputs":[{"name":"oldRouter","type":"address","indexed":false,"internalType":"address"},{"name":"newRouter","type":"address","indexed":false,"internalType":"address"},{"name":"oldAsset","type":"address","indexed":false,"internalType":"address"},{"name":"newAsset","type":"address","indexed":false,"internalType":"address"},{"name":"oldFeeRate","type":"uint16","indexed":false,"internalType":"uint16"},{"name":"newFeeRate","type":"uint16","indexed":false,"internalType":"uint16"},{"name":"oldCreatorFeeRate","type":"uint16","indexed":false,"internalType":"uint16"},{"name":"newCreatorFeeRate","type":"uint16","indexed":false,"internalType":"uint16"}],"anonymous":false},{"type":"event","name":"SwapThresholdUpdated","inputs":[{"name":"oldMinThreshold","type":"uint256","indexed":false,"internalType":"uint256"},{"name":"newMinThreshold","type":"uint256","indexed":false,"internalType":"uint256"},{"name":"oldMaxThreshold","type":"uint256","indexed":false,"internalType":"uint256"},{"name":"newMaxThreshold","type":"uint256","indexed":false,"internalType":"uint256"}],"anonymous":false},{"type":"event","name":"TaxCollected","inputs":[{"name":"txhash","type":"bytes32","indexed":true,"internalType":"bytes32"},{"name":"agentId","type":"uint256","indexed":false,"internalType":"uint256"},{"name":"amount","type":"uint256","indexed":false,"internalType":"uint256"}],"anonymous":false},{"type":"event","name":"TreasuryUpdated","inputs":[{"name":"oldTreasury","type":"address","indexed":false,"internalType":"address"},{"name":"newTreasury","type":"address","indexed":false,"internalType":"address"}],"anonymous":false},{"type":"error","name":"AccessControlBadConfirmation","inputs":[]},{"type":"error","name":"AccessControlUnauthorizedAccount","inputs":[{"name":"account","type":"address","internalType":"address"},{"name":"neededRole","type":"bytes32","internalType":"bytes32"}]},{"type":"error","name":"AddressEmptyCode","inputs":[{"name":"target","type":"address","internalType":"address"}]},{"type":"error","name":"AddressInsufficientBalance","inputs":[{"name":"account","type":"address","internalType":"address"}]},{"type":"error","name":"FailedInnerCall","inputs":[]},{"type":"error","name":"InvalidInitialization","inputs":[]},{"type":"error","name":"NotInitializing","inputs":[]},{"type":"error","name":"SafeERC20FailedOperation","inputs":[{"name":"token","type":"address","internalType":"address"}]},{"type":"error","name":"TxHashExists","inputs":[{"name":"txhash","type":"bytes32","internalType":"bytes32"}]}],"bytecode":{"object":"0x6080806040523460d2577ff0c57e16840df040f15088dc2f81fe391c3923bec73e23a9662efc9c229c6a005460ff8160401c1660c1576002600160401b03196001600160401b03821601605c575b60405161217d90816100d88239f35b6001600160401b0319166001600160401b039081177ff0c57e16840df040f15088dc2f81fe391c3923bec73e23a9662efc9c229c6a005581527fc7f505b2f371ae2175ee4913f4499e1f2633a7b5936321eed1cdaeb6115181d290602090a13880604d565b63f92ee8a960e01b60005260046000fd5b600080fdfe608080604052600436101561001357600080fd5b60003560e01c90816301ffc9a7146111a45750806305a1189d1461116f57806307bd0265146111345780631083f7611461110b57806315ca79ac146110a15780631fc928ae14611078578063248a9ca3146110525780632f2ff15d1461102157806336568abe14610fdb57806338c2769814610fa657806351cff8d914610f0957806361d027b314610ee057806375b238fc14610ea55780637f51bb1f14610e345780638764495314610e1657806391d1485414610dbc57806395fafd6614610b55578063978bbdb914610b305780639cbef4a914610b07578063a217fddf14610aeb578063acef1a4414610acd578063afb360cb146108da578063c16dabaf1461055f578063d547741f14610529578063d628547c146104df578063d825c3f0146103b5578063dc0685ac14610388578063df39429314610366578063f8361bab146101975763f887ea401461016957600080fd5b34610192576000366003190112610192576002546040516001600160a01b039091168152602090f35b600080fd5b34610192576040366003190112610192576004356101b36111f7565b6000828152600a6020526040902080549192916001600160a01b0316156102ba575b60010180546001600160a01b0316929091903384148015610294575b1561024f5782546001600160a01b0319166001600160a01b0391909116908117909255604080519182526020820193909352918201527f39c3f4941511e634a0c6b084e012b034d79512f771d654ac69a50c86ad1dea7d90606090a1005b60405162461bcd60e51b815260206004820152601760248201527f4f6e6c792063726561746f722063616e207570646174650000000000000000006044820152606490fd5b503360009081526000805160206120e8833981519152602052604090205460ff166101f1565b600654604051635652386760e11b8152600481018490529190600090839060249082906001600160a01b03165afa801561035a57600192600091610337575b50606081015182546001600160a01b031990811660a086901b86900392831617845560409092015193830180549092169316929092179091556101d5565b61035491503d806000833e61034c8183611255565b810190611388565b856102f9565b6040513d6000823e3d90fd5b3461019257600036600319011261019257602061ffff600b5416604051908152f35b3461019257600036600319011261019257600b5460405160109190911c6001600160a01b03168152602090f35b346101925760603660031901126101925760043567ffffffffffffffff8111610192576103e690369060040161128f565b602435604435916103f56114ef565b61271082116104a7579060009061271003926127108411915b83518110156104a5576104218185611333565b51908160005260096020526104566020604060002060405161044281611223565b600182549283835201549283910152611354565b918484841161049d575b610487578361047f916127106104788a600197611361565b0490611a24565b50500161040e565b634e487b7160e01b600052601160045260246000fd5b849350610460565b005b60405162461bcd60e51b815260206004820152601060248201526f496e76616c696420736c69707061676560801b6044820152606490fd5b34610192576020366003190112610192576104f861120d565b61050061148f565b600b805462010000600160b01b03191660109290921b62010000600160b01b0316919091179055005b34610192576040366003190112610192576104a56004356105486111f7565b9061055a610555826112ec565b611561565b6117b0565b34610192576101003660031901126101925761057961120d565b6105816111f7565b906044356001600160a01b038116919082900361019257606435916001600160a01b038316808403610192576084356001600160a01b03811694908590036101925760a4359260c4359260e4359660018060a01b03881680980361019257600080516020612128833981519152549860ff8a60401c16159967ffffffffffffffff8116801590816108d2575b60011490816108c8575b1590816108bf575b506108ae5767ffffffffffffffff198116600117600080516020612128833981519152558a610881575b5060ff6000805160206121288339815191525460401c1615610870576001600160a01b031683811461081b577f9a406f83dc9a92c8bd8f5abc852923a196fe3a87dd6d9ebe8272e928bd5d94fd986107367f029844987e5c6b8033062ec47457a6f7814112b3bc0a600614c8900bd56ba0c1966101009661ffff956106d98d6106d360809f6115ab565b5061165b565b50856001600160601b0360a01b6000541617600055816001600160601b0360a01b6001541617600155876001600160601b0360a01b60025416176002556001600160601b0360a01b60035416176003558a6004558960055561188d565b6001600160601b0360a01b6006541617600655601960a21b8260a01b1960035416179081600355610bb88319600b541617600b556040519360008552602085015260006040850152606084015260008884015260a01c1660a0820152600060c0820152610bb860e0820152a160405191600083526020830152600060408301526060820152a16107c257005b68ff0000000000000000196000805160206121288339815191525416600080516020612128833981519152557fc7f505b2f371ae2175ee4913f4499e1f2633a7b5936321eed1cdaeb6115181d2602060405160018152a1005b60405162461bcd60e51b815260206004820152602760248201527f417373657420746f6b656e2063616e6e6f742062652073616d652061732074616044820152663c103a37b5b2b760c91b6064820152608490fd5b631afcd79f60e31b60005260046000fd5b68ffffffffffffffffff19166801000000000000000117600080516020612128833981519152558a610649565b63f92ee8a960e01b60005260046000fd5b9050158c61061f565b303b159150610617565b8c915061060d565b346101925760803660031901126101925760243560043567ffffffffffffffff821161019257366023830112156101925781600401359161091a83611277565b926109286040519485611255565b8084526024602085019160051b8301019136831161019257602401905b828210610abd5750505060443567ffffffffffffffff81116101925761096f90369060040161128f565b906109786114ef565b8251825103610a85578060005260096020526040600020916000936000945b8151861015610a66576109aa8683611333565b5195866000526008602052604060002054610a5157610a0f6001926109cf8387611333565b5184604051916109de83611223565b898352602083019081528b600052600860205260406000209251835551910155610a088387611333565b5190611347565b967fd49b6c44504dd22ab80e4edc533a6c4bd5463f09b51c0478676f82c588f62e1a6040610a3d8488611333565b518151908982526020820152a20194610997565b866374e8729760e11b60005260045260246000fd5b8385610a766104a5938254611347565b90556005549060643590611a24565b60405162461bcd60e51b815260206004820152601060248201526f556e6d61746368656420696e7075747360801b6044820152606490fd5b8135815260209182019101610945565b34610192576000366003190112610192576020600554604051908152f35b3461019257600036600319011261019257602060405160008152f35b34610192576000366003190112610192576006546040516001600160a01b039091168152602090f35b3461019257600036600319011261019257602061ffff60035460a01c16604051908152f35b3461019257608036600319011261019257610b6e61120d565b610b766111f7565b906044359061ffff8216918281036101925760643561ffff811680910361019257610b9f61148f565b80840161ffff81116104875761ffff612710911603610d83577f029844987e5c6b8033062ec47457a6f7814112b3bc0a600614c8900bd56ba0c1946101009461ffff80936002549560018060a01b03871697610cc56000549160035494600b549860018060a01b031694856001600160601b0360a01b86161760005560018060a01b038316809c6001600160601b0360a01b16176002558760a01b9060a01b168760a01b198716176003558619891617600b558a60018060a01b0360015416604051906000806020840163095ea7b360e01b815285602486015281604486015260448552610c8e606486611255565b84519082855af1610c9d612046565b81610d54575b5080610d4a575b15610d04575b50506001546001600160a01b0316905061188d565b83600b541697604051998a5260208a015260018060a01b03166040890152606088015260a01c16608086015260a08501521660c083015260e0820152a1005b610d3d610d42936040519063095ea7b360e01b602083015260248201526000604482015260448152610d37606482611255565b82611fd8565b611fd8565b8a8e80610cb0565b50803b1515610caa565b8051801592508215610d69575b505038610ca3565b610d7c9250602080918301019101611fc0565b3880610d61565b60405162461bcd60e51b8152602060048201526011602482015270496e76616c69642066656520726174657360781b6044820152606490fd5b3461019257604036600319011261019257610dd56111f7565b60043560005260008051602061210883398151915260205260406000209060018060a01b0316600052602052602060ff604060002054166040519015158152f35b34610192576000366003190112610192576020600454604051908152f35b34610192576020366003190112610192577f4ab5be82436d353e61ca18726e984e561f5c1cc7c6d38b29d2553c790434705a6040610e7061120d565b610e7861148f565b600380546001600160a01b039283166001600160a01b0319821681179092558351921682526020820152a1005b346101925760003660031901126101925760206040517fa49807205ce4d355092ef5a8a18f56e8913cf4a201fbe287825b095693c217758152f35b34610192576000366003190112610192576003546040516001600160a01b039091168152602090f35b3461019257602036600319011261019257610f2261120d565b610f2a61148f565b6003546040516370a0823160e01b8152306004820152916001600160a01b039081169116602083602481855afa91821561035a57600092610f70575b6104a59350611850565b91506020833d602011610f9e575b81610f8b60209383611255565b81010312610192576104a5925191610f66565b3d9150610f7e565b346101925760203660031901126101925760043560005260096020526040806000206001815491015482519182526020820152f35b3461019257604036600319011261019257610ff46111f7565b336001600160a01b03821603611010576104a5906004356117b0565b63334bd91960e11b60005260046000fd5b34610192576040366003190112610192576104a56004356110406111f7565b9061104d610555826112ec565b611707565b346101925760203660031901126101925760206110706004356112ec565b604051908152f35b34610192576000366003190112610192576001546040516001600160a01b039091168152602090f35b34610192576040366003190112610192577f9a406f83dc9a92c8bd8f5abc852923a196fe3a87dd6d9ebe8272e928bd5d94fd60806004356024356110e361148f565b60045491600554908060045582600555604051938452602084015260408301526060820152a1005b34610192576000366003190112610192576000546040516001600160a01b039091168152602090f35b346101925760003660031901126101925760206040517fd8aa0f3194971a2a116679f7c2090f6939c8d4e01a2a8d7e41d55e5351469e638152f35b346101925760203660031901126101925760043560005260086020526040806000206001815491015482519182526020820152f35b34610192576020366003190112610192576004359063ffffffff60e01b821680920361019257602091637965db0b60e01b81149081156111e6575b5015158152f35b6301ffc9a760e01b149050836111df565b602435906001600160a01b038216820361019257565b600435906001600160a01b038216820361019257565b6040810190811067ffffffffffffffff82111761123f57604052565b634e487b7160e01b600052604160045260246000fd5b90601f8019910116810190811067ffffffffffffffff82111761123f57604052565b67ffffffffffffffff811161123f5760051b60200190565b9080601f830112156101925781356112a681611277565b926112b46040519485611255565b81845260208085019260051b82010192831161019257602001905b8282106112dc5750505090565b81358152602091820191016112cf565b60005260008051602061210883398151915260205260016040600020015490565b80516001101561131d5760400190565b634e487b7160e01b600052603260045260246000fd5b805182101561131d5760209160051b010190565b9190820180921161048757565b9190820391821161048757565b8181029291811591840414171561048757565b51906001600160a01b038216820361019257565b6020818303126101925780519067ffffffffffffffff821161019257019060a082820312610192576040519160a0830183811067ffffffffffffffff82111761123f576040526113d781611374565b83526113e560208201611374565b60208401526113f660408201611374565b604084015261140760608201611374565b606084015260808101519067ffffffffffffffff821161019257019080601f830112156101925781519061143a82611277565b926114486040519485611255565b82845260208085019360051b82010191821161019257602001915b81831061147557505050608082015290565b825160ff8116810361019257815260209283019201611463565b3360009081526000805160206120e8833981519152602052604090205460ff16156114b657565b63e2517d3f60e01b600052336004527fa49807205ce4d355092ef5a8a18f56e8913cf4a201fbe287825b095693c2177560245260446000fd5b3360009081527f52fce5e8a5d0d9e8d1ea29f4525e512e9c27bf92cae50374d497f918ab48f382602052604090205460ff161561152857565b63e2517d3f60e01b600052336004527fd8aa0f3194971a2a116679f7c2090f6939c8d4e01a2a8d7e41d55e5351469e6360245260446000fd5b60008181526000805160206121088339815191526020908152604080832033845290915290205460ff16156115935750565b63e2517d3f60e01b6000523360045260245260446000fd5b6001600160a01b03811660009081526000805160206120e8833981519152602052604090205460ff16611655576001600160a01b031660008181526000805160206120e883398151915260205260408120805460ff191660011790553391907fa49807205ce4d355092ef5a8a18f56e8913cf4a201fbe287825b095693c21775907f2f8788117e7eff1d82e926ec794901d17c78024a50270940304540a733656f0d9080a4600190565b50600090565b6001600160a01b03811660009081527fb7db2dd08fcb62d0c9e08c51941cae53c267786a0b75803fb7960902fc8ef97d602052604090205460ff16611655576001600160a01b031660008181527fb7db2dd08fcb62d0c9e08c51941cae53c267786a0b75803fb7960902fc8ef97d60205260408120805460ff191660011790553391907f2f8788117e7eff1d82e926ec794901d17c78024a50270940304540a733656f0d8180a4600190565b6000818152600080516020612108833981519152602090815260408083206001600160a01b038616845290915290205460ff166117a9576000818152600080516020612108833981519152602090815260408083206001600160a01b0395909516808452949091528120805460ff19166001179055339291907f2f8788117e7eff1d82e926ec794901d17c78024a50270940304540a733656f0d9080a4600190565b5050600090565b6000818152600080516020612108833981519152602090815260408083206001600160a01b038616845290915290205460ff16156117a9576000818152600080516020612108833981519152602090815260408083206001600160a01b0395909516808452949091528120805460ff19169055339291907ff6391f5c32d9c69d2a47ea670b442974b53935d1edc7fd64eb21e047a839171b9080a4600190565b60405163a9059cbb60e01b60208201526001600160a01b03909216602483015260448083019390935291815261188b91610d3d606483611255565b565b60405190602082019263095ea7b360e01b845260018060a01b0316928360248401526000196044840152604483526118c6606484611255565b82516001600160a01b03831691600091829182855af1906118e5612046565b8261193b575b5081611930575b50156118fd57505050565b610d3d61188b936040519063095ea7b360e01b602083015260248201526000604482015260448152610d37606482611255565b90503b1515386118f2565b80519192508115918215611953575b505090386118eb565b6119669250602080918301019101611fc0565b388061194a565b6020818303126101925780519067ffffffffffffffff821161019257019080601f830112156101925781516119a181611277565b926119af6040519485611255565b81845260208085019260051b82010192831161019257602001905b8282106119d75750505090565b81518152602091820191016119ca565b906020808351928381520192019060005b818110611a055750505090565b82516001600160a01b03168452602093840193909201916001016119f8565b909291600093828552600960205260408520611a4860018254920191825490611354565b6001546040516370a0823160e01b815230600482015291949190602090829060249082906001600160a01b03165afa8015611fb55785918991611f7c575b5010611f4057866020604051611a9b81611223565b8281520152848752600a6020526040872080549091906001600160a01b031615611ea6575b60405191611acd83611223565b80546001600160a01b0390811680855260019092015416602090930192835215611e61576004548510611e5757808511611e4f575b50604051611b11606082611255565b6002815260208101604036823760018060a01b036001541690825115611e3b575287546001600160a01b0316611b468261130d565b5260018060a01b03600254169060405163d06ca61f60e01b815286600482015260406024820152898180611b7d60448201866119e7565b0381865afa8015611e30576001918b91611e16575b50511115611dd15761012c420194854211611dbd5791611bdf918a8094604051988995869485936338ed173960e01b85528d6004860152602485015260a0604485015260a48401906119e7565b90306064840152608483015203925af1879381611d99575b50611c2e5750505060207f0995a3a8a2e2612b6b89854de70b658cfa9d5b2239a4723cea9c9588b70f755391604051908152a28190565b611c3b839592949361130d565b5191807f4d3257edb95914b701655f9bf4b58e4b422017a7b94dad03a20dae00f4b1cbb760408051878152866020820152a2611c8e612710611c8661ffff60035460a01c1686611361565b048094611354565b9182611ce1575b50505090611cb8949582611cb193611cbe575b50508254611347565b905561130d565b51600191565b9054600354611cda92916001600160a01b039182169116611850565b3880611ca8565b88548151611cfd9185916001600160a01b039081169116611850565b600b5460101c6001600160a01b03169081611d19575b50611c95565b5189926001600160a01b039091169190813b15611d95578360649260405196879586946339bc978360e01b86526004860152602485015260448401525af18015611d8a5796611cb1939291611cb89798611d7a575b81989783949550611d13565b81611d8491611255565b38611d6e565b6040513d89823e3d90fd5b8380fd5b611db69194503d808a833e611dae8183611255565b81019061196d565b9238611bf7565b634e487b7160e01b8a52601160045260248afd5b60405162461bcd60e51b815260206004820152601b60248201527f4661696c656420746f20666574636820746f6b656e20707269636500000000006044820152606490fd5b611e2a91503d808d833e611dae8183611255565b38611b92565b6040513d8c823e3d90fd5b634e487b7160e01b8a52603260045260248afd5b935038611b02565b5050505050508190565b60405162461bcd60e51b815260206004820152601760248201527f4167656e7420646f6573206e6f742068617665205442410000000000000000006044820152606490fd5b600654604051635652386760e11b815260048101889052908990829060249082906001600160a01b03165afa908115611f35578991611f1b575b50606081015183546001600160a01b03199081166001600160a01b039283161785556040909201516001850180549093169116179055611ac0565b611f2f91503d808b833e61034c8183611255565b38611ee0565b6040513d8b823e3d90fd5b60405162461bcd60e51b8152602060048201526014602482015273496e73756666696369656e742062616c616e636560601b6044820152606490fd5b9150506020813d602011611fad575b81611f9860209383611255565b81010312611fa95784905138611a86565b8780fd5b3d9150611f8b565b6040513d8a823e3d90fd5b90816020910312610192575180151581036101925790565b6000806120019260018060a01b03169360208151910182865af1611ffa612046565b9083612086565b805190811515918261202b575b50506120175750565b635274afe760e01b60005260045260246000fd5b61203e9250602080918301019101611fc0565b15388061200e565b3d15612081573d9067ffffffffffffffff821161123f5760405191612075601f8201601f191660200184611255565b82523d6000602084013e565b606090565b906120ac575080511561209b57805190602001fd5b630a12f52160e11b60005260046000fd5b815115806120de575b6120bd575090565b639996b31560e01b60009081526001600160a01b0391909116600452602490fd5b50803b156120b556feb16e88c42fd4e48df2dd6a2eabd6bc9aec654ec170056b470819f8892cc6431c02dd7bc7dec4dceedda775e58dd541e08a116c6c53815c0bd028192f7b626800f0c57e16840df040f15088dc2f81fe391c3923bec73e23a9662efc9c229c6a00a26469706673582212207f1482b687327b1073ec2bb555b4fe7b6082f8f3737f1b6aa9cfe058fb9859f764736f6c634300081a0033","linkReferences":{}},"methodIdentifiers":{"ADMIN_ROLE()":"75b238fc","DEFAULT_ADMIN_ROLE()":"a217fddf","EXECUTOR_ROLE()":"07bd0265","agentNft()":"9cbef4a9","agentTaxAmounts(uint256)":"38c27698","assetToken()":"1083f761","creatorFeeRate()":"df394293","dcaSell(uint256[],uint256,uint256)":"d825c3f0","feeRate()":"978bbdb9","getRoleAdmin(bytes32)":"248a9ca3","grantRole(bytes32,address)":"2f2ff15d","handleAgentTaxes(uint256,bytes32[],uint256[],uint256)":"afb360cb","hasRole(bytes32,address)":"91d14854","initialize(address,address,address,address,address,uint256,uint256,address)":"c16dabaf","maxSwapThreshold()":"acef1a44","minSwapThreshold()":"87644953","renounceRole(bytes32,address)":"36568abe","revokeRole(bytes32,address)":"d547741f","router()":"f887ea40","supportsInterface(bytes4)":"01ffc9a7","taxHistory(bytes32)":"05a1189d","taxToken()":"1fc928ae","tbaBonus()":"dc0685ac","treasury()":"61d027b3","updateCreator(uint256,address)":"f8361bab","updateSwapParams(address,address,uint16,uint16)":"95fafd66","updateSwapThresholds(uint256,uint256)":"15ca79ac","updateTbaBonus(address)":"d628547c","updateTreasury(address)":"7f51bb1f","withdraw(address)":"51cff8d9"},"id":47}