{"abi":[{"type":"function","name":"account","inputs":[{"name":"implementation","type":"address","internalType":"address"},{"name":"chainId","type":"uint256","internalType":"uint256"},{"name":"tokenContract","type":"address","internalType":"address"},{"name":"tokenId","type":"uint256","internalType":"uint256"},{"name":"salt","type":"uint256","internalType":"uint256"}],"outputs":[{"name":"","type":"address","internalType":"address"}],"stateMutability":"view"},{"type":"function","name":"createAccount","inputs":[{"name":"implementation","type":"address","internalType":"address"},{"name":"salt","type":"bytes32","internalType":"bytes32"},{"name":"chainId","type":"uint256","internalType":"uint256"},{"name":"tokenContract","type":"address","internalType":"address"},{"name":"tokenId","type":"uint256","internalType":"uint256"}],"outputs":[{"name":"","type":"address","internalType":"address"}],"stateMutability":"nonpayable"},{"type":"event","name":"AccountCreated","inputs":[{"name":"account","type":"address","indexed":false,"internalType":"address"},{"name":"implementation","type":"address","indexed":true,"internalType":"address"},{"name":"chainId","type":"uint256","indexed":false,"internalType":"uint256"},{"name":"tokenContract","type":"address","indexed":true,"internalType":"address"},{"name":"tokenId","type":"uint256","indexed":true,"internalType":"uint256"},{"name":"salt","type":"uint256","indexed":false,"internalType":"uint256"}],"anonymous":false},{"type":"error","name":"InitializationFailed","inputs":[]}],"bytecode":{"object":"0x60808060405234601557610120908161001b8239f35b600080fdfe6080806040526004361015601257600080fd5b60003560e01c9081635e9bc5361460725750638a54c52f14603257600080fd5b34606d5760a0366003190112606d57604760ab565b50604e60d5565b506020604051739965507d1a55bcc2695c58ba16fb37d819b0a4dc8152f35b600080fd5b34606d5760a0366003190112606d57602090608a60ab565b50609160c0565b50739965507d1a55bcc2695c58ba16fb37d819b0a4dc8152f35b600435906001600160a01b0382168203606d57565b604435906001600160a01b0382168203606d57565b606435906001600160a01b0382168203606d5756fea2646970667358221220cbf9abd9f95cb00425065b924c1c3f88478af65cc11336ea8658ff43e47fd8b164736f6c634300081a0033","linkReferences":{}},"methodIdentifiers":{"account(address,uint256,address,uint256,uint256)":"5e9bc536","createAccount(address,bytes32,uint256,address,uint256)":"8a54c52f"},"id":12}