{"abi":[{"type":"constructor","inputs":[{"name":"agentNft_","type":"address","internalType":"address"}],"stateMutability":"nonpayable"},{"type":"function","name":"daoImplementation","inputs":[],"outputs":[{"name":"","type":"address","internalType":"address"}],"stateMutability":"view"},{"type":"function","name":"initialAmount","inputs":[],"outputs":[{"name":"","type":"uint256","internalType":"uint256"}],"stateMutability":"view"},{"type":"function","name":"maturityDuration","inputs":[],"outputs":[{"name":"","type":"uint256","internalType":"uint256"}],"stateMutability":"view"},{"type":"function","name":"migrateAgent","inputs":[{"name":"id","type":"uint256","internalType":"uint256"},{"name":"name","type":"string","internalType":"string"},{"name":"symbol","type":"string","internalType":"string"},{"name":"canStake","type":"bool","internalType":"bool"}],"outputs":[],"stateMutability":"nonpayable"},{"type":"function","name":"migratedAgents","inputs":[{"name":"","type":"uint256","internalType":"uint256"}],"outputs":[{"name":"","type":"bool","internalType":"bool"}],"stateMutability":"view"},{"type":"function","name":"owner","inputs":[],"outputs":[{"name":"","type":"address","internalType":"address"}],"stateMutability":"view"},{"type":"function","name":"pause","inputs":[],"outputs":[],"stateMutability":"nonpayable"},{"type":"function","name":"paused","inputs":[],"outputs":[{"name":"","type":"bool","internalType":"bool"}],"stateMutability":"view"},{"type":"function","name":"renounceOwnership","inputs":[],"outputs":[],"stateMutability":"nonpayable"},{"type":"function","name":"reset","inputs":[{"name":"id","type":"uint256","internalType":"uint256"}],"outputs":[],"stateMutability":"nonpayable"},{"type":"function","name":"setImplementations","inputs":[{"name":"token","type":"address","internalType":"address"},{"name":"veToken","type":"address","internalType":"address"},{"name":"dao","type":"address","internalType":"address"}],"outputs":[],"stateMutability":"nonpayable"},{"type":"function","name":"setInitParams","inputs":[{"name":"tokenAdmin_","type":"address","internalType":"address"},{"name":"assetToken_","type":"address","internalType":"address"},{"name":"uniswapRouter_","type":"address","internalType":"address"},{"name":"initialAmount_","type":"uint256","internalType":"uint256"},{"name":"maturityDuration_","type":"uint256","internalType":"uint256"}],"outputs":[],"stateMutability":"nonpayable"},{"type":"function","name":"setTokenSupplyParams","inputs":[{"name":"maxSupply","type":"uint256","internalType":"uint256"},{"name":"lpSupply","type":"uint256","internalType":"uint256"},{"name":"vaultSupply","type":"uint256","internalType":"uint256"},{"name":"maxTokensPerWallet","type":"uint256","internalType":"uint256"},{"name":"maxTokensPerTxn","type":"uint256","internalType":"uint256"},{"name":"botProtectionDurationInSeconds","type":"uint256","internalType":"uint256"},{"name":"vault","type":"address","internalType":"address"}],"outputs":[],"stateMutability":"nonpayable"},{"type":"function","name":"setTokenTaxParams","inputs":[{"name":"projectBuyTaxBasisPoints","type":"uint256","internalType":"uint256"},{"name":"projectSellTaxBasisPoints","type":"uint256","internalType":"uint256"},{"name":"taxSwapThresholdBasisPoints","type":"uint256","internalType":"uint256"},{"name":"projectTaxRecipient","type":"address","internalType":"address"}],"outputs":[],"stateMutability":"nonpayable"},{"type":"function","name":"tokenImplementation","inputs":[],"outputs":[{"name":"","type":"address","internalType":"address"}],"stateMutability":"view"},{"type":"function","name":"transferOwnership","inputs":[{"name":"newOwner","type":"address","internalType":"address"}],"outputs":[],"stateMutability":"nonpayable"},{"type":"function","name":"unpause","inputs":[],"outputs":[],"stateMutability":"nonpayable"},{"type":"function","name":"veTokenImplementation","inputs":[],"outputs":[{"name":"","type":"address","internalType":"address"}],"stateMutability":"view"},{"type":"event","name":"AgentMigrated","inputs":[{"name":"virtualId","type":"uint256","indexed":false,"internalType":"uint256"},{"name":"dao","type":"address","indexed":false,"internalType":"address"},{"name":"token","type":"address","indexed":false,"internalType":"address"},{"name":"lp","type":"address","indexed":false,"internalType":"address"},{"name":"veToken","type":"address","indexed":false,"internalType":"address"}],"anonymous":false},{"type":"event","name":"OwnershipTransferred","inputs":[{"name":"previousOwner","type":"address","indexed":true,"internalType":"address"},{"name":"newOwner","type":"address","indexed":true,"internalType":"address"}],"anonymous":false},{"type":"event","name":"Paused","inputs":[{"name":"account","type":"address","indexed":false,"internalType":"address"}],"anonymous":false},{"type":"event","name":"Unpaused","inputs":[{"name":"account","type":"address","indexed":false,"internalType":"address"}],"anonymous":false},{"type":"error","name":"ERC1167FailedCreateClone","inputs":[]},{"type":"error","name":"EnforcedPause","inputs":[]},{"type":"error","name":"ExpectedPause","inputs":[]},{"type":"error","name":"OwnableInvalidOwner","inputs":[{"name":"owner","type":"address","internalType":"address"}]},{"type":"error","name":"OwnableUnauthorizedAccount","inputs":[{"name":"account","type":"address","internalType":"address"}]}],"bytecode":{"object":"0x60803460d857601f6118b438819003918201601f19168301916001600160401b0383118484101760dd5780849260209460405283398101031260d857516001600160a01b0381169081900360d857331560c25760008054604051929133906001600160a01b038316907f8be0079c531659141344cd1fd0a4f28419497f9722a3daafe3b4186f6b6457e09080a36001600160a81b0319163360ff60a01b191617600055600180546001600160a01b0319169190911790556117c090816100f48239f35b631e4fbdf760e01b600052600060045260246000fd5b600080fd5b634e487b7160e01b600052604160045260246000fdfe608080604052600436101561001357600080fd5b600090813560e01c908163063513b7146114fe575080632a7d4a1f1461134d5780632f3a3d5d14611324578063310bd74b146112f15780633f4ba83a146112835780635c975abb1461125e5780635ca3cedf146110b2578063715018a6146110585780638456cb5914610fe55780638da5cb5b14610fbe5780639300d23814610f495780639cbe0bac14610f205780639d69932614610ef7578063b2c0212d1461023c578063bd5f20db1461020d578063f2fde38b14610187578063f984cf12146101075763fc1ed437146100e757600080fd5b346101045780600319360112610104576020600754604051908152f35b80fd5b50346101045760a03660031901126101045761012161151a565b610129611530565b610131611546565b9161013a611695565b600480546001600160a01b03199081166001600160a01b039384161790915560058054821693831693909317909255600680549092169216919091179055606435600755608435600b5580f35b5034610104576020366003190112610104576101a161151a565b6101a9611695565b6001600160a01b031680156101f95781546001600160a01b03198116821783556001600160a01b03167f8be0079c531659141344cd1fd0a4f28419497f9722a3daafe3b4186f6b6457e08380a380f35b631e4fbdf760e01b82526004829052602482fd5b50346101045760203660031901126101045760ff60406020926004358152600c84522054166040519015158152f35b5034610104576080366003190112610104576004356024356001600160401b0381116109a6576102709036906004016115ae565b6044356001600160401b0381116109195761028f9036906004016115ae565b91606435801515809103610ab757600d5460ff8116610ec15760ff1916600117600d55818552600c602052604085205460ff16610e8357600154604051635652386760e11b815260048101849052908690829060249082906001600160a01b03165afa908115610e78578691610d45575b5060408101516001600160a01b031693338503610d125760085461032c906001600160a01b03166116e3565b6040516001600160a01b0382169791939190606081016001600160401b03811182821017610cfe5760409081526004546001600160a01b0390811683526006548116602080850191909152600554909116838301528151908101919091526103be816103b061039e60608301896116be565b828103601f19016040840152866116be565b03601f19810183528261155c565b893b15610bdd57604051634258efa960e11b8152918b91839183600484015b60038210610cd9575050506103fd9060c0606484015260c48301906116be565b8181036003190160848301526002548391610417826115f5565b8082529160018116908115610cba5750600114610c6e575b50508181036003190160a4830152600354839161044b826115f5565b9182825284600182169182600014610c50575050600114610c04575b505081900381838d5af18015610be557610bf0575b5060405163d6efd7c360e01b815289816004818c5afa908115610be5578a91610b41575b50805115610b2d578990602060018060a01b03910151169860018060a01b0360055416602060075460648c8660405195869485936323b872dd60e01b8552600485015288602485015260448401525af18015610b2257610b05575b50803b15610b0157818091602460405180948193631672aef960e21b83523060048401525af1801561090e57610ae8575b505061056c6027604051809566029ba30b5b2b2160cd1b602083015261055b8151809260208686019101611672565b81010301601f19810185528461155c565b6105a460216040518093607360f81b60208301526105938151809260208686019101611672565b81010301601f19810183528261155c565b600a546105b9906001600160a01b03166116e3565b9460018060a01b03861693600b54420190814211610ad4576001548c96959493926001600160a01b039091169190863b15610ad057879361061d938d928f61062f604051998a98899863b2193b4d60e01b8a5260e060048b015260e48a01906116be565b8881036003190160248a0152906116be565b9460448701526064860152608485015260a484015260c4830152038183875af1908115610959578491610abb575b5050516040516306fdde0360e01b81526001600160a01b03909116969083816004818b5afa908115610959578491610a3f575b506040516302a251a360e01b815297602089600481845afa9889156109fa578599610a05575b5090602060049260405193848092630b58131b60e41b82525afa9182156109fa5785926109c3575b506009546001600160a01b03906106f69082166116e3565b169860018060a01b0360015416918a3b156109bf57869263ffffffff610739936040519687958695631c63df3560e21b875260a0600488015260a48701906116be565b938a6024870152604486015260648501521660848301520381838c5af19081156109595784916109aa575b50506001546001600160a01b0316803b15610919576040516374aa04c560e01b8152600481018890526001600160a01b03898116602483015286811660448301528a8116606483015287166084820152908490829060a490829084905af1908115610959578491610991575b505060405163095ea7b360e01b8152600481018390526000196024820152602081604481878d5af1801561095957610964575b506040516370a0823160e01b8152306004820152906020826024818c5afa91821561095957849261091d575b50823b15610919576064849283604051958694859363a7d545db60e01b8552600485015280602485015260448401525af1801561090e576108f1575b50946108e19291847fe67c497f66d4b22604304fed8e8782e0ebe7e5b42e35e6eff9d8d3a54732afaf9752600c60205260408820600160ff19825416179055604051958695869081526001600160a01b039182166020820152918116604083015291821660608201529116608082015260a00190565b0390a160ff19600d5416600d5580f35b816108fe9194939461155c565b61090a5790853861086b565b8580fd5b6040513d84823e3d90fd5b8380fd5b935090506020833d602011610951575b8161093a6020938361155c565b8101031261094c57889251903861082f565b600080fd5b3d915061092d565b6040513d86823e3d90fd5b6109859060203d60201161098a575b61097d818361155c565b81019061165a565b610803565b503d610973565b8161099b9161155c565b6109a65782386107d0565b8280fd5b816109b49161155c565b6109a6578238610764565b8680fd5b945090506020843d6020116109f2575b816109e06020938361155c565b8101031261094c5789935190386106de565b3d91506109d3565b6040513d87823e3d90fd5b91945097506020813d602011610a37575b81610a236020938361155c565b8101031261094c57519689939060206106b6565b3d9150610a16565b90503d8085833e610a50818361155c565b810190602081830312610ab7578051906001600160401b03821161090a570181601f82011215610ab7578051610a8581611593565b92610a93604051948561155c565b8184526020828401011161090a57610ab19160208085019101611672565b38610690565b8480fd5b81610ac59161155c565b6109a657823861065d565b8780fd5b634e487b7160e01b8c52601160045260248cfd5b81610af29161155c565b610afd57883861052c565b8880fd5b5080fd5b610b1d9060203d60201161098a5761097d818361155c565b6104fb565b6040513d85823e3d90fd5b634e487b7160e01b8a52603260045260248afd5b90503d808b833e610b52818361155c565b810190602081830312610bdd578051906001600160401b038211610be157019080601f83011215610bdd578151610b8881611643565b92610b96604051948561155c565b81845260208085019260051b820101928311610bd957602001905b828210610bc157505050386104a0565b60208091610bce8461162f565b815201910190610bb1565b8c80fd5b8a80fd5b8b80fd5b6040513d8c823e3d90fd5b89610bfd919a929a61155c565b973861047c565b600385528492509060008051602061176b8339815191525b818410610c30575050016020018138610467565b60019195506020929450805483858701015201910190918d938593610c1c565b909450602093915060ff191683830152151560051b01019038610467565b600285528492509060008051602061174b8339815191525b818410610c9a57505001602001388061042f565b60019195506020929450805483858701015201910190918d938593610c86565b90506020935060ff929192191683830152151560051b0101388061042f565b82516001600160a01b031681528f9550869450602092830192600190920191016103dd565b634e487b7160e01b8b52604160045260248bfd5b60405162461bcd60e51b815260206004820152600b60248201526a2737ba103337bab73232b960a91b6044820152606490fd5b90503d8087833e610d56818361155c565b8101906020818303126109bf578051906001600160401b038211610ad057019060a0828203126109bf576040519160a083018381106001600160401b03821117610e6457604052610da68161162f565b8352610db46020820161162f565b6020840152610dc56040820161162f565b6040840152610dd66060820161162f565b60608401526080810151906001600160401b038211610afd57019080601f83011215610ad057815190610e0882611643565b92610e16604051948561155c565b82845260208085019360051b820101918211610e6057602001915b818310610e4657505050608082015238610300565b825160ff81168103610bdd57815260209283019201610e31565b8980fd5b634e487b7160e01b89526041600452602489fd5b6040513d88823e3d90fd5b60405162461bcd60e51b81526020600482015260166024820152751059d95b9d08185b1c9958591e481b5a59dc985d195960521b6044820152606490fd5b60405162461bcd60e51b815260206004820152600e60248201526d31b0b73737ba103932b2b73a32b960911b6044820152606490fd5b50346101045780600319360112610104576009546040516001600160a01b039091168152602090f35b5034610104578060031936011261010457600a546040516001600160a01b039091168152602090f35b503461010457606036600319011261010457610f6361151a565b610f6b611530565b90610f74611546565b90610f7d611695565b600880546001600160a01b03199081166001600160a01b039384161790915560098054821693831693909317909255600a8054909216921691909117905580f35b5034610104578060031936011261010457546040516001600160a01b039091168152602090f35b5034610104578060031936011261010457610ffe611695565b805460ff8160a01c166110495760ff60a01b1916600160a01b1781556040513381527f62e78cea01bee320cd4e420270b5ea74000d11b0c9f74754ebdbfc544b05a25890602090a180f35b63d93c066560e01b8252600482fd5b5034610104578060031936011261010457611071611695565b80546001600160a01b03198116825581906001600160a01b03167f8be0079c531659141344cd1fd0a4f28419497f9722a3daafe3b4186f6b6457e08280a380f35b5034610104576080366003190112610104576064356001600160a01b0381169190829003610104576110e2611695565b6040519160043560208401526024356040840152604435606084015260808301526080825261111260a08361155c565b81516001600160401b03811161124a5761112d6003546115f5565b601f81116111df575b50602092601f821160011461117357928293829392611168575b50508160011b916000199060031b1c19161760035580f35b015190503880611150565b60038352601f1982169360008051602061176b83398151915291845b8681106111c757508360019596106111ae575b505050811b0160035580f35b015160001960f88460031b161c191690553880806111a2565b9192602060018192868501518155019401920161118f565b60038352601f820160051c60008051602061176b833981519152019060208310611234575b601f0160051c60008051602061176b83398151915201905b8181106112295750611136565b83815560010161121c565b60008051602061176b8339815191529150611204565b634e487b7160e01b82526041600452602482fd5b503461010457806003193601126101045760ff6020915460a01c166040519015158152f35b503461010457806003193601126101045761129c611695565b805460ff8160a01c16156112e25760ff60a01b191681556040513381527f5db9ee0a495bf2e6ff9c91a7834c1ba4fdd244a5e8aa4e537bd38aeae4b073aa90602090a180f35b638dfc202b60e01b8252600482fd5b50346101045760203660031901126101045761130b611695565b6004358152600c60205260408120805460ff1916905580f35b50346101045780600319360112610104576008546040516001600160a01b039091168152602090f35b50346101045760e03660031901126101045760c4356001600160a01b03811691908290036101045761137d611695565b60405191600435602084015260243560408401526044356060840152606435608084015260843560a084015260a43560c084015260e083015260e082526113c66101008361155c565b81516001600160401b03811161124a576113e16002546115f5565b601f8111611493575b50602092601f82116001146114275792829382939261141c575b50508160011b916000199060031b1c19161760025580f35b015190503880611404565b60028352601f1982169360008051602061174b83398151915291845b86811061147b5750836001959610611462575b505050811b0160025580f35b015160001960f88460031b161c19169055388080611456565b91926020600181928685015181550194019201611443565b60028352601f820160051c60008051602061174b8339815191520190602083106114e8575b601f0160051c60008051602061174b83398151915201905b8181106114dd57506113ea565b8381556001016114d0565b60008051602061174b83398151915291506114b8565b905034610b015781600319360112610b0157602090600b548152f35b600435906001600160a01b038216820361094c57565b602435906001600160a01b038216820361094c57565b604435906001600160a01b038216820361094c57565b90601f801991011681019081106001600160401b0382111761157d57604052565b634e487b7160e01b600052604160045260246000fd5b6001600160401b03811161157d57601f01601f191660200190565b81601f8201121561094c578035906115c582611593565b926115d3604051948561155c565b8284526020838301011161094c57816000926020809301838601378301015290565b90600182811c92168015611625575b602083101461160f57565b634e487b7160e01b600052602260045260246000fd5b91607f1691611604565b51906001600160a01b038216820361094c57565b6001600160401b03811161157d5760051b60200190565b9081602091031261094c5751801515810361094c5790565b60005b8381106116855750506000910152565b8181015183820152602001611675565b6000546001600160a01b031633036116a957565b63118cdaa760e01b6000523360045260246000fd5b906020916116d781518092818552858086019101611672565b601f01601f1916010190565b6e5af43d82803e903d91602b57fd5bf390763d602d80600a3d3981f3363d3d373d3d3d363d7300000062ffffff8260881c161760005260781b17602052603760096000f0906001600160a01b0382161561173957565b6330be1a3d60e21b60005260046000fdfe405787fa12a823e0f2b7631cc41b3ba8828b3321ca811111fa75cd3aa3bb5acec2575a0e9e593c00f959f8c92f12db2869c3395a3b0502d05e2516446f71f85ba2646970667358221220670786f7520d758277e5298fbbefbde537d0a175a392e9801a2d6ceb40c8f7ea64736f6c634300081a0033","linkReferences":{}},"methodIdentifiers":{"daoImplementation()":"9d699326","initialAmount()":"fc1ed437","maturityDuration()":"063513b7","migrateAgent(uint256,string,string,bool)":"b2c0212d","migratedAgents(uint256)":"bd5f20db","owner()":"8da5cb5b","pause()":"8456cb59","paused()":"5c975abb","renounceOwnership()":"715018a6","reset(uint256)":"310bd74b","setImplementations(address,address,address)":"9300d238","setInitParams(address,address,address,uint256,uint256)":"f984cf12","setTokenSupplyParams(uint256,uint256,uint256,uint256,uint256,uint256,address)":"2a7d4a1f","setTokenTaxParams(uint256,uint256,uint256,address)":"5ca3cedf","tokenImplementation()":"2f3a3d5d","transferOwnership(address)":"f2fde38b","unpause()":"3f4ba83a","veTokenImplementation()":"9cbe0bac"},"id":61}