{"abi":[{"type":"constructor","inputs":[],"stateMutability":"nonpayable"},{"type":"receive","stateMutability":"payable"},{"type":"function","name":"acceptOwnership","inputs":[],"outputs":[],"stateMutability":"nonpayable"},{"type":"function","name":"addInitialLiquidity","inputs":[{"name":"lpOwner","type":"address","internalType":"address"}],"outputs":[],"stateMutability":"nonpayable"},{"type":"function","name":"addLiquidityPool","inputs":[{"name":"newLiquidityPool_","type":"address","internalType":"address"}],"outputs":[],"stateMutability":"nonpayable"},{"type":"function","name":"addValidCaller","inputs":[{"name":"newValidCallerHash_","type":"bytes32","internalType":"bytes32"}],"outputs":[],"stateMutability":"nonpayable"},{"type":"function","name":"allowance","inputs":[{"name":"owner","type":"address","internalType":"address"},{"name":"spender","type":"address","internalType":"address"}],"outputs":[{"name":"","type":"uint256","internalType":"uint256"}],"stateMutability":"view"},{"type":"function","name":"approve","inputs":[{"name":"spender","type":"address","internalType":"address"},{"name":"amount","type":"uint256","internalType":"uint256"}],"outputs":[{"name":"","type":"bool","internalType":"bool"}],"stateMutability":"nonpayable"},{"type":"function","name":"balanceOf","inputs":[{"name":"account","type":"address","internalType":"address"}],"outputs":[{"name":"","type":"uint256","internalType":"uint256"}],"stateMutability":"view"},{"type":"function","name":"botProtectionDurationInSeconds","inputs":[],"outputs":[{"name":"","type":"uint256","internalType":"uint256"}],"stateMutability":"view"},{"type":"function","name":"burn","inputs":[{"name":"value","type":"uint256","internalType":"uint256"}],"outputs":[],"stateMutability":"nonpayable"},{"type":"function","name":"burnFrom","inputs":[{"name":"account","type":"address","internalType":"address"},{"name":"value","type":"uint256","internalType":"uint256"}],"outputs":[],"stateMutability":"nonpayable"},{"type":"function","name":"decimals","inputs":[],"outputs":[{"name":"","type":"uint8","internalType":"uint8"}],"stateMutability":"view"},{"type":"function","name":"decreaseAllowance","inputs":[{"name":"spender","type":"address","internalType":"address"},{"name":"subtractedValue","type":"uint256","internalType":"uint256"}],"outputs":[{"name":"","type":"bool","internalType":"bool"}],"stateMutability":"nonpayable"},{"type":"function","name":"distributeTaxTokens","inputs":[],"outputs":[],"stateMutability":"nonpayable"},{"type":"function","name":"fundedDate","inputs":[],"outputs":[{"name":"","type":"uint32","internalType":"uint32"}],"stateMutability":"view"},{"type":"function","name":"increaseAllowance","inputs":[{"name":"spender","type":"address","internalType":"address"},{"name":"addedValue","type":"uint256","internalType":"uint256"}],"outputs":[{"name":"","type":"bool","internalType":"bool"}],"stateMutability":"nonpayable"},{"type":"function","name":"initialize","inputs":[{"name":"integrationAddresses_","type":"address[3]","internalType":"address[3]"},{"name":"baseParams_","type":"bytes","internalType":"bytes"},{"name":"supplyParams_","type":"bytes","internalType":"bytes"},{"name":"taxParams_","type":"bytes","internalType":"bytes"}],"outputs":[],"stateMutability":"nonpayable"},{"type":"function","name":"isLiquidityPool","inputs":[{"name":"queryAddress_","type":"address","internalType":"address"}],"outputs":[{"name":"","type":"bool","internalType":"bool"}],"stateMutability":"view"},{"type":"function","name":"isValidCaller","inputs":[{"name":"queryHash_","type":"bytes32","internalType":"bytes32"}],"outputs":[{"name":"","type":"bool","internalType":"bool"}],"stateMutability":"view"},{"type":"function","name":"liquidityPools","inputs":[],"outputs":[{"name":"liquidityPools_","type":"address[]","internalType":"address[]"}],"stateMutability":"view"},{"type":"function","name":"name","inputs":[],"outputs":[{"name":"","type":"string","internalType":"string"}],"stateMutability":"view"},{"type":"function","name":"owner","inputs":[],"outputs":[{"name":"","type":"address","internalType":"address"}],"stateMutability":"view"},{"type":"function","name":"pairToken","inputs":[],"outputs":[{"name":"","type":"address","internalType":"address"}],"stateMutability":"view"},{"type":"function","name":"pendingOwner","inputs":[],"outputs":[{"name":"","type":"address","internalType":"address"}],"stateMutability":"view"},{"type":"function","name":"projectBuyTaxBasisPoints","inputs":[],"outputs":[{"name":"","type":"uint16","internalType":"uint16"}],"stateMutability":"view"},{"type":"function","name":"projectSellTaxBasisPoints","inputs":[],"outputs":[{"name":"","type":"uint16","internalType":"uint16"}],"stateMutability":"view"},{"type":"function","name":"projectTaxPendingSwap","inputs":[],"outputs":[{"name":"","type":"uint128","internalType":"uint128"}],"stateMutability":"view"},{"type":"function","name":"projectTaxRecipient","inputs":[],"outputs":[{"name":"","type":"address","internalType":"address"}],"stateMutability":"view"},{"type":"function","name":"removeLiquidityPool","inputs":[{"name":"removedLiquidityPool_","type":"address","internalType":"address"}],"outputs":[],"stateMutability":"nonpayable"},{"type":"function","name":"removeValidCaller","inputs":[{"name":"removedValidCallerHash_","type":"bytes32","internalType":"bytes32"}],"outputs":[],"stateMutability":"nonpayable"},{"type":"function","name":"renounceOwnership","inputs":[],"outputs":[],"stateMutability":"nonpayable"},{"type":"function","name":"setProjectTaxRates","inputs":[{"name":"newProjectBuyTaxBasisPoints_","type":"uint16","internalType":"uint16"},{"name":"newProjectSellTaxBasisPoints_","type":"uint16","internalType":"uint16"}],"outputs":[],"stateMutability":"nonpayable"},{"type":"function","name":"setProjectTaxRecipient","inputs":[{"name":"projectTaxRecipient_","type":"address","internalType":"address"}],"outputs":[],"stateMutability":"nonpayable"},{"type":"function","name":"setSwapThresholdBasisPoints","inputs":[{"name":"swapThresholdBasisPoints_","type":"uint16","internalType":"uint16"}],"outputs":[],"stateMutability":"nonpayable"},{"type":"function","name":"swapThresholdBasisPoints","inputs":[],"outputs":[{"name":"","type":"uint16","internalType":"uint16"}],"stateMutability":"view"},{"type":"function","name":"symbol","inputs":[],"outputs":[{"name":"","type":"string","internalType":"string"}],"stateMutability":"view"},{"type":"function","name":"totalBuyTaxBasisPoints","inputs":[],"outputs":[{"name":"","type":"uint256","internalType":"uint256"}],"stateMutability":"view"},{"type":"function","name":"totalSellTaxBasisPoints","inputs":[],"outputs":[{"name":"","type":"uint256","internalType":"uint256"}],"stateMutability":"view"},{"type":"function","name":"totalSupply","inputs":[],"outputs":[{"name":"","type":"uint256","internalType":"uint256"}],"stateMutability":"view"},{"type":"function","name":"transfer","inputs":[{"name":"to","type":"address","internalType":"address"},{"name":"amount","type":"uint256","internalType":"uint256"}],"outputs":[{"name":"","type":"bool","internalType":"bool"}],"stateMutability":"nonpayable"},{"type":"function","name":"transferFrom","inputs":[{"name":"from","type":"address","internalType":"address"},{"name":"to","type":"address","internalType":"address"},{"name":"amount","type":"uint256","internalType":"uint256"}],"outputs":[{"name":"","type":"bool","internalType":"bool"}],"stateMutability":"nonpayable"},{"type":"function","name":"transferOwnership","inputs":[{"name":"newOwner","type":"address","internalType":"address"}],"outputs":[],"stateMutability":"nonpayable"},{"type":"function","name":"uniswapV2Pair","inputs":[],"outputs":[{"name":"","type":"address","internalType":"address"}],"stateMutability":"view"},{"type":"function","name":"validCallers","inputs":[],"outputs":[{"name":"validCallerHashes_","type":"bytes32[]","internalType":"bytes32[]"}],"stateMutability":"view"},{"type":"function","name":"vault","inputs":[],"outputs":[{"name":"","type":"address","internalType":"address"}],"stateMutability":"view"},{"type":"function","name":"withdrawERC20","inputs":[{"name":"token_","type":"address","internalType":"address"},{"name":"amount_","type":"uint256","internalType":"uint256"}],"outputs":[],"stateMutability":"nonpayable"},{"type":"function","name":"withdrawETH","inputs":[{"name":"amount_","type":"uint256","internalType":"uint256"}],"outputs":[],"stateMutability":"nonpayable"},{"type":"event","name":"Approval","inputs":[{"name":"owner","type":"address","indexed":true,"internalType":"address"},{"name":"spender","type":"address","indexed":true,"internalType":"address"},{"name":"value","type":"uint256","indexed":false,"internalType":"uint256"}],"anonymous":false},{"type":"event","name":"AutoSwapThresholdUpdated","inputs":[{"name":"oldThreshold","type":"uint256","indexed":false,"internalType":"uint256"},{"name":"newThreshold","type":"uint256","indexed":false,"internalType":"uint256"}],"anonymous":false},{"type":"event","name":"ExternalCallError","inputs":[{"name":"identifier","type":"uint256","indexed":false,"internalType":"uint256"}],"anonymous":false},{"type":"event","name":"InitialLiquidityAdded","inputs":[{"name":"tokenA","type":"uint256","indexed":false,"internalType":"uint256"},{"name":"tokenB","type":"uint256","indexed":false,"internalType":"uint256"},{"name":"lpToken","type":"uint256","indexed":false,"internalType":"uint256"}],"anonymous":false},{"type":"event","name":"Initialized","inputs":[{"name":"version","type":"uint64","indexed":false,"internalType":"uint64"}],"anonymous":false},{"type":"event","name":"LimitsUpdated","inputs":[{"name":"oldMaxTokensPerTransaction","type":"uint256","indexed":false,"internalType":"uint256"},{"name":"newMaxTokensPerTransaction","type":"uint256","indexed":false,"internalType":"uint256"},{"name":"oldMaxTokensPerWallet","type":"uint256","indexed":false,"internalType":"uint256"},{"name":"newMaxTokensPerWallet","type":"uint256","indexed":false,"internalType":"uint256"}],"anonymous":false},{"type":"event","name":"LiquidityPoolAdded","inputs":[{"name":"addedPool","type":"address","indexed":false,"internalType":"address"}],"anonymous":false},{"type":"event","name":"LiquidityPoolCreated","inputs":[{"name":"addedPool","type":"address","indexed":false,"internalType":"address"}],"anonymous":false},{"type":"event","name":"LiquidityPoolRemoved","inputs":[{"name":"removedPool","type":"address","indexed":false,"internalType":"address"}],"anonymous":false},{"type":"event","name":"OwnershipTransferStarted","inputs":[{"name":"previousOwner","type":"address","indexed":true,"internalType":"address"},{"name":"newOwner","type":"address","indexed":true,"internalType":"address"}],"anonymous":false},{"type":"event","name":"OwnershipTransferred","inputs":[{"name":"previousOwner","type":"address","indexed":true,"internalType":"address"},{"name":"newOwner","type":"address","indexed":true,"internalType":"address"}],"anonymous":false},{"type":"event","name":"ProjectTaxBasisPointsChanged","inputs":[{"name":"oldBuyBasisPoints","type":"uint256","indexed":false,"internalType":"uint256"},{"name":"newBuyBasisPoints","type":"uint256","indexed":false,"internalType":"uint256"},{"name":"oldSellBasisPoints","type":"uint256","indexed":false,"internalType":"uint256"},{"name":"newSellBasisPoints","type":"uint256","indexed":false,"internalType":"uint256"}],"anonymous":false},{"type":"event","name":"ProjectTaxRecipientUpdated","inputs":[{"name":"treasury","type":"address","indexed":false,"internalType":"address"}],"anonymous":false},{"type":"event","name":"RevenueAutoSwap","inputs":[],"anonymous":false},{"type":"event","name":"Transfer","inputs":[{"name":"from","type":"address","indexed":true,"internalType":"address"},{"name":"to","type":"address","indexed":true,"internalType":"address"},{"name":"value","type":"uint256","indexed":false,"internalType":"uint256"}],"anonymous":false},{"type":"event","name":"ValidCallerAdded","inputs":[{"name":"addedValidCaller","type":"bytes32","indexed":false,"internalType":"bytes32"}],"anonymous":false},{"type":"event","name":"ValidCallerRemoved","inputs":[{"name":"removedValidCaller","type":"bytes32","indexed":false,"internalType":"bytes32"}],"anonymous":false},{"type":"error","name":"AdapterParamsMustBeEmpty","inputs":[]},{"type":"error","name":"AdditionToPoolIsBelowPerTransactionMinimum","inputs":[]},{"type":"error","name":"AdditionToPoolWouldExceedPerAddressCap","inputs":[]},{"type":"error","name":"AdditionToPoolWouldExceedPoolCap","inputs":[]},{"type":"error","name":"AddressAlreadySet","inputs":[]},{"type":"error","name":"AddressEmptyCode","inputs":[{"name":"target","type":"address","internalType":"address"}]},{"type":"error","name":"AddressInsufficientBalance","inputs":[{"name":"account","type":"address","internalType":"address"}]},{"type":"error","name":"AllowanceDecreasedBelowZero","inputs":[]},{"type":"error","name":"AlreadyInitialised","inputs":[]},{"type":"error","name":"ApprovalCallerNotOwnerNorApproved","inputs":[]},{"type":"error","name":"ApprovalQueryForNonexistentToken","inputs":[]},{"type":"error","name":"ApproveFromTheZeroAddress","inputs":[]},{"type":"error","name":"ApproveToTheZeroAddress","inputs":[]},{"type":"error","name":"AuctionStatusIsNotEnded","inputs":[]},{"type":"error","name":"AuctionStatusIsNotOpen","inputs":[]},{"type":"error","name":"AuxCallFailed","inputs":[{"name":"modules","type":"address[]","internalType":"address[]"},{"name":"value","type":"uint256","internalType":"uint256"},{"name":"data","type":"bytes","internalType":"bytes"},{"name":"txGas","type":"uint256","internalType":"uint256"}]},{"type":"error","name":"BalanceMismatch","inputs":[]},{"type":"error","name":"BalanceQueryForZeroAddress","inputs":[]},{"type":"error","name":"BidMustBeBelowTheFloorForRefundDuringAuction","inputs":[]},{"type":"error","name":"BidMustBeBelowTheFloorWhenReducingQuantity","inputs":[]},{"type":"error","name":"BondingCurveError","inputs":[{"name":"error","type":"uint8","internalType":"enum IErrors.BondingCurveErrorType"}]},{"type":"error","name":"BurnExceedsBalance","inputs":[]},{"type":"error","name":"BurnFromTheZeroAddress","inputs":[]},{"type":"error","name":"CallerIsNotAdminNorFactory","inputs":[]},{"type":"error","name":"CallerIsNotDepositBoxOwner","inputs":[]},{"type":"error","name":"CallerIsNotFactory","inputs":[]},{"type":"error","name":"CallerIsNotFactoryOrProjectOwner","inputs":[]},{"type":"error","name":"CallerIsNotFactoryProjectOwnerOrPool","inputs":[]},{"type":"error","name":"CallerIsNotPlatformAdmin","inputs":[{"name":"caller","type":"address","internalType":"address"}]},{"type":"error","name":"CallerIsNotSuperAdmin","inputs":[{"name":"caller","type":"address","internalType":"address"}]},{"type":"error","name":"CallerIsNotTheManager","inputs":[]},{"type":"error","name":"CallerIsNotTheOwner","inputs":[]},{"type":"error","name":"CallerMustBeLzApp","inputs":[]},{"type":"error","name":"CanOnlyReduce","inputs":[]},{"type":"error","name":"CannotAddLiquidityOnCreateAndUseDRIPool","inputs":[]},{"type":"error","name":"CannotSetNewManagerToTheZeroAddress","inputs":[]},{"type":"error","name":"CannotSetNewOwnerToTheZeroAddress","inputs":[]},{"type":"error","name":"CannotSetToZeroAddress","inputs":[]},{"type":"error","name":"CannotWithdrawThisToken","inputs":[]},{"type":"error","name":"CollectionAlreadyRevealed","inputs":[]},{"type":"error","name":"ContractIsDecommissioned","inputs":[]},{"type":"error","name":"ContractIsNotPaused","inputs":[]},{"type":"error","name":"ContractIsPaused","inputs":[]},{"type":"error","name":"DecreasedAllowanceBelowZero","inputs":[]},{"type":"error","name":"DeployerOnly","inputs":[]},{"type":"error","name":"DeploymentError","inputs":[]},{"type":"error","name":"DepositBoxIsNotOpen","inputs":[]},{"type":"error","name":"DestinationIsNotTrustedSource","inputs":[]},{"type":"error","name":"DriPoolAddressCannotBeAddressZero","inputs":[]},{"type":"error","name":"FailedInnerCall","inputs":[]},{"type":"error","name":"GasLimitIsTooLow","inputs":[]},{"type":"error","name":"IncorrectConfirmationValue","inputs":[]},{"type":"error","name":"IncorrectPayment","inputs":[]},{"type":"error","name":"InitialLiquidityAlreadyAdded","inputs":[]},{"type":"error","name":"InitialLiquidityNotYetAdded","inputs":[]},{"type":"error","name":"InsufficientAllowance","inputs":[]},{"type":"error","name":"InvalidAdapterParams","inputs":[]},{"type":"error","name":"InvalidAddress","inputs":[]},{"type":"error","name":"InvalidEndpointCaller","inputs":[]},{"type":"error","name":"InvalidInitialization","inputs":[]},{"type":"error","name":"InvalidMinGas","inputs":[]},{"type":"error","name":"InvalidOracleSignature","inputs":[]},{"type":"error","name":"InvalidPayload","inputs":[]},{"type":"error","name":"InvalidReceiver","inputs":[]},{"type":"error","name":"InvalidSourceSendingContract","inputs":[]},{"type":"error","name":"InvalidTotalShares","inputs":[]},{"type":"error","name":"LPLockUpMustFitUint88","inputs":[]},{"type":"error","name":"LimitsCanOnlyBeRaised","inputs":[]},{"type":"error","name":"LiquidityPoolCannotBeAddressZero","inputs":[]},{"type":"error","name":"LiquidityPoolMustBeAContractAddress","inputs":[]},{"type":"error","name":"ListLengthMismatch","inputs":[]},{"type":"error","name":"MachineAddressCannotBeAddressZero","inputs":[]},{"type":"error","name":"ManagerUnauthorizedAccount","inputs":[]},{"type":"error","name":"MaxBidQuantityIs255","inputs":[]},{"type":"error","name":"MaxPublicMintAllowanceExceeded","inputs":[{"name":"requested","type":"uint256","internalType":"uint256"},{"name":"alreadyMinted","type":"uint256","internalType":"uint256"},{"name":"maxAllowance","type":"uint256","internalType":"uint256"}]},{"type":"error","name":"MaxSupplyTooHigh","inputs":[]},{"type":"error","name":"MaxTokensPerTxnExceeded","inputs":[]},{"type":"error","name":"MaxTokensPerWalletExceeded","inputs":[]},{"type":"error","name":"MetadataIsLocked","inputs":[]},{"type":"error","name":"MinGasLimitNotSet","inputs":[]},{"type":"error","name":"MintERC2309QuantityExceedsLimit","inputs":[]},{"type":"error","name":"MintToZeroAddress","inputs":[]},{"type":"error","name":"MintZeroQuantity","inputs":[]},{"type":"error","name":"MintingIsClosedForever","inputs":[]},{"type":"error","name":"NewBuyTaxBasisPointsExceedsMaximum","inputs":[]},{"type":"error","name":"NewSellTaxBasisPointsExceedsMaximum","inputs":[]},{"type":"error","name":"NoETHForLiquidityPair","inputs":[]},{"type":"error","name":"NoPaymentDue","inputs":[]},{"type":"error","name":"NoRefundForCaller","inputs":[]},{"type":"error","name":"NoStoredMessage","inputs":[]},{"type":"error","name":"NoTokenForLiquidityPair","inputs":[]},{"type":"error","name":"NoTrustedPathRecord","inputs":[]},{"type":"error","name":"NotInitializing","inputs":[]},{"type":"error","name":"NothingToClaim","inputs":[]},{"type":"error","name":"OperationDidNotSucceed","inputs":[]},{"type":"error","name":"OracleSignatureHasExpired","inputs":[]},{"type":"error","name":"OwnableInvalidOwner","inputs":[{"name":"owner","type":"address","internalType":"address"}]},{"type":"error","name":"OwnableUnauthorizedAccount","inputs":[{"name":"account","type":"address","internalType":"address"}]},{"type":"error","name":"OwnerQueryForNonexistentToken","inputs":[]},{"type":"error","name":"OwnershipNotInitializedForExtraData","inputs":[]},{"type":"error","name":"ParamTooLargeEndDate","inputs":[]},{"type":"error","name":"ParamTooLargeMinETH","inputs":[]},{"type":"error","name":"ParamTooLargePerAddressMax","inputs":[]},{"type":"error","name":"ParamTooLargePoolPerTxnMinETH","inputs":[]},{"type":"error","name":"ParamTooLargePoolSupply","inputs":[]},{"type":"error","name":"ParamTooLargeStartDate","inputs":[]},{"type":"error","name":"ParamTooLargeVestingDays","inputs":[]},{"type":"error","name":"ParametersDoNotMatchSignedMessage","inputs":[]},{"type":"error","name":"PassedConfigDoesNotMatchApproved","inputs":[]},{"type":"error","name":"PauseCutOffHasPassed","inputs":[]},{"type":"error","name":"PaymentMustCoverPerMintFee","inputs":[]},{"type":"error","name":"PermitDidNotSucceed","inputs":[]},{"type":"error","name":"PlatformAdminCannotBeAddressZero","inputs":[]},{"type":"error","name":"PlatformTreasuryCannotBeAddressZero","inputs":[]},{"type":"error","name":"PoolIsAboveMinimum","inputs":[]},{"type":"error","name":"PoolIsBelowMinimum","inputs":[]},{"type":"error","name":"PoolPhaseIsClosed","inputs":[]},{"type":"error","name":"PoolPhaseIsNotAfter","inputs":[]},{"type":"error","name":"PoolVestingNotYetComplete","inputs":[]},{"type":"error","name":"ProjectOwnerCannotBeAddressZero","inputs":[]},{"type":"error","name":"ProofInvalid","inputs":[]},{"type":"error","name":"QuantityExceedsMaxPossibleCollectionSupply","inputs":[]},{"type":"error","name":"QuantityExceedsRemainingCollectionSupply","inputs":[]},{"type":"error","name":"QuantityExceedsRemainingPhaseSupply","inputs":[]},{"type":"error","name":"ReferralIdAlreadyUsed","inputs":[]},{"type":"error","name":"RequestingMoreThanAvailableBalance","inputs":[]},{"type":"error","name":"RequestingMoreThanRemainingAllocation","inputs":[{"name":"previouslyMinted","type":"uint256","internalType":"uint256"},{"name":"requested","type":"uint256","internalType":"uint256"},{"name":"remainingAllocation","type":"uint256","internalType":"uint256"}]},{"type":"error","name":"RoyaltyFeeWillExceedSalePrice","inputs":[]},{"type":"error","name":"SafeERC20FailedOperation","inputs":[{"name":"token","type":"address","internalType":"address"}]},{"type":"error","name":"ShareTotalCannotBeZero","inputs":[]},{"type":"error","name":"SliceOutOfBounds","inputs":[]},{"type":"error","name":"SliceOverflow","inputs":[]},{"type":"error","name":"SuperAdminCannotBeAddressZero","inputs":[]},{"type":"error","name":"SupplyTotalMismatch","inputs":[]},{"type":"error","name":"SupportWindowIsNotOpen","inputs":[]},{"type":"error","name":"TaxFreeAddressCannotBeAddressZero","inputs":[]},{"type":"error","name":"TaxPeriodStillInForce","inputs":[]},{"type":"error","name":"TemplateCannotBeAddressZero","inputs":[]},{"type":"error","name":"TemplateNotFound","inputs":[]},{"type":"error","name":"ThisMintIsClosed","inputs":[]},{"type":"error","name":"TotalSharesMustMatchDenominator","inputs":[]},{"type":"error","name":"TransferAmountExceedsBalance","inputs":[]},{"type":"error","name":"TransferCallerNotOwnerNorApproved","inputs":[]},{"type":"error","name":"TransferFailed","inputs":[]},{"type":"error","name":"TransferFromIncorrectOwner","inputs":[]},{"type":"error","name":"TransferFromZeroAddress","inputs":[]},{"type":"error","name":"TransferToNonERC721ReceiverImplementer","inputs":[]},{"type":"error","name":"TransferToZeroAddress","inputs":[]},{"type":"error","name":"URIQueryForNonexistentToken","inputs":[]},{"type":"error","name":"UnrecognisedVRFMode","inputs":[]},{"type":"error","name":"VRFCoordinatorCannotBeAddressZero","inputs":[]},{"type":"error","name":"ValueExceedsMaximum","inputs":[]}],"bytecode":{"object":"0x6080806040523460d2577ff0c57e16840df040f15088dc2f81fe391c3923bec73e23a9662efc9c229c6a005460ff8160401c1660c1576002600160401b03196001600160401b03821601605c575b60405161329490816100d88239f35b6001600160401b0319166001600160401b039081177ff0c57e16840df040f15088dc2f81fe391c3923bec73e23a9662efc9c229c6a005581527fc7f505b2f371ae2175ee4913f4499e1f2633a7b5936321eed1cdaeb6115181d290602090a13880604d565b63f92ee8a960e01b60005260046000fd5b600080fdfe608080604052600436101561001d575b50361561001b57600080fd5b005b600090813560e01c908163038272b6146124115750806306fdde031461237c578063095ea7b31461235557806310b828c91461232e57806318160ddd1461231057806323b872dd146122bc5780632ead095514611dae578063313ce56714611d92578063326b3b8b14611cea5780633950935114611c985780633de35b7914611c6f57806342966c6814611c5157806349bd5a5e14611c2a5780634bed5ad214611c0557806359cabbe41461184c57806363a9c1f21461182e57806370a08231146117f5578063715018a61461177457806379ba50971461172657806379cc6790146116f257806384b1df5214610cbc5780638589287a14610c405780638da5cb5b14610c0a578063936b293414610b1e57806395d89b4114610a555780639808751d146109b3578063a1db9782146108ab578063a457c2d71461084a578063a45cae0214610359578063a9059cbb146107f6578063ae22107f1461076a578063b0d7509714610743578063b2c5c9eb1461071e578063b498d39f14610668578063bfe3098f1461063a578063d6efd7c3146105ad578063dd62ed3e14610558578063e30c397814610522578063e37d9e95146104a6578063e85455d714610478578063ea8b24241461044f578063ee6a934c1461037e578063eeae0f9714610359578063f14210a6146102d3578063f2fde38b1461024b5763fbfa77cf0361000f57346102485780600319360112610248576006546040516001600160a01b039091168152602090f35b80fd5b503461024857602036600319011261024857610265612483565b61026d612ce0565b60008051602061323f83398151915280546001600160a01b0319166001600160a01b0392831690811790915560008051602061319f833981519152549091167f38d16b8cac22d99fc7c124b9cd0de2d3fa1faef420bfe791d8c362d765e227008380a380f35b50346102485760203660031901126102485760008051602061319f833981519152546001600160a01b031633141580610344575b6103355780808080600435335af161031d612651565b50156103265780f35b6312171d8360e31b8152600490fd5b63faa39fbf60e01b8152600490fd5b506010546001600160a01b0316331415610307565b5034610248578060031936011261024857602061ffff60025460c81c16604051908152f35b503461024857602036600319011261024857610398612483565b60008051602061319f833981519152546001600160a01b03163314158061043a575b61042b576001600160a01b03811690811561041c573b1561040d576020816104027fb893f883ef734b712208a877459424ee509832c57e0461fb1ac99ed4d42f2d8993613070565b50604051908152a180f35b630f9da0c760e41b8252600482fd5b63b47cdee560e01b8352600483fd5b63faa39fbf60e01b8252600482fd5b506010546001600160a01b03163314156103ba565b50346102485780600319360112610248576004546040516001600160a01b039091168152602090f35b503461024857602036600319011261024857602061049c610497612483565b61261f565b6040519015158152f35b50346102485760203660031901126102485760043560018060a01b0360008051602061319f83398151915254163314158061050d575b61042b576020816104027ff7d7abaf8b0e82705f2ef671054dd11a306d870da0bbb8be1ff24bd0096de7ba936130cb565b506010546001600160a01b03163314156104dc565b503461024857806003193601126102485760008051602061323f833981519152546040516001600160a01b039091168152602090f35b5034610248576040366003190112610248576040610574612483565b9161057d61249e565b9260018060a01b03168152600b602052209060018060a01b03166000526020526020604060002054604051908152f35b503461024857806003193601126102485760405180916020600e54928381520191600e82527fbb7b4a454dc3493923482f07822329ed19e8244eff582cc204f8554c3620c3fd915b818110610624576106208561060c818703826124c5565b60405191829160208352602083019061255e565b0390f35b82548452602090930192600192830192016105f5565b503461024857602036600319011261024857604081602092506004358152600d835220541515604051908152f35b5034610248578060031936011261024857604051806020600c5491828152018091600c85527fdf6966c971051c3d54ec59162606531493a51404a002842f56009d7e5cf4a8c790855b81811061070857505050826106c79103836124c5565b604051928392602084019060208552518091526040840192915b8181106106ef575050500390f35b82518452859450602093840193909201916001016106e1565b82548452602090930192600192830192016106b1565b5034610248578060031936011261024857602061ffff60025460d81c16604051908152f35b503461024857806003193601126102485760206001600160801b0360055416604051908152f35b503461024857602036600319011261024857610784612483565b60008051602061319f833981519152546001600160a01b0316331415806107e1575b61042b577f59c3fbcae88f30e9b0e35c132a7f68c53231dffa4722f197c7ecb0ee013eee60906020906001600160a01b031661040281612fbc565b506010546001600160a01b03163314156107a6565b50346102485760403660031901126102485761082e610813612483565b61081c3361261f565b908115610839575b602435903361277c565b602060405160018152f35b90506108448161261f565b90610824565b503461024857604036600319011261024857610864612483565b602435338352600b6020526040832060018060a01b03831660005260205260406000205481811061089c5761082e9350039033612681565b637b5591b560e11b8452600484fd5b5034610248576040366003190112610248576108c5612483565b60008051602061319f833981519152546001600160a01b03163314158061099e575b61042b576001600160a01b031630811461098f5760405163a9059cbb60e01b602082019081523360248084019190915235604480840191909152825261094b91849182916109366064826124c5565b519082865af1610944612651565b908361313d565b8051908115159182610974575b5050610962575080f35b635274afe760e01b8252600452602490fd5b6109879250602080918301019101612cc8565b153880610958565b63992501b360e01b8252600482fd5b506010546001600160a01b03163314156108e7565b5034610248576020366003190112610248576109cd612483565b60008051602061319f833981519152546001600160a01b031633141580610a40575b61042b57600480546001600160a01b0319166001600160a01b0390921691821790556040519081527fa4eea51cd2f21eac6612ba054a363ae2fd59698fc258ab414313cd73f69f2b8590602090a180f35b506010546001600160a01b03163314156109ef565b5034610248578060031936011261024857604051908060085490610a788261259b565b8085529160018116908115610af75750600114610aac575b61062084610aa0818603826124c5565b60405191829182612457565b600881526000805160206131df833981519152939250905b808210610add57509091508101602001610aa082610a90565b919260018160209254838588010152019101909291610ac4565b60ff191660208087019190915292151560051b85019092019250610aa09150839050610a90565b503461024857604036600319011261024857610b386124b4565b60243561ffff811690818103610c065760008051602061319f833981519152546001600160a01b031633141580610bf1575b610be2579160809161ffff7f8da1f77a22734510b762a9625e69e737d7c0cc48984e810e5802fb341eb80a3e94600254908260d81b9060d81b168260c81b8560c81b1663ffffffff60c81b19831617176002558160405194818360c81c16865216602085015260d81c1660408301526060820152a180f35b63faa39fbf60e01b8452600484fd5b506010546001600160a01b0316331415610b6a565b8380fd5b503461024857806003193601126102485760008051602061319f833981519152546040516001600160a01b039091168152602090f35b50346102485760203660031901126102485760043560018060a01b0360008051602061319f833981519152541633141580610ca7575b61042b576020816104027fdd5aeaec2032ed464aed048b9014721d48de827cef3d77f78f0a76f1f0136dd493612ed4565b506010546001600160a01b0316331415610c76565b50346102485760c036600319011261024857366023121561024857604051606081018181106001600160401b038211176116de5760405280366064116112fb576004905b606482106116be5750506064356001600160401b0381116112fb57610d29903690600401612517565b906084356001600160401b038111610c0657610d49903690600401612517565b9060a4356001600160401b0381116116ba57610d69903690600401612517565b9060008051602061321f833981519152549360ff8560401c1615946001600160401b038116801590816116b2575b60011490816116a8575b15908161169f575b506116905767ffffffffffffffff19811660011760008051602061321f8339815191525585611663575b508151610de8906001600160a01b0316612d16565b80518101906040816020840193031261165f5760208101516001600160401b03811161143957826020610e1d92840101612d84565b916040820151916001600160401b03831161165b57610e3f9201602001612d84565b8051906001600160401b038211611647578190610e5d60085461259b565b601f81116115d2575b50602090601f8311600114611561578992611556575b50508160011b916000199060031b1c1916176008555b8051906001600160401b038211611542578190610eb060075461259b565b601f81116114cd575b50602090601f831160011461145c578892611451575b50508160011b916000199060031b1c1916176007555b602081015160028054610100600160a81b03191660089290921b610100600160a81b031691909117905560400151600380546001600160a01b0319166001600160a01b0392909216919091179055815160e090830183900312610c065760405160e081018181106001600160401b0382111761143d576040526020830151815260408301519160208201928352606084015192604083019384526080850151606084015260a08501516080840152610fab60e060c08701519660a08601978852016125f8565b9060c084019182526080838051810103126114395760405191608083018381106001600160401b03821117611425576040526020840151835260408401516020840152611006608060608601519560408601968752016125f8565b9460608401958652805161101d88518551906125d5565b03611416576001600160801b039051116114075761108192916110779160018060a01b039051166bffffffffffffffffffffffff60a01b600654161760065551611070670de0b6b3a7640000809261260c565b965161260c565b9551600155612dc9565b15159060ff6002549161ffff60e81b905160e81b1692169061010062ff000160e81b0316171760025560018060a01b039051166bffffffffffffffffffffffff60a01b6004541617600455806113f7575b50806113db575b5060025460405163c45a015560e01b815290839060081c6001600160a01b0316602083600481845afa9283156113d0578293611390575b5060035460405163e6a4390560e01b81523060048201526001600160a01b0391821660248201819052909490929160209186916044918391165afa938415611307578394611354575b506001600160a01b03841615611213575b5050506001600160a01b031661117f81613070565b5082546001600160a01b031990811691909117835560108054909116331790556003805460ff60a01b1916600160a01b1790556111b95780f35b68ff00000000000000001960008051602061321f833981519152541660008051602061321f833981519152557fc7f505b2f371ae2175ee4913f4499e1f2633a7b5936321eed1cdaeb6115181d2602060405160018152a180f35b6004919293506020906040519283809263c45a015560e01b82525afa908115611307578391611312575b506040516364e329cb60e11b81523060048201526001600160a01b03909216602483015290916020918391829081604481015b03926001600160a01b03165af19081156113075783916112c9575b506040516001600160a01b03821681527f969ffc8569f9af3993220e04ac05164e5db4e3d9f8b1a47f64e7de9a04b8ea2f90602090a182388061116a565b90506020813d6020116112ff575b816112e4602093836124c5565b810103126112fb576112f5906125f8565b3861128b565b8280fd5b3d91506112d7565b6040513d85823e3d90fd5b90506020813d60201161134c575b8161132d602093836124c5565b810103126112fb57602091611344611270926125f8565b91509161123d565b3d9150611320565b9093506020813d602011611388575b81611370602093836124c5565b810103126112fb57611381906125f8565b9238611159565b3d9150611363565b9092506020813d6020116113c8575b816113ac602093836124c5565b810103126113c4576113bd906125f8565b9138611110565b5080fd5b3d915061139f565b6040513d84823e3d90fd5b6006546113f191906001600160a01b0316612e40565b386110d9565b6114019030612e40565b386110d2565b637f47720f60e11b8952600489fd5b6361cf53d560e01b8a5260048afd5b634e487b7160e01b8a52604160045260248afd5b8780fd5b634e487b7160e01b86526041600452602486fd5b015190503880610ecf565b600789526000805160206131bf8339815191529250601f198416895b8181106114b5575090846001959493921061149c575b505050811b01600755610ee5565b015160001960f88460031b161c1916905538808061148e565b92936020600181928786015181550195019301611478565b90915060078852601f830160051c6000805160206131bf83398151915201906020841061152c575b90601f8493920160051c6000805160206131bf83398151915201905b81811061151e5750610eb9565b898155849350600101611511565b6000805160206131bf83398151915291506114f5565b634e487b7160e01b87526041600452602487fd5b015190503880610e7c565b60088a526000805160206131df8339815191529250601f1984168a5b8181106115ba57509084600195949392106115a1575b505050811b01600855610e92565b015160001960f88460031b161c19169055388080611593565b9293602060018192878601518155019501930161157d565b90915060088952601f830160051c6000805160206131df833981519152019060208410611631575b90601f8493920160051c6000805160206131df83398151915201905b8181106116235750610e66565b8a8155849350600101611616565b6000805160206131df83398151915291506115fa565b634e487b7160e01b88526041600452602488fd5b8880fd5b8680fd5b68ffffffffffffffffff1916680100000000000000011760008051602061321f8339815191525538610dd3565b63f92ee8a960e01b8752600487fd5b90501538610da9565b303b159150610da1565b879150610d97565b8480fd5b81356001600160a01b03811681036116ba57815260209182019101610d00565b634e487b7160e01b83526041600452602483fd5b50346102485760403660031901126102485761172361170f612483565b6024359061171e82338361270a565b612c43565b80f35b503461024857806003193601126102485760008051602061323f83398151915254336001600160a01b03909116036117615761172333612d16565b63118cdaa760e01b815233600452602490fd5b503461024857806003193601126102485761178d612ce0565b60008051602061323f83398151915280546001600160a01b031990811690915560008051602061319f8339815191528054918216905581906001600160a01b03167f8be0079c531659141344cd1fd0a4f28419497f9722a3daafe3b4186f6b6457e08280a380f35b5034610248576020366003190112610248576020906040906001600160a01b0361181d612483565b168152600a83522054604051908152f35b50346102485780600319360112610248576020600154604051908152f35b503461024857602036600319011261024857611866612483565b60008051602061319f833981519152546001600160a01b031633141580611bf0575b61042b5760025463ffffffff8160a81c16611be15763ffffffff60a81b19164260a81b63ffffffff60a81b16176002819055308352600a602052604083205415611bd25760081c6001600160a01b03163015611bc3578015611bb457308352600b6020526040832060018060a01b0382166000526020526040600020600019905560405160001981527f8c5be1e5ebec7d5bd14f71427d1e84f3dd0314c0f7b2291e5b200ac8c7c3b92560203092a360035460025460405163095ea7b360e01b81526001600160a01b0360089290921c82166004820152600019602482015291602091839160449183918891165af1801561130757611b97575b5060018060a01b0360025460081c169060018060a01b0360035416308452600a60205260408420549084604051946370a0823160e01b8652306004870152602086602481865afa9586156113d0578296611b59575b50916101049160609493604051978895869462e8e33760e81b86523060048701526024860152604485015260648401528160848401528160a48401523060c48401524260e48401525af191821561130757839084908594611af8575b50917fbf59dda00152e02f20e18cab7307c8afe0714e7f69cf24a1377cbbddcb40f9bb6060611aba959360209560405191825286820152846040820152a16003805460ff60a01b19169055845460405163a9059cbb60e01b81526001600160a01b039283166004820152602481019390935291938492909116908290869082906044820190565b03925af180156113d057611acc575080f35b611aed9060203d602011611af1575b611ae581836124c5565b810190612cc8565b5080f35b503d611adb565b935050506060823d606011611b51575b81611b15606093836124c5565b810103126112fb5781516020830151604090930151927fbf59dda00152e02f20e18cab7307c8afe0714e7f69cf24a1377cbbddcb40f9bb611a33565b3d9150611b08565b9193929095506020823d602011611b8f575b81611b78602093836124c5565b81010312610c0657905194919290916101046119d7565b3d9150611b6b565b611baf9060203d602011611af157611ae581836124c5565b611982565b63b2fa1ef360e01b8352600483fd5b6356fdae6560e11b8352600483fd5b6330d86fb160e11b8352600483fd5b63b1f3376760e01b8352600483fd5b506010546001600160a01b0316331415611888565b5034610248578060031936011261024857602061ffff60025460e81c16604051908152f35b5034610248578060031936011261024857546040516001600160a01b039091168152602090f35b50346102485760203660031901126102485761172360043533612c43565b50346102485780600319360112610248576003546040516001600160a01b039091168152602090f35b50346102485760403660031901126102485761082e906040611cb8612483565b91338152600b6020522060018060a01b038216600052602052611ce3604060002060243590546125d5565b9033612681565b503461024857602036600319011261024857611d046124b4565b60008051602061319f833981519152546001600160a01b031633141580611d7d575b61042b5760407fe4351c45b53ffb7ebad0b66cc0f1a3dfe2963c099421eeaded141104df39206a9161ffff600254918160e81b8160e81b168260e81b198416176002558184519360e81c168352166020820152a180f35b506010546001600160a01b0316331415611d26565b5034610248578060031936011261024857602060405160128152f35b50346102485780600319360112610248576005546001600160801b0381169081611dd6578280f35b6fffffffffffffffffffffffffffffffff191660055560045482546001600160a01b039182169291168214806122b5575b806122a2575b61229357301561228457811561227557308352600a6020526040832054908082106122665760025460ff8116611fd2575b508060025460ff811680611fcb575b80611fbb575b611ea9575b50611e63919261276f565b308452600a6020526040842055818352600a60205260408320611e878282546125d5565b90556040519081526000805160206131ff83398151915260203092a338808280f35b8590611eb48661261f565b80611fab575b15611f44575061ffff60025460d81c1680611f13575b505b8015611e5857611e639250308652600a6020526040862081815401905560405181815230906000805160206131ff83398151915260203092a3810391611e58565b61271090830204906005546001600160801b038084168183160116906001600160801b031916176005550138611ed0565b611f4d3061261f565b80611f9b575b611f5e575b50611ed2565b60c81c61ffff168015611f585761271091508202046005546001600160801b038083168183160116906001600160801b0319161760055538611f58565b5061ffff8160c81c161515611f53565b5061ffff8160d81c161515611eba565b5060ff60035460a01c1615611e53565b5085611e4d565b308552600a60205260408520548091612710611ff860095461ffff8460e81c169061260c565b04908183101580612256575b80612246575b8061222f575b80612218575b612023575b505050611e3e565b6003805460ff60a01b198116600160a01b179091559160148082029180159083049091141715612204578084116121fc575b50604051916120656060846124c5565b6002835260403660208501373061207b84613120565b526001600160a01b031661208e8361312d565b526004546001600160a01b03908116924261025881019360081c9092169183106121e85790899291813b15610c0657836120f39160405196879586948593635c11d79560e01b85528b600486015285602486015260a0604486015260a485019061255e565b916064840152608483015203925af190816121d4575b506121525750507f60dc41faad9fe4f70f304dcef26d96d71e98ec8e21e4a340921d94dfe46307dc602060405160058152a15b6003805460ff60a01b191690553880808061201b565b818110156121bd576001600160801b0361217b60055493612176838616948561260c565b612e20565b1690036001600160801b0381116121a9576001600160801b0316906001600160801b0319161760055561213c565b634e487b7160e01b86526011600452602486fd5b50506001600160801b03196005541660055561213c565b876121e1919892986124c5565b9538612109565b634e487b7160e01b8a52601160045260248afd5b925038612055565b634e487b7160e01b89526011600452602489fd5b50600881901c6001600160a01b0316871415612016565b5030600882901c6001600160a01b03161415612010565b506122503061261f565b1561200a565b5060ff60035460a01c1615612004565b635dd58b8b60e01b8452600484fd5b633a954ecd60e21b8352600483fd5b630b07e54560e11b8352600483fd5b630d970b4560e21b8352600483fd5b5063ffffffff60025460a81c1615611e0d565b5082611e07565b50346102485760603660031901126102485761082e6122d9612483565b6122e161249e565b604435906122f082338561270a565b6122f98361261f565b928361277c57925061230a8161261f565b9261277c565b50346102485780600319360112610248576020600954604051908152f35b5034610248578060031936011261024857602063ffffffff60025460a81c16604051908152f35b50346102485760403660031901126102485761082e612372612483565b6024359033612681565b503461024857806003193601126102485760405190806007549061239f8261259b565b8085529160018116908115610af757506001146123c65761062084610aa0818603826124c5565b600781526000805160206131bf833981519152939250905b8082106123f757509091508101602001610aa082610a90565b9192600181602092548385880101520191019092916123de565b9050346113c457816003193601126113c45760209061ffff60025460d81c168152f35b60005b8381106124475750506000910152565b8181015183820152602001612437565b604091602082526124778151809281602086015260208686019101612434565b601f01601f1916010190565b600435906001600160a01b038216820361249957565b600080fd5b602435906001600160a01b038216820361249957565b6004359061ffff8216820361249957565b90601f801991011681019081106001600160401b038211176124e657604052565b634e487b7160e01b600052604160045260246000fd5b6001600160401b0381116124e657601f01601f191660200190565b81601f820112156124995780359061252e826124fc565b9261253c60405194856124c5565b8284526020838301011161249957816000926020809301838601378301015290565b906020808351928381520192019060005b81811061257c5750505090565b82516001600160a01b031684526020938401939092019160010161256f565b90600182811c921680156125cb575b60208310146125b557565b634e487b7160e01b600052602260045260246000fd5b91607f16916125aa565b919082018092116125e257565b634e487b7160e01b600052601160045260246000fd5b51906001600160a01b038216820361249957565b818102929181159184041417156125e257565b6000546001600160a01b039182169116811490811561263c575090565b9050600052600f602052604060002054151590565b3d1561267c573d90612662826124fc565b9161267060405193846124c5565b82523d6000602084013e565b606090565b6001600160a01b03169081156126f9576001600160a01b03169182156126e85760207f8c5be1e5ebec7d5bd14f71427d1e84f3dd0314c0f7b2291e5b200ac8c7c3b9259183600052600b8252604060002085600052825280604060002055604051908152a3565b63b2fa1ef360e01b60005260046000fd5b6356fdae6560e11b60005260046000fd5b6001600160a01b038082166000908152600b60209081526040808320938616835292905220549290919060018401612743575b50505050565b80841061275e57612755930391612681565b3880808061273d565b6313be252b60e01b60005260046000fd5b919082039182116125e257565b600080546001600160a01b038085169694959116861480612c30575b80612c1d575b612c0e576001600160a01b03831694851561228457861561227557858352600a6020526040832054948286106122665760025460ff811661296e575b50918391602095936000805160206131ff83398151915297955082946002549160ff83169081612966575b5080612956575b61284a575b505050612821906040939461276f565b868252600a855282822055868152600a84522061283f8282546125d5565b9055604051908152a3565b612854859361261f565b80612946575b156128df57505061ffff60025460d81c16806128ae575b505b80612880575b8080612811565b604093509061282191308452600a875284842081815401905584518181528989893093a38103935090612879565b61271090830204906005546001600160801b038084168183160116906001600160801b031916176005550138612871565b6128e89061261f565b80612936575b6128f9575b50612873565b60c81c61ffff1680156128f35761271091508202046005546001600160801b038083168183160116906001600160801b03191617600555386128f3565b5061ffff8160c81c1615156128ee565b5061ffff8260d81c16151561285a565b5060ff60035460a01c161561280c565b905038612805565b308552600a6020526040852054809161271061299460095461ffff8460e81c169061260c565b04908183101580612bfe575b80612bee575b80612bd7575b80612bc0575b6129bf575b5050506127da565b6003805460ff60a01b198116600160a01b17909155916014808202918015908304909114171561220457808411612bb8575b5060405191612a016060846124c5565b60028352604036602085013730612a1784613120565b526001600160a01b0316612a2a8361312d565b526004546001600160a01b03908116924261025881019360081c9092169183106121e857813b15612bb45790612a8e8a80949360405196879586948593635c11d79560e01b85528b600486015285602486015260a0604486015260a485019061255e565b916064840152608483015203925af19081612ba0575b50612b07575050916000805160206131ff833981519152959391602095937f60dc41faad9fe4f70f304dcef26d96d71e98ec8e21e4a340921d94dfe46307dc8760405160058152a15b60ff60a01b196003541660035591939581939597386129b7565b81811015612b72576001600160801b03612b2b60055493612176838616948561260c565b1690036001600160801b0381116121a957916000805160206131ff833981519152979593916001600160801b03602098969416906001600160801b03191617600555612aed565b5050916000805160206131ff833981519152959391602095936001600160801b031960055416600555612aed565b87612bad919892986124c5565b9538612aa4565b8980fd5b9250386129f1565b50600881901c6001600160a01b03168c14156129b2565b50600881901c6001600160a01b03168b14156129ac565b50612bf88961261f565b156129a6565b5060ff60035460a01c16156129a0565b630d970b4560e21b8252600482fd5b5063ffffffff60025460a81c161561279e565b506001600160a01b038316301415612798565b6001600160a01b03168015612cb75780600052600a60205260406000205491808310612ca6576020816000805160206131ff83398151915292600095858752600a84520360408620556001600160801b03811660095403600955604051908152a3565b63588569f760e01b60005260046000fd5b6304fca6bd60e41b60005260046000fd5b90816020910312612499575180151581036124995790565b60008051602061319f833981519152546001600160a01b03163303612d0157565b63118cdaa760e01b6000523360045260246000fd5b60008051602061323f83398151915280546001600160a01b031990811690915560008051602061319f83398151915280549182166001600160a01b0393841690811790915591167f8be0079c531659141344cd1fd0a4f28419497f9722a3daafe3b4186f6b6457e0600080a3565b81601f82011215612499578051612d9a816124fc565b92612da860405194856124c5565b8184526020828401011161249957612dc69160208085019101612434565b90565b805190811580612e14575b15612de0575050600090565b60025490602061ffff60d81b91015160d81b169161ffff60c81b9060c81b169063ffffffff60c81b19161717600255600190565b50602081015115612dd4565b8115612e2a570490565b634e487b7160e01b600052601260045260246000fd5b6001600160a01b0316908115612e96576000805160206131ff833981519152602082612e796001600160801b03600095166009546125d5565b600955848452600a825260408420818154019055604051908152a3565b622e076360e81b60005260046000fd5b8054821015612ebe5760005260206000200190600090565b634e487b7160e01b600052603260045260246000fd5b6000818152600d60205260409020548015612fb55760001981018181116125e257600c546000198101919082116125e257818103612f64575b505050600c548015612f4e5760001901612f2881600c612ea6565b8154906000199060031b1b19169055600c55600052600d60205260006040812055600190565b634e487b7160e01b600052603160045260246000fd5b612f9d612f75612f8693600c612ea6565b90549060031b1c928392600c612ea6565b819391549060031b91821b91600019901b19161790565b9055600052600d602052604060002055388080612f0d565b5050600090565b6000818152600f60205260409020548015612fb55760001981018181116125e257600e546000198101919082116125e257818103613036575b505050600e548015612f4e576000190161301081600e612ea6565b8154906000199060031b1b19169055600e55600052600f60205260006040812055600190565b613058613047612f8693600e612ea6565b90549060031b1c928392600e612ea6565b9055600052600f602052604060002055388080612ff5565b80600052600f602052604060002054156000146130c557600e54600160401b8110156124e6576130ac612f86826001859401600e55600e612ea6565b9055600e5490600052600f602052604060002055600190565b50600090565b80600052600d602052604060002054156000146130c557600c54600160401b8110156124e657613107612f86826001859401600c55600c612ea6565b9055600c5490600052600d602052604060002055600190565b805115612ebe5760200190565b805160011015612ebe5760400190565b90613163575080511561315257805190602001fd5b630a12f52160e11b60005260046000fd5b81511580613195575b613174575090565b639996b31560e01b60009081526001600160a01b0391909116600452602490fd5b50803b1561316c56fe9016d09d72d40fdae2fd8ceac6b6234c7706214fd39c1cd1e609a0528c199300a66cc928b5edb82af9bd49922954155ab7b0942694bea4ce44661d9a8736c688f3f7a9fe364faab93b216da50a3214154f22a0a2b415b23a84c8169e8b636ee3ddf252ad1be2c89b69c2b068fc378daa952ba7f163c4a11628f55a4df523b3eff0c57e16840df040f15088dc2f81fe391c3923bec73e23a9662efc9c229c6a00237e158222e3e6968b72b9db0d8043aacf074ad9f650f0d1606b4d82ee432c00a26469706673582212205d731eddabaa673b0fac225ce495233fc0a19a5e2529b4d2cba0e964147b184064736f6c634300081a0033","linkReferences":{}},"methodIdentifiers":{"acceptOwnership()":"79ba5097","addInitialLiquidity(address)":"59cabbe4","addLiquidityPool(address)":"ee6a934c","addValidCaller(bytes32)":"e37d9e95","allowance(address,address)":"dd62ed3e","approve(address,uint256)":"095ea7b3","balanceOf(address)":"70a08231","botProtectionDurationInSeconds()":"63a9c1f2","burn(uint256)":"42966c68","burnFrom(address,uint256)":"79cc6790","decimals()":"313ce567","decreaseAllowance(address,uint256)":"a457c2d7","distributeTaxTokens()":"2ead0955","fundedDate()":"10b828c9","increaseAllowance(address,uint256)":"39509351","initialize(address[3],bytes,bytes,bytes)":"84b1df52","isLiquidityPool(address)":"e85455d7","isValidCaller(bytes32)":"bfe3098f","liquidityPools()":"d6efd7c3","name()":"06fdde03","owner()":"8da5cb5b","pairToken()":"3de35b79","pendingOwner()":"e30c3978","projectBuyTaxBasisPoints()":"a45cae02","projectSellTaxBasisPoints()":"b2c5c9eb","projectTaxPendingSwap()":"b0d75097","projectTaxRecipient()":"ea8b2424","removeLiquidityPool(address)":"ae22107f","removeValidCaller(bytes32)":"8589287a","renounceOwnership()":"715018a6","setProjectTaxRates(uint16,uint16)":"936b2934","setProjectTaxRecipient(address)":"9808751d","setSwapThresholdBasisPoints(uint16)":"326b3b8b","swapThresholdBasisPoints()":"4bed5ad2","symbol()":"95d89b41","totalBuyTaxBasisPoints()":"eeae0f97","totalSellTaxBasisPoints()":"038272b6","totalSupply()":"18160ddd","transfer(address,uint256)":"a9059cbb","transferFrom(address,address,uint256)":"23b872dd","transferOwnership(address)":"f2fde38b","uniswapV2Pair()":"49bd5a5e","validCallers()":"b498d39f","vault()":"fbfa77cf","withdrawERC20(address,uint256)":"a1db9782","withdrawETH(uint256)":"f14210a6"},"id":3}