{"abi":[{"type":"constructor","inputs":[],"stateMutability":"nonpayable"},{"type":"function","name":"ADMIN_ROLE","inputs":[],"outputs":[{"name":"","type":"bytes32","internalType":"bytes32"}],"stateMutability":"view"},{"type":"function","name":"DEFAULT_ADMIN_ROLE","inputs":[],"outputs":[{"name":"","type":"bytes32","internalType":"bytes32"}],"stateMutability":"view"},{"type":"function","name":"assetToken","inputs":[],"outputs":[{"name":"","type":"address","internalType":"address"}],"stateMutability":"view"},{"type":"function","name":"bondingRouter","inputs":[],"outputs":[{"name":"","type":"address","internalType":"address"}],"stateMutability":"view"},{"type":"function","name":"getRoleAdmin","inputs":[{"name":"role","type":"bytes32","internalType":"bytes32"}],"outputs":[{"name":"","type":"bytes32","internalType":"bytes32"}],"stateMutability":"view"},{"type":"function","name":"grantRole","inputs":[{"name":"role","type":"bytes32","internalType":"bytes32"},{"name":"account","type":"address","internalType":"address"}],"outputs":[],"stateMutability":"nonpayable"},{"type":"function","name":"hasRole","inputs":[{"name":"role","type":"bytes32","internalType":"bytes32"},{"name":"account","type":"address","internalType":"address"}],"outputs":[{"name":"","type":"bool","internalType":"bool"}],"stateMutability":"view"},{"type":"function","name":"initialize","inputs":[{"name":"defaultAdmin_","type":"address","internalType":"address"},{"name":"assetToken_","type":"address","internalType":"address"},{"name":"taxToken_","type":"address","internalType":"address"},{"name":"router_","type":"address","internalType":"address"},{"name":"bondingRouter_","type":"address","internalType":"address"},{"name":"treasury_","type":"address","internalType":"address"},{"name":"minSwapThreshold_","type":"uint256","internalType":"uint256"},{"name":"maxSwapThreshold_","type":"uint256","internalType":"uint256"}],"outputs":[],"stateMutability":"nonpayable"},{"type":"function","name":"maxSwapThreshold","inputs":[],"outputs":[{"name":"","type":"uint256","internalType":"uint256"}],"stateMutability":"view"},{"type":"function","name":"minSwapThreshold","inputs":[],"outputs":[{"name":"","type":"uint256","internalType":"uint256"}],"stateMutability":"view"},{"type":"function","name":"renounceRole","inputs":[{"name":"role","type":"bytes32","internalType":"bytes32"},{"name":"callerConfirmation","type":"address","internalType":"address"}],"outputs":[],"stateMutability":"nonpayable"},{"type":"function","name":"revokeRole","inputs":[{"name":"role","type":"bytes32","internalType":"bytes32"},{"name":"account","type":"address","internalType":"address"}],"outputs":[],"stateMutability":"nonpayable"},{"type":"function","name":"router","inputs":[],"outputs":[{"name":"","type":"address","internalType":"contract IRouter"}],"stateMutability":"view"},{"type":"function","name":"supportsInterface","inputs":[{"name":"interfaceId","type":"bytes4","internalType":"bytes4"}],"outputs":[{"name":"","type":"bool","internalType":"bool"}],"stateMutability":"view"},{"type":"function","name":"swapForAsset","inputs":[],"outputs":[{"name":"","type":"bool","internalType":"bool"},{"name":"","type":"uint256","internalType":"uint256"}],"stateMutability":"nonpayable"},{"type":"function","name":"taxToken","inputs":[],"outputs":[{"name":"","type":"address","internalType":"address"}],"stateMutability":"view"},{"type":"function","name":"treasury","inputs":[],"outputs":[{"name":"","type":"address","internalType":"address"}],"stateMutability":"view"},{"type":"function","name":"updateSwapParams","inputs":[{"name":"router_","type":"address","internalType":"address"},{"name":"bondingRouter_","type":"address","internalType":"address"},{"name":"assetToken_","type":"address","internalType":"address"},{"name":"slippage_","type":"uint16","internalType":"uint16"}],"outputs":[],"stateMutability":"nonpayable"},{"type":"function","name":"updateSwapThresholds","inputs":[{"name":"minSwapThreshold_","type":"uint256","internalType":"uint256"},{"name":"maxSwapThreshold_","type":"uint256","internalType":"uint256"}],"outputs":[],"stateMutability":"nonpayable"},{"type":"function","name":"updateTreasury","inputs":[{"name":"treasury_","type":"address","internalType":"address"}],"outputs":[],"stateMutability":"nonpayable"},{"type":"function","name":"withdraw","inputs":[{"name":"token","type":"address","internalType":"address"}],"outputs":[],"stateMutability":"nonpayable"},{"type":"event","name":"Initialized","inputs":[{"name":"version","type":"uint64","indexed":false,"internalType":"uint64"}],"anonymous":false},{"type":"event","name":"RoleAdminChanged","inputs":[{"name":"role","type":"bytes32","indexed":true,"internalType":"bytes32"},{"name":"previousAdminRole","type":"bytes32","indexed":true,"internalType":"bytes32"},{"name":"newAdminRole","type":"bytes32","indexed":true,"internalType":"bytes32"}],"anonymous":false},{"type":"event","name":"RoleGranted","inputs":[{"name":"role","type":"bytes32","indexed":true,"internalType":"bytes32"},{"name":"account","type":"address","indexed":true,"internalType":"address"},{"name":"sender","type":"address","indexed":true,"internalType":"address"}],"anonymous":false},{"type":"event","name":"RoleRevoked","inputs":[{"name":"role","type":"bytes32","indexed":true,"internalType":"bytes32"},{"name":"account","type":"address","indexed":true,"internalType":"address"},{"name":"sender","type":"address","indexed":true,"internalType":"address"}],"anonymous":false},{"type":"event","name":"SwapExecuted","inputs":[{"name":"taxTokenAmount","type":"uint256","indexed":false,"internalType":"uint256"},{"name":"assetTokenAmount","type":"uint256","indexed":false,"internalType":"uint256"}],"anonymous":false},{"type":"event","name":"SwapFailed","inputs":[{"name":"taxTokenAmount","type":"uint256","indexed":false,"internalType":"uint256"}],"anonymous":false},{"type":"event","name":"SwapParamsUpdated","inputs":[{"name":"oldRouter","type":"address","indexed":false,"internalType":"address"},{"name":"newRouter","type":"address","indexed":false,"internalType":"address"},{"name":"oldBondingRouter","type":"address","indexed":false,"internalType":"address"},{"name":"newBondingRouter","type":"address","indexed":false,"internalType":"address"},{"name":"oldAsset","type":"address","indexed":false,"internalType":"address"},{"name":"newAsset","type":"address","indexed":false,"internalType":"address"}],"anonymous":false},{"type":"event","name":"SwapThresholdUpdated","inputs":[{"name":"oldMinThreshold","type":"uint256","indexed":false,"internalType":"uint256"},{"name":"newMinThreshold","type":"uint256","indexed":false,"internalType":"uint256"},{"name":"oldMaxThreshold","type":"uint256","indexed":false,"internalType":"uint256"},{"name":"newMaxThreshold","type":"uint256","indexed":false,"internalType":"uint256"}],"anonymous":false},{"type":"event","name":"TreasuryUpdated","inputs":[{"name":"oldTreasury","type":"address","indexed":false,"internalType":"address"},{"name":"newTreasury","type":"address","indexed":false,"internalType":"address"}],"anonymous":false},{"type":"error","name":"AccessControlBadConfirmation","inputs":[]},{"type":"error","name":"AccessControlUnauthorizedAccount","inputs":[{"name":"account","type":"address","internalType":"address"},{"name":"neededRole","type":"bytes32","internalType":"bytes32"}]},{"type":"error","name":"AddressEmptyCode","inputs":[{"name":"target","type":"address","internalType":"address"}]},{"type":"error","name":"AddressInsufficientBalance","inputs":[{"name":"account","type":"address","internalType":"address"}]},{"type":"error","name":"FailedInnerCall","inputs":[]},{"type":"error","name":"InvalidInitialization","inputs":[]},{"type":"error","name":"NotInitializing","inputs":[]},{"type":"error","name":"SafeERC20FailedOperation","inputs":[{"name":"token","type":"address","internalType":"address"}]}],"bytecode":{"object":"0x6080806040523460d2577ff0c57e16840df040f15088dc2f81fe391c3923bec73e23a9662efc9c229c6a005460ff8160401c1660c1576002600160401b03196001600160401b03821601605c575b60405161150c90816100d88239f35b6001600160401b0319166001600160401b039081177ff0c57e16840df040f15088dc2f81fe391c3923bec73e23a9662efc9c229c6a005581527fc7f505b2f371ae2175ee4913f4499e1f2633a7b5936321eed1cdaeb6115181d290602090a13880604d565b63f92ee8a960e01b60005260046000fd5b600080fdfe608080604052600436101561001357600080fd5b60003560e01c90816301ffc9a714610a06575080631083f761146109dd57806315ca79ac146109735780631fc928ae1461094a578063248a9ca3146109245780632f2ff15d146108f357806336568abe146108ad57806351cff8d9146107ce57806361d027b3146107a557806375b238fc1461076a5780637f51bb1f146106f957806387644953146106db57806391d1485414610681578063951d833d1461060b5780639fdfbea914610431578063a217fddf14610415578063acef1a44146103f7578063b0205927146103ce578063c740671f1461016c578063d547741f146101345763f887ea401461010657600080fd5b3461012f57600036600319011261012f576002546040516001600160a01b039091168152602090f35b600080fd5b3461012f57604036600319011261012f5761016a600435610153610a59565b9061016561016082610a9b565b610f7a565b6111ed565b005b3461012f5761010036600319011261012f57610186610a6f565b61018e610a59565b90610197610a85565b606435906001600160a01b0382169081830361012f576084356001600160a01b0381169081900361012f5760a4356001600160a01b038116929083900361012f576000805160206114b7833981519152549660ff8860401c16159767ffffffffffffffff8116801590816103c6575b60011490816103bc575b1590816103b3575b506103a25767ffffffffffffffff1981166001176000805160206114b78339815191525588610375575b5060ff6000805160206114b78339815191525460401c1615610364576102748761026e6102f799610fc4565b50611098565b5060018060a01b03166001600160601b0360a01b600054161760005560018060a01b031692836001600160601b0360a01b60015416176001556001600160601b0360a01b60025416176002556001600160601b0360a01b60035416176003556001600160601b0360a01b600454161760045560c43560055560e43560065561128d565b606461ffff19600754161760075561030b57005b68ff0000000000000000196000805160206114b783398151915254166000805160206114b7833981519152557fc7f505b2f371ae2175ee4913f4499e1f2633a7b5936321eed1cdaeb6115181d2602060405160018152a1005b631afcd79f60e31b60005260046000fd5b68ffffffffffffffffff191668010000000000000001176000805160206114b78339815191525588610242565b63f92ee8a960e01b60005260046000fd5b9050158a610218565b303b159150610210565b8a9150610206565b3461012f57600036600319011261012f576003546040516001600160a01b039091168152602090f35b3461012f57600036600319011261012f576020600654604051908152f35b3461012f57600036600319011261012f57602060405160008152f35b3461012f57608036600319011261012f5761044a610a6f565b610452610a59565b61045a610a85565b916064359161ffff831680930361012f577febffc51a0a7498708af30e8f6cb80c598904ace1680c3d3511fa2215b5808b929360c093610498610f08565b6002805460038054600080546001600160a01b039788166001600160a01b031980831682179093558a8916838716811790975598881691831682179093556007805461ffff1916969096179095556001549286169791959093926104fd92911661128d565b60018060a01b03600154166040516000806020830163095ea7b360e01b81528a602485015281604485015260448452610537606485610abc565b83519082865af16105466113f5565b816105dc575b50806105d2575b1561058d575b5050604051958652602086015260018060a01b03166040850152606084015260018060a01b0316608083015260a0820152a1005b6105cb916105c660405163095ea7b360e01b60208201528a602482015260006044820152604481526105c0606482610abc565b82611387565b611387565b8880610559565b50813b1515610553565b80518015925082156105f1575b50508b61054c565b610604925060208091830101910161136f565b8b806105e9565b3461012f57600036600319011261012f576003546001600160a01b03163303610646576040610638610bdd565b825191151582526020820152f35b60405162461bcd60e51b815260206004820152601360248201527227b7363c903137b73234b733903937baba32b960691b6044820152606490fd5b3461012f57604036600319011261012f5761069a610a59565b60043560005260008051602061149783398151915260205260406000209060018060a01b0316600052602052602060ff604060002054166040519015158152f35b3461012f57600036600319011261012f576020600554604051908152f35b3461012f57602036600319011261012f577f4ab5be82436d353e61ca18726e984e561f5c1cc7c6d38b29d2553c790434705a6040610735610a6f565b61073d610f08565b600480546001600160a01b039283166001600160a01b0319821681179092558351921682526020820152a1005b3461012f57600036600319011261012f5760206040517fa49807205ce4d355092ef5a8a18f56e8913cf4a201fbe287825b095693c217758152f35b3461012f57600036600319011261012f576004546040516001600160a01b039091168152602090f35b3461012f57602036600319011261012f576107e7610a6f565b6107ef610f08565b600480546040516370a0823160e01b8152309281019290925290916001600160a01b039182169116602083602481845afa9283156108a15760009361086b575b5060405163a9059cbb60e01b60208201526001600160a01b03909216602483015260448083019390935291815261016a916105c6606483610abc565b92506020833d602011610899575b8161088660209383610abc565b8101031261012f579151916105c661082f565b3d9150610879565b6040513d6000823e3d90fd5b3461012f57604036600319011261012f576108c6610a59565b336001600160a01b038216036108e25761016a906004356111ed565b63334bd91960e11b60005260046000fd5b3461012f57604036600319011261012f5761016a600435610912610a59565b9061091f61016082610a9b565b611144565b3461012f57602036600319011261012f576020610942600435610a9b565b604051908152f35b3461012f57600036600319011261012f576001546040516001600160a01b039091168152602090f35b3461012f57604036600319011261012f577f9a406f83dc9a92c8bd8f5abc852923a196fe3a87dd6d9ebe8272e928bd5d94fd60806004356024356109b5610f08565b60055491600654908060055582600655604051938452602084015260408301526060820152a1005b3461012f57600036600319011261012f576000546040516001600160a01b039091168152602090f35b3461012f57602036600319011261012f576004359063ffffffff60e01b821680920361012f57602091637965db0b60e01b8114908115610a48575b5015158152f35b6301ffc9a760e01b14905083610a41565b602435906001600160a01b038216820361012f57565b600435906001600160a01b038216820361012f57565b604435906001600160a01b038216820361012f57565b60005260008051602061149783398151915260205260016040600020015490565b90601f8019910116810190811067ffffffffffffffff821117610ade57604052565b634e487b7160e01b600052604160045260246000fd5b805160011015610b045760400190565b634e487b7160e01b600052603260045260246000fd5b60208183031261012f5780519067ffffffffffffffff821161012f57019080601f8301121561012f5781519167ffffffffffffffff8311610ade578260051b906020820193610b6c6040519586610abc565b845260208085019282010192831161012f57602001905b828210610b905750505090565b8151815260209182019101610b83565b906020808351928381520192019060005b818110610bbe5750505090565b82516001600160a01b0316845260209384019390920191600101610bb1565b6001546040516370a0823160e01b8152306004820152906001600160a01b0316602082602481845afa9182156108a157600092610ed1575b50818015610e94576005548110610e8957600654809111610e81575b5060405190610c41606083610abc565b60028252602082016040368237825115610b0457526000546001600160a01b0316610c6b82610af4565b5260018060a01b03600254169060405163d06ca61f60e01b81528360048201526040602482015260008180610ca36044820186610ba0565b0381865afa9081156108a157600091610e66575b50600181511115610e2157610ccb90610af4565b519061ffff600754166127100361ffff8111610e0b5761ffff1691828102928184041490151715610e0b576004544261012c810194916001600160a01b0316908510610e0b576000809461271092610d4e97604051988997889687956338ed173960e01b87528d600488015204602486015260a0604486015260a4850190610ba0565b916064840152608483015203925af160009181610de6575b50610d9f575060207ff9e10ddceffcb10b96e8833202366240699b814c91f371ddd9befa3aee9bc60f91604051908152a1600090600090565b7f4f73e5828387c436ef01a51b03853873e76d7a5551556837d452cbeb6f285cb56040610de093610dcf84610af4565b5182519182526020820152a1610af4565b51600191565b610e049192503d806000833e610dfc8183610abc565b810190610b1a565b9038610d66565b634e487b7160e01b600052601160045260246000fd5b60405162461bcd60e51b815260206004820152601b60248201527f4661696c656420746f20666574636820746f6b656e20707269636500000000006044820152606490fd5b610e7b91503d806000833e610dfc8183610abc565b38610cb7565b915038610c31565b505050600090600090565b60405162461bcd60e51b8152602060048201526015602482015274139bdd1a1a5b99c81d1bc81899481cddd85c1c1959605a1b6044820152606490fd5b90916020823d602011610f00575b81610eec60209383610abc565b81010312610efd5750519038610c15565b80fd5b3d9150610edf565b3360009081527fb16e88c42fd4e48df2dd6a2eabd6bc9aec654ec170056b470819f8892cc6431c602052604090205460ff1615610f4157565b63e2517d3f60e01b600052336004527fa49807205ce4d355092ef5a8a18f56e8913cf4a201fbe287825b095693c2177560245260446000fd5b60008181526000805160206114978339815191526020908152604080832033845290915290205460ff1615610fac5750565b63e2517d3f60e01b6000523360045260245260446000fd5b6001600160a01b03811660009081527fb16e88c42fd4e48df2dd6a2eabd6bc9aec654ec170056b470819f8892cc6431c602052604090205460ff16611092576001600160a01b031660008181527fb16e88c42fd4e48df2dd6a2eabd6bc9aec654ec170056b470819f8892cc6431c60205260408120805460ff191660011790553391907fa49807205ce4d355092ef5a8a18f56e8913cf4a201fbe287825b095693c21775907f2f8788117e7eff1d82e926ec794901d17c78024a50270940304540a733656f0d9080a4600190565b50600090565b6001600160a01b03811660009081527fb7db2dd08fcb62d0c9e08c51941cae53c267786a0b75803fb7960902fc8ef97d602052604090205460ff16611092576001600160a01b031660008181527fb7db2dd08fcb62d0c9e08c51941cae53c267786a0b75803fb7960902fc8ef97d60205260408120805460ff191660011790553391907f2f8788117e7eff1d82e926ec794901d17c78024a50270940304540a733656f0d8180a4600190565b6000818152600080516020611497833981519152602090815260408083206001600160a01b038616845290915290205460ff166111e6576000818152600080516020611497833981519152602090815260408083206001600160a01b0395909516808452949091528120805460ff19166001179055339291907f2f8788117e7eff1d82e926ec794901d17c78024a50270940304540a733656f0d9080a4600190565b5050600090565b6000818152600080516020611497833981519152602090815260408083206001600160a01b038616845290915290205460ff16156111e6576000818152600080516020611497833981519152602090815260408083206001600160a01b0395909516808452949091528120805460ff19169055339291907ff6391f5c32d9c69d2a47ea670b442974b53935d1edc7fd64eb21e047a839171b9080a4600190565b60405190602082019263095ea7b360e01b845260018060a01b0316928360248401526000196044840152604483526112c6606484610abc565b82516001600160a01b03831691600091829182855af1906112e56113f5565b8261133d575b5081611332575b50156112fd57505050565b6105c6611330936040519063095ea7b360e01b6020830152602482015260006044820152604481526105c0606482610abc565b565b90503b1515386112f2565b80519192508115918215611355575b505090386112eb565b611368925060208091830101910161136f565b388061134c565b9081602091031261012f5751801515810361012f5790565b6000806113b09260018060a01b03169360208151910182865af16113a96113f5565b9083611435565b80519081151591826113da575b50506113c65750565b635274afe760e01b60005260045260246000fd5b6113ed925060208091830101910161136f565b1538806113bd565b3d15611430573d9067ffffffffffffffff8211610ade5760405191611424601f8201601f191660200184610abc565b82523d6000602084013e565b606090565b9061145b575080511561144a57805190602001fd5b630a12f52160e11b60005260046000fd5b8151158061148d575b61146c575090565b639996b31560e01b60009081526001600160a01b0391909116600452602490fd5b50803b1561146456fe02dd7bc7dec4dceedda775e58dd541e08a116c6c53815c0bd028192f7b626800f0c57e16840df040f15088dc2f81fe391c3923bec73e23a9662efc9c229c6a00a2646970667358221220fa87837097d6c8097da48e9d05b79188f7e3d7d908495fefc4563e3e96ca6f5c64736f6c634300081a0033","linkReferences":{}},"methodIdentifiers":{"ADMIN_ROLE()":"75b238fc","DEFAULT_ADMIN_ROLE()":"a217fddf","assetToken()":"1083f761","bondingRouter()":"b0205927","getRoleAdmin(bytes32)":"248a9ca3","grantRole(bytes32,address)":"2f2ff15d","hasRole(bytes32,address)":"91d14854","initialize(address,address,address,address,address,address,uint256,uint256)":"c740671f","maxSwapThreshold()":"acef1a44","minSwapThreshold()":"87644953","renounceRole(bytes32,address)":"36568abe","revokeRole(bytes32,address)":"d547741f","router()":"f887ea40","supportsInterface(bytes4)":"01ffc9a7","swapForAsset()":"951d833d","taxToken()":"1fc928ae","treasury()":"61d027b3","updateSwapParams(address,address,address,uint16)":"9fdfbea9","updateSwapThresholds(uint256,uint256)":"15ca79ac","updateTreasury(address)":"7f51bb1f","withdraw(address)":"51cff8d9"},"id":48}